{
  "_format": "hh-sol-artifact-1",
  "contractName": "JobBounty",
  "sourceName": "contracts/JobBounty.sol",
  "abi": [
    {
      "inputs": [
        {
          "internalType": "address",
          "name": "_empowerTokenAddress",
          "type": "address"
        }
      ],
      "stateMutability": "nonpayable",
      "type": "constructor"
    },
    {
      "inputs": [
        {
          "internalType": "address",
          "name": "owner",
          "type": "address"
        }
      ],
      "name": "OwnableInvalidOwner",
      "type": "error"
    },
    {
      "inputs": [
        {
          "internalType": "address",
          "name": "account",
          "type": "address"
        }
      ],
      "name": "OwnableUnauthorizedAccount",
      "type": "error"
    },
    {
      "inputs": [],
      "name": "ReentrancyGuardReentrantCall",
      "type": "error"
    },
    {
      "anonymous": false,
      "inputs": [
        {
          "indexed": true,
          "internalType": "uint256",
          "name": "jobId",
          "type": "uint256"
        },
        {
          "indexed": true,
          "internalType": "address",
          "name": "worker",
          "type": "address"
        }
      ],
      "name": "JobApplied",
      "type": "event"
    },
    {
      "anonymous": false,
      "inputs": [
        {
          "indexed": true,
          "internalType": "uint256",
          "name": "jobId",
          "type": "uint256"
        },
        {
          "indexed": true,
          "internalType": "address",
          "name": "worker",
          "type": "address"
        }
      ],
      "name": "JobAssigned",
      "type": "event"
    },
    {
      "anonymous": false,
      "inputs": [
        {
          "indexed": true,
          "internalType": "uint256",
          "name": "jobId",
          "type": "uint256"
        },
        {
          "indexed": true,
          "internalType": "address",
          "name": "worker",
          "type": "address"
        },
        {
          "indexed": false,
          "internalType": "uint256",
          "name": "totalPaid",
          "type": "uint256"
        }
      ],
      "name": "JobCompleted",
      "type": "event"
    },
    {
      "anonymous": false,
      "inputs": [
        {
          "indexed": true,
          "internalType": "uint256",
          "name": "jobId",
          "type": "uint256"
        },
        {
          "indexed": true,
          "internalType": "address",
          "name": "employer",
          "type": "address"
        },
        {
          "indexed": false,
          "internalType": "string",
          "name": "title",
          "type": "string"
        },
        {
          "indexed": false,
          "internalType": "uint256",
          "name": "bounty",
          "type": "uint256"
        }
      ],
      "name": "JobCreated",
      "type": "event"
    },
    {
      "anonymous": false,
      "inputs": [
        {
          "indexed": true,
          "internalType": "uint256",
          "name": "jobId",
          "type": "uint256"
        },
        {
          "indexed": true,
          "internalType": "uint256",
          "name": "milestoneId",
          "type": "uint256"
        },
        {
          "indexed": true,
          "internalType": "address",
          "name": "worker",
          "type": "address"
        }
      ],
      "name": "MilestoneCompleted",
      "type": "event"
    },
    {
      "anonymous": false,
      "inputs": [
        {
          "indexed": true,
          "internalType": "uint256",
          "name": "jobId",
          "type": "uint256"
        },
        {
          "indexed": true,
          "internalType": "uint256",
          "name": "milestoneId",
          "type": "uint256"
        },
        {
          "indexed": true,
          "internalType": "address",
          "name": "worker",
          "type": "address"
        }
      ],
      "name": "MilestoneVerified",
      "type": "event"
    },
    {
      "anonymous": false,
      "inputs": [
        {
          "indexed": true,
          "internalType": "address",
          "name": "previousOwner",
          "type": "address"
        },
        {
          "indexed": true,
          "internalType": "address",
          "name": "newOwner",
          "type": "address"
        }
      ],
      "name": "OwnershipTransferred",
      "type": "event"
    },
    {
      "inputs": [
        {
          "internalType": "uint256",
          "name": "_jobId",
          "type": "uint256"
        }
      ],
      "name": "applyForJob",
      "outputs": [],
      "stateMutability": "nonpayable",
      "type": "function"
    },
    {
      "inputs": [
        {
          "internalType": "uint256",
          "name": "_jobId",
          "type": "uint256"
        },
        {
          "internalType": "address",
          "name": "_worker",
          "type": "address"
        }
      ],
      "name": "assignJob",
      "outputs": [],
      "stateMutability": "nonpayable",
      "type": "function"
    },
    {
      "inputs": [
        {
          "internalType": "uint256",
          "name": "_jobId",
          "type": "uint256"
        }
      ],
      "name": "cancelJob",
      "outputs": [],
      "stateMutability": "nonpayable",
      "type": "function"
    },
    {
      "inputs": [
        {
          "internalType": "uint256",
          "name": "_jobId",
          "type": "uint256"
        },
        {
          "internalType": "uint256",
          "name": "_milestoneId",
          "type": "uint256"
        }
      ],
      "name": "completeMilestone",
      "outputs": [],
      "stateMutability": "nonpayable",
      "type": "function"
    },
    {
      "inputs": [
        {
          "internalType": "string",
          "name": "_title",
          "type": "string"
        },
        {
          "internalType": "string",
          "name": "_description",
          "type": "string"
        },
        {
          "internalType": "uint256",
          "name": "_totalBounty",
          "type": "uint256"
        },
        {
          "internalType": "uint256",
          "name": "_deadline",
          "type": "uint256"
        },
        {
          "internalType": "string[]",
          "name": "_milestoneDescriptions",
          "type": "string[]"
        },
        {
          "internalType": "uint256[]",
          "name": "_milestoneAmounts",
          "type": "uint256[]"
        }
      ],
      "name": "createJob",
      "outputs": [],
      "stateMutability": "nonpayable",
      "type": "function"
    },
    {
      "inputs": [],
      "name": "empowerToken",
      "outputs": [
        {
          "internalType": "contract EmpowerToken",
          "name": "",
          "type": "address"
        }
      ],
      "stateMutability": "view",
      "type": "function"
    },
    {
      "inputs": [
        {
          "internalType": "uint256",
          "name": "_jobId",
          "type": "uint256"
        }
      ],
      "name": "getJob",
      "outputs": [
        {
          "components": [
            {
              "internalType": "address",
              "name": "employer",
              "type": "address"
            },
            {
              "internalType": "string",
              "name": "title",
              "type": "string"
            },
            {
              "internalType": "string",
              "name": "description",
              "type": "string"
            },
            {
              "internalType": "uint256",
              "name": "totalBounty",
              "type": "uint256"
            },
            {
              "internalType": "uint256",
              "name": "deadline",
              "type": "uint256"
            },
            {
              "internalType": "bool",
              "name": "isActive",
              "type": "bool"
            },
            {
              "internalType": "bool",
              "name": "isCompleted",
              "type": "bool"
            },
            {
              "internalType": "address",
              "name": "assignedWorker",
              "type": "address"
            },
            {
              "internalType": "uint256",
              "name": "completionDate",
              "type": "uint256"
            }
          ],
          "internalType": "struct JobBounty.Job",
          "name": "",
          "type": "tuple"
        }
      ],
      "stateMutability": "view",
      "type": "function"
    },
    {
      "inputs": [
        {
          "internalType": "uint256",
          "name": "_jobId",
          "type": "uint256"
        }
      ],
      "name": "getJobMilestones",
      "outputs": [
        {
          "components": [
            {
              "internalType": "string",
              "name": "description",
              "type": "string"
            },
            {
              "internalType": "uint256",
              "name": "amount",
              "type": "uint256"
            },
            {
              "internalType": "bool",
              "name": "isCompleted",
              "type": "bool"
            },
            {
              "internalType": "bool",
              "name": "isVerified",
              "type": "bool"
            },
            {
              "internalType": "address",
              "name": "worker",
              "type": "address"
            },
            {
              "internalType": "uint256",
              "name": "completionDate",
              "type": "uint256"
            }
          ],
          "internalType": "struct JobBounty.Milestone[]",
          "name": "",
          "type": "tuple[]"
        }
      ],
      "stateMutability": "view",
      "type": "function"
    },
    {
      "inputs": [],
      "name": "getJobsCount",
      "outputs": [
        {
          "internalType": "uint256",
          "name": "",
          "type": "uint256"
        }
      ],
      "stateMutability": "view",
      "type": "function"
    },
    {
      "inputs": [
        {
          "internalType": "uint256",
          "name": "_jobId",
          "type": "uint256"
        },
        {
          "internalType": "address",
          "name": "_worker",
          "type": "address"
        }
      ],
      "name": "hasApplied",
      "outputs": [
        {
          "internalType": "bool",
          "name": "",
          "type": "bool"
        }
      ],
      "stateMutability": "view",
      "type": "function"
    },
    {
      "inputs": [
        {
          "internalType": "uint256",
          "name": "",
          "type": "uint256"
        },
        {
          "internalType": "address",
          "name": "",
          "type": "address"
        }
      ],
      "name": "jobApplications",
      "outputs": [
        {
          "internalType": "bool",
          "name": "",
          "type": "bool"
        }
      ],
      "stateMutability": "view",
      "type": "function"
    },
    {
      "inputs": [],
      "name": "jobCounter",
      "outputs": [
        {
          "internalType": "uint256",
          "name": "",
          "type": "uint256"
        }
      ],
      "stateMutability": "view",
      "type": "function"
    },
    {
      "inputs": [
        {
          "internalType": "uint256",
          "name": "",
          "type": "uint256"
        },
        {
          "internalType": "uint256",
          "name": "",
          "type": "uint256"
        }
      ],
      "name": "jobMilestones",
      "outputs": [
        {
          "internalType": "string",
          "name": "description",
          "type": "string"
        },
        {
          "internalType": "uint256",
          "name": "amount",
          "type": "uint256"
        },
        {
          "internalType": "bool",
          "name": "isCompleted",
          "type": "bool"
        },
        {
          "internalType": "bool",
          "name": "isVerified",
          "type": "bool"
        },
        {
          "internalType": "address",
          "name": "worker",
          "type": "address"
        },
        {
          "internalType": "uint256",
          "name": "completionDate",
          "type": "uint256"
        }
      ],
      "stateMutability": "view",
      "type": "function"
    },
    {
      "inputs": [
        {
          "internalType": "uint256",
          "name": "",
          "type": "uint256"
        }
      ],
      "name": "jobs",
      "outputs": [
        {
          "internalType": "address",
          "name": "employer",
          "type": "address"
        },
        {
          "internalType": "string",
          "name": "title",
          "type": "string"
        },
        {
          "internalType": "string",
          "name": "description",
          "type": "string"
        },
        {
          "internalType": "uint256",
          "name": "totalBounty",
          "type": "uint256"
        },
        {
          "internalType": "uint256",
          "name": "deadline",
          "type": "uint256"
        },
        {
          "internalType": "bool",
          "name": "isActive",
          "type": "bool"
        },
        {
          "internalType": "bool",
          "name": "isCompleted",
          "type": "bool"
        },
        {
          "internalType": "address",
          "name": "assignedWorker",
          "type": "address"
        },
        {
          "internalType": "uint256",
          "name": "completionDate",
          "type": "uint256"
        }
      ],
      "stateMutability": "view",
      "type": "function"
    },
    {
      "inputs": [],
      "name": "owner",
      "outputs": [
        {
          "internalType": "address",
          "name": "",
          "type": "address"
        }
      ],
      "stateMutability": "view",
      "type": "function"
    },
    {
      "inputs": [],
      "name": "renounceOwnership",
      "outputs": [],
      "stateMutability": "nonpayable",
      "type": "function"
    },
    {
      "inputs": [
        {
          "internalType": "address",
          "name": "newOwner",
          "type": "address"
        }
      ],
      "name": "transferOwnership",
      "outputs": [],
      "stateMutability": "nonpayable",
      "type": "function"
    },
    {
      "inputs": [
        {
          "internalType": "uint256",
          "name": "_jobId",
          "type": "uint256"
        },
        {
          "internalType": "uint256",
          "name": "_milestoneId",
          "type": "uint256"
        }
      ],
      "name": "verifyMilestone",
      "outputs": [],
      "stateMutability": "nonpayable",
      "type": "function"
    }
  ],
  "bytecode": "0x60a060405260006002553480156200001657600080fd5b50604051620041393803806200413983398181016040528101906200003c919062000237565b336001600081905550600073ffffffffffffffffffffffffffffffffffffffff168173ffffffffffffffffffffffffffffffffffffffff1603620000ba5760006040517f1e4fbdf7000000000000000000000000000000000000000000000000000000008152600401620000b191906200027a565b60405180910390fd5b620000cb816200010760201b60201c565b508073ffffffffffffffffffffffffffffffffffffffff1660808173ffffffffffffffffffffffffffffffffffffffff16815250505062000297565b6000600160009054906101000a900473ffffffffffffffffffffffffffffffffffffffff16905081600160006101000a81548173ffffffffffffffffffffffffffffffffffffffff021916908373ffffffffffffffffffffffffffffffffffffffff1602179055508173ffffffffffffffffffffffffffffffffffffffff168173ffffffffffffffffffffffffffffffffffffffff167f8be0079c531659141344cd1fd0a4f28419497f9722a3daafe3b4186f6b6457e060405160405180910390a35050565b600080fd5b600073ffffffffffffffffffffffffffffffffffffffff82169050919050565b6000620001ff82620001d2565b9050919050565b6200021181620001f2565b81146200021d57600080fd5b50565b600081519050620002318162000206565b92915050565b60006020828403121562000250576200024f620001cd565b5b6000620002608482850162000220565b91505092915050565b6200027481620001f2565b82525050565b600060208201905062000291600083018462000269565b92915050565b608051613e71620002c8600039600081816107400152818161085501528181610a13015261112d0152613e716000f3fe608060405234801561001057600080fd5b50600436106101165760003560e01c8063a39bf544116100a2578063d07e9f9011610071578063d07e9f9014610300578063e0c94ae51461031e578063f2fde38b1461033a578063f326206b14610356578063f3a4735a1461037257610116565b8063a39bf54414610240578063b5f45c7a14610270578063bbbcee56146102a0578063bf22c457146102d057610116565b80632dd03f93116100e95780632dd03f93146101a957806350355d76146101c5578063715018a6146101e357806373a2b57f146101ed5780638da5cb5b1461022257610116565b8063180aedf31461011b5780631dffa3dc14610153578063225f75c81461016f5780632b5220ed1461018d575b600080fd5b61013560048036038101906101309190612594565b61038e565b60405161014a999897969594939291906126bc565b60405180910390f35b61016d60048036038101906101689190612594565b610546565b005b610177610853565b60405161018491906127b6565b60405180910390f35b6101a760048036038101906101a29190612aaf565b610877565b005b6101c360048036038101906101be9190612bac565b610ea1565b005b6101cd6113d6565b6040516101da9190612bec565b60405180910390f35b6101eb6113dc565b005b61020760048036038101906102029190612bac565b6113f0565b60405161021996959493929190612c07565b60405180910390f35b61022a61150b565b6040516102379190612c6f565b60405180910390f35b61025a60048036038101906102559190612cb6565b611535565b6040516102679190612cf6565b60405180910390f35b61028a60048036038101906102859190612cb6565b61159d565b6040516102979190612cf6565b60405180910390f35b6102ba60048036038101906102b59190612594565b6115cc565b6040516102c79190612ed3565b60405180910390f35b6102ea60048036038101906102e59190612594565b6117b4565b6040516102f79190612fc1565b60405180910390f35b610308611a4a565b6040516103159190612bec565b60405180910390f35b61033860048036038101906103339190612594565b611a54565b005b610354600480360381019061034f9190612fe3565b611ce2565b005b610370600480360381019061036b9190612bac565b611d68565b005b61038c60048036038101906103879190612cb6565b61202f565b005b60036020528060005260406000206000915090508060000160009054906101000a900473ffffffffffffffffffffffffffffffffffffffff16908060010180546103d79061303f565b80601f01602080910402602001604051908101604052809291908181526020018280546104039061303f565b80156104505780601f1061042557610100808354040283529160200191610450565b820191906000526020600020905b81548152906001019060200180831161043357829003601f168201915b5050505050908060020180546104659061303f565b80601f01602080910402602001604051908101604052809291908181526020018280546104919061303f565b80156104de5780601f106104b3576101008083540402835291602001916104de565b820191906000526020600020905b8154815290600101906020018083116104c157829003601f168201915b5050505050908060030154908060040154908060050160009054906101000a900460ff16908060050160019054906101000a900460ff16908060050160029054906101000a900473ffffffffffffffffffffffffffffffffffffffff16908060060154905089565b61054e612329565b6002548110610592576040517f08c379a0000000000000000000000000000000000000000000000000000000008152600401610589906130bc565b60405180910390fd5b60006003600083815260200190815260200160002090508060000160009054906101000a900473ffffffffffffffffffffffffffffffffffffffff1673ffffffffffffffffffffffffffffffffffffffff163373ffffffffffffffffffffffffffffffffffffffff161461063b576040517f08c379a000000000000000000000000000000000000000000000000000000000815260040161063290613128565b60405180910390fd5b8060050160009054906101000a900460ff1661068c576040517f08c379a000000000000000000000000000000000000000000000000000000000815260040161068390613194565b60405180910390fd5b600073ffffffffffffffffffffffffffffffffffffffff168160050160029054906101000a900473ffffffffffffffffffffffffffffffffffffffff1673ffffffffffffffffffffffffffffffffffffffff161461071f576040517f08c379a000000000000000000000000000000000000000000000000000000000815260040161071690613200565b60405180910390fd5b60008160050160006101000a81548160ff02191690831515021790555060007f000000000000000000000000000000000000000000000000000000000000000073ffffffffffffffffffffffffffffffffffffffff1663a9059cbb8360000160009054906101000a900473ffffffffffffffffffffffffffffffffffffffff1684600301546040518363ffffffff1660e01b81526004016107c1929190613220565b6020604051808303816000875af11580156107e0573d6000803e3d6000fd5b505050506040513d601f19601f820116820180604052508101906108049190613275565b905080610846576040517f08c379a000000000000000000000000000000000000000000000000000000000815260040161083d906132ee565b60405180910390fd5b505061085061236f565b50565b7f000000000000000000000000000000000000000000000000000000000000000081565b600084116108ba576040517f08c379a00000000000000000000000000000000000000000000000000000000081526004016108b19061335a565b60405180910390fd5b4283116108fc576040517f08c379a00000000000000000000000000000000000000000000000000000000081526004016108f3906133c6565b60405180910390fd5b8051825114610940576040517f08c379a000000000000000000000000000000000000000000000000000000000815260040161093790613432565b60405180910390fd5b6000825111610984576040517f08c379a000000000000000000000000000000000000000000000000000000000815260040161097b9061349e565b60405180910390fd5b6000805b82518110156109cc578281815181106109a4576109a36134be565b5b6020026020010151826109b7919061351c565b915080806109c490613550565b915050610988565b50848114610a0f576040517f08c379a0000000000000000000000000000000000000000000000000000000008152600401610a069061360a565b60405180910390fd5b60007f000000000000000000000000000000000000000000000000000000000000000073ffffffffffffffffffffffffffffffffffffffff166323b872dd3330896040518463ffffffff1660e01b8152600401610a6e9392919061362a565b6020604051808303816000875af1158015610a8d573d6000803e3d6000fd5b505050506040513d601f19601f82011682018060405250810190610ab19190613275565b905080610af3576040517f08c379a0000000000000000000000000000000000000000000000000000000008152600401610aea906136ad565b60405180910390fd5b600060026000815480929190610b0890613550565b9190505590506040518061012001604052803373ffffffffffffffffffffffffffffffffffffffff1681526020018a8152602001898152602001888152602001878152602001600115158152602001600015158152602001600073ffffffffffffffffffffffffffffffffffffffff16815260200160008152506003600083815260200190815260200160002060008201518160000160006101000a81548173ffffffffffffffffffffffffffffffffffffffff021916908373ffffffffffffffffffffffffffffffffffffffff1602179055506020820151816001019081610bf1919061386f565b506040820151816002019081610c07919061386f565b50606082015181600301556080820151816004015560a08201518160050160006101000a81548160ff02191690831515021790555060c08201518160050160016101000a81548160ff02191690831515021790555060e08201518160050160026101000a81548173ffffffffffffffffffffffffffffffffffffffff021916908373ffffffffffffffffffffffffffffffffffffffff1602179055506101008201518160060155905050600060046000838152602001908152602001600020905060005b8651811015610e4357816040518060c00160405280898481518110610cf357610cf26134be565b5b60200260200101518152602001888481518110610d1357610d126134be565b5b60200260200101518152602001600015158152602001600015158152602001600073ffffffffffffffffffffffffffffffffffffffff168152602001600081525090806001815401808255809150506001900390600052602060002090600402016000909190919091506000820151816000019081610d92919061386f565b506020820151816001015560408201518160020160006101000a81548160ff02191690831515021790555060608201518160020160016101000a81548160ff02191690831515021790555060808201518160020160026101000a81548173ffffffffffffffffffffffffffffffffffffffff021916908373ffffffffffffffffffffffffffffffffffffffff16021790555060a0820151816003015550508080610e3b90613550565b915050610ccb565b503373ffffffffffffffffffffffffffffffffffffffff16827fe2664ff85acbefce4793e83fe4a10e88680b3172a3e401c7946d7cfb8f19ebdb8c8b604051610e8d929190613941565b60405180910390a350505050505050505050565b610ea9612329565b6002548210610eed576040517f08c379a0000000000000000000000000000000000000000000000000000000008152600401610ee4906130bc565b60405180910390fd5b60006003600084815260200190815260200160002090508060000160009054906101000a900473ffffffffffffffffffffffffffffffffffffffff1673ffffffffffffffffffffffffffffffffffffffff163373ffffffffffffffffffffffffffffffffffffffff1614610f96576040517f08c379a0000000000000000000000000000000000000000000000000000000008152600401610f8d906139bd565b60405180910390fd5b8060050160009054906101000a900460ff16610fe7576040517f08c379a0000000000000000000000000000000000000000000000000000000008152600401610fde90613194565b60405180910390fd5b600060046000858152602001908152602001600020905080805490508310611044576040517f08c379a000000000000000000000000000000000000000000000000000000000815260040161103b90613a29565b60405180910390fd5b6000818481548110611059576110586134be565b5b906000526020600020906004020190508060020160009054906101000a900460ff166110ba576040517f08c379a00000000000000000000000000000000000000000000000000000000081526004016110b190613a95565b60405180910390fd5b8060020160019054906101000a900460ff161561110c576040517f08c379a000000000000000000000000000000000000000000000000000000000815260040161110390613b01565b60405180910390fd5b60018160020160016101000a81548160ff02191690831515021790555060007f000000000000000000000000000000000000000000000000000000000000000073ffffffffffffffffffffffffffffffffffffffff1663a9059cbb8360020160029054906101000a900473ffffffffffffffffffffffffffffffffffffffff1684600101546040518363ffffffff1660e01b81526004016111ae929190613220565b6020604051808303816000875af11580156111cd573d6000803e3d6000fd5b505050506040513d601f19601f820116820180604052508101906111f19190613275565b905080611233576040517f08c379a000000000000000000000000000000000000000000000000000000000815260040161122a90613b6d565b60405180910390fd5b8160020160029054906101000a900473ffffffffffffffffffffffffffffffffffffffff1673ffffffffffffffffffffffffffffffffffffffff1685877f15a0cc14ef880a2f5dbea957d552fd03dda61bc74eec3d93028bce83b72f952b60405160405180910390a460006001905060005b8480549050811015611303578481815481106112c4576112c36134be565b5b906000526020600020906004020160020160019054906101000a900460ff166112f05760009150611303565b80806112fb90613550565b9150506112a5565b5080156113c55760018560050160016101000a81548160ff02191690831515021790555042856006018190555060008560050160006101000a81548160ff0219169083151502179055508460050160029054906101000a900473ffffffffffffffffffffffffffffffffffffffff1673ffffffffffffffffffffffffffffffffffffffff16877f4dbba472101e9f148a3a5ecbe793f0ee16a7efe4bf3f8cbfab5330e1642ef95587600301546040516113bc9190612bec565b60405180910390a35b50505050506113d261236f565b5050565b60025481565b6113e4612379565b6113ee6000612400565b565b6004602052816000526040600020818154811061140c57600080fd5b9060005260206000209060040201600091509150508060000180546114309061303f565b80601f016020809104026020016040519081016040528092919081815260200182805461145c9061303f565b80156114a95780601f1061147e576101008083540402835291602001916114a9565b820191906000526020600020905b81548152906001019060200180831161148c57829003601f168201915b5050505050908060010154908060020160009054906101000a900460ff16908060020160019054906101000a900460ff16908060020160029054906101000a900473ffffffffffffffffffffffffffffffffffffffff16908060030154905086565b6000600160009054906101000a900473ffffffffffffffffffffffffffffffffffffffff16905090565b60006005600084815260200190815260200160002060008373ffffffffffffffffffffffffffffffffffffffff1673ffffffffffffffffffffffffffffffffffffffff16815260200190815260200160002060009054906101000a900460ff16905092915050565b60056020528160005260406000206020528060005260406000206000915091509054906101000a900460ff1681565b60606002548210611612576040517f08c379a0000000000000000000000000000000000000000000000000000000008152600401611609906130bc565b60405180910390fd5b60046000838152602001908152602001600020805480602002602001604051908101604052809291908181526020016000905b828210156117a957838290600052602060002090600402016040518060c00160405290816000820180546116789061303f565b80601f01602080910402602001604051908101604052809291908181526020018280546116a49061303f565b80156116f15780601f106116c6576101008083540402835291602001916116f1565b820191906000526020600020905b8154815290600101906020018083116116d457829003601f168201915b50505050508152602001600182015481526020016002820160009054906101000a900460ff161515151581526020016002820160019054906101000a900460ff161515151581526020016002820160029054906101000a900473ffffffffffffffffffffffffffffffffffffffff1673ffffffffffffffffffffffffffffffffffffffff1673ffffffffffffffffffffffffffffffffffffffff16815260200160038201548152505081526020019060010190611645565b505050509050919050565b6117bc6124ce565b6002548210611800576040517f08c379a00000000000000000000000000000000000000000000000000000000081526004016117f7906130bc565b60405180910390fd5b60036000838152602001908152602001600020604051806101200160405290816000820160009054906101000a900473ffffffffffffffffffffffffffffffffffffffff1673ffffffffffffffffffffffffffffffffffffffff1673ffffffffffffffffffffffffffffffffffffffff1681526020016001820180546118859061303f565b80601f01602080910402602001604051908101604052809291908181526020018280546118b19061303f565b80156118fe5780601f106118d3576101008083540402835291602001916118fe565b820191906000526020600020905b8154815290600101906020018083116118e157829003601f168201915b505050505081526020016002820180546119179061303f565b80601f01602080910402602001604051908101604052809291908181526020018280546119439061303f565b80156119905780601f1061196557610100808354040283529160200191611990565b820191906000526020600020905b81548152906001019060200180831161197357829003601f168201915b5050505050815260200160038201548152602001600482015481526020016005820160009054906101000a900460ff161515151581526020016005820160019054906101000a900460ff161515151581526020016005820160029054906101000a900473ffffffffffffffffffffffffffffffffffffffff1673ffffffffffffffffffffffffffffffffffffffff1673ffffffffffffffffffffffffffffffffffffffff1681526020016006820154815250509050919050565b6000600254905090565b6002548110611a98576040517f08c379a0000000000000000000000000000000000000000000000000000000008152600401611a8f906130bc565b60405180910390fd5b60006003600083815260200190815260200160002090508060050160009054906101000a900460ff16611b00576040517f08c379a0000000000000000000000000000000000000000000000000000000008152600401611af790613194565b60405180910390fd5b600073ffffffffffffffffffffffffffffffffffffffff168160050160029054906101000a900473ffffffffffffffffffffffffffffffffffffffff1673ffffffffffffffffffffffffffffffffffffffff1614611b93576040517f08c379a0000000000000000000000000000000000000000000000000000000008152600401611b8a90613bd9565b60405180910390fd5b6005600083815260200190815260200160002060003373ffffffffffffffffffffffffffffffffffffffff1673ffffffffffffffffffffffffffffffffffffffff16815260200190815260200160002060009054906101000a900460ff1615611c31576040517f08c379a0000000000000000000000000000000000000000000000000000000008152600401611c2890613c45565b60405180910390fd5b60016005600084815260200190815260200160002060003373ffffffffffffffffffffffffffffffffffffffff1673ffffffffffffffffffffffffffffffffffffffff16815260200190815260200160002060006101000a81548160ff0219169083151502179055503373ffffffffffffffffffffffffffffffffffffffff16827fffa837d183240a5f25cbd643a8eade702c0c9c3e186c59c7d929e4f1a3438d8660405160405180910390a35050565b611cea612379565b600073ffffffffffffffffffffffffffffffffffffffff168173ffffffffffffffffffffffffffffffffffffffff1603611d5c5760006040517f1e4fbdf7000000000000000000000000000000000000000000000000000000008152600401611d539190612c6f565b60405180910390fd5b611d6581612400565b50565b6002548210611dac576040517f08c379a0000000000000000000000000000000000000000000000000000000008152600401611da3906130bc565b60405180910390fd5b60006003600084815260200190815260200160002090508060050160029054906101000a900473ffffffffffffffffffffffffffffffffffffffff1673ffffffffffffffffffffffffffffffffffffffff163373ffffffffffffffffffffffffffffffffffffffff1614611e55576040517f08c379a0000000000000000000000000000000000000000000000000000000008152600401611e4c90613cd7565b60405180910390fd5b8060050160009054906101000a900460ff16611ea6576040517f08c379a0000000000000000000000000000000000000000000000000000000008152600401611e9d90613194565b60405180910390fd5b600060046000858152602001908152602001600020905080805490508310611f03576040517f08c379a0000000000000000000000000000000000000000000000000000000008152600401611efa90613a29565b60405180910390fd5b6000818481548110611f1857611f176134be565b5b906000526020600020906004020190508060020160009054906101000a900460ff1615611f7a576040517f08c379a0000000000000000000000000000000000000000000000000000000008152600401611f7190613d43565b60405180910390fd5b60018160020160006101000a81548160ff021916908315150217905550338160020160026101000a81548173ffffffffffffffffffffffffffffffffffffffff021916908373ffffffffffffffffffffffffffffffffffffffff1602179055504281600301819055503373ffffffffffffffffffffffffffffffffffffffff1684867f5142be5dffcf006606e1b0e030730d45f5cd24edfb7566efc3dc188625ac3e9c60405160405180910390a45050505050565b6002548210612073576040517f08c379a000000000000000000000000000000000000000000000000000000000815260040161206a906130bc565b60405180910390fd5b60006003600084815260200190815260200160002090508060000160009054906101000a900473ffffffffffffffffffffffffffffffffffffffff1673ffffffffffffffffffffffffffffffffffffffff163373ffffffffffffffffffffffffffffffffffffffff161461211c576040517f08c379a000000000000000000000000000000000000000000000000000000000815260040161211390613daf565b60405180910390fd5b8060050160009054906101000a900460ff1661216d576040517f08c379a000000000000000000000000000000000000000000000000000000000815260040161216490613194565b60405180910390fd5b600073ffffffffffffffffffffffffffffffffffffffff168160050160029054906101000a900473ffffffffffffffffffffffffffffffffffffffff1673ffffffffffffffffffffffffffffffffffffffff1614612200576040517f08c379a00000000000000000000000000000000000000000000000000000000081526004016121f790613bd9565b60405180910390fd5b6005600084815260200190815260200160002060008373ffffffffffffffffffffffffffffffffffffffff1673ffffffffffffffffffffffffffffffffffffffff16815260200190815260200160002060009054906101000a900460ff1661229d576040517f08c379a000000000000000000000000000000000000000000000000000000000815260040161229490613e1b565b60405180910390fd5b818160050160026101000a81548173ffffffffffffffffffffffffffffffffffffffff021916908373ffffffffffffffffffffffffffffffffffffffff1602179055508173ffffffffffffffffffffffffffffffffffffffff16837f3738a681a43a0b6a554742a08bae57e0215e8a774217dc2e7de6c9411b6d0ddc60405160405180910390a3505050565b600260005403612365576040517f3ee5aeb500000000000000000000000000000000000000000000000000000000815260040160405180910390fd5b6002600081905550565b6001600081905550565b6123816124c6565b73ffffffffffffffffffffffffffffffffffffffff1661239f61150b565b73ffffffffffffffffffffffffffffffffffffffff16146123fe576123c26124c6565b6040517f118cdaa70000000000000000000000000000000000000000000000000000000081526004016123f59190612c6f565b60405180910390fd5b565b6000600160009054906101000a900473ffffffffffffffffffffffffffffffffffffffff16905081600160006101000a81548173ffffffffffffffffffffffffffffffffffffffff021916908373ffffffffffffffffffffffffffffffffffffffff1602179055508173ffffffffffffffffffffffffffffffffffffffff168173ffffffffffffffffffffffffffffffffffffffff167f8be0079c531659141344cd1fd0a4f28419497f9722a3daafe3b4186f6b6457e060405160405180910390a35050565b600033905090565b604051806101200160405280600073ffffffffffffffffffffffffffffffffffffffff16815260200160608152602001606081526020016000815260200160008152602001600015158152602001600015158152602001600073ffffffffffffffffffffffffffffffffffffffff168152602001600081525090565b6000604051905090565b600080fd5b600080fd5b6000819050919050565b6125718161255e565b811461257c57600080fd5b50565b60008135905061258e81612568565b92915050565b6000602082840312156125aa576125a9612554565b5b60006125b88482850161257f565b91505092915050565b600073ffffffffffffffffffffffffffffffffffffffff82169050919050565b60006125ec826125c1565b9050919050565b6125fc816125e1565b82525050565b600081519050919050565b600082825260208201905092915050565b60005b8381101561263c578082015181840152602081019050612621565b60008484015250505050565b6000601f19601f8301169050919050565b600061266482612602565b61266e818561260d565b935061267e81856020860161261e565b61268781612648565b840191505092915050565b61269b8161255e565b82525050565b60008115159050919050565b6126b6816126a1565b82525050565b6000610120820190506126d2600083018c6125f3565b81810360208301526126e4818b612659565b905081810360408301526126f8818a612659565b90506127076060830189612692565b6127146080830188612692565b61272160a08301876126ad565b61272e60c08301866126ad565b61273b60e08301856125f3565b612749610100830184612692565b9a9950505050505050505050565b6000819050919050565b600061277c612777612772846125c1565b612757565b6125c1565b9050919050565b600061278e82612761565b9050919050565b60006127a082612783565b9050919050565b6127b081612795565b82525050565b60006020820190506127cb60008301846127a7565b92915050565b600080fd5b600080fd5b7f4e487b7100000000000000000000000000000000000000000000000000000000600052604160045260246000fd5b61281382612648565b810181811067ffffffffffffffff82111715612832576128316127db565b5b80604052505050565b600061284561254a565b9050612851828261280a565b919050565b600067ffffffffffffffff821115612871576128706127db565b5b61287a82612648565b9050602081019050919050565b82818337600083830152505050565b60006128a96128a484612856565b61283b565b9050828152602081018484840111156128c5576128c46127d6565b5b6128d0848285612887565b509392505050565b600082601f8301126128ed576128ec6127d1565b5b81356128fd848260208601612896565b91505092915050565b600067ffffffffffffffff821115612921576129206127db565b5b602082029050602081019050919050565b600080fd5b600061294a61294584612906565b61283b565b9050808382526020820190506020840283018581111561296d5761296c612932565b5b835b818110156129b457803567ffffffffffffffff811115612992576129916127d1565b5b80860161299f89826128d8565b8552602085019450505060208101905061296f565b5050509392505050565b600082601f8301126129d3576129d26127d1565b5b81356129e3848260208601612937565b91505092915050565b600067ffffffffffffffff821115612a0757612a066127db565b5b602082029050602081019050919050565b6000612a2b612a26846129ec565b61283b565b90508083825260208201905060208402830185811115612a4e57612a4d612932565b5b835b81811015612a775780612a63888261257f565b845260208401935050602081019050612a50565b5050509392505050565b600082601f830112612a9657612a956127d1565b5b8135612aa6848260208601612a18565b91505092915050565b60008060008060008060c08789031215612acc57612acb612554565b5b600087013567ffffffffffffffff811115612aea57612ae9612559565b5b612af689828a016128d8565b965050602087013567ffffffffffffffff811115612b1757612b16612559565b5b612b2389828a016128d8565b9550506040612b3489828a0161257f565b9450506060612b4589828a0161257f565b935050608087013567ffffffffffffffff811115612b6657612b65612559565b5b612b7289828a016129be565b92505060a087013567ffffffffffffffff811115612b9357612b92612559565b5b612b9f89828a01612a81565b9150509295509295509295565b60008060408385031215612bc357612bc2612554565b5b6000612bd18582860161257f565b9250506020612be28582860161257f565b9150509250929050565b6000602082019050612c016000830184612692565b92915050565b600060c0820190508181036000830152612c218189612659565b9050612c306020830188612692565b612c3d60408301876126ad565b612c4a60608301866126ad565b612c5760808301856125f3565b612c6460a0830184612692565b979650505050505050565b6000602082019050612c8460008301846125f3565b92915050565b612c93816125e1565b8114612c9e57600080fd5b50565b600081359050612cb081612c8a565b92915050565b60008060408385031215612ccd57612ccc612554565b5b6000612cdb8582860161257f565b9250506020612cec85828601612ca1565b9150509250929050565b6000602082019050612d0b60008301846126ad565b92915050565b600081519050919050565b600082825260208201905092915050565b6000819050602082019050919050565b600082825260208201905092915050565b6000612d5982612602565b612d638185612d3d565b9350612d7381856020860161261e565b612d7c81612648565b840191505092915050565b612d908161255e565b82525050565b612d9f816126a1565b82525050565b612dae816125e1565b82525050565b600060c0830160008301518482036000860152612dd18282612d4e565b9150506020830151612de66020860182612d87565b506040830151612df96040860182612d96565b506060830151612e0c6060860182612d96565b506080830151612e1f6080860182612da5565b5060a0830151612e3260a0860182612d87565b508091505092915050565b6000612e498383612db4565b905092915050565b6000602082019050919050565b6000612e6982612d11565b612e738185612d1c565b935083602082028501612e8585612d2d565b8060005b85811015612ec15784840389528151612ea28582612e3d565b9450612ead83612e51565b925060208a01995050600181019050612e89565b50829750879550505050505092915050565b60006020820190508181036000830152612eed8184612e5e565b905092915050565b600061012083016000830151612f0e6000860182612da5565b5060208301518482036020860152612f268282612d4e565b91505060408301518482036040860152612f408282612d4e565b9150506060830151612f556060860182612d87565b506080830151612f686080860182612d87565b5060a0830151612f7b60a0860182612d96565b5060c0830151612f8e60c0860182612d96565b5060e0830151612fa160e0860182612da5565b50610100830151612fb6610100860182612d87565b508091505092915050565b60006020820190508181036000830152612fdb8184612ef5565b905092915050565b600060208284031215612ff957612ff8612554565b5b600061300784828501612ca1565b91505092915050565b7f4e487b7100000000000000000000000000000000000000000000000000000000600052602260045260246000fd5b6000600282049050600182168061305757607f821691505b60208210810361306a57613069613010565b5b50919050565b7f496e76616c6964206a6f62204944000000000000000000000000000000000000600082015250565b60006130a6600e8361260d565b91506130b182613070565b602082019050919050565b600060208201905081810360008301526130d581613099565b9050919050565b7f4f6e6c7920656d706c6f7965722063616e2063616e63656c0000000000000000600082015250565b600061311260188361260d565b915061311d826130dc565b602082019050919050565b6000602082019050818103600083015261314181613105565b9050919050565b7f4a6f62206973206e6f7420616374697665000000000000000000000000000000600082015250565b600061317e60118361260d565b915061318982613148565b602082019050919050565b600060208201905081810360008301526131ad81613171565b9050919050565b7f43616e6e6f742063616e63656c2061737369676e6564206a6f62000000000000600082015250565b60006131ea601a8361260d565b91506131f5826131b4565b602082019050919050565b60006020820190508181036000830152613219816131dd565b9050919050565b600060408201905061323560008301856125f3565b6132426020830184612692565b9392505050565b613252816126a1565b811461325d57600080fd5b50565b60008151905061326f81613249565b92915050565b60006020828403121561328b5761328a612554565b5b600061329984828501613260565b91505092915050565b7f526566756e64206661696c656400000000000000000000000000000000000000600082015250565b60006132d8600d8361260d565b91506132e3826132a2565b602082019050919050565b60006020820190508181036000830152613307816132cb565b9050919050565b7f426f756e7479206d75737420626520706f736974697665000000000000000000600082015250565b600061334460178361260d565b915061334f8261330e565b602082019050919050565b6000602082019050818103600083015261337381613337565b9050919050565b7f446561646c696e65206d75737420626520696e20746865206675747572650000600082015250565b60006133b0601e8361260d565b91506133bb8261337a565b602082019050919050565b600060208201905081810360008301526133df816133a3565b9050919050565b7f4d696c6573746f6e6520617272617973206d757374206d617463680000000000600082015250565b600061341c601b8361260d565b9150613427826133e6565b602082019050919050565b6000602082019050818103600083015261344b8161340f565b9050919050565b7f4d7573742068617665206174206c65617374206f6e65206d696c6573746f6e65600082015250565b600061348860208361260d565b915061349382613452565b602082019050919050565b600060208201905081810360008301526134b78161347b565b9050919050565b7f4e487b7100000000000000000000000000000000000000000000000000000000600052603260045260246000fd5b7f4e487b7100000000000000000000000000000000000000000000000000000000600052601160045260246000fd5b60006135278261255e565b91506135328361255e565b925082820190508082111561354a576135496134ed565b5b92915050565b600061355b8261255e565b91507fffffffffffffffffffffffffffffffffffffffffffffffffffffffffffffffff820361358d5761358c6134ed565b5b600182019050919050565b7f4d696c6573746f6e6520616d6f756e7473206d75737420657175616c20746f7460008201527f616c20626f756e74790000000000000000000000000000000000000000000000602082015250565b60006135f460298361260d565b91506135ff82613598565b604082019050919050565b60006020820190508181036000830152613623816135e7565b9050919050565b600060608201905061363f60008301866125f3565b61364c60208301856125f3565b6136596040830184612692565b949350505050565b7f546f6b656e207472616e73666572206661696c65640000000000000000000000600082015250565b600061369760158361260d565b91506136a282613661565b602082019050919050565b600060208201905081810360008301526136c68161368a565b9050919050565b60008190508160005260206000209050919050565b60006020601f8301049050919050565b600082821b905092915050565b60006008830261372f7fffffffffffffffffffffffffffffffffffffffffffffffffffffffffffffffff826136f2565b61373986836136f2565b95508019841693508086168417925050509392505050565b600061376c6137676137628461255e565b612757565b61255e565b9050919050565b6000819050919050565b61378683613751565b61379a61379282613773565b8484546136ff565b825550505050565b600090565b6137af6137a2565b6137ba81848461377d565b505050565b5b818110156137de576137d36000826137a7565b6001810190506137c0565b5050565b601f821115613823576137f4816136cd565b6137fd846136e2565b8101602085101561380c578190505b613820613818856136e2565b8301826137bf565b50505b505050565b600082821c905092915050565b600061384660001984600802613828565b1980831691505092915050565b600061385f8383613835565b9150826002028217905092915050565b61387882612602565b67ffffffffffffffff811115613891576138906127db565b5b61389b825461303f565b6138a68282856137e2565b600060209050601f8311600181146138d957600084156138c7578287015190505b6138d18582613853565b865550613939565b601f1984166138e7866136cd565b60005b8281101561390f578489015182556001820191506020850194506020810190506138ea565b8683101561392c5784890151613928601f891682613835565b8355505b6001600288020188555050505b505050505050565b6000604082019050818103600083015261395b8185612659565b905061396a6020830184612692565b9392505050565b7f4f6e6c7920656d706c6f7965722063616e207665726966790000000000000000600082015250565b60006139a760188361260d565b91506139b282613971565b602082019050919050565b600060208201905081810360008301526139d68161399a565b9050919050565b7f496e76616c6964206d696c6573746f6e65204944000000000000000000000000600082015250565b6000613a1360148361260d565b9150613a1e826139dd565b602082019050919050565b60006020820190508181036000830152613a4281613a06565b9050919050565b7f4d696c6573746f6e65206e6f7420636f6d706c65746564000000000000000000600082015250565b6000613a7f60178361260d565b9150613a8a82613a49565b602082019050919050565b60006020820190508181036000830152613aae81613a72565b9050919050565b7f4d696c6573746f6e6520616c7265616479207665726966696564000000000000600082015250565b6000613aeb601a8361260d565b9150613af682613ab5565b602082019050919050565b60006020820190508181036000830152613b1a81613ade565b9050919050565b7f5061796d656e74206661696c6564000000000000000000000000000000000000600082015250565b6000613b57600e8361260d565b9150613b6282613b21565b602082019050919050565b60006020820190508181036000830152613b8681613b4a565b9050919050565b7f4a6f6220616c72656164792061737369676e6564000000000000000000000000600082015250565b6000613bc360148361260d565b9150613bce82613b8d565b602082019050919050565b60006020820190508181036000830152613bf281613bb6565b9050919050565b7f416c7265616479206170706c6965640000000000000000000000000000000000600082015250565b6000613c2f600f8361260d565b9150613c3a82613bf9565b602082019050919050565b60006020820190508181036000830152613c5e81613c22565b9050919050565b7f4f6e6c792061737369676e656420776f726b65722063616e20636f6d706c657460008201527f6500000000000000000000000000000000000000000000000000000000000000602082015250565b6000613cc160218361260d565b9150613ccc82613c65565b604082019050919050565b60006020820190508181036000830152613cf081613cb4565b9050919050565b7f4d696c6573746f6e6520616c726561647920636f6d706c657465640000000000600082015250565b6000613d2d601b8361260d565b9150613d3882613cf7565b602082019050919050565b60006020820190508181036000830152613d5c81613d20565b9050919050565b7f4f6e6c7920656d706c6f7965722063616e2061737369676e0000000000000000600082015250565b6000613d9960188361260d565b9150613da482613d63565b602082019050919050565b60006020820190508181036000830152613dc881613d8c565b9050919050565b7f576f726b6572206d757374206170706c79206669727374000000000000000000600082015250565b6000613e0560178361260d565b9150613e1082613dcf565b602082019050919050565b60006020820190508181036000830152613e3481613df8565b905091905056fea2646970667358221220fb058860b25bce89b31043273e7474ff34e819dfb37f0bca4201302ad8d7027164736f6c63430008140033",
  "linkReferences": {},
  "deployedLinkReferences": {}
}