{
  "_format": "hh-sol-artifact-1",
  "contractName": "EmpowerHer",
  "sourceName": "contracts/EmpowerHer.sol",
  "abi": [
    {
      "inputs": [],
      "stateMutability": "nonpayable",
      "type": "constructor"
    },
    {
      "anonymous": false,
      "inputs": [
        {
          "indexed": false,
          "internalType": "uint256",
          "name": "amount",
          "type": "uint256"
        }
      ],
      "name": "AdRevenueAdded",
      "type": "event"
    },
    {
      "anonymous": false,
      "inputs": [
        {
          "indexed": true,
          "internalType": "uint256",
          "name": "contentId",
          "type": "uint256"
        },
        {
          "indexed": true,
          "internalType": "address",
          "name": "liker",
          "type": "address"
        }
      ],
      "name": "ContentLiked",
      "type": "event"
    },
    {
      "anonymous": false,
      "inputs": [
        {
          "indexed": true,
          "internalType": "uint256",
          "name": "contentId",
          "type": "uint256"
        },
        {
          "indexed": true,
          "internalType": "address",
          "name": "creator",
          "type": "address"
        },
        {
          "indexed": false,
          "internalType": "string",
          "name": "title",
          "type": "string"
        }
      ],
      "name": "ContentUploaded",
      "type": "event"
    },
    {
      "anonymous": false,
      "inputs": [
        {
          "indexed": true,
          "internalType": "uint256",
          "name": "contentId",
          "type": "uint256"
        },
        {
          "indexed": true,
          "internalType": "address",
          "name": "viewer",
          "type": "address"
        }
      ],
      "name": "ContentViewed",
      "type": "event"
    },
    {
      "anonymous": false,
      "inputs": [
        {
          "indexed": true,
          "internalType": "uint256",
          "name": "courseId",
          "type": "uint256"
        },
        {
          "indexed": true,
          "internalType": "address",
          "name": "student",
          "type": "address"
        }
      ],
      "name": "CourseCompleted",
      "type": "event"
    },
    {
      "anonymous": false,
      "inputs": [
        {
          "indexed": true,
          "internalType": "uint256",
          "name": "courseId",
          "type": "uint256"
        },
        {
          "indexed": true,
          "internalType": "address",
          "name": "instructor",
          "type": "address"
        },
        {
          "indexed": false,
          "internalType": "string",
          "name": "title",
          "type": "string"
        }
      ],
      "name": "CourseCreated",
      "type": "event"
    },
    {
      "anonymous": false,
      "inputs": [
        {
          "indexed": true,
          "internalType": "uint256",
          "name": "courseId",
          "type": "uint256"
        },
        {
          "indexed": true,
          "internalType": "address",
          "name": "student",
          "type": "address"
        }
      ],
      "name": "CourseEnrolled",
      "type": "event"
    },
    {
      "anonymous": false,
      "inputs": [
        {
          "indexed": true,
          "internalType": "address",
          "name": "creator",
          "type": "address"
        }
      ],
      "name": "CreatorVerified",
      "type": "event"
    },
    {
      "anonymous": false,
      "inputs": [
        {
          "indexed": true,
          "internalType": "address",
          "name": "creator",
          "type": "address"
        },
        {
          "indexed": false,
          "internalType": "uint256",
          "name": "amount",
          "type": "uint256"
        }
      ],
      "name": "EarningsWithdrawn",
      "type": "event"
    },
    {
      "anonymous": false,
      "inputs": [
        {
          "indexed": true,
          "internalType": "address",
          "name": "previousOwner",
          "type": "address"
        },
        {
          "indexed": true,
          "internalType": "address",
          "name": "newOwner",
          "type": "address"
        }
      ],
      "name": "OwnershipTransferred",
      "type": "event"
    },
    {
      "inputs": [],
      "name": "FEE_DENOMINATOR",
      "outputs": [
        {
          "internalType": "uint256",
          "name": "",
          "type": "uint256"
        }
      ],
      "stateMutability": "view",
      "type": "function"
    },
    {
      "inputs": [],
      "name": "PLATFORM_FEE",
      "outputs": [
        {
          "internalType": "uint256",
          "name": "",
          "type": "uint256"
        }
      ],
      "stateMutability": "view",
      "type": "function"
    },
    {
      "inputs": [
        {
          "internalType": "uint256",
          "name": "",
          "type": "uint256"
        }
      ],
      "name": "activeContentIds",
      "outputs": [
        {
          "internalType": "uint256",
          "name": "",
          "type": "uint256"
        }
      ],
      "stateMutability": "view",
      "type": "function"
    },
    {
      "inputs": [
        {
          "internalType": "uint256",
          "name": "",
          "type": "uint256"
        }
      ],
      "name": "activeCourseIds",
      "outputs": [
        {
          "internalType": "uint256",
          "name": "",
          "type": "uint256"
        }
      ],
      "stateMutability": "view",
      "type": "function"
    },
    {
      "inputs": [],
      "name": "adRevenuePool",
      "outputs": [
        {
          "internalType": "uint256",
          "name": "",
          "type": "uint256"
        }
      ],
      "stateMutability": "view",
      "type": "function"
    },
    {
      "inputs": [],
      "name": "addAdRevenue",
      "outputs": [],
      "stateMutability": "payable",
      "type": "function"
    },
    {
      "inputs": [
        {
          "internalType": "uint256",
          "name": "_courseId",
          "type": "uint256"
        }
      ],
      "name": "completeCourse",
      "outputs": [],
      "stateMutability": "nonpayable",
      "type": "function"
    },
    {
      "inputs": [
        {
          "internalType": "uint256",
          "name": "",
          "type": "uint256"
        }
      ],
      "name": "contents",
      "outputs": [
        {
          "internalType": "uint256",
          "name": "id",
          "type": "uint256"
        },
        {
          "internalType": "address",
          "name": "creator",
          "type": "address"
        },
        {
          "internalType": "string",
          "name": "title",
          "type": "string"
        },
        {
          "internalType": "string",
          "name": "description",
          "type": "string"
        },
        {
          "internalType": "string",
          "name": "ipfsHash",
          "type": "string"
        },
        {
          "internalType": "uint256",
          "name": "views",
          "type": "uint256"
        },
        {
          "internalType": "uint256",
          "name": "likes",
          "type": "uint256"
        },
        {
          "internalType": "uint256",
          "name": "earnings",
          "type": "uint256"
        },
        {
          "internalType": "uint256",
          "name": "category",
          "type": "uint256"
        },
        {
          "internalType": "uint256",
          "name": "timestamp",
          "type": "uint256"
        },
        {
          "internalType": "bool",
          "name": "isActive",
          "type": "bool"
        }
      ],
      "stateMutability": "view",
      "type": "function"
    },
    {
      "inputs": [
        {
          "internalType": "uint256",
          "name": "",
          "type": "uint256"
        },
        {
          "internalType": "address",
          "name": "",
          "type": "address"
        }
      ],
      "name": "courseCompletions",
      "outputs": [
        {
          "internalType": "bool",
          "name": "",
          "type": "bool"
        }
      ],
      "stateMutability": "view",
      "type": "function"
    },
    {
      "inputs": [
        {
          "internalType": "uint256",
          "name": "",
          "type": "uint256"
        },
        {
          "internalType": "address",
          "name": "",
          "type": "address"
        }
      ],
      "name": "courseEnrollments",
      "outputs": [
        {
          "internalType": "bool",
          "name": "",
          "type": "bool"
        }
      ],
      "stateMutability": "view",
      "type": "function"
    },
    {
      "inputs": [
        {
          "internalType": "uint256",
          "name": "",
          "type": "uint256"
        }
      ],
      "name": "courses",
      "outputs": [
        {
          "internalType": "uint256",
          "name": "id",
          "type": "uint256"
        },
        {
          "internalType": "address",
          "name": "instructor",
          "type": "address"
        },
        {
          "internalType": "string",
          "name": "title",
          "type": "string"
        },
        {
          "internalType": "string",
          "name": "description",
          "type": "string"
        },
        {
          "internalType": "string",
          "name": "ipfsHash",
          "type": "string"
        },
        {
          "internalType": "uint256",
          "name": "duration",
          "type": "uint256"
        },
        {
          "internalType": "uint256",
          "name": "enrolledCount",
          "type": "uint256"
        },
        {
          "internalType": "bool",
          "name": "isActive",
          "type": "bool"
        },
        {
          "internalType": "uint256",
          "name": "timestamp",
          "type": "uint256"
        }
      ],
      "stateMutability": "view",
      "type": "function"
    },
    {
      "inputs": [
        {
          "internalType": "string",
          "name": "_title",
          "type": "string"
        },
        {
          "internalType": "string",
          "name": "_description",
          "type": "string"
        },
        {
          "internalType": "string",
          "name": "_ipfsHash",
          "type": "string"
        },
        {
          "internalType": "uint256",
          "name": "_duration",
          "type": "uint256"
        }
      ],
      "name": "createCourse",
      "outputs": [],
      "stateMutability": "nonpayable",
      "type": "function"
    },
    {
      "inputs": [
        {
          "internalType": "address",
          "name": "",
          "type": "address"
        }
      ],
      "name": "creators",
      "outputs": [
        {
          "internalType": "uint256",
          "name": "totalViews",
          "type": "uint256"
        },
        {
          "internalType": "uint256",
          "name": "totalEarnings",
          "type": "uint256"
        },
        {
          "internalType": "uint256",
          "name": "contentCount",
          "type": "uint256"
        },
        {
          "internalType": "bool",
          "name": "isVerified",
          "type": "bool"
        },
        {
          "internalType": "string",
          "name": "profileIpfsHash",
          "type": "string"
        }
      ],
      "stateMutability": "view",
      "type": "function"
    },
    {
      "inputs": [
        {
          "internalType": "uint256",
          "name": "_contentId",
          "type": "uint256"
        }
      ],
      "name": "deactivateContent",
      "outputs": [],
      "stateMutability": "nonpayable",
      "type": "function"
    },
    {
      "inputs": [],
      "name": "emergencyWithdraw",
      "outputs": [],
      "stateMutability": "nonpayable",
      "type": "function"
    },
    {
      "inputs": [
        {
          "internalType": "uint256",
          "name": "_courseId",
          "type": "uint256"
        }
      ],
      "name": "enrollInCourse",
      "outputs": [],
      "stateMutability": "nonpayable",
      "type": "function"
    },
    {
      "inputs": [],
      "name": "getAllContent",
      "outputs": [
        {
          "internalType": "uint256[]",
          "name": "",
          "type": "uint256[]"
        }
      ],
      "stateMutability": "view",
      "type": "function"
    },
    {
      "inputs": [],
      "name": "getAllCourses",
      "outputs": [
        {
          "internalType": "uint256[]",
          "name": "",
          "type": "uint256[]"
        }
      ],
      "stateMutability": "view",
      "type": "function"
    },
    {
      "inputs": [
        {
          "internalType": "uint256",
          "name": "_contentId",
          "type": "uint256"
        }
      ],
      "name": "getContent",
      "outputs": [
        {
          "components": [
            {
              "internalType": "uint256",
              "name": "id",
              "type": "uint256"
            },
            {
              "internalType": "address",
              "name": "creator",
              "type": "address"
            },
            {
              "internalType": "string",
              "name": "title",
              "type": "string"
            },
            {
              "internalType": "string",
              "name": "description",
              "type": "string"
            },
            {
              "internalType": "string",
              "name": "ipfsHash",
              "type": "string"
            },
            {
              "internalType": "uint256",
              "name": "views",
              "type": "uint256"
            },
            {
              "internalType": "uint256",
              "name": "likes",
              "type": "uint256"
            },
            {
              "internalType": "uint256",
              "name": "earnings",
              "type": "uint256"
            },
            {
              "internalType": "uint256",
              "name": "category",
              "type": "uint256"
            },
            {
              "internalType": "uint256",
              "name": "timestamp",
              "type": "uint256"
            },
            {
              "internalType": "bool",
              "name": "isActive",
              "type": "bool"
            }
          ],
          "internalType": "struct EmpowerHer.Content",
          "name": "",
          "type": "tuple"
        }
      ],
      "stateMutability": "view",
      "type": "function"
    },
    {
      "inputs": [
        {
          "internalType": "address",
          "name": "_creator",
          "type": "address"
        }
      ],
      "name": "getCreatorContent",
      "outputs": [
        {
          "internalType": "uint256[]",
          "name": "",
          "type": "uint256[]"
        }
      ],
      "stateMutability": "view",
      "type": "function"
    },
    {
      "inputs": [
        {
          "internalType": "address",
          "name": "_creator",
          "type": "address"
        }
      ],
      "name": "getCreatorEarnings",
      "outputs": [
        {
          "internalType": "uint256",
          "name": "",
          "type": "uint256"
        }
      ],
      "stateMutability": "view",
      "type": "function"
    },
    {
      "inputs": [
        {
          "internalType": "address",
          "name": "_creator",
          "type": "address"
        }
      ],
      "name": "getCreatorProfile",
      "outputs": [
        {
          "components": [
            {
              "internalType": "uint256",
              "name": "totalViews",
              "type": "uint256"
            },
            {
              "internalType": "uint256",
              "name": "totalEarnings",
              "type": "uint256"
            },
            {
              "internalType": "uint256",
              "name": "contentCount",
              "type": "uint256"
            },
            {
              "internalType": "bool",
              "name": "isVerified",
              "type": "bool"
            },
            {
              "internalType": "string",
              "name": "profileIpfsHash",
              "type": "string"
            }
          ],
          "internalType": "struct EmpowerHer.Creator",
          "name": "",
          "type": "tuple"
        }
      ],
      "stateMutability": "view",
      "type": "function"
    },
    {
      "inputs": [],
      "name": "getPlatformStats",
      "outputs": [
        {
          "internalType": "uint256",
          "name": "totalContent",
          "type": "uint256"
        },
        {
          "internalType": "uint256",
          "name": "totalCourses",
          "type": "uint256"
        },
        {
          "internalType": "uint256",
          "name": "totalViews",
          "type": "uint256"
        },
        {
          "internalType": "uint256",
          "name": "adPool",
          "type": "uint256"
        },
        {
          "internalType": "uint256",
          "name": "platformFees",
          "type": "uint256"
        }
      ],
      "stateMutability": "view",
      "type": "function"
    },
    {
      "inputs": [
        {
          "internalType": "address",
          "name": "_student",
          "type": "address"
        }
      ],
      "name": "getStudentCourses",
      "outputs": [
        {
          "internalType": "uint256[]",
          "name": "enrolled",
          "type": "uint256[]"
        },
        {
          "internalType": "uint256[]",
          "name": "completed",
          "type": "uint256[]"
        }
      ],
      "stateMutability": "view",
      "type": "function"
    },
    {
      "inputs": [
        {
          "internalType": "address",
          "name": "_student",
          "type": "address"
        },
        {
          "internalType": "uint256",
          "name": "_courseId",
          "type": "uint256"
        }
      ],
      "name": "hasCertificate",
      "outputs": [
        {
          "internalType": "bool",
          "name": "",
          "type": "bool"
        }
      ],
      "stateMutability": "view",
      "type": "function"
    },
    {
      "inputs": [
        {
          "internalType": "uint256",
          "name": "",
          "type": "uint256"
        },
        {
          "internalType": "address",
          "name": "",
          "type": "address"
        }
      ],
      "name": "hasLiked",
      "outputs": [
        {
          "internalType": "bool",
          "name": "",
          "type": "bool"
        }
      ],
      "stateMutability": "view",
      "type": "function"
    },
    {
      "inputs": [
        {
          "internalType": "uint256",
          "name": "",
          "type": "uint256"
        },
        {
          "internalType": "address",
          "name": "",
          "type": "address"
        }
      ],
      "name": "hasViewed",
      "outputs": [
        {
          "internalType": "bool",
          "name": "",
          "type": "bool"
        }
      ],
      "stateMutability": "view",
      "type": "function"
    },
    {
      "inputs": [
        {
          "internalType": "uint256",
          "name": "_contentId",
          "type": "uint256"
        }
      ],
      "name": "likeContent",
      "outputs": [],
      "stateMutability": "nonpayable",
      "type": "function"
    },
    {
      "inputs": [],
      "name": "owner",
      "outputs": [
        {
          "internalType": "address",
          "name": "",
          "type": "address"
        }
      ],
      "stateMutability": "view",
      "type": "function"
    },
    {
      "inputs": [],
      "name": "paymentPerView",
      "outputs": [
        {
          "internalType": "uint256",
          "name": "",
          "type": "uint256"
        }
      ],
      "stateMutability": "view",
      "type": "function"
    },
    {
      "inputs": [
        {
          "internalType": "address",
          "name": "",
          "type": "address"
        }
      ],
      "name": "pendingWithdrawals",
      "outputs": [
        {
          "internalType": "uint256",
          "name": "",
          "type": "uint256"
        }
      ],
      "stateMutability": "view",
      "type": "function"
    },
    {
      "inputs": [],
      "name": "renounceOwnership",
      "outputs": [],
      "stateMutability": "nonpayable",
      "type": "function"
    },
    {
      "inputs": [],
      "name": "totalPlatformFees",
      "outputs": [
        {
          "internalType": "uint256",
          "name": "",
          "type": "uint256"
        }
      ],
      "stateMutability": "view",
      "type": "function"
    },
    {
      "inputs": [
        {
          "internalType": "address",
          "name": "newOwner",
          "type": "address"
        }
      ],
      "name": "transferOwnership",
      "outputs": [],
      "stateMutability": "nonpayable",
      "type": "function"
    },
    {
      "inputs": [
        {
          "internalType": "uint256",
          "name": "_newPayment",
          "type": "uint256"
        }
      ],
      "name": "updatePaymentPerView",
      "outputs": [],
      "stateMutability": "nonpayable",
      "type": "function"
    },
    {
      "inputs": [
        {
          "internalType": "string",
          "name": "_title",
          "type": "string"
        },
        {
          "internalType": "string",
          "name": "_description",
          "type": "string"
        },
        {
          "internalType": "string",
          "name": "_ipfsHash",
          "type": "string"
        },
        {
          "internalType": "uint256",
          "name": "_category",
          "type": "uint256"
        }
      ],
      "name": "uploadContent",
      "outputs": [],
      "stateMutability": "nonpayable",
      "type": "function"
    },
    {
      "inputs": [
        {
          "internalType": "address",
          "name": "_creator",
          "type": "address"
        }
      ],
      "name": "verifyCreator",
      "outputs": [],
      "stateMutability": "nonpayable",
      "type": "function"
    },
    {
      "inputs": [
        {
          "internalType": "uint256",
          "name": "_contentId",
          "type": "uint256"
        }
      ],
      "name": "viewContent",
      "outputs": [],
      "stateMutability": "payable",
      "type": "function"
    },
    {
      "inputs": [],
      "name": "withdrawEarnings",
      "outputs": [],
      "stateMutability": "nonpayable",
      "type": "function"
    },
    {
      "inputs": [],
      "name": "withdrawPlatformFees",
      "outputs": [],
      "stateMutability": "nonpayable",
      "type": "function"
    },
    {
      "stateMutability": "payable",
      "type": "receive"
    }
  ],
  "bytecode": "0x6080806040523461006957600160008181558154336001600160a01b0319821681179093556001600160a01b0316907f8be0079c531659141344cd1fd0a4f28419497f9722a3daafe3b4186f6b6457e09080a366038d7ea4c68000600455612936908161006f8239f35b600080fdfe60806040526004361015610054575b361561001957600080fd5b61002534601054612780565b6010557fc57cd794d26d1efd80b54b9aac1f664c6a83755005b6391af57fee4127bd1d956020604051348152a1005b60003560e01c8063011c6756146121b357806304e48bd11461213b5780630b7ad54c14611f785780630ce7ed9814611f285780630d3b429214611d87578063136d888314611cfe57806317cb7d7c1461179d57806322920ad71461175057806324fb3e071461171957806334fbc9a1146116fd57806354315084146116715780635e52da271461153f5780635f37cd61146114235780635fb859ec146113c857806365e8ea1c14611377578063715018a61461131a5780637d9f68db146112cd578063804396af146102345780638be3e06f146110d55780638da5cb5b146110ac5780638fb7092c1461105f578063933166e114610fe05780639426502914610f9357806396f979d214610ec15780639889346514610ea057806398dd1b6514610e345780639e39e58d14610d59578063b4d54b1914610d3b578063b5ecf91214610c4f578063b73c6ce914610b49578063c685aa33146105ca578063d0b7830b146104ea578063d3631fa5146104cc578063d40761e41461045c578063d73792a91461043f578063db2e21bc14610377578063f2d0811f14610332578063f2fde38b1461026e578063f3f43703146102345763f9fc5af70361000e573461022f57600036600319011261022f576020600454604051908152f35b600080fd5b3461022f57602036600319011261022f576001600160a01b036102556122ab565b1660005260096020526020604060002054604051908152f35b3461022f57602036600319011261022f576102876122ab565b61028f61257e565b6001600160a01b039081169081156102de57600154826001600160601b0360a01b821617600155167f8be0079c531659141344cd1fd0a4f28419497f9722a3daafe3b4186f6b6457e0600080a3005b60405162461bcd60e51b815260206004820152602660248201527f4f776e61626c653a206e6577206f776e657220697320746865207a65726f206160448201526564647265737360d01b6064820152608490fd5b3461022f57602036600319011261022f5760043561034e61257e565b61035c6002548211156126ea565b6000908152600560205260409020600a01805460ff19169055005b3461022f57600036600319011261022f5761039061257e565b478015610403576001546000918291829182916001600160a01b03165af16103b661287a565b50156103be57005b60405162461bcd60e51b815260206004820152601b60248201527f456d657267656e6379207769746864726177616c206661696c656400000000006044820152606490fd5b60405162461bcd60e51b81526020600482015260146024820152734e6f2066756e647320746f20776974686472617760601b6044820152606490fd5b3461022f57600036600319011261022f5760206040516127108152f35b3461022f57602036600319011261022f576001600160a01b0361047d6122ab565b1660005260086020526104ba60406000206104c86104a6600161049f8461278d565b930161278d565b6040519384936040855260408501906122d7565b9083820360208501526122d7565b0390f35b3461022f57600036600319011261022f576020601154604051908152f35b3461022f57600036600319011261022f5761050361257e565b61050b6128aa565b6011548015610585576000808080938160115560018060a01b03600154165af161053361287a565b5015610540576001600055005b60405162461bcd60e51b815260206004820152601e60248201527f506c6174666f726d20666565207769746864726177616c206661696c656400006044820152606490fd5b60405162461bcd60e51b815260206004820152601c60248201527f4e6f20706c6174666f726d206665657320746f207769746864726177000000006044820152606490fd5b3461022f576105d836612405565b6105e4845115156125d6565b6105f08351151561261a565b6105fc82511515612666565b600a811015610b115760016002540192836002556040519161061d8361234b565b8483526020830193338552604084019287845260608501526080840152600060a0840152600060c0840152600060e084015261010083015242610120830152600161014083015283600052600560205260406000209282518455600184019060018060a01b039051166001600160601b0360a01b825416179055518051906001600160401b03821161088f5781906106b8600286015461249e565b601f8111610abe575b50602090601f8311600114610a4c57600092610a41575b50508160011b916000199060031b1c19161760028301555b60608101518051906001600160401b03821161088f578190610715600386015461249e565b601f81116109ee575b50602090601f831160011461097c57600092610971575b50508160011b916000199060031b1c19161760038301555b60808101518051906001600160401b03821161088f57610770600485015461249e565b601f811161092a575b50602090601f83116001146108b0579282600a936101409361080197966000926108a5575b50508160011b916000199060031b1c19161760048501555b60a0810151600585015560c0810151600685015560e08101516007850155610100810151600885015561012081015160098501550151151591019060ff801983541691151516179055565b600e54600160401b81101561088f578060016108209201600e55612467565b81549060031b9083821b91600019901b1916179055336000526007602052600260406000200161085081546126db565b90557f9b254a01196130d4769a7e8e9a24ddff300fd957e55e026cbc14978eef3b62b8604051602081528061088a3395602083019061230b565b0390a3005b634e487b7160e01b600052604160045260246000fd5b01519050898061079e565b906004850160005260206000209160005b601f198516811061091257508361014093610801979693600193600a97601f198116106108f9575b505050811b0160048501556107b6565b015160001960f88460031b161c191690558980806108e9565b919260206001819286850151815501940192016108c1565b600485016000526020600020601f840160051c81016020851061096a575b601f830160051c8201811061095e575050610779565b60008155600101610948565b5080610948565b015190508680610735565b9250600385016000526020600020906000935b601f19841685106109d3576001945083601f198116106109ba575b505050811b01600383015561074d565b015160001960f88460031b161c191690558680806109aa565b8181015183556020948501946001909301929091019061098f565b909150600385016000526020600020601f840160051c810160208510610a3a575b90849392915b601f830160051c82018110610a2b57505061071e565b60008155859450600101610a15565b5080610a0f565b0151905086806106d8565b9250600285016000526020600020906000935b601f1984168510610aa3576001945083601f19811610610a8a575b505050811b0160028301556106f0565b015160001960f88460031b161c19169055868080610a7a565b81810151835560209485019460019093019290910190610a5f565b909150600285016000526020600020601f840160051c810160208510610b0a575b90849392915b601f830160051c82018110610afb5750506106c1565b60008155859450600101610ae5565b5080610adf565b60405162461bcd60e51b815260206004820152601060248201526f496e76616c69642063617465676f727960801b6044820152606490fd5b3461022f57600036600319011261022f57610b626128aa565b3360005260096020526040600020548015610c0a5733600052600960205260006040812055600080808084335af1610b9861287a565b5015610bd1576040519081527f48dc35af7b45e2a81fffad55f6e2fafacdb1d3d0d50d24ebdc16324f5ba757f160203392a26001600055005b60405162461bcd60e51b815260206004820152601160248201527015da5d1a191c985dd85b0819985a5b1959607a1b6044820152606490fd5b60405162461bcd60e51b815260206004820152601760248201527f4e6f206561726e696e677320746f2077697468647261770000000000000000006044820152606490fd5b3461022f57602036600319011261022f5760043560005260056020526020604060002080549060018060a01b03600182015416610c8e600283016124d8565b91610c9b600382016124d8565b92610ca8600483016124d8565b93600583015494610d13600685015491610d05600787015494610cf760088901549760ff600a60098c01549b0154169a6040519e8f9e8f908152015260408d61016091829101528d019061230b565b908b820360608d015261230b565b9089820360808b015261230b565b9560a088015260c087015260e086015261010085015261012084015215156101408301520390f35b3461022f57600036600319011261022f576020601054604051908152f35b3461022f5760208060031936011261022f57610d736122ab565b60606080604051610d8381612367565b6000815260008582015260006040820152600083820152015260018060a01b03166000526007815260406000206104c860405191610dc083612367565b80548352600181015490848401918252600281015460408501908152610df9600460ff60038501541693606088019415158552016124d8565b9260808601938452604051968796818852519087015251604086015251606085015251151560808401525160a08084015260c083019061230b565b3461022f57602036600319011261022f57610e4d6122ab565b610e5561257e565b6001600160a01b03166000818152600760205260408120600301805460ff191660011790557ff29712ea7553106dc04213b4a8b2d4bd706623bddf1d92ab875d278700e772259080a2005b3461022f57602036600319011261022f57610eb961257e565b600480359055005b3461022f57602036600319011261022f576004356000908152600660205260409020805460018201546001600160a01b031691610f00600282016124d8565b610f0c600383016124d8565b91610f19600482016124d8565b92610f77600583015494610f69600685015493610f5b600860ff600789015416970154976040519b8c9b8c5260208c01526101208060408d01528b019061230b565b9089820360608b015261230b565b90878203608089015261230b565b9360a086015260c0850152151560e08401526101008301520390f35b3461022f57604036600319011261022f57610fac6122c1565b600435600052600b60205260406000209060018060a01b0316600052602052602060ff604060002054166040519015158152f35b3461022f57602036600319011261022f576001600160a01b036110016122ab565b166000526007602052604060002080546104c8600183015492600281015490611034600460ff60038401541692016124d8565b916040519586958652602086015260408501521515606084015260a0608084015260a083019061230b565b3461022f57604036600319011261022f576110786122c1565b600435600052600a60205260406000209060018060a01b0316600052602052602060ff604060002054166040519015158152f35b3461022f57600036600319011261022f576001546040516001600160a01b039091168152602090f35b60208060031936011261022f5760043590811515806112c1575b6110f8906126ea565b816000526005815261111460ff600a604060002001541661272f565b81600052600b8152604060002033600052815260ff6040600020541661127d5781600052600581526040600020600b825260406000203360005282526040600020600160ff198254161790556005810161116e81546126db565b9055600181019060018060a01b03908183541660005260078452604060002061119781546126db565b905560105490600454809210156111d2575b33867f6e095f59a74c080c06dd01632e03e2e6b181bc7aeeecbeedfb66297aced229b8600080a3005b60c8820282810460c814831517156112675761125a9561124f94612710600993049660076112008988612773565b950161120d868254612780565b90558181541660005260078352600160406000200161122d868254612780565b90555416600052526112456040600020918254612780565b9055601054612773565b601055601154612780565b60115581808080806111a9565b634e487b7160e01b600052601160045260246000fd5b6064906040519062461bcd60e51b82526004820152601b60248201527f416c726561647920766965776564207468697320636f6e74656e7400000000006044820152fd5b506002548211156110ef565b3461022f57604036600319011261022f576112e66122c1565b600435600052600c60205260406000209060018060a01b0316600052602052602060ff604060002054166040519015158152f35b3461022f57600036600319011261022f5761133361257e565b600180546001600160a01b031981169091556000906001600160a01b03167f8be0079c531659141344cd1fd0a4f28419497f9722a3daafe3b4186f6b6457e08280a3005b3461022f57602036600319011261022f57600435600f5481101561022f57602090600f6000527f8d1108e10bcb7c27dddfc02ed9d693a074039d026cf4ea4240b40f7d581ac8020154604051908152f35b600036600319011261022f5734156113e65761002534601054612780565b60405162461bcd60e51b81526020600482015260156024820152744d7573742073656e64204244414720746f6b656e7360581b6044820152606490fd5b3461022f5760208060031936011261022f576004359081151580611533575b61144b906126ea565b816000526005815261146760ff600a604060002001541661272f565b81600052600a8152604060002033600052815260ff604060002054166114ef5760059082600052600a815260406000203360005281526040600020600160ff19825416179055826000525260066040600020016114c481546126db565b905533907fc1ee4ef2a83783b48695c42cb439eb134fc379f78e9e472af571a5a04b7cfdc9600080a3005b6064906040519062461bcd60e51b82526004820152601a60248201527f416c7265616479206c696b6564207468697320636f6e74656e740000000000006044820152fd5b50600254821115611442565b3461022f5760208060031936011261022f576004359081151580611665575b611567906127f3565b816000526006815261158360ff60076040600020015416612837565b81600052600c8152604060002033600052815260ff604060002054166116215760089082600052600c815260406000203360005281526040600020600160ff19825416179055826000526006815260066040600020016115e381546126db565b905533600052526115f88160406000206126b2565b33907fd1a80c70750f3ae815515ec08d02c6202510aa13797609fe270e902cdfd99f03600080a3005b6064906040519062461bcd60e51b82526004820152601f60248201527f416c726561647920656e726f6c6c656420696e207468697320636f75727365006044820152fd5b5060035482111561155e565b3461022f57600036600319011261022f5760405180600e54808252826020809301600e6000527fbb7b4a454dc3493923482f07822329ed19e8244eff582cc204f8554c3620c3fd9260005b858282106116e7575050506116d392500383612382565b6104c86040519282849384528301906122d7565b85548452600195860195889550930192016116bc565b3461022f57600036600319011261022f57602060405160c88152f35b3461022f57602036600319011261022f57600435600e5481101561022f57611742602091612467565b90546040519160031b1c8152f35b3461022f57604036600319011261022f576117696122c1565b600435600052600d60205260406000209060018060a01b0316600052602052602060ff604060002054166040519015158152f35b3461022f576117ab36612405565b6117b7845115156125d6565b6117c38351151561261a565b6117cf82511515612666565b8015611cb95760016003540192836003556040519161012083018381106001600160401b0382111761088f57604052848352602083019333855260408401928784526060850152608084015260a0830152600060c0830152600160e08301524261010083015283600052600660205260406000209282518455600184019060018060a01b039051166001600160601b0360a01b825416179055518051906001600160401b03821161088f578190611889600286015461249e565b601f8111611c66575b50602090601f8311600114611bf457600092611be9575b50508160011b916000199060031b1c19161760028301555b60608101518051906001600160401b03821161088f5781906118e6600386015461249e565b601f8111611b96575b50602090601f8311600114611b2457600092611b19575b50508160011b916000199060031b1c19161760038301555b60808101518051906001600160401b03821161088f57611941600485015461249e565b601f8111611ad2575b50602090601f8311600114611a5c5791806008949261010094600092611a51575b50508160011b916000199060031b1c19161760048501555b60a0810151600585015560c081015160068501556119b660e08201511515600786019060ff801983541691151516179055565b0151910155600f54600160401b81101561088f576001810180600f55811015611a3b578190600f6000527f8d1108e10bcb7c27dddfc02ed9d693a074039d026cf4ea4240b40f7d581ac80201557fd26ee57739c2f8845178c96a37348973f3edc5907d342cdf65382f9a84474b89604051602081528061088a3395602083019061230b565b634e487b7160e01b600052603260045260246000fd5b01519050888061196b565b906004850160005260206000209160005b601f1985168110611aba575092600894926001926101009583601f19811610611aa1575b505050811b016004850155611983565b015160001960f88460031b161c19169055888080611a91565b91926020600181928685015181550194019201611a6d565b600485016000526020600020601f840160051c810160208510611b12575b601f830160051c82018110611b0657505061194a565b60008155600101611af0565b5080611af0565b015190508680611906565b9250600385016000526020600020906000935b601f1984168510611b7b576001945083601f19811610611b62575b505050811b01600383015561191e565b015160001960f88460031b161c19169055868080611b52565b81810151835560209485019460019093019290910190611b37565b909150600385016000526020600020601f840160051c810160208510611be2575b90849392915b601f830160051c82018110611bd35750506118ef565b60008155859450600101611bbd565b5080611bb7565b0151905086806118a9565b9250600285016000526020600020906000935b601f1984168510611c4b576001945083601f19811610611c32575b505050811b0160028301556118c1565b015160001960f88460031b161c19169055868080611c22565b81810151835560209485019460019093019290910190611c07565b909150600285016000526020600020601f840160051c810160208510611cb2575b90849392915b601f830160051c82018110611ca3575050611892565b60008155859450600101611c8d565b5080611c87565b60405162461bcd60e51b815260206004820152601f60248201527f4475726174696f6e206d7573742062652067726561746572207468616e2030006044820152606490fd5b3461022f57600036600319011261022f57600080600e545b808310611d4c5760a082600254906003549060105490601154926040519485526020850152604084015260608301526080820152f35b90611d7a611d8091611d5d85612467565b90549060031b1c6000526005806020526040600020015490612780565b926126db565b9190611d16565b3461022f5760208060031936011261022f576004359081151580611f1c575b611daf906127f3565b8160005260068152611dcb60ff60076040600020015416612837565b81600052600c8152604060002033600052815260ff6040600020541615611ed85781600052600d8152604060002033600052815260ff60406000205416611e945781600052600d8152604060002033600052815260406000209060ff199160018382541617905560088152611e478360016040600020016126b2565b33600052600881526002604060002001908360005252600160406000209182541617905533907f5bc083177651ab30489541022f7c6061da5d7d2157ea382267ea584eac645782600080a3005b6064906040519062461bcd60e51b82526004820152601d60248201527f416c726561647920636f6d706c65746564207468697320636f757273650000006044820152fd5b6064906040519062461bcd60e51b82526004820152601b60248201527f4e6f7420656e726f6c6c656420696e207468697320636f7572736500000000006044820152fd5b50600354821115611da6565b3461022f57604036600319011261022f576001600160a01b03611f496122ab565b1660005260086020526002604060002001602435600052602052602060ff604060002054166040519015158152f35b3461022f57602036600319011261022f576000610140604051611f9a8161234b565b82815282602082015260606040820152606080820152606060808201528260a08201528260c08201528260e0820152826101008201528261012082015201526004356000526005602052604060002060ff600a60405192611ffa8461234b565b8054845260018101546001600160a01b0316602085015261201d600282016124d8565b604085015261202e600382016124d8565b606085015261203f600482016124d8565b6080850152600581015460a0850152600681015460c0850152600781015460e08501526008810154610100850152600981015461012085015201541615156101408201526040518091602082528051602083015260018060a01b03602082015116604083015260408101516101406120f96120c86101609384606088015261018087019061230b565b6120e4606086015191601f1992838983030160808a015261230b565b906080860151908783030160a088015261230b565b9260a081015160c086015260c081015160e086015260e08101516101008601526101008101516101208601526101208101518286015201511515908301520390f35b3461022f57600036600319011261022f5760405180600f54808252826020809301600f6000527f8d1108e10bcb7c27dddfc02ed9d693a074039d026cf4ea4240b40f7d581ac8029260005b8582821061219d575050506116d392500383612382565b8554845260019586019588955093019201612186565b3461022f5760208060031936011261022f576001600160a01b0390816121d76122ab565b168060005260078252600260406000200154926121f3846127dc565b936122016040519586612382565b808552612210601f19916127dc565b01368486013760008092600e54935b84811061223957604051868152806104c88189018a6122d7565b61224281612467565b9054600391821b1c60005260059081885283866001604060002001541614612275575b5050612270906126db565b61221f565b612280839593612467565b9054911b1c918851811015611a3b576122709288826122a3941b8b0101526126db565b929088612265565b600435906001600160a01b038216820361022f57565b602435906001600160a01b038216820361022f57565b90815180825260208080930193019160005b8281106122f7575050505090565b8351855293810193928101926001016122e9565b919082519283825260005b848110612337575050826000602080949584010152601f8019910116010190565b602081830181015184830182015201612316565b61016081019081106001600160401b0382111761088f57604052565b60a081019081106001600160401b0382111761088f57604052565b90601f801991011681019081106001600160401b0382111761088f57604052565b6001600160401b03811161088f57601f01601f191660200190565b81601f8201121561022f578035906123d5826123a3565b926123e36040519485612382565b8284526020838301011161022f57816000926020809301838601378301015290565b608060031982011261022f576001600160401b039160043583811161022f5782612431916004016123be565b9260243581811161022f5783612449916004016123be565b9260443591821161022f57612460916004016123be565b9060643590565b600e54811015611a3b57600e6000527fbb7b4a454dc3493923482f07822329ed19e8244eff582cc204f8554c3620c3fd0190600090565b90600182811c921680156124ce575b60208310146124b857565b634e487b7160e01b600052602260045260246000fd5b91607f16916124ad565b90604051918260008254926124ec8461249e565b90818452600194858116908160001461255b5750600114612518575b505061251692500383612382565b565b9093915060005260209081600020936000915b81831061254357505061251693508201013880612508565b8554888401850152948501948794509183019161252b565b91505061251694506020925060ff191682840152151560051b8201013880612508565b6001546001600160a01b0316330361259257565b606460405162461bcd60e51b815260206004820152602060248201527f4f776e61626c653a2063616c6c6572206973206e6f7420746865206f776e65726044820152fd5b156125dd57565b60405162461bcd60e51b81526020600482015260156024820152745469746c652063616e6e6f7420626520656d70747960581b6044820152606490fd5b1561262157565b60405162461bcd60e51b815260206004820152601b60248201527f4465736372697074696f6e2063616e6e6f7420626520656d70747900000000006044820152606490fd5b1561266d57565b60405162461bcd60e51b815260206004820152601960248201527f4950465320686173682063616e6e6f7420626520656d707479000000000000006044820152606490fd5b805490600160401b82101561088f5760018201808255821015611a3b5760005260206000200155565b60001981146112675760010190565b156126f157565b60405162461bcd60e51b815260206004820152601660248201527510dbdb9d195b9d08191bd95cc81b9bdd08195e1a5cdd60521b6044820152606490fd5b1561273657565b60405162461bcd60e51b8152602060048201526015602482015274436f6e74656e74206973206e6f742061637469766560581b6044820152606490fd5b9190820391821161126757565b9190820180921161126757565b9060405191828154918282526020928383019160005283600020936000905b8282106127c25750505061251692500383612382565b8554845260019586019588955093810193909101906127ac565b6001600160401b03811161088f5760051b60200190565b156127fa57565b60405162461bcd60e51b815260206004820152601560248201527410dbdd5c9cd948191bd95cc81b9bdd08195e1a5cdd605a1b6044820152606490fd5b1561283e57565b60405162461bcd60e51b8152602060048201526014602482015273436f75727365206973206e6f742061637469766560601b6044820152606490fd5b3d156128a5573d9061288b826123a3565b916128996040519384612382565b82523d6000602084013e565b606090565b6002600054146128bb576002600055565b60405162461bcd60e51b815260206004820152601f60248201527f5265656e7472616e637947756172643a207265656e7472616e742063616c6c006044820152606490fdfea2646970667358221220069919dbf658695b0884bbe131adbc57b78c5a9778f9f3b7a72cb45ac6d37a1c64736f6c63430008140033",
  "linkReferences": {},
  "deployedLinkReferences": {}
}