{
  "_format": "hh-sol-artifact-1",
  "contractName": "CourseCertSBT",
  "sourceName": "contracts/CourseCertSBT.sol",
  "abi": [
    {
      "inputs": [
        {
          "internalType": "address",
          "name": "initialOwner",
          "type": "address"
        }
      ],
      "stateMutability": "nonpayable",
      "type": "constructor"
    },
    {
      "inputs": [
        {
          "internalType": "address",
          "name": "sender",
          "type": "address"
        },
        {
          "internalType": "uint256",
          "name": "tokenId",
          "type": "uint256"
        },
        {
          "internalType": "address",
          "name": "owner",
          "type": "address"
        }
      ],
      "name": "ERC721IncorrectOwner",
      "type": "error"
    },
    {
      "inputs": [
        {
          "internalType": "address",
          "name": "operator",
          "type": "address"
        },
        {
          "internalType": "uint256",
          "name": "tokenId",
          "type": "uint256"
        }
      ],
      "name": "ERC721InsufficientApproval",
      "type": "error"
    },
    {
      "inputs": [
        {
          "internalType": "address",
          "name": "approver",
          "type": "address"
        }
      ],
      "name": "ERC721InvalidApprover",
      "type": "error"
    },
    {
      "inputs": [
        {
          "internalType": "address",
          "name": "operator",
          "type": "address"
        }
      ],
      "name": "ERC721InvalidOperator",
      "type": "error"
    },
    {
      "inputs": [
        {
          "internalType": "address",
          "name": "owner",
          "type": "address"
        }
      ],
      "name": "ERC721InvalidOwner",
      "type": "error"
    },
    {
      "inputs": [
        {
          "internalType": "address",
          "name": "receiver",
          "type": "address"
        }
      ],
      "name": "ERC721InvalidReceiver",
      "type": "error"
    },
    {
      "inputs": [
        {
          "internalType": "address",
          "name": "sender",
          "type": "address"
        }
      ],
      "name": "ERC721InvalidSender",
      "type": "error"
    },
    {
      "inputs": [
        {
          "internalType": "uint256",
          "name": "tokenId",
          "type": "uint256"
        }
      ],
      "name": "ERC721NonexistentToken",
      "type": "error"
    },
    {
      "inputs": [
        {
          "internalType": "address",
          "name": "owner",
          "type": "address"
        }
      ],
      "name": "OwnableInvalidOwner",
      "type": "error"
    },
    {
      "inputs": [
        {
          "internalType": "address",
          "name": "account",
          "type": "address"
        }
      ],
      "name": "OwnableUnauthorizedAccount",
      "type": "error"
    },
    {
      "anonymous": false,
      "inputs": [
        {
          "indexed": true,
          "internalType": "address",
          "name": "owner",
          "type": "address"
        },
        {
          "indexed": true,
          "internalType": "address",
          "name": "approved",
          "type": "address"
        },
        {
          "indexed": true,
          "internalType": "uint256",
          "name": "tokenId",
          "type": "uint256"
        }
      ],
      "name": "Approval",
      "type": "event"
    },
    {
      "anonymous": false,
      "inputs": [
        {
          "indexed": true,
          "internalType": "address",
          "name": "owner",
          "type": "address"
        },
        {
          "indexed": true,
          "internalType": "address",
          "name": "operator",
          "type": "address"
        },
        {
          "indexed": false,
          "internalType": "bool",
          "name": "approved",
          "type": "bool"
        }
      ],
      "name": "ApprovalForAll",
      "type": "event"
    },
    {
      "anonymous": false,
      "inputs": [
        {
          "indexed": true,
          "internalType": "uint256",
          "name": "tokenId",
          "type": "uint256"
        },
        {
          "indexed": true,
          "internalType": "address",
          "name": "recipient",
          "type": "address"
        },
        {
          "indexed": false,
          "internalType": "string",
          "name": "courseTitle",
          "type": "string"
        }
      ],
      "name": "CertificateMinted",
      "type": "event"
    },
    {
      "anonymous": false,
      "inputs": [
        {
          "indexed": true,
          "internalType": "uint256",
          "name": "tokenId",
          "type": "uint256"
        },
        {
          "indexed": true,
          "internalType": "address",
          "name": "recipient",
          "type": "address"
        }
      ],
      "name": "CertificateRevoked",
      "type": "event"
    },
    {
      "anonymous": false,
      "inputs": [
        {
          "indexed": true,
          "internalType": "address",
          "name": "previousOwner",
          "type": "address"
        },
        {
          "indexed": true,
          "internalType": "address",
          "name": "newOwner",
          "type": "address"
        }
      ],
      "name": "OwnershipTransferred",
      "type": "event"
    },
    {
      "anonymous": false,
      "inputs": [
        {
          "indexed": true,
          "internalType": "address",
          "name": "from",
          "type": "address"
        },
        {
          "indexed": true,
          "internalType": "address",
          "name": "to",
          "type": "address"
        },
        {
          "indexed": true,
          "internalType": "uint256",
          "name": "tokenId",
          "type": "uint256"
        }
      ],
      "name": "Transfer",
      "type": "event"
    },
    {
      "inputs": [
        {
          "internalType": "address",
          "name": "to",
          "type": "address"
        },
        {
          "internalType": "uint256",
          "name": "tokenId",
          "type": "uint256"
        }
      ],
      "name": "approve",
      "outputs": [],
      "stateMutability": "nonpayable",
      "type": "function"
    },
    {
      "inputs": [
        {
          "internalType": "address",
          "name": "owner",
          "type": "address"
        }
      ],
      "name": "balanceOf",
      "outputs": [
        {
          "internalType": "uint256",
          "name": "",
          "type": "uint256"
        }
      ],
      "stateMutability": "view",
      "type": "function"
    },
    {
      "inputs": [
        {
          "internalType": "uint256",
          "name": "",
          "type": "uint256"
        }
      ],
      "name": "certificates",
      "outputs": [
        {
          "internalType": "string",
          "name": "courseTitle",
          "type": "string"
        },
        {
          "internalType": "string",
          "name": "courseDescription",
          "type": "string"
        },
        {
          "internalType": "string",
          "name": "creatorChannel",
          "type": "string"
        },
        {
          "internalType": "uint256",
          "name": "completionDate",
          "type": "uint256"
        },
        {
          "internalType": "uint256",
          "name": "courseDuration",
          "type": "uint256"
        },
        {
          "internalType": "string",
          "name": "metadataURI",
          "type": "string"
        },
        {
          "internalType": "bool",
          "name": "isRevoked",
          "type": "bool"
        }
      ],
      "stateMutability": "view",
      "type": "function"
    },
    {
      "inputs": [
        {
          "internalType": "uint256",
          "name": "tokenId",
          "type": "uint256"
        }
      ],
      "name": "getApproved",
      "outputs": [
        {
          "internalType": "address",
          "name": "",
          "type": "address"
        }
      ],
      "stateMutability": "view",
      "type": "function"
    },
    {
      "inputs": [
        {
          "internalType": "address",
          "name": "owner",
          "type": "address"
        },
        {
          "internalType": "address",
          "name": "operator",
          "type": "address"
        }
      ],
      "name": "isApprovedForAll",
      "outputs": [
        {
          "internalType": "bool",
          "name": "",
          "type": "bool"
        }
      ],
      "stateMutability": "view",
      "type": "function"
    },
    {
      "inputs": [
        {
          "internalType": "address",
          "name": "recipient",
          "type": "address"
        },
        {
          "internalType": "string",
          "name": "courseTitle",
          "type": "string"
        },
        {
          "internalType": "string",
          "name": "courseDescription",
          "type": "string"
        },
        {
          "internalType": "string",
          "name": "creatorChannel",
          "type": "string"
        },
        {
          "internalType": "uint256",
          "name": "courseDuration",
          "type": "uint256"
        },
        {
          "internalType": "string",
          "name": "metadataURI",
          "type": "string"
        }
      ],
      "name": "mintCertificate",
      "outputs": [
        {
          "internalType": "uint256",
          "name": "",
          "type": "uint256"
        }
      ],
      "stateMutability": "nonpayable",
      "type": "function"
    },
    {
      "inputs": [],
      "name": "name",
      "outputs": [
        {
          "internalType": "string",
          "name": "",
          "type": "string"
        }
      ],
      "stateMutability": "view",
      "type": "function"
    },
    {
      "inputs": [],
      "name": "owner",
      "outputs": [
        {
          "internalType": "address",
          "name": "",
          "type": "address"
        }
      ],
      "stateMutability": "view",
      "type": "function"
    },
    {
      "inputs": [
        {
          "internalType": "uint256",
          "name": "tokenId",
          "type": "uint256"
        }
      ],
      "name": "ownerOf",
      "outputs": [
        {
          "internalType": "address",
          "name": "",
          "type": "address"
        }
      ],
      "stateMutability": "view",
      "type": "function"
    },
    {
      "inputs": [],
      "name": "renounceOwnership",
      "outputs": [],
      "stateMutability": "nonpayable",
      "type": "function"
    },
    {
      "inputs": [
        {
          "internalType": "address",
          "name": "from",
          "type": "address"
        },
        {
          "internalType": "address",
          "name": "to",
          "type": "address"
        },
        {
          "internalType": "uint256",
          "name": "tokenId",
          "type": "uint256"
        }
      ],
      "name": "safeTransferFrom",
      "outputs": [],
      "stateMutability": "nonpayable",
      "type": "function"
    },
    {
      "inputs": [
        {
          "internalType": "address",
          "name": "from",
          "type": "address"
        },
        {
          "internalType": "address",
          "name": "to",
          "type": "address"
        },
        {
          "internalType": "uint256",
          "name": "tokenId",
          "type": "uint256"
        },
        {
          "internalType": "bytes",
          "name": "data",
          "type": "bytes"
        }
      ],
      "name": "safeTransferFrom",
      "outputs": [],
      "stateMutability": "nonpayable",
      "type": "function"
    },
    {
      "inputs": [
        {
          "internalType": "address",
          "name": "operator",
          "type": "address"
        },
        {
          "internalType": "bool",
          "name": "approved",
          "type": "bool"
        }
      ],
      "name": "setApprovalForAll",
      "outputs": [],
      "stateMutability": "nonpayable",
      "type": "function"
    },
    {
      "inputs": [
        {
          "internalType": "bytes4",
          "name": "interfaceId",
          "type": "bytes4"
        }
      ],
      "name": "supportsInterface",
      "outputs": [
        {
          "internalType": "bool",
          "name": "",
          "type": "bool"
        }
      ],
      "stateMutability": "view",
      "type": "function"
    },
    {
      "inputs": [],
      "name": "symbol",
      "outputs": [
        {
          "internalType": "string",
          "name": "",
          "type": "string"
        }
      ],
      "stateMutability": "view",
      "type": "function"
    },
    {
      "inputs": [
        {
          "internalType": "uint256",
          "name": "tokenId",
          "type": "uint256"
        }
      ],
      "name": "tokenURI",
      "outputs": [
        {
          "internalType": "string",
          "name": "",
          "type": "string"
        }
      ],
      "stateMutability": "view",
      "type": "function"
    },
    {
      "inputs": [
        {
          "internalType": "address",
          "name": "from",
          "type": "address"
        },
        {
          "internalType": "address",
          "name": "to",
          "type": "address"
        },
        {
          "internalType": "uint256",
          "name": "tokenId",
          "type": "uint256"
        }
      ],
      "name": "transferFrom",
      "outputs": [],
      "stateMutability": "nonpayable",
      "type": "function"
    },
    {
      "inputs": [
        {
          "internalType": "address",
          "name": "newOwner",
          "type": "address"
        }
      ],
      "name": "transferOwnership",
      "outputs": [],
      "stateMutability": "nonpayable",
      "type": "function"
    },
    {
      "inputs": [
        {
          "internalType": "address",
          "name": "",
          "type": "address"
        },
        {
          "internalType": "uint256",
          "name": "",
          "type": "uint256"
        }
      ],
      "name": "userCertificates",
      "outputs": [
        {
          "internalType": "uint256",
          "name": "",
          "type": "uint256"
        }
      ],
      "stateMutability": "view",
      "type": "function"
    }
  ],
  "bytecode": "0x60806040523480156200001157600080fd5b506040516200326638038062003266833981810160405281019062000037919062000288565b806040518060400160405280601281526020017f436f7572736520436572746966696361746500000000000000000000000000008152506040518060400160405280600681526020017f434f5552534500000000000000000000000000000000000000000000000000008152508160009081620000b5919062000534565b508060019081620000c7919062000534565b505050600073ffffffffffffffffffffffffffffffffffffffff168173ffffffffffffffffffffffffffffffffffffffff16036200013f5760006040517f1e4fbdf70000000000000000000000000000000000000000000000000000000081526004016200013691906200062c565b60405180910390fd5b62000150816200015860201b60201c565b505062000649565b6000600660009054906101000a900473ffffffffffffffffffffffffffffffffffffffff16905081600660006101000a81548173ffffffffffffffffffffffffffffffffffffffff021916908373ffffffffffffffffffffffffffffffffffffffff1602179055508173ffffffffffffffffffffffffffffffffffffffff168173ffffffffffffffffffffffffffffffffffffffff167f8be0079c531659141344cd1fd0a4f28419497f9722a3daafe3b4186f6b6457e060405160405180910390a35050565b600080fd5b600073ffffffffffffffffffffffffffffffffffffffff82169050919050565b6000620002508262000223565b9050919050565b620002628162000243565b81146200026e57600080fd5b50565b600081519050620002828162000257565b92915050565b600060208284031215620002a157620002a06200021e565b5b6000620002b18482850162000271565b91505092915050565b600081519050919050565b7f4e487b7100000000000000000000000000000000000000000000000000000000600052604160045260246000fd5b7f4e487b7100000000000000000000000000000000000000000000000000000000600052602260045260246000fd5b600060028204905060018216806200033c57607f821691505b602082108103620003525762000351620002f4565b5b50919050565b60008190508160005260206000209050919050565b60006020601f8301049050919050565b600082821b905092915050565b600060088302620003bc7fffffffffffffffffffffffffffffffffffffffffffffffffffffffffffffffff826200037d565b620003c886836200037d565b95508019841693508086168417925050509392505050565b6000819050919050565b6000819050919050565b6000620004156200040f6200040984620003e0565b620003ea565b620003e0565b9050919050565b6000819050919050565b6200043183620003f4565b6200044962000440826200041c565b8484546200038a565b825550505050565b600090565b6200046062000451565b6200046d81848462000426565b505050565b5b8181101562000495576200048960008262000456565b60018101905062000473565b5050565b601f821115620004e457620004ae8162000358565b620004b9846200036d565b81016020851015620004c9578190505b620004e1620004d8856200036d565b83018262000472565b50505b505050565b600082821c905092915050565b60006200050960001984600802620004e9565b1980831691505092915050565b6000620005248383620004f6565b9150826002028217905092915050565b6200053f82620002ba565b67ffffffffffffffff8111156200055b576200055a620002c5565b5b62000567825462000323565b6200057482828562000499565b600060209050601f831160018114620005ac576000841562000597578287015190505b620005a3858262000516565b86555062000613565b601f198416620005bc8662000358565b60005b82811015620005e657848901518255600182019150602085019450602081019050620005bf565b8683101562000606578489015162000602601f891682620004f6565b8355505b6001600288020188555050505b505050505050565b620006268162000243565b82525050565b60006020820190506200064360008301846200061b565b92915050565b612c0d80620006596000396000f3fe608060405234801561001057600080fd5b50600436106101215760003560e01c8063663b3e22116100ad578063a22cb46511610071578063a22cb46514610334578063b88d4fde14610350578063c87b56dd1461036c578063e985e9c51461039c578063f2fde38b146103cc57610121565b8063663b3e221461028857806370a08231146102be578063715018a6146102ee5780638da5cb5b146102f857806395d89b411461031657610121565b8063095ea7b3116100f4578063095ea7b3146101d45780631e5a7d2f146101f057806323b872dd1461022057806342842e0e1461023c5780636352211e1461025857610121565b80630175f8891461012657806301ffc9a71461015657806306fdde0314610186578063081812fc146101a4575b600080fd5b610140600480360381019061013b9190611e9d565b6103e8565b60405161014d9190611eec565b60405180910390f35b610170600480360381019061016b9190611f5f565b610419565b60405161017d9190611fa7565b60405180910390f35b61018e6104fb565b60405161019b9190612052565b60405180910390f35b6101be60048036038101906101b99190612074565b61058d565b6040516101cb91906120b0565b60405180910390f35b6101ee60048036038101906101e99190611e9d565b6105a9565b005b61020a60048036038101906102059190612200565b6105bf565b6040516102179190611eec565b60405180910390f35b61023a600480360381019061023591906122fd565b610840565b005b610256600480360381019061025191906122fd565b610942565b005b610272600480360381019061026d9190612074565b610962565b60405161027f91906120b0565b60405180910390f35b6102a2600480360381019061029d9190612074565b610974565b6040516102b59796959493929190612350565b60405180910390f35b6102d860048036038101906102d391906123db565b610be3565b6040516102e59190611eec565b60405180910390f35b6102f6610c9d565b005b610300610cb1565b60405161030d91906120b0565b60405180910390f35b61031e610cdb565b60405161032b9190612052565b60405180910390f35b61034e60048036038101906103499190612434565b610d6d565b005b61036a60048036038101906103659190612515565b610d83565b005b61038660048036038101906103819190612074565b610da8565b6040516103939190612052565b60405180910390f35b6103b660048036038101906103b19190612598565b610e11565b6040516103c39190611fa7565b60405180910390f35b6103e660048036038101906103e191906123db565b610ea5565b005b6009602052816000526040600020818154811061040457600080fd5b90600052602060002001600091509150505481565b60007f80ac58cd000000000000000000000000000000000000000000000000000000007bffffffffffffffffffffffffffffffffffffffffffffffffffffffff1916827bffffffffffffffffffffffffffffffffffffffffffffffffffffffff191614806104e457507f5b5e139f000000000000000000000000000000000000000000000000000000007bffffffffffffffffffffffffffffffffffffffffffffffffffffffff1916827bffffffffffffffffffffffffffffffffffffffffffffffffffffffff1916145b806104f457506104f382610f2b565b5b9050919050565b60606000805461050a90612607565b80601f016020809104026020016040519081016040528092919081815260200182805461053690612607565b80156105835780601f1061055857610100808354040283529160200191610583565b820191906000526020600020905b81548152906001019060200180831161056657829003601f168201915b5050505050905090565b600061059882610f95565b506105a28261101d565b9050919050565b6105bb82826105b661105a565b611062565b5050565b60006105c9611074565b600073ffffffffffffffffffffffffffffffffffffffff168773ffffffffffffffffffffffffffffffffffffffff1603610638576040517f08c379a000000000000000000000000000000000000000000000000000000000815260040161062f90612684565b60405180910390fd5b600086511161067c576040517f08c379a0000000000000000000000000000000000000000000000000000000008152600401610673906126f0565b60405180910390fd5b6007600081548092919061068f9061273f565b9190505550600060075490506040518060e00160405280888152602001878152602001868152602001428152602001858152602001848152602001600015158152506008600083815260200190815260200160002060008201518160000190816106f99190612933565b50602082015181600101908161070f9190612933565b5060408201518160020190816107259190612933565b50606082015181600301556080820151816004015560a082015181600501908161074f9190612933565b5060c08201518160060160006101000a81548160ff02191690831515021790555090505061077d88826110fb565b600960008973ffffffffffffffffffffffffffffffffffffffff1673ffffffffffffffffffffffffffffffffffffffff1681526020019081526020016000208190806001815401808255809150506001900390600052602060002001600090919091909150558773ffffffffffffffffffffffffffffffffffffffff16817f8f25ba6a82901a4fd6415ef13a61a268ca433a2b06840284ed6cee98d0237d9e8960405161082a9190612052565b60405180910390a3809150509695505050505050565b600073ffffffffffffffffffffffffffffffffffffffff168273ffffffffffffffffffffffffffffffffffffffff16036108b25760006040517f64a0ae920000000000000000000000000000000000000000000000000000000081526004016108a991906120b0565b60405180910390fd5b60006108c683836108c161105a565b611119565b90508373ffffffffffffffffffffffffffffffffffffffff168173ffffffffffffffffffffffffffffffffffffffff161461093c578382826040517f64283d7b00000000000000000000000000000000000000000000000000000000815260040161093393929190612a05565b60405180910390fd5b50505050565b61095d83838360405180602001604052806000815250610d83565b505050565b600061096d82610f95565b9050919050565b600860205280600052604060002060009150905080600001805461099790612607565b80601f01602080910402602001604051908101604052809291908181526020018280546109c390612607565b8015610a105780601f106109e557610100808354040283529160200191610a10565b820191906000526020600020905b8154815290600101906020018083116109f357829003601f168201915b505050505090806001018054610a2590612607565b80601f0160208091040260200160405190810160405280929190818152602001828054610a5190612607565b8015610a9e5780601f10610a7357610100808354040283529160200191610a9e565b820191906000526020600020905b815481529060010190602001808311610a8157829003601f168201915b505050505090806002018054610ab390612607565b80601f0160208091040260200160405190810160405280929190818152602001828054610adf90612607565b8015610b2c5780601f10610b0157610100808354040283529160200191610b2c565b820191906000526020600020905b815481529060010190602001808311610b0f57829003601f168201915b505050505090806003015490806004015490806005018054610b4d90612607565b80601f0160208091040260200160405190810160405280929190818152602001828054610b7990612607565b8015610bc65780601f10610b9b57610100808354040283529160200191610bc6565b820191906000526020600020905b815481529060010190602001808311610ba957829003601f168201915b5050505050908060060160009054906101000a900460ff16905087565b60008073ffffffffffffffffffffffffffffffffffffffff168273ffffffffffffffffffffffffffffffffffffffff1603610c565760006040517f89c62b64000000000000000000000000000000000000000000000000000000008152600401610c4d91906120b0565b60405180910390fd5b600360008373ffffffffffffffffffffffffffffffffffffffff1673ffffffffffffffffffffffffffffffffffffffff168152602001908152602001600020549050919050565b610ca5611074565b610caf6000611333565b565b6000600660009054906101000a900473ffffffffffffffffffffffffffffffffffffffff16905090565b606060018054610cea90612607565b80601f0160208091040260200160405190810160405280929190818152602001828054610d1690612607565b8015610d635780601f10610d3857610100808354040283529160200191610d63565b820191906000526020600020905b815481529060010190602001808311610d4657829003601f168201915b5050505050905090565b610d7f610d7861105a565b83836113f9565b5050565b610d8e848484610840565b610da2610d9961105a565b85858585611568565b50505050565b6060610db382610f95565b506000610dbe611719565b90506000815111610dde5760405180602001604052806000815250610e09565b80610de884611730565b604051602001610df9929190612a78565b6040516020818303038152906040525b915050919050565b6000600560008473ffffffffffffffffffffffffffffffffffffffff1673ffffffffffffffffffffffffffffffffffffffff16815260200190815260200160002060008373ffffffffffffffffffffffffffffffffffffffff1673ffffffffffffffffffffffffffffffffffffffff16815260200190815260200160002060009054906101000a900460ff16905092915050565b610ead611074565b600073ffffffffffffffffffffffffffffffffffffffff168173ffffffffffffffffffffffffffffffffffffffff1603610f1f5760006040517f1e4fbdf7000000000000000000000000000000000000000000000000000000008152600401610f1691906120b0565b60405180910390fd5b610f2881611333565b50565b60007f01ffc9a7000000000000000000000000000000000000000000000000000000007bffffffffffffffffffffffffffffffffffffffffffffffffffffffff1916827bffffffffffffffffffffffffffffffffffffffffffffffffffffffff1916149050919050565b600080610fa1836117fe565b9050600073ffffffffffffffffffffffffffffffffffffffff168173ffffffffffffffffffffffffffffffffffffffff160361101457826040517f7e27328900000000000000000000000000000000000000000000000000000000815260040161100b9190611eec565b60405180910390fd5b80915050919050565b60006004600083815260200190815260200160002060009054906101000a900473ffffffffffffffffffffffffffffffffffffffff169050919050565b600033905090565b61106f838383600161183b565b505050565b61107c61105a565b73ffffffffffffffffffffffffffffffffffffffff1661109a610cb1565b73ffffffffffffffffffffffffffffffffffffffff16146110f9576110bd61105a565b6040517f118cdaa70000000000000000000000000000000000000000000000000000000081526004016110f091906120b0565b60405180910390fd5b565b611115828260405180602001604052806000815250611a00565b5050565b600080611125846117fe565b9050600073ffffffffffffffffffffffffffffffffffffffff168373ffffffffffffffffffffffffffffffffffffffff161461116757611166818486611a24565b5b600073ffffffffffffffffffffffffffffffffffffffff168173ffffffffffffffffffffffffffffffffffffffff16146111f8576111a960008560008061183b565b6001600360008373ffffffffffffffffffffffffffffffffffffffff1673ffffffffffffffffffffffffffffffffffffffff168152602001908152602001600020600082825403925050819055505b600073ffffffffffffffffffffffffffffffffffffffff168573ffffffffffffffffffffffffffffffffffffffff161461127b576001600360008773ffffffffffffffffffffffffffffffffffffffff1673ffffffffffffffffffffffffffffffffffffffff168152602001908152602001600020600082825401925050819055505b846002600086815260200190815260200160002060006101000a81548173ffffffffffffffffffffffffffffffffffffffff021916908373ffffffffffffffffffffffffffffffffffffffff160217905550838573ffffffffffffffffffffffffffffffffffffffff168273ffffffffffffffffffffffffffffffffffffffff167fddf252ad1be2c89b69c2b068fc378daa952ba7f163c4a11628f55a4df523b3ef60405160405180910390a4809150509392505050565b6000600660009054906101000a900473ffffffffffffffffffffffffffffffffffffffff16905081600660006101000a81548173ffffffffffffffffffffffffffffffffffffffff021916908373ffffffffffffffffffffffffffffffffffffffff1602179055508173ffffffffffffffffffffffffffffffffffffffff168173ffffffffffffffffffffffffffffffffffffffff167f8be0079c531659141344cd1fd0a4f28419497f9722a3daafe3b4186f6b6457e060405160405180910390a35050565b600073ffffffffffffffffffffffffffffffffffffffff168273ffffffffffffffffffffffffffffffffffffffff160361146a57816040517f5b08ba1800000000000000000000000000000000000000000000000000000000815260040161146191906120b0565b60405180910390fd5b80600560008573ffffffffffffffffffffffffffffffffffffffff1673ffffffffffffffffffffffffffffffffffffffff16815260200190815260200160002060008473ffffffffffffffffffffffffffffffffffffffff1673ffffffffffffffffffffffffffffffffffffffff16815260200190815260200160002060006101000a81548160ff0219169083151502179055508173ffffffffffffffffffffffffffffffffffffffff168373ffffffffffffffffffffffffffffffffffffffff167f17307eab39ab6107e8899845ad3d59bd9653f200f220920489ca2b5937696c318360405161155b9190611fa7565b60405180910390a3505050565b60008373ffffffffffffffffffffffffffffffffffffffff163b1115611712578273ffffffffffffffffffffffffffffffffffffffff1663150b7a02868685856040518563ffffffff1660e01b81526004016115c79493929190612af1565b6020604051808303816000875af192505050801561160357506040513d601f19601f820116820180604052508101906116009190612b52565b60015b611687573d8060008114611633576040519150601f19603f3d011682016040523d82523d6000602084013e611638565b606091505b50600081510361167f57836040517f64a0ae9200000000000000000000000000000000000000000000000000000000815260040161167691906120b0565b60405180910390fd5b805160208201fd5b63150b7a0260e01b7bffffffffffffffffffffffffffffffffffffffffffffffffffffffff1916817bffffffffffffffffffffffffffffffffffffffffffffffffffffffff19161461171057836040517f64a0ae9200000000000000000000000000000000000000000000000000000000815260040161170791906120b0565b60405180910390fd5b505b5050505050565b606060405180602001604052806000815250905090565b60606000600161173f84611ae8565b01905060008167ffffffffffffffff81111561175e5761175d6120d5565b5b6040519080825280601f01601f1916602001820160405280156117905781602001600182028036833780820191505090505b509050600082602083010190505b6001156117f3578080600190039150507f3031323334353637383961626364656600000000000000000000000000000000600a86061a8153600a85816117e7576117e6612b7f565b5b0494506000850361179e575b819350505050919050565b60006002600083815260200190815260200160002060009054906101000a900473ffffffffffffffffffffffffffffffffffffffff169050919050565b80806118745750600073ffffffffffffffffffffffffffffffffffffffff168273ffffffffffffffffffffffffffffffffffffffff1614155b156119a857600061188484610f95565b9050600073ffffffffffffffffffffffffffffffffffffffff168373ffffffffffffffffffffffffffffffffffffffff16141580156118ef57508273ffffffffffffffffffffffffffffffffffffffff168173ffffffffffffffffffffffffffffffffffffffff1614155b801561190257506119008184610e11565b155b1561194457826040517fa9fbf51f00000000000000000000000000000000000000000000000000000000815260040161193b91906120b0565b60405180910390fd5b81156119a657838573ffffffffffffffffffffffffffffffffffffffff168273ffffffffffffffffffffffffffffffffffffffff167f8c5be1e5ebec7d5bd14f71427d1e84f3dd0314c0f7b2291e5b200ac8c7c3b92560405160405180910390a45b505b836004600085815260200190815260200160002060006101000a81548173ffffffffffffffffffffffffffffffffffffffff021916908373ffffffffffffffffffffffffffffffffffffffff16021790555050505050565b611a0a8383611c3b565b611a1f611a1561105a565b6000858585611568565b505050565b611a2f838383611d34565b611ae357600073ffffffffffffffffffffffffffffffffffffffff168373ffffffffffffffffffffffffffffffffffffffff1603611aa457806040517f7e273289000000000000000000000000000000000000000000000000000000008152600401611a9b9190611eec565b60405180910390fd5b81816040517f177e802f000000000000000000000000000000000000000000000000000000008152600401611ada929190612bae565b60405180910390fd5b505050565b600080600090507a184f03e93ff9f4daa797ed6e38ed64bf6a1f0100000000000000008310611b46577a184f03e93ff9f4daa797ed6e38ed64bf6a1f0100000000000000008381611b3c57611b3b612b7f565b5b0492506040810190505b6d04ee2d6d415b85acef81000000008310611b83576d04ee2d6d415b85acef81000000008381611b7957611b78612b7f565b5b0492506020810190505b662386f26fc100008310611bb257662386f26fc100008381611ba857611ba7612b7f565b5b0492506010810190505b6305f5e1008310611bdb576305f5e1008381611bd157611bd0612b7f565b5b0492506008810190505b6127108310611c00576127108381611bf657611bf5612b7f565b5b0492506004810190505b60648310611c235760648381611c1957611c18612b7f565b5b0492506002810190505b600a8310611c32576001810190505b80915050919050565b600073ffffffffffffffffffffffffffffffffffffffff168273ffffffffffffffffffffffffffffffffffffffff1603611cad5760006040517f64a0ae92000000000000000000000000000000000000000000000000000000008152600401611ca491906120b0565b60405180910390fd5b6000611cbb83836000611119565b9050600073ffffffffffffffffffffffffffffffffffffffff168173ffffffffffffffffffffffffffffffffffffffff1614611d2f5760006040517f73c6ac6e000000000000000000000000000000000000000000000000000000008152600401611d2691906120b0565b60405180910390fd5b505050565b60008073ffffffffffffffffffffffffffffffffffffffff168373ffffffffffffffffffffffffffffffffffffffff1614158015611dec57508273ffffffffffffffffffffffffffffffffffffffff168473ffffffffffffffffffffffffffffffffffffffff161480611dad5750611dac8484610e11565b5b80611deb57508273ffffffffffffffffffffffffffffffffffffffff16611dd38361101d565b73ffffffffffffffffffffffffffffffffffffffff16145b5b90509392505050565b6000604051905090565b600080fd5b600080fd5b600073ffffffffffffffffffffffffffffffffffffffff82169050919050565b6000611e3482611e09565b9050919050565b611e4481611e29565b8114611e4f57600080fd5b50565b600081359050611e6181611e3b565b92915050565b6000819050919050565b611e7a81611e67565b8114611e8557600080fd5b50565b600081359050611e9781611e71565b92915050565b60008060408385031215611eb457611eb3611dff565b5b6000611ec285828601611e52565b9250506020611ed385828601611e88565b9150509250929050565b611ee681611e67565b82525050565b6000602082019050611f016000830184611edd565b92915050565b60007fffffffff0000000000000000000000000000000000000000000000000000000082169050919050565b611f3c81611f07565b8114611f4757600080fd5b50565b600081359050611f5981611f33565b92915050565b600060208284031215611f7557611f74611dff565b5b6000611f8384828501611f4a565b91505092915050565b60008115159050919050565b611fa181611f8c565b82525050565b6000602082019050611fbc6000830184611f98565b92915050565b600081519050919050565b600082825260208201905092915050565b60005b83811015611ffc578082015181840152602081019050611fe1565b60008484015250505050565b6000601f19601f8301169050919050565b600061202482611fc2565b61202e8185611fcd565b935061203e818560208601611fde565b61204781612008565b840191505092915050565b6000602082019050818103600083015261206c8184612019565b905092915050565b60006020828403121561208a57612089611dff565b5b600061209884828501611e88565b91505092915050565b6120aa81611e29565b82525050565b60006020820190506120c560008301846120a1565b92915050565b600080fd5b600080fd5b7f4e487b7100000000000000000000000000000000000000000000000000000000600052604160045260246000fd5b61210d82612008565b810181811067ffffffffffffffff8211171561212c5761212b6120d5565b5b80604052505050565b600061213f611df5565b905061214b8282612104565b919050565b600067ffffffffffffffff82111561216b5761216a6120d5565b5b61217482612008565b9050602081019050919050565b82818337600083830152505050565b60006121a361219e84612150565b612135565b9050828152602081018484840111156121bf576121be6120d0565b5b6121ca848285612181565b509392505050565b600082601f8301126121e7576121e66120cb565b5b81356121f7848260208601612190565b91505092915050565b60008060008060008060c0878903121561221d5761221c611dff565b5b600061222b89828a01611e52565b965050602087013567ffffffffffffffff81111561224c5761224b611e04565b5b61225889828a016121d2565b955050604087013567ffffffffffffffff81111561227957612278611e04565b5b61228589828a016121d2565b945050606087013567ffffffffffffffff8111156122a6576122a5611e04565b5b6122b289828a016121d2565b93505060806122c389828a01611e88565b92505060a087013567ffffffffffffffff8111156122e4576122e3611e04565b5b6122f089828a016121d2565b9150509295509295509295565b60008060006060848603121561231657612315611dff565b5b600061232486828701611e52565b935050602061233586828701611e52565b925050604061234686828701611e88565b9150509250925092565b600060e082019050818103600083015261236a818a612019565b9050818103602083015261237e8189612019565b905081810360408301526123928188612019565b90506123a16060830187611edd565b6123ae6080830186611edd565b81810360a08301526123c08185612019565b90506123cf60c0830184611f98565b98975050505050505050565b6000602082840312156123f1576123f0611dff565b5b60006123ff84828501611e52565b91505092915050565b61241181611f8c565b811461241c57600080fd5b50565b60008135905061242e81612408565b92915050565b6000806040838503121561244b5761244a611dff565b5b600061245985828601611e52565b925050602061246a8582860161241f565b9150509250929050565b600067ffffffffffffffff82111561248f5761248e6120d5565b5b61249882612008565b9050602081019050919050565b60006124b86124b384612474565b612135565b9050828152602081018484840111156124d4576124d36120d0565b5b6124df848285612181565b509392505050565b600082601f8301126124fc576124fb6120cb565b5b813561250c8482602086016124a5565b91505092915050565b6000806000806080858703121561252f5761252e611dff565b5b600061253d87828801611e52565b945050602061254e87828801611e52565b935050604061255f87828801611e88565b925050606085013567ffffffffffffffff8111156125805761257f611e04565b5b61258c878288016124e7565b91505092959194509250565b600080604083850312156125af576125ae611dff565b5b60006125bd85828601611e52565b92505060206125ce85828601611e52565b9150509250929050565b7f4e487b7100000000000000000000000000000000000000000000000000000000600052602260045260246000fd5b6000600282049050600182168061261f57607f821691505b602082108103612632576126316125d8565b5b50919050565b7f496e76616c696420726563697069656e74000000000000000000000000000000600082015250565b600061266e601183611fcd565b915061267982612638565b602082019050919050565b6000602082019050818103600083015261269d81612661565b9050919050565b7f436f75727365207469746c652072657175697265640000000000000000000000600082015250565b60006126da601583611fcd565b91506126e5826126a4565b602082019050919050565b60006020820190508181036000830152612709816126cd565b9050919050565b7f4e487b7100000000000000000000000000000000000000000000000000000000600052601160045260246000fd5b600061274a82611e67565b91507fffffffffffffffffffffffffffffffffffffffffffffffffffffffffffffffff820361277c5761277b612710565b5b600182019050919050565b60008190508160005260206000209050919050565b60006020601f8301049050919050565b600082821b905092915050565b6000600883026127e97fffffffffffffffffffffffffffffffffffffffffffffffffffffffffffffffff826127ac565b6127f386836127ac565b95508019841693508086168417925050509392505050565b6000819050919050565b600061283061282b61282684611e67565b61280b565b611e67565b9050919050565b6000819050919050565b61284a83612815565b61285e61285682612837565b8484546127b9565b825550505050565b600090565b612873612866565b61287e818484612841565b505050565b5b818110156128a25761289760008261286b565b600181019050612884565b5050565b601f8211156128e7576128b881612787565b6128c18461279c565b810160208510156128d0578190505b6128e46128dc8561279c565b830182612883565b50505b505050565b600082821c905092915050565b600061290a600019846008026128ec565b1980831691505092915050565b600061292383836128f9565b9150826002028217905092915050565b61293c82611fc2565b67ffffffffffffffff811115612955576129546120d5565b5b61295f8254612607565b61296a8282856128a6565b600060209050601f83116001811461299d576000841561298b578287015190505b6129958582612917565b8655506129fd565b601f1984166129ab86612787565b60005b828110156129d3578489015182556001820191506020850194506020810190506129ae565b868310156129f057848901516129ec601f8916826128f9565b8355505b6001600288020188555050505b505050505050565b6000606082019050612a1a60008301866120a1565b612a276020830185611edd565b612a3460408301846120a1565b949350505050565b600081905092915050565b6000612a5282611fc2565b612a5c8185612a3c565b9350612a6c818560208601611fde565b80840191505092915050565b6000612a848285612a47565b9150612a908284612a47565b91508190509392505050565b600081519050919050565b600082825260208201905092915050565b6000612ac382612a9c565b612acd8185612aa7565b9350612add818560208601611fde565b612ae681612008565b840191505092915050565b6000608082019050612b0660008301876120a1565b612b1360208301866120a1565b612b206040830185611edd565b8181036060830152612b328184612ab8565b905095945050505050565b600081519050612b4c81611f33565b92915050565b600060208284031215612b6857612b67611dff565b5b6000612b7684828501612b3d565b91505092915050565b7f4e487b7100000000000000000000000000000000000000000000000000000000600052601260045260246000fd5b6000604082019050612bc360008301856120a1565b612bd06020830184611edd565b939250505056fea2646970667358221220e5518a9551f43f596b275a1395a18b0def45712baedbb4f3ca0e7532f3592da864736f6c63430008140033",
  "linkReferences": {},
  "deployedLinkReferences": {}
}