{
  "_format": "hh-sol-artifact-1",
  "contractName": "WomenHealthRecords",
  "sourceName": "contracts/WomenHealthRecords.sol",
  "abi": [
    {
      "inputs": [],
      "stateMutability": "nonpayable",
      "type": "constructor"
    },
    {
      "anonymous": false,
      "inputs": [
        {
          "indexed": true,
          "internalType": "address",
          "name": "patient",
          "type": "address"
        },
        {
          "indexed": true,
          "internalType": "address",
          "name": "doctor",
          "type": "address"
        },
        {
          "indexed": false,
          "internalType": "uint256",
          "name": "timestamp",
          "type": "uint256"
        }
      ],
      "name": "AccessGranted",
      "type": "event"
    },
    {
      "anonymous": false,
      "inputs": [
        {
          "indexed": true,
          "internalType": "address",
          "name": "patient",
          "type": "address"
        },
        {
          "indexed": true,
          "internalType": "address",
          "name": "doctor",
          "type": "address"
        },
        {
          "indexed": false,
          "internalType": "uint256",
          "name": "timestamp",
          "type": "uint256"
        }
      ],
      "name": "AccessRevoked",
      "type": "event"
    },
    {
      "anonymous": false,
      "inputs": [
        {
          "indexed": true,
          "internalType": "address",
          "name": "doctor",
          "type": "address"
        },
        {
          "indexed": false,
          "internalType": "string",
          "name": "name",
          "type": "string"
        },
        {
          "indexed": false,
          "internalType": "string",
          "name": "specialization",
          "type": "string"
        }
      ],
      "name": "DoctorRegistered",
      "type": "event"
    },
    {
      "anonymous": false,
      "inputs": [
        {
          "indexed": true,
          "internalType": "address",
          "name": "doctor",
          "type": "address"
        },
        {
          "indexed": false,
          "internalType": "uint256",
          "name": "timestamp",
          "type": "uint256"
        }
      ],
      "name": "DoctorVerified",
      "type": "event"
    },
    {
      "anonymous": false,
      "inputs": [
        {
          "indexed": true,
          "internalType": "address",
          "name": "patient",
          "type": "address"
        },
        {
          "indexed": false,
          "internalType": "string",
          "name": "cid",
          "type": "string"
        },
        {
          "indexed": false,
          "internalType": "uint256",
          "name": "timestamp",
          "type": "uint256"
        },
        {
          "indexed": false,
          "internalType": "string",
          "name": "recordType",
          "type": "string"
        }
      ],
      "name": "RecordAdded",
      "type": "event"
    },
    {
      "inputs": [
        {
          "internalType": "string",
          "name": "cid",
          "type": "string"
        },
        {
          "internalType": "string",
          "name": "recordType",
          "type": "string"
        },
        {
          "internalType": "string",
          "name": "description",
          "type": "string"
        }
      ],
      "name": "addRecord",
      "outputs": [],
      "stateMutability": "nonpayable",
      "type": "function"
    },
    {
      "inputs": [],
      "name": "emergencyRevokeAllAccess",
      "outputs": [],
      "stateMutability": "nonpayable",
      "type": "function"
    },
    {
      "inputs": [
        {
          "internalType": "address",
          "name": "patient",
          "type": "address"
        }
      ],
      "name": "getAuthorizedDoctors",
      "outputs": [
        {
          "internalType": "address[]",
          "name": "",
          "type": "address[]"
        }
      ],
      "stateMutability": "view",
      "type": "function"
    },
    {
      "inputs": [
        {
          "internalType": "address",
          "name": "doctor",
          "type": "address"
        }
      ],
      "name": "getDoctorInfo",
      "outputs": [
        {
          "components": [
            {
              "internalType": "string",
              "name": "name",
              "type": "string"
            },
            {
              "internalType": "string",
              "name": "specialization",
              "type": "string"
            },
            {
              "internalType": "string",
              "name": "licenseNumber",
              "type": "string"
            },
            {
              "internalType": "bool",
              "name": "isVerified",
              "type": "bool"
            },
            {
              "internalType": "uint256",
              "name": "verificationDate",
              "type": "uint256"
            }
          ],
          "internalType": "struct WomenHealthRecords.Doctor",
          "name": "",
          "type": "tuple"
        }
      ],
      "stateMutability": "view",
      "type": "function"
    },
    {
      "inputs": [],
      "name": "getMyRecords",
      "outputs": [
        {
          "components": [
            {
              "internalType": "string",
              "name": "cid",
              "type": "string"
            },
            {
              "internalType": "uint256",
              "name": "timestamp",
              "type": "uint256"
            },
            {
              "internalType": "string",
              "name": "recordType",
              "type": "string"
            },
            {
              "internalType": "string",
              "name": "description",
              "type": "string"
            }
          ],
          "internalType": "struct WomenHealthRecords.Record[]",
          "name": "",
          "type": "tuple[]"
        }
      ],
      "stateMutability": "view",
      "type": "function"
    },
    {
      "inputs": [
        {
          "internalType": "address",
          "name": "patient",
          "type": "address"
        }
      ],
      "name": "getRecordCount",
      "outputs": [
        {
          "internalType": "uint256",
          "name": "",
          "type": "uint256"
        }
      ],
      "stateMutability": "view",
      "type": "function"
    },
    {
      "inputs": [
        {
          "internalType": "address",
          "name": "patient",
          "type": "address"
        }
      ],
      "name": "getRecords",
      "outputs": [
        {
          "components": [
            {
              "internalType": "string",
              "name": "cid",
              "type": "string"
            },
            {
              "internalType": "uint256",
              "name": "timestamp",
              "type": "uint256"
            },
            {
              "internalType": "string",
              "name": "recordType",
              "type": "string"
            },
            {
              "internalType": "string",
              "name": "description",
              "type": "string"
            }
          ],
          "internalType": "struct WomenHealthRecords.Record[]",
          "name": "",
          "type": "tuple[]"
        }
      ],
      "stateMutability": "view",
      "type": "function"
    },
    {
      "inputs": [
        {
          "internalType": "address",
          "name": "doctor",
          "type": "address"
        }
      ],
      "name": "grantDoctorAccess",
      "outputs": [],
      "stateMutability": "nonpayable",
      "type": "function"
    },
    {
      "inputs": [
        {
          "internalType": "address",
          "name": "patient",
          "type": "address"
        },
        {
          "internalType": "address",
          "name": "doctor",
          "type": "address"
        }
      ],
      "name": "hasAccess",
      "outputs": [
        {
          "internalType": "bool",
          "name": "",
          "type": "bool"
        }
      ],
      "stateMutability": "view",
      "type": "function"
    },
    {
      "inputs": [],
      "name": "owner",
      "outputs": [
        {
          "internalType": "address",
          "name": "",
          "type": "address"
        }
      ],
      "stateMutability": "view",
      "type": "function"
    },
    {
      "inputs": [
        {
          "internalType": "string",
          "name": "name",
          "type": "string"
        },
        {
          "internalType": "string",
          "name": "specialization",
          "type": "string"
        },
        {
          "internalType": "string",
          "name": "licenseNumber",
          "type": "string"
        }
      ],
      "name": "registerDoctor",
      "outputs": [],
      "stateMutability": "nonpayable",
      "type": "function"
    },
    {
      "inputs": [
        {
          "internalType": "address",
          "name": "doctor",
          "type": "address"
        }
      ],
      "name": "revokeDoctorAccess",
      "outputs": [],
      "stateMutability": "nonpayable",
      "type": "function"
    },
    {
      "inputs": [
        {
          "internalType": "address",
          "name": "newOwner",
          "type": "address"
        }
      ],
      "name": "transferOwnership",
      "outputs": [],
      "stateMutability": "nonpayable",
      "type": "function"
    },
    {
      "inputs": [
        {
          "internalType": "address",
          "name": "doctor",
          "type": "address"
        }
      ],
      "name": "verifyDoctor",
      "outputs": [],
      "stateMutability": "nonpayable",
      "type": "function"
    }
  ],
  "bytecode": "0x6080806040523461002857600480546001600160a01b03191633179055611a69908161002e8239f35b600080fdfe60806040818152600436101561001457600080fd5b600091823560e01c90816312e0808f14611426575080631709ef07146113ce5780633df95ab8146111eb5780633f723c6214610d2b5780634ff652ee14610c4157806350c7a912146106da57806358214308146106755780636f12fc351461056e5780638da5cb5b14610546578063a0076e841461044f578063cbf8a64b1461034a578063d80cb05c14610223578063e76637ce146101505763f2fde38b146100bc57600080fd5b3461014c57602036600319011261014c576100d56115d1565b600454906001600160a01b03906100ef33838516146118dc565b1691821561010957506001600160a01b0319161760045580f35b5162461bcd60e51b815260206004820181905260248201527f4e6577206f776e65722063616e6e6f74206265207a65726f20616464726573736044820152606490fd5b5080fd5b50903461022057806003193601126102205733815260208181528282209182549167ffffffffffffffff831161020c5784519391610194600585901b8301866117ae565b8385529182528082208185015b8484106101b9578651806101b588826116c0565b0390f35b60048360019289516101ca81611760565b6101d38661198d565b815284860154838201526101e96002870161198d565b8b8201526101f96003870161198d565b60608201528152019201930192906101a1565b634e487b7160e01b82526041600452602482fd5b80fd5b503461014c576020806003193601126103465761023e6115d1565b6004546001600160a01b03919061025890831633146118dc565b169182845260028252600481852001546103035782845260028252600481852001546102c857907fe2fbb45b2567c8db16d2b0f3af498fbcf981237ea102e00178d85f1fe69bd13f918385526002825280852060038101600160ff1982541617905560044291015551428152a280f35b60649250519062461bcd60e51b825260048201526015602482015274111bd8dd1bdc881b9bdd081c9959da5cdd195c9959605a1b6044820152fd5b60649250519062461bcd60e51b82526004820152601760248201527f446f63746f7220616c72656164792076657269666965640000000000000000006044820152fd5b8280fd5b503461014c57602080600319360112610346576001600160a01b03928361036f6115d1565b168033036103fa5781526003825282812091835190818185549182815201908195855282852090855b8181106103e457505050826103ae9103836117ae565b8451948186019282875251809352850193925b8281106103ce5785850386f35b83518716855293810193928101926001016103c1565b82548a1684529284019260019283019201610398565b835162461bcd60e51b815260048101849052602860248201527f4f6e6c792070617469656e742063616e207669657720617574686f72697a656460448201526720646f63746f727360c01b6064820152608490fd5b5090346102205760208060031936011261014c576001600160a01b036104736115d1565b16803314801561052a575b61048790611932565b82528181528282209182549167ffffffffffffffff831161020c57845193916104b6600585901b8301866117ae565b8385529182528082208185015b8484106104d7578651806101b588826116c0565b60048360019289516104e881611760565b6104f18661198d565b815284860154838201526105076002870161198d565b8b8201526105176003870161198d565b60608201528152019201930192906104c3565b508083526001825283832033845282528383205460ff1661047e565b503461014c578160031936011261014c5760045490516001600160a01b039091168152602090f35b503461014c57602080600319360112610346579160a092610662836105916115d1565b9381519461059e86611792565b8160806060978881528888820152888682015282898201520152600180891b031681526002845220928451946105d386611792565b6105dc8561198d565b86526105ea6001860161198d565b918487019283526106526106006002880161198d565b9383890194855261063e600460ff60038b01541699858c019a15158b5201549760808b0198895285519b8c9b828d5251918c015260c08b0190611680565b9051601f1994858b840301908b0152611680565b9251918784030190870152611680565b9151151560808401525160a08301520390f35b503461014c57602036600319011261014c5760209181906001600160a01b0361069c6115d1565b1680331480156106be575b6106b090611932565b815280845220549051908152f35b508082526001855282822033835285528282205460ff166106a7565b509034610220576106ea3661161a565b84979395919715610c06578215610bc2578015610b7e57338752600260205260048488200154610b3a5761074a8451986107238a611792565b61072e3688866117d0565b8a5261073b36868a6117d0565b9260208b0193845236916117d0565b84890152866060890152866080890152338752600260205283872090885180519067ffffffffffffffff82116109c15781906107868554611817565b601f8111610b0a575b50602090601f8311600114610aa1578b92610a96575b50508160011b916000199060031b1c19161782555b5180519067ffffffffffffffff8211610a825781906107dc6001850154611817565b601f8111610a4f575b50602090601f83116001146109e0578a926109d5575b50508160011b916000199060031b1c19161760018201555b60028101978481015198895167ffffffffffffffff81116109c1576108388254611817565b601f8111610986575b5060209a601f82116001146108f0576108df9695936108cf9593836004948e9f7fbc3a5b2aeb1bc52e3d56d3fd3423dd66cea5ecff8ae1f3bd0d75a0e608da7b859e9f95608096926108e5575b50508160011b916000199060031b1c19161790555b600384016060820151151560ff8019835416911617905501519101558451958587968752860191611868565b9083820360208501523396611868565b0390a280f35b01519050388061088e565b828b5260208b209b90601f1983168c5b81811061096e5750936001847fbc3a5b2aeb1bc52e3d56d3fd3423dd66cea5ecff8ae1f3bd0d75a0e608da7b859d9e9f6080956108df9c9b99956004986108cf9c9a10610955575b505050811b0190556108a3565b015160001960f88460031b161c19169055388080610948565b828401518f556001909e019d60209384019301610900565b6109b190838c5260208c20601f840160051c810191602085106109b7575b601f0160051c0190611851565b38610841565b90915081906109a4565b634e487b7160e01b8a52604160045260248afd5b0151905038806107fb565b9250600184018a5260208a20908a935b601f1984168510610a34576001945083601f19811610610a1b575b505050811b016001820155610813565b015160001960f88460031b161c19169055388080610a0b565b818101518355602094850194600190930192909101906109f0565b610a7c90600186018c5260208c20601f850160051c810191602086106109b757601f0160051c0190611851565b386107e5565b634e487b7160e01b89526041600452602489fd5b0151905038806107a5565b9250848b5260208b20908b935b601f1984168510610aef576001945083601f19811610610ad6575b505050811b0182556107ba565b015160001960f88460031b161c19169055388080610ac9565b81810151835560209485019460019093019290910190610aae565b610b3490868d5260208d20601f850160051c810191602086106109b757601f0160051c0190611851565b3861078f565b835162461bcd60e51b815260206004820152601960248201527f446f63746f7220616c72656164792072656769737465726564000000000000006044820152606490fd5b835162461bcd60e51b815260206004820152601e60248201527f4c6963656e7365206e756d6265722063616e6e6f7420626520656d70747900006044820152606490fd5b835162461bcd60e51b815260206004820152601e60248201527f5370656369616c697a6174696f6e2063616e6e6f7420626520656d70747900006044820152606490fd5b835162461bcd60e51b81526020600482015260146024820152734e616d652063616e6e6f7420626520656d70747960601b6044820152606490fd5b503461014c578160031936011261014c57338252600390602082815281842093805b8554811015610cf95780610c7a610cab9288611889565b60018060a01b03915490881b1c163384526001808652868520828652865260ff8786205416610cb0575b50506118b7565b610c63565b3385528552858420818552855285842060ff19815416905585514281527f6f6a404ffd2cea4713256a4fd9ce99c8cf8cf32d85c2bb8061d1603ff57d50c3863392a33880610ca4565b509183338452825282209081549083835581610d13578380f35b610d24928452832090810190611851565b8180808380f35b50903461022057610d3b3661161a565b84939594979197156111b157821561116d573387526020978789528288208351610d6481611760565b610d6f36888a6117d0565b8152610d948b820193428552610d8636898d6117d0565b9587840196875236916117d0565b93606082019485528254600160401b81101561115957600193848201808255821015611145578c528c8c209060021b01915193845167ffffffffffffffff958682116110985790808f8f96959493610dec8754611817565b97601f98898111611119575b50828985116001146110b75750926110ac575b5050600019600383901b1c191690861b1783555b5182850155518051600283019186821161109857908e83928f9594610e449054611817565b87811161106c575b50818784116001146110065750600395919083610ffb575b505060001982861b1c191690861b1790555b0193518051938411610fe7578a8c610e8e8754611817565b84808211610fb0575b505050508b918411600114610f245792806108df97959381938d9e98967fd9acf4f586f3b83d7a3c949df2606cf9887c3fcda27a007cc36299ce86c42ca59d9e94610f19575b50501b916000199060031b1c19161790555b610f058151968796606088526060880191611868565b924290860152848303908501523396611868565b015192503880610edd565b848b528b8b209293929190601f1984168c5b818110610f9b5750917fd9acf4f586f3b83d7a3c949df2606cf9887c3fcda27a007cc36299ce86c42ca59b9c9d97959391856108df9a98969410610f82575b505050811b019055610eef565b015160001960f88460031b161c19169055388080610f75565b82840151855593860193928e01928e01610f36565b82848a610fd59652209181890160051c8301938910610fde575b0160051c0190611851565b8a8c3884610e97565b92508192610fca565b634e487b7160e01b8b52604160045260248bfd5b015190503880610e64565b848752808720919689949391601f19851691905b82821061105357505096836003981061103b575b505050811b019055610e76565b015160001983881b60f8161c1916905538808061102e565b838a015185558b9690940193928301929081019061101a565b611092908588528388208980870160051c820192868810610fde570160051c0190611851565b38610e4c565b634e487b7160e01b8e52604160045260248efd5b015190503880610e0b565b8882528082208b9650939291601f198616915b82821061110057505084116110e7575b505050811b018355610e1f565b015160001960f88460031b161c191690553880806110da565b8484015186558c979095019493840193908101906110ca565b61113f908983528483208b80880160051c820192878910610fde570160051c0190611851565b38610df8565b634e487b7160e01b8d52603260045260248dfd5b634e487b7160e01b8c52604160045260248cfd5b815162461bcd60e51b815260206004820152601b60248201527f5265636f726420747970652063616e6e6f7420626520656d70747900000000006044820152606490fd5b815162461bcd60e51b81526020600482015260136024820152724349442063616e6e6f7420626520656d70747960681b6044820152606490fd5b503461014c57602080600319360112610346576112066115d1565b33845260018083528385206001600160a01b0392831680875290845284862054909492919060ff161561139557338087528185528387208688528552838720805460ff191690558652600380855283872087835b61128f575b8888887f6f6a404ffd2cea4713256a4fd9ce99c8cf8cf32d85c2bb8061d1603ff57d50c38951914283523392a380f35b81548082101561138f5788866112a58486611889565b905490871b1c16146112c157506112bb906118b7565b8361125a565b9897969594919293506000199889810190811161137b57906112f8836112ea6113179487611889565b905490881b1c169185611889565b90919082549060031b9160018060a01b03809116831b921b1916179055565b8154978815611367577f6f6a404ffd2cea4713256a4fd9ce99c8cf8cf32d85c2bb8061d1603ff57d50c39596979801926113518484611889565b81939154921b1b1916905555903880808061125f565b634e487b7160e01b88526031600452602488fd5b634e487b7160e01b89526011600452602489fd5b5061125f565b825162461bcd60e51b81526004810185905260126024820152711058d8d95cdcc81b9bdd0819dc985b9d195960721b6044820152606490fd5b503461014c578060031936011261014c576113e76115d1565b6001600160a01b036024358181169290839003611422579360ff92849260209616825260018652828220908252855220541690519015158152f35b8480fd5b9190503461034657602090816003193601126115cd576114446115d1565b6001600160a01b03811693841561159257508385526002835260ff60038387200154161561154e5733855260018352818520848652835260ff828620541661151157338552600183528185208486528352818520600160ff1982541617905533855260038352818520805490600160401b8210156114fd57916112f8827f65d0cc1e52d49938ca4ad9f423c79c1b84d914b9a683fbc5d3f93ac3cc5635f5959460016114f295018155611889565b51914283523392a380f35b634e487b7160e01b87526041600452602487fd5b815162461bcd60e51b81526004810184905260166024820152751058d8d95cdcc8185b1c9958591e4819dc985b9d195960521b6044820152606490fd5b815162461bcd60e51b815260048101849052601760248201527f446f63746f72206d7573742062652076657269666965640000000000000000006044820152606490fd5b62461bcd60e51b8152600481018490526016602482015275496e76616c696420646f63746f72206164647265737360501b6044820152606490fd5b8380fd5b600435906001600160a01b03821682036115e757565b600080fd5b9181601f840112156115e75782359167ffffffffffffffff83116115e757602083818601950101116115e757565b9060606003198301126115e75767ffffffffffffffff6004358181116115e75783611647916004016115ec565b939093926024358381116115e75782611662916004016115ec565b939093926044359182116115e75761167c916004016115ec565b9091565b919082519283825260005b8481106116ac575050826000602080949584010152601f8019910116010190565b60208183018101518483018201520161168b565b602080820190808352835180925260409283810182858560051b8401019601946000925b8584106116f5575050505050505090565b90919293949596858061174f600193603f198682030188528b5161173c61172482516080808652850190611680565b8583015186850152898301518482038b860152611680565b9160608092015191818403910152611680565b9901940194019295949391906116e4565b6080810190811067ffffffffffffffff82111761177c57604052565b634e487b7160e01b600052604160045260246000fd5b60a0810190811067ffffffffffffffff82111761177c57604052565b90601f8019910116810190811067ffffffffffffffff82111761177c57604052565b92919267ffffffffffffffff821161177c57604051916117fa601f8201601f1916602001846117ae565b8294818452818301116115e7578281602093846000960137010152565b90600182811c92168015611847575b602083101461183157565b634e487b7160e01b600052602260045260246000fd5b91607f1691611826565b81811061185c575050565b60008155600101611851565b908060209392818452848401376000828201840152601f01601f1916010190565b80548210156118a15760005260206000200190600090565b634e487b7160e01b600052603260045260246000fd5b60001981146118c65760010190565b634e487b7160e01b600052601160045260246000fd5b156118e357565b60405162461bcd60e51b815260206004820152602160248201527f4f6e6c79206f776e65722063616e2063616c6c20746869732066756e6374696f6044820152603760f91b6064820152608490fd5b1561193957565b60405162461bcd60e51b815260206004820152602660248201527f4e6f7420617574686f72697a656420746f20616363657373207468657365207260448201526565636f72647360d01b6064820152608490fd5b90604051918260008254926119a184611817565b908184526001948581169081600014611a1057506001146119cd575b50506119cb925003836117ae565b565b9093915060005260209081600020936000915b8183106119f85750506119cb935082010138806119bd565b855488840185015294850194879450918301916119e0565b9150506119cb94506020925060ff191682840152151560051b82010138806119bd56fea26469706673582212207bbcf41eff9f4611e5f7188688c8aedb9aa8d26149059fb32692f093fa3193fb64736f6c63430008140033",
  "linkReferences": {},
  "deployedLinkReferences": {}
}