{
  "_format": "hh-sol-artifact-1",
  "contractName": "MedicalRecords",
  "sourceName": "contracts/MedicalRecords.sol",
  "abi": [
    {
      "inputs": [],
      "stateMutability": "nonpayable",
      "type": "constructor"
    },
    {
      "inputs": [
        {
          "internalType": "address",
          "name": "owner",
          "type": "address"
        }
      ],
      "name": "OwnableInvalidOwner",
      "type": "error"
    },
    {
      "inputs": [
        {
          "internalType": "address",
          "name": "account",
          "type": "address"
        }
      ],
      "name": "OwnableUnauthorizedAccount",
      "type": "error"
    },
    {
      "inputs": [],
      "name": "ReentrancyGuardReentrantCall",
      "type": "error"
    },
    {
      "anonymous": false,
      "inputs": [
        {
          "indexed": true,
          "internalType": "address",
          "name": "doctorAddress",
          "type": "address"
        },
        {
          "indexed": false,
          "internalType": "string",
          "name": "name",
          "type": "string"
        }
      ],
      "name": "DoctorRegistered",
      "type": "event"
    },
    {
      "anonymous": false,
      "inputs": [
        {
          "indexed": true,
          "internalType": "address",
          "name": "patient",
          "type": "address"
        },
        {
          "indexed": true,
          "internalType": "address",
          "name": "responder",
          "type": "address"
        },
        {
          "indexed": false,
          "internalType": "uint256",
          "name": "expiryTime",
          "type": "uint256"
        }
      ],
      "name": "EmergencyAccessGranted",
      "type": "event"
    },
    {
      "anonymous": false,
      "inputs": [
        {
          "indexed": true,
          "internalType": "address",
          "name": "patient",
          "type": "address"
        },
        {
          "indexed": true,
          "internalType": "address",
          "name": "responder",
          "type": "address"
        }
      ],
      "name": "EmergencyAccessRevoked",
      "type": "event"
    },
    {
      "anonymous": false,
      "inputs": [
        {
          "indexed": true,
          "internalType": "address",
          "name": "previousOwner",
          "type": "address"
        },
        {
          "indexed": true,
          "internalType": "address",
          "name": "newOwner",
          "type": "address"
        }
      ],
      "name": "OwnershipTransferred",
      "type": "event"
    },
    {
      "anonymous": false,
      "inputs": [
        {
          "indexed": true,
          "internalType": "uint256",
          "name": "recordId",
          "type": "uint256"
        },
        {
          "indexed": true,
          "internalType": "address",
          "name": "patient",
          "type": "address"
        },
        {
          "indexed": true,
          "internalType": "address",
          "name": "doctor",
          "type": "address"
        }
      ],
      "name": "RecordCreated",
      "type": "event"
    },
    {
      "anonymous": false,
      "inputs": [
        {
          "indexed": true,
          "internalType": "uint256",
          "name": "recordId",
          "type": "uint256"
        },
        {
          "indexed": true,
          "internalType": "address",
          "name": "patient",
          "type": "address"
        }
      ],
      "name": "RecordUpdated",
      "type": "event"
    },
    {
      "inputs": [
        {
          "internalType": "address",
          "name": "",
          "type": "address"
        }
      ],
      "name": "authorizedDoctors",
      "outputs": [
        {
          "internalType": "bool",
          "name": "",
          "type": "bool"
        }
      ],
      "stateMutability": "view",
      "type": "function"
    },
    {
      "inputs": [
        {
          "internalType": "address",
          "name": "_patient",
          "type": "address"
        },
        {
          "internalType": "string",
          "name": "_hospitalName",
          "type": "string"
        },
        {
          "internalType": "string",
          "name": "_diagnosis",
          "type": "string"
        },
        {
          "internalType": "string",
          "name": "_treatment",
          "type": "string"
        },
        {
          "internalType": "string",
          "name": "_medication",
          "type": "string"
        },
        {
          "internalType": "string",
          "name": "_ipfsHash",
          "type": "string"
        },
        {
          "internalType": "bool",
          "name": "_isEmergency",
          "type": "bool"
        }
      ],
      "name": "createMedicalRecord",
      "outputs": [],
      "stateMutability": "nonpayable",
      "type": "function"
    },
    {
      "inputs": [
        {
          "internalType": "address",
          "name": "",
          "type": "address"
        }
      ],
      "name": "doctors",
      "outputs": [
        {
          "internalType": "uint256",
          "name": "id",
          "type": "uint256"
        },
        {
          "internalType": "address",
          "name": "doctorAddress",
          "type": "address"
        },
        {
          "internalType": "string",
          "name": "name",
          "type": "string"
        },
        {
          "internalType": "string",
          "name": "specialization",
          "type": "string"
        },
        {
          "internalType": "string",
          "name": "licenseNumber",
          "type": "string"
        },
        {
          "internalType": "bool",
          "name": "isVerified",
          "type": "bool"
        },
        {
          "internalType": "uint256",
          "name": "timestamp",
          "type": "uint256"
        }
      ],
      "stateMutability": "view",
      "type": "function"
    },
    {
      "inputs": [
        {
          "internalType": "address",
          "name": "",
          "type": "address"
        },
        {
          "internalType": "uint256",
          "name": "",
          "type": "uint256"
        }
      ],
      "name": "emergencyAccess",
      "outputs": [
        {
          "internalType": "address",
          "name": "emergencyResponder",
          "type": "address"
        },
        {
          "internalType": "uint256",
          "name": "expiryTime",
          "type": "uint256"
        },
        {
          "internalType": "bool",
          "name": "isActive",
          "type": "bool"
        }
      ],
      "stateMutability": "view",
      "type": "function"
    },
    {
      "inputs": [],
      "name": "emergencyPause",
      "outputs": [],
      "stateMutability": "nonpayable",
      "type": "function"
    },
    {
      "inputs": [
        {
          "internalType": "address",
          "name": "_doctorAddress",
          "type": "address"
        }
      ],
      "name": "getDoctor",
      "outputs": [
        {
          "components": [
            {
              "internalType": "uint256",
              "name": "id",
              "type": "uint256"
            },
            {
              "internalType": "address",
              "name": "doctorAddress",
              "type": "address"
            },
            {
              "internalType": "string",
              "name": "name",
              "type": "string"
            },
            {
              "internalType": "string",
              "name": "specialization",
              "type": "string"
            },
            {
              "internalType": "string",
              "name": "licenseNumber",
              "type": "string"
            },
            {
              "internalType": "bool",
              "name": "isVerified",
              "type": "bool"
            },
            {
              "internalType": "uint256",
              "name": "timestamp",
              "type": "uint256"
            }
          ],
          "internalType": "struct MedicalRecords.Doctor",
          "name": "",
          "type": "tuple"
        }
      ],
      "stateMutability": "view",
      "type": "function"
    },
    {
      "inputs": [
        {
          "internalType": "uint256",
          "name": "_recordId",
          "type": "uint256"
        }
      ],
      "name": "getMedicalRecord",
      "outputs": [
        {
          "components": [
            {
              "internalType": "uint256",
              "name": "id",
              "type": "uint256"
            },
            {
              "internalType": "address",
              "name": "patient",
              "type": "address"
            },
            {
              "internalType": "string",
              "name": "hospitalName",
              "type": "string"
            },
            {
              "internalType": "string",
              "name": "doctorName",
              "type": "string"
            },
            {
              "internalType": "string",
              "name": "diagnosis",
              "type": "string"
            },
            {
              "internalType": "string",
              "name": "treatment",
              "type": "string"
            },
            {
              "internalType": "string",
              "name": "medication",
              "type": "string"
            },
            {
              "internalType": "uint256",
              "name": "timestamp",
              "type": "uint256"
            },
            {
              "internalType": "string",
              "name": "ipfsHash",
              "type": "string"
            },
            {
              "internalType": "bool",
              "name": "isVerified",
              "type": "bool"
            },
            {
              "internalType": "address",
              "name": "doctorAddress",
              "type": "address"
            },
            {
              "internalType": "bool",
              "name": "isEmergency",
              "type": "bool"
            }
          ],
          "internalType": "struct MedicalRecords.MedicalRecord",
          "name": "",
          "type": "tuple"
        }
      ],
      "stateMutability": "view",
      "type": "function"
    },
    {
      "inputs": [
        {
          "internalType": "address",
          "name": "_patient",
          "type": "address"
        }
      ],
      "name": "getPatientRecords",
      "outputs": [
        {
          "internalType": "uint256[]",
          "name": "",
          "type": "uint256[]"
        }
      ],
      "stateMutability": "view",
      "type": "function"
    },
    {
      "inputs": [],
      "name": "getTotalDoctors",
      "outputs": [
        {
          "internalType": "uint256",
          "name": "",
          "type": "uint256"
        }
      ],
      "stateMutability": "view",
      "type": "function"
    },
    {
      "inputs": [],
      "name": "getTotalRecords",
      "outputs": [
        {
          "internalType": "uint256",
          "name": "",
          "type": "uint256"
        }
      ],
      "stateMutability": "view",
      "type": "function"
    },
    {
      "inputs": [
        {
          "internalType": "address",
          "name": "_responder",
          "type": "address"
        },
        {
          "internalType": "uint256",
          "name": "_duration",
          "type": "uint256"
        }
      ],
      "name": "grantEmergencyAccess",
      "outputs": [],
      "stateMutability": "nonpayable",
      "type": "function"
    },
    {
      "inputs": [
        {
          "internalType": "address",
          "name": "_patient",
          "type": "address"
        },
        {
          "internalType": "address",
          "name": "_responder",
          "type": "address"
        }
      ],
      "name": "hasEmergencyAccess",
      "outputs": [
        {
          "internalType": "bool",
          "name": "",
          "type": "bool"
        }
      ],
      "stateMutability": "view",
      "type": "function"
    },
    {
      "inputs": [],
      "name": "owner",
      "outputs": [
        {
          "internalType": "address",
          "name": "",
          "type": "address"
        }
      ],
      "stateMutability": "view",
      "type": "function"
    },
    {
      "inputs": [
        {
          "internalType": "address",
          "name": "",
          "type": "address"
        },
        {
          "internalType": "address",
          "name": "",
          "type": "address"
        }
      ],
      "name": "patientDoctorAccess",
      "outputs": [
        {
          "internalType": "bool",
          "name": "",
          "type": "bool"
        }
      ],
      "stateMutability": "view",
      "type": "function"
    },
    {
      "inputs": [
        {
          "internalType": "address",
          "name": "",
          "type": "address"
        },
        {
          "internalType": "uint256",
          "name": "",
          "type": "uint256"
        }
      ],
      "name": "patientRecords",
      "outputs": [
        {
          "internalType": "uint256",
          "name": "",
          "type": "uint256"
        }
      ],
      "stateMutability": "view",
      "type": "function"
    },
    {
      "inputs": [
        {
          "internalType": "uint256",
          "name": "",
          "type": "uint256"
        }
      ],
      "name": "records",
      "outputs": [
        {
          "internalType": "uint256",
          "name": "id",
          "type": "uint256"
        },
        {
          "internalType": "address",
          "name": "patient",
          "type": "address"
        },
        {
          "internalType": "string",
          "name": "hospitalName",
          "type": "string"
        },
        {
          "internalType": "string",
          "name": "doctorName",
          "type": "string"
        },
        {
          "internalType": "string",
          "name": "diagnosis",
          "type": "string"
        },
        {
          "internalType": "string",
          "name": "treatment",
          "type": "string"
        },
        {
          "internalType": "string",
          "name": "medication",
          "type": "string"
        },
        {
          "internalType": "uint256",
          "name": "timestamp",
          "type": "uint256"
        },
        {
          "internalType": "string",
          "name": "ipfsHash",
          "type": "string"
        },
        {
          "internalType": "bool",
          "name": "isVerified",
          "type": "bool"
        },
        {
          "internalType": "address",
          "name": "doctorAddress",
          "type": "address"
        },
        {
          "internalType": "bool",
          "name": "isEmergency",
          "type": "bool"
        }
      ],
      "stateMutability": "view",
      "type": "function"
    },
    {
      "inputs": [
        {
          "internalType": "string",
          "name": "_name",
          "type": "string"
        },
        {
          "internalType": "string",
          "name": "_specialization",
          "type": "string"
        },
        {
          "internalType": "string",
          "name": "_licenseNumber",
          "type": "string"
        }
      ],
      "name": "registerDoctor",
      "outputs": [],
      "stateMutability": "nonpayable",
      "type": "function"
    },
    {
      "inputs": [],
      "name": "renounceOwnership",
      "outputs": [],
      "stateMutability": "nonpayable",
      "type": "function"
    },
    {
      "inputs": [
        {
          "internalType": "uint256",
          "name": "_responderIndex",
          "type": "uint256"
        }
      ],
      "name": "revokeEmergencyAccess",
      "outputs": [],
      "stateMutability": "nonpayable",
      "type": "function"
    },
    {
      "inputs": [
        {
          "internalType": "address",
          "name": "newOwner",
          "type": "address"
        }
      ],
      "name": "transferOwnership",
      "outputs": [],
      "stateMutability": "nonpayable",
      "type": "function"
    },
    {
      "inputs": [
        {
          "internalType": "uint256",
          "name": "_recordId",
          "type": "uint256"
        },
        {
          "internalType": "string",
          "name": "_diagnosis",
          "type": "string"
        },
        {
          "internalType": "string",
          "name": "_treatment",
          "type": "string"
        },
        {
          "internalType": "string",
          "name": "_medication",
          "type": "string"
        },
        {
          "internalType": "string",
          "name": "_ipfsHash",
          "type": "string"
        }
      ],
      "name": "updateMedicalRecord",
      "outputs": [],
      "stateMutability": "nonpayable",
      "type": "function"
    },
    {
      "inputs": [
        {
          "internalType": "address",
          "name": "_doctorAddress",
          "type": "address"
        }
      ],
      "name": "verifyDoctor",
      "outputs": [],
      "stateMutability": "nonpayable",
      "type": "function"
    }
  ],
  "bytecode": "0x60806040526000600255600060035534801561001a57600080fd5b50338061004157604051631e4fbdf760e01b81526000600482015260240160405180910390fd5b61004a81610054565b50600180556100a4565b600080546001600160a01b038381166001600160a01b0319831681178455604051919092169283917f8be0079c531659141344cd1fd0a4f28419497f9722a3daafe3b4186f6b6457e09190a35050565b612a5e80620000b46000396000f3fe608060405234801561001057600080fd5b50600436106101425760003560e01c8063761ab9fc116100b8578063a9583c221161007c578063a9583c2214610305578063d2eea42f1461032b578063d80cb05c1461033e578063e24ed43314610351578063f2fde38b14610364578063f35e7e4a1461037757600080fd5b8063761ab9fc1461025c5780638bdb00a11461028a5780638da5cb5b146102c457806390218ee8146102df57806394f0df61146102f257600080fd5b80632f04e0641161010a5780632f04e064146101e6578063344610671461020657806350c7a9121461023157806351858e27146102445780636bfae1e51461024c578063715018a61461025457600080fd5b80630aeacb5e146101475780630c3887221461015e57806318bd48471461017e5780631d6d893e1461019e5780632d3975f0146101b3575b600080fd5b6002545b6040519081526020015b60405180910390f35b61017161016c36600461207c565b61038a565b60405161015591906120db565b61019161018c366004612226565b610827565b6040516101559190612248565b6101b16101ac36600461228c565b610893565b005b6101d66101c1366004612226565b60076020526000908152604090205460ff1681565b6040519015158152602001610155565b6101f96101f4366004612226565b610a44565b60405161015591906122b6565b61021961021436600461207c565b610ca1565b6040516101559c9b9a9998979695949392919061234e565b6101b161023f3660046124c1565b611046565b6101b1611313565b60035461014b565b6101b161131d565b6101d661026a366004612549565b600960209081526000928352604080842090915290825290205460ff1681565b61029d61029836600461228c565b61132f565b604080516001600160a01b0390941684526020840192909252151590820152606001610155565b6000546040516001600160a01b039091168152602001610155565b6101d66102ed366004612549565b61137e565b61014b61030036600461228c565b6114cc565b610318610313366004612226565b6114fd565b604051610155979695949392919061257c565b6101b16103393660046125e3565b6116de565b6101b161034c366004612226565b6118e1565b6101b161035f36600461207c565b611a0e565b6101b1610372366004612226565b611b2a565b6101b16103853660046126aa565b611b68565b6104046040518061018001604052806000815260200160006001600160a01b031681526020016060815260200160608152602001606081526020016060815260200160608152602001600081526020016060815260200160001515815260200160006001600160a01b031681526020016000151581525090565b600082815260046020526040812054900361043a5760405162461bcd60e51b81526004016104319061279d565b60405180910390fd5b6000828152600460209081526040918290208251610180810184528154815260018201546001600160a01b0316928101929092526002810180549293919291840191610485906127e2565b80601f01602080910402602001604051908101604052809291908181526020018280546104b1906127e2565b80156104fe5780601f106104d3576101008083540402835291602001916104fe565b820191906000526020600020905b8154815290600101906020018083116104e157829003601f168201915b50505050508152602001600382018054610517906127e2565b80601f0160208091040260200160405190810160405280929190818152602001828054610543906127e2565b80156105905780601f1061056557610100808354040283529160200191610590565b820191906000526020600020905b81548152906001019060200180831161057357829003601f168201915b505050505081526020016004820180546105a9906127e2565b80601f01602080910402602001604051908101604052809291908181526020018280546105d5906127e2565b80156106225780601f106105f757610100808354040283529160200191610622565b820191906000526020600020905b81548152906001019060200180831161060557829003601f168201915b5050505050815260200160058201805461063b906127e2565b80601f0160208091040260200160405190810160405280929190818152602001828054610667906127e2565b80156106b45780601f10610689576101008083540402835291602001916106b4565b820191906000526020600020905b81548152906001019060200180831161069757829003601f168201915b505050505081526020016006820180546106cd906127e2565b80601f01602080910402602001604051908101604052809291908181526020018280546106f9906127e2565b80156107465780601f1061071b57610100808354040283529160200191610746565b820191906000526020600020905b81548152906001019060200180831161072957829003601f168201915b5050505050815260200160078201548152602001600882018054610769906127e2565b80601f0160208091040260200160405190810160405280929190818152602001828054610795906127e2565b80156107e25780601f106107b7576101008083540402835291602001916107e2565b820191906000526020600020905b8154815290600101906020018083116107c557829003601f168201915b50505091835250506009919091015460ff808216151560208401526001600160a01b036101008304166040840152600160a81b90910416151560609091015292915050565b6001600160a01b03811660009081526005602090815260409182902080548351818402810184019094528084526060939283018282801561088757602002820191906000526020600020905b815481526020019060010190808311610873575b50505050509050919050565b336001600160a01b0383166108fc5760405162461bcd60e51b815260206004820152602960248201527f4d65646963616c5265636f7264733a20496e76616c696420726573706f6e646560448201526872206164647265737360b81b6064820152608401610431565b600082116109645760405162461bcd60e51b815260206004820152602f60248201527f4d65646963616c5265636f7264733a204475726174696f6e206d75737420626560448201526e02067726561746572207468616e203608c1b6064820152608401610431565b60006040518060600160405280856001600160a01b03168152602001844261098c9190612832565b8152600160209182018190523360008181526008845260408082208054808601825590835291859020865160039093020180546001600160a01b0319166001600160a01b039384161781559486015193850193909355918401516002909301805460ff191693151593909317909255919250908516907f5d1675d647fd82d7866123d4b61e400e9b9cd41946ae22001974c31e8addb20b610a2d8642612832565b60405190815260200160405180910390a350505050565b610a8f6040518060e001604052806000815260200160006001600160a01b03168152602001606081526020016060815260200160608152602001600015158152602001600081525090565b6001600160a01b03808316600090815260066020908152604091829020825160e081018452815481526001820154909416918401919091526002810180549192840191610adb906127e2565b80601f0160208091040260200160405190810160405280929190818152602001828054610b07906127e2565b8015610b545780601f10610b2957610100808354040283529160200191610b54565b820191906000526020600020905b815481529060010190602001808311610b3757829003601f168201915b50505050508152602001600382018054610b6d906127e2565b80601f0160208091040260200160405190810160405280929190818152602001828054610b99906127e2565b8015610be65780601f10610bbb57610100808354040283529160200191610be6565b820191906000526020600020905b815481529060010190602001808311610bc957829003601f168201915b50505050508152602001600482018054610bff906127e2565b80601f0160208091040260200160405190810160405280929190818152602001828054610c2b906127e2565b8015610c785780601f10610c4d57610100808354040283529160200191610c78565b820191906000526020600020905b815481529060010190602001808311610c5b57829003601f168201915b5050509183525050600582015460ff161515602082015260069091015460409091015292915050565b60046020526000908152604090208054600182015460028301805492936001600160a01b0390921692610cd3906127e2565b80601f0160208091040260200160405190810160405280929190818152602001828054610cff906127e2565b8015610d4c5780601f10610d2157610100808354040283529160200191610d4c565b820191906000526020600020905b815481529060010190602001808311610d2f57829003601f168201915b505050505090806003018054610d61906127e2565b80601f0160208091040260200160405190810160405280929190818152602001828054610d8d906127e2565b8015610dda5780601f10610daf57610100808354040283529160200191610dda565b820191906000526020600020905b815481529060010190602001808311610dbd57829003601f168201915b505050505090806004018054610def906127e2565b80601f0160208091040260200160405190810160405280929190818152602001828054610e1b906127e2565b8015610e685780601f10610e3d57610100808354040283529160200191610e68565b820191906000526020600020905b815481529060010190602001808311610e4b57829003601f168201915b505050505090806005018054610e7d906127e2565b80601f0160208091040260200160405190810160405280929190818152602001828054610ea9906127e2565b8015610ef65780601f10610ecb57610100808354040283529160200191610ef6565b820191906000526020600020905b815481529060010190602001808311610ed957829003601f168201915b505050505090806006018054610f0b906127e2565b80601f0160208091040260200160405190810160405280929190818152602001828054610f37906127e2565b8015610f845780601f10610f5957610100808354040283529160200191610f84565b820191906000526020600020905b815481529060010190602001808311610f6757829003601f168201915b505050505090806007015490806008018054610f9f906127e2565b80601f0160208091040260200160405190810160405280929190818152602001828054610fcb906127e2565b80156110185780601f10610fed57610100808354040283529160200191611018565b820191906000526020600020905b815481529060010190602001808311610ffb57829003601f168201915b5050506009909301549192505060ff808216916001600160a01b0361010082041691600160a81b909104168c565b60008351116110a35760405162461bcd60e51b8152602060048201526024808201527f4d65646963616c5265636f7264733a204e616d652063616e6e6f7420626520656044820152636d70747960e01b6064820152608401610431565b600082511161110b5760405162461bcd60e51b815260206004820152602e60248201527f4d65646963616c5265636f7264733a205370656369616c697a6174696f6e206360448201526d616e6e6f7420626520656d70747960901b6064820152608401610431565b60008151116111735760405162461bcd60e51b815260206004820152602e60248201527f4d65646963616c5265636f7264733a204c6963656e7365206e756d626572206360448201526d616e6e6f7420626520656d70747960901b6064820152608401610431565b336000908152600660205260409020600101546001600160a01b0316156111ee5760405162461bcd60e51b815260206004820152602960248201527f4d65646963616c5265636f7264733a20446f63746f7220616c726561647920726044820152681959da5cdd195c995960ba1b6064820152608401610431565b60006003600081546111ff90612845565b91829055506040805160e0810182528281523360208083018281528385018a8152606085018a905260808501899052600060a086018190524260c08701529384526006909252939091208251815592516001840180546001600160a01b0319166001600160a01b039092169190911790555192935091600282019061128490826128ad565b506060820151600382019061129990826128ad565b50608082015160048201906112ae90826128ad565b5060a082015160058201805460ff191691151591909117905560c09091015160069091015560405133907f20481b8112b5bf4734f45a473c373db9df6a79ce946cdc0e7dbc22b4f7d7f9869061130590879061296d565b60405180910390a250505050565b61131b611fd5565b565b611325611fd5565b61131b6000612002565b6008602052816000526040600020818154811061134b57600080fd5b60009182526020909120600390910201805460018201546002909201546001600160a01b03909116935090915060ff1683565b6001600160a01b038216600090815260086020908152604080832080548251818502810185019093528083528493849084015b8282101561140b576000848152602090819020604080516060810182526003860290920180546001600160a01b031683526001808201548486015260029091015460ff1615159183019190915290835290920191016113b1565b50505050905060005b81518110156114bf57836001600160a01b031682828151811061143957611439612980565b6020026020010151600001516001600160a01b0316148015611475575081818151811061146857611468612980565b6020026020010151604001515b801561149d57504282828151811061148f5761148f612980565b602002602001015160200151115b156114ad576001925050506114c6565b806114b781612845565b915050611414565b5060009150505b92915050565b600560205281600052604060002081815481106114e857600080fd5b90600052602060002001600091509150505481565b60066020526000908152604090208054600182015460028301805492936001600160a01b039092169261152f906127e2565b80601f016020809104026020016040519081016040528092919081815260200182805461155b906127e2565b80156115a85780601f1061157d576101008083540402835291602001916115a8565b820191906000526020600020905b81548152906001019060200180831161158b57829003601f168201915b5050505050908060030180546115bd906127e2565b80601f01602080910402602001604051908101604052809291908181526020018280546115e9906127e2565b80156116365780601f1061160b57610100808354040283529160200191611636565b820191906000526020600020905b81548152906001019060200180831161161957829003601f168201915b50505050509080600401805461164b906127e2565b80601f0160208091040260200160405190810160405280929190818152602001828054611677906127e2565b80156116c45780601f10611699576101008083540402835291602001916116c4565b820191906000526020600020905b8154815290600101906020018083116116a757829003601f168201915b505050506005830154600690930154919260ff1691905087565b60008581526004602052604090206001015485906001600160a01b0316331480611726575060008181526004602052604090206009015461010090046001600160a01b031633145b8061176057506000818152600460209081526040808320600101546001600160a01b031683526009825280832033845290915290205460ff165b6117ac5760405162461bcd60e51b815260206004820152601d60248201527f4d65646963616c5265636f7264733a204163636573732064656e6965640000006044820152606401610431565b60008681526004602052604081205490036117d95760405162461bcd60e51b81526004016104319061279d565b60008551116117fa5760405162461bcd60e51b815260040161043190612996565b600082511161181b5760405162461bcd60e51b8152600401610431906129df565b60008681526004602081905260409091200161183786826128ad565b50600086815260046020526040902060050161185385826128ad565b50600086815260046020526040902060060161186f84826128ad565b50600086815260046020526040902060080161188b83826128ad565b506000868152600460205260408082204260078201556001015490516001600160a01b039091169188917f12405371fe3db9ad1158025a881b7f5ae5bbbcd68e02ad62543a322a807143eb9190a3505050505050565b6118e9611fd5565b6001600160a01b03818116600090815260066020526040902060010154166119535760405162461bcd60e51b815260206004820181905260248201527f4d65646963616c5265636f7264733a20446f63746f72206e6f7420666f756e646044820152606401610431565b6001600160a01b03811660009081526006602052604090206005015460ff16156119cf5760405162461bcd60e51b815260206004820152602760248201527f4d65646963616c5265636f7264733a20446f63746f7220616c72656164792076604482015266195c9a599a595960ca1b6064820152608401610431565b6001600160a01b031660009081526006602090815260408083206005018054600160ff1991821681179092556007909352922080549091169091179055565b336000818152600860205260409020548210611a7c5760405162461bcd60e51b815260206004820152602760248201527f4d65646963616c5265636f7264733a20496e76616c696420726573706f6e64656044820152660e440d2dcc8caf60cb1b6064820152608401610431565b336000908152600860205260408120805484908110611a9d57611a9d612980565b60009182526020808320600392909202909101600201805460ff191693151593909317909255338152600890915260409020805483908110611ae157611ae1612980565b600091825260208220600390910201546040516001600160a01b039091169133917f381ceeb666db3e3c307a575ad34d05f5b497665803dd1983e06e72dd7b4120e49190a35050565b611b32611fd5565b6001600160a01b038116611b5c57604051631e4fbdf760e01b815260006004820152602401610431565b611b6581612002565b50565b3360009081526007602052604090205460ff16611bed5760405162461bcd60e51b815260206004820152603f60248201527f4d65646963616c5265636f7264733a204f6e6c7920617574686f72697a65642060448201527f646f63746f72732063616e20706572666f726d207468697320616374696f6e006064820152608401610431565b611bf5612052565b6001600160a01b038716611c5b5760405162461bcd60e51b815260206004820152602760248201527f4d65646963616c5265636f7264733a20496e76616c69642070617469656e74206044820152666164647265737360c81b6064820152608401610431565b6000865111611cc25760405162461bcd60e51b815260206004820152602d60248201527f4d65646963616c5265636f7264733a20486f73706974616c206e616d6520636160448201526c6e6e6f7420626520656d70747960981b6064820152608401610431565b6000855111611ce35760405162461bcd60e51b815260040161043190612996565b6000825111611d045760405162461bcd60e51b8152600401610431906129df565b6000600260008154611d1590612845565b9190508190559050604051806101800160405280828152602001896001600160a01b0316815260200188815260200160066000336001600160a01b03166001600160a01b031681526020019081526020016000206002018054611d77906127e2565b80601f0160208091040260200160405190810160405280929190818152602001828054611da3906127e2565b8015611df05780601f10611dc557610100808354040283529160200191611df0565b820191906000526020600020905b815481529060010190602001808311611dd357829003601f168201915b5050509183525050602080820189905260408083018990526060830188905242608084015260a08301879052600160c084018190523360e085015286151561010090940193909352600085815260048352819020845181559184015192820180546001600160a01b0319166001600160a01b0390941693909317909255908201516002820190611e8090826128ad565b5060608201516003820190611e9590826128ad565b5060808201516004820190611eaa90826128ad565b5060a08201516005820190611ebf90826128ad565b5060c08201516006820190611ed490826128ad565b5060e082015160078201556101008201516008820190611ef490826128ad565b5061012082015160099182018054610140850151610160909501516001600160a81b0319909116921515610100600160a81b031916929092176101006001600160a01b03958616021760ff60a81b1916600160a81b92151592909202919091179055908916600081815260056020908152604080832080546001818101835591855283852001879055848452948252808320338085529252808320805460ff1916909517909455925184917f162981e8660ef88d8be76f4d61429c8901ed3da7efbc4d5b833aab72ba8f41ae91a450611fcc60018055565b50505050505050565b6000546001600160a01b0316331461131b5760405163118cdaa760e01b8152336004820152602401610431565b600080546001600160a01b038381166001600160a01b0319831681178455604051919092169283917f8be0079c531659141344cd1fd0a4f28419497f9722a3daafe3b4186f6b6457e09190a35050565b60026001540361207557604051633ee5aeb560e01b815260040160405180910390fd5b6002600155565b60006020828403121561208e57600080fd5b5035919050565b6000815180845260005b818110156120bb5760208185018101518683018201520161209f565b506000602082860101526020601f19601f83011685010191505092915050565b60208152815160208201526000602083015161210260408401826001600160a01b03169052565b50604083015161018080606085015261211f6101a0850183612095565b91506060850151601f198086850301608087015261213d8483612095565b935060808701519150808685030160a087015261215a8483612095565b935060a08701519150808685030160c08701526121778483612095565b935060c08701519150808685030160e08701526121948483612095565b935060e087015191506101008281880152808801519250506101208187860301818801526121c28584612095565b945080880151925050506101406121dc8187018315159052565b86015190506101606121f8868201836001600160a01b03169052565b90950151151593019290925250919050565b80356001600160a01b038116811461222157600080fd5b919050565b60006020828403121561223857600080fd5b6122418261220a565b9392505050565b6020808252825182820181905260009190848201906040850190845b8181101561228057835183529284019291840191600101612264565b50909695505050505050565b6000806040838503121561229f57600080fd5b6122a88361220a565b946020939093013593505050565b602081528151602082015260018060a01b0360208301511660408201526000604083015160e060608401526122ef610100840182612095565b90506060840151601f198085840301608086015261230d8383612095565b925060808601519150808584030160a08601525061232b8282612095565b91505060a0840151151560c084015260c084015160e08401528091505092915050565b8c81526001600160a01b038c16602082015260006101808060408401526123778184018e612095565b9050828103606084015261238b818d612095565b9050828103608084015261239f818c612095565b905082810360a08401526123b3818b612095565b905082810360c08401526123c7818a612095565b90508760e08401528281036101008401526123e28188612095565b9150506123f461012083018615159052565b6001600160a01b0384166101408301528215156101608301529d9c50505050505050505050505050565b634e487b7160e01b600052604160045260246000fd5b600082601f83011261244557600080fd5b813567ffffffffffffffff808211156124605761246061241e565b604051601f8301601f19908116603f011681019082821181831017156124885761248861241e565b816040528381528660208588010111156124a157600080fd5b836020870160208301376000602085830101528094505050505092915050565b6000806000606084860312156124d657600080fd5b833567ffffffffffffffff808211156124ee57600080fd5b6124fa87838801612434565b9450602086013591508082111561251057600080fd5b61251c87838801612434565b9350604086013591508082111561253257600080fd5b5061253f86828701612434565b9150509250925092565b6000806040838503121561255c57600080fd5b6125658361220a565b91506125736020840161220a565b90509250929050565b8781526001600160a01b038716602082015260e0604082018190526000906125a690830188612095565b82810360608401526125b88188612095565b905082810360808401526125cc8187612095565b94151560a0840152505060c0015295945050505050565b600080600080600060a086880312156125fb57600080fd5b85359450602086013567ffffffffffffffff8082111561261a57600080fd5b61262689838a01612434565b9550604088013591508082111561263c57600080fd5b61264889838a01612434565b9450606088013591508082111561265e57600080fd5b61266a89838a01612434565b9350608088013591508082111561268057600080fd5b5061268d88828901612434565b9150509295509295909350565b8035801515811461222157600080fd5b600080600080600080600060e0888a0312156126c557600080fd5b6126ce8861220a565b9650602088013567ffffffffffffffff808211156126eb57600080fd5b6126f78b838c01612434565b975060408a013591508082111561270d57600080fd5b6127198b838c01612434565b965060608a013591508082111561272f57600080fd5b61273b8b838c01612434565b955060808a013591508082111561275157600080fd5b61275d8b838c01612434565b945060a08a013591508082111561277357600080fd5b506127808a828b01612434565b92505061278f60c0890161269a565b905092959891949750929550565b60208082526025908201527f4d65646963616c5265636f7264733a205265636f726420646f6573206e6f7420604082015264195e1a5cdd60da1b606082015260800190565b600181811c908216806127f657607f821691505b60208210810361281657634e487b7160e01b600052602260045260246000fd5b50919050565b634e487b7160e01b600052601160045260246000fd5b808201808211156114c6576114c661281c565b6000600182016128575761285761281c565b5060010190565b601f8211156128a857600081815260208120601f850160051c810160208610156128855750805b601f850160051c820191505b818110156128a457828155600101612891565b5050505b505050565b815167ffffffffffffffff8111156128c7576128c761241e565b6128db816128d584546127e2565b8461285e565b602080601f83116001811461291057600084156128f85750858301515b600019600386901b1c1916600185901b1785556128a4565b600085815260208120601f198616915b8281101561293f57888601518255948401946001909101908401612920565b508582101561295d5787850151600019600388901b60f8161c191681555b5050505050600190811b01905550565b6020815260006122416020830184612095565b634e487b7160e01b600052603260045260246000fd5b60208082526029908201527f4d65646963616c5265636f7264733a20446961676e6f7369732063616e6e6f7460408201526820626520656d70747960b81b606082015260800190565b60208082526029908201527f4d65646963616c5265636f7264733a204950465320686173682063616e6e6f7460408201526820626520656d70747960b81b60608201526080019056fea264697066735822122037c22f62ee2344eef937a71c3d0ed49c7a866fd25de00f79b3020f4b7eb0effd64736f6c63430008140033",
  "linkReferences": {},
  "deployedLinkReferences": {}
}