{
  "_format": "hh-sol-artifact-1",
  "contractName": "Stokvel",
  "sourceName": "contracts/Stokvel.sol",
  "abi": [
    {
      "inputs": [
        {
          "internalType": "address",
          "name": "_empowerTokenAddress",
          "type": "address"
        }
      ],
      "stateMutability": "nonpayable",
      "type": "constructor"
    },
    {
      "inputs": [],
      "name": "ReentrancyGuardReentrantCall",
      "type": "error"
    },
    {
      "anonymous": false,
      "inputs": [
        {
          "indexed": true,
          "internalType": "uint256",
          "name": "circleId",
          "type": "uint256"
        },
        {
          "indexed": true,
          "internalType": "address",
          "name": "creator",
          "type": "address"
        },
        {
          "indexed": false,
          "internalType": "string",
          "name": "name",
          "type": "string"
        },
        {
          "indexed": false,
          "internalType": "uint256",
          "name": "contributionAmount",
          "type": "uint256"
        },
        {
          "indexed": false,
          "internalType": "uint256",
          "name": "maxMembers",
          "type": "uint256"
        }
      ],
      "name": "CircleCreated",
      "type": "event"
    },
    {
      "anonymous": false,
      "inputs": [
        {
          "indexed": true,
          "internalType": "uint256",
          "name": "circleId",
          "type": "uint256"
        },
        {
          "indexed": true,
          "internalType": "address",
          "name": "member",
          "type": "address"
        },
        {
          "indexed": false,
          "internalType": "uint256",
          "name": "amount",
          "type": "uint256"
        }
      ],
      "name": "ContributionMade",
      "type": "event"
    },
    {
      "anonymous": false,
      "inputs": [
        {
          "indexed": true,
          "internalType": "uint256",
          "name": "circleId",
          "type": "uint256"
        },
        {
          "indexed": true,
          "internalType": "address",
          "name": "newMember",
          "type": "address"
        }
      ],
      "name": "MemberJoined",
      "type": "event"
    },
    {
      "inputs": [
        {
          "internalType": "uint256",
          "name": "",
          "type": "uint256"
        }
      ],
      "name": "circles",
      "outputs": [
        {
          "internalType": "string",
          "name": "name",
          "type": "string"
        },
        {
          "internalType": "string",
          "name": "description",
          "type": "string"
        },
        {
          "internalType": "uint256",
          "name": "contributionAmount",
          "type": "uint256"
        },
        {
          "internalType": "uint256",
          "name": "maxMembers",
          "type": "uint256"
        },
        {
          "internalType": "uint256",
          "name": "totalBalance",
          "type": "uint256"
        },
        {
          "internalType": "bool",
          "name": "isActive",
          "type": "bool"
        },
        {
          "internalType": "address",
          "name": "creator",
          "type": "address"
        }
      ],
      "stateMutability": "view",
      "type": "function"
    },
    {
      "inputs": [
        {
          "internalType": "uint256",
          "name": "_circleId",
          "type": "uint256"
        }
      ],
      "name": "contribute",
      "outputs": [],
      "stateMutability": "nonpayable",
      "type": "function"
    },
    {
      "inputs": [
        {
          "internalType": "string",
          "name": "_name",
          "type": "string"
        },
        {
          "internalType": "string",
          "name": "_description",
          "type": "string"
        },
        {
          "internalType": "uint256",
          "name": "_contributionAmount",
          "type": "uint256"
        },
        {
          "internalType": "uint256",
          "name": "_maxMembers",
          "type": "uint256"
        }
      ],
      "name": "createCircle",
      "outputs": [],
      "stateMutability": "nonpayable",
      "type": "function"
    },
    {
      "inputs": [],
      "name": "empowerToken",
      "outputs": [
        {
          "internalType": "contract EmpowerToken",
          "name": "",
          "type": "address"
        }
      ],
      "stateMutability": "view",
      "type": "function"
    },
    {
      "inputs": [
        {
          "internalType": "uint256",
          "name": "_circleId",
          "type": "uint256"
        }
      ],
      "name": "getCircleMembers",
      "outputs": [
        {
          "internalType": "address[]",
          "name": "",
          "type": "address[]"
        }
      ],
      "stateMutability": "view",
      "type": "function"
    },
    {
      "inputs": [],
      "name": "getCirclesCount",
      "outputs": [
        {
          "internalType": "uint256",
          "name": "",
          "type": "uint256"
        }
      ],
      "stateMutability": "view",
      "type": "function"
    },
    {
      "inputs": [
        {
          "internalType": "uint256",
          "name": "_circleId",
          "type": "uint256"
        }
      ],
      "name": "joinCircle",
      "outputs": [],
      "stateMutability": "nonpayable",
      "type": "function"
    }
  ],
  "bytecode": "0x60a06040523480156200001157600080fd5b5060405162001a4d38038062001a4d8339818101604052810190620000379190620000e4565b60016000819055508073ffffffffffffffffffffffffffffffffffffffff1660808173ffffffffffffffffffffffffffffffffffffffff16815250505062000116565b600080fd5b600073ffffffffffffffffffffffffffffffffffffffff82169050919050565b6000620000ac826200007f565b9050919050565b620000be816200009f565b8114620000ca57600080fd5b50565b600081519050620000de81620000b3565b92915050565b600060208284031215620000fd57620000fc6200007a565b5b60006200010d84828501620000cd565b91505092915050565b608051611914620001396000396000818161017a015261094101526119146000f3fe608060405234801561001057600080fd5b506004361061007d5760003560e01c8063bc5e0f301161005b578063bc5e0f30146100d8578063c1cbbca71461010e578063cada54c61461012a578063cb815ab9146101485761007d565b8063225f75c81461008257806386d6cfb3146100a0578063a4a43d5a146100bc575b600080fd5b61008a610178565b6040516100979190610c81565b60405180910390f35b6100ba60048036038101906100b59190610ce6565b61019c565b005b6100d660048036038101906100d19190610e59565b6103e1565b005b6100f260048036038101906100ed9190610ce6565b610643565b6040516101059796959493929190610fc2565b60405180910390f35b61012860048036038101906101239190610ce6565b6107d2565b005b610132610af2565b60405161013f919061103f565b60405180910390f35b610162600480360381019061015d9190610ce6565b610aff565b60405161016f9190611118565b60405180910390f35b7f000000000000000000000000000000000000000000000000000000000000000081565b6000600182815481106101b2576101b161113a565b5b906000526020600020906008020190508060070160009054906101000a900460ff16610213576040517f08c379a000000000000000000000000000000000000000000000000000000000815260040161020a906111b5565b60405180910390fd5b8060030154816004018054905010610260576040517f08c379a000000000000000000000000000000000000000000000000000000000815260040161025790611221565b60405180910390fd5b60005b8160040180549050811015610333573373ffffffffffffffffffffffffffffffffffffffff1682600401828154811061029f5761029e61113a565b5b9060005260206000200160009054906101000a900473ffffffffffffffffffffffffffffffffffffffff1673ffffffffffffffffffffffffffffffffffffffff1603610320576040517f08c379a00000000000000000000000000000000000000000000000000000000081526004016103179061128d565b60405180910390fd5b808061032b906112dc565b915050610263565b5080600401339080600181540180825580915050600190039060005260206000200160009091909190916101000a81548173ffffffffffffffffffffffffffffffffffffffff021916908373ffffffffffffffffffffffffffffffffffffffff1602179055503373ffffffffffffffffffffffffffffffffffffffff16827f78da64a590c3052953ad9e0a5546bbf12bb68ae7634e3fb2a774e22a8c6557c160405160405180910390a35050565b60008211610424576040517f08c379a000000000000000000000000000000000000000000000000000000000815260040161041b90611370565b60405180910390fd5b60018111610467576040517f08c379a000000000000000000000000000000000000000000000000000000000815260040161045e906113dc565b60405180910390fd5b60006001808160018154018082558091505003906000526020600020906008020190508481600001908161049b91906115fe565b50838160010190816104ad91906115fe565b5082816002018190555081816003018190555060018160070160006101000a81548160ff021916908315150217905550338160070160016101000a81548173ffffffffffffffffffffffffffffffffffffffff021916908373ffffffffffffffffffffffffffffffffffffffff16021790555080600401339080600181540180825580915050600190039060005260206000200160009091909190916101000a81548173ffffffffffffffffffffffffffffffffffffffff021916908373ffffffffffffffffffffffffffffffffffffffff1602179055503373ffffffffffffffffffffffffffffffffffffffff16600180805490506105ad91906116d0565b7feffa5c5469fad6e81e55ea8af878cd7bf4d47e8e0a2a67219f925c8f66851c6b8786866040516105e093929190611704565b60405180910390a33373ffffffffffffffffffffffffffffffffffffffff166001808054905061061091906116d0565b7f78da64a590c3052953ad9e0a5546bbf12bb68ae7634e3fb2a774e22a8c6557c160405160405180910390a35050505050565b6001818154811061065357600080fd5b90600052602060002090600802016000915090508060000180546106769061142b565b80601f01602080910402602001604051908101604052809291908181526020018280546106a29061142b565b80156106ef5780601f106106c4576101008083540402835291602001916106ef565b820191906000526020600020905b8154815290600101906020018083116106d257829003601f168201915b5050505050908060010180546107049061142b565b80601f01602080910402602001604051908101604052809291908181526020018280546107309061142b565b801561077d5780601f106107525761010080835404028352916020019161077d565b820191906000526020600020905b81548152906001019060200180831161076057829003601f168201915b5050505050908060020154908060030154908060060154908060070160009054906101000a900460ff16908060070160019054906101000a900473ffffffffffffffffffffffffffffffffffffffff16905087565b6107da610bb2565b6000600182815481106107f0576107ef61113a565b5b906000526020600020906008020190508060070160009054906101000a900460ff16610851576040517f08c379a0000000000000000000000000000000000000000000000000000000008152600401610848906111b5565b60405180910390fd5b6000805b82600401805490508110156108f3573373ffffffffffffffffffffffffffffffffffffffff168360040182815481106108915761089061113a565b5b9060005260206000200160009054906101000a900473ffffffffffffffffffffffffffffffffffffffff1673ffffffffffffffffffffffffffffffffffffffff16036108e057600191506108f3565b80806108eb906112dc565b915050610855565b5080610934576040517f08c379a000000000000000000000000000000000000000000000000000000000815260040161092b9061178e565b60405180910390fd5b60008260020154905060007f000000000000000000000000000000000000000000000000000000000000000073ffffffffffffffffffffffffffffffffffffffff166323b872dd3330856040518463ffffffff1660e01b815260040161099c939291906117ae565b6020604051808303816000875af11580156109bb573d6000803e3d6000fd5b505050506040513d601f19601f820116820180604052508101906109df9190611811565b905080610a21576040517f08c379a0000000000000000000000000000000000000000000000000000000008152600401610a189061188a565b60405180910390fd5b818460050160003373ffffffffffffffffffffffffffffffffffffffff1673ffffffffffffffffffffffffffffffffffffffff1681526020019081526020016000206000828254610a7291906118aa565b9250508190555081846006016000828254610a8d91906118aa565b925050819055503373ffffffffffffffffffffffffffffffffffffffff16857f0a4a91237423e0a1766a761c7cb029311d8b95d6b1b81db1b949a70c98b4e08e84604051610adb919061103f565b60405180910390a350505050610aef610bf8565b50565b6000600180549050905090565b606060018281548110610b1557610b1461113a565b5b9060005260206000209060080201600401805480602002602001604051908101604052809291908181526020018280548015610ba657602002820191906000526020600020905b8160009054906101000a900473ffffffffffffffffffffffffffffffffffffffff1673ffffffffffffffffffffffffffffffffffffffff1681526020019060010190808311610b5c575b50505050509050919050565b600260005403610bee576040517f3ee5aeb500000000000000000000000000000000000000000000000000000000815260040160405180910390fd5b6002600081905550565b6001600081905550565b600073ffffffffffffffffffffffffffffffffffffffff82169050919050565b6000819050919050565b6000610c47610c42610c3d84610c02565b610c22565b610c02565b9050919050565b6000610c5982610c2c565b9050919050565b6000610c6b82610c4e565b9050919050565b610c7b81610c60565b82525050565b6000602082019050610c966000830184610c72565b92915050565b6000604051905090565b600080fd5b600080fd5b6000819050919050565b610cc381610cb0565b8114610cce57600080fd5b50565b600081359050610ce081610cba565b92915050565b600060208284031215610cfc57610cfb610ca6565b5b6000610d0a84828501610cd1565b91505092915050565b600080fd5b600080fd5b6000601f19601f8301169050919050565b7f4e487b7100000000000000000000000000000000000000000000000000000000600052604160045260246000fd5b610d6682610d1d565b810181811067ffffffffffffffff82111715610d8557610d84610d2e565b5b80604052505050565b6000610d98610c9c565b9050610da48282610d5d565b919050565b600067ffffffffffffffff821115610dc457610dc3610d2e565b5b610dcd82610d1d565b9050602081019050919050565b82818337600083830152505050565b6000610dfc610df784610da9565b610d8e565b905082815260208101848484011115610e1857610e17610d18565b5b610e23848285610dda565b509392505050565b600082601f830112610e4057610e3f610d13565b5b8135610e50848260208601610de9565b91505092915050565b60008060008060808587031215610e7357610e72610ca6565b5b600085013567ffffffffffffffff811115610e9157610e90610cab565b5b610e9d87828801610e2b565b945050602085013567ffffffffffffffff811115610ebe57610ebd610cab565b5b610eca87828801610e2b565b9350506040610edb87828801610cd1565b9250506060610eec87828801610cd1565b91505092959194509250565b600081519050919050565b600082825260208201905092915050565b60005b83811015610f32578082015181840152602081019050610f17565b60008484015250505050565b6000610f4982610ef8565b610f538185610f03565b9350610f63818560208601610f14565b610f6c81610d1d565b840191505092915050565b610f8081610cb0565b82525050565b60008115159050919050565b610f9b81610f86565b82525050565b6000610fac82610c02565b9050919050565b610fbc81610fa1565b82525050565b600060e0820190508181036000830152610fdc818a610f3e565b90508181036020830152610ff08189610f3e565b9050610fff6040830188610f77565b61100c6060830187610f77565b6110196080830186610f77565b61102660a0830185610f92565b61103360c0830184610fb3565b98975050505050505050565b60006020820190506110546000830184610f77565b92915050565b600081519050919050565b600082825260208201905092915050565b6000819050602082019050919050565b61108f81610fa1565b82525050565b60006110a18383611086565b60208301905092915050565b6000602082019050919050565b60006110c58261105a565b6110cf8185611065565b93506110da83611076565b8060005b8381101561110b5781516110f28882611095565b97506110fd836110ad565b9250506001810190506110de565b5085935050505092915050565b6000602082019050818103600083015261113281846110ba565b905092915050565b7f4e487b7100000000000000000000000000000000000000000000000000000000600052603260045260246000fd5b7f436972636c65206973206e6f7420616374697665000000000000000000000000600082015250565b600061119f601483610f03565b91506111aa82611169565b602082019050919050565b600060208201905081810360008301526111ce81611192565b9050919050565b7f436972636c652069732066756c6c000000000000000000000000000000000000600082015250565b600061120b600e83610f03565b9150611216826111d5565b602082019050919050565b6000602082019050818103600083015261123a816111fe565b9050919050565b7f416c72656164792061206d656d62657200000000000000000000000000000000600082015250565b6000611277601083610f03565b915061128282611241565b602082019050919050565b600060208201905081810360008301526112a68161126a565b9050919050565b7f4e487b7100000000000000000000000000000000000000000000000000000000600052601160045260246000fd5b60006112e782610cb0565b91507fffffffffffffffffffffffffffffffffffffffffffffffffffffffffffffffff8203611319576113186112ad565b5b600182019050919050565b7f436f6e747269627574696f6e206d75737420626520706f736974697665000000600082015250565b600061135a601d83610f03565b915061136582611324565b602082019050919050565b600060208201905081810360008301526113898161134d565b9050919050565b7f4d7573742068617665206174206c656173742032206d656d6265727300000000600082015250565b60006113c6601c83610f03565b91506113d182611390565b602082019050919050565b600060208201905081810360008301526113f5816113b9565b9050919050565b7f4e487b7100000000000000000000000000000000000000000000000000000000600052602260045260246000fd5b6000600282049050600182168061144357607f821691505b602082108103611456576114556113fc565b5b50919050565b60008190508160005260206000209050919050565b60006020601f8301049050919050565b600082821b905092915050565b6000600883026114be7fffffffffffffffffffffffffffffffffffffffffffffffffffffffffffffffff82611481565b6114c88683611481565b95508019841693508086168417925050509392505050565b60006114fb6114f66114f184610cb0565b610c22565b610cb0565b9050919050565b6000819050919050565b611515836114e0565b61152961152182611502565b84845461148e565b825550505050565b600090565b61153e611531565b61154981848461150c565b505050565b5b8181101561156d57611562600082611536565b60018101905061154f565b5050565b601f8211156115b2576115838161145c565b61158c84611471565b8101602085101561159b578190505b6115af6115a785611471565b83018261154e565b50505b505050565b600082821c905092915050565b60006115d5600019846008026115b7565b1980831691505092915050565b60006115ee83836115c4565b9150826002028217905092915050565b61160782610ef8565b67ffffffffffffffff8111156116205761161f610d2e565b5b61162a825461142b565b611635828285611571565b600060209050601f8311600181146116685760008415611656578287015190505b61166085826115e2565b8655506116c8565b601f1984166116768661145c565b60005b8281101561169e57848901518255600182019150602085019450602081019050611679565b868310156116bb57848901516116b7601f8916826115c4565b8355505b6001600288020188555050505b505050505050565b60006116db82610cb0565b91506116e683610cb0565b92508282039050818111156116fe576116fd6112ad565b5b92915050565b6000606082019050818103600083015261171e8186610f3e565b905061172d6020830185610f77565b61173a6040830184610f77565b949350505050565b7f4e6f742061206d656d626572206f66207468697320636972636c650000000000600082015250565b6000611778601b83610f03565b915061178382611742565b602082019050919050565b600060208201905081810360008301526117a78161176b565b9050919050565b60006060820190506117c36000830186610fb3565b6117d06020830185610fb3565b6117dd6040830184610f77565b949350505050565b6117ee81610f86565b81146117f957600080fd5b50565b60008151905061180b816117e5565b92915050565b60006020828403121561182757611826610ca6565b5b6000611835848285016117fc565b91505092915050565b7f546f6b656e207472616e73666572206661696c65640000000000000000000000600082015250565b6000611874601583610f03565b915061187f8261183e565b602082019050919050565b600060208201905081810360008301526118a381611867565b9050919050565b60006118b582610cb0565b91506118c083610cb0565b92508282019050808211156118d8576118d76112ad565b5b9291505056fea2646970667358221220eff1e77c955225558f0256b57e4aba6065e36642ea5d695870292236e44b300964736f6c63430008140033",
  "linkReferences": {},
  "deployedLinkReferences": {}
}