{"contracts/EmpowerHer.sol":{"EmpowerHer":{"abi":[{"inputs":[],"stateMutability":"nonpayable","type":"constructor"},{"anonymous":false,"inputs":[{"indexed":false,"internalType":"uint256","name":"amount","type":"uint256"}],"name":"AdRevenueAdded","type":"event"},{"anonymous":false,"inputs":[{"indexed":true,"internalType":"uint256","name":"contentId","type":"uint256"},{"indexed":true,"internalType":"address","name":"liker","type":"address"}],"name":"ContentLiked","type":"event"},{"anonymous":false,"inputs":[{"indexed":true,"internalType":"uint256","name":"contentId","type":"uint256"},{"indexed":true,"internalType":"address","name":"creator","type":"address"},{"indexed":false,"internalType":"string","name":"title","type":"string"}],"name":"ContentUploaded","type":"event"},{"anonymous":false,"inputs":[{"indexed":true,"internalType":"uint256","name":"contentId","type":"uint256"},{"indexed":true,"internalType":"address","name":"viewer","type":"address"}],"name":"ContentViewed","type":"event"},{"anonymous":false,"inputs":[{"indexed":true,"internalType":"uint256","name":"courseId","type":"uint256"},{"indexed":true,"internalType":"address","name":"student","type":"address"}],"name":"CourseCompleted","type":"event"},{"anonymous":false,"inputs":[{"indexed":true,"internalType":"uint256","name":"courseId","type":"uint256"},{"indexed":true,"internalType":"address","name":"instructor","type":"address"},{"indexed":false,"internalType":"string","name":"title","type":"string"}],"name":"CourseCreated","type":"event"},{"anonymous":false,"inputs":[{"indexed":true,"internalType":"uint256","name":"courseId","type":"uint256"},{"indexed":true,"internalType":"address","name":"student","type":"address"}],"name":"CourseEnrolled","type":"event"},{"anonymous":false,"inputs":[{"indexed":true,"internalType":"address","name":"creator","type":"address"}],"name":"CreatorVerified","type":"event"},{"anonymous":false,"inputs":[{"indexed":true,"internalType":"address","name":"creator","type":"address"},{"indexed":false,"internalType":"uint256","name":"amount","type":"uint256"}],"name":"EarningsWithdrawn","type":"event"},{"anonymous":false,"inputs":[{"indexed":true,"internalType":"address","name":"previousOwner","type":"address"},{"indexed":true,"internalType":"address","name":"newOwner","type":"address"}],"name":"OwnershipTransferred","type":"event"},{"inputs":[],"name":"FEE_DENOMINATOR","outputs":[{"internalType":"uint256","name":"","type":"uint256"}],"stateMutability":"view","type":"function"},{"inputs":[],"name":"PLATFORM_FEE","outputs":[{"internalType":"uint256","name":"","type":"uint256"}],"stateMutability":"view","type":"function"},{"inputs":[{"internalType":"uint256","name":"","type":"uint256"}],"name":"activeContentIds","outputs":[{"internalType":"uint256","name":"","type":"uint256"}],"stateMutability":"view","type":"function"},{"inputs":[{"internalType":"uint256","name":"","type":"uint256"}],"name":"activeCourseIds","outputs":[{"internalType":"uint256","name":"","type":"uint256"}],"stateMutability":"view","type":"function"},{"inputs":[],"name":"adRevenuePool","outputs":[{"internalType":"uint256","name":"","type":"uint256"}],"stateMutability":"view","type":"function"},{"inputs":[],"name":"addAdRevenue","outputs":[],"stateMutability":"payable","type":"function"},{"inputs":[{"internalType":"uint256","name":"_courseId","type":"uint256"}],"name":"completeCourse","outputs":[],"stateMutability":"nonpayable","type":"function"},{"inputs":[{"internalType":"uint256","name":"","type":"uint256"}],"name":"contents","outputs":[{"internalType":"uint256","name":"id","type":"uint256"},{"internalType":"address","name":"creator","type":"address"},{"internalType":"string","name":"title","type":"string"},{"internalType":"string","name":"description","type":"string"},{"internalType":"string","name":"ipfsHash","type":"string"},{"internalType":"uint256","name":"views","type":"uint256"},{"internalType":"uint256","name":"likes","type":"uint256"},{"internalType":"uint256","name":"earnings","type":"uint256"},{"internalType":"uint256","name":"category","type":"uint256"},{"internalType":"uint256","name":"timestamp","type":"uint256"},{"internalType":"bool","name":"isActive","type":"bool"}],"stateMutability":"view","type":"function"},{"inputs":[{"internalType":"uint256","name":"","type":"uint256"},{"internalType":"address","name":"","type":"address"}],"name":"courseCompletions","outputs":[{"internalType":"bool","name":"","type":"bool"}],"stateMutability":"view","type":"function"},{"inputs":[{"internalType":"uint256","name":"","type":"uint256"},{"internalType":"address","name":"","type":"address"}],"name":"courseEnrollments","outputs":[{"internalType":"bool","name":"","type":"bool"}],"stateMutability":"view","type":"function"},{"inputs":[{"internalType":"uint256","name":"","type":"uint256"}],"name":"courses","outputs":[{"internalType":"uint256","name":"id","type":"uint256"},{"internalType":"address","name":"instructor","type":"address"},{"internalType":"string","name":"title","type":"string"},{"internalType":"string","name":"description","type":"string"},{"internalType":"string","name":"ipfsHash","type":"string"},{"internalType":"uint256","name":"duration","type":"uint256"},{"internalType":"uint256","name":"enrolledCount","type":"uint256"},{"internalType":"bool","name":"isActive","type":"bool"},{"internalType":"uint256","name":"timestamp","type":"uint256"}],"stateMutability":"view","type":"function"},{"inputs":[{"internalType":"string","name":"_title","type":"string"},{"internalType":"string","name":"_description","type":"string"},{"internalType":"string","name":"_ipfsHash","type":"string"},{"internalType":"uint256","name":"_duration","type":"uint256"}],"name":"createCourse","outputs":[],"stateMutability":"nonpayable","type":"function"},{"inputs":[{"internalType":"address","name":"","type":"address"}],"name":"creators","outputs":[{"internalType":"uint256","name":"totalViews","type":"uint256"},{"internalType":"uint256","name":"totalEarnings","type":"uint256"},{"internalType":"uint256","name":"contentCount","type":"uint256"},{"internalType":"bool","name":"isVerified","type":"bool"},{"internalType":"string","name":"profileIpfsHash","type":"string"}],"stateMutability":"view","type":"function"},{"inputs":[{"internalType":"uint256","name":"_contentId","type":"uint256"}],"name":"deactivateContent","outputs":[],"stateMutability":"nonpayable","type":"function"},{"inputs":[],"name":"emergencyWithdraw","outputs":[],"stateMutability":"nonpayable","type":"function"},{"inputs":[{"internalType":"uint256","name":"_courseId","type":"uint256"}],"name":"enrollInCourse","outputs":[],"stateMutability":"nonpayable","type":"function"},{"inputs":[],"name":"getAllContent","outputs":[{"internalType":"uint256[]","name":"","type":"uint256[]"}],"stateMutability":"view","type":"function"},{"inputs":[],"name":"getAllCourses","outputs":[{"internalType":"uint256[]","name":"","type":"uint256[]"}],"stateMutability":"view","type":"function"},{"inputs":[{"internalType":"uint256","name":"_contentId","type":"uint256"}],"name":"getContent","outputs":[{"components":[{"internalType":"uint256","name":"id","type":"uint256"},{"internalType":"address","name":"creator","type":"address"},{"internalType":"string","name":"title","type":"string"},{"internalType":"string","name":"description","type":"string"},{"internalType":"string","name":"ipfsHash","type":"string"},{"internalType":"uint256","name":"views","type":"uint256"},{"internalType":"uint256","name":"likes","type":"uint256"},{"internalType":"uint256","name":"earnings","type":"uint256"},{"internalType":"uint256","name":"category","type":"uint256"},{"internalType":"uint256","name":"timestamp","type":"uint256"},{"internalType":"bool","name":"isActive","type":"bool"}],"internalType":"struct EmpowerHer.Content","name":"","type":"tuple"}],"stateMutability":"view","type":"function"},{"inputs":[{"internalType":"address","name":"_creator","type":"address"}],"name":"getCreatorContent","outputs":[{"internalType":"uint256[]","name":"","type":"uint256[]"}],"stateMutability":"view","type":"function"},{"inputs":[{"internalType":"address","name":"_creator","type":"address"}],"name":"getCreatorEarnings","outputs":[{"internalType":"uint256","name":"","type":"uint256"}],"stateMutability":"view","type":"function"},{"inputs":[{"internalType":"address","name":"_creator","type":"address"}],"name":"getCreatorProfile","outputs":[{"components":[{"internalType":"uint256","name":"totalViews","type":"uint256"},{"internalType":"uint256","name":"totalEarnings","type":"uint256"},{"internalType":"uint256","name":"contentCount","type":"uint256"},{"internalType":"bool","name":"isVerified","type":"bool"},{"internalType":"string","name":"profileIpfsHash","type":"string"}],"internalType":"struct EmpowerHer.Creator","name":"","type":"tuple"}],"stateMutability":"view","type":"function"},{"inputs":[],"name":"getPlatformStats","outputs":[{"internalType":"uint256","name":"totalContent","type":"uint256"},{"internalType":"uint256","name":"totalCourses","type":"uint256"},{"internalType":"uint256","name":"totalViews","type":"uint256"},{"internalType":"uint256","name":"adPool","type":"uint256"},{"internalType":"uint256","name":"platformFees","type":"uint256"}],"stateMutability":"view","type":"function"},{"inputs":[{"internalType":"address","name":"_student","type":"address"}],"name":"getStudentCourses","outputs":[{"internalType":"uint256[]","name":"enrolled","type":"uint256[]"},{"internalType":"uint256[]","name":"completed","type":"uint256[]"}],"stateMutability":"view","type":"function"},{"inputs":[{"internalType":"address","name":"_student","type":"address"},{"internalType":"uint256","name":"_courseId","type":"uint256"}],"name":"hasCertificate","outputs":[{"internalType":"bool","name":"","type":"bool"}],"stateMutability":"view","type":"function"},{"inputs":[{"internalType":"uint256","name":"","type":"uint256"},{"internalType":"address","name":"","type":"address"}],"name":"hasLiked","outputs":[{"internalType":"bool","name":"","type":"bool"}],"stateMutability":"view","type":"function"},{"inputs":[{"internalType":"uint256","name":"","type":"uint256"},{"internalType":"address","name":"","type":"address"}],"name":"hasViewed","outputs":[{"internalType":"bool","name":"","type":"bool"}],"stateMutability":"view","type":"function"},{"inputs":[{"internalType":"uint256","name":"_contentId","type":"uint256"}],"name":"likeContent","outputs":[],"stateMutability":"nonpayable","type":"function"},{"inputs":[],"name":"owner","outputs":[{"internalType":"address","name":"","type":"address"}],"stateMutability":"view","type":"function"},{"inputs":[],"name":"paymentPerView","outputs":[{"internalType":"uint256","name":"","type":"uint256"}],"stateMutability":"view","type":"function"},{"inputs":[{"internalType":"address","name":"","type":"address"}],"name":"pendingWithdrawals","outputs":[{"internalType":"uint256","name":"","type":"uint256"}],"stateMutability":"view","type":"function"},{"inputs":[],"name":"renounceOwnership","outputs":[],"stateMutability":"nonpayable","type":"function"},{"inputs":[],"name":"totalPlatformFees","outputs":[{"internalType":"uint256","name":"","type":"uint256"}],"stateMutability":"view","type":"function"},{"inputs":[{"internalType":"address","name":"newOwner","type":"address"}],"name":"transferOwnership","outputs":[],"stateMutability":"nonpayable","type":"function"},{"inputs":[{"internalType":"uint256","name":"_newPayment","type":"uint256"}],"name":"updatePaymentPerView","outputs":[],"stateMutability":"nonpayable","type":"function"},{"inputs":[{"internalType":"string","name":"_title","type":"string"},{"internalType":"string","name":"_description","type":"string"},{"internalType":"string","name":"_ipfsHash","type":"string"},{"internalType":"uint256","name":"_category","type":"uint256"}],"name":"uploadContent","outputs":[],"stateMutability":"nonpayable","type":"function"},{"inputs":[{"internalType":"address","name":"_creator","type":"address"}],"name":"verifyCreator","outputs":[],"stateMutability":"nonpayable","type":"function"},{"inputs":[{"internalType":"uint256","name":"_contentId","type":"uint256"}],"name":"viewContent","outputs":[],"stateMutability":"payable","type":"function"},{"inputs":[],"name":"withdrawEarnings","outputs":[],"stateMutability":"nonpayable","type":"function"},{"inputs":[],"name":"withdrawPlatformFees","outputs":[],"stateMutability":"nonpayable","type":"function"},{"stateMutability":"payable","type":"receive"}],"evm":{"bytecode":{"linkReferences":{},"object":"6080806040523461006957600160008181558154336001600160a01b0319821681179093556001600160a01b0316907f8be0079c531659141344cd1fd0a4f28419497f9722a3daafe3b4186f6b6457e09080a366038d7ea4c68000600455612936908161006f8239f35b600080fdfe60806040526004361015610054575b361561001957600080fd5b61002534601054612780565b6010557fc57cd794d26d1efd80b54b9aac1f664c6a83755005b6391af57fee4127bd1d956020604051348152a1005b60003560e01c8063011c6756146121b357806304e48bd11461213b5780630b7ad54c14611f785780630ce7ed9814611f285780630d3b429214611d87578063136d888314611cfe57806317cb7d7c1461179d57806322920ad71461175057806324fb3e071461171957806334fbc9a1146116fd57806354315084146116715780635e52da271461153f5780635f37cd61146114235780635fb859ec146113c857806365e8ea1c14611377578063715018a61461131a5780637d9f68db146112cd578063804396af146102345780638be3e06f146110d55780638da5cb5b146110ac5780638fb7092c1461105f578063933166e114610fe05780639426502914610f9357806396f979d214610ec15780639889346514610ea057806398dd1b6514610e345780639e39e58d14610d59578063b4d54b1914610d3b578063b5ecf91214610c4f578063b73c6ce914610b49578063c685aa33146105ca578063d0b7830b146104ea578063d3631fa5146104cc578063d40761e41461045c578063d73792a91461043f578063db2e21bc14610377578063f2d0811f14610332578063f2fde38b1461026e578063f3f43703146102345763f9fc5af70361000e573461022f57600036600319011261022f576020600454604051908152f35b600080fd5b3461022f57602036600319011261022f576001600160a01b036102556122ab565b1660005260096020526020604060002054604051908152f35b3461022f57602036600319011261022f576102876122ab565b61028f61257e565b6001600160a01b039081169081156102de57600154826001600160601b0360a01b821617600155167f8be0079c531659141344cd1fd0a4f28419497f9722a3daafe3b4186f6b6457e0600080a3005b60405162461bcd60e51b815260206004820152602660248201527f4f776e61626c653a206e6577206f776e657220697320746865207a65726f206160448201526564647265737360d01b6064820152608490fd5b3461022f57602036600319011261022f5760043561034e61257e565b61035c6002548211156126ea565b6000908152600560205260409020600a01805460ff19169055005b3461022f57600036600319011261022f5761039061257e565b478015610403576001546000918291829182916001600160a01b03165af16103b661287a565b50156103be57005b60405162461bcd60e51b815260206004820152601b60248201527f456d657267656e6379207769746864726177616c206661696c656400000000006044820152606490fd5b60405162461bcd60e51b81526020600482015260146024820152734e6f2066756e647320746f20776974686472617760601b6044820152606490fd5b3461022f57600036600319011261022f5760206040516127108152f35b3461022f57602036600319011261022f576001600160a01b0361047d6122ab565b1660005260086020526104ba60406000206104c86104a6600161049f8461278d565b930161278d565b6040519384936040855260408501906122d7565b9083820360208501526122d7565b0390f35b3461022f57600036600319011261022f576020601154604051908152f35b3461022f57600036600319011261022f5761050361257e565b61050b6128aa565b6011548015610585576000808080938160115560018060a01b03600154165af161053361287a565b5015610540576001600055005b60405162461bcd60e51b815260206004820152601e60248201527f506c6174666f726d20666565207769746864726177616c206661696c656400006044820152606490fd5b60405162461bcd60e51b815260206004820152601c60248201527f4e6f20706c6174666f726d206665657320746f207769746864726177000000006044820152606490fd5b3461022f576105d836612405565b6105e4845115156125d6565b6105f08351151561261a565b6105fc82511515612666565b600a811015610b115760016002540192836002556040519161061d8361234b565b8483526020830193338552604084019287845260608501526080840152600060a0840152600060c0840152600060e084015261010083015242610120830152600161014083015283600052600560205260406000209282518455600184019060018060a01b039051166001600160601b0360a01b825416179055518051906001600160401b03821161088f5781906106b8600286015461249e565b601f8111610abe575b50602090601f8311600114610a4c57600092610a41575b50508160011b916000199060031b1c19161760028301555b60608101518051906001600160401b03821161088f578190610715600386015461249e565b601f81116109ee575b50602090601f831160011461097c57600092610971575b50508160011b916000199060031b1c19161760038301555b60808101518051906001600160401b03821161088f57610770600485015461249e565b601f811161092a575b50602090601f83116001146108b0579282600a936101409361080197966000926108a5575b50508160011b916000199060031b1c19161760048501555b60a0810151600585015560c0810151600685015560e08101516007850155610100810151600885015561012081015160098501550151151591019060ff801983541691151516179055565b600e54600160401b81101561088f578060016108209201600e55612467565b81549060031b9083821b91600019901b1916179055336000526007602052600260406000200161085081546126db565b90557f9b254a01196130d4769a7e8e9a24ddff300fd957e55e026cbc14978eef3b62b8604051602081528061088a3395602083019061230b565b0390a3005b634e487b7160e01b600052604160045260246000fd5b01519050898061079e565b906004850160005260206000209160005b601f198516811061091257508361014093610801979693600193600a97601f198116106108f9575b505050811b0160048501556107b6565b015160001960f88460031b161c191690558980806108e9565b919260206001819286850151815501940192016108c1565b600485016000526020600020601f840160051c81016020851061096a575b601f830160051c8201811061095e575050610779565b60008155600101610948565b5080610948565b015190508680610735565b9250600385016000526020600020906000935b601f19841685106109d3576001945083601f198116106109ba575b505050811b01600383015561074d565b015160001960f88460031b161c191690558680806109aa565b8181015183556020948501946001909301929091019061098f565b909150600385016000526020600020601f840160051c810160208510610a3a575b90849392915b601f830160051c82018110610a2b57505061071e565b60008155859450600101610a15565b5080610a0f565b0151905086806106d8565b9250600285016000526020600020906000935b601f1984168510610aa3576001945083601f19811610610a8a575b505050811b0160028301556106f0565b015160001960f88460031b161c19169055868080610a7a565b81810151835560209485019460019093019290910190610a5f565b909150600285016000526020600020601f840160051c810160208510610b0a575b90849392915b601f830160051c82018110610afb5750506106c1565b60008155859450600101610ae5565b5080610adf565b60405162461bcd60e51b815260206004820152601060248201526f496e76616c69642063617465676f727960801b6044820152606490fd5b3461022f57600036600319011261022f57610b626128aa565b3360005260096020526040600020548015610c0a5733600052600960205260006040812055600080808084335af1610b9861287a565b5015610bd1576040519081527f48dc35af7b45e2a81fffad55f6e2fafacdb1d3d0d50d24ebdc16324f5ba757f160203392a26001600055005b60405162461bcd60e51b815260206004820152601160248201527015da5d1a191c985dd85b0819985a5b1959607a1b6044820152606490fd5b60405162461bcd60e51b815260206004820152601760248201527f4e6f206561726e696e677320746f2077697468647261770000000000000000006044820152606490fd5b3461022f57602036600319011261022f5760043560005260056020526020604060002080549060018060a01b03600182015416610c8e600283016124d8565b91610c9b600382016124d8565b92610ca8600483016124d8565b93600583015494610d13600685015491610d05600787015494610cf760088901549760ff600a60098c01549b0154169a6040519e8f9e8f908152015260408d61016091829101528d019061230b565b908b820360608d015261230b565b9089820360808b015261230b565b9560a088015260c087015260e086015261010085015261012084015215156101408301520390f35b3461022f57600036600319011261022f576020601054604051908152f35b3461022f5760208060031936011261022f57610d736122ab565b60606080604051610d8381612367565b6000815260008582015260006040820152600083820152015260018060a01b03166000526007815260406000206104c860405191610dc083612367565b80548352600181015490848401918252600281015460408501908152610df9600460ff60038501541693606088019415158552016124d8565b9260808601938452604051968796818852519087015251604086015251606085015251151560808401525160a08084015260c083019061230b565b3461022f57602036600319011261022f57610e4d6122ab565b610e5561257e565b6001600160a01b03166000818152600760205260408120600301805460ff191660011790557ff29712ea7553106dc04213b4a8b2d4bd706623bddf1d92ab875d278700e772259080a2005b3461022f57602036600319011261022f57610eb961257e565b600480359055005b3461022f57602036600319011261022f576004356000908152600660205260409020805460018201546001600160a01b031691610f00600282016124d8565b610f0c600383016124d8565b91610f19600482016124d8565b92610f77600583015494610f69600685015493610f5b600860ff600789015416970154976040519b8c9b8c5260208c01526101208060408d01528b019061230b565b9089820360608b015261230b565b90878203608089015261230b565b9360a086015260c0850152151560e08401526101008301520390f35b3461022f57604036600319011261022f57610fac6122c1565b600435600052600b60205260406000209060018060a01b0316600052602052602060ff604060002054166040519015158152f35b3461022f57602036600319011261022f576001600160a01b036110016122ab565b166000526007602052604060002080546104c8600183015492600281015490611034600460ff60038401541692016124d8565b916040519586958652602086015260408501521515606084015260a0608084015260a083019061230b565b3461022f57604036600319011261022f576110786122c1565b600435600052600a60205260406000209060018060a01b0316600052602052602060ff604060002054166040519015158152f35b3461022f57600036600319011261022f576001546040516001600160a01b039091168152602090f35b60208060031936011261022f5760043590811515806112c1575b6110f8906126ea565b816000526005815261111460ff600a604060002001541661272f565b81600052600b8152604060002033600052815260ff6040600020541661127d5781600052600581526040600020600b825260406000203360005282526040600020600160ff198254161790556005810161116e81546126db565b9055600181019060018060a01b03908183541660005260078452604060002061119781546126db565b905560105490600454809210156111d2575b33867f6e095f59a74c080c06dd01632e03e2e6b181bc7aeeecbeedfb66297aced229b8600080a3005b60c8820282810460c814831517156112675761125a9561124f94612710600993049660076112008988612773565b950161120d868254612780565b90558181541660005260078352600160406000200161122d868254612780565b90555416600052526112456040600020918254612780565b9055601054612773565b601055601154612780565b60115581808080806111a9565b634e487b7160e01b600052601160045260246000fd5b6064906040519062461bcd60e51b82526004820152601b60248201527f416c726561647920766965776564207468697320636f6e74656e7400000000006044820152fd5b506002548211156110ef565b3461022f57604036600319011261022f576112e66122c1565b600435600052600c60205260406000209060018060a01b0316600052602052602060ff604060002054166040519015158152f35b3461022f57600036600319011261022f5761133361257e565b600180546001600160a01b031981169091556000906001600160a01b03167f8be0079c531659141344cd1fd0a4f28419497f9722a3daafe3b4186f6b6457e08280a3005b3461022f57602036600319011261022f57600435600f5481101561022f57602090600f6000527f8d1108e10bcb7c27dddfc02ed9d693a074039d026cf4ea4240b40f7d581ac8020154604051908152f35b600036600319011261022f5734156113e65761002534601054612780565b60405162461bcd60e51b81526020600482015260156024820152744d7573742073656e64204244414720746f6b656e7360581b6044820152606490fd5b3461022f5760208060031936011261022f576004359081151580611533575b61144b906126ea565b816000526005815261146760ff600a604060002001541661272f565b81600052600a8152604060002033600052815260ff604060002054166114ef5760059082600052600a815260406000203360005281526040600020600160ff19825416179055826000525260066040600020016114c481546126db565b905533907fc1ee4ef2a83783b48695c42cb439eb134fc379f78e9e472af571a5a04b7cfdc9600080a3005b6064906040519062461bcd60e51b82526004820152601a60248201527f416c7265616479206c696b6564207468697320636f6e74656e740000000000006044820152fd5b50600254821115611442565b3461022f5760208060031936011261022f576004359081151580611665575b611567906127f3565b816000526006815261158360ff60076040600020015416612837565b81600052600c8152604060002033600052815260ff604060002054166116215760089082600052600c815260406000203360005281526040600020600160ff19825416179055826000526006815260066040600020016115e381546126db565b905533600052526115f88160406000206126b2565b33907fd1a80c70750f3ae815515ec08d02c6202510aa13797609fe270e902cdfd99f03600080a3005b6064906040519062461bcd60e51b82526004820152601f60248201527f416c726561647920656e726f6c6c656420696e207468697320636f75727365006044820152fd5b5060035482111561155e565b3461022f57600036600319011261022f5760405180600e54808252826020809301600e6000527fbb7b4a454dc3493923482f07822329ed19e8244eff582cc204f8554c3620c3fd9260005b858282106116e7575050506116d392500383612382565b6104c86040519282849384528301906122d7565b85548452600195860195889550930192016116bc565b3461022f57600036600319011261022f57602060405160c88152f35b3461022f57602036600319011261022f57600435600e5481101561022f57611742602091612467565b90546040519160031b1c8152f35b3461022f57604036600319011261022f576117696122c1565b600435600052600d60205260406000209060018060a01b0316600052602052602060ff604060002054166040519015158152f35b3461022f576117ab36612405565b6117b7845115156125d6565b6117c38351151561261a565b6117cf82511515612666565b8015611cb95760016003540192836003556040519161012083018381106001600160401b0382111761088f57604052848352602083019333855260408401928784526060850152608084015260a0830152600060c0830152600160e08301524261010083015283600052600660205260406000209282518455600184019060018060a01b039051166001600160601b0360a01b825416179055518051906001600160401b03821161088f578190611889600286015461249e565b601f8111611c66575b50602090601f8311600114611bf457600092611be9575b50508160011b916000199060031b1c19161760028301555b60608101518051906001600160401b03821161088f5781906118e6600386015461249e565b601f8111611b96575b50602090601f8311600114611b2457600092611b19575b50508160011b916000199060031b1c19161760038301555b60808101518051906001600160401b03821161088f57611941600485015461249e565b601f8111611ad2575b50602090601f8311600114611a5c5791806008949261010094600092611a51575b50508160011b916000199060031b1c19161760048501555b60a0810151600585015560c081015160068501556119b660e08201511515600786019060ff801983541691151516179055565b0151910155600f54600160401b81101561088f576001810180600f55811015611a3b578190600f6000527f8d1108e10bcb7c27dddfc02ed9d693a074039d026cf4ea4240b40f7d581ac80201557fd26ee57739c2f8845178c96a37348973f3edc5907d342cdf65382f9a84474b89604051602081528061088a3395602083019061230b565b634e487b7160e01b600052603260045260246000fd5b01519050888061196b565b906004850160005260206000209160005b601f1985168110611aba575092600894926001926101009583601f19811610611aa1575b505050811b016004850155611983565b015160001960f88460031b161c19169055888080611a91565b91926020600181928685015181550194019201611a6d565b600485016000526020600020601f840160051c810160208510611b12575b601f830160051c82018110611b0657505061194a565b60008155600101611af0565b5080611af0565b015190508680611906565b9250600385016000526020600020906000935b601f1984168510611b7b576001945083601f19811610611b62575b505050811b01600383015561191e565b015160001960f88460031b161c19169055868080611b52565b81810151835560209485019460019093019290910190611b37565b909150600385016000526020600020601f840160051c810160208510611be2575b90849392915b601f830160051c82018110611bd35750506118ef565b60008155859450600101611bbd565b5080611bb7565b0151905086806118a9565b9250600285016000526020600020906000935b601f1984168510611c4b576001945083601f19811610611c32575b505050811b0160028301556118c1565b015160001960f88460031b161c19169055868080611c22565b81810151835560209485019460019093019290910190611c07565b909150600285016000526020600020601f840160051c810160208510611cb2575b90849392915b601f830160051c82018110611ca3575050611892565b60008155859450600101611c8d565b5080611c87565b60405162461bcd60e51b815260206004820152601f60248201527f4475726174696f6e206d7573742062652067726561746572207468616e2030006044820152606490fd5b3461022f57600036600319011261022f57600080600e545b808310611d4c5760a082600254906003549060105490601154926040519485526020850152604084015260608301526080820152f35b90611d7a611d8091611d5d85612467565b90549060031b1c6000526005806020526040600020015490612780565b926126db565b9190611d16565b3461022f5760208060031936011261022f576004359081151580611f1c575b611daf906127f3565b8160005260068152611dcb60ff60076040600020015416612837565b81600052600c8152604060002033600052815260ff6040600020541615611ed85781600052600d8152604060002033600052815260ff60406000205416611e945781600052600d8152604060002033600052815260406000209060ff199160018382541617905560088152611e478360016040600020016126b2565b33600052600881526002604060002001908360005252600160406000209182541617905533907f5bc083177651ab30489541022f7c6061da5d7d2157ea382267ea584eac645782600080a3005b6064906040519062461bcd60e51b82526004820152601d60248201527f416c726561647920636f6d706c65746564207468697320636f757273650000006044820152fd5b6064906040519062461bcd60e51b82526004820152601b60248201527f4e6f7420656e726f6c6c656420696e207468697320636f7572736500000000006044820152fd5b50600354821115611da6565b3461022f57604036600319011261022f576001600160a01b03611f496122ab565b1660005260086020526002604060002001602435600052602052602060ff604060002054166040519015158152f35b3461022f57602036600319011261022f576000610140604051611f9a8161234b565b82815282602082015260606040820152606080820152606060808201528260a08201528260c08201528260e0820152826101008201528261012082015201526004356000526005602052604060002060ff600a60405192611ffa8461234b565b8054845260018101546001600160a01b0316602085015261201d600282016124d8565b604085015261202e600382016124d8565b606085015261203f600482016124d8565b6080850152600581015460a0850152600681015460c0850152600781015460e08501526008810154610100850152600981015461012085015201541615156101408201526040518091602082528051602083015260018060a01b03602082015116604083015260408101516101406120f96120c86101609384606088015261018087019061230b565b6120e4606086015191601f1992838983030160808a015261230b565b906080860151908783030160a088015261230b565b9260a081015160c086015260c081015160e086015260e08101516101008601526101008101516101208601526101208101518286015201511515908301520390f35b3461022f57600036600319011261022f5760405180600f54808252826020809301600f6000527f8d1108e10bcb7c27dddfc02ed9d693a074039d026cf4ea4240b40f7d581ac8029260005b8582821061219d575050506116d392500383612382565b8554845260019586019588955093019201612186565b3461022f5760208060031936011261022f576001600160a01b0390816121d76122ab565b168060005260078252600260406000200154926121f3846127dc565b936122016040519586612382565b808552612210601f19916127dc565b01368486013760008092600e54935b84811061223957604051868152806104c88189018a6122d7565b61224281612467565b9054600391821b1c60005260059081885283866001604060002001541614612275575b5050612270906126db565b61221f565b612280839593612467565b9054911b1c918851811015611a3b576122709288826122a3941b8b0101526126db565b929088612265565b600435906001600160a01b038216820361022f57565b602435906001600160a01b038216820361022f57565b90815180825260208080930193019160005b8281106122f7575050505090565b8351855293810193928101926001016122e9565b919082519283825260005b848110612337575050826000602080949584010152601f8019910116010190565b602081830181015184830182015201612316565b61016081019081106001600160401b0382111761088f57604052565b60a081019081106001600160401b0382111761088f57604052565b90601f801991011681019081106001600160401b0382111761088f57604052565b6001600160401b03811161088f57601f01601f191660200190565b81601f8201121561022f578035906123d5826123a3565b926123e36040519485612382565b8284526020838301011161022f57816000926020809301838601378301015290565b608060031982011261022f576001600160401b039160043583811161022f5782612431916004016123be565b9260243581811161022f5783612449916004016123be565b9260443591821161022f57612460916004016123be565b9060643590565b600e54811015611a3b57600e6000527fbb7b4a454dc3493923482f07822329ed19e8244eff582cc204f8554c3620c3fd0190600090565b90600182811c921680156124ce575b60208310146124b857565b634e487b7160e01b600052602260045260246000fd5b91607f16916124ad565b90604051918260008254926124ec8461249e565b90818452600194858116908160001461255b5750600114612518575b505061251692500383612382565b565b9093915060005260209081600020936000915b81831061254357505061251693508201013880612508565b8554888401850152948501948794509183019161252b565b91505061251694506020925060ff191682840152151560051b8201013880612508565b6001546001600160a01b0316330361259257565b606460405162461bcd60e51b815260206004820152602060248201527f4f776e61626c653a2063616c6c6572206973206e6f7420746865206f776e65726044820152fd5b156125dd57565b60405162461bcd60e51b81526020600482015260156024820152745469746c652063616e6e6f7420626520656d70747960581b6044820152606490fd5b1561262157565b60405162461bcd60e51b815260206004820152601b60248201527f4465736372697074696f6e2063616e6e6f7420626520656d70747900000000006044820152606490fd5b1561266d57565b60405162461bcd60e51b815260206004820152601960248201527f4950465320686173682063616e6e6f7420626520656d707479000000000000006044820152606490fd5b805490600160401b82101561088f5760018201808255821015611a3b5760005260206000200155565b60001981146112675760010190565b156126f157565b60405162461bcd60e51b815260206004820152601660248201527510dbdb9d195b9d08191bd95cc81b9bdd08195e1a5cdd60521b6044820152606490fd5b1561273657565b60405162461bcd60e51b8152602060048201526015602482015274436f6e74656e74206973206e6f742061637469766560581b6044820152606490fd5b9190820391821161126757565b9190820180921161126757565b9060405191828154918282526020928383019160005283600020936000905b8282106127c25750505061251692500383612382565b8554845260019586019588955093810193909101906127ac565b6001600160401b03811161088f5760051b60200190565b156127fa57565b60405162461bcd60e51b815260206004820152601560248201527410dbdd5c9cd948191bd95cc81b9bdd08195e1a5cdd605a1b6044820152606490fd5b1561283e57565b60405162461bcd60e51b8152602060048201526014602482015273436f75727365206973206e6f742061637469766560601b6044820152606490fd5b3d156128a5573d9061288b826123a3565b916128996040519384612382565b82523d6000602084013e565b606090565b6002600054146128bb576002600055565b60405162461bcd60e51b815260206004820152601f60248201527f5265656e7472616e637947756172643a207265656e7472616e742063616c6c006044820152606490fdfea2646970667358221220069919dbf658695b0884bbe131adbc57b78c5a9778f9f3b7a72cb45ac6d37a1c64736f6c63430008140033","opcodes":"PUSH1 0x80 DUP1 PUSH1 0x40 MSTORE CALLVALUE PUSH2 0x69 JUMPI PUSH1 0x1 PUSH1 0x0 DUP2 DUP2 SSTORE DUP2 SLOAD CALLER PUSH1 0x1 PUSH1 0x1 PUSH1 0xA0 SHL SUB NOT DUP3 AND DUP2 OR SWAP1 SWAP4 SSTORE PUSH1 0x1 PUSH1 0x1 PUSH1 0xA0 SHL SUB AND SWAP1 PUSH32 0x8BE0079C531659141344CD1FD0A4F28419497F9722A3DAAFE3B4186F6B6457E0 SWAP1 DUP1 LOG3 PUSH7 0x38D7EA4C68000 PUSH1 0x4 SSTORE PUSH2 0x2936 SWAP1 DUP2 PUSH2 0x6F DUP3 CODECOPY RETURN JUMPDEST PUSH1 0x0 DUP1 REVERT INVALID PUSH1 0x80 PUSH1 0x40 MSTORE PUSH1 0x4 CALLDATASIZE LT ISZERO PUSH2 0x54 JUMPI JUMPDEST CALLDATASIZE ISZERO PUSH2 0x19 JUMPI PUSH1 0x0 DUP1 REVERT JUMPDEST PUSH2 0x25 CALLVALUE PUSH1 0x10 SLOAD PUSH2 0x2780 JUMP JUMPDEST PUSH1 0x10 SSTORE PUSH32 0xC57CD794D26D1EFD80B54B9AAC1F664C6A83755005B6391AF57FEE4127BD1D95 PUSH1 0x20 PUSH1 0x40 MLOAD CALLVALUE DUP2 MSTORE LOG1 STOP JUMPDEST PUSH1 0x0 CALLDATALOAD PUSH1 0xE0 SHR DUP1 PUSH4 0x11C6756 EQ PUSH2 0x21B3 JUMPI DUP1 PUSH4 0x4E48BD1 EQ PUSH2 0x213B JUMPI DUP1 PUSH4 0xB7AD54C EQ PUSH2 0x1F78 JUMPI DUP1 PUSH4 0xCE7ED98 EQ PUSH2 0x1F28 JUMPI DUP1 PUSH4 0xD3B4292 EQ PUSH2 0x1D87 JUMPI DUP1 PUSH4 0x136D8883 EQ PUSH2 0x1CFE JUMPI DUP1 PUSH4 0x17CB7D7C EQ PUSH2 0x179D JUMPI DUP1 PUSH4 0x22920AD7 EQ PUSH2 0x1750 JUMPI DUP1 PUSH4 0x24FB3E07 EQ PUSH2 0x1719 JUMPI DUP1 PUSH4 0x34FBC9A1 EQ PUSH2 0x16FD JUMPI DUP1 PUSH4 0x54315084 EQ PUSH2 0x1671 JUMPI DUP1 PUSH4 0x5E52DA27 EQ PUSH2 0x153F JUMPI DUP1 PUSH4 0x5F37CD61 EQ PUSH2 0x1423 JUMPI DUP1 PUSH4 0x5FB859EC EQ PUSH2 0x13C8 JUMPI DUP1 PUSH4 0x65E8EA1C EQ PUSH2 0x1377 JUMPI DUP1 PUSH4 0x715018A6 EQ PUSH2 0x131A JUMPI DUP1 PUSH4 0x7D9F68DB EQ PUSH2 0x12CD JUMPI DUP1 PUSH4 0x804396AF EQ PUSH2 0x234 JUMPI DUP1 PUSH4 0x8BE3E06F EQ PUSH2 0x10D5 JUMPI DUP1 PUSH4 0x8DA5CB5B EQ PUSH2 0x10AC JUMPI DUP1 PUSH4 0x8FB7092C EQ PUSH2 0x105F JUMPI DUP1 PUSH4 0x933166E1 EQ PUSH2 0xFE0 JUMPI DUP1 PUSH4 0x94265029 EQ PUSH2 0xF93 JUMPI DUP1 PUSH4 0x96F979D2 EQ PUSH2 0xEC1 JUMPI DUP1 PUSH4 0x98893465 EQ PUSH2 0xEA0 JUMPI DUP1 PUSH4 0x98DD1B65 EQ PUSH2 0xE34 JUMPI DUP1 PUSH4 0x9E39E58D EQ PUSH2 0xD59 JUMPI DUP1 PUSH4 0xB4D54B19 EQ PUSH2 0xD3B JUMPI DUP1 PUSH4 0xB5ECF912 EQ PUSH2 0xC4F JUMPI DUP1 PUSH4 0xB73C6CE9 EQ PUSH2 0xB49 JUMPI DUP1 PUSH4 0xC685AA33 EQ PUSH2 0x5CA JUMPI DUP1 PUSH4 0xD0B7830B EQ PUSH2 0x4EA JUMPI DUP1 PUSH4 0xD3631FA5 EQ PUSH2 0x4CC JUMPI DUP1 PUSH4 0xD40761E4 EQ PUSH2 0x45C JUMPI DUP1 PUSH4 0xD73792A9 EQ PUSH2 0x43F JUMPI DUP1 PUSH4 0xDB2E21BC EQ PUSH2 0x377 JUMPI DUP1 PUSH4 0xF2D0811F EQ PUSH2 0x332 JUMPI DUP1 PUSH4 0xF2FDE38B EQ PUSH2 0x26E JUMPI DUP1 PUSH4 0xF3F43703 EQ PUSH2 0x234 JUMPI PUSH4 0xF9FC5AF7 SUB PUSH2 0xE JUMPI CALLVALUE PUSH2 0x22F JUMPI PUSH1 0x0 CALLDATASIZE PUSH1 0x3 NOT ADD SLT PUSH2 0x22F JUMPI PUSH1 0x20 PUSH1 0x4 SLOAD PUSH1 0x40 MLOAD SWAP1 DUP2 MSTORE RETURN JUMPDEST PUSH1 0x0 DUP1 REVERT JUMPDEST CALLVALUE PUSH2 0x22F JUMPI PUSH1 0x20 CALLDATASIZE PUSH1 0x3 NOT ADD SLT PUSH2 0x22F JUMPI PUSH1 0x1 PUSH1 0x1 PUSH1 0xA0 SHL SUB PUSH2 0x255 PUSH2 0x22AB JUMP JUMPDEST AND PUSH1 0x0 MSTORE PUSH1 0x9 PUSH1 0x20 MSTORE PUSH1 0x20 PUSH1 0x40 PUSH1 0x0 KECCAK256 SLOAD PUSH1 0x40 MLOAD SWAP1 DUP2 MSTORE RETURN JUMPDEST CALLVALUE PUSH2 0x22F JUMPI PUSH1 0x20 CALLDATASIZE PUSH1 0x3 NOT ADD SLT PUSH2 0x22F JUMPI PUSH2 0x287 PUSH2 0x22AB JUMP JUMPDEST PUSH2 0x28F PUSH2 0x257E JUMP JUMPDEST PUSH1 0x1 PUSH1 0x1 PUSH1 0xA0 SHL SUB SWAP1 DUP2 AND SWAP1 DUP2 ISZERO PUSH2 0x2DE JUMPI PUSH1 0x1 SLOAD DUP3 PUSH1 0x1 PUSH1 0x1 PUSH1 0x60 SHL SUB PUSH1 0xA0 SHL DUP3 AND OR PUSH1 0x1 SSTORE AND PUSH32 0x8BE0079C531659141344CD1FD0A4F28419497F9722A3DAAFE3B4186F6B6457E0 PUSH1 0x0 DUP1 LOG3 STOP JUMPDEST PUSH1 0x40 MLOAD PUSH3 0x461BCD PUSH1 0xE5 SHL DUP2 MSTORE PUSH1 0x20 PUSH1 0x4 DUP3 ADD MSTORE PUSH1 0x26 PUSH1 0x24 DUP3 ADD MSTORE PUSH32 0x4F776E61626C653A206E6577206F776E657220697320746865207A65726F2061 PUSH1 0x44 DUP3 ADD MSTORE PUSH6 0x646472657373 PUSH1 0xD0 SHL PUSH1 0x64 DUP3 ADD MSTORE PUSH1 0x84 SWAP1 REVERT JUMPDEST CALLVALUE PUSH2 0x22F JUMPI PUSH1 0x20 CALLDATASIZE PUSH1 0x3 NOT ADD SLT PUSH2 0x22F JUMPI PUSH1 0x4 CALLDATALOAD PUSH2 0x34E PUSH2 0x257E JUMP JUMPDEST PUSH2 0x35C PUSH1 0x2 SLOAD DUP3 GT ISZERO PUSH2 0x26EA JUMP JUMPDEST PUSH1 0x0 SWAP1 DUP2 MSTORE PUSH1 0x5 PUSH1 0x20 MSTORE PUSH1 0x40 SWAP1 KECCAK256 PUSH1 0xA ADD DUP1 SLOAD PUSH1 0xFF NOT AND SWAP1 SSTORE STOP JUMPDEST CALLVALUE PUSH2 0x22F JUMPI PUSH1 0x0 CALLDATASIZE PUSH1 0x3 NOT ADD SLT PUSH2 0x22F JUMPI PUSH2 0x390 PUSH2 0x257E JUMP JUMPDEST SELFBALANCE DUP1 ISZERO PUSH2 0x403 JUMPI PUSH1 0x1 SLOAD PUSH1 0x0 SWAP2 DUP3 SWAP2 DUP3 SWAP2 DUP3 SWAP2 PUSH1 0x1 PUSH1 0x1 PUSH1 0xA0 SHL SUB AND GAS CALL PUSH2 0x3B6 PUSH2 0x287A JUMP JUMPDEST POP ISZERO PUSH2 0x3BE JUMPI STOP JUMPDEST PUSH1 0x40 MLOAD PUSH3 0x461BCD PUSH1 0xE5 SHL DUP2 MSTORE PUSH1 0x20 PUSH1 0x4 DUP3 ADD MSTORE PUSH1 0x1B PUSH1 0x24 DUP3 ADD MSTORE PUSH32 0x456D657267656E6379207769746864726177616C206661696C65640000000000 PUSH1 0x44 DUP3 ADD MSTORE PUSH1 0x64 SWAP1 REVERT JUMPDEST PUSH1 0x40 MLOAD PUSH3 0x461BCD PUSH1 0xE5 SHL DUP2 MSTORE PUSH1 0x20 PUSH1 0x4 DUP3 ADD MSTORE PUSH1 0x14 PUSH1 0x24 DUP3 ADD MSTORE PUSH20 0x4E6F2066756E647320746F207769746864726177 PUSH1 0x60 SHL PUSH1 0x44 DUP3 ADD MSTORE PUSH1 0x64 SWAP1 REVERT JUMPDEST CALLVALUE PUSH2 0x22F JUMPI PUSH1 0x0 CALLDATASIZE PUSH1 0x3 NOT ADD SLT PUSH2 0x22F JUMPI PUSH1 0x20 PUSH1 0x40 MLOAD PUSH2 0x2710 DUP2 MSTORE RETURN JUMPDEST CALLVALUE PUSH2 0x22F JUMPI PUSH1 0x20 CALLDATASIZE PUSH1 0x3 NOT ADD SLT PUSH2 0x22F JUMPI PUSH1 0x1 PUSH1 0x1 PUSH1 0xA0 SHL SUB PUSH2 0x47D PUSH2 0x22AB JUMP JUMPDEST AND PUSH1 0x0 MSTORE PUSH1 0x8 PUSH1 0x20 MSTORE PUSH2 0x4BA PUSH1 0x40 PUSH1 0x0 KECCAK256 PUSH2 0x4C8 PUSH2 0x4A6 PUSH1 0x1 PUSH2 0x49F DUP5 PUSH2 0x278D JUMP JUMPDEST SWAP4 ADD PUSH2 0x278D JUMP JUMPDEST PUSH1 0x40 MLOAD SWAP4 DUP5 SWAP4 PUSH1 0x40 DUP6 MSTORE PUSH1 0x40 DUP6 ADD SWAP1 PUSH2 0x22D7 JUMP JUMPDEST SWAP1 DUP4 DUP3 SUB PUSH1 0x20 DUP6 ADD MSTORE PUSH2 0x22D7 JUMP JUMPDEST SUB SWAP1 RETURN JUMPDEST CALLVALUE PUSH2 0x22F JUMPI PUSH1 0x0 CALLDATASIZE PUSH1 0x3 NOT ADD SLT PUSH2 0x22F JUMPI PUSH1 0x20 PUSH1 0x11 SLOAD PUSH1 0x40 MLOAD SWAP1 DUP2 MSTORE RETURN JUMPDEST CALLVALUE PUSH2 0x22F JUMPI PUSH1 0x0 CALLDATASIZE PUSH1 0x3 NOT ADD SLT PUSH2 0x22F JUMPI PUSH2 0x503 PUSH2 0x257E JUMP JUMPDEST PUSH2 0x50B PUSH2 0x28AA JUMP JUMPDEST PUSH1 0x11 SLOAD DUP1 ISZERO PUSH2 0x585 JUMPI PUSH1 0x0 DUP1 DUP1 DUP1 SWAP4 DUP2 PUSH1 0x11 SSTORE PUSH1 0x1 DUP1 PUSH1 0xA0 SHL SUB PUSH1 0x1 SLOAD AND GAS CALL PUSH2 0x533 PUSH2 0x287A JUMP JUMPDEST POP ISZERO PUSH2 0x540 JUMPI PUSH1 0x1 PUSH1 0x0 SSTORE STOP JUMPDEST PUSH1 0x40 MLOAD PUSH3 0x461BCD PUSH1 0xE5 SHL DUP2 MSTORE PUSH1 0x20 PUSH1 0x4 DUP3 ADD MSTORE PUSH1 0x1E PUSH1 0x24 DUP3 ADD MSTORE PUSH32 0x506C6174666F726D20666565207769746864726177616C206661696C65640000 PUSH1 0x44 DUP3 ADD MSTORE PUSH1 0x64 SWAP1 REVERT JUMPDEST PUSH1 0x40 MLOAD PUSH3 0x461BCD PUSH1 0xE5 SHL DUP2 MSTORE PUSH1 0x20 PUSH1 0x4 DUP3 ADD MSTORE PUSH1 0x1C PUSH1 0x24 DUP3 ADD MSTORE PUSH32 0x4E6F20706C6174666F726D206665657320746F20776974686472617700000000 PUSH1 0x44 DUP3 ADD MSTORE PUSH1 0x64 SWAP1 REVERT JUMPDEST CALLVALUE PUSH2 0x22F JUMPI PUSH2 0x5D8 CALLDATASIZE PUSH2 0x2405 JUMP JUMPDEST PUSH2 0x5E4 DUP5 MLOAD ISZERO ISZERO PUSH2 0x25D6 JUMP JUMPDEST PUSH2 0x5F0 DUP4 MLOAD ISZERO ISZERO PUSH2 0x261A JUMP JUMPDEST PUSH2 0x5FC DUP3 MLOAD ISZERO ISZERO PUSH2 0x2666 JUMP JUMPDEST PUSH1 0xA DUP2 LT ISZERO PUSH2 0xB11 JUMPI PUSH1 0x1 PUSH1 0x2 SLOAD ADD SWAP3 DUP4 PUSH1 0x2 SSTORE PUSH1 0x40 MLOAD SWAP2 PUSH2 0x61D DUP4 PUSH2 0x234B JUMP JUMPDEST DUP5 DUP4 MSTORE PUSH1 0x20 DUP4 ADD SWAP4 CALLER DUP6 MSTORE PUSH1 0x40 DUP5 ADD SWAP3 DUP8 DUP5 MSTORE PUSH1 0x60 DUP6 ADD MSTORE PUSH1 0x80 DUP5 ADD MSTORE PUSH1 0x0 PUSH1 0xA0 DUP5 ADD MSTORE PUSH1 0x0 PUSH1 0xC0 DUP5 ADD MSTORE PUSH1 0x0 PUSH1 0xE0 DUP5 ADD MSTORE PUSH2 0x100 DUP4 ADD MSTORE TIMESTAMP PUSH2 0x120 DUP4 ADD MSTORE PUSH1 0x1 PUSH2 0x140 DUP4 ADD MSTORE DUP4 PUSH1 0x0 MSTORE PUSH1 0x5 PUSH1 0x20 MSTORE PUSH1 0x40 PUSH1 0x0 KECCAK256 SWAP3 DUP3 MLOAD DUP5 SSTORE PUSH1 0x1 DUP5 ADD SWAP1 PUSH1 0x1 DUP1 PUSH1 0xA0 SHL SUB SWAP1 MLOAD AND PUSH1 0x1 PUSH1 0x1 PUSH1 0x60 SHL SUB PUSH1 0xA0 SHL DUP3 SLOAD AND OR SWAP1 SSTORE MLOAD DUP1 MLOAD SWAP1 PUSH1 0x1 PUSH1 0x1 PUSH1 0x40 SHL SUB DUP3 GT PUSH2 0x88F JUMPI DUP2 SWAP1 PUSH2 0x6B8 PUSH1 0x2 DUP7 ADD SLOAD PUSH2 0x249E JUMP JUMPDEST PUSH1 0x1F DUP2 GT PUSH2 0xABE JUMPI JUMPDEST POP PUSH1 0x20 SWAP1 PUSH1 0x1F DUP4 GT PUSH1 0x1 EQ PUSH2 0xA4C JUMPI PUSH1 0x0 SWAP3 PUSH2 0xA41 JUMPI JUMPDEST POP POP DUP2 PUSH1 0x1 SHL SWAP2 PUSH1 0x0 NOT SWAP1 PUSH1 0x3 SHL SHR NOT AND OR PUSH1 0x2 DUP4 ADD SSTORE JUMPDEST PUSH1 0x60 DUP2 ADD MLOAD DUP1 MLOAD SWAP1 PUSH1 0x1 PUSH1 0x1 PUSH1 0x40 SHL SUB DUP3 GT PUSH2 0x88F JUMPI DUP2 SWAP1 PUSH2 0x715 PUSH1 0x3 DUP7 ADD SLOAD PUSH2 0x249E JUMP JUMPDEST PUSH1 0x1F DUP2 GT PUSH2 0x9EE JUMPI JUMPDEST POP PUSH1 0x20 SWAP1 PUSH1 0x1F DUP4 GT PUSH1 0x1 EQ PUSH2 0x97C JUMPI PUSH1 0x0 SWAP3 PUSH2 0x971 JUMPI JUMPDEST POP POP DUP2 PUSH1 0x1 SHL SWAP2 PUSH1 0x0 NOT SWAP1 PUSH1 0x3 SHL SHR NOT AND OR PUSH1 0x3 DUP4 ADD SSTORE JUMPDEST PUSH1 0x80 DUP2 ADD MLOAD DUP1 MLOAD SWAP1 PUSH1 0x1 PUSH1 0x1 PUSH1 0x40 SHL SUB DUP3 GT PUSH2 0x88F JUMPI PUSH2 0x770 PUSH1 0x4 DUP6 ADD SLOAD PUSH2 0x249E JUMP JUMPDEST PUSH1 0x1F DUP2 GT PUSH2 0x92A JUMPI JUMPDEST POP PUSH1 0x20 SWAP1 PUSH1 0x1F DUP4 GT PUSH1 0x1 EQ PUSH2 0x8B0 JUMPI SWAP3 DUP3 PUSH1 0xA SWAP4 PUSH2 0x140 SWAP4 PUSH2 0x801 SWAP8 SWAP7 PUSH1 0x0 SWAP3 PUSH2 0x8A5 JUMPI JUMPDEST POP POP DUP2 PUSH1 0x1 SHL SWAP2 PUSH1 0x0 NOT SWAP1 PUSH1 0x3 SHL SHR NOT AND OR PUSH1 0x4 DUP6 ADD SSTORE JUMPDEST PUSH1 0xA0 DUP2 ADD MLOAD PUSH1 0x5 DUP6 ADD SSTORE PUSH1 0xC0 DUP2 ADD MLOAD PUSH1 0x6 DUP6 ADD SSTORE PUSH1 0xE0 DUP2 ADD MLOAD PUSH1 0x7 DUP6 ADD SSTORE PUSH2 0x100 DUP2 ADD MLOAD PUSH1 0x8 DUP6 ADD SSTORE PUSH2 0x120 DUP2 ADD MLOAD PUSH1 0x9 DUP6 ADD SSTORE ADD MLOAD ISZERO ISZERO SWAP2 ADD SWAP1 PUSH1 0xFF DUP1 NOT DUP4 SLOAD AND SWAP2 ISZERO ISZERO AND OR SWAP1 SSTORE JUMP JUMPDEST PUSH1 0xE SLOAD PUSH1 0x1 PUSH1 0x40 SHL DUP2 LT ISZERO PUSH2 0x88F JUMPI DUP1 PUSH1 0x1 PUSH2 0x820 SWAP3 ADD PUSH1 0xE SSTORE PUSH2 0x2467 JUMP JUMPDEST DUP2 SLOAD SWAP1 PUSH1 0x3 SHL SWAP1 DUP4 DUP3 SHL SWAP2 PUSH1 0x0 NOT SWAP1 SHL NOT AND OR SWAP1 SSTORE CALLER PUSH1 0x0 MSTORE PUSH1 0x7 PUSH1 0x20 MSTORE PUSH1 0x2 PUSH1 0x40 PUSH1 0x0 KECCAK256 ADD PUSH2 0x850 DUP2 SLOAD PUSH2 0x26DB JUMP JUMPDEST SWAP1 SSTORE PUSH32 0x9B254A01196130D4769A7E8E9A24DDFF300FD957E55E026CBC14978EEF3B62B8 PUSH1 0x40 MLOAD PUSH1 0x20 DUP2 MSTORE DUP1 PUSH2 0x88A CALLER SWAP6 PUSH1 0x20 DUP4 ADD SWAP1 PUSH2 0x230B JUMP JUMPDEST SUB SWAP1 LOG3 STOP JUMPDEST PUSH4 0x4E487B71 PUSH1 0xE0 SHL PUSH1 0x0 MSTORE PUSH1 0x41 PUSH1 0x4 MSTORE PUSH1 0x24 PUSH1 0x0 REVERT JUMPDEST ADD MLOAD SWAP1 POP DUP10 DUP1 PUSH2 0x79E JUMP JUMPDEST SWAP1 PUSH1 0x4 DUP6 ADD PUSH1 0x0 MSTORE PUSH1 0x20 PUSH1 0x0 KECCAK256 SWAP2 PUSH1 0x0 JUMPDEST PUSH1 0x1F NOT DUP6 AND DUP2 LT PUSH2 0x912 JUMPI POP DUP4 PUSH2 0x140 SWAP4 PUSH2 0x801 SWAP8 SWAP7 SWAP4 PUSH1 0x1 SWAP4 PUSH1 0xA SWAP8 PUSH1 0x1F NOT DUP2 AND LT PUSH2 0x8F9 JUMPI JUMPDEST POP POP POP DUP2 SHL ADD PUSH1 0x4 DUP6 ADD SSTORE PUSH2 0x7B6 JUMP JUMPDEST ADD MLOAD PUSH1 0x0 NOT PUSH1 0xF8 DUP5 PUSH1 0x3 SHL AND SHR NOT AND SWAP1 SSTORE DUP10 DUP1 DUP1 PUSH2 0x8E9 JUMP JUMPDEST SWAP2 SWAP3 PUSH1 0x20 PUSH1 0x1 DUP2 SWAP3 DUP7 DUP6 ADD MLOAD DUP2 SSTORE ADD SWAP5 ADD SWAP3 ADD PUSH2 0x8C1 JUMP JUMPDEST PUSH1 0x4 DUP6 ADD PUSH1 0x0 MSTORE PUSH1 0x20 PUSH1 0x0 KECCAK256 PUSH1 0x1F DUP5 ADD PUSH1 0x5 SHR DUP2 ADD PUSH1 0x20 DUP6 LT PUSH2 0x96A JUMPI JUMPDEST PUSH1 0x1F DUP4 ADD PUSH1 0x5 SHR DUP3 ADD DUP2 LT PUSH2 0x95E JUMPI POP POP PUSH2 0x779 JUMP JUMPDEST PUSH1 0x0 DUP2 SSTORE PUSH1 0x1 ADD PUSH2 0x948 JUMP JUMPDEST POP DUP1 PUSH2 0x948 JUMP JUMPDEST ADD MLOAD SWAP1 POP DUP7 DUP1 PUSH2 0x735 JUMP JUMPDEST SWAP3 POP PUSH1 0x3 DUP6 ADD PUSH1 0x0 MSTORE PUSH1 0x20 PUSH1 0x0 KECCAK256 SWAP1 PUSH1 0x0 SWAP4 JUMPDEST PUSH1 0x1F NOT DUP5 AND DUP6 LT PUSH2 0x9D3 JUMPI PUSH1 0x1 SWAP5 POP DUP4 PUSH1 0x1F NOT DUP2 AND LT PUSH2 0x9BA JUMPI JUMPDEST POP POP POP DUP2 SHL ADD PUSH1 0x3 DUP4 ADD SSTORE PUSH2 0x74D JUMP JUMPDEST ADD MLOAD PUSH1 0x0 NOT PUSH1 0xF8 DUP5 PUSH1 0x3 SHL AND SHR NOT AND SWAP1 SSTORE DUP7 DUP1 DUP1 PUSH2 0x9AA JUMP JUMPDEST DUP2 DUP2 ADD MLOAD DUP4 SSTORE PUSH1 0x20 SWAP5 DUP6 ADD SWAP5 PUSH1 0x1 SWAP1 SWAP4 ADD SWAP3 SWAP1 SWAP2 ADD SWAP1 PUSH2 0x98F JUMP JUMPDEST SWAP1 SWAP2 POP PUSH1 0x3 DUP6 ADD PUSH1 0x0 MSTORE PUSH1 0x20 PUSH1 0x0 KECCAK256 PUSH1 0x1F DUP5 ADD PUSH1 0x5 SHR DUP2 ADD PUSH1 0x20 DUP6 LT PUSH2 0xA3A JUMPI JUMPDEST SWAP1 DUP5 SWAP4 SWAP3 SWAP2 JUMPDEST PUSH1 0x1F DUP4 ADD PUSH1 0x5 SHR DUP3 ADD DUP2 LT PUSH2 0xA2B JUMPI POP POP PUSH2 0x71E JUMP JUMPDEST PUSH1 0x0 DUP2 SSTORE DUP6 SWAP5 POP PUSH1 0x1 ADD PUSH2 0xA15 JUMP JUMPDEST POP DUP1 PUSH2 0xA0F JUMP JUMPDEST ADD MLOAD SWAP1 POP DUP7 DUP1 PUSH2 0x6D8 JUMP JUMPDEST SWAP3 POP PUSH1 0x2 DUP6 ADD PUSH1 0x0 MSTORE PUSH1 0x20 PUSH1 0x0 KECCAK256 SWAP1 PUSH1 0x0 SWAP4 JUMPDEST PUSH1 0x1F NOT DUP5 AND DUP6 LT PUSH2 0xAA3 JUMPI PUSH1 0x1 SWAP5 POP DUP4 PUSH1 0x1F NOT DUP2 AND LT PUSH2 0xA8A JUMPI JUMPDEST POP POP POP DUP2 SHL ADD PUSH1 0x2 DUP4 ADD SSTORE PUSH2 0x6F0 JUMP JUMPDEST ADD MLOAD PUSH1 0x0 NOT PUSH1 0xF8 DUP5 PUSH1 0x3 SHL AND SHR NOT AND SWAP1 SSTORE DUP7 DUP1 DUP1 PUSH2 0xA7A JUMP JUMPDEST DUP2 DUP2 ADD MLOAD DUP4 SSTORE PUSH1 0x20 SWAP5 DUP6 ADD SWAP5 PUSH1 0x1 SWAP1 SWAP4 ADD SWAP3 SWAP1 SWAP2 ADD SWAP1 PUSH2 0xA5F JUMP JUMPDEST SWAP1 SWAP2 POP PUSH1 0x2 DUP6 ADD PUSH1 0x0 MSTORE PUSH1 0x20 PUSH1 0x0 KECCAK256 PUSH1 0x1F DUP5 ADD PUSH1 0x5 SHR DUP2 ADD PUSH1 0x20 DUP6 LT PUSH2 0xB0A JUMPI JUMPDEST SWAP1 DUP5 SWAP4 SWAP3 SWAP2 JUMPDEST PUSH1 0x1F DUP4 ADD PUSH1 0x5 SHR DUP3 ADD DUP2 LT PUSH2 0xAFB JUMPI POP POP PUSH2 0x6C1 JUMP JUMPDEST PUSH1 0x0 DUP2 SSTORE DUP6 SWAP5 POP PUSH1 0x1 ADD PUSH2 0xAE5 JUMP JUMPDEST POP DUP1 PUSH2 0xADF JUMP JUMPDEST PUSH1 0x40 MLOAD PUSH3 0x461BCD PUSH1 0xE5 SHL DUP2 MSTORE PUSH1 0x20 PUSH1 0x4 DUP3 ADD MSTORE PUSH1 0x10 PUSH1 0x24 DUP3 ADD MSTORE PUSH16 0x496E76616C69642063617465676F7279 PUSH1 0x80 SHL PUSH1 0x44 DUP3 ADD MSTORE PUSH1 0x64 SWAP1 REVERT JUMPDEST CALLVALUE PUSH2 0x22F JUMPI PUSH1 0x0 CALLDATASIZE PUSH1 0x3 NOT ADD SLT PUSH2 0x22F JUMPI PUSH2 0xB62 PUSH2 0x28AA JUMP JUMPDEST CALLER PUSH1 0x0 MSTORE PUSH1 0x9 PUSH1 0x20 MSTORE PUSH1 0x40 PUSH1 0x0 KECCAK256 SLOAD DUP1 ISZERO PUSH2 0xC0A JUMPI CALLER PUSH1 0x0 MSTORE PUSH1 0x9 PUSH1 0x20 MSTORE PUSH1 0x0 PUSH1 0x40 DUP2 KECCAK256 SSTORE PUSH1 0x0 DUP1 DUP1 DUP1 DUP5 CALLER GAS CALL PUSH2 0xB98 PUSH2 0x287A JUMP JUMPDEST POP ISZERO PUSH2 0xBD1 JUMPI PUSH1 0x40 MLOAD SWAP1 DUP2 MSTORE PUSH32 0x48DC35AF7B45E2A81FFFAD55F6E2FAFACDB1D3D0D50D24EBDC16324F5BA757F1 PUSH1 0x20 CALLER SWAP3 LOG2 PUSH1 0x1 PUSH1 0x0 SSTORE STOP JUMPDEST PUSH1 0x40 MLOAD PUSH3 0x461BCD PUSH1 0xE5 SHL DUP2 MSTORE PUSH1 0x20 PUSH1 0x4 DUP3 ADD MSTORE PUSH1 0x11 PUSH1 0x24 DUP3 ADD MSTORE PUSH17 0x15DA5D1A191C985DD85B0819985A5B1959 PUSH1 0x7A SHL PUSH1 0x44 DUP3 ADD MSTORE PUSH1 0x64 SWAP1 REVERT JUMPDEST PUSH1 0x40 MLOAD PUSH3 0x461BCD PUSH1 0xE5 SHL DUP2 MSTORE PUSH1 0x20 PUSH1 0x4 DUP3 ADD MSTORE PUSH1 0x17 PUSH1 0x24 DUP3 ADD MSTORE PUSH32 0x4E6F206561726E696E677320746F207769746864726177000000000000000000 PUSH1 0x44 DUP3 ADD MSTORE PUSH1 0x64 SWAP1 REVERT JUMPDEST CALLVALUE PUSH2 0x22F JUMPI PUSH1 0x20 CALLDATASIZE PUSH1 0x3 NOT ADD SLT PUSH2 0x22F JUMPI PUSH1 0x4 CALLDATALOAD PUSH1 0x0 MSTORE PUSH1 0x5 PUSH1 0x20 MSTORE PUSH1 0x20 PUSH1 0x40 PUSH1 0x0 KECCAK256 DUP1 SLOAD SWAP1 PUSH1 0x1 DUP1 PUSH1 0xA0 SHL SUB PUSH1 0x1 DUP3 ADD SLOAD AND PUSH2 0xC8E PUSH1 0x2 DUP4 ADD PUSH2 0x24D8 JUMP JUMPDEST SWAP2 PUSH2 0xC9B PUSH1 0x3 DUP3 ADD PUSH2 0x24D8 JUMP JUMPDEST SWAP3 PUSH2 0xCA8 PUSH1 0x4 DUP4 ADD PUSH2 0x24D8 JUMP JUMPDEST SWAP4 PUSH1 0x5 DUP4 ADD SLOAD SWAP5 PUSH2 0xD13 PUSH1 0x6 DUP6 ADD SLOAD SWAP2 PUSH2 0xD05 PUSH1 0x7 DUP8 ADD SLOAD SWAP5 PUSH2 0xCF7 PUSH1 0x8 DUP10 ADD SLOAD SWAP8 PUSH1 0xFF PUSH1 0xA PUSH1 0x9 DUP13 ADD SLOAD SWAP12 ADD SLOAD AND SWAP11 PUSH1 0x40 MLOAD SWAP15 DUP16 SWAP15 DUP16 SWAP1 DUP2 MSTORE ADD MSTORE PUSH1 0x40 DUP14 PUSH2 0x160 SWAP2 DUP3 SWAP2 ADD MSTORE DUP14 ADD SWAP1 PUSH2 0x230B JUMP JUMPDEST SWAP1 DUP12 DUP3 SUB PUSH1 0x60 DUP14 ADD MSTORE PUSH2 0x230B JUMP JUMPDEST SWAP1 DUP10 DUP3 SUB PUSH1 0x80 DUP12 ADD MSTORE PUSH2 0x230B JUMP JUMPDEST SWAP6 PUSH1 0xA0 DUP9 ADD MSTORE PUSH1 0xC0 DUP8 ADD MSTORE PUSH1 0xE0 DUP7 ADD MSTORE PUSH2 0x100 DUP6 ADD MSTORE PUSH2 0x120 DUP5 ADD MSTORE ISZERO ISZERO PUSH2 0x140 DUP4 ADD MSTORE SUB SWAP1 RETURN JUMPDEST CALLVALUE PUSH2 0x22F JUMPI PUSH1 0x0 CALLDATASIZE PUSH1 0x3 NOT ADD SLT PUSH2 0x22F JUMPI PUSH1 0x20 PUSH1 0x10 SLOAD PUSH1 0x40 MLOAD SWAP1 DUP2 MSTORE RETURN JUMPDEST CALLVALUE PUSH2 0x22F JUMPI PUSH1 0x20 DUP1 PUSH1 0x3 NOT CALLDATASIZE ADD SLT PUSH2 0x22F JUMPI PUSH2 0xD73 PUSH2 0x22AB JUMP JUMPDEST PUSH1 0x60 PUSH1 0x80 PUSH1 0x40 MLOAD PUSH2 0xD83 DUP2 PUSH2 0x2367 JUMP JUMPDEST PUSH1 0x0 DUP2 MSTORE PUSH1 0x0 DUP6 DUP3 ADD MSTORE PUSH1 0x0 PUSH1 0x40 DUP3 ADD MSTORE PUSH1 0x0 DUP4 DUP3 ADD MSTORE ADD MSTORE PUSH1 0x1 DUP1 PUSH1 0xA0 SHL SUB AND PUSH1 0x0 MSTORE PUSH1 0x7 DUP2 MSTORE PUSH1 0x40 PUSH1 0x0 KECCAK256 PUSH2 0x4C8 PUSH1 0x40 MLOAD SWAP2 PUSH2 0xDC0 DUP4 PUSH2 0x2367 JUMP JUMPDEST DUP1 SLOAD DUP4 MSTORE PUSH1 0x1 DUP2 ADD SLOAD SWAP1 DUP5 DUP5 ADD SWAP2 DUP3 MSTORE PUSH1 0x2 DUP2 ADD SLOAD PUSH1 0x40 DUP6 ADD SWAP1 DUP2 MSTORE PUSH2 0xDF9 PUSH1 0x4 PUSH1 0xFF PUSH1 0x3 DUP6 ADD SLOAD AND SWAP4 PUSH1 0x60 DUP9 ADD SWAP5 ISZERO ISZERO DUP6 MSTORE ADD PUSH2 0x24D8 JUMP JUMPDEST SWAP3 PUSH1 0x80 DUP7 ADD SWAP4 DUP5 MSTORE PUSH1 0x40 MLOAD SWAP7 DUP8 SWAP7 DUP2 DUP9 MSTORE MLOAD SWAP1 DUP8 ADD MSTORE MLOAD PUSH1 0x40 DUP7 ADD MSTORE MLOAD PUSH1 0x60 DUP6 ADD MSTORE MLOAD ISZERO ISZERO PUSH1 0x80 DUP5 ADD MSTORE MLOAD PUSH1 0xA0 DUP1 DUP5 ADD MSTORE PUSH1 0xC0 DUP4 ADD SWAP1 PUSH2 0x230B JUMP JUMPDEST CALLVALUE PUSH2 0x22F JUMPI PUSH1 0x20 CALLDATASIZE PUSH1 0x3 NOT ADD SLT PUSH2 0x22F JUMPI PUSH2 0xE4D PUSH2 0x22AB JUMP JUMPDEST PUSH2 0xE55 PUSH2 0x257E JUMP JUMPDEST PUSH1 0x1 PUSH1 0x1 PUSH1 0xA0 SHL SUB AND PUSH1 0x0 DUP2 DUP2 MSTORE PUSH1 0x7 PUSH1 0x20 MSTORE PUSH1 0x40 DUP2 KECCAK256 PUSH1 0x3 ADD DUP1 SLOAD PUSH1 0xFF NOT AND PUSH1 0x1 OR SWAP1 SSTORE PUSH32 0xF29712EA7553106DC04213B4A8B2D4BD706623BDDF1D92AB875D278700E77225 SWAP1 DUP1 LOG2 STOP JUMPDEST CALLVALUE PUSH2 0x22F JUMPI PUSH1 0x20 CALLDATASIZE PUSH1 0x3 NOT ADD SLT PUSH2 0x22F JUMPI PUSH2 0xEB9 PUSH2 0x257E JUMP JUMPDEST PUSH1 0x4 DUP1 CALLDATALOAD SWAP1 SSTORE STOP JUMPDEST CALLVALUE PUSH2 0x22F JUMPI PUSH1 0x20 CALLDATASIZE PUSH1 0x3 NOT ADD SLT PUSH2 0x22F JUMPI PUSH1 0x4 CALLDATALOAD PUSH1 0x0 SWAP1 DUP2 MSTORE PUSH1 0x6 PUSH1 0x20 MSTORE PUSH1 0x40 SWAP1 KECCAK256 DUP1 SLOAD PUSH1 0x1 DUP3 ADD SLOAD PUSH1 0x1 PUSH1 0x1 PUSH1 0xA0 SHL SUB AND SWAP2 PUSH2 0xF00 PUSH1 0x2 DUP3 ADD PUSH2 0x24D8 JUMP JUMPDEST PUSH2 0xF0C PUSH1 0x3 DUP4 ADD PUSH2 0x24D8 JUMP JUMPDEST SWAP2 PUSH2 0xF19 PUSH1 0x4 DUP3 ADD PUSH2 0x24D8 JUMP JUMPDEST SWAP3 PUSH2 0xF77 PUSH1 0x5 DUP4 ADD SLOAD SWAP5 PUSH2 0xF69 PUSH1 0x6 DUP6 ADD SLOAD SWAP4 PUSH2 0xF5B PUSH1 0x8 PUSH1 0xFF PUSH1 0x7 DUP10 ADD SLOAD AND SWAP8 ADD SLOAD SWAP8 PUSH1 0x40 MLOAD SWAP12 DUP13 SWAP12 DUP13 MSTORE PUSH1 0x20 DUP13 ADD MSTORE PUSH2 0x120 DUP1 PUSH1 0x40 DUP14 ADD MSTORE DUP12 ADD SWAP1 PUSH2 0x230B JUMP JUMPDEST SWAP1 DUP10 DUP3 SUB PUSH1 0x60 DUP12 ADD MSTORE PUSH2 0x230B JUMP JUMPDEST SWAP1 DUP8 DUP3 SUB PUSH1 0x80 DUP10 ADD MSTORE PUSH2 0x230B JUMP JUMPDEST SWAP4 PUSH1 0xA0 DUP7 ADD MSTORE PUSH1 0xC0 DUP6 ADD MSTORE ISZERO ISZERO PUSH1 0xE0 DUP5 ADD MSTORE PUSH2 0x100 DUP4 ADD MSTORE SUB SWAP1 RETURN JUMPDEST CALLVALUE PUSH2 0x22F JUMPI PUSH1 0x40 CALLDATASIZE PUSH1 0x3 NOT ADD SLT PUSH2 0x22F JUMPI PUSH2 0xFAC PUSH2 0x22C1 JUMP JUMPDEST PUSH1 0x4 CALLDATALOAD PUSH1 0x0 MSTORE PUSH1 0xB PUSH1 0x20 MSTORE PUSH1 0x40 PUSH1 0x0 KECCAK256 SWAP1 PUSH1 0x1 DUP1 PUSH1 0xA0 SHL SUB AND PUSH1 0x0 MSTORE PUSH1 0x20 MSTORE PUSH1 0x20 PUSH1 0xFF PUSH1 0x40 PUSH1 0x0 KECCAK256 SLOAD AND PUSH1 0x40 MLOAD SWAP1 ISZERO ISZERO DUP2 MSTORE RETURN JUMPDEST CALLVALUE PUSH2 0x22F JUMPI PUSH1 0x20 CALLDATASIZE PUSH1 0x3 NOT ADD SLT PUSH2 0x22F JUMPI PUSH1 0x1 PUSH1 0x1 PUSH1 0xA0 SHL SUB PUSH2 0x1001 PUSH2 0x22AB JUMP JUMPDEST AND PUSH1 0x0 MSTORE PUSH1 0x7 PUSH1 0x20 MSTORE PUSH1 0x40 PUSH1 0x0 KECCAK256 DUP1 SLOAD PUSH2 0x4C8 PUSH1 0x1 DUP4 ADD SLOAD SWAP3 PUSH1 0x2 DUP2 ADD SLOAD SWAP1 PUSH2 0x1034 PUSH1 0x4 PUSH1 0xFF PUSH1 0x3 DUP5 ADD SLOAD AND SWAP3 ADD PUSH2 0x24D8 JUMP JUMPDEST SWAP2 PUSH1 0x40 MLOAD SWAP6 DUP7 SWAP6 DUP7 MSTORE PUSH1 0x20 DUP7 ADD MSTORE PUSH1 0x40 DUP6 ADD MSTORE ISZERO ISZERO PUSH1 0x60 DUP5 ADD MSTORE PUSH1 0xA0 PUSH1 0x80 DUP5 ADD MSTORE PUSH1 0xA0 DUP4 ADD SWAP1 PUSH2 0x230B JUMP JUMPDEST CALLVALUE PUSH2 0x22F JUMPI PUSH1 0x40 CALLDATASIZE PUSH1 0x3 NOT ADD SLT PUSH2 0x22F JUMPI PUSH2 0x1078 PUSH2 0x22C1 JUMP JUMPDEST PUSH1 0x4 CALLDATALOAD PUSH1 0x0 MSTORE PUSH1 0xA PUSH1 0x20 MSTORE PUSH1 0x40 PUSH1 0x0 KECCAK256 SWAP1 PUSH1 0x1 DUP1 PUSH1 0xA0 SHL SUB AND PUSH1 0x0 MSTORE PUSH1 0x20 MSTORE PUSH1 0x20 PUSH1 0xFF PUSH1 0x40 PUSH1 0x0 KECCAK256 SLOAD AND PUSH1 0x40 MLOAD SWAP1 ISZERO ISZERO DUP2 MSTORE RETURN JUMPDEST CALLVALUE PUSH2 0x22F JUMPI PUSH1 0x0 CALLDATASIZE PUSH1 0x3 NOT ADD SLT PUSH2 0x22F JUMPI PUSH1 0x1 SLOAD PUSH1 0x40 MLOAD PUSH1 0x1 PUSH1 0x1 PUSH1 0xA0 SHL SUB SWAP1 SWAP2 AND DUP2 MSTORE PUSH1 0x20 SWAP1 RETURN JUMPDEST PUSH1 0x20 DUP1 PUSH1 0x3 NOT CALLDATASIZE ADD SLT PUSH2 0x22F JUMPI PUSH1 0x4 CALLDATALOAD SWAP1 DUP2 ISZERO ISZERO DUP1 PUSH2 0x12C1 JUMPI JUMPDEST PUSH2 0x10F8 SWAP1 PUSH2 0x26EA JUMP JUMPDEST DUP2 PUSH1 0x0 MSTORE PUSH1 0x5 DUP2 MSTORE PUSH2 0x1114 PUSH1 0xFF PUSH1 0xA PUSH1 0x40 PUSH1 0x0 KECCAK256 ADD SLOAD AND PUSH2 0x272F JUMP JUMPDEST DUP2 PUSH1 0x0 MSTORE PUSH1 0xB DUP2 MSTORE PUSH1 0x40 PUSH1 0x0 KECCAK256 CALLER PUSH1 0x0 MSTORE DUP2 MSTORE PUSH1 0xFF PUSH1 0x40 PUSH1 0x0 KECCAK256 SLOAD AND PUSH2 0x127D JUMPI DUP2 PUSH1 0x0 MSTORE PUSH1 0x5 DUP2 MSTORE PUSH1 0x40 PUSH1 0x0 KECCAK256 PUSH1 0xB DUP3 MSTORE PUSH1 0x40 PUSH1 0x0 KECCAK256 CALLER PUSH1 0x0 MSTORE DUP3 MSTORE PUSH1 0x40 PUSH1 0x0 KECCAK256 PUSH1 0x1 PUSH1 0xFF NOT DUP3 SLOAD AND OR SWAP1 SSTORE PUSH1 0x5 DUP2 ADD PUSH2 0x116E DUP2 SLOAD PUSH2 0x26DB JUMP JUMPDEST SWAP1 SSTORE PUSH1 0x1 DUP2 ADD SWAP1 PUSH1 0x1 DUP1 PUSH1 0xA0 SHL SUB SWAP1 DUP2 DUP4 SLOAD AND PUSH1 0x0 MSTORE PUSH1 0x7 DUP5 MSTORE PUSH1 0x40 PUSH1 0x0 KECCAK256 PUSH2 0x1197 DUP2 SLOAD PUSH2 0x26DB JUMP JUMPDEST SWAP1 SSTORE PUSH1 0x10 SLOAD SWAP1 PUSH1 0x4 SLOAD DUP1 SWAP3 LT ISZERO PUSH2 0x11D2 JUMPI JUMPDEST CALLER DUP7 PUSH32 0x6E095F59A74C080C06DD01632E03E2E6B181BC7AEEECBEEDFB66297ACED229B8 PUSH1 0x0 DUP1 LOG3 STOP JUMPDEST PUSH1 0xC8 DUP3 MUL DUP3 DUP2 DIV PUSH1 0xC8 EQ DUP4 ISZERO OR ISZERO PUSH2 0x1267 JUMPI PUSH2 0x125A SWAP6 PUSH2 0x124F SWAP5 PUSH2 0x2710 PUSH1 0x9 SWAP4 DIV SWAP7 PUSH1 0x7 PUSH2 0x1200 DUP10 DUP9 PUSH2 0x2773 JUMP JUMPDEST SWAP6 ADD PUSH2 0x120D DUP7 DUP3 SLOAD PUSH2 0x2780 JUMP JUMPDEST SWAP1 SSTORE DUP2 DUP2 SLOAD AND PUSH1 0x0 MSTORE PUSH1 0x7 DUP4 MSTORE PUSH1 0x1 PUSH1 0x40 PUSH1 0x0 KECCAK256 ADD PUSH2 0x122D DUP7 DUP3 SLOAD PUSH2 0x2780 JUMP JUMPDEST SWAP1 SSTORE SLOAD AND PUSH1 0x0 MSTORE MSTORE PUSH2 0x1245 PUSH1 0x40 PUSH1 0x0 KECCAK256 SWAP2 DUP3 SLOAD PUSH2 0x2780 JUMP JUMPDEST SWAP1 SSTORE PUSH1 0x10 SLOAD PUSH2 0x2773 JUMP JUMPDEST PUSH1 0x10 SSTORE PUSH1 0x11 SLOAD PUSH2 0x2780 JUMP JUMPDEST PUSH1 0x11 SSTORE DUP2 DUP1 DUP1 DUP1 DUP1 PUSH2 0x11A9 JUMP JUMPDEST PUSH4 0x4E487B71 PUSH1 0xE0 SHL PUSH1 0x0 MSTORE PUSH1 0x11 PUSH1 0x4 MSTORE PUSH1 0x24 PUSH1 0x0 REVERT JUMPDEST PUSH1 0x64 SWAP1 PUSH1 0x40 MLOAD SWAP1 PUSH3 0x461BCD PUSH1 0xE5 SHL DUP3 MSTORE PUSH1 0x4 DUP3 ADD MSTORE PUSH1 0x1B PUSH1 0x24 DUP3 ADD MSTORE PUSH32 0x416C726561647920766965776564207468697320636F6E74656E740000000000 PUSH1 0x44 DUP3 ADD MSTORE REVERT JUMPDEST POP PUSH1 0x2 SLOAD DUP3 GT ISZERO PUSH2 0x10EF JUMP JUMPDEST CALLVALUE PUSH2 0x22F JUMPI PUSH1 0x40 CALLDATASIZE PUSH1 0x3 NOT ADD SLT PUSH2 0x22F JUMPI PUSH2 0x12E6 PUSH2 0x22C1 JUMP JUMPDEST PUSH1 0x4 CALLDATALOAD PUSH1 0x0 MSTORE PUSH1 0xC PUSH1 0x20 MSTORE PUSH1 0x40 PUSH1 0x0 KECCAK256 SWAP1 PUSH1 0x1 DUP1 PUSH1 0xA0 SHL SUB AND PUSH1 0x0 MSTORE PUSH1 0x20 MSTORE PUSH1 0x20 PUSH1 0xFF PUSH1 0x40 PUSH1 0x0 KECCAK256 SLOAD AND PUSH1 0x40 MLOAD SWAP1 ISZERO ISZERO DUP2 MSTORE RETURN JUMPDEST CALLVALUE PUSH2 0x22F JUMPI PUSH1 0x0 CALLDATASIZE PUSH1 0x3 NOT ADD SLT PUSH2 0x22F JUMPI PUSH2 0x1333 PUSH2 0x257E JUMP JUMPDEST PUSH1 0x1 DUP1 SLOAD PUSH1 0x1 PUSH1 0x1 PUSH1 0xA0 SHL SUB NOT DUP2 AND SWAP1 SWAP2 SSTORE PUSH1 0x0 SWAP1 PUSH1 0x1 PUSH1 0x1 PUSH1 0xA0 SHL SUB AND PUSH32 0x8BE0079C531659141344CD1FD0A4F28419497F9722A3DAAFE3B4186F6B6457E0 DUP3 DUP1 LOG3 STOP JUMPDEST CALLVALUE PUSH2 0x22F JUMPI PUSH1 0x20 CALLDATASIZE PUSH1 0x3 NOT ADD SLT PUSH2 0x22F JUMPI PUSH1 0x4 CALLDATALOAD PUSH1 0xF SLOAD DUP2 LT ISZERO PUSH2 0x22F JUMPI PUSH1 0x20 SWAP1 PUSH1 0xF PUSH1 0x0 MSTORE PUSH32 0x8D1108E10BCB7C27DDDFC02ED9D693A074039D026CF4EA4240B40F7D581AC802 ADD SLOAD PUSH1 0x40 MLOAD SWAP1 DUP2 MSTORE RETURN JUMPDEST PUSH1 0x0 CALLDATASIZE PUSH1 0x3 NOT ADD SLT PUSH2 0x22F JUMPI CALLVALUE ISZERO PUSH2 0x13E6 JUMPI PUSH2 0x25 CALLVALUE PUSH1 0x10 SLOAD PUSH2 0x2780 JUMP JUMPDEST PUSH1 0x40 MLOAD PUSH3 0x461BCD PUSH1 0xE5 SHL DUP2 MSTORE PUSH1 0x20 PUSH1 0x4 DUP3 ADD MSTORE PUSH1 0x15 PUSH1 0x24 DUP3 ADD MSTORE PUSH21 0x4D7573742073656E64204244414720746F6B656E73 PUSH1 0x58 SHL PUSH1 0x44 DUP3 ADD MSTORE PUSH1 0x64 SWAP1 REVERT JUMPDEST CALLVALUE PUSH2 0x22F JUMPI PUSH1 0x20 DUP1 PUSH1 0x3 NOT CALLDATASIZE ADD SLT PUSH2 0x22F JUMPI PUSH1 0x4 CALLDATALOAD SWAP1 DUP2 ISZERO ISZERO DUP1 PUSH2 0x1533 JUMPI JUMPDEST PUSH2 0x144B SWAP1 PUSH2 0x26EA JUMP JUMPDEST DUP2 PUSH1 0x0 MSTORE PUSH1 0x5 DUP2 MSTORE PUSH2 0x1467 PUSH1 0xFF PUSH1 0xA PUSH1 0x40 PUSH1 0x0 KECCAK256 ADD SLOAD AND PUSH2 0x272F JUMP JUMPDEST DUP2 PUSH1 0x0 MSTORE PUSH1 0xA DUP2 MSTORE PUSH1 0x40 PUSH1 0x0 KECCAK256 CALLER PUSH1 0x0 MSTORE DUP2 MSTORE PUSH1 0xFF PUSH1 0x40 PUSH1 0x0 KECCAK256 SLOAD AND PUSH2 0x14EF JUMPI PUSH1 0x5 SWAP1 DUP3 PUSH1 0x0 MSTORE PUSH1 0xA DUP2 MSTORE PUSH1 0x40 PUSH1 0x0 KECCAK256 CALLER PUSH1 0x0 MSTORE DUP2 MSTORE PUSH1 0x40 PUSH1 0x0 KECCAK256 PUSH1 0x1 PUSH1 0xFF NOT DUP3 SLOAD AND OR SWAP1 SSTORE DUP3 PUSH1 0x0 MSTORE MSTORE PUSH1 0x6 PUSH1 0x40 PUSH1 0x0 KECCAK256 ADD PUSH2 0x14C4 DUP2 SLOAD PUSH2 0x26DB JUMP JUMPDEST SWAP1 SSTORE CALLER SWAP1 PUSH32 0xC1EE4EF2A83783B48695C42CB439EB134FC379F78E9E472AF571A5A04B7CFDC9 PUSH1 0x0 DUP1 LOG3 STOP JUMPDEST PUSH1 0x64 SWAP1 PUSH1 0x40 MLOAD SWAP1 PUSH3 0x461BCD PUSH1 0xE5 SHL DUP3 MSTORE PUSH1 0x4 DUP3 ADD MSTORE PUSH1 0x1A PUSH1 0x24 DUP3 ADD MSTORE PUSH32 0x416C7265616479206C696B6564207468697320636F6E74656E74000000000000 PUSH1 0x44 DUP3 ADD MSTORE REVERT JUMPDEST POP PUSH1 0x2 SLOAD DUP3 GT ISZERO PUSH2 0x1442 JUMP JUMPDEST CALLVALUE PUSH2 0x22F JUMPI PUSH1 0x20 DUP1 PUSH1 0x3 NOT CALLDATASIZE ADD SLT PUSH2 0x22F JUMPI PUSH1 0x4 CALLDATALOAD SWAP1 DUP2 ISZERO ISZERO DUP1 PUSH2 0x1665 JUMPI JUMPDEST PUSH2 0x1567 SWAP1 PUSH2 0x27F3 JUMP JUMPDEST DUP2 PUSH1 0x0 MSTORE PUSH1 0x6 DUP2 MSTORE PUSH2 0x1583 PUSH1 0xFF PUSH1 0x7 PUSH1 0x40 PUSH1 0x0 KECCAK256 ADD SLOAD AND PUSH2 0x2837 JUMP JUMPDEST DUP2 PUSH1 0x0 MSTORE PUSH1 0xC DUP2 MSTORE PUSH1 0x40 PUSH1 0x0 KECCAK256 CALLER PUSH1 0x0 MSTORE DUP2 MSTORE PUSH1 0xFF PUSH1 0x40 PUSH1 0x0 KECCAK256 SLOAD AND PUSH2 0x1621 JUMPI PUSH1 0x8 SWAP1 DUP3 PUSH1 0x0 MSTORE PUSH1 0xC DUP2 MSTORE PUSH1 0x40 PUSH1 0x0 KECCAK256 CALLER PUSH1 0x0 MSTORE DUP2 MSTORE PUSH1 0x40 PUSH1 0x0 KECCAK256 PUSH1 0x1 PUSH1 0xFF NOT DUP3 SLOAD AND OR SWAP1 SSTORE DUP3 PUSH1 0x0 MSTORE PUSH1 0x6 DUP2 MSTORE PUSH1 0x6 PUSH1 0x40 PUSH1 0x0 KECCAK256 ADD PUSH2 0x15E3 DUP2 SLOAD PUSH2 0x26DB JUMP JUMPDEST SWAP1 SSTORE CALLER PUSH1 0x0 MSTORE MSTORE PUSH2 0x15F8 DUP2 PUSH1 0x40 PUSH1 0x0 KECCAK256 PUSH2 0x26B2 JUMP JUMPDEST CALLER SWAP1 PUSH32 0xD1A80C70750F3AE815515EC08D02C6202510AA13797609FE270E902CDFD99F03 PUSH1 0x0 DUP1 LOG3 STOP JUMPDEST PUSH1 0x64 SWAP1 PUSH1 0x40 MLOAD SWAP1 PUSH3 0x461BCD PUSH1 0xE5 SHL DUP3 MSTORE PUSH1 0x4 DUP3 ADD MSTORE PUSH1 0x1F PUSH1 0x24 DUP3 ADD MSTORE PUSH32 0x416C726561647920656E726F6C6C656420696E207468697320636F7572736500 PUSH1 0x44 DUP3 ADD MSTORE REVERT JUMPDEST POP PUSH1 0x3 SLOAD DUP3 GT ISZERO PUSH2 0x155E JUMP JUMPDEST CALLVALUE PUSH2 0x22F JUMPI PUSH1 0x0 CALLDATASIZE PUSH1 0x3 NOT ADD SLT PUSH2 0x22F JUMPI PUSH1 0x40 MLOAD DUP1 PUSH1 0xE SLOAD DUP1 DUP3 MSTORE DUP3 PUSH1 0x20 DUP1 SWAP4 ADD PUSH1 0xE PUSH1 0x0 MSTORE PUSH32 0xBB7B4A454DC3493923482F07822329ED19E8244EFF582CC204F8554C3620C3FD SWAP3 PUSH1 0x0 JUMPDEST DUP6 DUP3 DUP3 LT PUSH2 0x16E7 JUMPI POP POP POP PUSH2 0x16D3 SWAP3 POP SUB DUP4 PUSH2 0x2382 JUMP JUMPDEST PUSH2 0x4C8 PUSH1 0x40 MLOAD SWAP3 DUP3 DUP5 SWAP4 DUP5 MSTORE DUP4 ADD SWAP1 PUSH2 0x22D7 JUMP JUMPDEST DUP6 SLOAD DUP5 MSTORE PUSH1 0x1 SWAP6 DUP7 ADD SWAP6 DUP9 SWAP6 POP SWAP4 ADD SWAP3 ADD PUSH2 0x16BC JUMP JUMPDEST CALLVALUE PUSH2 0x22F JUMPI PUSH1 0x0 CALLDATASIZE PUSH1 0x3 NOT ADD SLT PUSH2 0x22F JUMPI PUSH1 0x20 PUSH1 0x40 MLOAD PUSH1 0xC8 DUP2 MSTORE RETURN JUMPDEST CALLVALUE PUSH2 0x22F JUMPI PUSH1 0x20 CALLDATASIZE PUSH1 0x3 NOT ADD SLT PUSH2 0x22F JUMPI PUSH1 0x4 CALLDATALOAD PUSH1 0xE SLOAD DUP2 LT ISZERO PUSH2 0x22F JUMPI PUSH2 0x1742 PUSH1 0x20 SWAP2 PUSH2 0x2467 JUMP JUMPDEST SWAP1 SLOAD PUSH1 0x40 MLOAD SWAP2 PUSH1 0x3 SHL SHR DUP2 MSTORE RETURN JUMPDEST CALLVALUE PUSH2 0x22F JUMPI PUSH1 0x40 CALLDATASIZE PUSH1 0x3 NOT ADD SLT PUSH2 0x22F JUMPI PUSH2 0x1769 PUSH2 0x22C1 JUMP JUMPDEST PUSH1 0x4 CALLDATALOAD PUSH1 0x0 MSTORE PUSH1 0xD PUSH1 0x20 MSTORE PUSH1 0x40 PUSH1 0x0 KECCAK256 SWAP1 PUSH1 0x1 DUP1 PUSH1 0xA0 SHL SUB AND PUSH1 0x0 MSTORE PUSH1 0x20 MSTORE PUSH1 0x20 PUSH1 0xFF PUSH1 0x40 PUSH1 0x0 KECCAK256 SLOAD AND PUSH1 0x40 MLOAD SWAP1 ISZERO ISZERO DUP2 MSTORE RETURN JUMPDEST CALLVALUE PUSH2 0x22F JUMPI PUSH2 0x17AB CALLDATASIZE PUSH2 0x2405 JUMP JUMPDEST PUSH2 0x17B7 DUP5 MLOAD ISZERO ISZERO PUSH2 0x25D6 JUMP JUMPDEST PUSH2 0x17C3 DUP4 MLOAD ISZERO ISZERO PUSH2 0x261A JUMP JUMPDEST PUSH2 0x17CF DUP3 MLOAD ISZERO ISZERO PUSH2 0x2666 JUMP JUMPDEST DUP1 ISZERO PUSH2 0x1CB9 JUMPI PUSH1 0x1 PUSH1 0x3 SLOAD ADD SWAP3 DUP4 PUSH1 0x3 SSTORE PUSH1 0x40 MLOAD SWAP2 PUSH2 0x120 DUP4 ADD DUP4 DUP2 LT PUSH1 0x1 PUSH1 0x1 PUSH1 0x40 SHL SUB DUP3 GT OR PUSH2 0x88F JUMPI PUSH1 0x40 MSTORE DUP5 DUP4 MSTORE PUSH1 0x20 DUP4 ADD SWAP4 CALLER DUP6 MSTORE PUSH1 0x40 DUP5 ADD SWAP3 DUP8 DUP5 MSTORE PUSH1 0x60 DUP6 ADD MSTORE PUSH1 0x80 DUP5 ADD MSTORE PUSH1 0xA0 DUP4 ADD MSTORE PUSH1 0x0 PUSH1 0xC0 DUP4 ADD MSTORE PUSH1 0x1 PUSH1 0xE0 DUP4 ADD MSTORE TIMESTAMP PUSH2 0x100 DUP4 ADD MSTORE DUP4 PUSH1 0x0 MSTORE PUSH1 0x6 PUSH1 0x20 MSTORE PUSH1 0x40 PUSH1 0x0 KECCAK256 SWAP3 DUP3 MLOAD DUP5 SSTORE PUSH1 0x1 DUP5 ADD SWAP1 PUSH1 0x1 DUP1 PUSH1 0xA0 SHL SUB SWAP1 MLOAD AND PUSH1 0x1 PUSH1 0x1 PUSH1 0x60 SHL SUB PUSH1 0xA0 SHL DUP3 SLOAD AND OR SWAP1 SSTORE MLOAD DUP1 MLOAD SWAP1 PUSH1 0x1 PUSH1 0x1 PUSH1 0x40 SHL SUB DUP3 GT PUSH2 0x88F JUMPI DUP2 SWAP1 PUSH2 0x1889 PUSH1 0x2 DUP7 ADD SLOAD PUSH2 0x249E JUMP JUMPDEST PUSH1 0x1F DUP2 GT PUSH2 0x1C66 JUMPI JUMPDEST POP PUSH1 0x20 SWAP1 PUSH1 0x1F DUP4 GT PUSH1 0x1 EQ PUSH2 0x1BF4 JUMPI PUSH1 0x0 SWAP3 PUSH2 0x1BE9 JUMPI JUMPDEST POP POP DUP2 PUSH1 0x1 SHL SWAP2 PUSH1 0x0 NOT SWAP1 PUSH1 0x3 SHL SHR NOT AND OR PUSH1 0x2 DUP4 ADD SSTORE JUMPDEST PUSH1 0x60 DUP2 ADD MLOAD DUP1 MLOAD SWAP1 PUSH1 0x1 PUSH1 0x1 PUSH1 0x40 SHL SUB DUP3 GT PUSH2 0x88F JUMPI DUP2 SWAP1 PUSH2 0x18E6 PUSH1 0x3 DUP7 ADD SLOAD PUSH2 0x249E JUMP JUMPDEST PUSH1 0x1F DUP2 GT PUSH2 0x1B96 JUMPI JUMPDEST POP PUSH1 0x20 SWAP1 PUSH1 0x1F DUP4 GT PUSH1 0x1 EQ PUSH2 0x1B24 JUMPI PUSH1 0x0 SWAP3 PUSH2 0x1B19 JUMPI JUMPDEST POP POP DUP2 PUSH1 0x1 SHL SWAP2 PUSH1 0x0 NOT SWAP1 PUSH1 0x3 SHL SHR NOT AND OR PUSH1 0x3 DUP4 ADD SSTORE JUMPDEST PUSH1 0x80 DUP2 ADD MLOAD DUP1 MLOAD SWAP1 PUSH1 0x1 PUSH1 0x1 PUSH1 0x40 SHL SUB DUP3 GT PUSH2 0x88F JUMPI PUSH2 0x1941 PUSH1 0x4 DUP6 ADD SLOAD PUSH2 0x249E JUMP JUMPDEST PUSH1 0x1F DUP2 GT PUSH2 0x1AD2 JUMPI JUMPDEST POP PUSH1 0x20 SWAP1 PUSH1 0x1F DUP4 GT PUSH1 0x1 EQ PUSH2 0x1A5C JUMPI SWAP2 DUP1 PUSH1 0x8 SWAP5 SWAP3 PUSH2 0x100 SWAP5 PUSH1 0x0 SWAP3 PUSH2 0x1A51 JUMPI JUMPDEST POP POP DUP2 PUSH1 0x1 SHL SWAP2 PUSH1 0x0 NOT SWAP1 PUSH1 0x3 SHL SHR NOT AND OR PUSH1 0x4 DUP6 ADD SSTORE JUMPDEST PUSH1 0xA0 DUP2 ADD MLOAD PUSH1 0x5 DUP6 ADD SSTORE PUSH1 0xC0 DUP2 ADD MLOAD PUSH1 0x6 DUP6 ADD SSTORE PUSH2 0x19B6 PUSH1 0xE0 DUP3 ADD MLOAD ISZERO ISZERO PUSH1 0x7 DUP7 ADD SWAP1 PUSH1 0xFF DUP1 NOT DUP4 SLOAD AND SWAP2 ISZERO ISZERO AND OR SWAP1 SSTORE JUMP JUMPDEST ADD MLOAD SWAP2 ADD SSTORE PUSH1 0xF SLOAD PUSH1 0x1 PUSH1 0x40 SHL DUP2 LT ISZERO PUSH2 0x88F JUMPI PUSH1 0x1 DUP2 ADD DUP1 PUSH1 0xF SSTORE DUP2 LT ISZERO PUSH2 0x1A3B JUMPI DUP2 SWAP1 PUSH1 0xF PUSH1 0x0 MSTORE PUSH32 0x8D1108E10BCB7C27DDDFC02ED9D693A074039D026CF4EA4240B40F7D581AC802 ADD SSTORE PUSH32 0xD26EE57739C2F8845178C96A37348973F3EDC5907D342CDF65382F9A84474B89 PUSH1 0x40 MLOAD PUSH1 0x20 DUP2 MSTORE DUP1 PUSH2 0x88A CALLER SWAP6 PUSH1 0x20 DUP4 ADD SWAP1 PUSH2 0x230B JUMP JUMPDEST PUSH4 0x4E487B71 PUSH1 0xE0 SHL PUSH1 0x0 MSTORE PUSH1 0x32 PUSH1 0x4 MSTORE PUSH1 0x24 PUSH1 0x0 REVERT JUMPDEST ADD MLOAD SWAP1 POP DUP9 DUP1 PUSH2 0x196B JUMP JUMPDEST SWAP1 PUSH1 0x4 DUP6 ADD PUSH1 0x0 MSTORE PUSH1 0x20 PUSH1 0x0 KECCAK256 SWAP2 PUSH1 0x0 JUMPDEST PUSH1 0x1F NOT DUP6 AND DUP2 LT PUSH2 0x1ABA JUMPI POP SWAP3 PUSH1 0x8 SWAP5 SWAP3 PUSH1 0x1 SWAP3 PUSH2 0x100 SWAP6 DUP4 PUSH1 0x1F NOT DUP2 AND LT PUSH2 0x1AA1 JUMPI JUMPDEST POP POP POP DUP2 SHL ADD PUSH1 0x4 DUP6 ADD SSTORE PUSH2 0x1983 JUMP JUMPDEST ADD MLOAD PUSH1 0x0 NOT PUSH1 0xF8 DUP5 PUSH1 0x3 SHL AND SHR NOT AND SWAP1 SSTORE DUP9 DUP1 DUP1 PUSH2 0x1A91 JUMP JUMPDEST SWAP2 SWAP3 PUSH1 0x20 PUSH1 0x1 DUP2 SWAP3 DUP7 DUP6 ADD MLOAD DUP2 SSTORE ADD SWAP5 ADD SWAP3 ADD PUSH2 0x1A6D JUMP JUMPDEST PUSH1 0x4 DUP6 ADD PUSH1 0x0 MSTORE PUSH1 0x20 PUSH1 0x0 KECCAK256 PUSH1 0x1F DUP5 ADD PUSH1 0x5 SHR DUP2 ADD PUSH1 0x20 DUP6 LT PUSH2 0x1B12 JUMPI JUMPDEST PUSH1 0x1F DUP4 ADD PUSH1 0x5 SHR DUP3 ADD DUP2 LT PUSH2 0x1B06 JUMPI POP POP PUSH2 0x194A JUMP JUMPDEST PUSH1 0x0 DUP2 SSTORE PUSH1 0x1 ADD PUSH2 0x1AF0 JUMP JUMPDEST POP DUP1 PUSH2 0x1AF0 JUMP JUMPDEST ADD MLOAD SWAP1 POP DUP7 DUP1 PUSH2 0x1906 JUMP JUMPDEST SWAP3 POP PUSH1 0x3 DUP6 ADD PUSH1 0x0 MSTORE PUSH1 0x20 PUSH1 0x0 KECCAK256 SWAP1 PUSH1 0x0 SWAP4 JUMPDEST PUSH1 0x1F NOT DUP5 AND DUP6 LT PUSH2 0x1B7B JUMPI PUSH1 0x1 SWAP5 POP DUP4 PUSH1 0x1F NOT DUP2 AND LT PUSH2 0x1B62 JUMPI JUMPDEST POP POP POP DUP2 SHL ADD PUSH1 0x3 DUP4 ADD SSTORE PUSH2 0x191E JUMP JUMPDEST ADD MLOAD PUSH1 0x0 NOT PUSH1 0xF8 DUP5 PUSH1 0x3 SHL AND SHR NOT AND SWAP1 SSTORE DUP7 DUP1 DUP1 PUSH2 0x1B52 JUMP JUMPDEST DUP2 DUP2 ADD MLOAD DUP4 SSTORE PUSH1 0x20 SWAP5 DUP6 ADD SWAP5 PUSH1 0x1 SWAP1 SWAP4 ADD SWAP3 SWAP1 SWAP2 ADD SWAP1 PUSH2 0x1B37 JUMP JUMPDEST SWAP1 SWAP2 POP PUSH1 0x3 DUP6 ADD PUSH1 0x0 MSTORE PUSH1 0x20 PUSH1 0x0 KECCAK256 PUSH1 0x1F DUP5 ADD PUSH1 0x5 SHR DUP2 ADD PUSH1 0x20 DUP6 LT PUSH2 0x1BE2 JUMPI JUMPDEST SWAP1 DUP5 SWAP4 SWAP3 SWAP2 JUMPDEST PUSH1 0x1F DUP4 ADD PUSH1 0x5 SHR DUP3 ADD DUP2 LT PUSH2 0x1BD3 JUMPI POP POP PUSH2 0x18EF JUMP JUMPDEST PUSH1 0x0 DUP2 SSTORE DUP6 SWAP5 POP PUSH1 0x1 ADD PUSH2 0x1BBD JUMP JUMPDEST POP DUP1 PUSH2 0x1BB7 JUMP JUMPDEST ADD MLOAD SWAP1 POP DUP7 DUP1 PUSH2 0x18A9 JUMP JUMPDEST SWAP3 POP PUSH1 0x2 DUP6 ADD PUSH1 0x0 MSTORE PUSH1 0x20 PUSH1 0x0 KECCAK256 SWAP1 PUSH1 0x0 SWAP4 JUMPDEST PUSH1 0x1F NOT DUP5 AND DUP6 LT PUSH2 0x1C4B JUMPI PUSH1 0x1 SWAP5 POP DUP4 PUSH1 0x1F NOT DUP2 AND LT PUSH2 0x1C32 JUMPI JUMPDEST POP POP POP DUP2 SHL ADD PUSH1 0x2 DUP4 ADD SSTORE PUSH2 0x18C1 JUMP JUMPDEST ADD MLOAD PUSH1 0x0 NOT PUSH1 0xF8 DUP5 PUSH1 0x3 SHL AND SHR NOT AND SWAP1 SSTORE DUP7 DUP1 DUP1 PUSH2 0x1C22 JUMP JUMPDEST DUP2 DUP2 ADD MLOAD DUP4 SSTORE PUSH1 0x20 SWAP5 DUP6 ADD SWAP5 PUSH1 0x1 SWAP1 SWAP4 ADD SWAP3 SWAP1 SWAP2 ADD SWAP1 PUSH2 0x1C07 JUMP JUMPDEST SWAP1 SWAP2 POP PUSH1 0x2 DUP6 ADD PUSH1 0x0 MSTORE PUSH1 0x20 PUSH1 0x0 KECCAK256 PUSH1 0x1F DUP5 ADD PUSH1 0x5 SHR DUP2 ADD PUSH1 0x20 DUP6 LT PUSH2 0x1CB2 JUMPI JUMPDEST SWAP1 DUP5 SWAP4 SWAP3 SWAP2 JUMPDEST PUSH1 0x1F DUP4 ADD PUSH1 0x5 SHR DUP3 ADD DUP2 LT PUSH2 0x1CA3 JUMPI POP POP PUSH2 0x1892 JUMP JUMPDEST PUSH1 0x0 DUP2 SSTORE DUP6 SWAP5 POP PUSH1 0x1 ADD PUSH2 0x1C8D JUMP JUMPDEST POP DUP1 PUSH2 0x1C87 JUMP JUMPDEST PUSH1 0x40 MLOAD PUSH3 0x461BCD PUSH1 0xE5 SHL DUP2 MSTORE PUSH1 0x20 PUSH1 0x4 DUP3 ADD MSTORE PUSH1 0x1F PUSH1 0x24 DUP3 ADD MSTORE PUSH32 0x4475726174696F6E206D7573742062652067726561746572207468616E203000 PUSH1 0x44 DUP3 ADD MSTORE PUSH1 0x64 SWAP1 REVERT JUMPDEST CALLVALUE PUSH2 0x22F JUMPI PUSH1 0x0 CALLDATASIZE PUSH1 0x3 NOT ADD SLT PUSH2 0x22F JUMPI PUSH1 0x0 DUP1 PUSH1 0xE SLOAD JUMPDEST DUP1 DUP4 LT PUSH2 0x1D4C JUMPI PUSH1 0xA0 DUP3 PUSH1 0x2 SLOAD SWAP1 PUSH1 0x3 SLOAD SWAP1 PUSH1 0x10 SLOAD SWAP1 PUSH1 0x11 SLOAD SWAP3 PUSH1 0x40 MLOAD SWAP5 DUP6 MSTORE PUSH1 0x20 DUP6 ADD MSTORE PUSH1 0x40 DUP5 ADD MSTORE PUSH1 0x60 DUP4 ADD MSTORE PUSH1 0x80 DUP3 ADD MSTORE RETURN JUMPDEST SWAP1 PUSH2 0x1D7A PUSH2 0x1D80 SWAP2 PUSH2 0x1D5D DUP6 PUSH2 0x2467 JUMP JUMPDEST SWAP1 SLOAD SWAP1 PUSH1 0x3 SHL SHR PUSH1 0x0 MSTORE PUSH1 0x5 DUP1 PUSH1 0x20 MSTORE PUSH1 0x40 PUSH1 0x0 KECCAK256 ADD SLOAD SWAP1 PUSH2 0x2780 JUMP JUMPDEST SWAP3 PUSH2 0x26DB JUMP JUMPDEST SWAP2 SWAP1 PUSH2 0x1D16 JUMP JUMPDEST CALLVALUE PUSH2 0x22F JUMPI PUSH1 0x20 DUP1 PUSH1 0x3 NOT CALLDATASIZE ADD SLT PUSH2 0x22F JUMPI PUSH1 0x4 CALLDATALOAD SWAP1 DUP2 ISZERO ISZERO DUP1 PUSH2 0x1F1C JUMPI JUMPDEST PUSH2 0x1DAF SWAP1 PUSH2 0x27F3 JUMP JUMPDEST DUP2 PUSH1 0x0 MSTORE PUSH1 0x6 DUP2 MSTORE PUSH2 0x1DCB PUSH1 0xFF PUSH1 0x7 PUSH1 0x40 PUSH1 0x0 KECCAK256 ADD SLOAD AND PUSH2 0x2837 JUMP JUMPDEST DUP2 PUSH1 0x0 MSTORE PUSH1 0xC DUP2 MSTORE PUSH1 0x40 PUSH1 0x0 KECCAK256 CALLER PUSH1 0x0 MSTORE DUP2 MSTORE PUSH1 0xFF PUSH1 0x40 PUSH1 0x0 KECCAK256 SLOAD AND ISZERO PUSH2 0x1ED8 JUMPI DUP2 PUSH1 0x0 MSTORE PUSH1 0xD DUP2 MSTORE PUSH1 0x40 PUSH1 0x0 KECCAK256 CALLER PUSH1 0x0 MSTORE DUP2 MSTORE PUSH1 0xFF PUSH1 0x40 PUSH1 0x0 KECCAK256 SLOAD AND PUSH2 0x1E94 JUMPI DUP2 PUSH1 0x0 MSTORE PUSH1 0xD DUP2 MSTORE PUSH1 0x40 PUSH1 0x0 KECCAK256 CALLER PUSH1 0x0 MSTORE DUP2 MSTORE PUSH1 0x40 PUSH1 0x0 KECCAK256 SWAP1 PUSH1 0xFF NOT SWAP2 PUSH1 0x1 DUP4 DUP3 SLOAD AND OR SWAP1 SSTORE PUSH1 0x8 DUP2 MSTORE PUSH2 0x1E47 DUP4 PUSH1 0x1 PUSH1 0x40 PUSH1 0x0 KECCAK256 ADD PUSH2 0x26B2 JUMP JUMPDEST CALLER PUSH1 0x0 MSTORE PUSH1 0x8 DUP2 MSTORE PUSH1 0x2 PUSH1 0x40 PUSH1 0x0 KECCAK256 ADD SWAP1 DUP4 PUSH1 0x0 MSTORE MSTORE PUSH1 0x1 PUSH1 0x40 PUSH1 0x0 KECCAK256 SWAP2 DUP3 SLOAD AND OR SWAP1 SSTORE CALLER SWAP1 PUSH32 0x5BC083177651AB30489541022F7C6061DA5D7D2157EA382267EA584EAC645782 PUSH1 0x0 DUP1 LOG3 STOP JUMPDEST PUSH1 0x64 SWAP1 PUSH1 0x40 MLOAD SWAP1 PUSH3 0x461BCD PUSH1 0xE5 SHL DUP3 MSTORE PUSH1 0x4 DUP3 ADD MSTORE PUSH1 0x1D PUSH1 0x24 DUP3 ADD MSTORE PUSH32 0x416C726561647920636F6D706C65746564207468697320636F75727365000000 PUSH1 0x44 DUP3 ADD MSTORE REVERT JUMPDEST PUSH1 0x64 SWAP1 PUSH1 0x40 MLOAD SWAP1 PUSH3 0x461BCD PUSH1 0xE5 SHL DUP3 MSTORE PUSH1 0x4 DUP3 ADD MSTORE PUSH1 0x1B PUSH1 0x24 DUP3 ADD MSTORE PUSH32 0x4E6F7420656E726F6C6C656420696E207468697320636F757273650000000000 PUSH1 0x44 DUP3 ADD MSTORE REVERT JUMPDEST POP PUSH1 0x3 SLOAD DUP3 GT ISZERO PUSH2 0x1DA6 JUMP JUMPDEST CALLVALUE PUSH2 0x22F JUMPI PUSH1 0x40 CALLDATASIZE PUSH1 0x3 NOT ADD SLT PUSH2 0x22F JUMPI PUSH1 0x1 PUSH1 0x1 PUSH1 0xA0 SHL SUB PUSH2 0x1F49 PUSH2 0x22AB JUMP JUMPDEST AND PUSH1 0x0 MSTORE PUSH1 0x8 PUSH1 0x20 MSTORE PUSH1 0x2 PUSH1 0x40 PUSH1 0x0 KECCAK256 ADD PUSH1 0x24 CALLDATALOAD PUSH1 0x0 MSTORE PUSH1 0x20 MSTORE PUSH1 0x20 PUSH1 0xFF PUSH1 0x40 PUSH1 0x0 KECCAK256 SLOAD AND PUSH1 0x40 MLOAD SWAP1 ISZERO ISZERO DUP2 MSTORE RETURN JUMPDEST CALLVALUE PUSH2 0x22F JUMPI PUSH1 0x20 CALLDATASIZE PUSH1 0x3 NOT ADD SLT PUSH2 0x22F JUMPI PUSH1 0x0 PUSH2 0x140 PUSH1 0x40 MLOAD PUSH2 0x1F9A DUP2 PUSH2 0x234B JUMP JUMPDEST DUP3 DUP2 MSTORE DUP3 PUSH1 0x20 DUP3 ADD MSTORE PUSH1 0x60 PUSH1 0x40 DUP3 ADD MSTORE PUSH1 0x60 DUP1 DUP3 ADD MSTORE PUSH1 0x60 PUSH1 0x80 DUP3 ADD MSTORE DUP3 PUSH1 0xA0 DUP3 ADD MSTORE DUP3 PUSH1 0xC0 DUP3 ADD MSTORE DUP3 PUSH1 0xE0 DUP3 ADD MSTORE DUP3 PUSH2 0x100 DUP3 ADD MSTORE DUP3 PUSH2 0x120 DUP3 ADD MSTORE ADD MSTORE PUSH1 0x4 CALLDATALOAD PUSH1 0x0 MSTORE PUSH1 0x5 PUSH1 0x20 MSTORE PUSH1 0x40 PUSH1 0x0 KECCAK256 PUSH1 0xFF PUSH1 0xA PUSH1 0x40 MLOAD SWAP3 PUSH2 0x1FFA DUP5 PUSH2 0x234B JUMP JUMPDEST DUP1 SLOAD DUP5 MSTORE PUSH1 0x1 DUP2 ADD SLOAD PUSH1 0x1 PUSH1 0x1 PUSH1 0xA0 SHL SUB AND PUSH1 0x20 DUP6 ADD MSTORE PUSH2 0x201D PUSH1 0x2 DUP3 ADD PUSH2 0x24D8 JUMP JUMPDEST PUSH1 0x40 DUP6 ADD MSTORE PUSH2 0x202E PUSH1 0x3 DUP3 ADD PUSH2 0x24D8 JUMP JUMPDEST PUSH1 0x60 DUP6 ADD MSTORE PUSH2 0x203F PUSH1 0x4 DUP3 ADD PUSH2 0x24D8 JUMP JUMPDEST PUSH1 0x80 DUP6 ADD MSTORE PUSH1 0x5 DUP2 ADD SLOAD PUSH1 0xA0 DUP6 ADD MSTORE PUSH1 0x6 DUP2 ADD SLOAD PUSH1 0xC0 DUP6 ADD MSTORE PUSH1 0x7 DUP2 ADD SLOAD PUSH1 0xE0 DUP6 ADD MSTORE PUSH1 0x8 DUP2 ADD SLOAD PUSH2 0x100 DUP6 ADD MSTORE PUSH1 0x9 DUP2 ADD SLOAD PUSH2 0x120 DUP6 ADD MSTORE ADD SLOAD AND ISZERO ISZERO PUSH2 0x140 DUP3 ADD MSTORE PUSH1 0x40 MLOAD DUP1 SWAP2 PUSH1 0x20 DUP3 MSTORE DUP1 MLOAD PUSH1 0x20 DUP4 ADD MSTORE PUSH1 0x1 DUP1 PUSH1 0xA0 SHL SUB PUSH1 0x20 DUP3 ADD MLOAD AND PUSH1 0x40 DUP4 ADD MSTORE PUSH1 0x40 DUP2 ADD MLOAD PUSH2 0x140 PUSH2 0x20F9 PUSH2 0x20C8 PUSH2 0x160 SWAP4 DUP5 PUSH1 0x60 DUP9 ADD MSTORE PUSH2 0x180 DUP8 ADD SWAP1 PUSH2 0x230B JUMP JUMPDEST PUSH2 0x20E4 PUSH1 0x60 DUP7 ADD MLOAD SWAP2 PUSH1 0x1F NOT SWAP3 DUP4 DUP10 DUP4 SUB ADD PUSH1 0x80 DUP11 ADD MSTORE PUSH2 0x230B JUMP JUMPDEST SWAP1 PUSH1 0x80 DUP7 ADD MLOAD SWAP1 DUP8 DUP4 SUB ADD PUSH1 0xA0 DUP9 ADD MSTORE PUSH2 0x230B JUMP JUMPDEST SWAP3 PUSH1 0xA0 DUP2 ADD MLOAD PUSH1 0xC0 DUP7 ADD MSTORE PUSH1 0xC0 DUP2 ADD MLOAD PUSH1 0xE0 DUP7 ADD MSTORE PUSH1 0xE0 DUP2 ADD MLOAD PUSH2 0x100 DUP7 ADD MSTORE PUSH2 0x100 DUP2 ADD MLOAD PUSH2 0x120 DUP7 ADD MSTORE PUSH2 0x120 DUP2 ADD MLOAD DUP3 DUP7 ADD MSTORE ADD MLOAD ISZERO ISZERO SWAP1 DUP4 ADD MSTORE SUB SWAP1 RETURN JUMPDEST CALLVALUE PUSH2 0x22F JUMPI PUSH1 0x0 CALLDATASIZE PUSH1 0x3 NOT ADD SLT PUSH2 0x22F JUMPI PUSH1 0x40 MLOAD DUP1 PUSH1 0xF SLOAD DUP1 DUP3 MSTORE DUP3 PUSH1 0x20 DUP1 SWAP4 ADD PUSH1 0xF PUSH1 0x0 MSTORE PUSH32 0x8D1108E10BCB7C27DDDFC02ED9D693A074039D026CF4EA4240B40F7D581AC802 SWAP3 PUSH1 0x0 JUMPDEST DUP6 DUP3 DUP3 LT PUSH2 0x219D JUMPI POP POP POP PUSH2 0x16D3 SWAP3 POP SUB DUP4 PUSH2 0x2382 JUMP JUMPDEST DUP6 SLOAD DUP5 MSTORE PUSH1 0x1 SWAP6 DUP7 ADD SWAP6 DUP9 SWAP6 POP SWAP4 ADD SWAP3 ADD PUSH2 0x2186 JUMP JUMPDEST CALLVALUE PUSH2 0x22F JUMPI PUSH1 0x20 DUP1 PUSH1 0x3 NOT CALLDATASIZE ADD SLT PUSH2 0x22F JUMPI PUSH1 0x1 PUSH1 0x1 PUSH1 0xA0 SHL SUB SWAP1 DUP2 PUSH2 0x21D7 PUSH2 0x22AB JUMP JUMPDEST AND DUP1 PUSH1 0x0 MSTORE PUSH1 0x7 DUP3 MSTORE PUSH1 0x2 PUSH1 0x40 PUSH1 0x0 KECCAK256 ADD SLOAD SWAP3 PUSH2 0x21F3 DUP5 PUSH2 0x27DC JUMP JUMPDEST SWAP4 PUSH2 0x2201 PUSH1 0x40 MLOAD SWAP6 DUP7 PUSH2 0x2382 JUMP JUMPDEST DUP1 DUP6 MSTORE PUSH2 0x2210 PUSH1 0x1F NOT SWAP2 PUSH2 0x27DC JUMP JUMPDEST ADD CALLDATASIZE DUP5 DUP7 ADD CALLDATACOPY PUSH1 0x0 DUP1 SWAP3 PUSH1 0xE SLOAD SWAP4 JUMPDEST DUP5 DUP2 LT PUSH2 0x2239 JUMPI PUSH1 0x40 MLOAD DUP7 DUP2 MSTORE DUP1 PUSH2 0x4C8 DUP2 DUP10 ADD DUP11 PUSH2 0x22D7 JUMP JUMPDEST PUSH2 0x2242 DUP2 PUSH2 0x2467 JUMP JUMPDEST SWAP1 SLOAD PUSH1 0x3 SWAP2 DUP3 SHL SHR PUSH1 0x0 MSTORE PUSH1 0x5 SWAP1 DUP2 DUP9 MSTORE DUP4 DUP7 PUSH1 0x1 PUSH1 0x40 PUSH1 0x0 KECCAK256 ADD SLOAD AND EQ PUSH2 0x2275 JUMPI JUMPDEST POP POP PUSH2 0x2270 SWAP1 PUSH2 0x26DB JUMP JUMPDEST PUSH2 0x221F JUMP JUMPDEST PUSH2 0x2280 DUP4 SWAP6 SWAP4 PUSH2 0x2467 JUMP JUMPDEST SWAP1 SLOAD SWAP2 SHL SHR SWAP2 DUP9 MLOAD DUP2 LT ISZERO PUSH2 0x1A3B JUMPI PUSH2 0x2270 SWAP3 DUP9 DUP3 PUSH2 0x22A3 SWAP5 SHL DUP12 ADD ADD MSTORE PUSH2 0x26DB JUMP JUMPDEST SWAP3 SWAP1 DUP9 PUSH2 0x2265 JUMP JUMPDEST PUSH1 0x4 CALLDATALOAD SWAP1 PUSH1 0x1 PUSH1 0x1 PUSH1 0xA0 SHL SUB DUP3 AND DUP3 SUB PUSH2 0x22F JUMPI JUMP JUMPDEST PUSH1 0x24 CALLDATALOAD SWAP1 PUSH1 0x1 PUSH1 0x1 PUSH1 0xA0 SHL SUB DUP3 AND DUP3 SUB PUSH2 0x22F JUMPI JUMP JUMPDEST SWAP1 DUP2 MLOAD DUP1 DUP3 MSTORE PUSH1 0x20 DUP1 DUP1 SWAP4 ADD SWAP4 ADD SWAP2 PUSH1 0x0 JUMPDEST DUP3 DUP2 LT PUSH2 0x22F7 JUMPI POP POP POP POP SWAP1 JUMP JUMPDEST DUP4 MLOAD DUP6 MSTORE SWAP4 DUP2 ADD SWAP4 SWAP3 DUP2 ADD SWAP3 PUSH1 0x1 ADD PUSH2 0x22E9 JUMP JUMPDEST SWAP2 SWAP1 DUP3 MLOAD SWAP3 DUP4 DUP3 MSTORE PUSH1 0x0 JUMPDEST DUP5 DUP2 LT PUSH2 0x2337 JUMPI POP POP DUP3 PUSH1 0x0 PUSH1 0x20 DUP1 SWAP5 SWAP6 DUP5 ADD ADD MSTORE PUSH1 0x1F DUP1 NOT SWAP2 ADD AND ADD ADD SWAP1 JUMP JUMPDEST PUSH1 0x20 DUP2 DUP4 ADD DUP2 ADD MLOAD DUP5 DUP4 ADD DUP3 ADD MSTORE ADD PUSH2 0x2316 JUMP JUMPDEST PUSH2 0x160 DUP2 ADD SWAP1 DUP2 LT PUSH1 0x1 PUSH1 0x1 PUSH1 0x40 SHL SUB DUP3 GT OR PUSH2 0x88F JUMPI PUSH1 0x40 MSTORE JUMP JUMPDEST PUSH1 0xA0 DUP2 ADD SWAP1 DUP2 LT PUSH1 0x1 PUSH1 0x1 PUSH1 0x40 SHL SUB DUP3 GT OR PUSH2 0x88F JUMPI PUSH1 0x40 MSTORE JUMP JUMPDEST SWAP1 PUSH1 0x1F DUP1 NOT SWAP2 ADD AND DUP2 ADD SWAP1 DUP2 LT PUSH1 0x1 PUSH1 0x1 PUSH1 0x40 SHL SUB DUP3 GT OR PUSH2 0x88F JUMPI PUSH1 0x40 MSTORE JUMP JUMPDEST PUSH1 0x1 PUSH1 0x1 PUSH1 0x40 SHL SUB DUP2 GT PUSH2 0x88F JUMPI PUSH1 0x1F ADD PUSH1 0x1F NOT AND PUSH1 0x20 ADD SWAP1 JUMP JUMPDEST DUP2 PUSH1 0x1F DUP3 ADD SLT ISZERO PUSH2 0x22F JUMPI DUP1 CALLDATALOAD SWAP1 PUSH2 0x23D5 DUP3 PUSH2 0x23A3 JUMP JUMPDEST SWAP3 PUSH2 0x23E3 PUSH1 0x40 MLOAD SWAP5 DUP6 PUSH2 0x2382 JUMP JUMPDEST DUP3 DUP5 MSTORE PUSH1 0x20 DUP4 DUP4 ADD ADD GT PUSH2 0x22F JUMPI DUP2 PUSH1 0x0 SWAP3 PUSH1 0x20 DUP1 SWAP4 ADD DUP4 DUP7 ADD CALLDATACOPY DUP4 ADD ADD MSTORE SWAP1 JUMP JUMPDEST PUSH1 0x80 PUSH1 0x3 NOT DUP3 ADD SLT PUSH2 0x22F JUMPI PUSH1 0x1 PUSH1 0x1 PUSH1 0x40 SHL SUB SWAP2 PUSH1 0x4 CALLDATALOAD DUP4 DUP2 GT PUSH2 0x22F JUMPI DUP3 PUSH2 0x2431 SWAP2 PUSH1 0x4 ADD PUSH2 0x23BE JUMP JUMPDEST SWAP3 PUSH1 0x24 CALLDATALOAD DUP2 DUP2 GT PUSH2 0x22F JUMPI DUP4 PUSH2 0x2449 SWAP2 PUSH1 0x4 ADD PUSH2 0x23BE JUMP JUMPDEST SWAP3 PUSH1 0x44 CALLDATALOAD SWAP2 DUP3 GT PUSH2 0x22F JUMPI PUSH2 0x2460 SWAP2 PUSH1 0x4 ADD PUSH2 0x23BE JUMP JUMPDEST SWAP1 PUSH1 0x64 CALLDATALOAD SWAP1 JUMP JUMPDEST PUSH1 0xE SLOAD DUP2 LT ISZERO PUSH2 0x1A3B JUMPI PUSH1 0xE PUSH1 0x0 MSTORE PUSH32 0xBB7B4A454DC3493923482F07822329ED19E8244EFF582CC204F8554C3620C3FD ADD SWAP1 PUSH1 0x0 SWAP1 JUMP JUMPDEST SWAP1 PUSH1 0x1 DUP3 DUP2 SHR SWAP3 AND DUP1 ISZERO PUSH2 0x24CE JUMPI JUMPDEST PUSH1 0x20 DUP4 LT EQ PUSH2 0x24B8 JUMPI JUMP JUMPDEST PUSH4 0x4E487B71 PUSH1 0xE0 SHL PUSH1 0x0 MSTORE PUSH1 0x22 PUSH1 0x4 MSTORE PUSH1 0x24 PUSH1 0x0 REVERT JUMPDEST SWAP2 PUSH1 0x7F AND SWAP2 PUSH2 0x24AD JUMP JUMPDEST SWAP1 PUSH1 0x40 MLOAD SWAP2 DUP3 PUSH1 0x0 DUP3 SLOAD SWAP3 PUSH2 0x24EC DUP5 PUSH2 0x249E JUMP JUMPDEST SWAP1 DUP2 DUP5 MSTORE PUSH1 0x1 SWAP5 DUP6 DUP2 AND SWAP1 DUP2 PUSH1 0x0 EQ PUSH2 0x255B JUMPI POP PUSH1 0x1 EQ PUSH2 0x2518 JUMPI JUMPDEST POP POP PUSH2 0x2516 SWAP3 POP SUB DUP4 PUSH2 0x2382 JUMP JUMPDEST JUMP JUMPDEST SWAP1 SWAP4 SWAP2 POP PUSH1 0x0 MSTORE PUSH1 0x20 SWAP1 DUP2 PUSH1 0x0 KECCAK256 SWAP4 PUSH1 0x0 SWAP2 JUMPDEST DUP2 DUP4 LT PUSH2 0x2543 JUMPI POP POP PUSH2 0x2516 SWAP4 POP DUP3 ADD ADD CODESIZE DUP1 PUSH2 0x2508 JUMP JUMPDEST DUP6 SLOAD DUP9 DUP5 ADD DUP6 ADD MSTORE SWAP5 DUP6 ADD SWAP5 DUP8 SWAP5 POP SWAP2 DUP4 ADD SWAP2 PUSH2 0x252B JUMP JUMPDEST SWAP2 POP POP PUSH2 0x2516 SWAP5 POP PUSH1 0x20 SWAP3 POP PUSH1 0xFF NOT AND DUP3 DUP5 ADD MSTORE ISZERO ISZERO PUSH1 0x5 SHL DUP3 ADD ADD CODESIZE DUP1 PUSH2 0x2508 JUMP JUMPDEST PUSH1 0x1 SLOAD PUSH1 0x1 PUSH1 0x1 PUSH1 0xA0 SHL SUB AND CALLER SUB PUSH2 0x2592 JUMPI JUMP JUMPDEST PUSH1 0x64 PUSH1 0x40 MLOAD PUSH3 0x461BCD PUSH1 0xE5 SHL DUP2 MSTORE PUSH1 0x20 PUSH1 0x4 DUP3 ADD MSTORE PUSH1 0x20 PUSH1 0x24 DUP3 ADD MSTORE PUSH32 0x4F776E61626C653A2063616C6C6572206973206E6F7420746865206F776E6572 PUSH1 0x44 DUP3 ADD MSTORE REVERT JUMPDEST ISZERO PUSH2 0x25DD JUMPI JUMP JUMPDEST PUSH1 0x40 MLOAD PUSH3 0x461BCD PUSH1 0xE5 SHL DUP2 MSTORE PUSH1 0x20 PUSH1 0x4 DUP3 ADD MSTORE PUSH1 0x15 PUSH1 0x24 DUP3 ADD MSTORE PUSH21 0x5469746C652063616E6E6F7420626520656D707479 PUSH1 0x58 SHL PUSH1 0x44 DUP3 ADD MSTORE PUSH1 0x64 SWAP1 REVERT JUMPDEST ISZERO PUSH2 0x2621 JUMPI JUMP JUMPDEST PUSH1 0x40 MLOAD PUSH3 0x461BCD PUSH1 0xE5 SHL DUP2 MSTORE PUSH1 0x20 PUSH1 0x4 DUP3 ADD MSTORE PUSH1 0x1B PUSH1 0x24 DUP3 ADD MSTORE PUSH32 0x4465736372697074696F6E2063616E6E6F7420626520656D7074790000000000 PUSH1 0x44 DUP3 ADD MSTORE PUSH1 0x64 SWAP1 REVERT JUMPDEST ISZERO PUSH2 0x266D JUMPI JUMP JUMPDEST PUSH1 0x40 MLOAD PUSH3 0x461BCD PUSH1 0xE5 SHL DUP2 MSTORE PUSH1 0x20 PUSH1 0x4 DUP3 ADD MSTORE PUSH1 0x19 PUSH1 0x24 DUP3 ADD MSTORE PUSH32 0x4950465320686173682063616E6E6F7420626520656D70747900000000000000 PUSH1 0x44 DUP3 ADD MSTORE PUSH1 0x64 SWAP1 REVERT JUMPDEST DUP1 SLOAD SWAP1 PUSH1 0x1 PUSH1 0x40 SHL DUP3 LT ISZERO PUSH2 0x88F JUMPI PUSH1 0x1 DUP3 ADD DUP1 DUP3 SSTORE DUP3 LT ISZERO PUSH2 0x1A3B JUMPI PUSH1 0x0 MSTORE PUSH1 0x20 PUSH1 0x0 KECCAK256 ADD SSTORE JUMP JUMPDEST PUSH1 0x0 NOT DUP2 EQ PUSH2 0x1267 JUMPI PUSH1 0x1 ADD SWAP1 JUMP JUMPDEST ISZERO PUSH2 0x26F1 JUMPI JUMP JUMPDEST PUSH1 0x40 MLOAD PUSH3 0x461BCD PUSH1 0xE5 SHL DUP2 MSTORE PUSH1 0x20 PUSH1 0x4 DUP3 ADD MSTORE PUSH1 0x16 PUSH1 0x24 DUP3 ADD MSTORE PUSH22 0x10DBDB9D195B9D08191BD95CC81B9BDD08195E1A5CDD PUSH1 0x52 SHL PUSH1 0x44 DUP3 ADD MSTORE PUSH1 0x64 SWAP1 REVERT JUMPDEST ISZERO PUSH2 0x2736 JUMPI JUMP JUMPDEST PUSH1 0x40 MLOAD PUSH3 0x461BCD PUSH1 0xE5 SHL DUP2 MSTORE PUSH1 0x20 PUSH1 0x4 DUP3 ADD MSTORE PUSH1 0x15 PUSH1 0x24 DUP3 ADD MSTORE PUSH21 0x436F6E74656E74206973206E6F7420616374697665 PUSH1 0x58 SHL PUSH1 0x44 DUP3 ADD MSTORE PUSH1 0x64 SWAP1 REVERT JUMPDEST SWAP2 SWAP1 DUP3 SUB SWAP2 DUP3 GT PUSH2 0x1267 JUMPI JUMP JUMPDEST SWAP2 SWAP1 DUP3 ADD DUP1 SWAP3 GT PUSH2 0x1267 JUMPI JUMP JUMPDEST SWAP1 PUSH1 0x40 MLOAD SWAP2 DUP3 DUP2 SLOAD SWAP2 DUP3 DUP3 MSTORE PUSH1 0x20 SWAP3 DUP4 DUP4 ADD SWAP2 PUSH1 0x0 MSTORE DUP4 PUSH1 0x0 KECCAK256 SWAP4 PUSH1 0x0 SWAP1 JUMPDEST DUP3 DUP3 LT PUSH2 0x27C2 JUMPI POP POP POP PUSH2 0x2516 SWAP3 POP SUB DUP4 PUSH2 0x2382 JUMP JUMPDEST DUP6 SLOAD DUP5 MSTORE PUSH1 0x1 SWAP6 DUP7 ADD SWAP6 DUP9 SWAP6 POP SWAP4 DUP2 ADD SWAP4 SWAP1 SWAP2 ADD SWAP1 PUSH2 0x27AC JUMP JUMPDEST PUSH1 0x1 PUSH1 0x1 PUSH1 0x40 SHL SUB DUP2 GT PUSH2 0x88F JUMPI PUSH1 0x5 SHL PUSH1 0x20 ADD SWAP1 JUMP JUMPDEST ISZERO PUSH2 0x27FA JUMPI JUMP JUMPDEST PUSH1 0x40 MLOAD PUSH3 0x461BCD PUSH1 0xE5 SHL DUP2 MSTORE PUSH1 0x20 PUSH1 0x4 DUP3 ADD MSTORE PUSH1 0x15 PUSH1 0x24 DUP3 ADD MSTORE PUSH21 0x10DBDD5C9CD948191BD95CC81B9BDD08195E1A5CDD PUSH1 0x5A SHL PUSH1 0x44 DUP3 ADD MSTORE PUSH1 0x64 SWAP1 REVERT JUMPDEST ISZERO PUSH2 0x283E JUMPI JUMP JUMPDEST PUSH1 0x40 MLOAD PUSH3 0x461BCD PUSH1 0xE5 SHL DUP2 MSTORE PUSH1 0x20 PUSH1 0x4 DUP3 ADD MSTORE PUSH1 0x14 PUSH1 0x24 DUP3 ADD MSTORE PUSH20 0x436F75727365206973206E6F7420616374697665 PUSH1 0x60 SHL PUSH1 0x44 DUP3 ADD MSTORE PUSH1 0x64 SWAP1 REVERT JUMPDEST RETURNDATASIZE ISZERO PUSH2 0x28A5 JUMPI RETURNDATASIZE SWAP1 PUSH2 0x288B DUP3 PUSH2 0x23A3 JUMP JUMPDEST SWAP2 PUSH2 0x2899 PUSH1 0x40 MLOAD SWAP4 DUP5 PUSH2 0x2382 JUMP JUMPDEST DUP3 MSTORE RETURNDATASIZE PUSH1 0x0 PUSH1 0x20 DUP5 ADD RETURNDATACOPY JUMP JUMPDEST PUSH1 0x60 SWAP1 JUMP JUMPDEST PUSH1 0x2 PUSH1 0x0 SLOAD EQ PUSH2 0x28BB JUMPI PUSH1 0x2 PUSH1 0x0 SSTORE JUMP JUMPDEST PUSH1 0x40 MLOAD PUSH3 0x461BCD PUSH1 0xE5 SHL DUP2 MSTORE PUSH1 0x20 PUSH1 0x4 DUP3 ADD MSTORE PUSH1 0x1F PUSH1 0x24 DUP3 ADD MSTORE PUSH32 0x5265656E7472616E637947756172643A207265656E7472616E742063616C6C00 PUSH1 0x44 DUP3 ADD MSTORE PUSH1 0x64 SWAP1 REVERT INVALID LOG2 PUSH5 0x6970667358 0x22 SLT KECCAK256 MOD SWAP10 NOT 0xDB 0xF6 PC PUSH10 0x5B0884BBE131ADBC57B7 DUP13 GAS SWAP8 PUSH25 0xF9F3B7A72CB45AC6D37A1C64736F6C63430008140033000000 "},"methodIdentifiers":{"FEE_DENOMINATOR()":"d73792a9","PLATFORM_FEE()":"34fbc9a1","activeContentIds(uint256)":"24fb3e07","activeCourseIds(uint256)":"65e8ea1c","adRevenuePool()":"b4d54b19","addAdRevenue()":"5fb859ec","completeCourse(uint256)":"0d3b4292","contents(uint256)":"b5ecf912","courseCompletions(uint256,address)":"22920ad7","courseEnrollments(uint256,address)":"7d9f68db","courses(uint256)":"96f979d2","createCourse(string,string,string,uint256)":"17cb7d7c","creators(address)":"933166e1","deactivateContent(uint256)":"f2d0811f","emergencyWithdraw()":"db2e21bc","enrollInCourse(uint256)":"5e52da27","getAllContent()":"54315084","getAllCourses()":"04e48bd1","getContent(uint256)":"0b7ad54c","getCreatorContent(address)":"011c6756","getCreatorEarnings(address)":"804396af","getCreatorProfile(address)":"9e39e58d","getPlatformStats()":"136d8883","getStudentCourses(address)":"d40761e4","hasCertificate(address,uint256)":"0ce7ed98","hasLiked(uint256,address)":"8fb7092c","hasViewed(uint256,address)":"94265029","likeContent(uint256)":"5f37cd61","owner()":"8da5cb5b","paymentPerView()":"f9fc5af7","pendingWithdrawals(address)":"f3f43703","renounceOwnership()":"715018a6","totalPlatformFees()":"d3631fa5","transferOwnership(address)":"f2fde38b","updatePaymentPerView(uint256)":"98893465","uploadContent(string,string,string,uint256)":"c685aa33","verifyCreator(address)":"98dd1b65","viewContent(uint256)":"8be3e06f","withdrawEarnings()":"b73c6ce9","withdrawPlatformFees()":"d0b7830b"}}}}}