{"contracts/AssistanceCenterRegistry.sol":{"AssistanceCenterRegistry":{"abi":[{"inputs":[],"stateMutability":"nonpayable","type":"constructor"},{"anonymous":false,"inputs":[{"indexed":true,"internalType":"uint256","name":"id","type":"uint256"},{"indexed":false,"internalType":"string","name":"name","type":"string"},{"indexed":false,"internalType":"string","name":"location","type":"string"},{"indexed":false,"internalType":"address","name":"owner","type":"address"}],"name":"CenterRegistered","type":"event"},{"anonymous":false,"inputs":[{"indexed":true,"internalType":"uint256","name":"id","type":"uint256"},{"indexed":false,"internalType":"address","name":"verifier","type":"address"},{"indexed":false,"internalType":"uint256","name":"timestamp","type":"uint256"}],"name":"CenterVerified","type":"event"},{"anonymous":false,"inputs":[{"indexed":true,"internalType":"uint256","name":"centerId","type":"uint256"},{"indexed":false,"internalType":"address","name":"user","type":"address"},{"indexed":false,"internalType":"uint256","name":"timestamp","type":"uint256"}],"name":"EmergencyAlert","type":"event"},{"anonymous":false,"inputs":[{"indexed":true,"internalType":"uint256","name":"centerId","type":"uint256"},{"indexed":false,"internalType":"address","name":"reviewer","type":"address"},{"indexed":false,"internalType":"uint8","name":"rating","type":"uint8"},{"indexed":false,"internalType":"uint256","name":"timestamp","type":"uint256"}],"name":"ReviewAdded","type":"event"},{"anonymous":false,"inputs":[{"indexed":false,"internalType":"address","name":"verifier","type":"address"}],"name":"VerifierAdded","type":"event"},{"inputs":[{"internalType":"uint256","name":"_centerId","type":"uint256"},{"internalType":"uint8","name":"_rating","type":"uint8"},{"internalType":"string","name":"_comment","type":"string"}],"name":"addReview","outputs":[],"stateMutability":"nonpayable","type":"function"},{"inputs":[{"internalType":"address","name":"_verifier","type":"address"}],"name":"addVerifier","outputs":[],"stateMutability":"nonpayable","type":"function"},{"inputs":[],"name":"admin","outputs":[{"internalType":"address","name":"","type":"address"}],"stateMutability":"view","type":"function"},{"inputs":[],"name":"centerCount","outputs":[{"internalType":"uint256","name":"","type":"uint256"}],"stateMutability":"view","type":"function"},{"inputs":[{"internalType":"uint256","name":"","type":"uint256"},{"internalType":"uint256","name":"","type":"uint256"}],"name":"centerReviews","outputs":[{"internalType":"address","name":"reviewer","type":"address"},{"internalType":"uint256","name":"centerId","type":"uint256"},{"internalType":"uint8","name":"rating","type":"uint8"},{"internalType":"string","name":"comment","type":"string"},{"internalType":"uint256","name":"timestamp","type":"uint256"},{"internalType":"bool","name":"verified","type":"bool"}],"stateMutability":"view","type":"function"},{"inputs":[{"internalType":"uint256","name":"","type":"uint256"}],"name":"centers","outputs":[{"internalType":"string","name":"name","type":"string"},{"internalType":"string","name":"location","type":"string"},{"internalType":"string","name":"country","type":"string"},{"internalType":"string","name":"province","type":"string"},{"internalType":"string","name":"community","type":"string"},{"internalType":"string","name":"services","type":"string"},{"internalType":"string","name":"contactInfo","type":"string"},{"internalType":"address","name":"owner","type":"address"},{"internalType":"bool","name":"verified","type":"bool"},{"internalType":"uint256","name":"registrationDate","type":"uint256"},{"internalType":"uint256","name":"verificationDate","type":"uint256"}],"stateMutability":"view","type":"function"},{"inputs":[{"internalType":"uint256","name":"_id","type":"uint256"}],"name":"getCenter","outputs":[{"components":[{"internalType":"string","name":"name","type":"string"},{"internalType":"string","name":"location","type":"string"},{"internalType":"string","name":"country","type":"string"},{"internalType":"string","name":"province","type":"string"},{"internalType":"string","name":"community","type":"string"},{"internalType":"string","name":"services","type":"string"},{"internalType":"string","name":"contactInfo","type":"string"},{"internalType":"address","name":"owner","type":"address"},{"internalType":"bool","name":"verified","type":"bool"},{"internalType":"uint256","name":"registrationDate","type":"uint256"},{"internalType":"uint256","name":"verificationDate","type":"uint256"}],"internalType":"struct AssistanceCenterRegistry.Center","name":"","type":"tuple"}],"stateMutability":"view","type":"function"},{"inputs":[{"internalType":"uint256","name":"_centerId","type":"uint256"}],"name":"getCenterReviews","outputs":[{"components":[{"internalType":"address","name":"reviewer","type":"address"},{"internalType":"uint256","name":"centerId","type":"uint256"},{"internalType":"uint8","name":"rating","type":"uint8"},{"internalType":"string","name":"comment","type":"string"},{"internalType":"uint256","name":"timestamp","type":"uint256"},{"internalType":"bool","name":"verified","type":"bool"}],"internalType":"struct AssistanceCenterRegistry.Review[]","name":"","type":"tuple[]"}],"stateMutability":"view","type":"function"},{"inputs":[{"internalType":"string","name":"_userLocation","type":"string"}],"name":"getNearbyCenters","outputs":[{"components":[{"internalType":"string","name":"name","type":"string"},{"internalType":"string","name":"location","type":"string"},{"internalType":"string","name":"country","type":"string"},{"internalType":"string","name":"province","type":"string"},{"internalType":"string","name":"community","type":"string"},{"internalType":"string","name":"services","type":"string"},{"internalType":"string","name":"contactInfo","type":"string"},{"internalType":"address","name":"owner","type":"address"},{"internalType":"bool","name":"verified","type":"bool"},{"internalType":"uint256","name":"registrationDate","type":"uint256"},{"internalType":"uint256","name":"verificationDate","type":"uint256"}],"internalType":"struct AssistanceCenterRegistry.Center[]","name":"","type":"tuple[]"}],"stateMutability":"view","type":"function"},{"inputs":[],"name":"getVerifiedCenters","outputs":[{"components":[{"internalType":"string","name":"name","type":"string"},{"internalType":"string","name":"location","type":"string"},{"internalType":"string","name":"country","type":"string"},{"internalType":"string","name":"province","type":"string"},{"internalType":"string","name":"community","type":"string"},{"internalType":"string","name":"services","type":"string"},{"internalType":"string","name":"contactInfo","type":"string"},{"internalType":"address","name":"owner","type":"address"},{"internalType":"bool","name":"verified","type":"bool"},{"internalType":"uint256","name":"registrationDate","type":"uint256"},{"internalType":"uint256","name":"verificationDate","type":"uint256"}],"internalType":"struct AssistanceCenterRegistry.Center[]","name":"","type":"tuple[]"}],"stateMutability":"view","type":"function"},{"inputs":[{"internalType":"uint256","name":"_centerId","type":"uint256"}],"name":"logEmergencyContact","outputs":[],"stateMutability":"nonpayable","type":"function"},{"inputs":[{"internalType":"string","name":"_name","type":"string"},{"internalType":"string","name":"_location","type":"string"},{"internalType":"string","name":"_country","type":"string"},{"internalType":"string","name":"_province","type":"string"},{"internalType":"string","name":"_community","type":"string"},{"internalType":"string","name":"_services","type":"string"},{"internalType":"string","name":"_contactInfo","type":"string"}],"name":"registerCenter","outputs":[],"stateMutability":"nonpayable","type":"function"},{"inputs":[{"internalType":"address","name":"","type":"address"}],"name":"registeredCenters","outputs":[{"internalType":"bool","name":"","type":"bool"}],"stateMutability":"view","type":"function"},{"inputs":[],"name":"totalReviews","outputs":[{"internalType":"uint256","name":"","type":"uint256"}],"stateMutability":"view","type":"function"},{"inputs":[{"internalType":"uint256","name":"_id","type":"uint256"},{"internalType":"string","name":"_services","type":"string"},{"internalType":"string","name":"_contactInfo","type":"string"}],"name":"updateCenter","outputs":[],"stateMutability":"nonpayable","type":"function"},{"inputs":[{"internalType":"address","name":"","type":"address"}],"name":"verifiers","outputs":[{"internalType":"bool","name":"","type":"bool"}],"stateMutability":"view","type":"function"},{"inputs":[{"internalType":"uint256","name":"_id","type":"uint256"}],"name":"verifyCenter","outputs":[],"stateMutability":"nonpayable","type":"function"}],"evm":{"bytecode":{"linkReferences":{},"object":"6080806040523461004457600680546001600160a01b031916339081179091556000908152600260205260409020805460ff191660011790556122b4908161004a8239f35b600080fdfe608080604052600436101561001357600080fd5b60003560e01c908163084674cf14611db9575080631949bc4f14611c4a5780634909f98b14611914578063490bd849146117985780634a183b5314610c3a5780636c82448714610bf75780637d14ec8514610a4e5780639000b3d614610988578063a0e27b891461086e578063c4eadd2214610560578063cfb87d9a146104bf578063d892652b1461038d578063e068411514610302578063e2367890146102e4578063e8c8ba1a1461014b578063f851a440146101225763ff48c7d1146100da57600080fd5b3461011d57602036600319011261011d576004356001600160a01b0381169081900361011d576000526003602052602060ff604060002054166040519015158152f35b600080fd5b3461011d57600036600319011261011d576006546040516001600160a01b039091168152602090f35b3461011d5760208060031936011261011d57600435801515806102d8575b61017290612125565b600052600190818152604060002080549161018c836121b1565b9261019a6040519485611f77565b8084528184018093600052826000206000915b83831061026457505050506040519384938285019083865251809152604085019260408260051b87010194936000905b8382106101ea5787870388f35b918496819592949698508190603f198b820301855289519060018060a01b038251168152828201518382015260ff604083015116604082015261023c6060808401519060c08091850152830190611dd4565b916080808201519083015260a0809101511515910152980192019201879695939194926101dd565b96600685829798969960405161027981611f5c565b85546001600160a01b031681528486015483820152600286015460ff90811660408301526102a96003880161205a565b606083015260048701546080830152600587015416151560a082015281520192019201919096939594966101ad565b50600454811115610169565b3461011d57600036600319011261011d576020600554604051908152f35b3461011d57602036600319011261011d5760043580151580610381575b61032890612125565b80600052600060205261034860ff60076040600020015460a01c16612165565b604080513381524260208201527f1520be658a2750864719cca8b21bf32e36ca0889ebb3acb3c8d8fa35502c2f1191819081015b0390a2005b5060045481111561031f565b3461011d57602036600319011261011d57600435600052600060205260406000206103b78161205a565b6103c36001830161205a565b916103d06002820161205a565b6103dc6003830161205a565b916103e96004820161205a565b6103f56005830161205a565b6104016006840161205a565b916007840154956008850154946009015495604051998a99610160808c528b0161042a91611dd4565b8a810360208c015261043b91611dd4565b89810360408b015261044c91611dd4565b88810360608a015261045d91611dd4565b878103608089015261046e91611dd4565b86810360a088015261047f91611dd4565b85810360c087015261049091611dd4565b92600160a01b60019003811660e086015260a01c60ff1615156101008501526101208401526101408301520390f35b3461011d57604036600319011261011d576024356004356000526001602052604060002090815481101561011d576104f691611fee565b5060018060a01b0381541660018201549160ff60028201541661054f61051e6003840161205a565b60ff60056004860154950154169260405196879687526020870152604086015260c0606086015260c0850190611dd4565b916080840152151560a08301520390f35b3461011d57606036600319011261011d576001600160401b0360043560243582811161011d57610594903690600401611f98565b9160443581811161011d576105ad903690600401611f98565b9282151580610862575b6105c090612125565b826000526020926000845260018060a01b0360076040600020015416330361081d5780600052600084526005604060002001825184811161074857806106068354612020565b94601f958681116107ce575b5087908683116001146107695760009261075e575b50508160011b916000199060031b1c19161790555b6000526000835260066040600020019284519283116107485761065f8454612020565b828111610705575b50809183116001146106a25750819293600092610697575b5050600019600383901b1c191660019190911b179055005b01519050838061067f565b90601f198316948460005282600020926000905b8782106106ed5750508360019596106106d4575b505050811b019055005b015160001960f88460031b161c191690558380806106ca565b806001859682949686015181550195019301906106b6565b84600052816000208380860160051c82019284871061073f575b0160051c01905b8181106107335750610667565b60008155600101610726565b9250819261071f565b634e487b7160e01b600052604160045260246000fd5b015190508880610627565b60008581528981209350601f198516905b8a8282106107b857505090846001959493921061079f575b505050811b01905561063c565b015160001960f88460031b161c19169055888080610792565b600185968293968601518155019501930161077a565b90915083600052876000208680850160051c8201928a8610610814575b9085949392910160051c01905b8181106108055750610612565b600081558493506001016107f8565b925081926107eb565b60405162461bcd60e51b815260048101859052601c60248201527f4f6e6c792063656e746572206f776e65722063616e20757064617465000000006044820152606490fd5b506004548311156105b7565b3461011d57602036600319011261011d5760043561088a6121c8565b508015158061097c575b61089d90612125565b600052600060205261097860406000206009604051916108bc83611f40565b6108c58161205a565b83526108d36001820161205a565b60208401526108e46002820161205a565b60408401526108f56003820161205a565b60608401526109066004820161205a565b60808401526109176005820161205a565b60a08401526109286006820161205a565b60c084015260078101546001600160a01b03811660e085015260a01c60ff161515610100840152600881015461012084015201546101408201526040516020808252909283929091830190611e14565b0390f35b50600454811115610894565b3461011d57602036600319011261011d576004356001600160a01b038181169182900361011d576006541633036109fe576020817f6d05492139c5ea989514a5d2150c028041e5c087e2a39967f67dc7d2655adb8192600052600282526040600020600160ff19825416179055604051908152a1005b60405162461bcd60e51b815260206004820152602260248201527f4f6e6c792061646d696e2063616e20706572666f726d2074686973206163746960448201526137b760f11b6064820152608490fd5b3461011d5760208060031936011261011d576004356001600160401b03811161011d57610a7f903690600401611f98565b5060045490610a8d8261221a565b91600091600190815b83811115610af1578585610aa98161221a565b9160005b828110610ac257604051806109788682611ede565b80610ad0610aec928461226a565b51610adb828761226a565b52610ae6818661226a565b50612100565b610aad565b8060005260008252604060002060078101549060a09160ff81841c169081610b26575b50505050610b2190612100565b610a96565b610b21949892610bed949260099260405194610b4186611f40565b610b4a8461205a565b8652610b578b850161205a565b8a870152610b676002850161205a565b6040870152610b786003850161205a565b6060870152610b896004850161205a565b6080870152610b9a6005850161205a565b90860152610baa6006840161205a565b60c08601526001600160a01b031660e0850152151561010084015260088101546101208401520154610140820152610be2828a61226a565b52610ae6818961226a565b9490878080610b14565b3461011d57602036600319011261011d576004356001600160a01b0381169081900361011d576000526002602052602060ff604060002054166040519015158152f35b3461011d5760e036600319011261011d576004356001600160401b03811161011d57610c6a903690600401611f98565b6024356001600160401b03811161011d57610c89903690600401611f98565b906044356001600160401b03811161011d57610ca9903690600401611f98565b6064356001600160401b03811161011d57610cc8903690600401611f98565b6084356001600160401b03811161011d57610ce7903690600401611f98565b60a4356001600160401b03811161011d57610d06903690600401611f98565b60c4356001600160401b03811161011d57610d25903690600401611f98565b9133600052600360205260ff6040600020541661174157855115611705578651156116c057610d55600454612100565b938460045560405195610d6787611f40565b87875288602088015260408701526060860152608085015260a084015260c08301523360e08301526000610100830152426101208301526000610140830152600052600060205260406000209080518051906001600160401b038211610748578190610dd38554612020565b601f8111611670575b50602090601f8311600114611604576000926115f9575b50508160011b916000199060031b1c19161782555b60208101518051906001600160401b038211610748578190610e2d6001860154612020565b601f81116115a6575b50602090601f831160011461153457600092611529575b50508160011b916000199060031b1c19161760018301555b60408101518051906001600160401b038211610748578190610e8a6002860154612020565b601f81116114d6575b50602090601f831160011461146457600092611459575b50508160011b916000199060031b1c19161760028301555b60608101518051906001600160401b038211610748578190610ee76003860154612020565b601f8111611406575b50602090601f831160011461139457600092611389575b50508160011b916000199060031b1c19161760038301555b60808101518051906001600160401b038211610748578190610f446004860154612020565b601f8111611336575b50602090601f83116001146112c4576000926112b9575b50508160011b916000199060031b1c19161760048301555b60a08101518051906001600160401b038211610748578190610fa16005860154612020565b601f8111611266575b50602090601f83116001146111f4576000926111e9575b50508160011b916000199060031b1c19161760058301555b60c08101518051906001600160401b03821161074857610ffc6006850154612020565b601f81116111a2575b50602090601f8311600114611106577f6f2fefeb88758bf18ecf7aeb04132d2821b56eefd2cf100cd57a9a52d7c1751e9593836110e29694600994610140946000926110fb575b50508160011b916000199060031b1c19161760068501555b6007840160018060a01b0360e08301511681549060ff60a01b610100850151151560a01b16916affffffffffffffffffffff60a81b1617179055610120810151600885015501519101553360005260036020526040600020600160ff198254161790556110f060045494604051938493606085526060850190611dd4565b908382036020850152611dd4565b3360408301520390a2005b015190508a8061104c565b906006850160005260206000209160005b601f198516811061118a575093600184600994610140947f6f2fefeb88758bf18ecf7aeb04132d2821b56eefd2cf100cd57a9a52d7c1751e9a986110e29a98601f19811610611171575b505050811b016006850155611064565b015160001960f88460031b161c191690558a8080611161565b91926020600181928685015181550194019201611117565b600685016000526020600020601f840160051c8101602085106111e2575b601f830160051c820181106111d6575050611005565b600081556001016111c0565b50806111c0565b015190508680610fc1565b9250600585016000526020600020906000935b601f198416851061124b576001945083601f19811610611232575b505050811b016005830155610fd9565b015160001960f88460031b161c19169055868080611222565b81810151835560209485019460019093019290910190611207565b909150600585016000526020600020601f840160051c8101602085106112b2575b90849392915b601f830160051c820181106112a3575050610faa565b6000815585945060010161128d565b5080611287565b015190508680610f64565b9250600485016000526020600020906000935b601f198416851061131b576001945083601f19811610611302575b505050811b016004830155610f7c565b015160001960f88460031b161c191690558680806112f2565b818101518355602094850194600190930192909101906112d7565b909150600485016000526020600020601f840160051c810160208510611382575b90849392915b601f830160051c82018110611373575050610f4d565b6000815585945060010161135d565b5080611357565b015190508680610f07565b9250600385016000526020600020906000935b601f19841685106113eb576001945083601f198116106113d2575b505050811b016003830155610f1f565b015160001960f88460031b161c191690558680806113c2565b818101518355602094850194600190930192909101906113a7565b909150600385016000526020600020601f840160051c810160208510611452575b90849392915b601f830160051c82018110611443575050610ef0565b6000815585945060010161142d565b5080611427565b015190508680610eaa565b9250600285016000526020600020906000935b601f19841685106114bb576001945083601f198116106114a2575b505050811b016002830155610ec2565b015160001960f88460031b161c19169055868080611492565b81810151835560209485019460019093019290910190611477565b909150600285016000526020600020601f840160051c810160208510611522575b90849392915b601f830160051c82018110611513575050610e93565b600081558594506001016114fd565b50806114f7565b015190508680610e4d565b9250600185016000526020600020906000935b601f198416851061158b576001945083601f19811610611572575b505050811b016001830155610e65565b015160001960f88460031b161c19169055868080611562565b81810151835560209485019460019093019290910190611547565b909150600185016000526020600020601f840160051c8101602085106115f2575b90849392915b601f830160051c820181106115e3575050610e36565b600081558594506001016115cd565b50806115c7565b015190508680610df3565b9250846000526020600020906000935b601f1984168510611655576001945083601f1981161061163c575b505050811b018255610e08565b015160001960f88460031b161c1916905586808061162f565b81810151835560209485019460019093019290910190611614565b909150846000526020600020601f840160051c8101602085106116b9575b90849392915b601f830160051c820181106116aa575050610ddc565b60008155859450600101611694565b508061168e565b60405162461bcd60e51b815260206004820152601860248201527f4c6f636174696f6e2063616e6e6f7420626520656d70747900000000000000006044820152606490fd5b60405162461bcd60e51b81526020600482015260146024820152734e616d652063616e6e6f7420626520656d70747960601b6044820152606490fd5b60405162461bcd60e51b815260206004820152602960248201527f43656e74657220616c726561647920726567697374657265642062792074686960448201526873206164647265737360b81b6064820152608490fd5b3461011d5760208060031936011261011d5760043590336000526002815260ff604060002054168015611900575b156118ad57811515806118a1575b6117dd90612125565b816000526000815260ff60076040600020015460a01c1661185d5760008281529081905260409081902060078101805460ff60a01b1916600160a01b179055426009909101819055815133815260208101919091527f95b0c9f618598bb6cba4d45b6df552a6a71e3ef83dd75e3578e970155f863cb3918190810161037c565b6064906040519062461bcd60e51b82526004820152601760248201527f43656e74657220616c72656164792076657269666965640000000000000000006044820152fd5b506004548211156117d4565b6084906040519062461bcd60e51b82526004820152602660248201527f4f6e6c79207665726966696572732063616e20706572666f726d20746869732060448201526530b1ba34b7b760d11b6064820152fd5b506006546001600160a01b031633146117c6565b3461011d57606036600319011261011d576004356024359060ff821680920361011d576001600160401b039160443583811161011d57611958903690600401611f98565b9082151580611c3e575b61196b90612125565b60018082101580611c33575b15611bee57836000526020926000845261199e60ff60076040600020015460a01c16612165565b84600052818452604060002091604051916119b883611f5c565b338352858301918783526040840186815260608501928352608085019342855260a08601966000885280546801000000000000000081101561074857611a02918582018155611fee565b969096611bd85760018060a01b039051166bffffffffffffffffffffffff60a01b875416178655518286015560ff6002860191511660ff198254161790556003840191518051998a1161074857611a598354612020565b601f8111611b8f575b508790601f8b11600114611aff579980806005969460609b9a999896947ff28e426ed084685d8a267bcec12461435faefc53fa738751fa8a13444c23255e9d9e600094611af4575b50501b916000199060031b1c19161790555b516004820155019051151560ff80198354169116179055611ade600554612100565b60055560405191338352820152426040820152a2005b015192508e80611aaa565b9990601f1982169a84600052896000209b60005b818110611b7a57509b6005969492849260609c9b9a9997957ff28e426ed084685d8a267bcec12461435faefc53fa738751fa8a13444c23255e9e9f10611b61575b505050811b019055611abc565b015160001960f88460031b161c191690558c8080611b54565b838301518e559c85019c928b01928b01611b13565b8360005288600020601f8c0160051c8101918a8d10611bce575b601f0160051c019083905b828110611bc2575050611a62565b60008155018390611bb4565b9091508190611ba9565b634e487b7160e01b600052600060045260246000fd5b60405162461bcd60e51b815260206004820152601e60248201527f526174696e67206d757374206265206265747765656e203120616e64203500006044820152606490fd5b506005821115611977565b50600454831115611962565b3461011d57600036600319011261011d57600454611c678161221a565b906000906001805b82811115611caf57505050611c838161221a565b9160005b828110611c9c57604051806109788682611ede565b80610ad0611caa928461226a565b611c87565b806000526020600081526040600020600781015460a09060ff81831c169182611ce6575b5050505050611ce190612100565b611c6f565b92611dae9492600992611ce1979a9560405195611d0287611f40565b611d0b8561205a565b8752611d188b860161205a565b90870152611d286002850161205a565b6040870152611d396003850161205a565b6060870152611d4a6004850161205a565b6080870152611d5b6005850161205a565b90860152611d6b6006840161205a565b60c08601526001600160a01b031660e0850152151561010084015260088101546101208401520154610140820152611da3828961226a565b52610ae6818861226a565b939086808080611cd3565b3461011d57600036600319011261011d576020906004548152f35b919082519283825260005b848110611e00575050826000602080949584010152601f8019910116010190565b602081830181015184830182015201611ddf565b90611ea6611e94611e82611e70611e5e611e4c611e3a8851610160808a52890190611dd4565b602089015188820360208a0152611dd4565b60408801518782036040890152611dd4565b60608701518682036060880152611dd4565b60808601518582036080870152611dd4565b60a085015184820360a0860152611dd4565b60c084015183820360c0850152611dd4565b9160018060a01b0360e08201511660e08301526101008082015115159083015261012080820151908301526101408091015191015290565b602080820190808352835180925260408301928160408460051b8301019501936000915b848310611f125750505050505090565b9091929394958480611f30600193603f198682030187528a51611e14565b9801930193019194939290611f02565b61016081019081106001600160401b0382111761074857604052565b60c081019081106001600160401b0382111761074857604052565b90601f801991011681019081106001600160401b0382111761074857604052565b81601f8201121561011d578035906001600160401b0382116107485760405192611fcc601f8401601f191660200185611f77565b8284526020838301011161011d57816000926020809301838601378301015290565b805482101561200a576000526006602060002091020190600090565b634e487b7160e01b600052603260045260246000fd5b90600182811c92168015612050575b602083101461203a57565b634e487b7160e01b600052602260045260246000fd5b91607f169161202f565b906040519182600082549261206e84612020565b9081845260019485811690816000146120dd575060011461209a575b505061209892500383611f77565b565b9093915060005260209081600020936000915b8183106120c55750506120989350820101388061208a565b855488840185015294850194879450918301916120ad565b91505061209894506020925060ff191682840152151560051b820101388061208a565b600019811461210f5760010190565b634e487b7160e01b600052601160045260246000fd5b1561212c57565b60405162461bcd60e51b8152602060048201526011602482015270125b9d985b1a590818d95b9d195c881251607a1b6044820152606490fd5b1561216c57565b60405162461bcd60e51b815260206004820152601760248201527f43656e746572206d7573742062652076657269666965640000000000000000006044820152606490fd5b6001600160401b0381116107485760051b60200190565b604051906121d582611f40565b600061014083606080825280602083015280604083015280808301528060808301528060a083015260c08201528260e082015282610100820152826101208201520152565b90612224826121b1565b6122316040519182611f77565b8281528092612242601f19916121b1565b019060005b82811061225357505050565b60209061225e6121c8565b82828501015201612247565b805182101561200a5760209160051b01019056fea2646970667358221220339c84a18d499e7e4804212a8110aece661cfc0a8e0abecba1c8348d2925b19d64736f6c63430008140033","opcodes":"PUSH1 0x80 DUP1 PUSH1 0x40 MSTORE CALLVALUE PUSH2 0x44 JUMPI PUSH1 0x6 DUP1 SLOAD PUSH1 0x1 PUSH1 0x1 PUSH1 0xA0 SHL SUB NOT AND CALLER SWAP1 DUP2 OR SWAP1 SWAP2 SSTORE PUSH1 0x0 SWAP1 DUP2 MSTORE PUSH1 0x2 PUSH1 0x20 MSTORE PUSH1 0x40 SWAP1 KECCAK256 DUP1 SLOAD PUSH1 0xFF NOT AND PUSH1 0x1 OR SWAP1 SSTORE PUSH2 0x22B4 SWAP1 DUP2 PUSH2 0x4A DUP3 CODECOPY RETURN JUMPDEST PUSH1 0x0 DUP1 REVERT INVALID PUSH1 0x80 DUP1 PUSH1 0x40 MSTORE PUSH1 0x4 CALLDATASIZE LT ISZERO PUSH2 0x13 JUMPI PUSH1 0x0 DUP1 REVERT JUMPDEST PUSH1 0x0 CALLDATALOAD PUSH1 0xE0 SHR SWAP1 DUP2 PUSH4 0x84674CF EQ PUSH2 0x1DB9 JUMPI POP DUP1 PUSH4 0x1949BC4F EQ PUSH2 0x1C4A JUMPI DUP1 PUSH4 0x4909F98B EQ PUSH2 0x1914 JUMPI DUP1 PUSH4 0x490BD849 EQ PUSH2 0x1798 JUMPI DUP1 PUSH4 0x4A183B53 EQ PUSH2 0xC3A JUMPI DUP1 PUSH4 0x6C824487 EQ PUSH2 0xBF7 JUMPI DUP1 PUSH4 0x7D14EC85 EQ PUSH2 0xA4E JUMPI DUP1 PUSH4 0x9000B3D6 EQ PUSH2 0x988 JUMPI DUP1 PUSH4 0xA0E27B89 EQ PUSH2 0x86E JUMPI DUP1 PUSH4 0xC4EADD22 EQ PUSH2 0x560 JUMPI DUP1 PUSH4 0xCFB87D9A EQ PUSH2 0x4BF JUMPI DUP1 PUSH4 0xD892652B EQ PUSH2 0x38D JUMPI DUP1 PUSH4 0xE0684115 EQ PUSH2 0x302 JUMPI DUP1 PUSH4 0xE2367890 EQ PUSH2 0x2E4 JUMPI DUP1 PUSH4 0xE8C8BA1A EQ PUSH2 0x14B JUMPI DUP1 PUSH4 0xF851A440 EQ PUSH2 0x122 JUMPI PUSH4 0xFF48C7D1 EQ PUSH2 0xDA JUMPI PUSH1 0x0 DUP1 REVERT JUMPDEST CALLVALUE PUSH2 0x11D JUMPI PUSH1 0x20 CALLDATASIZE PUSH1 0x3 NOT ADD SLT PUSH2 0x11D JUMPI PUSH1 0x4 CALLDATALOAD PUSH1 0x1 PUSH1 0x1 PUSH1 0xA0 SHL SUB DUP2 AND SWAP1 DUP2 SWAP1 SUB PUSH2 0x11D JUMPI PUSH1 0x0 MSTORE PUSH1 0x3 PUSH1 0x20 MSTORE PUSH1 0x20 PUSH1 0xFF PUSH1 0x40 PUSH1 0x0 KECCAK256 SLOAD AND PUSH1 0x40 MLOAD SWAP1 ISZERO ISZERO DUP2 MSTORE RETURN JUMPDEST PUSH1 0x0 DUP1 REVERT JUMPDEST CALLVALUE PUSH2 0x11D JUMPI PUSH1 0x0 CALLDATASIZE PUSH1 0x3 NOT ADD SLT PUSH2 0x11D JUMPI PUSH1 0x6 SLOAD PUSH1 0x40 MLOAD PUSH1 0x1 PUSH1 0x1 PUSH1 0xA0 SHL SUB SWAP1 SWAP2 AND DUP2 MSTORE PUSH1 0x20 SWAP1 RETURN JUMPDEST CALLVALUE PUSH2 0x11D JUMPI PUSH1 0x20 DUP1 PUSH1 0x3 NOT CALLDATASIZE ADD SLT PUSH2 0x11D JUMPI PUSH1 0x4 CALLDATALOAD DUP1 ISZERO ISZERO DUP1 PUSH2 0x2D8 JUMPI JUMPDEST PUSH2 0x172 SWAP1 PUSH2 0x2125 JUMP JUMPDEST PUSH1 0x0 MSTORE PUSH1 0x1 SWAP1 DUP2 DUP2 MSTORE PUSH1 0x40 PUSH1 0x0 KECCAK256 DUP1 SLOAD SWAP2 PUSH2 0x18C DUP4 PUSH2 0x21B1 JUMP JUMPDEST SWAP3 PUSH2 0x19A PUSH1 0x40 MLOAD SWAP5 DUP6 PUSH2 0x1F77 JUMP JUMPDEST DUP1 DUP5 MSTORE DUP2 DUP5 ADD DUP1 SWAP4 PUSH1 0x0 MSTORE DUP3 PUSH1 0x0 KECCAK256 PUSH1 0x0 SWAP2 JUMPDEST DUP4 DUP4 LT PUSH2 0x264 JUMPI POP POP POP POP PUSH1 0x40 MLOAD SWAP4 DUP5 SWAP4 DUP3 DUP6 ADD SWAP1 DUP4 DUP7 MSTORE MLOAD DUP1 SWAP2 MSTORE PUSH1 0x40 DUP6 ADD SWAP3 PUSH1 0x40 DUP3 PUSH1 0x5 SHL DUP8 ADD ADD SWAP5 SWAP4 PUSH1 0x0 SWAP1 JUMPDEST DUP4 DUP3 LT PUSH2 0x1EA JUMPI DUP8 DUP8 SUB DUP9 RETURN JUMPDEST SWAP2 DUP5 SWAP7 DUP2 SWAP6 SWAP3 SWAP5 SWAP7 SWAP9 POP DUP2 SWAP1 PUSH1 0x3F NOT DUP12 DUP3 SUB ADD DUP6 MSTORE DUP10 MLOAD SWAP1 PUSH1 0x1 DUP1 PUSH1 0xA0 SHL SUB DUP3 MLOAD AND DUP2 MSTORE DUP3 DUP3 ADD MLOAD DUP4 DUP3 ADD MSTORE PUSH1 0xFF PUSH1 0x40 DUP4 ADD MLOAD AND PUSH1 0x40 DUP3 ADD MSTORE PUSH2 0x23C PUSH1 0x60 DUP1 DUP5 ADD MLOAD SWAP1 PUSH1 0xC0 DUP1 SWAP2 DUP6 ADD MSTORE DUP4 ADD SWAP1 PUSH2 0x1DD4 JUMP JUMPDEST SWAP2 PUSH1 0x80 DUP1 DUP3 ADD MLOAD SWAP1 DUP4 ADD MSTORE PUSH1 0xA0 DUP1 SWAP2 ADD MLOAD ISZERO ISZERO SWAP2 ADD MSTORE SWAP9 ADD SWAP3 ADD SWAP3 ADD DUP8 SWAP7 SWAP6 SWAP4 SWAP2 SWAP5 SWAP3 PUSH2 0x1DD JUMP JUMPDEST SWAP7 PUSH1 0x6 DUP6 DUP3 SWAP8 SWAP9 SWAP7 SWAP10 PUSH1 0x40 MLOAD PUSH2 0x279 DUP2 PUSH2 0x1F5C JUMP JUMPDEST DUP6 SLOAD PUSH1 0x1 PUSH1 0x1 PUSH1 0xA0 SHL SUB AND DUP2 MSTORE DUP5 DUP7 ADD SLOAD DUP4 DUP3 ADD MSTORE PUSH1 0x2 DUP7 ADD SLOAD PUSH1 0xFF SWAP1 DUP2 AND PUSH1 0x40 DUP4 ADD MSTORE PUSH2 0x2A9 PUSH1 0x3 DUP9 ADD PUSH2 0x205A JUMP JUMPDEST PUSH1 0x60 DUP4 ADD MSTORE PUSH1 0x4 DUP8 ADD SLOAD PUSH1 0x80 DUP4 ADD MSTORE PUSH1 0x5 DUP8 ADD SLOAD AND ISZERO ISZERO PUSH1 0xA0 DUP3 ADD MSTORE DUP2 MSTORE ADD SWAP3 ADD SWAP3 ADD SWAP2 SWAP1 SWAP7 SWAP4 SWAP6 SWAP5 SWAP7 PUSH2 0x1AD JUMP JUMPDEST POP PUSH1 0x4 SLOAD DUP2 GT ISZERO PUSH2 0x169 JUMP JUMPDEST CALLVALUE PUSH2 0x11D JUMPI PUSH1 0x0 CALLDATASIZE PUSH1 0x3 NOT ADD SLT PUSH2 0x11D JUMPI PUSH1 0x20 PUSH1 0x5 SLOAD PUSH1 0x40 MLOAD SWAP1 DUP2 MSTORE RETURN JUMPDEST CALLVALUE PUSH2 0x11D JUMPI PUSH1 0x20 CALLDATASIZE PUSH1 0x3 NOT ADD SLT PUSH2 0x11D JUMPI PUSH1 0x4 CALLDATALOAD DUP1 ISZERO ISZERO DUP1 PUSH2 0x381 JUMPI JUMPDEST PUSH2 0x328 SWAP1 PUSH2 0x2125 JUMP JUMPDEST DUP1 PUSH1 0x0 MSTORE PUSH1 0x0 PUSH1 0x20 MSTORE PUSH2 0x348 PUSH1 0xFF PUSH1 0x7 PUSH1 0x40 PUSH1 0x0 KECCAK256 ADD SLOAD PUSH1 0xA0 SHR AND PUSH2 0x2165 JUMP JUMPDEST PUSH1 0x40 DUP1 MLOAD CALLER DUP2 MSTORE TIMESTAMP PUSH1 0x20 DUP3 ADD MSTORE PUSH32 0x1520BE658A2750864719CCA8B21BF32E36CA0889EBB3ACB3C8D8FA35502C2F11 SWAP2 DUP2 SWAP1 DUP2 ADD JUMPDEST SUB SWAP1 LOG2 STOP JUMPDEST POP PUSH1 0x4 SLOAD DUP2 GT ISZERO PUSH2 0x31F JUMP JUMPDEST CALLVALUE PUSH2 0x11D JUMPI PUSH1 0x20 CALLDATASIZE PUSH1 0x3 NOT ADD SLT PUSH2 0x11D JUMPI PUSH1 0x4 CALLDATALOAD PUSH1 0x0 MSTORE PUSH1 0x0 PUSH1 0x20 MSTORE PUSH1 0x40 PUSH1 0x0 KECCAK256 PUSH2 0x3B7 DUP2 PUSH2 0x205A JUMP JUMPDEST PUSH2 0x3C3 PUSH1 0x1 DUP4 ADD PUSH2 0x205A JUMP JUMPDEST SWAP2 PUSH2 0x3D0 PUSH1 0x2 DUP3 ADD PUSH2 0x205A JUMP JUMPDEST PUSH2 0x3DC PUSH1 0x3 DUP4 ADD PUSH2 0x205A JUMP JUMPDEST SWAP2 PUSH2 0x3E9 PUSH1 0x4 DUP3 ADD PUSH2 0x205A JUMP JUMPDEST PUSH2 0x3F5 PUSH1 0x5 DUP4 ADD PUSH2 0x205A JUMP JUMPDEST PUSH2 0x401 PUSH1 0x6 DUP5 ADD PUSH2 0x205A JUMP JUMPDEST SWAP2 PUSH1 0x7 DUP5 ADD SLOAD SWAP6 PUSH1 0x8 DUP6 ADD SLOAD SWAP5 PUSH1 0x9 ADD SLOAD SWAP6 PUSH1 0x40 MLOAD SWAP10 DUP11 SWAP10 PUSH2 0x160 DUP1 DUP13 MSTORE DUP12 ADD PUSH2 0x42A SWAP2 PUSH2 0x1DD4 JUMP JUMPDEST DUP11 DUP2 SUB PUSH1 0x20 DUP13 ADD MSTORE PUSH2 0x43B SWAP2 PUSH2 0x1DD4 JUMP JUMPDEST DUP10 DUP2 SUB PUSH1 0x40 DUP12 ADD MSTORE PUSH2 0x44C SWAP2 PUSH2 0x1DD4 JUMP JUMPDEST DUP9 DUP2 SUB PUSH1 0x60 DUP11 ADD MSTORE PUSH2 0x45D SWAP2 PUSH2 0x1DD4 JUMP JUMPDEST DUP8 DUP2 SUB PUSH1 0x80 DUP10 ADD MSTORE PUSH2 0x46E SWAP2 PUSH2 0x1DD4 JUMP JUMPDEST DUP7 DUP2 SUB PUSH1 0xA0 DUP9 ADD MSTORE PUSH2 0x47F SWAP2 PUSH2 0x1DD4 JUMP JUMPDEST DUP6 DUP2 SUB PUSH1 0xC0 DUP8 ADD MSTORE PUSH2 0x490 SWAP2 PUSH2 0x1DD4 JUMP JUMPDEST SWAP3 PUSH1 0x1 PUSH1 0xA0 SHL PUSH1 0x1 SWAP1 SUB DUP2 AND PUSH1 0xE0 DUP7 ADD MSTORE PUSH1 0xA0 SHR PUSH1 0xFF AND ISZERO ISZERO PUSH2 0x100 DUP6 ADD MSTORE PUSH2 0x120 DUP5 ADD MSTORE PUSH2 0x140 DUP4 ADD MSTORE SUB SWAP1 RETURN JUMPDEST CALLVALUE PUSH2 0x11D JUMPI PUSH1 0x40 CALLDATASIZE PUSH1 0x3 NOT ADD SLT PUSH2 0x11D JUMPI PUSH1 0x24 CALLDATALOAD PUSH1 0x4 CALLDATALOAD PUSH1 0x0 MSTORE PUSH1 0x1 PUSH1 0x20 MSTORE PUSH1 0x40 PUSH1 0x0 KECCAK256 SWAP1 DUP2 SLOAD DUP2 LT ISZERO PUSH2 0x11D JUMPI PUSH2 0x4F6 SWAP2 PUSH2 0x1FEE JUMP JUMPDEST POP PUSH1 0x1 DUP1 PUSH1 0xA0 SHL SUB DUP2 SLOAD AND PUSH1 0x1 DUP3 ADD SLOAD SWAP2 PUSH1 0xFF PUSH1 0x2 DUP3 ADD SLOAD AND PUSH2 0x54F PUSH2 0x51E PUSH1 0x3 DUP5 ADD PUSH2 0x205A JUMP JUMPDEST PUSH1 0xFF PUSH1 0x5 PUSH1 0x4 DUP7 ADD SLOAD SWAP6 ADD SLOAD AND SWAP3 PUSH1 0x40 MLOAD SWAP7 DUP8 SWAP7 DUP8 MSTORE PUSH1 0x20 DUP8 ADD MSTORE PUSH1 0x40 DUP7 ADD MSTORE PUSH1 0xC0 PUSH1 0x60 DUP7 ADD MSTORE PUSH1 0xC0 DUP6 ADD SWAP1 PUSH2 0x1DD4 JUMP JUMPDEST SWAP2 PUSH1 0x80 DUP5 ADD MSTORE ISZERO ISZERO PUSH1 0xA0 DUP4 ADD MSTORE SUB SWAP1 RETURN JUMPDEST CALLVALUE PUSH2 0x11D JUMPI PUSH1 0x60 CALLDATASIZE PUSH1 0x3 NOT ADD SLT PUSH2 0x11D JUMPI PUSH1 0x1 PUSH1 0x1 PUSH1 0x40 SHL SUB PUSH1 0x4 CALLDATALOAD PUSH1 0x24 CALLDATALOAD DUP3 DUP2 GT PUSH2 0x11D JUMPI PUSH2 0x594 SWAP1 CALLDATASIZE SWAP1 PUSH1 0x4 ADD PUSH2 0x1F98 JUMP JUMPDEST SWAP2 PUSH1 0x44 CALLDATALOAD DUP2 DUP2 GT PUSH2 0x11D JUMPI PUSH2 0x5AD SWAP1 CALLDATASIZE SWAP1 PUSH1 0x4 ADD PUSH2 0x1F98 JUMP JUMPDEST SWAP3 DUP3 ISZERO ISZERO DUP1 PUSH2 0x862 JUMPI JUMPDEST PUSH2 0x5C0 SWAP1 PUSH2 0x2125 JUMP JUMPDEST DUP3 PUSH1 0x0 MSTORE PUSH1 0x20 SWAP3 PUSH1 0x0 DUP5 MSTORE PUSH1 0x1 DUP1 PUSH1 0xA0 SHL SUB PUSH1 0x7 PUSH1 0x40 PUSH1 0x0 KECCAK256 ADD SLOAD AND CALLER SUB PUSH2 0x81D JUMPI DUP1 PUSH1 0x0 MSTORE PUSH1 0x0 DUP5 MSTORE PUSH1 0x5 PUSH1 0x40 PUSH1 0x0 KECCAK256 ADD DUP3 MLOAD DUP5 DUP2 GT PUSH2 0x748 JUMPI DUP1 PUSH2 0x606 DUP4 SLOAD PUSH2 0x2020 JUMP JUMPDEST SWAP5 PUSH1 0x1F SWAP6 DUP7 DUP2 GT PUSH2 0x7CE JUMPI JUMPDEST POP DUP8 SWAP1 DUP7 DUP4 GT PUSH1 0x1 EQ PUSH2 0x769 JUMPI PUSH1 0x0 SWAP3 PUSH2 0x75E JUMPI JUMPDEST POP POP DUP2 PUSH1 0x1 SHL SWAP2 PUSH1 0x0 NOT SWAP1 PUSH1 0x3 SHL SHR NOT AND OR SWAP1 SSTORE JUMPDEST PUSH1 0x0 MSTORE PUSH1 0x0 DUP4 MSTORE PUSH1 0x6 PUSH1 0x40 PUSH1 0x0 KECCAK256 ADD SWAP3 DUP5 MLOAD SWAP3 DUP4 GT PUSH2 0x748 JUMPI PUSH2 0x65F DUP5 SLOAD PUSH2 0x2020 JUMP JUMPDEST DUP3 DUP2 GT PUSH2 0x705 JUMPI JUMPDEST POP DUP1 SWAP2 DUP4 GT PUSH1 0x1 EQ PUSH2 0x6A2 JUMPI POP DUP2 SWAP3 SWAP4 PUSH1 0x0 SWAP3 PUSH2 0x697 JUMPI JUMPDEST POP POP PUSH1 0x0 NOT PUSH1 0x3 DUP4 SWAP1 SHL SHR NOT AND PUSH1 0x1 SWAP2 SWAP1 SWAP2 SHL OR SWAP1 SSTORE STOP JUMPDEST ADD MLOAD SWAP1 POP DUP4 DUP1 PUSH2 0x67F JUMP JUMPDEST SWAP1 PUSH1 0x1F NOT DUP4 AND SWAP5 DUP5 PUSH1 0x0 MSTORE DUP3 PUSH1 0x0 KECCAK256 SWAP3 PUSH1 0x0 SWAP1 JUMPDEST DUP8 DUP3 LT PUSH2 0x6ED JUMPI POP POP DUP4 PUSH1 0x1 SWAP6 SWAP7 LT PUSH2 0x6D4 JUMPI JUMPDEST POP POP POP DUP2 SHL ADD SWAP1 SSTORE STOP JUMPDEST ADD MLOAD PUSH1 0x0 NOT PUSH1 0xF8 DUP5 PUSH1 0x3 SHL AND SHR NOT AND SWAP1 SSTORE DUP4 DUP1 DUP1 PUSH2 0x6CA JUMP JUMPDEST DUP1 PUSH1 0x1 DUP6 SWAP7 DUP3 SWAP5 SWAP7 DUP7 ADD MLOAD DUP2 SSTORE ADD SWAP6 ADD SWAP4 ADD SWAP1 PUSH2 0x6B6 JUMP JUMPDEST DUP5 PUSH1 0x0 MSTORE DUP2 PUSH1 0x0 KECCAK256 DUP4 DUP1 DUP7 ADD PUSH1 0x5 SHR DUP3 ADD SWAP3 DUP5 DUP8 LT PUSH2 0x73F JUMPI JUMPDEST ADD PUSH1 0x5 SHR ADD SWAP1 JUMPDEST DUP2 DUP2 LT PUSH2 0x733 JUMPI POP PUSH2 0x667 JUMP JUMPDEST PUSH1 0x0 DUP2 SSTORE PUSH1 0x1 ADD PUSH2 0x726 JUMP JUMPDEST SWAP3 POP DUP2 SWAP3 PUSH2 0x71F JUMP JUMPDEST PUSH4 0x4E487B71 PUSH1 0xE0 SHL PUSH1 0x0 MSTORE PUSH1 0x41 PUSH1 0x4 MSTORE PUSH1 0x24 PUSH1 0x0 REVERT JUMPDEST ADD MLOAD SWAP1 POP DUP9 DUP1 PUSH2 0x627 JUMP JUMPDEST PUSH1 0x0 DUP6 DUP2 MSTORE DUP10 DUP2 KECCAK256 SWAP4 POP PUSH1 0x1F NOT DUP6 AND SWAP1 JUMPDEST DUP11 DUP3 DUP3 LT PUSH2 0x7B8 JUMPI POP POP SWAP1 DUP5 PUSH1 0x1 SWAP6 SWAP5 SWAP4 SWAP3 LT PUSH2 0x79F JUMPI JUMPDEST POP POP POP DUP2 SHL ADD SWAP1 SSTORE PUSH2 0x63C JUMP JUMPDEST ADD MLOAD PUSH1 0x0 NOT PUSH1 0xF8 DUP5 PUSH1 0x3 SHL AND SHR NOT AND SWAP1 SSTORE DUP9 DUP1 DUP1 PUSH2 0x792 JUMP JUMPDEST PUSH1 0x1 DUP6 SWAP7 DUP3 SWAP4 SWAP7 DUP7 ADD MLOAD DUP2 SSTORE ADD SWAP6 ADD SWAP4 ADD PUSH2 0x77A JUMP JUMPDEST SWAP1 SWAP2 POP DUP4 PUSH1 0x0 MSTORE DUP8 PUSH1 0x0 KECCAK256 DUP7 DUP1 DUP6 ADD PUSH1 0x5 SHR DUP3 ADD SWAP3 DUP11 DUP7 LT PUSH2 0x814 JUMPI JUMPDEST SWAP1 DUP6 SWAP5 SWAP4 SWAP3 SWAP2 ADD PUSH1 0x5 SHR ADD SWAP1 JUMPDEST DUP2 DUP2 LT PUSH2 0x805 JUMPI POP PUSH2 0x612 JUMP JUMPDEST PUSH1 0x0 DUP2 SSTORE DUP5 SWAP4 POP PUSH1 0x1 ADD PUSH2 0x7F8 JUMP JUMPDEST SWAP3 POP DUP2 SWAP3 PUSH2 0x7EB JUMP JUMPDEST PUSH1 0x40 MLOAD PUSH3 0x461BCD PUSH1 0xE5 SHL DUP2 MSTORE PUSH1 0x4 DUP2 ADD DUP6 SWAP1 MSTORE PUSH1 0x1C PUSH1 0x24 DUP3 ADD MSTORE PUSH32 0x4F6E6C792063656E746572206F776E65722063616E2075706461746500000000 PUSH1 0x44 DUP3 ADD MSTORE PUSH1 0x64 SWAP1 REVERT JUMPDEST POP PUSH1 0x4 SLOAD DUP4 GT ISZERO PUSH2 0x5B7 JUMP JUMPDEST CALLVALUE PUSH2 0x11D JUMPI PUSH1 0x20 CALLDATASIZE PUSH1 0x3 NOT ADD SLT PUSH2 0x11D JUMPI PUSH1 0x4 CALLDATALOAD PUSH2 0x88A PUSH2 0x21C8 JUMP JUMPDEST POP DUP1 ISZERO ISZERO DUP1 PUSH2 0x97C JUMPI JUMPDEST PUSH2 0x89D SWAP1 PUSH2 0x2125 JUMP JUMPDEST PUSH1 0x0 MSTORE PUSH1 0x0 PUSH1 0x20 MSTORE PUSH2 0x978 PUSH1 0x40 PUSH1 0x0 KECCAK256 PUSH1 0x9 PUSH1 0x40 MLOAD SWAP2 PUSH2 0x8BC DUP4 PUSH2 0x1F40 JUMP JUMPDEST PUSH2 0x8C5 DUP2 PUSH2 0x205A JUMP JUMPDEST DUP4 MSTORE PUSH2 0x8D3 PUSH1 0x1 DUP3 ADD PUSH2 0x205A JUMP JUMPDEST PUSH1 0x20 DUP5 ADD MSTORE PUSH2 0x8E4 PUSH1 0x2 DUP3 ADD PUSH2 0x205A JUMP JUMPDEST PUSH1 0x40 DUP5 ADD MSTORE PUSH2 0x8F5 PUSH1 0x3 DUP3 ADD PUSH2 0x205A JUMP JUMPDEST PUSH1 0x60 DUP5 ADD MSTORE PUSH2 0x906 PUSH1 0x4 DUP3 ADD PUSH2 0x205A JUMP JUMPDEST PUSH1 0x80 DUP5 ADD MSTORE PUSH2 0x917 PUSH1 0x5 DUP3 ADD PUSH2 0x205A JUMP JUMPDEST PUSH1 0xA0 DUP5 ADD MSTORE PUSH2 0x928 PUSH1 0x6 DUP3 ADD PUSH2 0x205A JUMP JUMPDEST PUSH1 0xC0 DUP5 ADD MSTORE PUSH1 0x7 DUP2 ADD SLOAD PUSH1 0x1 PUSH1 0x1 PUSH1 0xA0 SHL SUB DUP2 AND PUSH1 0xE0 DUP6 ADD MSTORE PUSH1 0xA0 SHR PUSH1 0xFF AND ISZERO ISZERO PUSH2 0x100 DUP5 ADD MSTORE PUSH1 0x8 DUP2 ADD SLOAD PUSH2 0x120 DUP5 ADD MSTORE ADD SLOAD PUSH2 0x140 DUP3 ADD MSTORE PUSH1 0x40 MLOAD PUSH1 0x20 DUP1 DUP3 MSTORE SWAP1 SWAP3 DUP4 SWAP3 SWAP1 SWAP2 DUP4 ADD SWAP1 PUSH2 0x1E14 JUMP JUMPDEST SUB SWAP1 RETURN JUMPDEST POP PUSH1 0x4 SLOAD DUP2 GT ISZERO PUSH2 0x894 JUMP JUMPDEST CALLVALUE PUSH2 0x11D JUMPI PUSH1 0x20 CALLDATASIZE PUSH1 0x3 NOT ADD SLT PUSH2 0x11D JUMPI PUSH1 0x4 CALLDATALOAD PUSH1 0x1 PUSH1 0x1 PUSH1 0xA0 SHL SUB DUP2 DUP2 AND SWAP2 DUP3 SWAP1 SUB PUSH2 0x11D JUMPI PUSH1 0x6 SLOAD AND CALLER SUB PUSH2 0x9FE JUMPI PUSH1 0x20 DUP2 PUSH32 0x6D05492139C5EA989514A5D2150C028041E5C087E2A39967F67DC7D2655ADB81 SWAP3 PUSH1 0x0 MSTORE PUSH1 0x2 DUP3 MSTORE PUSH1 0x40 PUSH1 0x0 KECCAK256 PUSH1 0x1 PUSH1 0xFF NOT DUP3 SLOAD AND OR SWAP1 SSTORE PUSH1 0x40 MLOAD SWAP1 DUP2 MSTORE LOG1 STOP JUMPDEST PUSH1 0x40 MLOAD PUSH3 0x461BCD PUSH1 0xE5 SHL DUP2 MSTORE PUSH1 0x20 PUSH1 0x4 DUP3 ADD MSTORE PUSH1 0x22 PUSH1 0x24 DUP3 ADD MSTORE PUSH32 0x4F6E6C792061646D696E2063616E20706572666F726D20746869732061637469 PUSH1 0x44 DUP3 ADD MSTORE PUSH2 0x37B7 PUSH1 0xF1 SHL PUSH1 0x64 DUP3 ADD MSTORE PUSH1 0x84 SWAP1 REVERT JUMPDEST CALLVALUE PUSH2 0x11D JUMPI PUSH1 0x20 DUP1 PUSH1 0x3 NOT CALLDATASIZE ADD SLT PUSH2 0x11D JUMPI PUSH1 0x4 CALLDATALOAD PUSH1 0x1 PUSH1 0x1 PUSH1 0x40 SHL SUB DUP2 GT PUSH2 0x11D JUMPI PUSH2 0xA7F SWAP1 CALLDATASIZE SWAP1 PUSH1 0x4 ADD PUSH2 0x1F98 JUMP JUMPDEST POP PUSH1 0x4 SLOAD SWAP1 PUSH2 0xA8D DUP3 PUSH2 0x221A JUMP JUMPDEST SWAP2 PUSH1 0x0 SWAP2 PUSH1 0x1 SWAP1 DUP2 JUMPDEST DUP4 DUP2 GT ISZERO PUSH2 0xAF1 JUMPI DUP6 DUP6 PUSH2 0xAA9 DUP2 PUSH2 0x221A JUMP JUMPDEST SWAP2 PUSH1 0x0 JUMPDEST DUP3 DUP2 LT PUSH2 0xAC2 JUMPI PUSH1 0x40 MLOAD DUP1 PUSH2 0x978 DUP7 DUP3 PUSH2 0x1EDE JUMP JUMPDEST DUP1 PUSH2 0xAD0 PUSH2 0xAEC SWAP3 DUP5 PUSH2 0x226A JUMP JUMPDEST MLOAD PUSH2 0xADB DUP3 DUP8 PUSH2 0x226A JUMP JUMPDEST MSTORE PUSH2 0xAE6 DUP2 DUP7 PUSH2 0x226A JUMP JUMPDEST POP PUSH2 0x2100 JUMP JUMPDEST PUSH2 0xAAD JUMP JUMPDEST DUP1 PUSH1 0x0 MSTORE PUSH1 0x0 DUP3 MSTORE PUSH1 0x40 PUSH1 0x0 KECCAK256 PUSH1 0x7 DUP2 ADD SLOAD SWAP1 PUSH1 0xA0 SWAP2 PUSH1 0xFF DUP2 DUP5 SHR AND SWAP1 DUP2 PUSH2 0xB26 JUMPI JUMPDEST POP POP POP POP PUSH2 0xB21 SWAP1 PUSH2 0x2100 JUMP JUMPDEST PUSH2 0xA96 JUMP JUMPDEST PUSH2 0xB21 SWAP5 SWAP9 SWAP3 PUSH2 0xBED SWAP5 SWAP3 PUSH1 0x9 SWAP3 PUSH1 0x40 MLOAD SWAP5 PUSH2 0xB41 DUP7 PUSH2 0x1F40 JUMP JUMPDEST PUSH2 0xB4A DUP5 PUSH2 0x205A JUMP JUMPDEST DUP7 MSTORE PUSH2 0xB57 DUP12 DUP6 ADD PUSH2 0x205A JUMP JUMPDEST DUP11 DUP8 ADD MSTORE PUSH2 0xB67 PUSH1 0x2 DUP6 ADD PUSH2 0x205A JUMP JUMPDEST PUSH1 0x40 DUP8 ADD MSTORE PUSH2 0xB78 PUSH1 0x3 DUP6 ADD PUSH2 0x205A JUMP JUMPDEST PUSH1 0x60 DUP8 ADD MSTORE PUSH2 0xB89 PUSH1 0x4 DUP6 ADD PUSH2 0x205A JUMP JUMPDEST PUSH1 0x80 DUP8 ADD MSTORE PUSH2 0xB9A PUSH1 0x5 DUP6 ADD PUSH2 0x205A JUMP JUMPDEST SWAP1 DUP7 ADD MSTORE PUSH2 0xBAA PUSH1 0x6 DUP5 ADD PUSH2 0x205A JUMP JUMPDEST PUSH1 0xC0 DUP7 ADD MSTORE PUSH1 0x1 PUSH1 0x1 PUSH1 0xA0 SHL SUB AND PUSH1 0xE0 DUP6 ADD MSTORE ISZERO ISZERO PUSH2 0x100 DUP5 ADD MSTORE PUSH1 0x8 DUP2 ADD SLOAD PUSH2 0x120 DUP5 ADD MSTORE ADD SLOAD PUSH2 0x140 DUP3 ADD MSTORE PUSH2 0xBE2 DUP3 DUP11 PUSH2 0x226A JUMP JUMPDEST MSTORE PUSH2 0xAE6 DUP2 DUP10 PUSH2 0x226A JUMP JUMPDEST SWAP5 SWAP1 DUP8 DUP1 DUP1 PUSH2 0xB14 JUMP JUMPDEST CALLVALUE PUSH2 0x11D JUMPI PUSH1 0x20 CALLDATASIZE PUSH1 0x3 NOT ADD SLT PUSH2 0x11D JUMPI PUSH1 0x4 CALLDATALOAD PUSH1 0x1 PUSH1 0x1 PUSH1 0xA0 SHL SUB DUP2 AND SWAP1 DUP2 SWAP1 SUB PUSH2 0x11D JUMPI PUSH1 0x0 MSTORE PUSH1 0x2 PUSH1 0x20 MSTORE PUSH1 0x20 PUSH1 0xFF PUSH1 0x40 PUSH1 0x0 KECCAK256 SLOAD AND PUSH1 0x40 MLOAD SWAP1 ISZERO ISZERO DUP2 MSTORE RETURN JUMPDEST CALLVALUE PUSH2 0x11D JUMPI PUSH1 0xE0 CALLDATASIZE PUSH1 0x3 NOT ADD SLT PUSH2 0x11D JUMPI PUSH1 0x4 CALLDATALOAD PUSH1 0x1 PUSH1 0x1 PUSH1 0x40 SHL SUB DUP2 GT PUSH2 0x11D JUMPI PUSH2 0xC6A SWAP1 CALLDATASIZE SWAP1 PUSH1 0x4 ADD PUSH2 0x1F98 JUMP JUMPDEST PUSH1 0x24 CALLDATALOAD PUSH1 0x1 PUSH1 0x1 PUSH1 0x40 SHL SUB DUP2 GT PUSH2 0x11D JUMPI PUSH2 0xC89 SWAP1 CALLDATASIZE SWAP1 PUSH1 0x4 ADD PUSH2 0x1F98 JUMP JUMPDEST SWAP1 PUSH1 0x44 CALLDATALOAD PUSH1 0x1 PUSH1 0x1 PUSH1 0x40 SHL SUB DUP2 GT PUSH2 0x11D JUMPI PUSH2 0xCA9 SWAP1 CALLDATASIZE SWAP1 PUSH1 0x4 ADD PUSH2 0x1F98 JUMP JUMPDEST PUSH1 0x64 CALLDATALOAD PUSH1 0x1 PUSH1 0x1 PUSH1 0x40 SHL SUB DUP2 GT PUSH2 0x11D JUMPI PUSH2 0xCC8 SWAP1 CALLDATASIZE SWAP1 PUSH1 0x4 ADD PUSH2 0x1F98 JUMP JUMPDEST PUSH1 0x84 CALLDATALOAD PUSH1 0x1 PUSH1 0x1 PUSH1 0x40 SHL SUB DUP2 GT PUSH2 0x11D JUMPI PUSH2 0xCE7 SWAP1 CALLDATASIZE SWAP1 PUSH1 0x4 ADD PUSH2 0x1F98 JUMP JUMPDEST PUSH1 0xA4 CALLDATALOAD PUSH1 0x1 PUSH1 0x1 PUSH1 0x40 SHL SUB DUP2 GT PUSH2 0x11D JUMPI PUSH2 0xD06 SWAP1 CALLDATASIZE SWAP1 PUSH1 0x4 ADD PUSH2 0x1F98 JUMP JUMPDEST PUSH1 0xC4 CALLDATALOAD PUSH1 0x1 PUSH1 0x1 PUSH1 0x40 SHL SUB DUP2 GT PUSH2 0x11D JUMPI PUSH2 0xD25 SWAP1 CALLDATASIZE SWAP1 PUSH1 0x4 ADD PUSH2 0x1F98 JUMP JUMPDEST SWAP2 CALLER PUSH1 0x0 MSTORE PUSH1 0x3 PUSH1 0x20 MSTORE PUSH1 0xFF PUSH1 0x40 PUSH1 0x0 KECCAK256 SLOAD AND PUSH2 0x1741 JUMPI DUP6 MLOAD ISZERO PUSH2 0x1705 JUMPI DUP7 MLOAD ISZERO PUSH2 0x16C0 JUMPI PUSH2 0xD55 PUSH1 0x4 SLOAD PUSH2 0x2100 JUMP JUMPDEST SWAP4 DUP5 PUSH1 0x4 SSTORE PUSH1 0x40 MLOAD SWAP6 PUSH2 0xD67 DUP8 PUSH2 0x1F40 JUMP JUMPDEST DUP8 DUP8 MSTORE DUP9 PUSH1 0x20 DUP9 ADD MSTORE PUSH1 0x40 DUP8 ADD MSTORE PUSH1 0x60 DUP7 ADD MSTORE PUSH1 0x80 DUP6 ADD MSTORE PUSH1 0xA0 DUP5 ADD MSTORE PUSH1 0xC0 DUP4 ADD MSTORE CALLER PUSH1 0xE0 DUP4 ADD MSTORE PUSH1 0x0 PUSH2 0x100 DUP4 ADD MSTORE TIMESTAMP PUSH2 0x120 DUP4 ADD MSTORE PUSH1 0x0 PUSH2 0x140 DUP4 ADD MSTORE PUSH1 0x0 MSTORE PUSH1 0x0 PUSH1 0x20 MSTORE PUSH1 0x40 PUSH1 0x0 KECCAK256 SWAP1 DUP1 MLOAD DUP1 MLOAD SWAP1 PUSH1 0x1 PUSH1 0x1 PUSH1 0x40 SHL SUB DUP3 GT PUSH2 0x748 JUMPI DUP2 SWAP1 PUSH2 0xDD3 DUP6 SLOAD PUSH2 0x2020 JUMP JUMPDEST PUSH1 0x1F DUP2 GT PUSH2 0x1670 JUMPI JUMPDEST POP PUSH1 0x20 SWAP1 PUSH1 0x1F DUP4 GT PUSH1 0x1 EQ PUSH2 0x1604 JUMPI PUSH1 0x0 SWAP3 PUSH2 0x15F9 JUMPI JUMPDEST POP POP DUP2 PUSH1 0x1 SHL SWAP2 PUSH1 0x0 NOT SWAP1 PUSH1 0x3 SHL SHR NOT AND OR DUP3 SSTORE JUMPDEST PUSH1 0x20 DUP2 ADD MLOAD DUP1 MLOAD SWAP1 PUSH1 0x1 PUSH1 0x1 PUSH1 0x40 SHL SUB DUP3 GT PUSH2 0x748 JUMPI DUP2 SWAP1 PUSH2 0xE2D PUSH1 0x1 DUP7 ADD SLOAD PUSH2 0x2020 JUMP JUMPDEST PUSH1 0x1F DUP2 GT PUSH2 0x15A6 JUMPI JUMPDEST POP PUSH1 0x20 SWAP1 PUSH1 0x1F DUP4 GT PUSH1 0x1 EQ PUSH2 0x1534 JUMPI PUSH1 0x0 SWAP3 PUSH2 0x1529 JUMPI JUMPDEST POP POP DUP2 PUSH1 0x1 SHL SWAP2 PUSH1 0x0 NOT SWAP1 PUSH1 0x3 SHL SHR NOT AND OR PUSH1 0x1 DUP4 ADD SSTORE JUMPDEST PUSH1 0x40 DUP2 ADD MLOAD DUP1 MLOAD SWAP1 PUSH1 0x1 PUSH1 0x1 PUSH1 0x40 SHL SUB DUP3 GT PUSH2 0x748 JUMPI DUP2 SWAP1 PUSH2 0xE8A PUSH1 0x2 DUP7 ADD SLOAD PUSH2 0x2020 JUMP JUMPDEST PUSH1 0x1F DUP2 GT PUSH2 0x14D6 JUMPI JUMPDEST POP PUSH1 0x20 SWAP1 PUSH1 0x1F DUP4 GT PUSH1 0x1 EQ PUSH2 0x1464 JUMPI PUSH1 0x0 SWAP3 PUSH2 0x1459 JUMPI JUMPDEST POP POP DUP2 PUSH1 0x1 SHL SWAP2 PUSH1 0x0 NOT SWAP1 PUSH1 0x3 SHL SHR NOT AND OR PUSH1 0x2 DUP4 ADD SSTORE JUMPDEST PUSH1 0x60 DUP2 ADD MLOAD DUP1 MLOAD SWAP1 PUSH1 0x1 PUSH1 0x1 PUSH1 0x40 SHL SUB DUP3 GT PUSH2 0x748 JUMPI DUP2 SWAP1 PUSH2 0xEE7 PUSH1 0x3 DUP7 ADD SLOAD PUSH2 0x2020 JUMP JUMPDEST PUSH1 0x1F DUP2 GT PUSH2 0x1406 JUMPI JUMPDEST POP PUSH1 0x20 SWAP1 PUSH1 0x1F DUP4 GT PUSH1 0x1 EQ PUSH2 0x1394 JUMPI PUSH1 0x0 SWAP3 PUSH2 0x1389 JUMPI JUMPDEST POP POP DUP2 PUSH1 0x1 SHL SWAP2 PUSH1 0x0 NOT SWAP1 PUSH1 0x3 SHL SHR NOT AND OR PUSH1 0x3 DUP4 ADD SSTORE JUMPDEST PUSH1 0x80 DUP2 ADD MLOAD DUP1 MLOAD SWAP1 PUSH1 0x1 PUSH1 0x1 PUSH1 0x40 SHL SUB DUP3 GT PUSH2 0x748 JUMPI DUP2 SWAP1 PUSH2 0xF44 PUSH1 0x4 DUP7 ADD SLOAD PUSH2 0x2020 JUMP JUMPDEST PUSH1 0x1F DUP2 GT PUSH2 0x1336 JUMPI JUMPDEST POP PUSH1 0x20 SWAP1 PUSH1 0x1F DUP4 GT PUSH1 0x1 EQ PUSH2 0x12C4 JUMPI PUSH1 0x0 SWAP3 PUSH2 0x12B9 JUMPI JUMPDEST POP POP DUP2 PUSH1 0x1 SHL SWAP2 PUSH1 0x0 NOT SWAP1 PUSH1 0x3 SHL SHR NOT AND OR PUSH1 0x4 DUP4 ADD SSTORE JUMPDEST PUSH1 0xA0 DUP2 ADD MLOAD DUP1 MLOAD SWAP1 PUSH1 0x1 PUSH1 0x1 PUSH1 0x40 SHL SUB DUP3 GT PUSH2 0x748 JUMPI DUP2 SWAP1 PUSH2 0xFA1 PUSH1 0x5 DUP7 ADD SLOAD PUSH2 0x2020 JUMP JUMPDEST PUSH1 0x1F DUP2 GT PUSH2 0x1266 JUMPI JUMPDEST POP PUSH1 0x20 SWAP1 PUSH1 0x1F DUP4 GT PUSH1 0x1 EQ PUSH2 0x11F4 JUMPI PUSH1 0x0 SWAP3 PUSH2 0x11E9 JUMPI JUMPDEST POP POP DUP2 PUSH1 0x1 SHL SWAP2 PUSH1 0x0 NOT SWAP1 PUSH1 0x3 SHL SHR NOT AND OR PUSH1 0x5 DUP4 ADD SSTORE JUMPDEST PUSH1 0xC0 DUP2 ADD MLOAD DUP1 MLOAD SWAP1 PUSH1 0x1 PUSH1 0x1 PUSH1 0x40 SHL SUB DUP3 GT PUSH2 0x748 JUMPI PUSH2 0xFFC PUSH1 0x6 DUP6 ADD SLOAD PUSH2 0x2020 JUMP JUMPDEST PUSH1 0x1F DUP2 GT PUSH2 0x11A2 JUMPI JUMPDEST POP PUSH1 0x20 SWAP1 PUSH1 0x1F DUP4 GT PUSH1 0x1 EQ PUSH2 0x1106 JUMPI PUSH32 0x6F2FEFEB88758BF18ECF7AEB04132D2821B56EEFD2CF100CD57A9A52D7C1751E SWAP6 SWAP4 DUP4 PUSH2 0x10E2 SWAP7 SWAP5 PUSH1 0x9 SWAP5 PUSH2 0x140 SWAP5 PUSH1 0x0 SWAP3 PUSH2 0x10FB JUMPI JUMPDEST POP POP DUP2 PUSH1 0x1 SHL SWAP2 PUSH1 0x0 NOT SWAP1 PUSH1 0x3 SHL SHR NOT AND OR PUSH1 0x6 DUP6 ADD SSTORE JUMPDEST PUSH1 0x7 DUP5 ADD PUSH1 0x1 DUP1 PUSH1 0xA0 SHL SUB PUSH1 0xE0 DUP4 ADD MLOAD AND DUP2 SLOAD SWAP1 PUSH1 0xFF PUSH1 0xA0 SHL PUSH2 0x100 DUP6 ADD MLOAD ISZERO ISZERO PUSH1 0xA0 SHL AND SWAP2 PUSH11 0xFFFFFFFFFFFFFFFFFFFFFF PUSH1 0xA8 SHL AND OR OR SWAP1 SSTORE PUSH2 0x120 DUP2 ADD MLOAD PUSH1 0x8 DUP6 ADD SSTORE ADD MLOAD SWAP2 ADD SSTORE CALLER PUSH1 0x0 MSTORE PUSH1 0x3 PUSH1 0x20 MSTORE PUSH1 0x40 PUSH1 0x0 KECCAK256 PUSH1 0x1 PUSH1 0xFF NOT DUP3 SLOAD AND OR SWAP1 SSTORE PUSH2 0x10F0 PUSH1 0x4 SLOAD SWAP5 PUSH1 0x40 MLOAD SWAP4 DUP5 SWAP4 PUSH1 0x60 DUP6 MSTORE PUSH1 0x60 DUP6 ADD SWAP1 PUSH2 0x1DD4 JUMP JUMPDEST SWAP1 DUP4 DUP3 SUB PUSH1 0x20 DUP6 ADD MSTORE PUSH2 0x1DD4 JUMP JUMPDEST CALLER PUSH1 0x40 DUP4 ADD MSTORE SUB SWAP1 LOG2 STOP JUMPDEST ADD MLOAD SWAP1 POP DUP11 DUP1 PUSH2 0x104C JUMP JUMPDEST SWAP1 PUSH1 0x6 DUP6 ADD PUSH1 0x0 MSTORE PUSH1 0x20 PUSH1 0x0 KECCAK256 SWAP2 PUSH1 0x0 JUMPDEST PUSH1 0x1F NOT DUP6 AND DUP2 LT PUSH2 0x118A JUMPI POP SWAP4 PUSH1 0x1 DUP5 PUSH1 0x9 SWAP5 PUSH2 0x140 SWAP5 PUSH32 0x6F2FEFEB88758BF18ECF7AEB04132D2821B56EEFD2CF100CD57A9A52D7C1751E SWAP11 SWAP9 PUSH2 0x10E2 SWAP11 SWAP9 PUSH1 0x1F NOT DUP2 AND LT PUSH2 0x1171 JUMPI JUMPDEST POP POP POP DUP2 SHL ADD PUSH1 0x6 DUP6 ADD SSTORE PUSH2 0x1064 JUMP JUMPDEST ADD MLOAD PUSH1 0x0 NOT PUSH1 0xF8 DUP5 PUSH1 0x3 SHL AND SHR NOT AND SWAP1 SSTORE DUP11 DUP1 DUP1 PUSH2 0x1161 JUMP JUMPDEST SWAP2 SWAP3 PUSH1 0x20 PUSH1 0x1 DUP2 SWAP3 DUP7 DUP6 ADD MLOAD DUP2 SSTORE ADD SWAP5 ADD SWAP3 ADD PUSH2 0x1117 JUMP JUMPDEST PUSH1 0x6 DUP6 ADD PUSH1 0x0 MSTORE PUSH1 0x20 PUSH1 0x0 KECCAK256 PUSH1 0x1F DUP5 ADD PUSH1 0x5 SHR DUP2 ADD PUSH1 0x20 DUP6 LT PUSH2 0x11E2 JUMPI JUMPDEST PUSH1 0x1F DUP4 ADD PUSH1 0x5 SHR DUP3 ADD DUP2 LT PUSH2 0x11D6 JUMPI POP POP PUSH2 0x1005 JUMP JUMPDEST PUSH1 0x0 DUP2 SSTORE PUSH1 0x1 ADD PUSH2 0x11C0 JUMP JUMPDEST POP DUP1 PUSH2 0x11C0 JUMP JUMPDEST ADD MLOAD SWAP1 POP DUP7 DUP1 PUSH2 0xFC1 JUMP JUMPDEST SWAP3 POP PUSH1 0x5 DUP6 ADD PUSH1 0x0 MSTORE PUSH1 0x20 PUSH1 0x0 KECCAK256 SWAP1 PUSH1 0x0 SWAP4 JUMPDEST PUSH1 0x1F NOT DUP5 AND DUP6 LT PUSH2 0x124B JUMPI PUSH1 0x1 SWAP5 POP DUP4 PUSH1 0x1F NOT DUP2 AND LT PUSH2 0x1232 JUMPI JUMPDEST POP POP POP DUP2 SHL ADD PUSH1 0x5 DUP4 ADD SSTORE PUSH2 0xFD9 JUMP JUMPDEST ADD MLOAD PUSH1 0x0 NOT PUSH1 0xF8 DUP5 PUSH1 0x3 SHL AND SHR NOT AND SWAP1 SSTORE DUP7 DUP1 DUP1 PUSH2 0x1222 JUMP JUMPDEST DUP2 DUP2 ADD MLOAD DUP4 SSTORE PUSH1 0x20 SWAP5 DUP6 ADD SWAP5 PUSH1 0x1 SWAP1 SWAP4 ADD SWAP3 SWAP1 SWAP2 ADD SWAP1 PUSH2 0x1207 JUMP JUMPDEST SWAP1 SWAP2 POP PUSH1 0x5 DUP6 ADD PUSH1 0x0 MSTORE PUSH1 0x20 PUSH1 0x0 KECCAK256 PUSH1 0x1F DUP5 ADD PUSH1 0x5 SHR DUP2 ADD PUSH1 0x20 DUP6 LT PUSH2 0x12B2 JUMPI JUMPDEST SWAP1 DUP5 SWAP4 SWAP3 SWAP2 JUMPDEST PUSH1 0x1F DUP4 ADD PUSH1 0x5 SHR DUP3 ADD DUP2 LT PUSH2 0x12A3 JUMPI POP POP PUSH2 0xFAA JUMP JUMPDEST PUSH1 0x0 DUP2 SSTORE DUP6 SWAP5 POP PUSH1 0x1 ADD PUSH2 0x128D JUMP JUMPDEST POP DUP1 PUSH2 0x1287 JUMP JUMPDEST ADD MLOAD SWAP1 POP DUP7 DUP1 PUSH2 0xF64 JUMP JUMPDEST SWAP3 POP PUSH1 0x4 DUP6 ADD PUSH1 0x0 MSTORE PUSH1 0x20 PUSH1 0x0 KECCAK256 SWAP1 PUSH1 0x0 SWAP4 JUMPDEST PUSH1 0x1F NOT DUP5 AND DUP6 LT PUSH2 0x131B JUMPI PUSH1 0x1 SWAP5 POP DUP4 PUSH1 0x1F NOT DUP2 AND LT PUSH2 0x1302 JUMPI JUMPDEST POP POP POP DUP2 SHL ADD PUSH1 0x4 DUP4 ADD SSTORE PUSH2 0xF7C JUMP JUMPDEST ADD MLOAD PUSH1 0x0 NOT PUSH1 0xF8 DUP5 PUSH1 0x3 SHL AND SHR NOT AND SWAP1 SSTORE DUP7 DUP1 DUP1 PUSH2 0x12F2 JUMP JUMPDEST DUP2 DUP2 ADD MLOAD DUP4 SSTORE PUSH1 0x20 SWAP5 DUP6 ADD SWAP5 PUSH1 0x1 SWAP1 SWAP4 ADD SWAP3 SWAP1 SWAP2 ADD SWAP1 PUSH2 0x12D7 JUMP JUMPDEST SWAP1 SWAP2 POP PUSH1 0x4 DUP6 ADD PUSH1 0x0 MSTORE PUSH1 0x20 PUSH1 0x0 KECCAK256 PUSH1 0x1F DUP5 ADD PUSH1 0x5 SHR DUP2 ADD PUSH1 0x20 DUP6 LT PUSH2 0x1382 JUMPI JUMPDEST SWAP1 DUP5 SWAP4 SWAP3 SWAP2 JUMPDEST PUSH1 0x1F DUP4 ADD PUSH1 0x5 SHR DUP3 ADD DUP2 LT PUSH2 0x1373 JUMPI POP POP PUSH2 0xF4D JUMP JUMPDEST PUSH1 0x0 DUP2 SSTORE DUP6 SWAP5 POP PUSH1 0x1 ADD PUSH2 0x135D JUMP JUMPDEST POP DUP1 PUSH2 0x1357 JUMP JUMPDEST ADD MLOAD SWAP1 POP DUP7 DUP1 PUSH2 0xF07 JUMP JUMPDEST SWAP3 POP PUSH1 0x3 DUP6 ADD PUSH1 0x0 MSTORE PUSH1 0x20 PUSH1 0x0 KECCAK256 SWAP1 PUSH1 0x0 SWAP4 JUMPDEST PUSH1 0x1F NOT DUP5 AND DUP6 LT PUSH2 0x13EB JUMPI PUSH1 0x1 SWAP5 POP DUP4 PUSH1 0x1F NOT DUP2 AND LT PUSH2 0x13D2 JUMPI JUMPDEST POP POP POP DUP2 SHL ADD PUSH1 0x3 DUP4 ADD SSTORE PUSH2 0xF1F JUMP JUMPDEST ADD MLOAD PUSH1 0x0 NOT PUSH1 0xF8 DUP5 PUSH1 0x3 SHL AND SHR NOT AND SWAP1 SSTORE DUP7 DUP1 DUP1 PUSH2 0x13C2 JUMP JUMPDEST DUP2 DUP2 ADD MLOAD DUP4 SSTORE PUSH1 0x20 SWAP5 DUP6 ADD SWAP5 PUSH1 0x1 SWAP1 SWAP4 ADD SWAP3 SWAP1 SWAP2 ADD SWAP1 PUSH2 0x13A7 JUMP JUMPDEST SWAP1 SWAP2 POP PUSH1 0x3 DUP6 ADD PUSH1 0x0 MSTORE PUSH1 0x20 PUSH1 0x0 KECCAK256 PUSH1 0x1F DUP5 ADD PUSH1 0x5 SHR DUP2 ADD PUSH1 0x20 DUP6 LT PUSH2 0x1452 JUMPI JUMPDEST SWAP1 DUP5 SWAP4 SWAP3 SWAP2 JUMPDEST PUSH1 0x1F DUP4 ADD PUSH1 0x5 SHR DUP3 ADD DUP2 LT PUSH2 0x1443 JUMPI POP POP PUSH2 0xEF0 JUMP JUMPDEST PUSH1 0x0 DUP2 SSTORE DUP6 SWAP5 POP PUSH1 0x1 ADD PUSH2 0x142D JUMP JUMPDEST POP DUP1 PUSH2 0x1427 JUMP JUMPDEST ADD MLOAD SWAP1 POP DUP7 DUP1 PUSH2 0xEAA JUMP JUMPDEST SWAP3 POP PUSH1 0x2 DUP6 ADD PUSH1 0x0 MSTORE PUSH1 0x20 PUSH1 0x0 KECCAK256 SWAP1 PUSH1 0x0 SWAP4 JUMPDEST PUSH1 0x1F NOT DUP5 AND DUP6 LT PUSH2 0x14BB JUMPI PUSH1 0x1 SWAP5 POP DUP4 PUSH1 0x1F NOT DUP2 AND LT PUSH2 0x14A2 JUMPI JUMPDEST POP POP POP DUP2 SHL ADD PUSH1 0x2 DUP4 ADD SSTORE PUSH2 0xEC2 JUMP JUMPDEST ADD MLOAD PUSH1 0x0 NOT PUSH1 0xF8 DUP5 PUSH1 0x3 SHL AND SHR NOT AND SWAP1 SSTORE DUP7 DUP1 DUP1 PUSH2 0x1492 JUMP JUMPDEST DUP2 DUP2 ADD MLOAD DUP4 SSTORE PUSH1 0x20 SWAP5 DUP6 ADD SWAP5 PUSH1 0x1 SWAP1 SWAP4 ADD SWAP3 SWAP1 SWAP2 ADD SWAP1 PUSH2 0x1477 JUMP JUMPDEST SWAP1 SWAP2 POP PUSH1 0x2 DUP6 ADD PUSH1 0x0 MSTORE PUSH1 0x20 PUSH1 0x0 KECCAK256 PUSH1 0x1F DUP5 ADD PUSH1 0x5 SHR DUP2 ADD PUSH1 0x20 DUP6 LT PUSH2 0x1522 JUMPI JUMPDEST SWAP1 DUP5 SWAP4 SWAP3 SWAP2 JUMPDEST PUSH1 0x1F DUP4 ADD PUSH1 0x5 SHR DUP3 ADD DUP2 LT PUSH2 0x1513 JUMPI POP POP PUSH2 0xE93 JUMP JUMPDEST PUSH1 0x0 DUP2 SSTORE DUP6 SWAP5 POP PUSH1 0x1 ADD PUSH2 0x14FD JUMP JUMPDEST POP DUP1 PUSH2 0x14F7 JUMP JUMPDEST ADD MLOAD SWAP1 POP DUP7 DUP1 PUSH2 0xE4D JUMP JUMPDEST SWAP3 POP PUSH1 0x1 DUP6 ADD PUSH1 0x0 MSTORE PUSH1 0x20 PUSH1 0x0 KECCAK256 SWAP1 PUSH1 0x0 SWAP4 JUMPDEST PUSH1 0x1F NOT DUP5 AND DUP6 LT PUSH2 0x158B JUMPI PUSH1 0x1 SWAP5 POP DUP4 PUSH1 0x1F NOT DUP2 AND LT PUSH2 0x1572 JUMPI JUMPDEST POP POP POP DUP2 SHL ADD PUSH1 0x1 DUP4 ADD SSTORE PUSH2 0xE65 JUMP JUMPDEST ADD MLOAD PUSH1 0x0 NOT PUSH1 0xF8 DUP5 PUSH1 0x3 SHL AND SHR NOT AND SWAP1 SSTORE DUP7 DUP1 DUP1 PUSH2 0x1562 JUMP JUMPDEST DUP2 DUP2 ADD MLOAD DUP4 SSTORE PUSH1 0x20 SWAP5 DUP6 ADD SWAP5 PUSH1 0x1 SWAP1 SWAP4 ADD SWAP3 SWAP1 SWAP2 ADD SWAP1 PUSH2 0x1547 JUMP JUMPDEST SWAP1 SWAP2 POP PUSH1 0x1 DUP6 ADD PUSH1 0x0 MSTORE PUSH1 0x20 PUSH1 0x0 KECCAK256 PUSH1 0x1F DUP5 ADD PUSH1 0x5 SHR DUP2 ADD PUSH1 0x20 DUP6 LT PUSH2 0x15F2 JUMPI JUMPDEST SWAP1 DUP5 SWAP4 SWAP3 SWAP2 JUMPDEST PUSH1 0x1F DUP4 ADD PUSH1 0x5 SHR DUP3 ADD DUP2 LT PUSH2 0x15E3 JUMPI POP POP PUSH2 0xE36 JUMP JUMPDEST PUSH1 0x0 DUP2 SSTORE DUP6 SWAP5 POP PUSH1 0x1 ADD PUSH2 0x15CD JUMP JUMPDEST POP DUP1 PUSH2 0x15C7 JUMP JUMPDEST ADD MLOAD SWAP1 POP DUP7 DUP1 PUSH2 0xDF3 JUMP JUMPDEST SWAP3 POP DUP5 PUSH1 0x0 MSTORE PUSH1 0x20 PUSH1 0x0 KECCAK256 SWAP1 PUSH1 0x0 SWAP4 JUMPDEST PUSH1 0x1F NOT DUP5 AND DUP6 LT PUSH2 0x1655 JUMPI PUSH1 0x1 SWAP5 POP DUP4 PUSH1 0x1F NOT DUP2 AND LT PUSH2 0x163C JUMPI JUMPDEST POP POP POP DUP2 SHL ADD DUP3 SSTORE PUSH2 0xE08 JUMP JUMPDEST ADD MLOAD PUSH1 0x0 NOT PUSH1 0xF8 DUP5 PUSH1 0x3 SHL AND SHR NOT AND SWAP1 SSTORE DUP7 DUP1 DUP1 PUSH2 0x162F JUMP JUMPDEST DUP2 DUP2 ADD MLOAD DUP4 SSTORE PUSH1 0x20 SWAP5 DUP6 ADD SWAP5 PUSH1 0x1 SWAP1 SWAP4 ADD SWAP3 SWAP1 SWAP2 ADD SWAP1 PUSH2 0x1614 JUMP JUMPDEST SWAP1 SWAP2 POP DUP5 PUSH1 0x0 MSTORE PUSH1 0x20 PUSH1 0x0 KECCAK256 PUSH1 0x1F DUP5 ADD PUSH1 0x5 SHR DUP2 ADD PUSH1 0x20 DUP6 LT PUSH2 0x16B9 JUMPI JUMPDEST SWAP1 DUP5 SWAP4 SWAP3 SWAP2 JUMPDEST PUSH1 0x1F DUP4 ADD PUSH1 0x5 SHR DUP3 ADD DUP2 LT PUSH2 0x16AA JUMPI POP POP PUSH2 0xDDC JUMP JUMPDEST PUSH1 0x0 DUP2 SSTORE DUP6 SWAP5 POP PUSH1 0x1 ADD PUSH2 0x1694 JUMP JUMPDEST POP DUP1 PUSH2 0x168E JUMP JUMPDEST PUSH1 0x40 MLOAD PUSH3 0x461BCD PUSH1 0xE5 SHL DUP2 MSTORE PUSH1 0x20 PUSH1 0x4 DUP3 ADD MSTORE PUSH1 0x18 PUSH1 0x24 DUP3 ADD MSTORE PUSH32 0x4C6F636174696F6E2063616E6E6F7420626520656D7074790000000000000000 PUSH1 0x44 DUP3 ADD MSTORE PUSH1 0x64 SWAP1 REVERT JUMPDEST PUSH1 0x40 MLOAD PUSH3 0x461BCD PUSH1 0xE5 SHL DUP2 MSTORE PUSH1 0x20 PUSH1 0x4 DUP3 ADD MSTORE PUSH1 0x14 PUSH1 0x24 DUP3 ADD MSTORE PUSH20 0x4E616D652063616E6E6F7420626520656D707479 PUSH1 0x60 SHL PUSH1 0x44 DUP3 ADD MSTORE PUSH1 0x64 SWAP1 REVERT JUMPDEST PUSH1 0x40 MLOAD PUSH3 0x461BCD PUSH1 0xE5 SHL DUP2 MSTORE PUSH1 0x20 PUSH1 0x4 DUP3 ADD MSTORE PUSH1 0x29 PUSH1 0x24 DUP3 ADD MSTORE PUSH32 0x43656E74657220616C7265616479207265676973746572656420627920746869 PUSH1 0x44 DUP3 ADD MSTORE PUSH9 0x732061646472657373 PUSH1 0xB8 SHL PUSH1 0x64 DUP3 ADD MSTORE PUSH1 0x84 SWAP1 REVERT JUMPDEST CALLVALUE PUSH2 0x11D JUMPI PUSH1 0x20 DUP1 PUSH1 0x3 NOT CALLDATASIZE ADD SLT PUSH2 0x11D JUMPI PUSH1 0x4 CALLDATALOAD SWAP1 CALLER PUSH1 0x0 MSTORE PUSH1 0x2 DUP2 MSTORE PUSH1 0xFF PUSH1 0x40 PUSH1 0x0 KECCAK256 SLOAD AND DUP1 ISZERO PUSH2 0x1900 JUMPI JUMPDEST ISZERO PUSH2 0x18AD JUMPI DUP2 ISZERO ISZERO DUP1 PUSH2 0x18A1 JUMPI JUMPDEST PUSH2 0x17DD SWAP1 PUSH2 0x2125 JUMP JUMPDEST DUP2 PUSH1 0x0 MSTORE PUSH1 0x0 DUP2 MSTORE PUSH1 0xFF PUSH1 0x7 PUSH1 0x40 PUSH1 0x0 KECCAK256 ADD SLOAD PUSH1 0xA0 SHR AND PUSH2 0x185D JUMPI PUSH1 0x0 DUP3 DUP2 MSTORE SWAP1 DUP2 SWAP1 MSTORE PUSH1 0x40 SWAP1 DUP2 SWAP1 KECCAK256 PUSH1 0x7 DUP2 ADD DUP1 SLOAD PUSH1 0xFF PUSH1 0xA0 SHL NOT AND PUSH1 0x1 PUSH1 0xA0 SHL OR SWAP1 SSTORE TIMESTAMP PUSH1 0x9 SWAP1 SWAP2 ADD DUP2 SWAP1 SSTORE DUP2 MLOAD CALLER DUP2 MSTORE PUSH1 0x20 DUP2 ADD SWAP2 SWAP1 SWAP2 MSTORE PUSH32 0x95B0C9F618598BB6CBA4D45B6DF552A6A71E3EF83DD75E3578E970155F863CB3 SWAP2 DUP2 SWAP1 DUP2 ADD PUSH2 0x37C JUMP JUMPDEST PUSH1 0x64 SWAP1 PUSH1 0x40 MLOAD SWAP1 PUSH3 0x461BCD PUSH1 0xE5 SHL DUP3 MSTORE PUSH1 0x4 DUP3 ADD MSTORE PUSH1 0x17 PUSH1 0x24 DUP3 ADD MSTORE PUSH32 0x43656E74657220616C7265616479207665726966696564000000000000000000 PUSH1 0x44 DUP3 ADD MSTORE REVERT JUMPDEST POP PUSH1 0x4 SLOAD DUP3 GT ISZERO PUSH2 0x17D4 JUMP JUMPDEST PUSH1 0x84 SWAP1 PUSH1 0x40 MLOAD SWAP1 PUSH3 0x461BCD PUSH1 0xE5 SHL DUP3 MSTORE PUSH1 0x4 DUP3 ADD MSTORE PUSH1 0x26 PUSH1 0x24 DUP3 ADD MSTORE PUSH32 0x4F6E6C79207665726966696572732063616E20706572666F726D207468697320 PUSH1 0x44 DUP3 ADD MSTORE PUSH6 0x30B1BA34B7B7 PUSH1 0xD1 SHL PUSH1 0x64 DUP3 ADD MSTORE REVERT JUMPDEST POP PUSH1 0x6 SLOAD PUSH1 0x1 PUSH1 0x1 PUSH1 0xA0 SHL SUB AND CALLER EQ PUSH2 0x17C6 JUMP JUMPDEST CALLVALUE PUSH2 0x11D JUMPI PUSH1 0x60 CALLDATASIZE PUSH1 0x3 NOT ADD SLT PUSH2 0x11D JUMPI PUSH1 0x4 CALLDATALOAD PUSH1 0x24 CALLDATALOAD SWAP1 PUSH1 0xFF DUP3 AND DUP1 SWAP3 SUB PUSH2 0x11D JUMPI PUSH1 0x1 PUSH1 0x1 PUSH1 0x40 SHL SUB SWAP2 PUSH1 0x44 CALLDATALOAD DUP4 DUP2 GT PUSH2 0x11D JUMPI PUSH2 0x1958 SWAP1 CALLDATASIZE SWAP1 PUSH1 0x4 ADD PUSH2 0x1F98 JUMP JUMPDEST SWAP1 DUP3 ISZERO ISZERO DUP1 PUSH2 0x1C3E JUMPI JUMPDEST PUSH2 0x196B SWAP1 PUSH2 0x2125 JUMP JUMPDEST PUSH1 0x1 DUP1 DUP3 LT ISZERO DUP1 PUSH2 0x1C33 JUMPI JUMPDEST ISZERO PUSH2 0x1BEE JUMPI DUP4 PUSH1 0x0 MSTORE PUSH1 0x20 SWAP3 PUSH1 0x0 DUP5 MSTORE PUSH2 0x199E PUSH1 0xFF PUSH1 0x7 PUSH1 0x40 PUSH1 0x0 KECCAK256 ADD SLOAD PUSH1 0xA0 SHR AND PUSH2 0x2165 JUMP JUMPDEST DUP5 PUSH1 0x0 MSTORE DUP2 DUP5 MSTORE PUSH1 0x40 PUSH1 0x0 KECCAK256 SWAP2 PUSH1 0x40 MLOAD SWAP2 PUSH2 0x19B8 DUP4 PUSH2 0x1F5C JUMP JUMPDEST CALLER DUP4 MSTORE DUP6 DUP4 ADD SWAP2 DUP8 DUP4 MSTORE PUSH1 0x40 DUP5 ADD DUP7 DUP2 MSTORE PUSH1 0x60 DUP6 ADD SWAP3 DUP4 MSTORE PUSH1 0x80 DUP6 ADD SWAP4 TIMESTAMP DUP6 MSTORE PUSH1 0xA0 DUP7 ADD SWAP7 PUSH1 0x0 DUP9 MSTORE DUP1 SLOAD PUSH9 0x10000000000000000 DUP2 LT ISZERO PUSH2 0x748 JUMPI PUSH2 0x1A02 SWAP2 DUP6 DUP3 ADD DUP2 SSTORE PUSH2 0x1FEE JUMP JUMPDEST SWAP7 SWAP1 SWAP7 PUSH2 0x1BD8 JUMPI PUSH1 0x1 DUP1 PUSH1 0xA0 SHL SUB SWAP1 MLOAD AND PUSH12 0xFFFFFFFFFFFFFFFFFFFFFFFF PUSH1 0xA0 SHL DUP8 SLOAD AND OR DUP7 SSTORE MLOAD DUP3 DUP7 ADD SSTORE PUSH1 0xFF PUSH1 0x2 DUP7 ADD SWAP2 MLOAD AND PUSH1 0xFF NOT DUP3 SLOAD AND OR SWAP1 SSTORE PUSH1 0x3 DUP5 ADD SWAP2 MLOAD DUP1 MLOAD SWAP10 DUP11 GT PUSH2 0x748 JUMPI PUSH2 0x1A59 DUP4 SLOAD PUSH2 0x2020 JUMP JUMPDEST PUSH1 0x1F DUP2 GT PUSH2 0x1B8F JUMPI JUMPDEST POP DUP8 SWAP1 PUSH1 0x1F DUP12 GT PUSH1 0x1 EQ PUSH2 0x1AFF JUMPI SWAP10 DUP1 DUP1 PUSH1 0x5 SWAP7 SWAP5 PUSH1 0x60 SWAP12 SWAP11 SWAP10 SWAP9 SWAP7 SWAP5 PUSH32 0xF28E426ED084685D8A267BCEC12461435FAEFC53FA738751FA8A13444C23255E SWAP14 SWAP15 PUSH1 0x0 SWAP5 PUSH2 0x1AF4 JUMPI JUMPDEST POP POP SHL SWAP2 PUSH1 0x0 NOT SWAP1 PUSH1 0x3 SHL SHR NOT AND OR SWAP1 SSTORE JUMPDEST MLOAD PUSH1 0x4 DUP3 ADD SSTORE ADD SWAP1 MLOAD ISZERO ISZERO PUSH1 0xFF DUP1 NOT DUP4 SLOAD AND SWAP2 AND OR SWAP1 SSTORE PUSH2 0x1ADE PUSH1 0x5 SLOAD PUSH2 0x2100 JUMP JUMPDEST PUSH1 0x5 SSTORE PUSH1 0x40 MLOAD SWAP2 CALLER DUP4 MSTORE DUP3 ADD MSTORE TIMESTAMP PUSH1 0x40 DUP3 ADD MSTORE LOG2 STOP JUMPDEST ADD MLOAD SWAP3 POP DUP15 DUP1 PUSH2 0x1AAA JUMP JUMPDEST SWAP10 SWAP1 PUSH1 0x1F NOT DUP3 AND SWAP11 DUP5 PUSH1 0x0 MSTORE DUP10 PUSH1 0x0 KECCAK256 SWAP12 PUSH1 0x0 JUMPDEST DUP2 DUP2 LT PUSH2 0x1B7A JUMPI POP SWAP12 PUSH1 0x5 SWAP7 SWAP5 SWAP3 DUP5 SWAP3 PUSH1 0x60 SWAP13 SWAP12 SWAP11 SWAP10 SWAP8 SWAP6 PUSH32 0xF28E426ED084685D8A267BCEC12461435FAEFC53FA738751FA8A13444C23255E SWAP15 SWAP16 LT PUSH2 0x1B61 JUMPI JUMPDEST POP POP POP DUP2 SHL ADD SWAP1 SSTORE PUSH2 0x1ABC JUMP JUMPDEST ADD MLOAD PUSH1 0x0 NOT PUSH1 0xF8 DUP5 PUSH1 0x3 SHL AND SHR NOT AND SWAP1 SSTORE DUP13 DUP1 DUP1 PUSH2 0x1B54 JUMP JUMPDEST DUP4 DUP4 ADD MLOAD DUP15 SSTORE SWAP13 DUP6 ADD SWAP13 SWAP3 DUP12 ADD SWAP3 DUP12 ADD PUSH2 0x1B13 JUMP JUMPDEST DUP4 PUSH1 0x0 MSTORE DUP9 PUSH1 0x0 KECCAK256 PUSH1 0x1F DUP13 ADD PUSH1 0x5 SHR DUP2 ADD SWAP2 DUP11 DUP14 LT PUSH2 0x1BCE JUMPI JUMPDEST PUSH1 0x1F ADD PUSH1 0x5 SHR ADD SWAP1 DUP4 SWAP1 JUMPDEST DUP3 DUP2 LT PUSH2 0x1BC2 JUMPI POP POP PUSH2 0x1A62 JUMP JUMPDEST PUSH1 0x0 DUP2 SSTORE ADD DUP4 SWAP1 PUSH2 0x1BB4 JUMP JUMPDEST SWAP1 SWAP2 POP DUP2 SWAP1 PUSH2 0x1BA9 JUMP JUMPDEST PUSH4 0x4E487B71 PUSH1 0xE0 SHL PUSH1 0x0 MSTORE PUSH1 0x0 PUSH1 0x4 MSTORE PUSH1 0x24 PUSH1 0x0 REVERT JUMPDEST PUSH1 0x40 MLOAD PUSH3 0x461BCD PUSH1 0xE5 SHL DUP2 MSTORE PUSH1 0x20 PUSH1 0x4 DUP3 ADD MSTORE PUSH1 0x1E PUSH1 0x24 DUP3 ADD MSTORE PUSH32 0x526174696E67206D757374206265206265747765656E203120616E6420350000 PUSH1 0x44 DUP3 ADD MSTORE PUSH1 0x64 SWAP1 REVERT JUMPDEST POP PUSH1 0x5 DUP3 GT ISZERO PUSH2 0x1977 JUMP JUMPDEST POP PUSH1 0x4 SLOAD DUP4 GT ISZERO PUSH2 0x1962 JUMP JUMPDEST CALLVALUE PUSH2 0x11D JUMPI PUSH1 0x0 CALLDATASIZE PUSH1 0x3 NOT ADD SLT PUSH2 0x11D JUMPI PUSH1 0x4 SLOAD PUSH2 0x1C67 DUP2 PUSH2 0x221A JUMP JUMPDEST SWAP1 PUSH1 0x0 SWAP1 PUSH1 0x1 DUP1 JUMPDEST DUP3 DUP2 GT ISZERO PUSH2 0x1CAF JUMPI POP POP POP PUSH2 0x1C83 DUP2 PUSH2 0x221A JUMP JUMPDEST SWAP2 PUSH1 0x0 JUMPDEST DUP3 DUP2 LT PUSH2 0x1C9C JUMPI PUSH1 0x40 MLOAD DUP1 PUSH2 0x978 DUP7 DUP3 PUSH2 0x1EDE JUMP JUMPDEST DUP1 PUSH2 0xAD0 PUSH2 0x1CAA SWAP3 DUP5 PUSH2 0x226A JUMP JUMPDEST PUSH2 0x1C87 JUMP JUMPDEST DUP1 PUSH1 0x0 MSTORE PUSH1 0x20 PUSH1 0x0 DUP2 MSTORE PUSH1 0x40 PUSH1 0x0 KECCAK256 PUSH1 0x7 DUP2 ADD SLOAD PUSH1 0xA0 SWAP1 PUSH1 0xFF DUP2 DUP4 SHR AND SWAP2 DUP3 PUSH2 0x1CE6 JUMPI JUMPDEST POP POP POP POP POP PUSH2 0x1CE1 SWAP1 PUSH2 0x2100 JUMP JUMPDEST PUSH2 0x1C6F JUMP JUMPDEST SWAP3 PUSH2 0x1DAE SWAP5 SWAP3 PUSH1 0x9 SWAP3 PUSH2 0x1CE1 SWAP8 SWAP11 SWAP6 PUSH1 0x40 MLOAD SWAP6 PUSH2 0x1D02 DUP8 PUSH2 0x1F40 JUMP JUMPDEST PUSH2 0x1D0B DUP6 PUSH2 0x205A JUMP JUMPDEST DUP8 MSTORE PUSH2 0x1D18 DUP12 DUP7 ADD PUSH2 0x205A JUMP JUMPDEST SWAP1 DUP8 ADD MSTORE PUSH2 0x1D28 PUSH1 0x2 DUP6 ADD PUSH2 0x205A JUMP JUMPDEST PUSH1 0x40 DUP8 ADD MSTORE PUSH2 0x1D39 PUSH1 0x3 DUP6 ADD PUSH2 0x205A JUMP JUMPDEST PUSH1 0x60 DUP8 ADD MSTORE PUSH2 0x1D4A PUSH1 0x4 DUP6 ADD PUSH2 0x205A JUMP JUMPDEST PUSH1 0x80 DUP8 ADD MSTORE PUSH2 0x1D5B PUSH1 0x5 DUP6 ADD PUSH2 0x205A JUMP JUMPDEST SWAP1 DUP7 ADD MSTORE PUSH2 0x1D6B PUSH1 0x6 DUP5 ADD PUSH2 0x205A JUMP JUMPDEST PUSH1 0xC0 DUP7 ADD MSTORE PUSH1 0x1 PUSH1 0x1 PUSH1 0xA0 SHL SUB AND PUSH1 0xE0 DUP6 ADD MSTORE ISZERO ISZERO PUSH2 0x100 DUP5 ADD MSTORE PUSH1 0x8 DUP2 ADD SLOAD PUSH2 0x120 DUP5 ADD MSTORE ADD SLOAD PUSH2 0x140 DUP3 ADD MSTORE PUSH2 0x1DA3 DUP3 DUP10 PUSH2 0x226A JUMP JUMPDEST MSTORE PUSH2 0xAE6 DUP2 DUP9 PUSH2 0x226A JUMP JUMPDEST SWAP4 SWAP1 DUP7 DUP1 DUP1 DUP1 PUSH2 0x1CD3 JUMP JUMPDEST CALLVALUE PUSH2 0x11D JUMPI PUSH1 0x0 CALLDATASIZE PUSH1 0x3 NOT ADD SLT PUSH2 0x11D JUMPI PUSH1 0x20 SWAP1 PUSH1 0x4 SLOAD DUP2 MSTORE RETURN JUMPDEST SWAP2 SWAP1 DUP3 MLOAD SWAP3 DUP4 DUP3 MSTORE PUSH1 0x0 JUMPDEST DUP5 DUP2 LT PUSH2 0x1E00 JUMPI POP POP DUP3 PUSH1 0x0 PUSH1 0x20 DUP1 SWAP5 SWAP6 DUP5 ADD ADD MSTORE PUSH1 0x1F DUP1 NOT SWAP2 ADD AND ADD ADD SWAP1 JUMP JUMPDEST PUSH1 0x20 DUP2 DUP4 ADD DUP2 ADD MLOAD DUP5 DUP4 ADD DUP3 ADD MSTORE ADD PUSH2 0x1DDF JUMP JUMPDEST SWAP1 PUSH2 0x1EA6 PUSH2 0x1E94 PUSH2 0x1E82 PUSH2 0x1E70 PUSH2 0x1E5E PUSH2 0x1E4C PUSH2 0x1E3A DUP9 MLOAD PUSH2 0x160 DUP1 DUP11 MSTORE DUP10 ADD SWAP1 PUSH2 0x1DD4 JUMP JUMPDEST PUSH1 0x20 DUP10 ADD MLOAD DUP9 DUP3 SUB PUSH1 0x20 DUP11 ADD MSTORE PUSH2 0x1DD4 JUMP JUMPDEST PUSH1 0x40 DUP9 ADD MLOAD DUP8 DUP3 SUB PUSH1 0x40 DUP10 ADD MSTORE PUSH2 0x1DD4 JUMP JUMPDEST PUSH1 0x60 DUP8 ADD MLOAD DUP7 DUP3 SUB PUSH1 0x60 DUP9 ADD MSTORE PUSH2 0x1DD4 JUMP JUMPDEST PUSH1 0x80 DUP7 ADD MLOAD DUP6 DUP3 SUB PUSH1 0x80 DUP8 ADD MSTORE PUSH2 0x1DD4 JUMP JUMPDEST PUSH1 0xA0 DUP6 ADD MLOAD DUP5 DUP3 SUB PUSH1 0xA0 DUP7 ADD MSTORE PUSH2 0x1DD4 JUMP JUMPDEST PUSH1 0xC0 DUP5 ADD MLOAD DUP4 DUP3 SUB PUSH1 0xC0 DUP6 ADD MSTORE PUSH2 0x1DD4 JUMP JUMPDEST SWAP2 PUSH1 0x1 DUP1 PUSH1 0xA0 SHL SUB PUSH1 0xE0 DUP3 ADD MLOAD AND PUSH1 0xE0 DUP4 ADD MSTORE PUSH2 0x100 DUP1 DUP3 ADD MLOAD ISZERO ISZERO SWAP1 DUP4 ADD MSTORE PUSH2 0x120 DUP1 DUP3 ADD MLOAD SWAP1 DUP4 ADD MSTORE PUSH2 0x140 DUP1 SWAP2 ADD MLOAD SWAP2 ADD MSTORE SWAP1 JUMP JUMPDEST PUSH1 0x20 DUP1 DUP3 ADD SWAP1 DUP1 DUP4 MSTORE DUP4 MLOAD DUP1 SWAP3 MSTORE PUSH1 0x40 DUP4 ADD SWAP3 DUP2 PUSH1 0x40 DUP5 PUSH1 0x5 SHL DUP4 ADD ADD SWAP6 ADD SWAP4 PUSH1 0x0 SWAP2 JUMPDEST DUP5 DUP4 LT PUSH2 0x1F12 JUMPI POP POP POP POP POP POP SWAP1 JUMP JUMPDEST SWAP1 SWAP2 SWAP3 SWAP4 SWAP5 SWAP6 DUP5 DUP1 PUSH2 0x1F30 PUSH1 0x1 SWAP4 PUSH1 0x3F NOT DUP7 DUP3 SUB ADD DUP8 MSTORE DUP11 MLOAD PUSH2 0x1E14 JUMP JUMPDEST SWAP9 ADD SWAP4 ADD SWAP4 ADD SWAP2 SWAP5 SWAP4 SWAP3 SWAP1 PUSH2 0x1F02 JUMP JUMPDEST PUSH2 0x160 DUP2 ADD SWAP1 DUP2 LT PUSH1 0x1 PUSH1 0x1 PUSH1 0x40 SHL SUB DUP3 GT OR PUSH2 0x748 JUMPI PUSH1 0x40 MSTORE JUMP JUMPDEST PUSH1 0xC0 DUP2 ADD SWAP1 DUP2 LT PUSH1 0x1 PUSH1 0x1 PUSH1 0x40 SHL SUB DUP3 GT OR PUSH2 0x748 JUMPI PUSH1 0x40 MSTORE JUMP JUMPDEST SWAP1 PUSH1 0x1F DUP1 NOT SWAP2 ADD AND DUP2 ADD SWAP1 DUP2 LT PUSH1 0x1 PUSH1 0x1 PUSH1 0x40 SHL SUB DUP3 GT OR PUSH2 0x748 JUMPI PUSH1 0x40 MSTORE JUMP JUMPDEST DUP2 PUSH1 0x1F DUP3 ADD SLT ISZERO PUSH2 0x11D JUMPI DUP1 CALLDATALOAD SWAP1 PUSH1 0x1 PUSH1 0x1 PUSH1 0x40 SHL SUB DUP3 GT PUSH2 0x748 JUMPI PUSH1 0x40 MLOAD SWAP3 PUSH2 0x1FCC PUSH1 0x1F DUP5 ADD PUSH1 0x1F NOT AND PUSH1 0x20 ADD DUP6 PUSH2 0x1F77 JUMP JUMPDEST DUP3 DUP5 MSTORE PUSH1 0x20 DUP4 DUP4 ADD ADD GT PUSH2 0x11D JUMPI DUP2 PUSH1 0x0 SWAP3 PUSH1 0x20 DUP1 SWAP4 ADD DUP4 DUP7 ADD CALLDATACOPY DUP4 ADD ADD MSTORE SWAP1 JUMP JUMPDEST DUP1 SLOAD DUP3 LT ISZERO PUSH2 0x200A JUMPI PUSH1 0x0 MSTORE PUSH1 0x6 PUSH1 0x20 PUSH1 0x0 KECCAK256 SWAP2 MUL ADD SWAP1 PUSH1 0x0 SWAP1 JUMP JUMPDEST PUSH4 0x4E487B71 PUSH1 0xE0 SHL PUSH1 0x0 MSTORE PUSH1 0x32 PUSH1 0x4 MSTORE PUSH1 0x24 PUSH1 0x0 REVERT JUMPDEST SWAP1 PUSH1 0x1 DUP3 DUP2 SHR SWAP3 AND DUP1 ISZERO PUSH2 0x2050 JUMPI JUMPDEST PUSH1 0x20 DUP4 LT EQ PUSH2 0x203A JUMPI JUMP JUMPDEST PUSH4 0x4E487B71 PUSH1 0xE0 SHL PUSH1 0x0 MSTORE PUSH1 0x22 PUSH1 0x4 MSTORE PUSH1 0x24 PUSH1 0x0 REVERT JUMPDEST SWAP2 PUSH1 0x7F AND SWAP2 PUSH2 0x202F JUMP JUMPDEST SWAP1 PUSH1 0x40 MLOAD SWAP2 DUP3 PUSH1 0x0 DUP3 SLOAD SWAP3 PUSH2 0x206E DUP5 PUSH2 0x2020 JUMP JUMPDEST SWAP1 DUP2 DUP5 MSTORE PUSH1 0x1 SWAP5 DUP6 DUP2 AND SWAP1 DUP2 PUSH1 0x0 EQ PUSH2 0x20DD JUMPI POP PUSH1 0x1 EQ PUSH2 0x209A JUMPI JUMPDEST POP POP PUSH2 0x2098 SWAP3 POP SUB DUP4 PUSH2 0x1F77 JUMP JUMPDEST JUMP JUMPDEST SWAP1 SWAP4 SWAP2 POP PUSH1 0x0 MSTORE PUSH1 0x20 SWAP1 DUP2 PUSH1 0x0 KECCAK256 SWAP4 PUSH1 0x0 SWAP2 JUMPDEST DUP2 DUP4 LT PUSH2 0x20C5 JUMPI POP POP PUSH2 0x2098 SWAP4 POP DUP3 ADD ADD CODESIZE DUP1 PUSH2 0x208A JUMP JUMPDEST DUP6 SLOAD DUP9 DUP5 ADD DUP6 ADD MSTORE SWAP5 DUP6 ADD SWAP5 DUP8 SWAP5 POP SWAP2 DUP4 ADD SWAP2 PUSH2 0x20AD JUMP JUMPDEST SWAP2 POP POP PUSH2 0x2098 SWAP5 POP PUSH1 0x20 SWAP3 POP PUSH1 0xFF NOT AND DUP3 DUP5 ADD MSTORE ISZERO ISZERO PUSH1 0x5 SHL DUP3 ADD ADD CODESIZE DUP1 PUSH2 0x208A JUMP JUMPDEST PUSH1 0x0 NOT DUP2 EQ PUSH2 0x210F JUMPI PUSH1 0x1 ADD SWAP1 JUMP JUMPDEST PUSH4 0x4E487B71 PUSH1 0xE0 SHL PUSH1 0x0 MSTORE PUSH1 0x11 PUSH1 0x4 MSTORE PUSH1 0x24 PUSH1 0x0 REVERT JUMPDEST ISZERO PUSH2 0x212C JUMPI JUMP JUMPDEST PUSH1 0x40 MLOAD PUSH3 0x461BCD PUSH1 0xE5 SHL DUP2 MSTORE PUSH1 0x20 PUSH1 0x4 DUP3 ADD MSTORE PUSH1 0x11 PUSH1 0x24 DUP3 ADD MSTORE PUSH17 0x125B9D985B1A590818D95B9D195C881251 PUSH1 0x7A SHL PUSH1 0x44 DUP3 ADD MSTORE PUSH1 0x64 SWAP1 REVERT JUMPDEST ISZERO PUSH2 0x216C JUMPI JUMP JUMPDEST PUSH1 0x40 MLOAD PUSH3 0x461BCD PUSH1 0xE5 SHL DUP2 MSTORE PUSH1 0x20 PUSH1 0x4 DUP3 ADD MSTORE PUSH1 0x17 PUSH1 0x24 DUP3 ADD MSTORE PUSH32 0x43656E746572206D757374206265207665726966696564000000000000000000 PUSH1 0x44 DUP3 ADD MSTORE PUSH1 0x64 SWAP1 REVERT JUMPDEST PUSH1 0x1 PUSH1 0x1 PUSH1 0x40 SHL SUB DUP2 GT PUSH2 0x748 JUMPI PUSH1 0x5 SHL PUSH1 0x20 ADD SWAP1 JUMP JUMPDEST PUSH1 0x40 MLOAD SWAP1 PUSH2 0x21D5 DUP3 PUSH2 0x1F40 JUMP JUMPDEST PUSH1 0x0 PUSH2 0x140 DUP4 PUSH1 0x60 DUP1 DUP3 MSTORE DUP1 PUSH1 0x20 DUP4 ADD MSTORE DUP1 PUSH1 0x40 DUP4 ADD MSTORE DUP1 DUP1 DUP4 ADD MSTORE DUP1 PUSH1 0x80 DUP4 ADD MSTORE DUP1 PUSH1 0xA0 DUP4 ADD MSTORE PUSH1 0xC0 DUP3 ADD MSTORE DUP3 PUSH1 0xE0 DUP3 ADD MSTORE DUP3 PUSH2 0x100 DUP3 ADD MSTORE DUP3 PUSH2 0x120 DUP3 ADD MSTORE ADD MSTORE JUMP JUMPDEST SWAP1 PUSH2 0x2224 DUP3 PUSH2 0x21B1 JUMP JUMPDEST PUSH2 0x2231 PUSH1 0x40 MLOAD SWAP2 DUP3 PUSH2 0x1F77 JUMP JUMPDEST DUP3 DUP2 MSTORE DUP1 SWAP3 PUSH2 0x2242 PUSH1 0x1F NOT SWAP2 PUSH2 0x21B1 JUMP JUMPDEST ADD SWAP1 PUSH1 0x0 JUMPDEST DUP3 DUP2 LT PUSH2 0x2253 JUMPI POP POP POP JUMP JUMPDEST PUSH1 0x20 SWAP1 PUSH2 0x225E PUSH2 0x21C8 JUMP JUMPDEST DUP3 DUP3 DUP6 ADD ADD MSTORE ADD PUSH2 0x2247 JUMP JUMPDEST DUP1 MLOAD DUP3 LT ISZERO PUSH2 0x200A JUMPI PUSH1 0x20 SWAP2 PUSH1 0x5 SHL ADD ADD SWAP1 JUMP INVALID LOG2 PUSH5 0x6970667358 0x22 SLT KECCAK256 CALLER SWAP13 DUP5 LOG1 DUP14 0x49 SWAP15 PUSH31 0x4804212A8110AECE661CFC0A8E0ABECBA1C8348D2925B19D64736F6C634300 ADDMOD EQ STOP CALLER "},"methodIdentifiers":{"addReview(uint256,uint8,string)":"4909f98b","addVerifier(address)":"9000b3d6","admin()":"f851a440","centerCount()":"084674cf","centerReviews(uint256,uint256)":"cfb87d9a","centers(uint256)":"d892652b","getCenter(uint256)":"a0e27b89","getCenterReviews(uint256)":"e8c8ba1a","getNearbyCenters(string)":"7d14ec85","getVerifiedCenters()":"1949bc4f","logEmergencyContact(uint256)":"e0684115","registerCenter(string,string,string,string,string,string,string)":"4a183b53","registeredCenters(address)":"ff48c7d1","totalReviews()":"e2367890","updateCenter(uint256,string,string)":"c4eadd22","verifiers(address)":"6c824487","verifyCenter(uint256)":"490bd849"}}}}}