{"contracts/WomenHealthRecords.sol":{"WomenHealthRecords":{"abi":[{"inputs":[],"stateMutability":"nonpayable","type":"constructor"},{"anonymous":false,"inputs":[{"indexed":true,"internalType":"address","name":"patient","type":"address"},{"indexed":true,"internalType":"address","name":"doctor","type":"address"},{"indexed":false,"internalType":"uint256","name":"timestamp","type":"uint256"}],"name":"AccessGranted","type":"event"},{"anonymous":false,"inputs":[{"indexed":true,"internalType":"address","name":"patient","type":"address"},{"indexed":true,"internalType":"address","name":"doctor","type":"address"},{"indexed":false,"internalType":"uint256","name":"timestamp","type":"uint256"}],"name":"AccessRevoked","type":"event"},{"anonymous":false,"inputs":[{"indexed":true,"internalType":"address","name":"doctor","type":"address"},{"indexed":false,"internalType":"string","name":"name","type":"string"},{"indexed":false,"internalType":"string","name":"specialization","type":"string"}],"name":"DoctorRegistered","type":"event"},{"anonymous":false,"inputs":[{"indexed":true,"internalType":"address","name":"doctor","type":"address"},{"indexed":false,"internalType":"uint256","name":"timestamp","type":"uint256"}],"name":"DoctorVerified","type":"event"},{"anonymous":false,"inputs":[{"indexed":true,"internalType":"address","name":"patient","type":"address"},{"indexed":false,"internalType":"string","name":"cid","type":"string"},{"indexed":false,"internalType":"uint256","name":"timestamp","type":"uint256"},{"indexed":false,"internalType":"string","name":"recordType","type":"string"}],"name":"RecordAdded","type":"event"},{"inputs":[{"internalType":"string","name":"cid","type":"string"},{"internalType":"string","name":"recordType","type":"string"},{"internalType":"string","name":"description","type":"string"}],"name":"addRecord","outputs":[],"stateMutability":"nonpayable","type":"function"},{"inputs":[],"name":"emergencyRevokeAllAccess","outputs":[],"stateMutability":"nonpayable","type":"function"},{"inputs":[{"internalType":"address","name":"patient","type":"address"}],"name":"getAuthorizedDoctors","outputs":[{"internalType":"address[]","name":"","type":"address[]"}],"stateMutability":"view","type":"function"},{"inputs":[{"internalType":"address","name":"doctor","type":"address"}],"name":"getDoctorInfo","outputs":[{"components":[{"internalType":"string","name":"name","type":"string"},{"internalType":"string","name":"specialization","type":"string"},{"internalType":"string","name":"licenseNumber","type":"string"},{"internalType":"bool","name":"isVerified","type":"bool"},{"internalType":"uint256","name":"verificationDate","type":"uint256"}],"internalType":"struct WomenHealthRecords.Doctor","name":"","type":"tuple"}],"stateMutability":"view","type":"function"},{"inputs":[],"name":"getMyRecords","outputs":[{"components":[{"internalType":"string","name":"cid","type":"string"},{"internalType":"uint256","name":"timestamp","type":"uint256"},{"internalType":"string","name":"recordType","type":"string"},{"internalType":"string","name":"description","type":"string"}],"internalType":"struct WomenHealthRecords.Record[]","name":"","type":"tuple[]"}],"stateMutability":"view","type":"function"},{"inputs":[{"internalType":"address","name":"patient","type":"address"}],"name":"getRecordCount","outputs":[{"internalType":"uint256","name":"","type":"uint256"}],"stateMutability":"view","type":"function"},{"inputs":[{"internalType":"address","name":"patient","type":"address"}],"name":"getRecords","outputs":[{"components":[{"internalType":"string","name":"cid","type":"string"},{"internalType":"uint256","name":"timestamp","type":"uint256"},{"internalType":"string","name":"recordType","type":"string"},{"internalType":"string","name":"description","type":"string"}],"internalType":"struct WomenHealthRecords.Record[]","name":"","type":"tuple[]"}],"stateMutability":"view","type":"function"},{"inputs":[{"internalType":"address","name":"doctor","type":"address"}],"name":"grantDoctorAccess","outputs":[],"stateMutability":"nonpayable","type":"function"},{"inputs":[{"internalType":"address","name":"patient","type":"address"},{"internalType":"address","name":"doctor","type":"address"}],"name":"hasAccess","outputs":[{"internalType":"bool","name":"","type":"bool"}],"stateMutability":"view","type":"function"},{"inputs":[],"name":"owner","outputs":[{"internalType":"address","name":"","type":"address"}],"stateMutability":"view","type":"function"},{"inputs":[{"internalType":"string","name":"name","type":"string"},{"internalType":"string","name":"specialization","type":"string"},{"internalType":"string","name":"licenseNumber","type":"string"}],"name":"registerDoctor","outputs":[],"stateMutability":"nonpayable","type":"function"},{"inputs":[{"internalType":"address","name":"doctor","type":"address"}],"name":"revokeDoctorAccess","outputs":[],"stateMutability":"nonpayable","type":"function"},{"inputs":[{"internalType":"address","name":"newOwner","type":"address"}],"name":"transferOwnership","outputs":[],"stateMutability":"nonpayable","type":"function"},{"inputs":[{"internalType":"address","name":"doctor","type":"address"}],"name":"verifyDoctor","outputs":[],"stateMutability":"nonpayable","type":"function"}],"evm":{"bytecode":{"linkReferences":{},"object":"6080806040523461002857600480546001600160a01b03191633179055611a69908161002e8239f35b600080fdfe60806040818152600436101561001457600080fd5b600091823560e01c90816312e0808f14611426575080631709ef07146113ce5780633df95ab8146111eb5780633f723c6214610d2b5780634ff652ee14610c4157806350c7a912146106da57806358214308146106755780636f12fc351461056e5780638da5cb5b14610546578063a0076e841461044f578063cbf8a64b1461034a578063d80cb05c14610223578063e76637ce146101505763f2fde38b146100bc57600080fd5b3461014c57602036600319011261014c576100d56115d1565b600454906001600160a01b03906100ef33838516146118dc565b1691821561010957506001600160a01b0319161760045580f35b5162461bcd60e51b815260206004820181905260248201527f4e6577206f776e65722063616e6e6f74206265207a65726f20616464726573736044820152606490fd5b5080fd5b50903461022057806003193601126102205733815260208181528282209182549167ffffffffffffffff831161020c5784519391610194600585901b8301866117ae565b8385529182528082208185015b8484106101b9578651806101b588826116c0565b0390f35b60048360019289516101ca81611760565b6101d38661198d565b815284860154838201526101e96002870161198d565b8b8201526101f96003870161198d565b60608201528152019201930192906101a1565b634e487b7160e01b82526041600452602482fd5b80fd5b503461014c576020806003193601126103465761023e6115d1565b6004546001600160a01b03919061025890831633146118dc565b169182845260028252600481852001546103035782845260028252600481852001546102c857907fe2fbb45b2567c8db16d2b0f3af498fbcf981237ea102e00178d85f1fe69bd13f918385526002825280852060038101600160ff1982541617905560044291015551428152a280f35b60649250519062461bcd60e51b825260048201526015602482015274111bd8dd1bdc881b9bdd081c9959da5cdd195c9959605a1b6044820152fd5b60649250519062461bcd60e51b82526004820152601760248201527f446f63746f7220616c72656164792076657269666965640000000000000000006044820152fd5b8280fd5b503461014c57602080600319360112610346576001600160a01b03928361036f6115d1565b168033036103fa5781526003825282812091835190818185549182815201908195855282852090855b8181106103e457505050826103ae9103836117ae565b8451948186019282875251809352850193925b8281106103ce5785850386f35b83518716855293810193928101926001016103c1565b82548a1684529284019260019283019201610398565b835162461bcd60e51b815260048101849052602860248201527f4f6e6c792070617469656e742063616e207669657720617574686f72697a656460448201526720646f63746f727360c01b6064820152608490fd5b5090346102205760208060031936011261014c576001600160a01b036104736115d1565b16803314801561052a575b61048790611932565b82528181528282209182549167ffffffffffffffff831161020c57845193916104b6600585901b8301866117ae565b8385529182528082208185015b8484106104d7578651806101b588826116c0565b60048360019289516104e881611760565b6104f18661198d565b815284860154838201526105076002870161198d565b8b8201526105176003870161198d565b60608201528152019201930192906104c3565b508083526001825283832033845282528383205460ff1661047e565b503461014c578160031936011261014c5760045490516001600160a01b039091168152602090f35b503461014c57602080600319360112610346579160a092610662836105916115d1565b9381519461059e86611792565b8160806060978881528888820152888682015282898201520152600180891b031681526002845220928451946105d386611792565b6105dc8561198d565b86526105ea6001860161198d565b918487019283526106526106006002880161198d565b9383890194855261063e600460ff60038b01541699858c019a15158b5201549760808b0198895285519b8c9b828d5251918c015260c08b0190611680565b9051601f1994858b840301908b0152611680565b9251918784030190870152611680565b9151151560808401525160a08301520390f35b503461014c57602036600319011261014c5760209181906001600160a01b0361069c6115d1565b1680331480156106be575b6106b090611932565b815280845220549051908152f35b508082526001855282822033835285528282205460ff166106a7565b509034610220576106ea3661161a565b84979395919715610c06578215610bc2578015610b7e57338752600260205260048488200154610b3a5761074a8451986107238a611792565b61072e3688866117d0565b8a5261073b36868a6117d0565b9260208b0193845236916117d0565b84890152866060890152866080890152338752600260205283872090885180519067ffffffffffffffff82116109c15781906107868554611817565b601f8111610b0a575b50602090601f8311600114610aa1578b92610a96575b50508160011b916000199060031b1c19161782555b5180519067ffffffffffffffff8211610a825781906107dc6001850154611817565b601f8111610a4f575b50602090601f83116001146109e0578a926109d5575b50508160011b916000199060031b1c19161760018201555b60028101978481015198895167ffffffffffffffff81116109c1576108388254611817565b601f8111610986575b5060209a601f82116001146108f0576108df9695936108cf9593836004948e9f7fbc3a5b2aeb1bc52e3d56d3fd3423dd66cea5ecff8ae1f3bd0d75a0e608da7b859e9f95608096926108e5575b50508160011b916000199060031b1c19161790555b600384016060820151151560ff8019835416911617905501519101558451958587968752860191611868565b9083820360208501523396611868565b0390a280f35b01519050388061088e565b828b5260208b209b90601f1983168c5b81811061096e5750936001847fbc3a5b2aeb1bc52e3d56d3fd3423dd66cea5ecff8ae1f3bd0d75a0e608da7b859d9e9f6080956108df9c9b99956004986108cf9c9a10610955575b505050811b0190556108a3565b015160001960f88460031b161c19169055388080610948565b828401518f556001909e019d60209384019301610900565b6109b190838c5260208c20601f840160051c810191602085106109b7575b601f0160051c0190611851565b38610841565b90915081906109a4565b634e487b7160e01b8a52604160045260248afd5b0151905038806107fb565b9250600184018a5260208a20908a935b601f1984168510610a34576001945083601f19811610610a1b575b505050811b016001820155610813565b015160001960f88460031b161c19169055388080610a0b565b818101518355602094850194600190930192909101906109f0565b610a7c90600186018c5260208c20601f850160051c810191602086106109b757601f0160051c0190611851565b386107e5565b634e487b7160e01b89526041600452602489fd5b0151905038806107a5565b9250848b5260208b20908b935b601f1984168510610aef576001945083601f19811610610ad6575b505050811b0182556107ba565b015160001960f88460031b161c19169055388080610ac9565b81810151835560209485019460019093019290910190610aae565b610b3490868d5260208d20601f850160051c810191602086106109b757601f0160051c0190611851565b3861078f565b835162461bcd60e51b815260206004820152601960248201527f446f63746f7220616c72656164792072656769737465726564000000000000006044820152606490fd5b835162461bcd60e51b815260206004820152601e60248201527f4c6963656e7365206e756d6265722063616e6e6f7420626520656d70747900006044820152606490fd5b835162461bcd60e51b815260206004820152601e60248201527f5370656369616c697a6174696f6e2063616e6e6f7420626520656d70747900006044820152606490fd5b835162461bcd60e51b81526020600482015260146024820152734e616d652063616e6e6f7420626520656d70747960601b6044820152606490fd5b503461014c578160031936011261014c57338252600390602082815281842093805b8554811015610cf95780610c7a610cab9288611889565b60018060a01b03915490881b1c163384526001808652868520828652865260ff8786205416610cb0575b50506118b7565b610c63565b3385528552858420818552855285842060ff19815416905585514281527f6f6a404ffd2cea4713256a4fd9ce99c8cf8cf32d85c2bb8061d1603ff57d50c3863392a33880610ca4565b509183338452825282209081549083835581610d13578380f35b610d24928452832090810190611851565b8180808380f35b50903461022057610d3b3661161a565b84939594979197156111b157821561116d573387526020978789528288208351610d6481611760565b610d6f36888a6117d0565b8152610d948b820193428552610d8636898d6117d0565b9587840196875236916117d0565b93606082019485528254600160401b81101561115957600193848201808255821015611145578c528c8c209060021b01915193845167ffffffffffffffff958682116110985790808f8f96959493610dec8754611817565b97601f98898111611119575b50828985116001146110b75750926110ac575b5050600019600383901b1c191690861b1783555b5182850155518051600283019186821161109857908e83928f9594610e449054611817565b87811161106c575b50818784116001146110065750600395919083610ffb575b505060001982861b1c191690861b1790555b0193518051938411610fe7578a8c610e8e8754611817565b84808211610fb0575b505050508b918411600114610f245792806108df97959381938d9e98967fd9acf4f586f3b83d7a3c949df2606cf9887c3fcda27a007cc36299ce86c42ca59d9e94610f19575b50501b916000199060031b1c19161790555b610f058151968796606088526060880191611868565b924290860152848303908501523396611868565b015192503880610edd565b848b528b8b209293929190601f1984168c5b818110610f9b5750917fd9acf4f586f3b83d7a3c949df2606cf9887c3fcda27a007cc36299ce86c42ca59b9c9d97959391856108df9a98969410610f82575b505050811b019055610eef565b015160001960f88460031b161c19169055388080610f75565b82840151855593860193928e01928e01610f36565b82848a610fd59652209181890160051c8301938910610fde575b0160051c0190611851565b8a8c3884610e97565b92508192610fca565b634e487b7160e01b8b52604160045260248bfd5b015190503880610e64565b848752808720919689949391601f19851691905b82821061105357505096836003981061103b575b505050811b019055610e76565b015160001983881b60f8161c1916905538808061102e565b838a015185558b9690940193928301929081019061101a565b611092908588528388208980870160051c820192868810610fde570160051c0190611851565b38610e4c565b634e487b7160e01b8e52604160045260248efd5b015190503880610e0b565b8882528082208b9650939291601f198616915b82821061110057505084116110e7575b505050811b018355610e1f565b015160001960f88460031b161c191690553880806110da565b8484015186558c979095019493840193908101906110ca565b61113f908983528483208b80880160051c820192878910610fde570160051c0190611851565b38610df8565b634e487b7160e01b8d52603260045260248dfd5b634e487b7160e01b8c52604160045260248cfd5b815162461bcd60e51b815260206004820152601b60248201527f5265636f726420747970652063616e6e6f7420626520656d70747900000000006044820152606490fd5b815162461bcd60e51b81526020600482015260136024820152724349442063616e6e6f7420626520656d70747960681b6044820152606490fd5b503461014c57602080600319360112610346576112066115d1565b33845260018083528385206001600160a01b0392831680875290845284862054909492919060ff161561139557338087528185528387208688528552838720805460ff191690558652600380855283872087835b61128f575b8888887f6f6a404ffd2cea4713256a4fd9ce99c8cf8cf32d85c2bb8061d1603ff57d50c38951914283523392a380f35b81548082101561138f5788866112a58486611889565b905490871b1c16146112c157506112bb906118b7565b8361125a565b9897969594919293506000199889810190811161137b57906112f8836112ea6113179487611889565b905490881b1c169185611889565b90919082549060031b9160018060a01b03809116831b921b1916179055565b8154978815611367577f6f6a404ffd2cea4713256a4fd9ce99c8cf8cf32d85c2bb8061d1603ff57d50c39596979801926113518484611889565b81939154921b1b1916905555903880808061125f565b634e487b7160e01b88526031600452602488fd5b634e487b7160e01b89526011600452602489fd5b5061125f565b825162461bcd60e51b81526004810185905260126024820152711058d8d95cdcc81b9bdd0819dc985b9d195960721b6044820152606490fd5b503461014c578060031936011261014c576113e76115d1565b6001600160a01b036024358181169290839003611422579360ff92849260209616825260018652828220908252855220541690519015158152f35b8480fd5b9190503461034657602090816003193601126115cd576114446115d1565b6001600160a01b03811693841561159257508385526002835260ff60038387200154161561154e5733855260018352818520848652835260ff828620541661151157338552600183528185208486528352818520600160ff1982541617905533855260038352818520805490600160401b8210156114fd57916112f8827f65d0cc1e52d49938ca4ad9f423c79c1b84d914b9a683fbc5d3f93ac3cc5635f5959460016114f295018155611889565b51914283523392a380f35b634e487b7160e01b87526041600452602487fd5b815162461bcd60e51b81526004810184905260166024820152751058d8d95cdcc8185b1c9958591e4819dc985b9d195960521b6044820152606490fd5b815162461bcd60e51b815260048101849052601760248201527f446f63746f72206d7573742062652076657269666965640000000000000000006044820152606490fd5b62461bcd60e51b8152600481018490526016602482015275496e76616c696420646f63746f72206164647265737360501b6044820152606490fd5b8380fd5b600435906001600160a01b03821682036115e757565b600080fd5b9181601f840112156115e75782359167ffffffffffffffff83116115e757602083818601950101116115e757565b9060606003198301126115e75767ffffffffffffffff6004358181116115e75783611647916004016115ec565b939093926024358381116115e75782611662916004016115ec565b939093926044359182116115e75761167c916004016115ec565b9091565b919082519283825260005b8481106116ac575050826000602080949584010152601f8019910116010190565b60208183018101518483018201520161168b565b602080820190808352835180925260409283810182858560051b8401019601946000925b8584106116f5575050505050505090565b90919293949596858061174f600193603f198682030188528b5161173c61172482516080808652850190611680565b8583015186850152898301518482038b860152611680565b9160608092015191818403910152611680565b9901940194019295949391906116e4565b6080810190811067ffffffffffffffff82111761177c57604052565b634e487b7160e01b600052604160045260246000fd5b60a0810190811067ffffffffffffffff82111761177c57604052565b90601f8019910116810190811067ffffffffffffffff82111761177c57604052565b92919267ffffffffffffffff821161177c57604051916117fa601f8201601f1916602001846117ae565b8294818452818301116115e7578281602093846000960137010152565b90600182811c92168015611847575b602083101461183157565b634e487b7160e01b600052602260045260246000fd5b91607f1691611826565b81811061185c575050565b60008155600101611851565b908060209392818452848401376000828201840152601f01601f1916010190565b80548210156118a15760005260206000200190600090565b634e487b7160e01b600052603260045260246000fd5b60001981146118c65760010190565b634e487b7160e01b600052601160045260246000fd5b156118e357565b60405162461bcd60e51b815260206004820152602160248201527f4f6e6c79206f776e65722063616e2063616c6c20746869732066756e6374696f6044820152603760f91b6064820152608490fd5b1561193957565b60405162461bcd60e51b815260206004820152602660248201527f4e6f7420617574686f72697a656420746f20616363657373207468657365207260448201526565636f72647360d01b6064820152608490fd5b90604051918260008254926119a184611817565b908184526001948581169081600014611a1057506001146119cd575b50506119cb925003836117ae565b565b9093915060005260209081600020936000915b8183106119f85750506119cb935082010138806119bd565b855488840185015294850194879450918301916119e0565b9150506119cb94506020925060ff191682840152151560051b82010138806119bd56fea26469706673582212207bbcf41eff9f4611e5f7188688c8aedb9aa8d26149059fb32692f093fa3193fb64736f6c63430008140033","opcodes":"PUSH1 0x80 DUP1 PUSH1 0x40 MSTORE CALLVALUE PUSH2 0x28 JUMPI PUSH1 0x4 DUP1 SLOAD PUSH1 0x1 PUSH1 0x1 PUSH1 0xA0 SHL SUB NOT AND CALLER OR SWAP1 SSTORE PUSH2 0x1A69 SWAP1 DUP2 PUSH2 0x2E DUP3 CODECOPY RETURN JUMPDEST PUSH1 0x0 DUP1 REVERT INVALID PUSH1 0x80 PUSH1 0x40 DUP2 DUP2 MSTORE PUSH1 0x4 CALLDATASIZE LT ISZERO PUSH2 0x14 JUMPI PUSH1 0x0 DUP1 REVERT JUMPDEST PUSH1 0x0 SWAP2 DUP3 CALLDATALOAD PUSH1 0xE0 SHR SWAP1 DUP2 PUSH4 0x12E0808F EQ PUSH2 0x1426 JUMPI POP DUP1 PUSH4 0x1709EF07 EQ PUSH2 0x13CE JUMPI DUP1 PUSH4 0x3DF95AB8 EQ PUSH2 0x11EB JUMPI DUP1 PUSH4 0x3F723C62 EQ PUSH2 0xD2B JUMPI DUP1 PUSH4 0x4FF652EE EQ PUSH2 0xC41 JUMPI DUP1 PUSH4 0x50C7A912 EQ PUSH2 0x6DA JUMPI DUP1 PUSH4 0x58214308 EQ PUSH2 0x675 JUMPI DUP1 PUSH4 0x6F12FC35 EQ PUSH2 0x56E JUMPI DUP1 PUSH4 0x8DA5CB5B EQ PUSH2 0x546 JUMPI DUP1 PUSH4 0xA0076E84 EQ PUSH2 0x44F JUMPI DUP1 PUSH4 0xCBF8A64B EQ PUSH2 0x34A JUMPI DUP1 PUSH4 0xD80CB05C EQ PUSH2 0x223 JUMPI DUP1 PUSH4 0xE76637CE EQ PUSH2 0x150 JUMPI PUSH4 0xF2FDE38B EQ PUSH2 0xBC JUMPI PUSH1 0x0 DUP1 REVERT JUMPDEST CALLVALUE PUSH2 0x14C JUMPI PUSH1 0x20 CALLDATASIZE PUSH1 0x3 NOT ADD SLT PUSH2 0x14C JUMPI PUSH2 0xD5 PUSH2 0x15D1 JUMP JUMPDEST PUSH1 0x4 SLOAD SWAP1 PUSH1 0x1 PUSH1 0x1 PUSH1 0xA0 SHL SUB SWAP1 PUSH2 0xEF CALLER DUP4 DUP6 AND EQ PUSH2 0x18DC JUMP JUMPDEST AND SWAP2 DUP3 ISZERO PUSH2 0x109 JUMPI POP PUSH1 0x1 PUSH1 0x1 PUSH1 0xA0 SHL SUB NOT AND OR PUSH1 0x4 SSTORE DUP1 RETURN JUMPDEST MLOAD PUSH3 0x461BCD PUSH1 0xE5 SHL DUP2 MSTORE PUSH1 0x20 PUSH1 0x4 DUP3 ADD DUP2 SWAP1 MSTORE PUSH1 0x24 DUP3 ADD MSTORE PUSH32 0x4E6577206F776E65722063616E6E6F74206265207A65726F2061646472657373 PUSH1 0x44 DUP3 ADD MSTORE PUSH1 0x64 SWAP1 REVERT JUMPDEST POP DUP1 REVERT JUMPDEST POP SWAP1 CALLVALUE PUSH2 0x220 JUMPI DUP1 PUSH1 0x3 NOT CALLDATASIZE ADD SLT PUSH2 0x220 JUMPI CALLER DUP2 MSTORE PUSH1 0x20 DUP2 DUP2 MSTORE DUP3 DUP3 KECCAK256 SWAP2 DUP3 SLOAD SWAP2 PUSH8 0xFFFFFFFFFFFFFFFF DUP4 GT PUSH2 0x20C JUMPI DUP5 MLOAD SWAP4 SWAP2 PUSH2 0x194 PUSH1 0x5 DUP6 SWAP1 SHL DUP4 ADD DUP7 PUSH2 0x17AE JUMP JUMPDEST DUP4 DUP6 MSTORE SWAP2 DUP3 MSTORE DUP1 DUP3 KECCAK256 DUP2 DUP6 ADD JUMPDEST DUP5 DUP5 LT PUSH2 0x1B9 JUMPI DUP7 MLOAD DUP1 PUSH2 0x1B5 DUP9 DUP3 PUSH2 0x16C0 JUMP JUMPDEST SUB SWAP1 RETURN JUMPDEST PUSH1 0x4 DUP4 PUSH1 0x1 SWAP3 DUP10 MLOAD PUSH2 0x1CA DUP2 PUSH2 0x1760 JUMP JUMPDEST PUSH2 0x1D3 DUP7 PUSH2 0x198D JUMP JUMPDEST DUP2 MSTORE DUP5 DUP7 ADD SLOAD DUP4 DUP3 ADD MSTORE PUSH2 0x1E9 PUSH1 0x2 DUP8 ADD PUSH2 0x198D JUMP JUMPDEST DUP12 DUP3 ADD MSTORE PUSH2 0x1F9 PUSH1 0x3 DUP8 ADD PUSH2 0x198D JUMP JUMPDEST PUSH1 0x60 DUP3 ADD MSTORE DUP2 MSTORE ADD SWAP3 ADD SWAP4 ADD SWAP3 SWAP1 PUSH2 0x1A1 JUMP JUMPDEST PUSH4 0x4E487B71 PUSH1 0xE0 SHL DUP3 MSTORE PUSH1 0x41 PUSH1 0x4 MSTORE PUSH1 0x24 DUP3 REVERT JUMPDEST DUP1 REVERT JUMPDEST POP CALLVALUE PUSH2 0x14C JUMPI PUSH1 0x20 DUP1 PUSH1 0x3 NOT CALLDATASIZE ADD SLT PUSH2 0x346 JUMPI PUSH2 0x23E PUSH2 0x15D1 JUMP JUMPDEST PUSH1 0x4 SLOAD PUSH1 0x1 PUSH1 0x1 PUSH1 0xA0 SHL SUB SWAP2 SWAP1 PUSH2 0x258 SWAP1 DUP4 AND CALLER EQ PUSH2 0x18DC JUMP JUMPDEST AND SWAP2 DUP3 DUP5 MSTORE PUSH1 0x2 DUP3 MSTORE PUSH1 0x4 DUP2 DUP6 KECCAK256 ADD SLOAD PUSH2 0x303 JUMPI DUP3 DUP5 MSTORE PUSH1 0x2 DUP3 MSTORE PUSH1 0x4 DUP2 DUP6 KECCAK256 ADD SLOAD PUSH2 0x2C8 JUMPI SWAP1 PUSH32 0xE2FBB45B2567C8DB16D2B0F3AF498FBCF981237EA102E00178D85F1FE69BD13F SWAP2 DUP4 DUP6 MSTORE PUSH1 0x2 DUP3 MSTORE DUP1 DUP6 KECCAK256 PUSH1 0x3 DUP2 ADD PUSH1 0x1 PUSH1 0xFF NOT DUP3 SLOAD AND OR SWAP1 SSTORE PUSH1 0x4 TIMESTAMP SWAP2 ADD SSTORE MLOAD TIMESTAMP DUP2 MSTORE LOG2 DUP1 RETURN JUMPDEST PUSH1 0x64 SWAP3 POP MLOAD SWAP1 PUSH3 0x461BCD PUSH1 0xE5 SHL DUP3 MSTORE PUSH1 0x4 DUP3 ADD MSTORE PUSH1 0x15 PUSH1 0x24 DUP3 ADD MSTORE PUSH21 0x111BD8DD1BDC881B9BDD081C9959DA5CDD195C9959 PUSH1 0x5A SHL PUSH1 0x44 DUP3 ADD MSTORE REVERT JUMPDEST PUSH1 0x64 SWAP3 POP MLOAD SWAP1 PUSH3 0x461BCD PUSH1 0xE5 SHL DUP3 MSTORE PUSH1 0x4 DUP3 ADD MSTORE PUSH1 0x17 PUSH1 0x24 DUP3 ADD MSTORE PUSH32 0x446F63746F7220616C7265616479207665726966696564000000000000000000 PUSH1 0x44 DUP3 ADD MSTORE REVERT JUMPDEST DUP3 DUP1 REVERT JUMPDEST POP CALLVALUE PUSH2 0x14C JUMPI PUSH1 0x20 DUP1 PUSH1 0x3 NOT CALLDATASIZE ADD SLT PUSH2 0x346 JUMPI PUSH1 0x1 PUSH1 0x1 PUSH1 0xA0 SHL SUB SWAP3 DUP4 PUSH2 0x36F PUSH2 0x15D1 JUMP JUMPDEST AND DUP1 CALLER SUB PUSH2 0x3FA JUMPI DUP2 MSTORE PUSH1 0x3 DUP3 MSTORE DUP3 DUP2 KECCAK256 SWAP2 DUP4 MLOAD SWAP1 DUP2 DUP2 DUP6 SLOAD SWAP2 DUP3 DUP2 MSTORE ADD SWAP1 DUP2 SWAP6 DUP6 MSTORE DUP3 DUP6 KECCAK256 SWAP1 DUP6 JUMPDEST DUP2 DUP2 LT PUSH2 0x3E4 JUMPI POP POP POP DUP3 PUSH2 0x3AE SWAP2 SUB DUP4 PUSH2 0x17AE JUMP JUMPDEST DUP5 MLOAD SWAP5 DUP2 DUP7 ADD SWAP3 DUP3 DUP8 MSTORE MLOAD DUP1 SWAP4 MSTORE DUP6 ADD SWAP4 SWAP3 JUMPDEST DUP3 DUP2 LT PUSH2 0x3CE JUMPI DUP6 DUP6 SUB DUP7 RETURN JUMPDEST DUP4 MLOAD DUP8 AND DUP6 MSTORE SWAP4 DUP2 ADD SWAP4 SWAP3 DUP2 ADD SWAP3 PUSH1 0x1 ADD PUSH2 0x3C1 JUMP JUMPDEST DUP3 SLOAD DUP11 AND DUP5 MSTORE SWAP3 DUP5 ADD SWAP3 PUSH1 0x1 SWAP3 DUP4 ADD SWAP3 ADD PUSH2 0x398 JUMP JUMPDEST DUP4 MLOAD PUSH3 0x461BCD PUSH1 0xE5 SHL DUP2 MSTORE PUSH1 0x4 DUP2 ADD DUP5 SWAP1 MSTORE PUSH1 0x28 PUSH1 0x24 DUP3 ADD MSTORE PUSH32 0x4F6E6C792070617469656E742063616E207669657720617574686F72697A6564 PUSH1 0x44 DUP3 ADD MSTORE PUSH8 0x20646F63746F7273 PUSH1 0xC0 SHL PUSH1 0x64 DUP3 ADD MSTORE PUSH1 0x84 SWAP1 REVERT JUMPDEST POP SWAP1 CALLVALUE PUSH2 0x220 JUMPI PUSH1 0x20 DUP1 PUSH1 0x3 NOT CALLDATASIZE ADD SLT PUSH2 0x14C JUMPI PUSH1 0x1 PUSH1 0x1 PUSH1 0xA0 SHL SUB PUSH2 0x473 PUSH2 0x15D1 JUMP JUMPDEST AND DUP1 CALLER EQ DUP1 ISZERO PUSH2 0x52A JUMPI JUMPDEST PUSH2 0x487 SWAP1 PUSH2 0x1932 JUMP JUMPDEST DUP3 MSTORE DUP2 DUP2 MSTORE DUP3 DUP3 KECCAK256 SWAP2 DUP3 SLOAD SWAP2 PUSH8 0xFFFFFFFFFFFFFFFF DUP4 GT PUSH2 0x20C JUMPI DUP5 MLOAD SWAP4 SWAP2 PUSH2 0x4B6 PUSH1 0x5 DUP6 SWAP1 SHL DUP4 ADD DUP7 PUSH2 0x17AE JUMP JUMPDEST DUP4 DUP6 MSTORE SWAP2 DUP3 MSTORE DUP1 DUP3 KECCAK256 DUP2 DUP6 ADD JUMPDEST DUP5 DUP5 LT PUSH2 0x4D7 JUMPI DUP7 MLOAD DUP1 PUSH2 0x1B5 DUP9 DUP3 PUSH2 0x16C0 JUMP JUMPDEST PUSH1 0x4 DUP4 PUSH1 0x1 SWAP3 DUP10 MLOAD PUSH2 0x4E8 DUP2 PUSH2 0x1760 JUMP JUMPDEST PUSH2 0x4F1 DUP7 PUSH2 0x198D JUMP JUMPDEST DUP2 MSTORE DUP5 DUP7 ADD SLOAD DUP4 DUP3 ADD MSTORE PUSH2 0x507 PUSH1 0x2 DUP8 ADD PUSH2 0x198D JUMP JUMPDEST DUP12 DUP3 ADD MSTORE PUSH2 0x517 PUSH1 0x3 DUP8 ADD PUSH2 0x198D JUMP JUMPDEST PUSH1 0x60 DUP3 ADD MSTORE DUP2 MSTORE ADD SWAP3 ADD SWAP4 ADD SWAP3 SWAP1 PUSH2 0x4C3 JUMP JUMPDEST POP DUP1 DUP4 MSTORE PUSH1 0x1 DUP3 MSTORE DUP4 DUP4 KECCAK256 CALLER DUP5 MSTORE DUP3 MSTORE DUP4 DUP4 KECCAK256 SLOAD PUSH1 0xFF AND PUSH2 0x47E JUMP JUMPDEST POP CALLVALUE PUSH2 0x14C JUMPI DUP2 PUSH1 0x3 NOT CALLDATASIZE ADD SLT PUSH2 0x14C JUMPI PUSH1 0x4 SLOAD SWAP1 MLOAD PUSH1 0x1 PUSH1 0x1 PUSH1 0xA0 SHL SUB SWAP1 SWAP2 AND DUP2 MSTORE PUSH1 0x20 SWAP1 RETURN JUMPDEST POP CALLVALUE PUSH2 0x14C JUMPI PUSH1 0x20 DUP1 PUSH1 0x3 NOT CALLDATASIZE ADD SLT PUSH2 0x346 JUMPI SWAP2 PUSH1 0xA0 SWAP3 PUSH2 0x662 DUP4 PUSH2 0x591 PUSH2 0x15D1 JUMP JUMPDEST SWAP4 DUP2 MLOAD SWAP5 PUSH2 0x59E DUP7 PUSH2 0x1792 JUMP JUMPDEST DUP2 PUSH1 0x80 PUSH1 0x60 SWAP8 DUP9 DUP2 MSTORE DUP9 DUP9 DUP3 ADD MSTORE DUP9 DUP7 DUP3 ADD MSTORE DUP3 DUP10 DUP3 ADD MSTORE ADD MSTORE PUSH1 0x1 DUP1 DUP10 SHL SUB AND DUP2 MSTORE PUSH1 0x2 DUP5 MSTORE KECCAK256 SWAP3 DUP5 MLOAD SWAP5 PUSH2 0x5D3 DUP7 PUSH2 0x1792 JUMP JUMPDEST PUSH2 0x5DC DUP6 PUSH2 0x198D JUMP JUMPDEST DUP7 MSTORE PUSH2 0x5EA PUSH1 0x1 DUP7 ADD PUSH2 0x198D JUMP JUMPDEST SWAP2 DUP5 DUP8 ADD SWAP3 DUP4 MSTORE PUSH2 0x652 PUSH2 0x600 PUSH1 0x2 DUP9 ADD PUSH2 0x198D JUMP JUMPDEST SWAP4 DUP4 DUP10 ADD SWAP5 DUP6 MSTORE PUSH2 0x63E PUSH1 0x4 PUSH1 0xFF PUSH1 0x3 DUP12 ADD SLOAD AND SWAP10 DUP6 DUP13 ADD SWAP11 ISZERO ISZERO DUP12 MSTORE ADD SLOAD SWAP8 PUSH1 0x80 DUP12 ADD SWAP9 DUP10 MSTORE DUP6 MLOAD SWAP12 DUP13 SWAP12 DUP3 DUP14 MSTORE MLOAD SWAP2 DUP13 ADD MSTORE PUSH1 0xC0 DUP12 ADD SWAP1 PUSH2 0x1680 JUMP JUMPDEST SWAP1 MLOAD PUSH1 0x1F NOT SWAP5 DUP6 DUP12 DUP5 SUB ADD SWAP1 DUP12 ADD MSTORE PUSH2 0x1680 JUMP JUMPDEST SWAP3 MLOAD SWAP2 DUP8 DUP5 SUB ADD SWAP1 DUP8 ADD MSTORE PUSH2 0x1680 JUMP JUMPDEST SWAP2 MLOAD ISZERO ISZERO PUSH1 0x80 DUP5 ADD MSTORE MLOAD PUSH1 0xA0 DUP4 ADD MSTORE SUB SWAP1 RETURN JUMPDEST POP CALLVALUE PUSH2 0x14C JUMPI PUSH1 0x20 CALLDATASIZE PUSH1 0x3 NOT ADD SLT PUSH2 0x14C JUMPI PUSH1 0x20 SWAP2 DUP2 SWAP1 PUSH1 0x1 PUSH1 0x1 PUSH1 0xA0 SHL SUB PUSH2 0x69C PUSH2 0x15D1 JUMP JUMPDEST AND DUP1 CALLER EQ DUP1 ISZERO PUSH2 0x6BE JUMPI JUMPDEST PUSH2 0x6B0 SWAP1 PUSH2 0x1932 JUMP JUMPDEST DUP2 MSTORE DUP1 DUP5 MSTORE KECCAK256 SLOAD SWAP1 MLOAD SWAP1 DUP2 MSTORE RETURN JUMPDEST POP DUP1 DUP3 MSTORE PUSH1 0x1 DUP6 MSTORE DUP3 DUP3 KECCAK256 CALLER DUP4 MSTORE DUP6 MSTORE DUP3 DUP3 KECCAK256 SLOAD PUSH1 0xFF AND PUSH2 0x6A7 JUMP JUMPDEST POP SWAP1 CALLVALUE PUSH2 0x220 JUMPI PUSH2 0x6EA CALLDATASIZE PUSH2 0x161A JUMP JUMPDEST DUP5 SWAP8 SWAP4 SWAP6 SWAP2 SWAP8 ISZERO PUSH2 0xC06 JUMPI DUP3 ISZERO PUSH2 0xBC2 JUMPI DUP1 ISZERO PUSH2 0xB7E JUMPI CALLER DUP8 MSTORE PUSH1 0x2 PUSH1 0x20 MSTORE PUSH1 0x4 DUP5 DUP9 KECCAK256 ADD SLOAD PUSH2 0xB3A JUMPI PUSH2 0x74A DUP5 MLOAD SWAP9 PUSH2 0x723 DUP11 PUSH2 0x1792 JUMP JUMPDEST PUSH2 0x72E CALLDATASIZE DUP9 DUP7 PUSH2 0x17D0 JUMP JUMPDEST DUP11 MSTORE PUSH2 0x73B CALLDATASIZE DUP7 DUP11 PUSH2 0x17D0 JUMP JUMPDEST SWAP3 PUSH1 0x20 DUP12 ADD SWAP4 DUP5 MSTORE CALLDATASIZE SWAP2 PUSH2 0x17D0 JUMP JUMPDEST DUP5 DUP10 ADD MSTORE DUP7 PUSH1 0x60 DUP10 ADD MSTORE DUP7 PUSH1 0x80 DUP10 ADD MSTORE CALLER DUP8 MSTORE PUSH1 0x2 PUSH1 0x20 MSTORE DUP4 DUP8 KECCAK256 SWAP1 DUP9 MLOAD DUP1 MLOAD SWAP1 PUSH8 0xFFFFFFFFFFFFFFFF DUP3 GT PUSH2 0x9C1 JUMPI DUP2 SWAP1 PUSH2 0x786 DUP6 SLOAD PUSH2 0x1817 JUMP JUMPDEST PUSH1 0x1F DUP2 GT PUSH2 0xB0A JUMPI JUMPDEST POP PUSH1 0x20 SWAP1 PUSH1 0x1F DUP4 GT PUSH1 0x1 EQ PUSH2 0xAA1 JUMPI DUP12 SWAP3 PUSH2 0xA96 JUMPI JUMPDEST POP POP DUP2 PUSH1 0x1 SHL SWAP2 PUSH1 0x0 NOT SWAP1 PUSH1 0x3 SHL SHR NOT AND OR DUP3 SSTORE JUMPDEST MLOAD DUP1 MLOAD SWAP1 PUSH8 0xFFFFFFFFFFFFFFFF DUP3 GT PUSH2 0xA82 JUMPI DUP2 SWAP1 PUSH2 0x7DC PUSH1 0x1 DUP6 ADD SLOAD PUSH2 0x1817 JUMP JUMPDEST PUSH1 0x1F DUP2 GT PUSH2 0xA4F JUMPI JUMPDEST POP PUSH1 0x20 SWAP1 PUSH1 0x1F DUP4 GT PUSH1 0x1 EQ PUSH2 0x9E0 JUMPI DUP11 SWAP3 PUSH2 0x9D5 JUMPI JUMPDEST POP POP DUP2 PUSH1 0x1 SHL SWAP2 PUSH1 0x0 NOT SWAP1 PUSH1 0x3 SHL SHR NOT AND OR PUSH1 0x1 DUP3 ADD SSTORE JUMPDEST PUSH1 0x2 DUP2 ADD SWAP8 DUP5 DUP2 ADD MLOAD SWAP9 DUP10 MLOAD PUSH8 0xFFFFFFFFFFFFFFFF DUP2 GT PUSH2 0x9C1 JUMPI PUSH2 0x838 DUP3 SLOAD PUSH2 0x1817 JUMP JUMPDEST PUSH1 0x1F DUP2 GT PUSH2 0x986 JUMPI JUMPDEST POP PUSH1 0x20 SWAP11 PUSH1 0x1F DUP3 GT PUSH1 0x1 EQ PUSH2 0x8F0 JUMPI PUSH2 0x8DF SWAP7 SWAP6 SWAP4 PUSH2 0x8CF SWAP6 SWAP4 DUP4 PUSH1 0x4 SWAP5 DUP15 SWAP16 PUSH32 0xBC3A5B2AEB1BC52E3D56D3FD3423DD66CEA5ECFF8AE1F3BD0D75A0E608DA7B85 SWAP15 SWAP16 SWAP6 PUSH1 0x80 SWAP7 SWAP3 PUSH2 0x8E5 JUMPI JUMPDEST POP POP DUP2 PUSH1 0x1 SHL SWAP2 PUSH1 0x0 NOT SWAP1 PUSH1 0x3 SHL SHR NOT AND OR SWAP1 SSTORE JUMPDEST PUSH1 0x3 DUP5 ADD PUSH1 0x60 DUP3 ADD MLOAD ISZERO ISZERO PUSH1 0xFF DUP1 NOT DUP4 SLOAD AND SWAP2 AND OR SWAP1 SSTORE ADD MLOAD SWAP2 ADD SSTORE DUP5 MLOAD SWAP6 DUP6 DUP8 SWAP7 DUP8 MSTORE DUP7 ADD SWAP2 PUSH2 0x1868 JUMP JUMPDEST SWAP1 DUP4 DUP3 SUB PUSH1 0x20 DUP6 ADD MSTORE CALLER SWAP7 PUSH2 0x1868 JUMP JUMPDEST SUB SWAP1 LOG2 DUP1 RETURN JUMPDEST ADD MLOAD SWAP1 POP CODESIZE DUP1 PUSH2 0x88E JUMP JUMPDEST DUP3 DUP12 MSTORE PUSH1 0x20 DUP12 KECCAK256 SWAP12 SWAP1 PUSH1 0x1F NOT DUP4 AND DUP13 JUMPDEST DUP2 DUP2 LT PUSH2 0x96E JUMPI POP SWAP4 PUSH1 0x1 DUP5 PUSH32 0xBC3A5B2AEB1BC52E3D56D3FD3423DD66CEA5ECFF8AE1F3BD0D75A0E608DA7B85 SWAP14 SWAP15 SWAP16 PUSH1 0x80 SWAP6 PUSH2 0x8DF SWAP13 SWAP12 SWAP10 SWAP6 PUSH1 0x4 SWAP9 PUSH2 0x8CF SWAP13 SWAP11 LT PUSH2 0x955 JUMPI JUMPDEST POP POP POP DUP2 SHL ADD SWAP1 SSTORE PUSH2 0x8A3 JUMP JUMPDEST ADD MLOAD PUSH1 0x0 NOT PUSH1 0xF8 DUP5 PUSH1 0x3 SHL AND SHR NOT AND SWAP1 SSTORE CODESIZE DUP1 DUP1 PUSH2 0x948 JUMP JUMPDEST DUP3 DUP5 ADD MLOAD DUP16 SSTORE PUSH1 0x1 SWAP1 SWAP15 ADD SWAP14 PUSH1 0x20 SWAP4 DUP5 ADD SWAP4 ADD PUSH2 0x900 JUMP JUMPDEST PUSH2 0x9B1 SWAP1 DUP4 DUP13 MSTORE PUSH1 0x20 DUP13 KECCAK256 PUSH1 0x1F DUP5 ADD PUSH1 0x5 SHR DUP2 ADD SWAP2 PUSH1 0x20 DUP6 LT PUSH2 0x9B7 JUMPI JUMPDEST PUSH1 0x1F ADD PUSH1 0x5 SHR ADD SWAP1 PUSH2 0x1851 JUMP JUMPDEST CODESIZE PUSH2 0x841 JUMP JUMPDEST SWAP1 SWAP2 POP DUP2 SWAP1 PUSH2 0x9A4 JUMP JUMPDEST PUSH4 0x4E487B71 PUSH1 0xE0 SHL DUP11 MSTORE PUSH1 0x41 PUSH1 0x4 MSTORE PUSH1 0x24 DUP11 REVERT JUMPDEST ADD MLOAD SWAP1 POP CODESIZE DUP1 PUSH2 0x7FB JUMP JUMPDEST SWAP3 POP PUSH1 0x1 DUP5 ADD DUP11 MSTORE PUSH1 0x20 DUP11 KECCAK256 SWAP1 DUP11 SWAP4 JUMPDEST PUSH1 0x1F NOT DUP5 AND DUP6 LT PUSH2 0xA34 JUMPI PUSH1 0x1 SWAP5 POP DUP4 PUSH1 0x1F NOT DUP2 AND LT PUSH2 0xA1B JUMPI JUMPDEST POP POP POP DUP2 SHL ADD PUSH1 0x1 DUP3 ADD SSTORE PUSH2 0x813 JUMP JUMPDEST ADD MLOAD PUSH1 0x0 NOT PUSH1 0xF8 DUP5 PUSH1 0x3 SHL AND SHR NOT AND SWAP1 SSTORE CODESIZE DUP1 DUP1 PUSH2 0xA0B JUMP JUMPDEST DUP2 DUP2 ADD MLOAD DUP4 SSTORE PUSH1 0x20 SWAP5 DUP6 ADD SWAP5 PUSH1 0x1 SWAP1 SWAP4 ADD SWAP3 SWAP1 SWAP2 ADD SWAP1 PUSH2 0x9F0 JUMP JUMPDEST PUSH2 0xA7C SWAP1 PUSH1 0x1 DUP7 ADD DUP13 MSTORE PUSH1 0x20 DUP13 KECCAK256 PUSH1 0x1F DUP6 ADD PUSH1 0x5 SHR DUP2 ADD SWAP2 PUSH1 0x20 DUP7 LT PUSH2 0x9B7 JUMPI PUSH1 0x1F ADD PUSH1 0x5 SHR ADD SWAP1 PUSH2 0x1851 JUMP JUMPDEST CODESIZE PUSH2 0x7E5 JUMP JUMPDEST PUSH4 0x4E487B71 PUSH1 0xE0 SHL DUP10 MSTORE PUSH1 0x41 PUSH1 0x4 MSTORE PUSH1 0x24 DUP10 REVERT JUMPDEST ADD MLOAD SWAP1 POP CODESIZE DUP1 PUSH2 0x7A5 JUMP JUMPDEST SWAP3 POP DUP5 DUP12 MSTORE PUSH1 0x20 DUP12 KECCAK256 SWAP1 DUP12 SWAP4 JUMPDEST PUSH1 0x1F NOT DUP5 AND DUP6 LT PUSH2 0xAEF JUMPI PUSH1 0x1 SWAP5 POP DUP4 PUSH1 0x1F NOT DUP2 AND LT PUSH2 0xAD6 JUMPI JUMPDEST POP POP POP DUP2 SHL ADD DUP3 SSTORE PUSH2 0x7BA JUMP JUMPDEST ADD MLOAD PUSH1 0x0 NOT PUSH1 0xF8 DUP5 PUSH1 0x3 SHL AND SHR NOT AND SWAP1 SSTORE CODESIZE DUP1 DUP1 PUSH2 0xAC9 JUMP JUMPDEST DUP2 DUP2 ADD MLOAD DUP4 SSTORE PUSH1 0x20 SWAP5 DUP6 ADD SWAP5 PUSH1 0x1 SWAP1 SWAP4 ADD SWAP3 SWAP1 SWAP2 ADD SWAP1 PUSH2 0xAAE JUMP JUMPDEST PUSH2 0xB34 SWAP1 DUP7 DUP14 MSTORE PUSH1 0x20 DUP14 KECCAK256 PUSH1 0x1F DUP6 ADD PUSH1 0x5 SHR DUP2 ADD SWAP2 PUSH1 0x20 DUP7 LT PUSH2 0x9B7 JUMPI PUSH1 0x1F ADD PUSH1 0x5 SHR ADD SWAP1 PUSH2 0x1851 JUMP JUMPDEST CODESIZE PUSH2 0x78F JUMP JUMPDEST DUP4 MLOAD PUSH3 0x461BCD PUSH1 0xE5 SHL DUP2 MSTORE PUSH1 0x20 PUSH1 0x4 DUP3 ADD MSTORE PUSH1 0x19 PUSH1 0x24 DUP3 ADD MSTORE PUSH32 0x446F63746F7220616C7265616479207265676973746572656400000000000000 PUSH1 0x44 DUP3 ADD MSTORE PUSH1 0x64 SWAP1 REVERT JUMPDEST DUP4 MLOAD PUSH3 0x461BCD PUSH1 0xE5 SHL DUP2 MSTORE PUSH1 0x20 PUSH1 0x4 DUP3 ADD MSTORE PUSH1 0x1E PUSH1 0x24 DUP3 ADD MSTORE PUSH32 0x4C6963656E7365206E756D6265722063616E6E6F7420626520656D7074790000 PUSH1 0x44 DUP3 ADD MSTORE PUSH1 0x64 SWAP1 REVERT JUMPDEST DUP4 MLOAD PUSH3 0x461BCD PUSH1 0xE5 SHL DUP2 MSTORE PUSH1 0x20 PUSH1 0x4 DUP3 ADD MSTORE PUSH1 0x1E PUSH1 0x24 DUP3 ADD MSTORE PUSH32 0x5370656369616C697A6174696F6E2063616E6E6F7420626520656D7074790000 PUSH1 0x44 DUP3 ADD MSTORE PUSH1 0x64 SWAP1 REVERT JUMPDEST DUP4 MLOAD PUSH3 0x461BCD PUSH1 0xE5 SHL DUP2 MSTORE PUSH1 0x20 PUSH1 0x4 DUP3 ADD MSTORE PUSH1 0x14 PUSH1 0x24 DUP3 ADD MSTORE PUSH20 0x4E616D652063616E6E6F7420626520656D707479 PUSH1 0x60 SHL PUSH1 0x44 DUP3 ADD MSTORE PUSH1 0x64 SWAP1 REVERT JUMPDEST POP CALLVALUE PUSH2 0x14C JUMPI DUP2 PUSH1 0x3 NOT CALLDATASIZE ADD SLT PUSH2 0x14C JUMPI CALLER DUP3 MSTORE PUSH1 0x3 SWAP1 PUSH1 0x20 DUP3 DUP2 MSTORE DUP2 DUP5 KECCAK256 SWAP4 DUP1 JUMPDEST DUP6 SLOAD DUP2 LT ISZERO PUSH2 0xCF9 JUMPI DUP1 PUSH2 0xC7A PUSH2 0xCAB SWAP3 DUP9 PUSH2 0x1889 JUMP JUMPDEST PUSH1 0x1 DUP1 PUSH1 0xA0 SHL SUB SWAP2 SLOAD SWAP1 DUP9 SHL SHR AND CALLER DUP5 MSTORE PUSH1 0x1 DUP1 DUP7 MSTORE DUP7 DUP6 KECCAK256 DUP3 DUP7 MSTORE DUP7 MSTORE PUSH1 0xFF DUP8 DUP7 KECCAK256 SLOAD AND PUSH2 0xCB0 JUMPI JUMPDEST POP POP PUSH2 0x18B7 JUMP JUMPDEST PUSH2 0xC63 JUMP JUMPDEST CALLER DUP6 MSTORE DUP6 MSTORE DUP6 DUP5 KECCAK256 DUP2 DUP6 MSTORE DUP6 MSTORE DUP6 DUP5 KECCAK256 PUSH1 0xFF NOT DUP2 SLOAD AND SWAP1 SSTORE DUP6 MLOAD TIMESTAMP DUP2 MSTORE PUSH32 0x6F6A404FFD2CEA4713256A4FD9CE99C8CF8CF32D85C2BB8061D1603FF57D50C3 DUP7 CALLER SWAP3 LOG3 CODESIZE DUP1 PUSH2 0xCA4 JUMP JUMPDEST POP SWAP2 DUP4 CALLER DUP5 MSTORE DUP3 MSTORE DUP3 KECCAK256 SWAP1 DUP2 SLOAD SWAP1 DUP4 DUP4 SSTORE DUP2 PUSH2 0xD13 JUMPI DUP4 DUP1 RETURN JUMPDEST PUSH2 0xD24 SWAP3 DUP5 MSTORE DUP4 KECCAK256 SWAP1 DUP2 ADD SWAP1 PUSH2 0x1851 JUMP JUMPDEST DUP2 DUP1 DUP1 DUP4 DUP1 RETURN JUMPDEST POP SWAP1 CALLVALUE PUSH2 0x220 JUMPI PUSH2 0xD3B CALLDATASIZE PUSH2 0x161A JUMP JUMPDEST DUP5 SWAP4 SWAP6 SWAP5 SWAP8 SWAP2 SWAP8 ISZERO PUSH2 0x11B1 JUMPI DUP3 ISZERO PUSH2 0x116D JUMPI CALLER DUP8 MSTORE PUSH1 0x20 SWAP8 DUP8 DUP10 MSTORE DUP3 DUP9 KECCAK256 DUP4 MLOAD PUSH2 0xD64 DUP2 PUSH2 0x1760 JUMP JUMPDEST PUSH2 0xD6F CALLDATASIZE DUP9 DUP11 PUSH2 0x17D0 JUMP JUMPDEST DUP2 MSTORE PUSH2 0xD94 DUP12 DUP3 ADD SWAP4 TIMESTAMP DUP6 MSTORE PUSH2 0xD86 CALLDATASIZE DUP10 DUP14 PUSH2 0x17D0 JUMP JUMPDEST SWAP6 DUP8 DUP5 ADD SWAP7 DUP8 MSTORE CALLDATASIZE SWAP2 PUSH2 0x17D0 JUMP JUMPDEST SWAP4 PUSH1 0x60 DUP3 ADD SWAP5 DUP6 MSTORE DUP3 SLOAD PUSH1 0x1 PUSH1 0x40 SHL DUP2 LT ISZERO PUSH2 0x1159 JUMPI PUSH1 0x1 SWAP4 DUP5 DUP3 ADD DUP1 DUP3 SSTORE DUP3 LT ISZERO PUSH2 0x1145 JUMPI DUP13 MSTORE DUP13 DUP13 KECCAK256 SWAP1 PUSH1 0x2 SHL ADD SWAP2 MLOAD SWAP4 DUP5 MLOAD PUSH8 0xFFFFFFFFFFFFFFFF SWAP6 DUP7 DUP3 GT PUSH2 0x1098 JUMPI SWAP1 DUP1 DUP16 DUP16 SWAP7 SWAP6 SWAP5 SWAP4 PUSH2 0xDEC DUP8 SLOAD PUSH2 0x1817 JUMP JUMPDEST SWAP8 PUSH1 0x1F SWAP9 DUP10 DUP2 GT PUSH2 0x1119 JUMPI JUMPDEST POP DUP3 DUP10 DUP6 GT PUSH1 0x1 EQ PUSH2 0x10B7 JUMPI POP SWAP3 PUSH2 0x10AC JUMPI JUMPDEST POP POP PUSH1 0x0 NOT PUSH1 0x3 DUP4 SWAP1 SHL SHR NOT AND SWAP1 DUP7 SHL OR DUP4 SSTORE JUMPDEST MLOAD DUP3 DUP6 ADD SSTORE MLOAD DUP1 MLOAD PUSH1 0x2 DUP4 ADD SWAP2 DUP7 DUP3 GT PUSH2 0x1098 JUMPI SWAP1 DUP15 DUP4 SWAP3 DUP16 SWAP6 SWAP5 PUSH2 0xE44 SWAP1 SLOAD PUSH2 0x1817 JUMP JUMPDEST DUP8 DUP2 GT PUSH2 0x106C JUMPI JUMPDEST POP DUP2 DUP8 DUP5 GT PUSH1 0x1 EQ PUSH2 0x1006 JUMPI POP PUSH1 0x3 SWAP6 SWAP2 SWAP1 DUP4 PUSH2 0xFFB JUMPI JUMPDEST POP POP PUSH1 0x0 NOT DUP3 DUP7 SHL SHR NOT AND SWAP1 DUP7 SHL OR SWAP1 SSTORE JUMPDEST ADD SWAP4 MLOAD DUP1 MLOAD SWAP4 DUP5 GT PUSH2 0xFE7 JUMPI DUP11 DUP13 PUSH2 0xE8E DUP8 SLOAD PUSH2 0x1817 JUMP JUMPDEST DUP5 DUP1 DUP3 GT PUSH2 0xFB0 JUMPI JUMPDEST POP POP POP POP DUP12 SWAP2 DUP5 GT PUSH1 0x1 EQ PUSH2 0xF24 JUMPI SWAP3 DUP1 PUSH2 0x8DF SWAP8 SWAP6 SWAP4 DUP2 SWAP4 DUP14 SWAP15 SWAP9 SWAP7 PUSH32 0xD9ACF4F586F3B83D7A3C949DF2606CF9887C3FCDA27A007CC36299CE86C42CA5 SWAP14 SWAP15 SWAP5 PUSH2 0xF19 JUMPI JUMPDEST POP POP SHL SWAP2 PUSH1 0x0 NOT SWAP1 PUSH1 0x3 SHL SHR NOT AND OR SWAP1 SSTORE JUMPDEST PUSH2 0xF05 DUP2 MLOAD SWAP7 DUP8 SWAP7 PUSH1 0x60 DUP9 MSTORE PUSH1 0x60 DUP9 ADD SWAP2 PUSH2 0x1868 JUMP JUMPDEST SWAP3 TIMESTAMP SWAP1 DUP7 ADD MSTORE DUP5 DUP4 SUB SWAP1 DUP6 ADD MSTORE CALLER SWAP7 PUSH2 0x1868 JUMP JUMPDEST ADD MLOAD SWAP3 POP CODESIZE DUP1 PUSH2 0xEDD JUMP JUMPDEST DUP5 DUP12 MSTORE DUP12 DUP12 KECCAK256 SWAP3 SWAP4 SWAP3 SWAP2 SWAP1 PUSH1 0x1F NOT DUP5 AND DUP13 JUMPDEST DUP2 DUP2 LT PUSH2 0xF9B JUMPI POP SWAP2 PUSH32 0xD9ACF4F586F3B83D7A3C949DF2606CF9887C3FCDA27A007CC36299CE86C42CA5 SWAP12 SWAP13 SWAP14 SWAP8 SWAP6 SWAP4 SWAP2 DUP6 PUSH2 0x8DF SWAP11 SWAP9 SWAP7 SWAP5 LT PUSH2 0xF82 JUMPI JUMPDEST POP POP POP DUP2 SHL ADD SWAP1 SSTORE PUSH2 0xEEF JUMP JUMPDEST ADD MLOAD PUSH1 0x0 NOT PUSH1 0xF8 DUP5 PUSH1 0x3 SHL AND SHR NOT AND SWAP1 SSTORE CODESIZE DUP1 DUP1 PUSH2 0xF75 JUMP JUMPDEST DUP3 DUP5 ADD MLOAD DUP6 SSTORE SWAP4 DUP7 ADD SWAP4 SWAP3 DUP15 ADD SWAP3 DUP15 ADD PUSH2 0xF36 JUMP JUMPDEST DUP3 DUP5 DUP11 PUSH2 0xFD5 SWAP7 MSTORE KECCAK256 SWAP2 DUP2 DUP10 ADD PUSH1 0x5 SHR DUP4 ADD SWAP4 DUP10 LT PUSH2 0xFDE JUMPI JUMPDEST ADD PUSH1 0x5 SHR ADD SWAP1 PUSH2 0x1851 JUMP JUMPDEST DUP11 DUP13 CODESIZE DUP5 PUSH2 0xE97 JUMP JUMPDEST SWAP3 POP DUP2 SWAP3 PUSH2 0xFCA JUMP JUMPDEST PUSH4 0x4E487B71 PUSH1 0xE0 SHL DUP12 MSTORE PUSH1 0x41 PUSH1 0x4 MSTORE PUSH1 0x24 DUP12 REVERT JUMPDEST ADD MLOAD SWAP1 POP CODESIZE DUP1 PUSH2 0xE64 JUMP JUMPDEST DUP5 DUP8 MSTORE DUP1 DUP8 KECCAK256 SWAP2 SWAP7 DUP10 SWAP5 SWAP4 SWAP2 PUSH1 0x1F NOT DUP6 AND SWAP2 SWAP1 JUMPDEST DUP3 DUP3 LT PUSH2 0x1053 JUMPI POP POP SWAP7 DUP4 PUSH1 0x3 SWAP9 LT PUSH2 0x103B JUMPI JUMPDEST POP POP POP DUP2 SHL ADD SWAP1 SSTORE PUSH2 0xE76 JUMP JUMPDEST ADD MLOAD PUSH1 0x0 NOT DUP4 DUP9 SHL PUSH1 0xF8 AND SHR NOT AND SWAP1 SSTORE CODESIZE DUP1 DUP1 PUSH2 0x102E JUMP JUMPDEST DUP4 DUP11 ADD MLOAD DUP6 SSTORE DUP12 SWAP7 SWAP1 SWAP5 ADD SWAP4 SWAP3 DUP4 ADD SWAP3 SWAP1 DUP2 ADD SWAP1 PUSH2 0x101A JUMP JUMPDEST PUSH2 0x1092 SWAP1 DUP6 DUP9 MSTORE DUP4 DUP9 KECCAK256 DUP10 DUP1 DUP8 ADD PUSH1 0x5 SHR DUP3 ADD SWAP3 DUP7 DUP9 LT PUSH2 0xFDE JUMPI ADD PUSH1 0x5 SHR ADD SWAP1 PUSH2 0x1851 JUMP JUMPDEST CODESIZE PUSH2 0xE4C JUMP JUMPDEST PUSH4 0x4E487B71 PUSH1 0xE0 SHL DUP15 MSTORE PUSH1 0x41 PUSH1 0x4 MSTORE PUSH1 0x24 DUP15 REVERT JUMPDEST ADD MLOAD SWAP1 POP CODESIZE DUP1 PUSH2 0xE0B JUMP JUMPDEST DUP9 DUP3 MSTORE DUP1 DUP3 KECCAK256 DUP12 SWAP7 POP SWAP4 SWAP3 SWAP2 PUSH1 0x1F NOT DUP7 AND SWAP2 JUMPDEST DUP3 DUP3 LT PUSH2 0x1100 JUMPI POP POP DUP5 GT PUSH2 0x10E7 JUMPI JUMPDEST POP POP POP DUP2 SHL ADD DUP4 SSTORE PUSH2 0xE1F JUMP JUMPDEST ADD MLOAD PUSH1 0x0 NOT PUSH1 0xF8 DUP5 PUSH1 0x3 SHL AND SHR NOT AND SWAP1 SSTORE CODESIZE DUP1 DUP1 PUSH2 0x10DA JUMP JUMPDEST DUP5 DUP5 ADD MLOAD DUP7 SSTORE DUP13 SWAP8 SWAP1 SWAP6 ADD SWAP5 SWAP4 DUP5 ADD SWAP4 SWAP1 DUP2 ADD SWAP1 PUSH2 0x10CA JUMP JUMPDEST PUSH2 0x113F SWAP1 DUP10 DUP4 MSTORE DUP5 DUP4 KECCAK256 DUP12 DUP1 DUP9 ADD PUSH1 0x5 SHR DUP3 ADD SWAP3 DUP8 DUP10 LT PUSH2 0xFDE JUMPI ADD PUSH1 0x5 SHR ADD SWAP1 PUSH2 0x1851 JUMP JUMPDEST CODESIZE PUSH2 0xDF8 JUMP JUMPDEST PUSH4 0x4E487B71 PUSH1 0xE0 SHL DUP14 MSTORE PUSH1 0x32 PUSH1 0x4 MSTORE PUSH1 0x24 DUP14 REVERT JUMPDEST PUSH4 0x4E487B71 PUSH1 0xE0 SHL DUP13 MSTORE PUSH1 0x41 PUSH1 0x4 MSTORE PUSH1 0x24 DUP13 REVERT JUMPDEST DUP2 MLOAD PUSH3 0x461BCD PUSH1 0xE5 SHL DUP2 MSTORE PUSH1 0x20 PUSH1 0x4 DUP3 ADD MSTORE PUSH1 0x1B PUSH1 0x24 DUP3 ADD MSTORE PUSH32 0x5265636F726420747970652063616E6E6F7420626520656D7074790000000000 PUSH1 0x44 DUP3 ADD MSTORE PUSH1 0x64 SWAP1 REVERT JUMPDEST DUP2 MLOAD PUSH3 0x461BCD PUSH1 0xE5 SHL DUP2 MSTORE PUSH1 0x20 PUSH1 0x4 DUP3 ADD MSTORE PUSH1 0x13 PUSH1 0x24 DUP3 ADD MSTORE PUSH19 0x4349442063616E6E6F7420626520656D707479 PUSH1 0x68 SHL PUSH1 0x44 DUP3 ADD MSTORE PUSH1 0x64 SWAP1 REVERT JUMPDEST POP CALLVALUE PUSH2 0x14C JUMPI PUSH1 0x20 DUP1 PUSH1 0x3 NOT CALLDATASIZE ADD SLT PUSH2 0x346 JUMPI PUSH2 0x1206 PUSH2 0x15D1 JUMP JUMPDEST CALLER DUP5 MSTORE PUSH1 0x1 DUP1 DUP4 MSTORE DUP4 DUP6 KECCAK256 PUSH1 0x1 PUSH1 0x1 PUSH1 0xA0 SHL SUB SWAP3 DUP4 AND DUP1 DUP8 MSTORE SWAP1 DUP5 MSTORE DUP5 DUP7 KECCAK256 SLOAD SWAP1 SWAP5 SWAP3 SWAP2 SWAP1 PUSH1 0xFF AND ISZERO PUSH2 0x1395 JUMPI CALLER DUP1 DUP8 MSTORE DUP2 DUP6 MSTORE DUP4 DUP8 KECCAK256 DUP7 DUP9 MSTORE DUP6 MSTORE DUP4 DUP8 KECCAK256 DUP1 SLOAD PUSH1 0xFF NOT AND SWAP1 SSTORE DUP7 MSTORE PUSH1 0x3 DUP1 DUP6 MSTORE DUP4 DUP8 KECCAK256 DUP8 DUP4 JUMPDEST PUSH2 0x128F JUMPI JUMPDEST DUP9 DUP9 DUP9 PUSH32 0x6F6A404FFD2CEA4713256A4FD9CE99C8CF8CF32D85C2BB8061D1603FF57D50C3 DUP10 MLOAD SWAP2 TIMESTAMP DUP4 MSTORE CALLER SWAP3 LOG3 DUP1 RETURN JUMPDEST DUP2 SLOAD DUP1 DUP3 LT ISZERO PUSH2 0x138F JUMPI DUP9 DUP7 PUSH2 0x12A5 DUP5 DUP7 PUSH2 0x1889 JUMP JUMPDEST SWAP1 SLOAD SWAP1 DUP8 SHL SHR AND EQ PUSH2 0x12C1 JUMPI POP PUSH2 0x12BB SWAP1 PUSH2 0x18B7 JUMP JUMPDEST DUP4 PUSH2 0x125A JUMP JUMPDEST SWAP9 SWAP8 SWAP7 SWAP6 SWAP5 SWAP2 SWAP3 SWAP4 POP PUSH1 0x0 NOT SWAP9 DUP10 DUP2 ADD SWAP1 DUP2 GT PUSH2 0x137B JUMPI SWAP1 PUSH2 0x12F8 DUP4 PUSH2 0x12EA PUSH2 0x1317 SWAP5 DUP8 PUSH2 0x1889 JUMP JUMPDEST SWAP1 SLOAD SWAP1 DUP9 SHL SHR AND SWAP2 DUP6 PUSH2 0x1889 JUMP JUMPDEST SWAP1 SWAP2 SWAP1 DUP3 SLOAD SWAP1 PUSH1 0x3 SHL SWAP2 PUSH1 0x1 DUP1 PUSH1 0xA0 SHL SUB DUP1 SWAP2 AND DUP4 SHL SWAP3 SHL NOT AND OR SWAP1 SSTORE JUMP JUMPDEST DUP2 SLOAD SWAP8 DUP9 ISZERO PUSH2 0x1367 JUMPI PUSH32 0x6F6A404FFD2CEA4713256A4FD9CE99C8CF8CF32D85C2BB8061D1603FF57D50C3 SWAP6 SWAP7 SWAP8 SWAP9 ADD SWAP3 PUSH2 0x1351 DUP5 DUP5 PUSH2 0x1889 JUMP JUMPDEST DUP2 SWAP4 SWAP2 SLOAD SWAP3 SHL SHL NOT AND SWAP1 SSTORE SSTORE SWAP1 CODESIZE DUP1 DUP1 DUP1 PUSH2 0x125F JUMP JUMPDEST PUSH4 0x4E487B71 PUSH1 0xE0 SHL DUP9 MSTORE PUSH1 0x31 PUSH1 0x4 MSTORE PUSH1 0x24 DUP9 REVERT JUMPDEST PUSH4 0x4E487B71 PUSH1 0xE0 SHL DUP10 MSTORE PUSH1 0x11 PUSH1 0x4 MSTORE PUSH1 0x24 DUP10 REVERT JUMPDEST POP PUSH2 0x125F JUMP JUMPDEST DUP3 MLOAD PUSH3 0x461BCD PUSH1 0xE5 SHL DUP2 MSTORE PUSH1 0x4 DUP2 ADD DUP6 SWAP1 MSTORE PUSH1 0x12 PUSH1 0x24 DUP3 ADD MSTORE PUSH18 0x1058D8D95CDCC81B9BDD0819DC985B9D1959 PUSH1 0x72 SHL PUSH1 0x44 DUP3 ADD MSTORE PUSH1 0x64 SWAP1 REVERT JUMPDEST POP CALLVALUE PUSH2 0x14C JUMPI DUP1 PUSH1 0x3 NOT CALLDATASIZE ADD SLT PUSH2 0x14C JUMPI PUSH2 0x13E7 PUSH2 0x15D1 JUMP JUMPDEST PUSH1 0x1 PUSH1 0x1 PUSH1 0xA0 SHL SUB PUSH1 0x24 CALLDATALOAD DUP2 DUP2 AND SWAP3 SWAP1 DUP4 SWAP1 SUB PUSH2 0x1422 JUMPI SWAP4 PUSH1 0xFF SWAP3 DUP5 SWAP3 PUSH1 0x20 SWAP7 AND DUP3 MSTORE PUSH1 0x1 DUP7 MSTORE DUP3 DUP3 KECCAK256 SWAP1 DUP3 MSTORE DUP6 MSTORE KECCAK256 SLOAD AND SWAP1 MLOAD SWAP1 ISZERO ISZERO DUP2 MSTORE RETURN JUMPDEST DUP5 DUP1 REVERT JUMPDEST SWAP2 SWAP1 POP CALLVALUE PUSH2 0x346 JUMPI PUSH1 0x20 SWAP1 DUP2 PUSH1 0x3 NOT CALLDATASIZE ADD SLT PUSH2 0x15CD JUMPI PUSH2 0x1444 PUSH2 0x15D1 JUMP JUMPDEST PUSH1 0x1 PUSH1 0x1 PUSH1 0xA0 SHL SUB DUP2 AND SWAP4 DUP5 ISZERO PUSH2 0x1592 JUMPI POP DUP4 DUP6 MSTORE PUSH1 0x2 DUP4 MSTORE PUSH1 0xFF PUSH1 0x3 DUP4 DUP8 KECCAK256 ADD SLOAD AND ISZERO PUSH2 0x154E JUMPI CALLER DUP6 MSTORE PUSH1 0x1 DUP4 MSTORE DUP2 DUP6 KECCAK256 DUP5 DUP7 MSTORE DUP4 MSTORE PUSH1 0xFF DUP3 DUP7 KECCAK256 SLOAD AND PUSH2 0x1511 JUMPI CALLER DUP6 MSTORE PUSH1 0x1 DUP4 MSTORE DUP2 DUP6 KECCAK256 DUP5 DUP7 MSTORE DUP4 MSTORE DUP2 DUP6 KECCAK256 PUSH1 0x1 PUSH1 0xFF NOT DUP3 SLOAD AND OR SWAP1 SSTORE CALLER DUP6 MSTORE PUSH1 0x3 DUP4 MSTORE DUP2 DUP6 KECCAK256 DUP1 SLOAD SWAP1 PUSH1 0x1 PUSH1 0x40 SHL DUP3 LT ISZERO PUSH2 0x14FD JUMPI SWAP2 PUSH2 0x12F8 DUP3 PUSH32 0x65D0CC1E52D49938CA4AD9F423C79C1B84D914B9A683FBC5D3F93AC3CC5635F5 SWAP6 SWAP5 PUSH1 0x1 PUSH2 0x14F2 SWAP6 ADD DUP2 SSTORE PUSH2 0x1889 JUMP JUMPDEST MLOAD SWAP2 TIMESTAMP DUP4 MSTORE CALLER SWAP3 LOG3 DUP1 RETURN JUMPDEST PUSH4 0x4E487B71 PUSH1 0xE0 SHL DUP8 MSTORE PUSH1 0x41 PUSH1 0x4 MSTORE PUSH1 0x24 DUP8 REVERT JUMPDEST DUP2 MLOAD PUSH3 0x461BCD PUSH1 0xE5 SHL DUP2 MSTORE PUSH1 0x4 DUP2 ADD DUP5 SWAP1 MSTORE PUSH1 0x16 PUSH1 0x24 DUP3 ADD MSTORE PUSH22 0x1058D8D95CDCC8185B1C9958591E4819DC985B9D1959 PUSH1 0x52 SHL PUSH1 0x44 DUP3 ADD MSTORE PUSH1 0x64 SWAP1 REVERT JUMPDEST DUP2 MLOAD PUSH3 0x461BCD PUSH1 0xE5 SHL DUP2 MSTORE PUSH1 0x4 DUP2 ADD DUP5 SWAP1 MSTORE PUSH1 0x17 PUSH1 0x24 DUP3 ADD MSTORE PUSH32 0x446F63746F72206D757374206265207665726966696564000000000000000000 PUSH1 0x44 DUP3 ADD MSTORE PUSH1 0x64 SWAP1 REVERT JUMPDEST PUSH3 0x461BCD PUSH1 0xE5 SHL DUP2 MSTORE PUSH1 0x4 DUP2 ADD DUP5 SWAP1 MSTORE PUSH1 0x16 PUSH1 0x24 DUP3 ADD MSTORE PUSH22 0x496E76616C696420646F63746F722061646472657373 PUSH1 0x50 SHL PUSH1 0x44 DUP3 ADD MSTORE PUSH1 0x64 SWAP1 REVERT JUMPDEST DUP4 DUP1 REVERT JUMPDEST PUSH1 0x4 CALLDATALOAD SWAP1 PUSH1 0x1 PUSH1 0x1 PUSH1 0xA0 SHL SUB DUP3 AND DUP3 SUB PUSH2 0x15E7 JUMPI JUMP JUMPDEST PUSH1 0x0 DUP1 REVERT JUMPDEST SWAP2 DUP2 PUSH1 0x1F DUP5 ADD SLT ISZERO PUSH2 0x15E7 JUMPI DUP3 CALLDATALOAD SWAP2 PUSH8 0xFFFFFFFFFFFFFFFF DUP4 GT PUSH2 0x15E7 JUMPI PUSH1 0x20 DUP4 DUP2 DUP7 ADD SWAP6 ADD ADD GT PUSH2 0x15E7 JUMPI JUMP JUMPDEST SWAP1 PUSH1 0x60 PUSH1 0x3 NOT DUP4 ADD SLT PUSH2 0x15E7 JUMPI PUSH8 0xFFFFFFFFFFFFFFFF PUSH1 0x4 CALLDATALOAD DUP2 DUP2 GT PUSH2 0x15E7 JUMPI DUP4 PUSH2 0x1647 SWAP2 PUSH1 0x4 ADD PUSH2 0x15EC JUMP JUMPDEST SWAP4 SWAP1 SWAP4 SWAP3 PUSH1 0x24 CALLDATALOAD DUP4 DUP2 GT PUSH2 0x15E7 JUMPI DUP3 PUSH2 0x1662 SWAP2 PUSH1 0x4 ADD PUSH2 0x15EC JUMP JUMPDEST SWAP4 SWAP1 SWAP4 SWAP3 PUSH1 0x44 CALLDATALOAD SWAP2 DUP3 GT PUSH2 0x15E7 JUMPI PUSH2 0x167C SWAP2 PUSH1 0x4 ADD PUSH2 0x15EC JUMP JUMPDEST SWAP1 SWAP2 JUMP JUMPDEST SWAP2 SWAP1 DUP3 MLOAD SWAP3 DUP4 DUP3 MSTORE PUSH1 0x0 JUMPDEST DUP5 DUP2 LT PUSH2 0x16AC JUMPI POP POP DUP3 PUSH1 0x0 PUSH1 0x20 DUP1 SWAP5 SWAP6 DUP5 ADD ADD MSTORE PUSH1 0x1F DUP1 NOT SWAP2 ADD AND ADD ADD SWAP1 JUMP JUMPDEST PUSH1 0x20 DUP2 DUP4 ADD DUP2 ADD MLOAD DUP5 DUP4 ADD DUP3 ADD MSTORE ADD PUSH2 0x168B JUMP JUMPDEST PUSH1 0x20 DUP1 DUP3 ADD SWAP1 DUP1 DUP4 MSTORE DUP4 MLOAD DUP1 SWAP3 MSTORE PUSH1 0x40 SWAP3 DUP4 DUP2 ADD DUP3 DUP6 DUP6 PUSH1 0x5 SHL DUP5 ADD ADD SWAP7 ADD SWAP5 PUSH1 0x0 SWAP3 JUMPDEST DUP6 DUP5 LT PUSH2 0x16F5 JUMPI POP POP POP POP POP POP POP SWAP1 JUMP JUMPDEST SWAP1 SWAP2 SWAP3 SWAP4 SWAP5 SWAP6 SWAP7 DUP6 DUP1 PUSH2 0x174F PUSH1 0x1 SWAP4 PUSH1 0x3F NOT DUP7 DUP3 SUB ADD DUP9 MSTORE DUP12 MLOAD PUSH2 0x173C PUSH2 0x1724 DUP3 MLOAD PUSH1 0x80 DUP1 DUP7 MSTORE DUP6 ADD SWAP1 PUSH2 0x1680 JUMP JUMPDEST DUP6 DUP4 ADD MLOAD DUP7 DUP6 ADD MSTORE DUP10 DUP4 ADD MLOAD DUP5 DUP3 SUB DUP12 DUP7 ADD MSTORE PUSH2 0x1680 JUMP JUMPDEST SWAP2 PUSH1 0x60 DUP1 SWAP3 ADD MLOAD SWAP2 DUP2 DUP5 SUB SWAP2 ADD MSTORE PUSH2 0x1680 JUMP JUMPDEST SWAP10 ADD SWAP5 ADD SWAP5 ADD SWAP3 SWAP6 SWAP5 SWAP4 SWAP2 SWAP1 PUSH2 0x16E4 JUMP JUMPDEST PUSH1 0x80 DUP2 ADD SWAP1 DUP2 LT PUSH8 0xFFFFFFFFFFFFFFFF DUP3 GT OR PUSH2 0x177C JUMPI PUSH1 0x40 MSTORE JUMP JUMPDEST PUSH4 0x4E487B71 PUSH1 0xE0 SHL PUSH1 0x0 MSTORE PUSH1 0x41 PUSH1 0x4 MSTORE PUSH1 0x24 PUSH1 0x0 REVERT JUMPDEST PUSH1 0xA0 DUP2 ADD SWAP1 DUP2 LT PUSH8 0xFFFFFFFFFFFFFFFF DUP3 GT OR PUSH2 0x177C JUMPI PUSH1 0x40 MSTORE JUMP JUMPDEST SWAP1 PUSH1 0x1F DUP1 NOT SWAP2 ADD AND DUP2 ADD SWAP1 DUP2 LT PUSH8 0xFFFFFFFFFFFFFFFF DUP3 GT OR PUSH2 0x177C JUMPI PUSH1 0x40 MSTORE JUMP JUMPDEST SWAP3 SWAP2 SWAP3 PUSH8 0xFFFFFFFFFFFFFFFF DUP3 GT PUSH2 0x177C JUMPI PUSH1 0x40 MLOAD SWAP2 PUSH2 0x17FA PUSH1 0x1F DUP3 ADD PUSH1 0x1F NOT AND PUSH1 0x20 ADD DUP5 PUSH2 0x17AE JUMP JUMPDEST DUP3 SWAP5 DUP2 DUP5 MSTORE DUP2 DUP4 ADD GT PUSH2 0x15E7 JUMPI DUP3 DUP2 PUSH1 0x20 SWAP4 DUP5 PUSH1 0x0 SWAP7 ADD CALLDATACOPY ADD ADD MSTORE JUMP JUMPDEST SWAP1 PUSH1 0x1 DUP3 DUP2 SHR SWAP3 AND DUP1 ISZERO PUSH2 0x1847 JUMPI JUMPDEST PUSH1 0x20 DUP4 LT EQ PUSH2 0x1831 JUMPI JUMP JUMPDEST PUSH4 0x4E487B71 PUSH1 0xE0 SHL PUSH1 0x0 MSTORE PUSH1 0x22 PUSH1 0x4 MSTORE PUSH1 0x24 PUSH1 0x0 REVERT JUMPDEST SWAP2 PUSH1 0x7F AND SWAP2 PUSH2 0x1826 JUMP JUMPDEST DUP2 DUP2 LT PUSH2 0x185C JUMPI POP POP JUMP JUMPDEST PUSH1 0x0 DUP2 SSTORE PUSH1 0x1 ADD PUSH2 0x1851 JUMP JUMPDEST SWAP1 DUP1 PUSH1 0x20 SWAP4 SWAP3 DUP2 DUP5 MSTORE DUP5 DUP5 ADD CALLDATACOPY PUSH1 0x0 DUP3 DUP3 ADD DUP5 ADD MSTORE PUSH1 0x1F ADD PUSH1 0x1F NOT AND ADD ADD SWAP1 JUMP JUMPDEST DUP1 SLOAD DUP3 LT ISZERO PUSH2 0x18A1 JUMPI PUSH1 0x0 MSTORE PUSH1 0x20 PUSH1 0x0 KECCAK256 ADD SWAP1 PUSH1 0x0 SWAP1 JUMP JUMPDEST PUSH4 0x4E487B71 PUSH1 0xE0 SHL PUSH1 0x0 MSTORE PUSH1 0x32 PUSH1 0x4 MSTORE PUSH1 0x24 PUSH1 0x0 REVERT JUMPDEST PUSH1 0x0 NOT DUP2 EQ PUSH2 0x18C6 JUMPI PUSH1 0x1 ADD SWAP1 JUMP JUMPDEST PUSH4 0x4E487B71 PUSH1 0xE0 SHL PUSH1 0x0 MSTORE PUSH1 0x11 PUSH1 0x4 MSTORE PUSH1 0x24 PUSH1 0x0 REVERT JUMPDEST ISZERO PUSH2 0x18E3 JUMPI JUMP JUMPDEST PUSH1 0x40 MLOAD PUSH3 0x461BCD PUSH1 0xE5 SHL DUP2 MSTORE PUSH1 0x20 PUSH1 0x4 DUP3 ADD MSTORE PUSH1 0x21 PUSH1 0x24 DUP3 ADD MSTORE PUSH32 0x4F6E6C79206F776E65722063616E2063616C6C20746869732066756E6374696F PUSH1 0x44 DUP3 ADD MSTORE PUSH1 0x37 PUSH1 0xF9 SHL PUSH1 0x64 DUP3 ADD MSTORE PUSH1 0x84 SWAP1 REVERT JUMPDEST ISZERO PUSH2 0x1939 JUMPI JUMP JUMPDEST PUSH1 0x40 MLOAD PUSH3 0x461BCD PUSH1 0xE5 SHL DUP2 MSTORE PUSH1 0x20 PUSH1 0x4 DUP3 ADD MSTORE PUSH1 0x26 PUSH1 0x24 DUP3 ADD MSTORE PUSH32 0x4E6F7420617574686F72697A656420746F206163636573732074686573652072 PUSH1 0x44 DUP3 ADD MSTORE PUSH6 0x65636F726473 PUSH1 0xD0 SHL PUSH1 0x64 DUP3 ADD MSTORE PUSH1 0x84 SWAP1 REVERT JUMPDEST SWAP1 PUSH1 0x40 MLOAD SWAP2 DUP3 PUSH1 0x0 DUP3 SLOAD SWAP3 PUSH2 0x19A1 DUP5 PUSH2 0x1817 JUMP JUMPDEST SWAP1 DUP2 DUP5 MSTORE PUSH1 0x1 SWAP5 DUP6 DUP2 AND SWAP1 DUP2 PUSH1 0x0 EQ PUSH2 0x1A10 JUMPI POP PUSH1 0x1 EQ PUSH2 0x19CD JUMPI JUMPDEST POP POP PUSH2 0x19CB SWAP3 POP SUB DUP4 PUSH2 0x17AE JUMP JUMPDEST JUMP JUMPDEST SWAP1 SWAP4 SWAP2 POP PUSH1 0x0 MSTORE PUSH1 0x20 SWAP1 DUP2 PUSH1 0x0 KECCAK256 SWAP4 PUSH1 0x0 SWAP2 JUMPDEST DUP2 DUP4 LT PUSH2 0x19F8 JUMPI POP POP PUSH2 0x19CB SWAP4 POP DUP3 ADD ADD CODESIZE DUP1 PUSH2 0x19BD JUMP JUMPDEST DUP6 SLOAD DUP9 DUP5 ADD DUP6 ADD MSTORE SWAP5 DUP6 ADD SWAP5 DUP8 SWAP5 POP SWAP2 DUP4 ADD SWAP2 PUSH2 0x19E0 JUMP JUMPDEST SWAP2 POP POP PUSH2 0x19CB SWAP5 POP PUSH1 0x20 SWAP3 POP PUSH1 0xFF NOT AND DUP3 DUP5 ADD MSTORE ISZERO ISZERO PUSH1 0x5 SHL DUP3 ADD ADD CODESIZE DUP1 PUSH2 0x19BD JUMP INVALID LOG2 PUSH5 0x6970667358 0x22 SLT KECCAK256 PUSH28 0xBCF41EFF9F4611E5F7188688C8AEDB9AA8D26149059FB32692F093FA BALANCE SWAP4 0xFB PUSH5 0x736F6C6343 STOP ADDMOD EQ STOP CALLER "},"methodIdentifiers":{"addRecord(string,string,string)":"3f723c62","emergencyRevokeAllAccess()":"4ff652ee","getAuthorizedDoctors(address)":"cbf8a64b","getDoctorInfo(address)":"6f12fc35","getMyRecords()":"e76637ce","getRecordCount(address)":"58214308","getRecords(address)":"a0076e84","grantDoctorAccess(address)":"12e0808f","hasAccess(address,address)":"1709ef07","owner()":"8da5cb5b","registerDoctor(string,string,string)":"50c7a912","revokeDoctorAccess(address)":"3df95ab8","transferOwnership(address)":"f2fde38b","verifyDoctor(address)":"d80cb05c"}}}}}