{"contracts/EmergencyAlert.sol":{"EmergencyAlert":{"abi":[{"inputs":[],"stateMutability":"nonpayable","type":"constructor"},{"anonymous":false,"inputs":[{"indexed":true,"internalType":"uint256","name":"id","type":"uint256"},{"indexed":true,"internalType":"address","name":"user","type":"address"},{"indexed":false,"internalType":"uint256","name":"timestamp","type":"uint256"}],"name":"AlertResolved","type":"event"},{"anonymous":false,"inputs":[{"indexed":true,"internalType":"uint256","name":"id","type":"uint256"},{"indexed":true,"internalType":"address","name":"helper","type":"address"},{"indexed":false,"internalType":"string","name":"status","type":"string"}],"name":"AlertResponded","type":"event"},{"anonymous":false,"inputs":[{"indexed":true,"internalType":"uint256","name":"id","type":"uint256"},{"indexed":true,"internalType":"address","name":"user","type":"address"},{"indexed":false,"internalType":"string","name":"alertType","type":"string"},{"indexed":false,"internalType":"string","name":"encryptedLocation","type":"string"},{"indexed":false,"internalType":"uint256","name":"timestamp","type":"uint256"}],"name":"AlertTriggered","type":"event"},{"anonymous":false,"inputs":[{"indexed":true,"internalType":"uint256","name":"alertId","type":"uint256"},{"indexed":false,"internalType":"string","name":"alertType","type":"string"},{"indexed":false,"internalType":"string","name":"location","type":"string"}],"name":"EmergencyBroadcast","type":"event"},{"anonymous":false,"inputs":[{"indexed":true,"internalType":"address","name":"helper","type":"address"},{"indexed":false,"internalType":"string","name":"name","type":"string"},{"indexed":false,"internalType":"string","name":"specialization","type":"string"}],"name":"HelperRegistered","type":"event"},{"anonymous":false,"inputs":[{"indexed":true,"internalType":"address","name":"helper","type":"address"},{"indexed":false,"internalType":"address","name":"verifier","type":"address"}],"name":"HelperVerified","type":"event"},{"inputs":[],"name":"admin","outputs":[{"internalType":"address","name":"","type":"address"}],"stateMutability":"view","type":"function"},{"inputs":[],"name":"alertCount","outputs":[{"internalType":"uint256","name":"","type":"uint256"}],"stateMutability":"view","type":"function"},{"inputs":[{"internalType":"uint256","name":"","type":"uint256"},{"internalType":"uint256","name":"","type":"uint256"}],"name":"alertResponses","outputs":[{"internalType":"uint256","name":"alertId","type":"uint256"},{"internalType":"address","name":"helper","type":"address"},{"internalType":"uint256","name":"timestamp","type":"uint256"},{"internalType":"string","name":"status","type":"string"},{"internalType":"string","name":"notes","type":"string"}],"stateMutability":"view","type":"function"},{"inputs":[{"internalType":"uint256","name":"","type":"uint256"}],"name":"alerts","outputs":[{"internalType":"address","name":"user","type":"address"},{"internalType":"string","name":"encryptedLocation","type":"string"},{"internalType":"string","name":"alertType","type":"string"},{"internalType":"uint256","name":"timestamp","type":"uint256"},{"internalType":"bool","name":"resolved","type":"bool"},{"internalType":"bool","name":"active","type":"bool"},{"internalType":"string","name":"notes","type":"string"}],"stateMutability":"view","type":"function"},{"inputs":[{"internalType":"uint256","name":"_alertId","type":"uint256"}],"name":"cancelAlert","outputs":[],"stateMutability":"nonpayable","type":"function"},{"inputs":[],"name":"getActiveAlerts","outputs":[{"components":[{"internalType":"address","name":"user","type":"address"},{"internalType":"string","name":"encryptedLocation","type":"string"},{"internalType":"string","name":"alertType","type":"string"},{"internalType":"uint256","name":"timestamp","type":"uint256"},{"internalType":"bool","name":"resolved","type":"bool"},{"internalType":"bool","name":"active","type":"bool"},{"internalType":"address[]","name":"responders","type":"address[]"},{"internalType":"string","name":"notes","type":"string"}],"internalType":"struct EmergencyAlert.Alert[]","name":"","type":"tuple[]"}],"stateMutability":"view","type":"function"},{"inputs":[{"internalType":"uint256","name":"_alertId","type":"uint256"}],"name":"getAlert","outputs":[{"components":[{"internalType":"address","name":"user","type":"address"},{"internalType":"string","name":"encryptedLocation","type":"string"},{"internalType":"string","name":"alertType","type":"string"},{"internalType":"uint256","name":"timestamp","type":"uint256"},{"internalType":"bool","name":"resolved","type":"bool"},{"internalType":"bool","name":"active","type":"bool"},{"internalType":"address[]","name":"responders","type":"address[]"},{"internalType":"string","name":"notes","type":"string"}],"internalType":"struct EmergencyAlert.Alert","name":"","type":"tuple"}],"stateMutability":"view","type":"function"},{"inputs":[{"internalType":"uint256","name":"_alertId","type":"uint256"}],"name":"getAlertResponses","outputs":[{"components":[{"internalType":"uint256","name":"alertId","type":"uint256"},{"internalType":"address","name":"helper","type":"address"},{"internalType":"uint256","name":"timestamp","type":"uint256"},{"internalType":"string","name":"status","type":"string"},{"internalType":"string","name":"notes","type":"string"}],"internalType":"struct EmergencyAlert.Response[]","name":"","type":"tuple[]"}],"stateMutability":"view","type":"function"},{"inputs":[{"internalType":"address","name":"_helper","type":"address"}],"name":"getHelper","outputs":[{"components":[{"internalType":"address","name":"wallet","type":"address"},{"internalType":"string","name":"name","type":"string"},{"internalType":"string","name":"specialization","type":"string"},{"internalType":"string","name":"location","type":"string"},{"internalType":"bool","name":"verified","type":"bool"},{"internalType":"bool","name":"available","type":"bool"},{"internalType":"uint256","name":"responseCount","type":"uint256"},{"internalType":"uint256","name":"rating","type":"uint256"}],"internalType":"struct EmergencyAlert.Helper","name":"","type":"tuple"}],"stateMutability":"view","type":"function"},{"inputs":[{"internalType":"address","name":"_user","type":"address"}],"name":"getUserAlerts","outputs":[{"internalType":"uint256[]","name":"","type":"uint256[]"}],"stateMutability":"view","type":"function"},{"inputs":[],"name":"getVerifiedHelpers","outputs":[{"components":[{"internalType":"address","name":"wallet","type":"address"},{"internalType":"string","name":"name","type":"string"},{"internalType":"string","name":"specialization","type":"string"},{"internalType":"string","name":"location","type":"string"},{"internalType":"bool","name":"verified","type":"bool"},{"internalType":"bool","name":"available","type":"bool"},{"internalType":"uint256","name":"responseCount","type":"uint256"},{"internalType":"uint256","name":"rating","type":"uint256"}],"internalType":"struct EmergencyAlert.Helper[]","name":"","type":"tuple[]"}],"stateMutability":"view","type":"function"},{"inputs":[],"name":"helperCount","outputs":[{"internalType":"uint256","name":"","type":"uint256"}],"stateMutability":"view","type":"function"},{"inputs":[{"internalType":"address","name":"","type":"address"}],"name":"helpers","outputs":[{"internalType":"address","name":"wallet","type":"address"},{"internalType":"string","name":"name","type":"string"},{"internalType":"string","name":"specialization","type":"string"},{"internalType":"string","name":"location","type":"string"},{"internalType":"bool","name":"verified","type":"bool"},{"internalType":"bool","name":"available","type":"bool"},{"internalType":"uint256","name":"responseCount","type":"uint256"},{"internalType":"uint256","name":"rating","type":"uint256"}],"stateMutability":"view","type":"function"},{"inputs":[{"internalType":"uint256","name":"_alertId","type":"uint256"},{"internalType":"address","name":"_helper","type":"address"},{"internalType":"uint8","name":"_rating","type":"uint8"}],"name":"rateHelper","outputs":[],"stateMutability":"nonpayable","type":"function"},{"inputs":[{"internalType":"string","name":"_name","type":"string"},{"internalType":"string","name":"_specialization","type":"string"},{"internalType":"string","name":"_location","type":"string"}],"name":"registerHelper","outputs":[],"stateMutability":"nonpayable","type":"function"},{"inputs":[{"internalType":"uint256","name":"_alertId","type":"uint256"}],"name":"resolveAlert","outputs":[],"stateMutability":"nonpayable","type":"function"},{"inputs":[{"internalType":"uint256","name":"_alertId","type":"uint256"},{"internalType":"string","name":"_status","type":"string"},{"internalType":"string","name":"_notes","type":"string"}],"name":"respondToAlert","outputs":[],"stateMutability":"nonpayable","type":"function"},{"inputs":[{"internalType":"bool","name":"_available","type":"bool"}],"name":"setHelperAvailability","outputs":[],"stateMutability":"nonpayable","type":"function"},{"inputs":[{"internalType":"string","name":"_encryptedLocation","type":"string"},{"internalType":"string","name":"_alertType","type":"string"},{"internalType":"string","name":"_notes","type":"string"}],"name":"triggerAlert","outputs":[],"stateMutability":"nonpayable","type":"function"},{"inputs":[{"internalType":"address","name":"","type":"address"},{"internalType":"uint256","name":"","type":"uint256"}],"name":"userAlerts","outputs":[{"internalType":"uint256","name":"","type":"uint256"}],"stateMutability":"view","type":"function"},{"inputs":[{"internalType":"address","name":"","type":"address"}],"name":"verifiedHelpers","outputs":[{"internalType":"bool","name":"","type":"bool"}],"stateMutability":"view","type":"function"},{"inputs":[{"internalType":"address","name":"_helper","type":"address"}],"name":"verifyHelper","outputs":[],"stateMutability":"nonpayable","type":"function"}],"evm":{"bytecode":{"linkReferences":{},"object":"6080806040523461002857600780546001600160a01b03191633179055612827908161002e8239f35b600080fdfe6080604052600436101561001257600080fd5b60e0600035811c8063171d073a146120b65780631c07dc8b14611ac45780632472de64146115335780632a41e02e146114615780632e0e053f146113c25780634d8255bb1461126f5780636545d8a91461119a5780636db5e0c61461114157806370eba3b11461110257806375d3935614610ff35780638508188614610ecd5780638f753e08146109d45780639578421914610943578063ab44649114610925578063ad969d5b14610883578063cb9ba736146107cf578063d669dc0514610658578063da086032146105eb578063da0ff2c6146105cd578063ee11872814610341578063f851a440146103185763fa2956dc1461010f57600080fd5b3461031357600036600319011261031357600590815461012e8161274e565b9160009160015b818111156101e3575050506101498161274e565b9160005b8281106101b457505050604051906020808301818452825180915281604082818701971b8601019301916000955b8287106101885785850386f35b9091929382806101a4600193603f198a82030186528851612459565b960192019601959291909261017b565b806101c26101de928461279e565b516101cd828761279e565b526101d8818661279e565b50612530565b61014d565b80600052602060008152604060002060048101549160ff92838160081c16808091610309575b610221575b505050505061021c90612530565b610135565b60409895985194610231866121a5565b84546001600160a01b0390811687529261024d600187016121fd565b8588015261025d600287016121fd565b6040880152600386015460608801521615156080860152151560a08501528983019060405190819380845493848152019360005280600020926000915b8183106102f0575050505050600661021c9593836102c16102e597956102cc9503826121dc565b60c0850152016121fd565b868201526102da828961279e565b526101d8818861279e565b93903880808061020e565b845484168652948501946001948501949092019161029a565b5084821615610209565b600080fd5b34610313576000366003190112610313576007546040516001600160a01b039091168152602090f35b34610313576060366003190112610313576001600160a01b0360248035828116929060043590849003610313576044359360ff851680950361031357816000526020916000835261039a8460406000205416331461266a565b60019384871015806105c2575b1561057e57816000526000845260ff600460406000200154161561053a578490600092826000905b6104e4575b5050505015610495578060005282825260406000209360056006860154950154956000198701958787116104805786810296818804149015171561046b5760640260ff811690810361046b57850180951161045757851561044357506000525204600660406000200155600080f35b634e487b7160e01b60009081526012600452fd5b634e487b7160e01b60009081526011600452fd5b50634e487b7160e01b60009081526011600452fd5b82634e487b7160e01b60005260116004526000fd5b608482856040519162461bcd60e51b83526004830152808201527f48656c70657220646964206e6f7420726573706f6e6420746f207468697320616044820152631b195c9d60e21b6064820152fd5b816000526000875285600560406000200180548310156105335761050983869261242b565b90549060031b1c16146105255761051f90612530565b836103cf565b5050509050838780806103d4565b50506103d4565b60405162461bcd60e51b815260048101859052601c818801527f416c657274206d757374206265207265736f6c766564206669727374000000006044820152606490fd5b60405162461bcd60e51b815260048101859052601e818801527f526174696e67206d757374206265206265747765656e203120616e64203500006044820152606490fd5b5060058711156103a7565b34610313576000366003190112610313576020600654604051908152f35b34610313576020366003190112610313576004358015158103610313576106569033600052600160205261062d60018060a01b036040600020541615156125a8565b33600052600160205260046040600020019061ff00825491151560081b169061ff001916179055565b005b346103135760208060031936011261031357600435801515806107c3575b61067f906125ec565b6000526002908181526040600020805461069881612555565b936106a660405195866121dc565b81855260009283528383208486019391845b84841061075f57604080518881528951818a01819052600092600582901b83018101918a918c9085015b8287106106ef5785850386f35b90919293828061074f600193603f198a8203018652885180518252858060a01b038482015116848301526040810151604083015261073c6060808301519060a080918601528401906122a3565b91608080920151918184039101526122a3565b96019201960195929190926106e2565b60058760019260409a999a51610774816121c1565b86548152848060a01b0385880154168382015285870154604082015261079c600388016121fd565b60608201526107ad600488016121fd565b60808201528152019301930192919695966106b8565b50600554811115610676565b3461031357602080600319360112610313576001600160a01b036107f1612397565b1660005260038152604060002060405190818382549182815201908192600052846000209060005b8682821061086f57868661082f828803836121dc565b604051928392818401908285525180915260408401929160005b82811061085857505050500390f35b835185528695509381019392810192600101610849565b835485529093019260019283019201610819565b346103135760403660031901126103135760243560043560005260026020526040600020908154811015610313576108ba91612514565b50805461092160018060a01b03600184015416926109136002820154916108ef60046108e8600384016121fd565b92016121fd565b9260405196879687526020870152604086015260a0606086015260a08501906122a3565b9083820360808501526122a3565b0390f35b34610313576000366003190112610313576020600554604051908152f35b346103135760203660031901126103135760043580600052600060205261097860018060a01b0360406000205416331461266a565b80600052600060205261099860ff60046040600020015460081c1661262b565b8060005260006020526109b660ff60046040600020015416156126c9565b6000526000602052600460406000200161ff00198154169055600080f35b5034610313576109e336612339565b909192835115610e9157336000908152600160205260409020546001600160a01b0392908316610e4c5760405190610a1a826121a5565b3382526020820190868252856040840152606083015260006080830152600160a0830152600060c08301526101f4838301523360005260016020526040600020938251166001600160601b0360a01b8554161784555180516001600160401b038111610cf057806001860192610a90845461216b565b601f8111610e1a575b50602090601f8311600114610db457600092610da9575b50508160011b916000199060031b1c19161790555b604081015180516001600160401b038111610cf057806002860192610aea845461216b565b601f8111610d77575b50602090601f8311600114610d1157600092610d06575b50508160011b916000199060031b1c19161790555b6003830160608201518051906001600160401b038211610cf057610b43835461216b565b601f8111610cb3575b50602090601f8311600114610c205792827f61370ea3474aba215f02325f9483ed03c18b116cc883ee9a4ac9e60ae98c052f989693610c10989693600696600092610c15575b50508160011b916000199060031b1c19161790555b610be560048501610bca60808401511515829060ff801983541691151516179055565b60a0830151815461ff00191690151560081b61ff0016179055565b60c081015160058501550151910155610bff600654612530565b600655604051918291339583612583565b0390a2005b015190503880610b92565b90601f198316918460005260206000209260005b818110610c9b575093610c1098969360069693600193837f61370ea3474aba215f02325f9483ed03c18b116cc883ee9a4ac9e60ae98c052f9d9b9810610c82575b505050811b019055610ba7565b015160001960f88460031b161c19169055388080610c75565b92936020600181928786015181550195019301610c34565b610ce090846000526020600020601f850160051c81019160208610610ce6575b601f0160051c019061256c565b38610b4c565b9091508190610cd3565b634e487b7160e01b600052604160045260246000fd5b015190503880610b0a565b6000858152602081209350601f198516905b818110610d5f5750908460019594939210610d46575b505050811b019055610b1f565b015160001960f88460031b161c19169055388080610d39565b92936020600181928786015181550195019301610d23565b610da390856000526020600020601f850160051c81019160208610610ce657601f0160051c019061256c565b38610af3565b015190503880610ab0565b6000858152602081209350601f198516905b818110610e025750908460019594939210610de9575b505050811b019055610ac5565b015160001960f88460031b161c19169055388080610ddc565b92936020600181928786015181550195019301610dc6565b610e4690856000526020600020601f850160051c81019160208610610ce657601f0160051c019061256c565b38610a99565b60405162461bcd60e51b815260206004820152601960248201527f48656c70657220616c72656164792072656769737465726564000000000000006044820152606490fd5b60405162461bcd60e51b81526020600482015260146024820152734e616d652063616e6e6f7420626520656d70747960601b6044820152606490fd5b50346103135760208060031936011261031357600435610eeb61270e565b5080151580610fe7575b610efe906125ec565b6000526000815260406000209160405192610f18846121a5565b80546001600160a01b039081168552600190610f358383016121fd565b85870152610f45600284016121fd565b60408701526003830154606087015260ff60048401548181161515608089015260081c16151560a08701526005830190604051928387845491828152019360005287600020926000905b89838310610fd0578b908a610fb860068c8c610fad818e03826121dc565b60c0870152016121fd565b90830152610921604051928284938452830190612459565b855482168752909501949383019390830190610f8f565b50600554811115610ef5565b5034610313576020806003193601126103135761100e612397565b916110176127b2565b506001600160a01b0392831660008181526001845260409020548416156110ca57600052600182526006604060002060405194611053866121a5565b8154168552611064600182016121fd565b84860152611074600282016121fd565b6040860152611085600382016121fd565b606086015260ff60048201548181161515608088015260081c16151560a0860152600581015460c08601520154908301526109216040519282849384528301906123ad565b60405162461bcd60e51b815260048101849052601060248201526f12195b1c195c881b9bdd08199bdd5b9960821b6044820152606490fd5b34610313576020366003190112610313576001600160a01b03611123612397565b166000526004602052602060ff604060002054166040519015158152f35b346103135760403660031901126103135761115a612397565b6001600160a01b03166000908152600360205260409020805460243591908210156103135760209161118b9161242b565b90549060031b1c604051908152f35b34610313576000366003190112610313576006546111b781612555565b906111c560405192836121dc565b808252601f196111d482612555565b0160005b81811061125857505060005b81811061124a576040805160208082528551818301819052600093600582901b8401810192808901929185015b82871061121e5785850386f35b90919293828061123a600193603f198a820301865288516123ad565b9601920196019592919092611211565b61125390612530565b6111e4565b6020906112636127b2565b828287010152016111d8565b346103135760208060031936011261031357611289612397565b6007546001600160a01b039291908316330361137257826112bc91169283600052600183526040600020541615156125a8565b816000526001815260ff6004604060002001541661132e577f8ab5dbf8978fa4b4e99b85de63b88ad039727f07d84d7ea0e0765afe92b3c088908260005260018152600460406000200160ff1990600182825416179055600482526001604060002091825416179055604051338152a2005b6064906040519062461bcd60e51b82526004820152601760248201527f48656c70657220616c72656164792076657269666965640000000000000000006044820152fd5b60405162461bcd60e51b815260048101839052602260248201527f4f6e6c792061646d696e2063616e20706572666f726d2074686973206163746960448201526137b760f11b6064820152608490fd5b34610313576020366003190112610313576004358060005260006020526113f760018060a01b0360406000205416331461266a565b80600052600060205261141560ff60046040600020015416156126c9565b8060005260006020526004604060002001600161ffff19825416179055604051904282527fc9516e01146aaac3b70dc905d80294d64ebb91df03e0e28eb59f1ffbdedf360e60203393a3005b5034610313576020366003190112610313576001600160a01b0380611484612397565b166000526001602052604060002090815416906114a3600182016121fd565b926114b0600283016121fd565b906114bd600384016121fd565b9260ff61151160048301549561150360066005860154950154966114f56040519b8c9b8c5260208c61010091829101528c01906122a3565b908a820360408c01526122a3565b9088820360608a01526122a3565b948181161515608088015260081c16151560a086015260c08501528301520390f35b3461031357606036600319011261031357602480356001600160401b038111610313576115649036906004016122e3565b6044356001600160401b038111610313576115839036906004016122e3565b9033600052600460205260ff6040600020541615611a6a57600435151580611a5c575b6115af906125ec565b60043560005260006020526115da60046040600020015460ff8160081c169081611a50575b5061262b565b33600052600160205260ff60046040600020015460081c1615611a155760009160005b600435600052600060205260056040600020018054821015611a0c57816116239161242b565b905460039190911b1c6001600160a01b031633146116495761164490612530565b6115fd565b5090915060015b1561198c575b600435600052600260205260406000209260405193611674856121c1565b6004358552602085013381526040860190428252606087019286845260808801958652805490600160401b82101561197757906116b691600182018155612514565b97909761196257518755600187019060018060a01b039051166001600160601b0360a01b825416179055516002860155519384516001600160401b03811161194d57611705600383015461216b565b95601f9687811161191a575b506020908783116001146118a75760049392916000918361189c575b50508160011b916000199060031b1c19161760038201555b019151938451916001600160401b0383116118885750611765835461216b565b81811161184e575b5060209082116001146117e857819293946000926117dd575b50508160011b916000199060031b1c19161790555b60405190602082527fd672b4efa76e07014ec31eff0c24b79e37f02483b288785af9f6de63c79c187b3392806117d86004359460208301906122a3565b0390a3005b015190508480611786565b601f198216908360005260206000209160005b8181106118365750958360019596971061181d575b505050811b01905561179b565b015160001960f88460031b161c19169055848080611810565b9192602060018192868b0151815501940192016117fb565b611879908460005260206000208380860160051c8201926020871061187f575b0160051c019061256c565b8561176d565b9250819261186e565b634e487b7160e01b60009081526041600452fd5b01519050888061172d565b906003840160005260206000209160005b601f1985168110611902575091839160019360049695601f198116106118e9575b505050811b016003820155611745565b015160001960f88460031b161c191690558880806118d9565b919260206001819286850151815501940192016118b8565b611947906003850160005260206000208980860160051c8201926020871061187f570160051c019061256c565b87611711565b82634e487b7160e01b60005260416004526000fd5b84634e487b7160e01b60005260006004526000fd5b85634e487b7160e01b60005260416004526000fd5b600435600052600060205260056040600020018054600160401b8110156119f7576119bc9160018201815561242b565b81549060031b9033821b9160018060a01b03901b191617905533600052600160205260056040600020016119f08154612530565b9055611656565b84634e487b7160e01b60005260416004526000fd5b50509091611650565b60405162461bcd60e51b8152602060048201526014818501527348656c706572206e6f7420617661696c61626c6560601b6044820152606490fd5b60ff91501615856115d4565b5060055460043511156115a6565b60405162461bcd60e51b815260206004820152602d818501527f4f6e6c792076657269666965642068656c706572732063616e20706572666f7260448201526c36903a3434b99030b1ba34b7b760991b6064820152608490fd5b503461031357611ad336612339565b8291939251156120715783511561202c57611aef600554612530565b928360055560405193602085018581106001600160401b03821117610cf0576040526000855260405192611b22846121a5565b338452602084019585875287604086015242606086015260006080860152600160a086015260c085015282840152600052600060205260406000209360018060a01b038351166001600160601b0360a01b865416178555518051906001600160401b038211610cf0578190611b9a600188015461216b565b601f8111611ff7575b50602090601f8311600114611f8557600092611f7a575b50508160011b916000199060031b1c19161760018501555b60408201518051906001600160401b038211610cf0578190611bf7600288015461216b565b601f8111611f45575b50602090601f8311600114611ed357600092611ec8575b50508160011b916000199060031b1c19161760028501555b60608201516003850155611c7760048501611c5c60808501511515829060ff801983541691151516179055565b60a0840151815461ff00191690151560081b61ff0016179055565b600584019360c0830151948551906001600160401b038211610cf057600160401b96878311610cf0576020908254848455808510611eab575b500190600052602060002060005b838110611e8e57505050506006019101518051906001600160401b038211610cf0578190611cec845461216b565b601f8111611e5c575b50602090601f8311600114611df657600092611deb575b50508160011b916000199060031b1c19161790555b336000526003602052604060002060055490805493841015610cf05783611d6e9160017f86c701ad5cbacfd7b3c2a4fb6e443330352c5e5bb811550c95a953ce29a21c879601815561242b565b819291549060031b91821b91600019901b19161790556005549260405160608152847fc3e6d8f692ffa6905425f3cf2247e701249c6fa8dd9ea1d6a3c6b2445674afc4611dcf611dc160608501866122a3565b8481036020860152866122a3565b924260408201528033940390a3610c1060405192839283612583565b015190503880611d0c565b6000858152602081209350601f198516905b818110611e445750908460019594939210611e2b575b505050811b019055611d21565b015160001960f88460031b161c19169055388080611e1e565b92936020600181928786015181550195019301611e08565b611e8890856000526020600020601f850160051c81019160208610610ce657601f0160051c019061256c565b38611cf5565b82516001600160a01b031681830155602090920191600101611cbe565b611ec290846000528584600020918201910161256c565b38611cb0565b015190503880611c17565b9250600287016000526020600020906000935b601f1984168510611f2a576001945083601f19811610611f11575b505050811b016002850155611c2f565b015160001960f88460031b161c19169055388080611f01565b81810151835560209485019460019093019290910190611ee6565b611f7490600289016000526020600020601f850160051c81019160208610610ce657601f0160051c019061256c565b38611c00565b015190503880611bba565b9250600187016000526020600020906000935b601f1984168510611fdc576001945083601f19811610611fc3575b505050811b016001850155611bd2565b015160001960f88460031b161c19169055388080611fb3565b81810151835560209485019460019093019290910190611f98565b61202690600189016000526020600020601f850160051c81019160208610610ce657601f0160051c019061256c565b38611ba3565b60405162461bcd60e51b815260206004820152601a60248201527f416c65727420747970652063616e6e6f7420626520656d7074790000000000006044820152606490fd5b60405162461bcd60e51b815260206004820152601860248201527f4c6f636174696f6e2063616e6e6f7420626520656d70747900000000000000006044820152606490fd5b5034610313576020366003190112610313576004356000526000602052604060002061092160018060a01b03825416916120f2600182016121fd565b60ff612100600284016121fd565b9261214360038201549461213561211e6006600486015495016121fd565b956040519a8b9a8b528060208c01528a01906122a3565b9088820360408a01526122a3565b9360608701528181161515608087015260081c16151560a085015283820360c08501526122a3565b90600182811c9216801561219b575b602083101461218557565b634e487b7160e01b600052602260045260246000fd5b91607f169161217a565b61010081019081106001600160401b03821117610cf057604052565b60a081019081106001600160401b03821117610cf057604052565b90601f801991011681019081106001600160401b03821117610cf057604052565b90604051918260008254926122118461216b565b908184526001948581169081600014612280575060011461223d575b505061223b925003836121dc565b565b9093915060005260209081600020936000915b81831061226857505061223b9350820101388061222d565b85548884018501529485019487945091830191612250565b91505061223b94506020925060ff191682840152151560051b820101388061222d565b919082519283825260005b8481106122cf575050826000602080949584010152601f8019910116010190565b6020818301810151848301820152016122ae565b81601f82011215610313578035906001600160401b038211610cf05760405192612317601f8401601f1916602001856121dc565b8284526020838301011161031357816000926020809301838601378301015290565b6060600319820112610313576001600160401b03916004358381116103135782612365916004016122e3565b92602435818111610313578361237d916004016122e3565b9260443591821161031357612394916004016122e3565b90565b600435906001600160a01b038216820361031357565b9060018060a01b03825116815260e0806124006123ee6123dc60208701516101008060208901528701906122a3565b604087015186820360408801526122a3565b606086015185820360608701526122a3565b9360808101511515608085015260a0810151151560a085015260c081015160c0850152015191015290565b80548210156124435760005260206000200190600090565b634e487b7160e01b600052603260045260246000fd5b919060018060a01b03908184511681526020916124986124868487015161010080878701528501906122a3565b604087015184820360408601526122a3565b6060860151606084015260808601511515608084015260a0860151151560a084015260c08601519383820360c08501528080865193848152019501926000905b8382106124fb57505050505060e0612394939401519060e08184039101526122a3565b84518116875295820195938201936001909101906124d8565b8054821015612443576000526005602060002091020190600090565b600019811461253f5760010190565b634e487b7160e01b600052601160045260246000fd5b6001600160401b038111610cf05760051b60200190565b818110612577575050565b6000815560010161256c565b909161259a612394936040845260408401906122a3565b9160208184039101526122a3565b156125af57565b60405162461bcd60e51b815260206004820152601560248201527412195b1c195c881b9bdd081c9959da5cdd195c9959605a1b6044820152606490fd5b156125f357565b60405162461bcd60e51b815260206004820152601060248201526f125b9d985b1a5908185b195c9d08125160821b6044820152606490fd5b1561263257565b60405162461bcd60e51b815260206004820152601060248201526f416c657274206e6f742061637469766560801b6044820152606490fd5b1561267157565b60405162461bcd60e51b815260206004820152602a60248201527f4f6e6c7920616c6572742063726561746f722063616e20706572666f726d20746044820152693434b99030b1ba34b7b760b11b6064820152608490fd5b156126d057565b60405162461bcd60e51b8152602060048201526016602482015275105b195c9d08185b1c9958591e481c995cdbdb1d995960521b6044820152606490fd5b6040519061271b826121a5565b606060e0836000815282602082015282604082015260008382015260006080820152600060a08201528260c08201520152565b9061275882612555565b61276560405191826121dc565b8281528092612776601f1991612555565b019060005b82811061278757505050565b60209061279261270e565b8282850101520161277b565b80518210156124435760209160051b010190565b604051906127bf826121a5565b600060e08382815260606020820152606060408201526060808201528260808201528260a08201528260c0820152015256fea2646970667358221220c7a077ebd31677ea980e8dcff874858df3c44505c41443870225767055303b4164736f6c63430008140033","opcodes":"PUSH1 0x80 DUP1 PUSH1 0x40 MSTORE CALLVALUE PUSH2 0x28 JUMPI PUSH1 0x7 DUP1 SLOAD PUSH1 0x1 PUSH1 0x1 PUSH1 0xA0 SHL SUB NOT AND CALLER OR SWAP1 SSTORE PUSH2 0x2827 SWAP1 DUP2 PUSH2 0x2E DUP3 CODECOPY RETURN JUMPDEST PUSH1 0x0 DUP1 REVERT INVALID PUSH1 0x80 PUSH1 0x40 MSTORE PUSH1 0x4 CALLDATASIZE LT ISZERO PUSH2 0x12 JUMPI PUSH1 0x0 DUP1 REVERT JUMPDEST PUSH1 0xE0 PUSH1 0x0 CALLDATALOAD DUP2 SHR DUP1 PUSH4 0x171D073A EQ PUSH2 0x20B6 JUMPI DUP1 PUSH4 0x1C07DC8B EQ PUSH2 0x1AC4 JUMPI DUP1 PUSH4 0x2472DE64 EQ PUSH2 0x1533 JUMPI DUP1 PUSH4 0x2A41E02E EQ PUSH2 0x1461 JUMPI DUP1 PUSH4 0x2E0E053F EQ PUSH2 0x13C2 JUMPI DUP1 PUSH4 0x4D8255BB EQ PUSH2 0x126F JUMPI DUP1 PUSH4 0x6545D8A9 EQ PUSH2 0x119A JUMPI DUP1 PUSH4 0x6DB5E0C6 EQ PUSH2 0x1141 JUMPI DUP1 PUSH4 0x70EBA3B1 EQ PUSH2 0x1102 JUMPI DUP1 PUSH4 0x75D39356 EQ PUSH2 0xFF3 JUMPI DUP1 PUSH4 0x85081886 EQ PUSH2 0xECD JUMPI DUP1 PUSH4 0x8F753E08 EQ PUSH2 0x9D4 JUMPI DUP1 PUSH4 0x95784219 EQ PUSH2 0x943 JUMPI DUP1 PUSH4 0xAB446491 EQ PUSH2 0x925 JUMPI DUP1 PUSH4 0xAD969D5B EQ PUSH2 0x883 JUMPI DUP1 PUSH4 0xCB9BA736 EQ PUSH2 0x7CF JUMPI DUP1 PUSH4 0xD669DC05 EQ PUSH2 0x658 JUMPI DUP1 PUSH4 0xDA086032 EQ PUSH2 0x5EB JUMPI DUP1 PUSH4 0xDA0FF2C6 EQ PUSH2 0x5CD JUMPI DUP1 PUSH4 0xEE118728 EQ PUSH2 0x341 JUMPI DUP1 PUSH4 0xF851A440 EQ PUSH2 0x318 JUMPI PUSH4 0xFA2956DC EQ PUSH2 0x10F JUMPI PUSH1 0x0 DUP1 REVERT JUMPDEST CALLVALUE PUSH2 0x313 JUMPI PUSH1 0x0 CALLDATASIZE PUSH1 0x3 NOT ADD SLT PUSH2 0x313 JUMPI PUSH1 0x5 SWAP1 DUP2 SLOAD PUSH2 0x12E DUP2 PUSH2 0x274E JUMP JUMPDEST SWAP2 PUSH1 0x0 SWAP2 PUSH1 0x1 JUMPDEST DUP2 DUP2 GT ISZERO PUSH2 0x1E3 JUMPI POP POP POP PUSH2 0x149 DUP2 PUSH2 0x274E JUMP JUMPDEST SWAP2 PUSH1 0x0 JUMPDEST DUP3 DUP2 LT PUSH2 0x1B4 JUMPI POP POP POP PUSH1 0x40 MLOAD SWAP1 PUSH1 0x20 DUP1 DUP4 ADD DUP2 DUP5 MSTORE DUP3 MLOAD DUP1 SWAP2 MSTORE DUP2 PUSH1 0x40 DUP3 DUP2 DUP8 ADD SWAP8 SHL DUP7 ADD ADD SWAP4 ADD SWAP2 PUSH1 0x0 SWAP6 JUMPDEST DUP3 DUP8 LT PUSH2 0x188 JUMPI DUP6 DUP6 SUB DUP7 RETURN JUMPDEST SWAP1 SWAP2 SWAP3 SWAP4 DUP3 DUP1 PUSH2 0x1A4 PUSH1 0x1 SWAP4 PUSH1 0x3F NOT DUP11 DUP3 SUB ADD DUP7 MSTORE DUP9 MLOAD PUSH2 0x2459 JUMP JUMPDEST SWAP7 ADD SWAP3 ADD SWAP7 ADD SWAP6 SWAP3 SWAP2 SWAP1 SWAP3 PUSH2 0x17B JUMP JUMPDEST DUP1 PUSH2 0x1C2 PUSH2 0x1DE SWAP3 DUP5 PUSH2 0x279E JUMP JUMPDEST MLOAD PUSH2 0x1CD DUP3 DUP8 PUSH2 0x279E JUMP JUMPDEST MSTORE PUSH2 0x1D8 DUP2 DUP7 PUSH2 0x279E JUMP JUMPDEST POP PUSH2 0x2530 JUMP JUMPDEST PUSH2 0x14D JUMP JUMPDEST DUP1 PUSH1 0x0 MSTORE PUSH1 0x20 PUSH1 0x0 DUP2 MSTORE PUSH1 0x40 PUSH1 0x0 KECCAK256 PUSH1 0x4 DUP2 ADD SLOAD SWAP2 PUSH1 0xFF SWAP3 DUP4 DUP2 PUSH1 0x8 SHR AND DUP1 DUP1 SWAP2 PUSH2 0x309 JUMPI JUMPDEST PUSH2 0x221 JUMPI JUMPDEST POP POP POP POP POP PUSH2 0x21C SWAP1 PUSH2 0x2530 JUMP JUMPDEST PUSH2 0x135 JUMP JUMPDEST PUSH1 0x40 SWAP9 SWAP6 SWAP9 MLOAD SWAP5 PUSH2 0x231 DUP7 PUSH2 0x21A5 JUMP JUMPDEST DUP5 SLOAD PUSH1 0x1 PUSH1 0x1 PUSH1 0xA0 SHL SUB SWAP1 DUP2 AND DUP8 MSTORE SWAP3 PUSH2 0x24D PUSH1 0x1 DUP8 ADD PUSH2 0x21FD JUMP JUMPDEST DUP6 DUP9 ADD MSTORE PUSH2 0x25D PUSH1 0x2 DUP8 ADD PUSH2 0x21FD JUMP JUMPDEST PUSH1 0x40 DUP9 ADD MSTORE PUSH1 0x3 DUP7 ADD SLOAD PUSH1 0x60 DUP9 ADD MSTORE AND ISZERO ISZERO PUSH1 0x80 DUP7 ADD MSTORE ISZERO ISZERO PUSH1 0xA0 DUP6 ADD MSTORE DUP10 DUP4 ADD SWAP1 PUSH1 0x40 MLOAD SWAP1 DUP2 SWAP4 DUP1 DUP5 SLOAD SWAP4 DUP5 DUP2 MSTORE ADD SWAP4 PUSH1 0x0 MSTORE DUP1 PUSH1 0x0 KECCAK256 SWAP3 PUSH1 0x0 SWAP2 JUMPDEST DUP2 DUP4 LT PUSH2 0x2F0 JUMPI POP POP POP POP POP PUSH1 0x6 PUSH2 0x21C SWAP6 SWAP4 DUP4 PUSH2 0x2C1 PUSH2 0x2E5 SWAP8 SWAP6 PUSH2 0x2CC SWAP6 SUB DUP3 PUSH2 0x21DC JUMP JUMPDEST PUSH1 0xC0 DUP6 ADD MSTORE ADD PUSH2 0x21FD JUMP JUMPDEST DUP7 DUP3 ADD MSTORE PUSH2 0x2DA DUP3 DUP10 PUSH2 0x279E JUMP JUMPDEST MSTORE PUSH2 0x1D8 DUP2 DUP9 PUSH2 0x279E JUMP JUMPDEST SWAP4 SWAP1 CODESIZE DUP1 DUP1 DUP1 PUSH2 0x20E JUMP JUMPDEST DUP5 SLOAD DUP5 AND DUP7 MSTORE SWAP5 DUP6 ADD SWAP5 PUSH1 0x1 SWAP5 DUP6 ADD SWAP5 SWAP1 SWAP3 ADD SWAP2 PUSH2 0x29A JUMP JUMPDEST POP DUP5 DUP3 AND ISZERO PUSH2 0x209 JUMP JUMPDEST PUSH1 0x0 DUP1 REVERT JUMPDEST CALLVALUE PUSH2 0x313 JUMPI PUSH1 0x0 CALLDATASIZE PUSH1 0x3 NOT ADD SLT PUSH2 0x313 JUMPI PUSH1 0x7 SLOAD PUSH1 0x40 MLOAD PUSH1 0x1 PUSH1 0x1 PUSH1 0xA0 SHL SUB SWAP1 SWAP2 AND DUP2 MSTORE PUSH1 0x20 SWAP1 RETURN JUMPDEST CALLVALUE PUSH2 0x313 JUMPI PUSH1 0x60 CALLDATASIZE PUSH1 0x3 NOT ADD SLT PUSH2 0x313 JUMPI PUSH1 0x1 PUSH1 0x1 PUSH1 0xA0 SHL SUB PUSH1 0x24 DUP1 CALLDATALOAD DUP3 DUP2 AND SWAP3 SWAP1 PUSH1 0x4 CALLDATALOAD SWAP1 DUP5 SWAP1 SUB PUSH2 0x313 JUMPI PUSH1 0x44 CALLDATALOAD SWAP4 PUSH1 0xFF DUP6 AND DUP1 SWAP6 SUB PUSH2 0x313 JUMPI DUP2 PUSH1 0x0 MSTORE PUSH1 0x20 SWAP2 PUSH1 0x0 DUP4 MSTORE PUSH2 0x39A DUP5 PUSH1 0x40 PUSH1 0x0 KECCAK256 SLOAD AND CALLER EQ PUSH2 0x266A JUMP JUMPDEST PUSH1 0x1 SWAP4 DUP5 DUP8 LT ISZERO DUP1 PUSH2 0x5C2 JUMPI JUMPDEST ISZERO PUSH2 0x57E JUMPI DUP2 PUSH1 0x0 MSTORE PUSH1 0x0 DUP5 MSTORE PUSH1 0xFF PUSH1 0x4 PUSH1 0x40 PUSH1 0x0 KECCAK256 ADD SLOAD AND ISZERO PUSH2 0x53A JUMPI DUP5 SWAP1 PUSH1 0x0 SWAP3 DUP3 PUSH1 0x0 SWAP1 JUMPDEST PUSH2 0x4E4 JUMPI JUMPDEST POP POP POP POP ISZERO PUSH2 0x495 JUMPI DUP1 PUSH1 0x0 MSTORE DUP3 DUP3 MSTORE PUSH1 0x40 PUSH1 0x0 KECCAK256 SWAP4 PUSH1 0x5 PUSH1 0x6 DUP7 ADD SLOAD SWAP6 ADD SLOAD SWAP6 PUSH1 0x0 NOT DUP8 ADD SWAP6 DUP8 DUP8 GT PUSH2 0x480 JUMPI DUP7 DUP2 MUL SWAP7 DUP2 DUP9 DIV EQ SWAP1 ISZERO OR ISZERO PUSH2 0x46B JUMPI PUSH1 0x64 MUL PUSH1 0xFF DUP2 AND SWAP1 DUP2 SUB PUSH2 0x46B JUMPI DUP6 ADD DUP1 SWAP6 GT PUSH2 0x457 JUMPI DUP6 ISZERO PUSH2 0x443 JUMPI POP PUSH1 0x0 MSTORE MSTORE DIV PUSH1 0x6 PUSH1 0x40 PUSH1 0x0 KECCAK256 ADD SSTORE PUSH1 0x0 DUP1 RETURN JUMPDEST PUSH4 0x4E487B71 PUSH1 0xE0 SHL PUSH1 0x0 SWAP1 DUP2 MSTORE PUSH1 0x12 PUSH1 0x4 MSTORE REVERT JUMPDEST PUSH4 0x4E487B71 PUSH1 0xE0 SHL PUSH1 0x0 SWAP1 DUP2 MSTORE PUSH1 0x11 PUSH1 0x4 MSTORE REVERT JUMPDEST POP PUSH4 0x4E487B71 PUSH1 0xE0 SHL PUSH1 0x0 SWAP1 DUP2 MSTORE PUSH1 0x11 PUSH1 0x4 MSTORE REVERT JUMPDEST DUP3 PUSH4 0x4E487B71 PUSH1 0xE0 SHL PUSH1 0x0 MSTORE PUSH1 0x11 PUSH1 0x4 MSTORE PUSH1 0x0 REVERT JUMPDEST PUSH1 0x84 DUP3 DUP6 PUSH1 0x40 MLOAD SWAP2 PUSH3 0x461BCD PUSH1 0xE5 SHL DUP4 MSTORE PUSH1 0x4 DUP4 ADD MSTORE DUP1 DUP3 ADD MSTORE PUSH32 0x48656C70657220646964206E6F7420726573706F6E6420746F20746869732061 PUSH1 0x44 DUP3 ADD MSTORE PUSH4 0x1B195C9D PUSH1 0xE2 SHL PUSH1 0x64 DUP3 ADD MSTORE REVERT JUMPDEST DUP2 PUSH1 0x0 MSTORE PUSH1 0x0 DUP8 MSTORE DUP6 PUSH1 0x5 PUSH1 0x40 PUSH1 0x0 KECCAK256 ADD DUP1 SLOAD DUP4 LT ISZERO PUSH2 0x533 JUMPI PUSH2 0x509 DUP4 DUP7 SWAP3 PUSH2 0x242B JUMP JUMPDEST SWAP1 SLOAD SWAP1 PUSH1 0x3 SHL SHR AND EQ PUSH2 0x525 JUMPI PUSH2 0x51F SWAP1 PUSH2 0x2530 JUMP JUMPDEST DUP4 PUSH2 0x3CF JUMP JUMPDEST POP POP POP SWAP1 POP DUP4 DUP8 DUP1 DUP1 PUSH2 0x3D4 JUMP JUMPDEST POP POP PUSH2 0x3D4 JUMP JUMPDEST PUSH1 0x40 MLOAD PUSH3 0x461BCD PUSH1 0xE5 SHL DUP2 MSTORE PUSH1 0x4 DUP2 ADD DUP6 SWAP1 MSTORE PUSH1 0x1C DUP2 DUP9 ADD MSTORE PUSH32 0x416C657274206D757374206265207265736F6C76656420666972737400000000 PUSH1 0x44 DUP3 ADD MSTORE PUSH1 0x64 SWAP1 REVERT JUMPDEST PUSH1 0x40 MLOAD PUSH3 0x461BCD PUSH1 0xE5 SHL DUP2 MSTORE PUSH1 0x4 DUP2 ADD DUP6 SWAP1 MSTORE PUSH1 0x1E DUP2 DUP9 ADD MSTORE PUSH32 0x526174696E67206D757374206265206265747765656E203120616E6420350000 PUSH1 0x44 DUP3 ADD MSTORE PUSH1 0x64 SWAP1 REVERT JUMPDEST POP PUSH1 0x5 DUP8 GT ISZERO PUSH2 0x3A7 JUMP JUMPDEST CALLVALUE PUSH2 0x313 JUMPI PUSH1 0x0 CALLDATASIZE PUSH1 0x3 NOT ADD SLT PUSH2 0x313 JUMPI PUSH1 0x20 PUSH1 0x6 SLOAD PUSH1 0x40 MLOAD SWAP1 DUP2 MSTORE RETURN JUMPDEST CALLVALUE PUSH2 0x313 JUMPI PUSH1 0x20 CALLDATASIZE PUSH1 0x3 NOT ADD SLT PUSH2 0x313 JUMPI PUSH1 0x4 CALLDATALOAD DUP1 ISZERO ISZERO DUP2 SUB PUSH2 0x313 JUMPI PUSH2 0x656 SWAP1 CALLER PUSH1 0x0 MSTORE PUSH1 0x1 PUSH1 0x20 MSTORE PUSH2 0x62D PUSH1 0x1 DUP1 PUSH1 0xA0 SHL SUB PUSH1 0x40 PUSH1 0x0 KECCAK256 SLOAD AND ISZERO ISZERO PUSH2 0x25A8 JUMP JUMPDEST CALLER PUSH1 0x0 MSTORE PUSH1 0x1 PUSH1 0x20 MSTORE PUSH1 0x4 PUSH1 0x40 PUSH1 0x0 KECCAK256 ADD SWAP1 PUSH2 0xFF00 DUP3 SLOAD SWAP2 ISZERO ISZERO PUSH1 0x8 SHL AND SWAP1 PUSH2 0xFF00 NOT AND OR SWAP1 SSTORE JUMP JUMPDEST STOP JUMPDEST CALLVALUE PUSH2 0x313 JUMPI PUSH1 0x20 DUP1 PUSH1 0x3 NOT CALLDATASIZE ADD SLT PUSH2 0x313 JUMPI PUSH1 0x4 CALLDATALOAD DUP1 ISZERO ISZERO DUP1 PUSH2 0x7C3 JUMPI JUMPDEST PUSH2 0x67F SWAP1 PUSH2 0x25EC JUMP JUMPDEST PUSH1 0x0 MSTORE PUSH1 0x2 SWAP1 DUP2 DUP2 MSTORE PUSH1 0x40 PUSH1 0x0 KECCAK256 DUP1 SLOAD PUSH2 0x698 DUP2 PUSH2 0x2555 JUMP JUMPDEST SWAP4 PUSH2 0x6A6 PUSH1 0x40 MLOAD SWAP6 DUP7 PUSH2 0x21DC JUMP JUMPDEST DUP2 DUP6 MSTORE PUSH1 0x0 SWAP3 DUP4 MSTORE DUP4 DUP4 KECCAK256 DUP5 DUP7 ADD SWAP4 SWAP2 DUP5 JUMPDEST DUP5 DUP5 LT PUSH2 0x75F JUMPI PUSH1 0x40 DUP1 MLOAD DUP9 DUP2 MSTORE DUP10 MLOAD DUP2 DUP11 ADD DUP2 SWAP1 MSTORE PUSH1 0x0 SWAP3 PUSH1 0x5 DUP3 SWAP1 SHL DUP4 ADD DUP2 ADD SWAP2 DUP11 SWAP2 DUP13 SWAP1 DUP6 ADD JUMPDEST DUP3 DUP8 LT PUSH2 0x6EF JUMPI DUP6 DUP6 SUB DUP7 RETURN JUMPDEST SWAP1 SWAP2 SWAP3 SWAP4 DUP3 DUP1 PUSH2 0x74F PUSH1 0x1 SWAP4 PUSH1 0x3F NOT DUP11 DUP3 SUB ADD DUP7 MSTORE DUP9 MLOAD DUP1 MLOAD DUP3 MSTORE DUP6 DUP1 PUSH1 0xA0 SHL SUB DUP5 DUP3 ADD MLOAD AND DUP5 DUP4 ADD MSTORE PUSH1 0x40 DUP2 ADD MLOAD PUSH1 0x40 DUP4 ADD MSTORE PUSH2 0x73C PUSH1 0x60 DUP1 DUP4 ADD MLOAD SWAP1 PUSH1 0xA0 DUP1 SWAP2 DUP7 ADD MSTORE DUP5 ADD SWAP1 PUSH2 0x22A3 JUMP JUMPDEST SWAP2 PUSH1 0x80 DUP1 SWAP3 ADD MLOAD SWAP2 DUP2 DUP5 SUB SWAP2 ADD MSTORE PUSH2 0x22A3 JUMP JUMPDEST SWAP7 ADD SWAP3 ADD SWAP7 ADD SWAP6 SWAP3 SWAP2 SWAP1 SWAP3 PUSH2 0x6E2 JUMP JUMPDEST PUSH1 0x5 DUP8 PUSH1 0x1 SWAP3 PUSH1 0x40 SWAP11 SWAP10 SWAP11 MLOAD PUSH2 0x774 DUP2 PUSH2 0x21C1 JUMP JUMPDEST DUP7 SLOAD DUP2 MSTORE DUP5 DUP1 PUSH1 0xA0 SHL SUB DUP6 DUP9 ADD SLOAD AND DUP4 DUP3 ADD MSTORE DUP6 DUP8 ADD SLOAD PUSH1 0x40 DUP3 ADD MSTORE PUSH2 0x79C PUSH1 0x3 DUP9 ADD PUSH2 0x21FD JUMP JUMPDEST PUSH1 0x60 DUP3 ADD MSTORE PUSH2 0x7AD PUSH1 0x4 DUP9 ADD PUSH2 0x21FD JUMP JUMPDEST PUSH1 0x80 DUP3 ADD MSTORE DUP2 MSTORE ADD SWAP4 ADD SWAP4 ADD SWAP3 SWAP2 SWAP7 SWAP6 SWAP7 PUSH2 0x6B8 JUMP JUMPDEST POP PUSH1 0x5 SLOAD DUP2 GT ISZERO PUSH2 0x676 JUMP JUMPDEST CALLVALUE PUSH2 0x313 JUMPI PUSH1 0x20 DUP1 PUSH1 0x3 NOT CALLDATASIZE ADD SLT PUSH2 0x313 JUMPI PUSH1 0x1 PUSH1 0x1 PUSH1 0xA0 SHL SUB PUSH2 0x7F1 PUSH2 0x2397 JUMP JUMPDEST AND PUSH1 0x0 MSTORE PUSH1 0x3 DUP2 MSTORE PUSH1 0x40 PUSH1 0x0 KECCAK256 PUSH1 0x40 MLOAD SWAP1 DUP2 DUP4 DUP3 SLOAD SWAP2 DUP3 DUP2 MSTORE ADD SWAP1 DUP2 SWAP3 PUSH1 0x0 MSTORE DUP5 PUSH1 0x0 KECCAK256 SWAP1 PUSH1 0x0 JUMPDEST DUP7 DUP3 DUP3 LT PUSH2 0x86F JUMPI DUP7 DUP7 PUSH2 0x82F DUP3 DUP9 SUB DUP4 PUSH2 0x21DC JUMP JUMPDEST PUSH1 0x40 MLOAD SWAP3 DUP4 SWAP3 DUP2 DUP5 ADD SWAP1 DUP3 DUP6 MSTORE MLOAD DUP1 SWAP2 MSTORE PUSH1 0x40 DUP5 ADD SWAP3 SWAP2 PUSH1 0x0 JUMPDEST DUP3 DUP2 LT PUSH2 0x858 JUMPI POP POP POP POP SUB SWAP1 RETURN JUMPDEST DUP4 MLOAD DUP6 MSTORE DUP7 SWAP6 POP SWAP4 DUP2 ADD SWAP4 SWAP3 DUP2 ADD SWAP3 PUSH1 0x1 ADD PUSH2 0x849 JUMP JUMPDEST DUP4 SLOAD DUP6 MSTORE SWAP1 SWAP4 ADD SWAP3 PUSH1 0x1 SWAP3 DUP4 ADD SWAP3 ADD PUSH2 0x819 JUMP JUMPDEST CALLVALUE PUSH2 0x313 JUMPI PUSH1 0x40 CALLDATASIZE PUSH1 0x3 NOT ADD SLT PUSH2 0x313 JUMPI PUSH1 0x24 CALLDATALOAD PUSH1 0x4 CALLDATALOAD PUSH1 0x0 MSTORE PUSH1 0x2 PUSH1 0x20 MSTORE PUSH1 0x40 PUSH1 0x0 KECCAK256 SWAP1 DUP2 SLOAD DUP2 LT ISZERO PUSH2 0x313 JUMPI PUSH2 0x8BA SWAP2 PUSH2 0x2514 JUMP JUMPDEST POP DUP1 SLOAD PUSH2 0x921 PUSH1 0x1 DUP1 PUSH1 0xA0 SHL SUB PUSH1 0x1 DUP5 ADD SLOAD AND SWAP3 PUSH2 0x913 PUSH1 0x2 DUP3 ADD SLOAD SWAP2 PUSH2 0x8EF PUSH1 0x4 PUSH2 0x8E8 PUSH1 0x3 DUP5 ADD PUSH2 0x21FD JUMP JUMPDEST SWAP3 ADD PUSH2 0x21FD JUMP JUMPDEST SWAP3 PUSH1 0x40 MLOAD SWAP7 DUP8 SWAP7 DUP8 MSTORE PUSH1 0x20 DUP8 ADD MSTORE PUSH1 0x40 DUP7 ADD MSTORE PUSH1 0xA0 PUSH1 0x60 DUP7 ADD MSTORE PUSH1 0xA0 DUP6 ADD SWAP1 PUSH2 0x22A3 JUMP JUMPDEST SWAP1 DUP4 DUP3 SUB PUSH1 0x80 DUP6 ADD MSTORE PUSH2 0x22A3 JUMP JUMPDEST SUB SWAP1 RETURN JUMPDEST CALLVALUE PUSH2 0x313 JUMPI PUSH1 0x0 CALLDATASIZE PUSH1 0x3 NOT ADD SLT PUSH2 0x313 JUMPI PUSH1 0x20 PUSH1 0x5 SLOAD PUSH1 0x40 MLOAD SWAP1 DUP2 MSTORE RETURN JUMPDEST CALLVALUE PUSH2 0x313 JUMPI PUSH1 0x20 CALLDATASIZE PUSH1 0x3 NOT ADD SLT PUSH2 0x313 JUMPI PUSH1 0x4 CALLDATALOAD DUP1 PUSH1 0x0 MSTORE PUSH1 0x0 PUSH1 0x20 MSTORE PUSH2 0x978 PUSH1 0x1 DUP1 PUSH1 0xA0 SHL SUB PUSH1 0x40 PUSH1 0x0 KECCAK256 SLOAD AND CALLER EQ PUSH2 0x266A JUMP JUMPDEST DUP1 PUSH1 0x0 MSTORE PUSH1 0x0 PUSH1 0x20 MSTORE PUSH2 0x998 PUSH1 0xFF PUSH1 0x4 PUSH1 0x40 PUSH1 0x0 KECCAK256 ADD SLOAD PUSH1 0x8 SHR AND PUSH2 0x262B JUMP JUMPDEST DUP1 PUSH1 0x0 MSTORE PUSH1 0x0 PUSH1 0x20 MSTORE PUSH2 0x9B6 PUSH1 0xFF PUSH1 0x4 PUSH1 0x40 PUSH1 0x0 KECCAK256 ADD SLOAD AND ISZERO PUSH2 0x26C9 JUMP JUMPDEST PUSH1 0x0 MSTORE PUSH1 0x0 PUSH1 0x20 MSTORE PUSH1 0x4 PUSH1 0x40 PUSH1 0x0 KECCAK256 ADD PUSH2 0xFF00 NOT DUP2 SLOAD AND SWAP1 SSTORE PUSH1 0x0 DUP1 RETURN JUMPDEST POP CALLVALUE PUSH2 0x313 JUMPI PUSH2 0x9E3 CALLDATASIZE PUSH2 0x2339 JUMP JUMPDEST SWAP1 SWAP2 SWAP3 DUP4 MLOAD ISZERO PUSH2 0xE91 JUMPI CALLER PUSH1 0x0 SWAP1 DUP2 MSTORE PUSH1 0x1 PUSH1 0x20 MSTORE PUSH1 0x40 SWAP1 KECCAK256 SLOAD PUSH1 0x1 PUSH1 0x1 PUSH1 0xA0 SHL SUB SWAP3 SWAP1 DUP4 AND PUSH2 0xE4C JUMPI PUSH1 0x40 MLOAD SWAP1 PUSH2 0xA1A DUP3 PUSH2 0x21A5 JUMP JUMPDEST CALLER DUP3 MSTORE PUSH1 0x20 DUP3 ADD SWAP1 DUP7 DUP3 MSTORE DUP6 PUSH1 0x40 DUP5 ADD MSTORE PUSH1 0x60 DUP4 ADD MSTORE PUSH1 0x0 PUSH1 0x80 DUP4 ADD MSTORE PUSH1 0x1 PUSH1 0xA0 DUP4 ADD MSTORE PUSH1 0x0 PUSH1 0xC0 DUP4 ADD MSTORE PUSH2 0x1F4 DUP4 DUP4 ADD MSTORE CALLER PUSH1 0x0 MSTORE PUSH1 0x1 PUSH1 0x20 MSTORE PUSH1 0x40 PUSH1 0x0 KECCAK256 SWAP4 DUP3 MLOAD AND PUSH1 0x1 PUSH1 0x1 PUSH1 0x60 SHL SUB PUSH1 0xA0 SHL DUP6 SLOAD AND OR DUP5 SSTORE MLOAD DUP1 MLOAD PUSH1 0x1 PUSH1 0x1 PUSH1 0x40 SHL SUB DUP2 GT PUSH2 0xCF0 JUMPI DUP1 PUSH1 0x1 DUP7 ADD SWAP3 PUSH2 0xA90 DUP5 SLOAD PUSH2 0x216B JUMP JUMPDEST PUSH1 0x1F DUP2 GT PUSH2 0xE1A JUMPI JUMPDEST POP PUSH1 0x20 SWAP1 PUSH1 0x1F DUP4 GT PUSH1 0x1 EQ PUSH2 0xDB4 JUMPI PUSH1 0x0 SWAP3 PUSH2 0xDA9 JUMPI JUMPDEST POP POP DUP2 PUSH1 0x1 SHL SWAP2 PUSH1 0x0 NOT SWAP1 PUSH1 0x3 SHL SHR NOT AND OR SWAP1 SSTORE JUMPDEST PUSH1 0x40 DUP2 ADD MLOAD DUP1 MLOAD PUSH1 0x1 PUSH1 0x1 PUSH1 0x40 SHL SUB DUP2 GT PUSH2 0xCF0 JUMPI DUP1 PUSH1 0x2 DUP7 ADD SWAP3 PUSH2 0xAEA DUP5 SLOAD PUSH2 0x216B JUMP JUMPDEST PUSH1 0x1F DUP2 GT PUSH2 0xD77 JUMPI JUMPDEST POP PUSH1 0x20 SWAP1 PUSH1 0x1F DUP4 GT PUSH1 0x1 EQ PUSH2 0xD11 JUMPI PUSH1 0x0 SWAP3 PUSH2 0xD06 JUMPI JUMPDEST POP POP DUP2 PUSH1 0x1 SHL SWAP2 PUSH1 0x0 NOT SWAP1 PUSH1 0x3 SHL SHR NOT AND OR SWAP1 SSTORE JUMPDEST PUSH1 0x3 DUP4 ADD PUSH1 0x60 DUP3 ADD MLOAD DUP1 MLOAD SWAP1 PUSH1 0x1 PUSH1 0x1 PUSH1 0x40 SHL SUB DUP3 GT PUSH2 0xCF0 JUMPI PUSH2 0xB43 DUP4 SLOAD PUSH2 0x216B JUMP JUMPDEST PUSH1 0x1F DUP2 GT PUSH2 0xCB3 JUMPI JUMPDEST POP PUSH1 0x20 SWAP1 PUSH1 0x1F DUP4 GT PUSH1 0x1 EQ PUSH2 0xC20 JUMPI SWAP3 DUP3 PUSH32 0x61370EA3474ABA215F02325F9483ED03C18B116CC883EE9A4AC9E60AE98C052F SWAP9 SWAP7 SWAP4 PUSH2 0xC10 SWAP9 SWAP7 SWAP4 PUSH1 0x6 SWAP7 PUSH1 0x0 SWAP3 PUSH2 0xC15 JUMPI JUMPDEST POP POP DUP2 PUSH1 0x1 SHL SWAP2 PUSH1 0x0 NOT SWAP1 PUSH1 0x3 SHL SHR NOT AND OR SWAP1 SSTORE JUMPDEST PUSH2 0xBE5 PUSH1 0x4 DUP6 ADD PUSH2 0xBCA PUSH1 0x80 DUP5 ADD MLOAD ISZERO ISZERO DUP3 SWAP1 PUSH1 0xFF DUP1 NOT DUP4 SLOAD AND SWAP2 ISZERO ISZERO AND OR SWAP1 SSTORE JUMP JUMPDEST PUSH1 0xA0 DUP4 ADD MLOAD DUP2 SLOAD PUSH2 0xFF00 NOT AND SWAP1 ISZERO ISZERO PUSH1 0x8 SHL PUSH2 0xFF00 AND OR SWAP1 SSTORE JUMP JUMPDEST PUSH1 0xC0 DUP2 ADD MLOAD PUSH1 0x5 DUP6 ADD SSTORE ADD MLOAD SWAP2 ADD SSTORE PUSH2 0xBFF PUSH1 0x6 SLOAD PUSH2 0x2530 JUMP JUMPDEST PUSH1 0x6 SSTORE PUSH1 0x40 MLOAD SWAP2 DUP3 SWAP2 CALLER SWAP6 DUP4 PUSH2 0x2583 JUMP JUMPDEST SUB SWAP1 LOG2 STOP JUMPDEST ADD MLOAD SWAP1 POP CODESIZE DUP1 PUSH2 0xB92 JUMP JUMPDEST SWAP1 PUSH1 0x1F NOT DUP4 AND SWAP2 DUP5 PUSH1 0x0 MSTORE PUSH1 0x20 PUSH1 0x0 KECCAK256 SWAP3 PUSH1 0x0 JUMPDEST DUP2 DUP2 LT PUSH2 0xC9B JUMPI POP SWAP4 PUSH2 0xC10 SWAP9 SWAP7 SWAP4 PUSH1 0x6 SWAP7 SWAP4 PUSH1 0x1 SWAP4 DUP4 PUSH32 0x61370EA3474ABA215F02325F9483ED03C18B116CC883EE9A4AC9E60AE98C052F SWAP14 SWAP12 SWAP9 LT PUSH2 0xC82 JUMPI JUMPDEST POP POP POP DUP2 SHL ADD SWAP1 SSTORE PUSH2 0xBA7 JUMP JUMPDEST ADD MLOAD PUSH1 0x0 NOT PUSH1 0xF8 DUP5 PUSH1 0x3 SHL AND SHR NOT AND SWAP1 SSTORE CODESIZE DUP1 DUP1 PUSH2 0xC75 JUMP JUMPDEST SWAP3 SWAP4 PUSH1 0x20 PUSH1 0x1 DUP2 SWAP3 DUP8 DUP7 ADD MLOAD DUP2 SSTORE ADD SWAP6 ADD SWAP4 ADD PUSH2 0xC34 JUMP JUMPDEST PUSH2 0xCE0 SWAP1 DUP5 PUSH1 0x0 MSTORE PUSH1 0x20 PUSH1 0x0 KECCAK256 PUSH1 0x1F DUP6 ADD PUSH1 0x5 SHR DUP2 ADD SWAP2 PUSH1 0x20 DUP7 LT PUSH2 0xCE6 JUMPI JUMPDEST PUSH1 0x1F ADD PUSH1 0x5 SHR ADD SWAP1 PUSH2 0x256C JUMP JUMPDEST CODESIZE PUSH2 0xB4C JUMP JUMPDEST SWAP1 SWAP2 POP DUP2 SWAP1 PUSH2 0xCD3 JUMP JUMPDEST PUSH4 0x4E487B71 PUSH1 0xE0 SHL PUSH1 0x0 MSTORE PUSH1 0x41 PUSH1 0x4 MSTORE PUSH1 0x24 PUSH1 0x0 REVERT JUMPDEST ADD MLOAD SWAP1 POP CODESIZE DUP1 PUSH2 0xB0A JUMP JUMPDEST PUSH1 0x0 DUP6 DUP2 MSTORE PUSH1 0x20 DUP2 KECCAK256 SWAP4 POP PUSH1 0x1F NOT DUP6 AND SWAP1 JUMPDEST DUP2 DUP2 LT PUSH2 0xD5F JUMPI POP SWAP1 DUP5 PUSH1 0x1 SWAP6 SWAP5 SWAP4 SWAP3 LT PUSH2 0xD46 JUMPI JUMPDEST POP POP POP DUP2 SHL ADD SWAP1 SSTORE PUSH2 0xB1F JUMP JUMPDEST ADD MLOAD PUSH1 0x0 NOT PUSH1 0xF8 DUP5 PUSH1 0x3 SHL AND SHR NOT AND SWAP1 SSTORE CODESIZE DUP1 DUP1 PUSH2 0xD39 JUMP JUMPDEST SWAP3 SWAP4 PUSH1 0x20 PUSH1 0x1 DUP2 SWAP3 DUP8 DUP7 ADD MLOAD DUP2 SSTORE ADD SWAP6 ADD SWAP4 ADD PUSH2 0xD23 JUMP JUMPDEST PUSH2 0xDA3 SWAP1 DUP6 PUSH1 0x0 MSTORE PUSH1 0x20 PUSH1 0x0 KECCAK256 PUSH1 0x1F DUP6 ADD PUSH1 0x5 SHR DUP2 ADD SWAP2 PUSH1 0x20 DUP7 LT PUSH2 0xCE6 JUMPI PUSH1 0x1F ADD PUSH1 0x5 SHR ADD SWAP1 PUSH2 0x256C JUMP JUMPDEST CODESIZE PUSH2 0xAF3 JUMP JUMPDEST ADD MLOAD SWAP1 POP CODESIZE DUP1 PUSH2 0xAB0 JUMP JUMPDEST PUSH1 0x0 DUP6 DUP2 MSTORE PUSH1 0x20 DUP2 KECCAK256 SWAP4 POP PUSH1 0x1F NOT DUP6 AND SWAP1 JUMPDEST DUP2 DUP2 LT PUSH2 0xE02 JUMPI POP SWAP1 DUP5 PUSH1 0x1 SWAP6 SWAP5 SWAP4 SWAP3 LT PUSH2 0xDE9 JUMPI JUMPDEST POP POP POP DUP2 SHL ADD SWAP1 SSTORE PUSH2 0xAC5 JUMP JUMPDEST ADD MLOAD PUSH1 0x0 NOT PUSH1 0xF8 DUP5 PUSH1 0x3 SHL AND SHR NOT AND SWAP1 SSTORE CODESIZE DUP1 DUP1 PUSH2 0xDDC JUMP JUMPDEST SWAP3 SWAP4 PUSH1 0x20 PUSH1 0x1 DUP2 SWAP3 DUP8 DUP7 ADD MLOAD DUP2 SSTORE ADD SWAP6 ADD SWAP4 ADD PUSH2 0xDC6 JUMP JUMPDEST PUSH2 0xE46 SWAP1 DUP6 PUSH1 0x0 MSTORE PUSH1 0x20 PUSH1 0x0 KECCAK256 PUSH1 0x1F DUP6 ADD PUSH1 0x5 SHR DUP2 ADD SWAP2 PUSH1 0x20 DUP7 LT PUSH2 0xCE6 JUMPI PUSH1 0x1F ADD PUSH1 0x5 SHR ADD SWAP1 PUSH2 0x256C JUMP JUMPDEST CODESIZE PUSH2 0xA99 JUMP JUMPDEST PUSH1 0x40 MLOAD PUSH3 0x461BCD PUSH1 0xE5 SHL DUP2 MSTORE PUSH1 0x20 PUSH1 0x4 DUP3 ADD MSTORE PUSH1 0x19 PUSH1 0x24 DUP3 ADD MSTORE PUSH32 0x48656C70657220616C7265616479207265676973746572656400000000000000 PUSH1 0x44 DUP3 ADD MSTORE PUSH1 0x64 SWAP1 REVERT JUMPDEST PUSH1 0x40 MLOAD PUSH3 0x461BCD PUSH1 0xE5 SHL DUP2 MSTORE PUSH1 0x20 PUSH1 0x4 DUP3 ADD MSTORE PUSH1 0x14 PUSH1 0x24 DUP3 ADD MSTORE PUSH20 0x4E616D652063616E6E6F7420626520656D707479 PUSH1 0x60 SHL PUSH1 0x44 DUP3 ADD MSTORE PUSH1 0x64 SWAP1 REVERT JUMPDEST POP CALLVALUE PUSH2 0x313 JUMPI PUSH1 0x20 DUP1 PUSH1 0x3 NOT CALLDATASIZE ADD SLT PUSH2 0x313 JUMPI PUSH1 0x4 CALLDATALOAD PUSH2 0xEEB PUSH2 0x270E JUMP JUMPDEST POP DUP1 ISZERO ISZERO DUP1 PUSH2 0xFE7 JUMPI JUMPDEST PUSH2 0xEFE SWAP1 PUSH2 0x25EC JUMP JUMPDEST PUSH1 0x0 MSTORE PUSH1 0x0 DUP2 MSTORE PUSH1 0x40 PUSH1 0x0 KECCAK256 SWAP2 PUSH1 0x40 MLOAD SWAP3 PUSH2 0xF18 DUP5 PUSH2 0x21A5 JUMP JUMPDEST DUP1 SLOAD PUSH1 0x1 PUSH1 0x1 PUSH1 0xA0 SHL SUB SWAP1 DUP2 AND DUP6 MSTORE PUSH1 0x1 SWAP1 PUSH2 0xF35 DUP4 DUP4 ADD PUSH2 0x21FD JUMP JUMPDEST DUP6 DUP8 ADD MSTORE PUSH2 0xF45 PUSH1 0x2 DUP5 ADD PUSH2 0x21FD JUMP JUMPDEST PUSH1 0x40 DUP8 ADD MSTORE PUSH1 0x3 DUP4 ADD SLOAD PUSH1 0x60 DUP8 ADD MSTORE PUSH1 0xFF PUSH1 0x4 DUP5 ADD SLOAD DUP2 DUP2 AND ISZERO ISZERO PUSH1 0x80 DUP10 ADD MSTORE PUSH1 0x8 SHR AND ISZERO ISZERO PUSH1 0xA0 DUP8 ADD MSTORE PUSH1 0x5 DUP4 ADD SWAP1 PUSH1 0x40 MLOAD SWAP3 DUP4 DUP8 DUP5 SLOAD SWAP2 DUP3 DUP2 MSTORE ADD SWAP4 PUSH1 0x0 MSTORE DUP8 PUSH1 0x0 KECCAK256 SWAP3 PUSH1 0x0 SWAP1 JUMPDEST DUP10 DUP4 DUP4 LT PUSH2 0xFD0 JUMPI DUP12 SWAP1 DUP11 PUSH2 0xFB8 PUSH1 0x6 DUP13 DUP13 PUSH2 0xFAD DUP2 DUP15 SUB DUP3 PUSH2 0x21DC JUMP JUMPDEST PUSH1 0xC0 DUP8 ADD MSTORE ADD PUSH2 0x21FD JUMP JUMPDEST SWAP1 DUP4 ADD MSTORE PUSH2 0x921 PUSH1 0x40 MLOAD SWAP3 DUP3 DUP5 SWAP4 DUP5 MSTORE DUP4 ADD SWAP1 PUSH2 0x2459 JUMP JUMPDEST DUP6 SLOAD DUP3 AND DUP8 MSTORE SWAP1 SWAP6 ADD SWAP5 SWAP4 DUP4 ADD SWAP4 SWAP1 DUP4 ADD SWAP1 PUSH2 0xF8F JUMP JUMPDEST POP PUSH1 0x5 SLOAD DUP2 GT ISZERO PUSH2 0xEF5 JUMP JUMPDEST POP CALLVALUE PUSH2 0x313 JUMPI PUSH1 0x20 DUP1 PUSH1 0x3 NOT CALLDATASIZE ADD SLT PUSH2 0x313 JUMPI PUSH2 0x100E PUSH2 0x2397 JUMP JUMPDEST SWAP2 PUSH2 0x1017 PUSH2 0x27B2 JUMP JUMPDEST POP PUSH1 0x1 PUSH1 0x1 PUSH1 0xA0 SHL SUB SWAP3 DUP4 AND PUSH1 0x0 DUP2 DUP2 MSTORE PUSH1 0x1 DUP5 MSTORE PUSH1 0x40 SWAP1 KECCAK256 SLOAD DUP5 AND ISZERO PUSH2 0x10CA JUMPI PUSH1 0x0 MSTORE PUSH1 0x1 DUP3 MSTORE PUSH1 0x6 PUSH1 0x40 PUSH1 0x0 KECCAK256 PUSH1 0x40 MLOAD SWAP5 PUSH2 0x1053 DUP7 PUSH2 0x21A5 JUMP JUMPDEST DUP2 SLOAD AND DUP6 MSTORE PUSH2 0x1064 PUSH1 0x1 DUP3 ADD PUSH2 0x21FD JUMP JUMPDEST DUP5 DUP7 ADD MSTORE PUSH2 0x1074 PUSH1 0x2 DUP3 ADD PUSH2 0x21FD JUMP JUMPDEST PUSH1 0x40 DUP7 ADD MSTORE PUSH2 0x1085 PUSH1 0x3 DUP3 ADD PUSH2 0x21FD JUMP JUMPDEST PUSH1 0x60 DUP7 ADD MSTORE PUSH1 0xFF PUSH1 0x4 DUP3 ADD SLOAD DUP2 DUP2 AND ISZERO ISZERO PUSH1 0x80 DUP9 ADD MSTORE PUSH1 0x8 SHR AND ISZERO ISZERO PUSH1 0xA0 DUP7 ADD MSTORE PUSH1 0x5 DUP2 ADD SLOAD PUSH1 0xC0 DUP7 ADD MSTORE ADD SLOAD SWAP1 DUP4 ADD MSTORE PUSH2 0x921 PUSH1 0x40 MLOAD SWAP3 DUP3 DUP5 SWAP4 DUP5 MSTORE DUP4 ADD SWAP1 PUSH2 0x23AD JUMP JUMPDEST PUSH1 0x40 MLOAD PUSH3 0x461BCD PUSH1 0xE5 SHL DUP2 MSTORE PUSH1 0x4 DUP2 ADD DUP5 SWAP1 MSTORE PUSH1 0x10 PUSH1 0x24 DUP3 ADD MSTORE PUSH16 0x12195B1C195C881B9BDD08199BDD5B99 PUSH1 0x82 SHL PUSH1 0x44 DUP3 ADD MSTORE PUSH1 0x64 SWAP1 REVERT JUMPDEST CALLVALUE PUSH2 0x313 JUMPI PUSH1 0x20 CALLDATASIZE PUSH1 0x3 NOT ADD SLT PUSH2 0x313 JUMPI PUSH1 0x1 PUSH1 0x1 PUSH1 0xA0 SHL SUB PUSH2 0x1123 PUSH2 0x2397 JUMP JUMPDEST AND PUSH1 0x0 MSTORE PUSH1 0x4 PUSH1 0x20 MSTORE PUSH1 0x20 PUSH1 0xFF PUSH1 0x40 PUSH1 0x0 KECCAK256 SLOAD AND PUSH1 0x40 MLOAD SWAP1 ISZERO ISZERO DUP2 MSTORE RETURN JUMPDEST CALLVALUE PUSH2 0x313 JUMPI PUSH1 0x40 CALLDATASIZE PUSH1 0x3 NOT ADD SLT PUSH2 0x313 JUMPI PUSH2 0x115A PUSH2 0x2397 JUMP JUMPDEST PUSH1 0x1 PUSH1 0x1 PUSH1 0xA0 SHL SUB AND PUSH1 0x0 SWAP1 DUP2 MSTORE PUSH1 0x3 PUSH1 0x20 MSTORE PUSH1 0x40 SWAP1 KECCAK256 DUP1 SLOAD PUSH1 0x24 CALLDATALOAD SWAP2 SWAP1 DUP3 LT ISZERO PUSH2 0x313 JUMPI PUSH1 0x20 SWAP2 PUSH2 0x118B SWAP2 PUSH2 0x242B JUMP JUMPDEST SWAP1 SLOAD SWAP1 PUSH1 0x3 SHL SHR PUSH1 0x40 MLOAD SWAP1 DUP2 MSTORE RETURN JUMPDEST CALLVALUE PUSH2 0x313 JUMPI PUSH1 0x0 CALLDATASIZE PUSH1 0x3 NOT ADD SLT PUSH2 0x313 JUMPI PUSH1 0x6 SLOAD PUSH2 0x11B7 DUP2 PUSH2 0x2555 JUMP JUMPDEST SWAP1 PUSH2 0x11C5 PUSH1 0x40 MLOAD SWAP3 DUP4 PUSH2 0x21DC JUMP JUMPDEST DUP1 DUP3 MSTORE PUSH1 0x1F NOT PUSH2 0x11D4 DUP3 PUSH2 0x2555 JUMP JUMPDEST ADD PUSH1 0x0 JUMPDEST DUP2 DUP2 LT PUSH2 0x1258 JUMPI POP POP PUSH1 0x0 JUMPDEST DUP2 DUP2 LT PUSH2 0x124A JUMPI PUSH1 0x40 DUP1 MLOAD PUSH1 0x20 DUP1 DUP3 MSTORE DUP6 MLOAD DUP2 DUP4 ADD DUP2 SWAP1 MSTORE PUSH1 0x0 SWAP4 PUSH1 0x5 DUP3 SWAP1 SHL DUP5 ADD DUP2 ADD SWAP3 DUP1 DUP10 ADD SWAP3 SWAP2 DUP6 ADD JUMPDEST DUP3 DUP8 LT PUSH2 0x121E JUMPI DUP6 DUP6 SUB DUP7 RETURN JUMPDEST SWAP1 SWAP2 SWAP3 SWAP4 DUP3 DUP1 PUSH2 0x123A PUSH1 0x1 SWAP4 PUSH1 0x3F NOT DUP11 DUP3 SUB ADD DUP7 MSTORE DUP9 MLOAD PUSH2 0x23AD JUMP JUMPDEST SWAP7 ADD SWAP3 ADD SWAP7 ADD SWAP6 SWAP3 SWAP2 SWAP1 SWAP3 PUSH2 0x1211 JUMP JUMPDEST PUSH2 0x1253 SWAP1 PUSH2 0x2530 JUMP JUMPDEST PUSH2 0x11E4 JUMP JUMPDEST PUSH1 0x20 SWAP1 PUSH2 0x1263 PUSH2 0x27B2 JUMP JUMPDEST DUP3 DUP3 DUP8 ADD ADD MSTORE ADD PUSH2 0x11D8 JUMP JUMPDEST CALLVALUE PUSH2 0x313 JUMPI PUSH1 0x20 DUP1 PUSH1 0x3 NOT CALLDATASIZE ADD SLT PUSH2 0x313 JUMPI PUSH2 0x1289 PUSH2 0x2397 JUMP JUMPDEST PUSH1 0x7 SLOAD PUSH1 0x1 PUSH1 0x1 PUSH1 0xA0 SHL SUB SWAP3 SWAP2 SWAP1 DUP4 AND CALLER SUB PUSH2 0x1372 JUMPI DUP3 PUSH2 0x12BC SWAP2 AND SWAP3 DUP4 PUSH1 0x0 MSTORE PUSH1 0x1 DUP4 MSTORE PUSH1 0x40 PUSH1 0x0 KECCAK256 SLOAD AND ISZERO ISZERO PUSH2 0x25A8 JUMP JUMPDEST DUP2 PUSH1 0x0 MSTORE PUSH1 0x1 DUP2 MSTORE PUSH1 0xFF PUSH1 0x4 PUSH1 0x40 PUSH1 0x0 KECCAK256 ADD SLOAD AND PUSH2 0x132E JUMPI PUSH32 0x8AB5DBF8978FA4B4E99B85DE63B88AD039727F07D84D7EA0E0765AFE92B3C088 SWAP1 DUP3 PUSH1 0x0 MSTORE PUSH1 0x1 DUP2 MSTORE PUSH1 0x4 PUSH1 0x40 PUSH1 0x0 KECCAK256 ADD PUSH1 0xFF NOT SWAP1 PUSH1 0x1 DUP3 DUP3 SLOAD AND OR SWAP1 SSTORE PUSH1 0x4 DUP3 MSTORE PUSH1 0x1 PUSH1 0x40 PUSH1 0x0 KECCAK256 SWAP2 DUP3 SLOAD AND OR SWAP1 SSTORE PUSH1 0x40 MLOAD CALLER DUP2 MSTORE LOG2 STOP JUMPDEST PUSH1 0x64 SWAP1 PUSH1 0x40 MLOAD SWAP1 PUSH3 0x461BCD PUSH1 0xE5 SHL DUP3 MSTORE PUSH1 0x4 DUP3 ADD MSTORE PUSH1 0x17 PUSH1 0x24 DUP3 ADD MSTORE PUSH32 0x48656C70657220616C7265616479207665726966696564000000000000000000 PUSH1 0x44 DUP3 ADD MSTORE REVERT JUMPDEST PUSH1 0x40 MLOAD PUSH3 0x461BCD PUSH1 0xE5 SHL DUP2 MSTORE PUSH1 0x4 DUP2 ADD DUP4 SWAP1 MSTORE PUSH1 0x22 PUSH1 0x24 DUP3 ADD MSTORE PUSH32 0x4F6E6C792061646D696E2063616E20706572666F726D20746869732061637469 PUSH1 0x44 DUP3 ADD MSTORE PUSH2 0x37B7 PUSH1 0xF1 SHL PUSH1 0x64 DUP3 ADD MSTORE PUSH1 0x84 SWAP1 REVERT JUMPDEST CALLVALUE PUSH2 0x313 JUMPI PUSH1 0x20 CALLDATASIZE PUSH1 0x3 NOT ADD SLT PUSH2 0x313 JUMPI PUSH1 0x4 CALLDATALOAD DUP1 PUSH1 0x0 MSTORE PUSH1 0x0 PUSH1 0x20 MSTORE PUSH2 0x13F7 PUSH1 0x1 DUP1 PUSH1 0xA0 SHL SUB PUSH1 0x40 PUSH1 0x0 KECCAK256 SLOAD AND CALLER EQ PUSH2 0x266A JUMP JUMPDEST DUP1 PUSH1 0x0 MSTORE PUSH1 0x0 PUSH1 0x20 MSTORE PUSH2 0x1415 PUSH1 0xFF PUSH1 0x4 PUSH1 0x40 PUSH1 0x0 KECCAK256 ADD SLOAD AND ISZERO PUSH2 0x26C9 JUMP JUMPDEST DUP1 PUSH1 0x0 MSTORE PUSH1 0x0 PUSH1 0x20 MSTORE PUSH1 0x4 PUSH1 0x40 PUSH1 0x0 KECCAK256 ADD PUSH1 0x1 PUSH2 0xFFFF NOT DUP3 SLOAD AND OR SWAP1 SSTORE PUSH1 0x40 MLOAD SWAP1 TIMESTAMP DUP3 MSTORE PUSH32 0xC9516E01146AAAC3B70DC905D80294D64EBB91DF03E0E28EB59F1FFBDEDF360E PUSH1 0x20 CALLER SWAP4 LOG3 STOP JUMPDEST POP CALLVALUE PUSH2 0x313 JUMPI PUSH1 0x20 CALLDATASIZE PUSH1 0x3 NOT ADD SLT PUSH2 0x313 JUMPI PUSH1 0x1 PUSH1 0x1 PUSH1 0xA0 SHL SUB DUP1 PUSH2 0x1484 PUSH2 0x2397 JUMP JUMPDEST AND PUSH1 0x0 MSTORE PUSH1 0x1 PUSH1 0x20 MSTORE PUSH1 0x40 PUSH1 0x0 KECCAK256 SWAP1 DUP2 SLOAD AND SWAP1 PUSH2 0x14A3 PUSH1 0x1 DUP3 ADD PUSH2 0x21FD JUMP JUMPDEST SWAP3 PUSH2 0x14B0 PUSH1 0x2 DUP4 ADD PUSH2 0x21FD JUMP JUMPDEST SWAP1 PUSH2 0x14BD PUSH1 0x3 DUP5 ADD PUSH2 0x21FD JUMP JUMPDEST SWAP3 PUSH1 0xFF PUSH2 0x1511 PUSH1 0x4 DUP4 ADD SLOAD SWAP6 PUSH2 0x1503 PUSH1 0x6 PUSH1 0x5 DUP7 ADD SLOAD SWAP6 ADD SLOAD SWAP7 PUSH2 0x14F5 PUSH1 0x40 MLOAD SWAP12 DUP13 SWAP12 DUP13 MSTORE PUSH1 0x20 DUP13 PUSH2 0x100 SWAP2 DUP3 SWAP2 ADD MSTORE DUP13 ADD SWAP1 PUSH2 0x22A3 JUMP JUMPDEST SWAP1 DUP11 DUP3 SUB PUSH1 0x40 DUP13 ADD MSTORE PUSH2 0x22A3 JUMP JUMPDEST SWAP1 DUP9 DUP3 SUB PUSH1 0x60 DUP11 ADD MSTORE PUSH2 0x22A3 JUMP JUMPDEST SWAP5 DUP2 DUP2 AND ISZERO ISZERO PUSH1 0x80 DUP9 ADD MSTORE PUSH1 0x8 SHR AND ISZERO ISZERO PUSH1 0xA0 DUP7 ADD MSTORE PUSH1 0xC0 DUP6 ADD MSTORE DUP4 ADD MSTORE SUB SWAP1 RETURN JUMPDEST CALLVALUE PUSH2 0x313 JUMPI PUSH1 0x60 CALLDATASIZE PUSH1 0x3 NOT ADD SLT PUSH2 0x313 JUMPI PUSH1 0x24 DUP1 CALLDATALOAD PUSH1 0x1 PUSH1 0x1 PUSH1 0x40 SHL SUB DUP2 GT PUSH2 0x313 JUMPI PUSH2 0x1564 SWAP1 CALLDATASIZE SWAP1 PUSH1 0x4 ADD PUSH2 0x22E3 JUMP JUMPDEST PUSH1 0x44 CALLDATALOAD PUSH1 0x1 PUSH1 0x1 PUSH1 0x40 SHL SUB DUP2 GT PUSH2 0x313 JUMPI PUSH2 0x1583 SWAP1 CALLDATASIZE SWAP1 PUSH1 0x4 ADD PUSH2 0x22E3 JUMP JUMPDEST SWAP1 CALLER PUSH1 0x0 MSTORE PUSH1 0x4 PUSH1 0x20 MSTORE PUSH1 0xFF PUSH1 0x40 PUSH1 0x0 KECCAK256 SLOAD AND ISZERO PUSH2 0x1A6A JUMPI PUSH1 0x4 CALLDATALOAD ISZERO ISZERO DUP1 PUSH2 0x1A5C JUMPI JUMPDEST PUSH2 0x15AF SWAP1 PUSH2 0x25EC JUMP JUMPDEST PUSH1 0x4 CALLDATALOAD PUSH1 0x0 MSTORE PUSH1 0x0 PUSH1 0x20 MSTORE PUSH2 0x15DA PUSH1 0x4 PUSH1 0x40 PUSH1 0x0 KECCAK256 ADD SLOAD PUSH1 0xFF DUP2 PUSH1 0x8 SHR AND SWAP1 DUP2 PUSH2 0x1A50 JUMPI JUMPDEST POP PUSH2 0x262B JUMP JUMPDEST CALLER PUSH1 0x0 MSTORE PUSH1 0x1 PUSH1 0x20 MSTORE PUSH1 0xFF PUSH1 0x4 PUSH1 0x40 PUSH1 0x0 KECCAK256 ADD SLOAD PUSH1 0x8 SHR AND ISZERO PUSH2 0x1A15 JUMPI PUSH1 0x0 SWAP2 PUSH1 0x0 JUMPDEST PUSH1 0x4 CALLDATALOAD PUSH1 0x0 MSTORE PUSH1 0x0 PUSH1 0x20 MSTORE PUSH1 0x5 PUSH1 0x40 PUSH1 0x0 KECCAK256 ADD DUP1 SLOAD DUP3 LT ISZERO PUSH2 0x1A0C JUMPI DUP2 PUSH2 0x1623 SWAP2 PUSH2 0x242B JUMP JUMPDEST SWAP1 SLOAD PUSH1 0x3 SWAP2 SWAP1 SWAP2 SHL SHR PUSH1 0x1 PUSH1 0x1 PUSH1 0xA0 SHL SUB AND CALLER EQ PUSH2 0x1649 JUMPI PUSH2 0x1644 SWAP1 PUSH2 0x2530 JUMP JUMPDEST PUSH2 0x15FD JUMP JUMPDEST POP SWAP1 SWAP2 POP PUSH1 0x1 JUMPDEST ISZERO PUSH2 0x198C JUMPI JUMPDEST PUSH1 0x4 CALLDATALOAD PUSH1 0x0 MSTORE PUSH1 0x2 PUSH1 0x20 MSTORE PUSH1 0x40 PUSH1 0x0 KECCAK256 SWAP3 PUSH1 0x40 MLOAD SWAP4 PUSH2 0x1674 DUP6 PUSH2 0x21C1 JUMP JUMPDEST PUSH1 0x4 CALLDATALOAD DUP6 MSTORE PUSH1 0x20 DUP6 ADD CALLER DUP2 MSTORE PUSH1 0x40 DUP7 ADD SWAP1 TIMESTAMP DUP3 MSTORE PUSH1 0x60 DUP8 ADD SWAP3 DUP7 DUP5 MSTORE PUSH1 0x80 DUP9 ADD SWAP6 DUP7 MSTORE DUP1 SLOAD SWAP1 PUSH1 0x1 PUSH1 0x40 SHL DUP3 LT ISZERO PUSH2 0x1977 JUMPI SWAP1 PUSH2 0x16B6 SWAP2 PUSH1 0x1 DUP3 ADD DUP2 SSTORE PUSH2 0x2514 JUMP JUMPDEST SWAP8 SWAP1 SWAP8 PUSH2 0x1962 JUMPI MLOAD DUP8 SSTORE PUSH1 0x1 DUP8 ADD SWAP1 PUSH1 0x1 DUP1 PUSH1 0xA0 SHL SUB SWAP1 MLOAD AND PUSH1 0x1 PUSH1 0x1 PUSH1 0x60 SHL SUB PUSH1 0xA0 SHL DUP3 SLOAD AND OR SWAP1 SSTORE MLOAD PUSH1 0x2 DUP7 ADD SSTORE MLOAD SWAP4 DUP5 MLOAD PUSH1 0x1 PUSH1 0x1 PUSH1 0x40 SHL SUB DUP2 GT PUSH2 0x194D JUMPI PUSH2 0x1705 PUSH1 0x3 DUP4 ADD SLOAD PUSH2 0x216B JUMP JUMPDEST SWAP6 PUSH1 0x1F SWAP7 DUP8 DUP2 GT PUSH2 0x191A JUMPI JUMPDEST POP PUSH1 0x20 SWAP1 DUP8 DUP4 GT PUSH1 0x1 EQ PUSH2 0x18A7 JUMPI PUSH1 0x4 SWAP4 SWAP3 SWAP2 PUSH1 0x0 SWAP2 DUP4 PUSH2 0x189C JUMPI JUMPDEST POP POP DUP2 PUSH1 0x1 SHL SWAP2 PUSH1 0x0 NOT SWAP1 PUSH1 0x3 SHL SHR NOT AND OR PUSH1 0x3 DUP3 ADD SSTORE JUMPDEST ADD SWAP2 MLOAD SWAP4 DUP5 MLOAD SWAP2 PUSH1 0x1 PUSH1 0x1 PUSH1 0x40 SHL SUB DUP4 GT PUSH2 0x1888 JUMPI POP PUSH2 0x1765 DUP4 SLOAD PUSH2 0x216B JUMP JUMPDEST DUP2 DUP2 GT PUSH2 0x184E JUMPI JUMPDEST POP PUSH1 0x20 SWAP1 DUP3 GT PUSH1 0x1 EQ PUSH2 0x17E8 JUMPI DUP2 SWAP3 SWAP4 SWAP5 PUSH1 0x0 SWAP3 PUSH2 0x17DD JUMPI JUMPDEST POP POP DUP2 PUSH1 0x1 SHL SWAP2 PUSH1 0x0 NOT SWAP1 PUSH1 0x3 SHL SHR NOT AND OR SWAP1 SSTORE JUMPDEST PUSH1 0x40 MLOAD SWAP1 PUSH1 0x20 DUP3 MSTORE PUSH32 0xD672B4EFA76E07014EC31EFF0C24B79E37F02483B288785AF9F6DE63C79C187B CALLER SWAP3 DUP1 PUSH2 0x17D8 PUSH1 0x4 CALLDATALOAD SWAP5 PUSH1 0x20 DUP4 ADD SWAP1 PUSH2 0x22A3 JUMP JUMPDEST SUB SWAP1 LOG3 STOP JUMPDEST ADD MLOAD SWAP1 POP DUP5 DUP1 PUSH2 0x1786 JUMP JUMPDEST PUSH1 0x1F NOT DUP3 AND SWAP1 DUP4 PUSH1 0x0 MSTORE PUSH1 0x20 PUSH1 0x0 KECCAK256 SWAP2 PUSH1 0x0 JUMPDEST DUP2 DUP2 LT PUSH2 0x1836 JUMPI POP SWAP6 DUP4 PUSH1 0x1 SWAP6 SWAP7 SWAP8 LT PUSH2 0x181D JUMPI JUMPDEST POP POP POP DUP2 SHL ADD SWAP1 SSTORE PUSH2 0x179B JUMP JUMPDEST ADD MLOAD PUSH1 0x0 NOT PUSH1 0xF8 DUP5 PUSH1 0x3 SHL AND SHR NOT AND SWAP1 SSTORE DUP5 DUP1 DUP1 PUSH2 0x1810 JUMP JUMPDEST SWAP2 SWAP3 PUSH1 0x20 PUSH1 0x1 DUP2 SWAP3 DUP7 DUP12 ADD MLOAD DUP2 SSTORE ADD SWAP5 ADD SWAP3 ADD PUSH2 0x17FB JUMP JUMPDEST PUSH2 0x1879 SWAP1 DUP5 PUSH1 0x0 MSTORE PUSH1 0x20 PUSH1 0x0 KECCAK256 DUP4 DUP1 DUP7 ADD PUSH1 0x5 SHR DUP3 ADD SWAP3 PUSH1 0x20 DUP8 LT PUSH2 0x187F JUMPI JUMPDEST ADD PUSH1 0x5 SHR ADD SWAP1 PUSH2 0x256C JUMP JUMPDEST DUP6 PUSH2 0x176D JUMP JUMPDEST SWAP3 POP DUP2 SWAP3 PUSH2 0x186E JUMP JUMPDEST PUSH4 0x4E487B71 PUSH1 0xE0 SHL PUSH1 0x0 SWAP1 DUP2 MSTORE PUSH1 0x41 PUSH1 0x4 MSTORE REVERT JUMPDEST ADD MLOAD SWAP1 POP DUP9 DUP1 PUSH2 0x172D JUMP JUMPDEST SWAP1 PUSH1 0x3 DUP5 ADD PUSH1 0x0 MSTORE PUSH1 0x20 PUSH1 0x0 KECCAK256 SWAP2 PUSH1 0x0 JUMPDEST PUSH1 0x1F NOT DUP6 AND DUP2 LT PUSH2 0x1902 JUMPI POP SWAP2 DUP4 SWAP2 PUSH1 0x1 SWAP4 PUSH1 0x4 SWAP7 SWAP6 PUSH1 0x1F NOT DUP2 AND LT PUSH2 0x18E9 JUMPI JUMPDEST POP POP POP DUP2 SHL ADD PUSH1 0x3 DUP3 ADD SSTORE PUSH2 0x1745 JUMP JUMPDEST ADD MLOAD PUSH1 0x0 NOT PUSH1 0xF8 DUP5 PUSH1 0x3 SHL AND SHR NOT AND SWAP1 SSTORE DUP9 DUP1 DUP1 PUSH2 0x18D9 JUMP JUMPDEST SWAP2 SWAP3 PUSH1 0x20 PUSH1 0x1 DUP2 SWAP3 DUP7 DUP6 ADD MLOAD DUP2 SSTORE ADD SWAP5 ADD SWAP3 ADD PUSH2 0x18B8 JUMP JUMPDEST PUSH2 0x1947 SWAP1 PUSH1 0x3 DUP6 ADD PUSH1 0x0 MSTORE PUSH1 0x20 PUSH1 0x0 KECCAK256 DUP10 DUP1 DUP7 ADD PUSH1 0x5 SHR DUP3 ADD SWAP3 PUSH1 0x20 DUP8 LT PUSH2 0x187F JUMPI ADD PUSH1 0x5 SHR ADD SWAP1 PUSH2 0x256C JUMP JUMPDEST DUP8 PUSH2 0x1711 JUMP JUMPDEST DUP3 PUSH4 0x4E487B71 PUSH1 0xE0 SHL PUSH1 0x0 MSTORE PUSH1 0x41 PUSH1 0x4 MSTORE PUSH1 0x0 REVERT JUMPDEST DUP5 PUSH4 0x4E487B71 PUSH1 0xE0 SHL PUSH1 0x0 MSTORE PUSH1 0x0 PUSH1 0x4 MSTORE PUSH1 0x0 REVERT JUMPDEST DUP6 PUSH4 0x4E487B71 PUSH1 0xE0 SHL PUSH1 0x0 MSTORE PUSH1 0x41 PUSH1 0x4 MSTORE PUSH1 0x0 REVERT JUMPDEST PUSH1 0x4 CALLDATALOAD PUSH1 0x0 MSTORE PUSH1 0x0 PUSH1 0x20 MSTORE PUSH1 0x5 PUSH1 0x40 PUSH1 0x0 KECCAK256 ADD DUP1 SLOAD PUSH1 0x1 PUSH1 0x40 SHL DUP2 LT ISZERO PUSH2 0x19F7 JUMPI PUSH2 0x19BC SWAP2 PUSH1 0x1 DUP3 ADD DUP2 SSTORE PUSH2 0x242B JUMP JUMPDEST DUP2 SLOAD SWAP1 PUSH1 0x3 SHL SWAP1 CALLER DUP3 SHL SWAP2 PUSH1 0x1 DUP1 PUSH1 0xA0 SHL SUB SWAP1 SHL NOT AND OR SWAP1 SSTORE CALLER PUSH1 0x0 MSTORE PUSH1 0x1 PUSH1 0x20 MSTORE PUSH1 0x5 PUSH1 0x40 PUSH1 0x0 KECCAK256 ADD PUSH2 0x19F0 DUP2 SLOAD PUSH2 0x2530 JUMP JUMPDEST SWAP1 SSTORE PUSH2 0x1656 JUMP JUMPDEST DUP5 PUSH4 0x4E487B71 PUSH1 0xE0 SHL PUSH1 0x0 MSTORE PUSH1 0x41 PUSH1 0x4 MSTORE PUSH1 0x0 REVERT JUMPDEST POP POP SWAP1 SWAP2 PUSH2 0x1650 JUMP JUMPDEST PUSH1 0x40 MLOAD PUSH3 0x461BCD PUSH1 0xE5 SHL DUP2 MSTORE PUSH1 0x20 PUSH1 0x4 DUP3 ADD MSTORE PUSH1 0x14 DUP2 DUP6 ADD MSTORE PUSH20 0x48656C706572206E6F7420617661696C61626C65 PUSH1 0x60 SHL PUSH1 0x44 DUP3 ADD MSTORE PUSH1 0x64 SWAP1 REVERT JUMPDEST PUSH1 0xFF SWAP2 POP AND ISZERO DUP6 PUSH2 0x15D4 JUMP JUMPDEST POP PUSH1 0x5 SLOAD PUSH1 0x4 CALLDATALOAD GT ISZERO PUSH2 0x15A6 JUMP JUMPDEST PUSH1 0x40 MLOAD PUSH3 0x461BCD PUSH1 0xE5 SHL DUP2 MSTORE PUSH1 0x20 PUSH1 0x4 DUP3 ADD MSTORE PUSH1 0x2D DUP2 DUP6 ADD MSTORE PUSH32 0x4F6E6C792076657269666965642068656C706572732063616E20706572666F72 PUSH1 0x44 DUP3 ADD MSTORE PUSH13 0x36903A3434B99030B1BA34B7B7 PUSH1 0x99 SHL PUSH1 0x64 DUP3 ADD MSTORE PUSH1 0x84 SWAP1 REVERT JUMPDEST POP CALLVALUE PUSH2 0x313 JUMPI PUSH2 0x1AD3 CALLDATASIZE PUSH2 0x2339 JUMP JUMPDEST DUP3 SWAP2 SWAP4 SWAP3 MLOAD ISZERO PUSH2 0x2071 JUMPI DUP4 MLOAD ISZERO PUSH2 0x202C JUMPI PUSH2 0x1AEF PUSH1 0x5 SLOAD PUSH2 0x2530 JUMP JUMPDEST SWAP3 DUP4 PUSH1 0x5 SSTORE PUSH1 0x40 MLOAD SWAP4 PUSH1 0x20 DUP6 ADD DUP6 DUP2 LT PUSH1 0x1 PUSH1 0x1 PUSH1 0x40 SHL SUB DUP3 GT OR PUSH2 0xCF0 JUMPI PUSH1 0x40 MSTORE PUSH1 0x0 DUP6 MSTORE PUSH1 0x40 MLOAD SWAP3 PUSH2 0x1B22 DUP5 PUSH2 0x21A5 JUMP JUMPDEST CALLER DUP5 MSTORE PUSH1 0x20 DUP5 ADD SWAP6 DUP6 DUP8 MSTORE DUP8 PUSH1 0x40 DUP7 ADD MSTORE TIMESTAMP PUSH1 0x60 DUP7 ADD MSTORE PUSH1 0x0 PUSH1 0x80 DUP7 ADD MSTORE PUSH1 0x1 PUSH1 0xA0 DUP7 ADD MSTORE PUSH1 0xC0 DUP6 ADD MSTORE DUP3 DUP5 ADD MSTORE PUSH1 0x0 MSTORE PUSH1 0x0 PUSH1 0x20 MSTORE PUSH1 0x40 PUSH1 0x0 KECCAK256 SWAP4 PUSH1 0x1 DUP1 PUSH1 0xA0 SHL SUB DUP4 MLOAD AND PUSH1 0x1 PUSH1 0x1 PUSH1 0x60 SHL SUB PUSH1 0xA0 SHL DUP7 SLOAD AND OR DUP6 SSTORE MLOAD DUP1 MLOAD SWAP1 PUSH1 0x1 PUSH1 0x1 PUSH1 0x40 SHL SUB DUP3 GT PUSH2 0xCF0 JUMPI DUP2 SWAP1 PUSH2 0x1B9A PUSH1 0x1 DUP9 ADD SLOAD PUSH2 0x216B JUMP JUMPDEST PUSH1 0x1F DUP2 GT PUSH2 0x1FF7 JUMPI JUMPDEST POP PUSH1 0x20 SWAP1 PUSH1 0x1F DUP4 GT PUSH1 0x1 EQ PUSH2 0x1F85 JUMPI PUSH1 0x0 SWAP3 PUSH2 0x1F7A JUMPI JUMPDEST POP POP DUP2 PUSH1 0x1 SHL SWAP2 PUSH1 0x0 NOT SWAP1 PUSH1 0x3 SHL SHR NOT AND OR PUSH1 0x1 DUP6 ADD SSTORE JUMPDEST PUSH1 0x40 DUP3 ADD MLOAD DUP1 MLOAD SWAP1 PUSH1 0x1 PUSH1 0x1 PUSH1 0x40 SHL SUB DUP3 GT PUSH2 0xCF0 JUMPI DUP2 SWAP1 PUSH2 0x1BF7 PUSH1 0x2 DUP9 ADD SLOAD PUSH2 0x216B JUMP JUMPDEST PUSH1 0x1F DUP2 GT PUSH2 0x1F45 JUMPI JUMPDEST POP PUSH1 0x20 SWAP1 PUSH1 0x1F DUP4 GT PUSH1 0x1 EQ PUSH2 0x1ED3 JUMPI PUSH1 0x0 SWAP3 PUSH2 0x1EC8 JUMPI JUMPDEST POP POP DUP2 PUSH1 0x1 SHL SWAP2 PUSH1 0x0 NOT SWAP1 PUSH1 0x3 SHL SHR NOT AND OR PUSH1 0x2 DUP6 ADD SSTORE JUMPDEST PUSH1 0x60 DUP3 ADD MLOAD PUSH1 0x3 DUP6 ADD SSTORE PUSH2 0x1C77 PUSH1 0x4 DUP6 ADD PUSH2 0x1C5C PUSH1 0x80 DUP6 ADD MLOAD ISZERO ISZERO DUP3 SWAP1 PUSH1 0xFF DUP1 NOT DUP4 SLOAD AND SWAP2 ISZERO ISZERO AND OR SWAP1 SSTORE JUMP JUMPDEST PUSH1 0xA0 DUP5 ADD MLOAD DUP2 SLOAD PUSH2 0xFF00 NOT AND SWAP1 ISZERO ISZERO PUSH1 0x8 SHL PUSH2 0xFF00 AND OR SWAP1 SSTORE JUMP JUMPDEST PUSH1 0x5 DUP5 ADD SWAP4 PUSH1 0xC0 DUP4 ADD MLOAD SWAP5 DUP6 MLOAD SWAP1 PUSH1 0x1 PUSH1 0x1 PUSH1 0x40 SHL SUB DUP3 GT PUSH2 0xCF0 JUMPI PUSH1 0x1 PUSH1 0x40 SHL SWAP7 DUP8 DUP4 GT PUSH2 0xCF0 JUMPI PUSH1 0x20 SWAP1 DUP3 SLOAD DUP5 DUP5 SSTORE DUP1 DUP6 LT PUSH2 0x1EAB JUMPI JUMPDEST POP ADD SWAP1 PUSH1 0x0 MSTORE PUSH1 0x20 PUSH1 0x0 KECCAK256 PUSH1 0x0 JUMPDEST DUP4 DUP2 LT PUSH2 0x1E8E JUMPI POP POP POP POP PUSH1 0x6 ADD SWAP2 ADD MLOAD DUP1 MLOAD SWAP1 PUSH1 0x1 PUSH1 0x1 PUSH1 0x40 SHL SUB DUP3 GT PUSH2 0xCF0 JUMPI DUP2 SWAP1 PUSH2 0x1CEC DUP5 SLOAD PUSH2 0x216B JUMP JUMPDEST PUSH1 0x1F DUP2 GT PUSH2 0x1E5C JUMPI JUMPDEST POP PUSH1 0x20 SWAP1 PUSH1 0x1F DUP4 GT PUSH1 0x1 EQ PUSH2 0x1DF6 JUMPI PUSH1 0x0 SWAP3 PUSH2 0x1DEB JUMPI JUMPDEST POP POP DUP2 PUSH1 0x1 SHL SWAP2 PUSH1 0x0 NOT SWAP1 PUSH1 0x3 SHL SHR NOT AND OR SWAP1 SSTORE JUMPDEST CALLER PUSH1 0x0 MSTORE PUSH1 0x3 PUSH1 0x20 MSTORE PUSH1 0x40 PUSH1 0x0 KECCAK256 PUSH1 0x5 SLOAD SWAP1 DUP1 SLOAD SWAP4 DUP5 LT ISZERO PUSH2 0xCF0 JUMPI DUP4 PUSH2 0x1D6E SWAP2 PUSH1 0x1 PUSH32 0x86C701AD5CBACFD7B3C2A4FB6E443330352C5E5BB811550C95A953CE29A21C87 SWAP7 ADD DUP2 SSTORE PUSH2 0x242B JUMP JUMPDEST DUP2 SWAP3 SWAP2 SLOAD SWAP1 PUSH1 0x3 SHL SWAP2 DUP3 SHL SWAP2 PUSH1 0x0 NOT SWAP1 SHL NOT AND OR SWAP1 SSTORE PUSH1 0x5 SLOAD SWAP3 PUSH1 0x40 MLOAD PUSH1 0x60 DUP2 MSTORE DUP5 PUSH32 0xC3E6D8F692FFA6905425F3CF2247E701249C6FA8DD9EA1D6A3C6B2445674AFC4 PUSH2 0x1DCF PUSH2 0x1DC1 PUSH1 0x60 DUP6 ADD DUP7 PUSH2 0x22A3 JUMP JUMPDEST DUP5 DUP2 SUB PUSH1 0x20 DUP7 ADD MSTORE DUP7 PUSH2 0x22A3 JUMP JUMPDEST SWAP3 TIMESTAMP PUSH1 0x40 DUP3 ADD MSTORE DUP1 CALLER SWAP5 SUB SWAP1 LOG3 PUSH2 0xC10 PUSH1 0x40 MLOAD SWAP3 DUP4 SWAP3 DUP4 PUSH2 0x2583 JUMP JUMPDEST ADD MLOAD SWAP1 POP CODESIZE DUP1 PUSH2 0x1D0C JUMP JUMPDEST PUSH1 0x0 DUP6 DUP2 MSTORE PUSH1 0x20 DUP2 KECCAK256 SWAP4 POP PUSH1 0x1F NOT DUP6 AND SWAP1 JUMPDEST DUP2 DUP2 LT PUSH2 0x1E44 JUMPI POP SWAP1 DUP5 PUSH1 0x1 SWAP6 SWAP5 SWAP4 SWAP3 LT PUSH2 0x1E2B JUMPI JUMPDEST POP POP POP DUP2 SHL ADD SWAP1 SSTORE PUSH2 0x1D21 JUMP JUMPDEST ADD MLOAD PUSH1 0x0 NOT PUSH1 0xF8 DUP5 PUSH1 0x3 SHL AND SHR NOT AND SWAP1 SSTORE CODESIZE DUP1 DUP1 PUSH2 0x1E1E JUMP JUMPDEST SWAP3 SWAP4 PUSH1 0x20 PUSH1 0x1 DUP2 SWAP3 DUP8 DUP7 ADD MLOAD DUP2 SSTORE ADD SWAP6 ADD SWAP4 ADD PUSH2 0x1E08 JUMP JUMPDEST PUSH2 0x1E88 SWAP1 DUP6 PUSH1 0x0 MSTORE PUSH1 0x20 PUSH1 0x0 KECCAK256 PUSH1 0x1F DUP6 ADD PUSH1 0x5 SHR DUP2 ADD SWAP2 PUSH1 0x20 DUP7 LT PUSH2 0xCE6 JUMPI PUSH1 0x1F ADD PUSH1 0x5 SHR ADD SWAP1 PUSH2 0x256C JUMP JUMPDEST CODESIZE PUSH2 0x1CF5 JUMP JUMPDEST DUP3 MLOAD PUSH1 0x1 PUSH1 0x1 PUSH1 0xA0 SHL SUB AND DUP2 DUP4 ADD SSTORE PUSH1 0x20 SWAP1 SWAP3 ADD SWAP2 PUSH1 0x1 ADD PUSH2 0x1CBE JUMP JUMPDEST PUSH2 0x1EC2 SWAP1 DUP5 PUSH1 0x0 MSTORE DUP6 DUP5 PUSH1 0x0 KECCAK256 SWAP2 DUP3 ADD SWAP2 ADD PUSH2 0x256C JUMP JUMPDEST CODESIZE PUSH2 0x1CB0 JUMP JUMPDEST ADD MLOAD SWAP1 POP CODESIZE DUP1 PUSH2 0x1C17 JUMP JUMPDEST SWAP3 POP PUSH1 0x2 DUP8 ADD PUSH1 0x0 MSTORE PUSH1 0x20 PUSH1 0x0 KECCAK256 SWAP1 PUSH1 0x0 SWAP4 JUMPDEST PUSH1 0x1F NOT DUP5 AND DUP6 LT PUSH2 0x1F2A JUMPI PUSH1 0x1 SWAP5 POP DUP4 PUSH1 0x1F NOT DUP2 AND LT PUSH2 0x1F11 JUMPI JUMPDEST POP POP POP DUP2 SHL ADD PUSH1 0x2 DUP6 ADD SSTORE PUSH2 0x1C2F JUMP JUMPDEST ADD MLOAD PUSH1 0x0 NOT PUSH1 0xF8 DUP5 PUSH1 0x3 SHL AND SHR NOT AND SWAP1 SSTORE CODESIZE DUP1 DUP1 PUSH2 0x1F01 JUMP JUMPDEST DUP2 DUP2 ADD MLOAD DUP4 SSTORE PUSH1 0x20 SWAP5 DUP6 ADD SWAP5 PUSH1 0x1 SWAP1 SWAP4 ADD SWAP3 SWAP1 SWAP2 ADD SWAP1 PUSH2 0x1EE6 JUMP JUMPDEST PUSH2 0x1F74 SWAP1 PUSH1 0x2 DUP10 ADD PUSH1 0x0 MSTORE PUSH1 0x20 PUSH1 0x0 KECCAK256 PUSH1 0x1F DUP6 ADD PUSH1 0x5 SHR DUP2 ADD SWAP2 PUSH1 0x20 DUP7 LT PUSH2 0xCE6 JUMPI PUSH1 0x1F ADD PUSH1 0x5 SHR ADD SWAP1 PUSH2 0x256C JUMP JUMPDEST CODESIZE PUSH2 0x1C00 JUMP JUMPDEST ADD MLOAD SWAP1 POP CODESIZE DUP1 PUSH2 0x1BBA JUMP JUMPDEST SWAP3 POP PUSH1 0x1 DUP8 ADD PUSH1 0x0 MSTORE PUSH1 0x20 PUSH1 0x0 KECCAK256 SWAP1 PUSH1 0x0 SWAP4 JUMPDEST PUSH1 0x1F NOT DUP5 AND DUP6 LT PUSH2 0x1FDC JUMPI PUSH1 0x1 SWAP5 POP DUP4 PUSH1 0x1F NOT DUP2 AND LT PUSH2 0x1FC3 JUMPI JUMPDEST POP POP POP DUP2 SHL ADD PUSH1 0x1 DUP6 ADD SSTORE PUSH2 0x1BD2 JUMP JUMPDEST ADD MLOAD PUSH1 0x0 NOT PUSH1 0xF8 DUP5 PUSH1 0x3 SHL AND SHR NOT AND SWAP1 SSTORE CODESIZE DUP1 DUP1 PUSH2 0x1FB3 JUMP JUMPDEST DUP2 DUP2 ADD MLOAD DUP4 SSTORE PUSH1 0x20 SWAP5 DUP6 ADD SWAP5 PUSH1 0x1 SWAP1 SWAP4 ADD SWAP3 SWAP1 SWAP2 ADD SWAP1 PUSH2 0x1F98 JUMP JUMPDEST PUSH2 0x2026 SWAP1 PUSH1 0x1 DUP10 ADD PUSH1 0x0 MSTORE PUSH1 0x20 PUSH1 0x0 KECCAK256 PUSH1 0x1F DUP6 ADD PUSH1 0x5 SHR DUP2 ADD SWAP2 PUSH1 0x20 DUP7 LT PUSH2 0xCE6 JUMPI PUSH1 0x1F ADD PUSH1 0x5 SHR ADD SWAP1 PUSH2 0x256C JUMP JUMPDEST CODESIZE PUSH2 0x1BA3 JUMP JUMPDEST PUSH1 0x40 MLOAD PUSH3 0x461BCD PUSH1 0xE5 SHL DUP2 MSTORE PUSH1 0x20 PUSH1 0x4 DUP3 ADD MSTORE PUSH1 0x1A PUSH1 0x24 DUP3 ADD MSTORE PUSH32 0x416C65727420747970652063616E6E6F7420626520656D707479000000000000 PUSH1 0x44 DUP3 ADD MSTORE PUSH1 0x64 SWAP1 REVERT JUMPDEST PUSH1 0x40 MLOAD PUSH3 0x461BCD PUSH1 0xE5 SHL DUP2 MSTORE PUSH1 0x20 PUSH1 0x4 DUP3 ADD MSTORE PUSH1 0x18 PUSH1 0x24 DUP3 ADD MSTORE PUSH32 0x4C6F636174696F6E2063616E6E6F7420626520656D7074790000000000000000 PUSH1 0x44 DUP3 ADD MSTORE PUSH1 0x64 SWAP1 REVERT JUMPDEST POP CALLVALUE PUSH2 0x313 JUMPI PUSH1 0x20 CALLDATASIZE PUSH1 0x3 NOT ADD SLT PUSH2 0x313 JUMPI PUSH1 0x4 CALLDATALOAD PUSH1 0x0 MSTORE PUSH1 0x0 PUSH1 0x20 MSTORE PUSH1 0x40 PUSH1 0x0 KECCAK256 PUSH2 0x921 PUSH1 0x1 DUP1 PUSH1 0xA0 SHL SUB DUP3 SLOAD AND SWAP2 PUSH2 0x20F2 PUSH1 0x1 DUP3 ADD PUSH2 0x21FD JUMP JUMPDEST PUSH1 0xFF PUSH2 0x2100 PUSH1 0x2 DUP5 ADD PUSH2 0x21FD JUMP JUMPDEST SWAP3 PUSH2 0x2143 PUSH1 0x3 DUP3 ADD SLOAD SWAP5 PUSH2 0x2135 PUSH2 0x211E PUSH1 0x6 PUSH1 0x4 DUP7 ADD SLOAD SWAP6 ADD PUSH2 0x21FD JUMP JUMPDEST SWAP6 PUSH1 0x40 MLOAD SWAP11 DUP12 SWAP11 DUP12 MSTORE DUP1 PUSH1 0x20 DUP13 ADD MSTORE DUP11 ADD SWAP1 PUSH2 0x22A3 JUMP JUMPDEST SWAP1 DUP9 DUP3 SUB PUSH1 0x40 DUP11 ADD MSTORE PUSH2 0x22A3 JUMP JUMPDEST SWAP4 PUSH1 0x60 DUP8 ADD MSTORE DUP2 DUP2 AND ISZERO ISZERO PUSH1 0x80 DUP8 ADD MSTORE PUSH1 0x8 SHR AND ISZERO ISZERO PUSH1 0xA0 DUP6 ADD MSTORE DUP4 DUP3 SUB PUSH1 0xC0 DUP6 ADD MSTORE PUSH2 0x22A3 JUMP JUMPDEST SWAP1 PUSH1 0x1 DUP3 DUP2 SHR SWAP3 AND DUP1 ISZERO PUSH2 0x219B JUMPI JUMPDEST PUSH1 0x20 DUP4 LT EQ PUSH2 0x2185 JUMPI JUMP JUMPDEST PUSH4 0x4E487B71 PUSH1 0xE0 SHL PUSH1 0x0 MSTORE PUSH1 0x22 PUSH1 0x4 MSTORE PUSH1 0x24 PUSH1 0x0 REVERT JUMPDEST SWAP2 PUSH1 0x7F AND SWAP2 PUSH2 0x217A JUMP JUMPDEST PUSH2 0x100 DUP2 ADD SWAP1 DUP2 LT PUSH1 0x1 PUSH1 0x1 PUSH1 0x40 SHL SUB DUP3 GT OR PUSH2 0xCF0 JUMPI PUSH1 0x40 MSTORE JUMP JUMPDEST PUSH1 0xA0 DUP2 ADD SWAP1 DUP2 LT PUSH1 0x1 PUSH1 0x1 PUSH1 0x40 SHL SUB DUP3 GT OR PUSH2 0xCF0 JUMPI PUSH1 0x40 MSTORE JUMP JUMPDEST SWAP1 PUSH1 0x1F DUP1 NOT SWAP2 ADD AND DUP2 ADD SWAP1 DUP2 LT PUSH1 0x1 PUSH1 0x1 PUSH1 0x40 SHL SUB DUP3 GT OR PUSH2 0xCF0 JUMPI PUSH1 0x40 MSTORE JUMP JUMPDEST SWAP1 PUSH1 0x40 MLOAD SWAP2 DUP3 PUSH1 0x0 DUP3 SLOAD SWAP3 PUSH2 0x2211 DUP5 PUSH2 0x216B JUMP JUMPDEST SWAP1 DUP2 DUP5 MSTORE PUSH1 0x1 SWAP5 DUP6 DUP2 AND SWAP1 DUP2 PUSH1 0x0 EQ PUSH2 0x2280 JUMPI POP PUSH1 0x1 EQ PUSH2 0x223D JUMPI JUMPDEST POP POP PUSH2 0x223B SWAP3 POP SUB DUP4 PUSH2 0x21DC JUMP JUMPDEST JUMP JUMPDEST SWAP1 SWAP4 SWAP2 POP PUSH1 0x0 MSTORE PUSH1 0x20 SWAP1 DUP2 PUSH1 0x0 KECCAK256 SWAP4 PUSH1 0x0 SWAP2 JUMPDEST DUP2 DUP4 LT PUSH2 0x2268 JUMPI POP POP PUSH2 0x223B SWAP4 POP DUP3 ADD ADD CODESIZE DUP1 PUSH2 0x222D JUMP JUMPDEST DUP6 SLOAD DUP9 DUP5 ADD DUP6 ADD MSTORE SWAP5 DUP6 ADD SWAP5 DUP8 SWAP5 POP SWAP2 DUP4 ADD SWAP2 PUSH2 0x2250 JUMP JUMPDEST SWAP2 POP POP PUSH2 0x223B SWAP5 POP PUSH1 0x20 SWAP3 POP PUSH1 0xFF NOT AND DUP3 DUP5 ADD MSTORE ISZERO ISZERO PUSH1 0x5 SHL DUP3 ADD ADD CODESIZE DUP1 PUSH2 0x222D JUMP JUMPDEST SWAP2 SWAP1 DUP3 MLOAD SWAP3 DUP4 DUP3 MSTORE PUSH1 0x0 JUMPDEST DUP5 DUP2 LT PUSH2 0x22CF JUMPI POP POP DUP3 PUSH1 0x0 PUSH1 0x20 DUP1 SWAP5 SWAP6 DUP5 ADD ADD MSTORE PUSH1 0x1F DUP1 NOT SWAP2 ADD AND ADD ADD SWAP1 JUMP JUMPDEST PUSH1 0x20 DUP2 DUP4 ADD DUP2 ADD MLOAD DUP5 DUP4 ADD DUP3 ADD MSTORE ADD PUSH2 0x22AE JUMP JUMPDEST DUP2 PUSH1 0x1F DUP3 ADD SLT ISZERO PUSH2 0x313 JUMPI DUP1 CALLDATALOAD SWAP1 PUSH1 0x1 PUSH1 0x1 PUSH1 0x40 SHL SUB DUP3 GT PUSH2 0xCF0 JUMPI PUSH1 0x40 MLOAD SWAP3 PUSH2 0x2317 PUSH1 0x1F DUP5 ADD PUSH1 0x1F NOT AND PUSH1 0x20 ADD DUP6 PUSH2 0x21DC JUMP JUMPDEST DUP3 DUP5 MSTORE PUSH1 0x20 DUP4 DUP4 ADD ADD GT PUSH2 0x313 JUMPI DUP2 PUSH1 0x0 SWAP3 PUSH1 0x20 DUP1 SWAP4 ADD DUP4 DUP7 ADD CALLDATACOPY DUP4 ADD ADD MSTORE SWAP1 JUMP JUMPDEST PUSH1 0x60 PUSH1 0x3 NOT DUP3 ADD SLT PUSH2 0x313 JUMPI PUSH1 0x1 PUSH1 0x1 PUSH1 0x40 SHL SUB SWAP2 PUSH1 0x4 CALLDATALOAD DUP4 DUP2 GT PUSH2 0x313 JUMPI DUP3 PUSH2 0x2365 SWAP2 PUSH1 0x4 ADD PUSH2 0x22E3 JUMP JUMPDEST SWAP3 PUSH1 0x24 CALLDATALOAD DUP2 DUP2 GT PUSH2 0x313 JUMPI DUP4 PUSH2 0x237D SWAP2 PUSH1 0x4 ADD PUSH2 0x22E3 JUMP JUMPDEST SWAP3 PUSH1 0x44 CALLDATALOAD SWAP2 DUP3 GT PUSH2 0x313 JUMPI PUSH2 0x2394 SWAP2 PUSH1 0x4 ADD PUSH2 0x22E3 JUMP JUMPDEST SWAP1 JUMP JUMPDEST PUSH1 0x4 CALLDATALOAD SWAP1 PUSH1 0x1 PUSH1 0x1 PUSH1 0xA0 SHL SUB DUP3 AND DUP3 SUB PUSH2 0x313 JUMPI JUMP JUMPDEST SWAP1 PUSH1 0x1 DUP1 PUSH1 0xA0 SHL SUB DUP3 MLOAD AND DUP2 MSTORE PUSH1 0xE0 DUP1 PUSH2 0x2400 PUSH2 0x23EE PUSH2 0x23DC PUSH1 0x20 DUP8 ADD MLOAD PUSH2 0x100 DUP1 PUSH1 0x20 DUP10 ADD MSTORE DUP8 ADD SWAP1 PUSH2 0x22A3 JUMP JUMPDEST PUSH1 0x40 DUP8 ADD MLOAD DUP7 DUP3 SUB PUSH1 0x40 DUP9 ADD MSTORE PUSH2 0x22A3 JUMP JUMPDEST PUSH1 0x60 DUP7 ADD MLOAD DUP6 DUP3 SUB PUSH1 0x60 DUP8 ADD MSTORE PUSH2 0x22A3 JUMP JUMPDEST SWAP4 PUSH1 0x80 DUP2 ADD MLOAD ISZERO ISZERO PUSH1 0x80 DUP6 ADD MSTORE PUSH1 0xA0 DUP2 ADD MLOAD ISZERO ISZERO PUSH1 0xA0 DUP6 ADD MSTORE PUSH1 0xC0 DUP2 ADD MLOAD PUSH1 0xC0 DUP6 ADD MSTORE ADD MLOAD SWAP2 ADD MSTORE SWAP1 JUMP JUMPDEST DUP1 SLOAD DUP3 LT ISZERO PUSH2 0x2443 JUMPI PUSH1 0x0 MSTORE PUSH1 0x20 PUSH1 0x0 KECCAK256 ADD SWAP1 PUSH1 0x0 SWAP1 JUMP JUMPDEST PUSH4 0x4E487B71 PUSH1 0xE0 SHL PUSH1 0x0 MSTORE PUSH1 0x32 PUSH1 0x4 MSTORE PUSH1 0x24 PUSH1 0x0 REVERT JUMPDEST SWAP2 SWAP1 PUSH1 0x1 DUP1 PUSH1 0xA0 SHL SUB SWAP1 DUP2 DUP5 MLOAD AND DUP2 MSTORE PUSH1 0x20 SWAP2 PUSH2 0x2498 PUSH2 0x2486 DUP5 DUP8 ADD MLOAD PUSH2 0x100 DUP1 DUP8 DUP8 ADD MSTORE DUP6 ADD SWAP1 PUSH2 0x22A3 JUMP JUMPDEST PUSH1 0x40 DUP8 ADD MLOAD DUP5 DUP3 SUB PUSH1 0x40 DUP7 ADD MSTORE PUSH2 0x22A3 JUMP JUMPDEST PUSH1 0x60 DUP7 ADD MLOAD PUSH1 0x60 DUP5 ADD MSTORE PUSH1 0x80 DUP7 ADD MLOAD ISZERO ISZERO PUSH1 0x80 DUP5 ADD MSTORE PUSH1 0xA0 DUP7 ADD MLOAD ISZERO ISZERO PUSH1 0xA0 DUP5 ADD MSTORE PUSH1 0xC0 DUP7 ADD MLOAD SWAP4 DUP4 DUP3 SUB PUSH1 0xC0 DUP6 ADD MSTORE DUP1 DUP1 DUP7 MLOAD SWAP4 DUP5 DUP2 MSTORE ADD SWAP6 ADD SWAP3 PUSH1 0x0 SWAP1 JUMPDEST DUP4 DUP3 LT PUSH2 0x24FB JUMPI POP POP POP POP POP PUSH1 0xE0 PUSH2 0x2394 SWAP4 SWAP5 ADD MLOAD SWAP1 PUSH1 0xE0 DUP2 DUP5 SUB SWAP2 ADD MSTORE PUSH2 0x22A3 JUMP JUMPDEST DUP5 MLOAD DUP2 AND DUP8 MSTORE SWAP6 DUP3 ADD SWAP6 SWAP4 DUP3 ADD SWAP4 PUSH1 0x1 SWAP1 SWAP2 ADD SWAP1 PUSH2 0x24D8 JUMP JUMPDEST DUP1 SLOAD DUP3 LT ISZERO PUSH2 0x2443 JUMPI PUSH1 0x0 MSTORE PUSH1 0x5 PUSH1 0x20 PUSH1 0x0 KECCAK256 SWAP2 MUL ADD SWAP1 PUSH1 0x0 SWAP1 JUMP JUMPDEST PUSH1 0x0 NOT DUP2 EQ PUSH2 0x253F JUMPI PUSH1 0x1 ADD SWAP1 JUMP JUMPDEST PUSH4 0x4E487B71 PUSH1 0xE0 SHL PUSH1 0x0 MSTORE PUSH1 0x11 PUSH1 0x4 MSTORE PUSH1 0x24 PUSH1 0x0 REVERT JUMPDEST PUSH1 0x1 PUSH1 0x1 PUSH1 0x40 SHL SUB DUP2 GT PUSH2 0xCF0 JUMPI PUSH1 0x5 SHL PUSH1 0x20 ADD SWAP1 JUMP JUMPDEST DUP2 DUP2 LT PUSH2 0x2577 JUMPI POP POP JUMP JUMPDEST PUSH1 0x0 DUP2 SSTORE PUSH1 0x1 ADD PUSH2 0x256C JUMP JUMPDEST SWAP1 SWAP2 PUSH2 0x259A PUSH2 0x2394 SWAP4 PUSH1 0x40 DUP5 MSTORE PUSH1 0x40 DUP5 ADD SWAP1 PUSH2 0x22A3 JUMP JUMPDEST SWAP2 PUSH1 0x20 DUP2 DUP5 SUB SWAP2 ADD MSTORE PUSH2 0x22A3 JUMP JUMPDEST ISZERO PUSH2 0x25AF JUMPI JUMP JUMPDEST PUSH1 0x40 MLOAD PUSH3 0x461BCD PUSH1 0xE5 SHL DUP2 MSTORE PUSH1 0x20 PUSH1 0x4 DUP3 ADD MSTORE PUSH1 0x15 PUSH1 0x24 DUP3 ADD MSTORE PUSH21 0x12195B1C195C881B9BDD081C9959DA5CDD195C9959 PUSH1 0x5A SHL PUSH1 0x44 DUP3 ADD MSTORE PUSH1 0x64 SWAP1 REVERT JUMPDEST ISZERO PUSH2 0x25F3 JUMPI JUMP JUMPDEST PUSH1 0x40 MLOAD PUSH3 0x461BCD PUSH1 0xE5 SHL DUP2 MSTORE PUSH1 0x20 PUSH1 0x4 DUP3 ADD MSTORE PUSH1 0x10 PUSH1 0x24 DUP3 ADD MSTORE PUSH16 0x125B9D985B1A5908185B195C9D081251 PUSH1 0x82 SHL PUSH1 0x44 DUP3 ADD MSTORE PUSH1 0x64 SWAP1 REVERT JUMPDEST ISZERO PUSH2 0x2632 JUMPI JUMP JUMPDEST PUSH1 0x40 MLOAD PUSH3 0x461BCD PUSH1 0xE5 SHL DUP2 MSTORE PUSH1 0x20 PUSH1 0x4 DUP3 ADD MSTORE PUSH1 0x10 PUSH1 0x24 DUP3 ADD MSTORE PUSH16 0x416C657274206E6F7420616374697665 PUSH1 0x80 SHL PUSH1 0x44 DUP3 ADD MSTORE PUSH1 0x64 SWAP1 REVERT JUMPDEST ISZERO PUSH2 0x2671 JUMPI JUMP JUMPDEST PUSH1 0x40 MLOAD PUSH3 0x461BCD PUSH1 0xE5 SHL DUP2 MSTORE PUSH1 0x20 PUSH1 0x4 DUP3 ADD MSTORE PUSH1 0x2A PUSH1 0x24 DUP3 ADD MSTORE PUSH32 0x4F6E6C7920616C6572742063726561746F722063616E20706572666F726D2074 PUSH1 0x44 DUP3 ADD MSTORE PUSH10 0x3434B99030B1BA34B7B7 PUSH1 0xB1 SHL PUSH1 0x64 DUP3 ADD MSTORE PUSH1 0x84 SWAP1 REVERT JUMPDEST ISZERO PUSH2 0x26D0 JUMPI JUMP JUMPDEST PUSH1 0x40 MLOAD PUSH3 0x461BCD PUSH1 0xE5 SHL DUP2 MSTORE PUSH1 0x20 PUSH1 0x4 DUP3 ADD MSTORE PUSH1 0x16 PUSH1 0x24 DUP3 ADD MSTORE PUSH22 0x105B195C9D08185B1C9958591E481C995CDBDB1D9959 PUSH1 0x52 SHL PUSH1 0x44 DUP3 ADD MSTORE PUSH1 0x64 SWAP1 REVERT JUMPDEST PUSH1 0x40 MLOAD SWAP1 PUSH2 0x271B DUP3 PUSH2 0x21A5 JUMP JUMPDEST PUSH1 0x60 PUSH1 0xE0 DUP4 PUSH1 0x0 DUP2 MSTORE DUP3 PUSH1 0x20 DUP3 ADD MSTORE DUP3 PUSH1 0x40 DUP3 ADD MSTORE PUSH1 0x0 DUP4 DUP3 ADD MSTORE PUSH1 0x0 PUSH1 0x80 DUP3 ADD MSTORE PUSH1 0x0 PUSH1 0xA0 DUP3 ADD MSTORE DUP3 PUSH1 0xC0 DUP3 ADD MSTORE ADD MSTORE JUMP JUMPDEST SWAP1 PUSH2 0x2758 DUP3 PUSH2 0x2555 JUMP JUMPDEST PUSH2 0x2765 PUSH1 0x40 MLOAD SWAP2 DUP3 PUSH2 0x21DC JUMP JUMPDEST DUP3 DUP2 MSTORE DUP1 SWAP3 PUSH2 0x2776 PUSH1 0x1F NOT SWAP2 PUSH2 0x2555 JUMP JUMPDEST ADD SWAP1 PUSH1 0x0 JUMPDEST DUP3 DUP2 LT PUSH2 0x2787 JUMPI POP POP POP JUMP JUMPDEST PUSH1 0x20 SWAP1 PUSH2 0x2792 PUSH2 0x270E JUMP JUMPDEST DUP3 DUP3 DUP6 ADD ADD MSTORE ADD PUSH2 0x277B JUMP JUMPDEST DUP1 MLOAD DUP3 LT ISZERO PUSH2 0x2443 JUMPI PUSH1 0x20 SWAP2 PUSH1 0x5 SHL ADD ADD SWAP1 JUMP JUMPDEST PUSH1 0x40 MLOAD SWAP1 PUSH2 0x27BF DUP3 PUSH2 0x21A5 JUMP JUMPDEST PUSH1 0x0 PUSH1 0xE0 DUP4 DUP3 DUP2 MSTORE PUSH1 0x60 PUSH1 0x20 DUP3 ADD MSTORE PUSH1 0x60 PUSH1 0x40 DUP3 ADD MSTORE PUSH1 0x60 DUP1 DUP3 ADD MSTORE DUP3 PUSH1 0x80 DUP3 ADD MSTORE DUP3 PUSH1 0xA0 DUP3 ADD MSTORE DUP3 PUSH1 0xC0 DUP3 ADD MSTORE ADD MSTORE JUMP INVALID LOG2 PUSH5 0x6970667358 0x22 SLT KECCAK256 0xC7 LOG0 PUSH24 0xEBD31677EA980E8DCFF874858DF3C44505C4144387022576 PUSH17 0x55303B4164736F6C634300081400330000 "},"methodIdentifiers":{"admin()":"f851a440","alertCount()":"ab446491","alertResponses(uint256,uint256)":"ad969d5b","alerts(uint256)":"171d073a","cancelAlert(uint256)":"95784219","getActiveAlerts()":"fa2956dc","getAlert(uint256)":"85081886","getAlertResponses(uint256)":"d669dc05","getHelper(address)":"75d39356","getUserAlerts(address)":"cb9ba736","getVerifiedHelpers()":"6545d8a9","helperCount()":"da0ff2c6","helpers(address)":"2a41e02e","rateHelper(uint256,address,uint8)":"ee118728","registerHelper(string,string,string)":"8f753e08","resolveAlert(uint256)":"2e0e053f","respondToAlert(uint256,string,string)":"2472de64","setHelperAvailability(bool)":"da086032","triggerAlert(string,string,string)":"1c07dc8b","userAlerts(address,uint256)":"6db5e0c6","verifiedHelpers(address)":"70eba3b1","verifyHelper(address)":"4d8255bb"}}}}}