{"contracts/SistaCircle.sol":{"SistaCircle":{"abi":[{"inputs":[],"stateMutability":"nonpayable","type":"constructor"},{"anonymous":false,"inputs":[{"indexed":true,"internalType":"uint256","name":"circleId","type":"uint256"}],"name":"CircleCompleted","type":"event"},{"anonymous":false,"inputs":[{"indexed":true,"internalType":"uint256","name":"circleId","type":"uint256"},{"indexed":true,"internalType":"address","name":"creator","type":"address"},{"indexed":false,"internalType":"string","name":"name","type":"string"}],"name":"CircleCreated","type":"event"},{"anonymous":false,"inputs":[{"indexed":true,"internalType":"uint256","name":"circleId","type":"uint256"},{"indexed":true,"internalType":"address","name":"member","type":"address"},{"indexed":false,"internalType":"uint256","name":"amount","type":"uint256"}],"name":"ContributionMade","type":"event"},{"anonymous":false,"inputs":[{"indexed":true,"internalType":"uint256","name":"circleId","type":"uint256"},{"indexed":true,"internalType":"address","name":"member","type":"address"},{"indexed":false,"internalType":"uint256","name":"amount","type":"uint256"}],"name":"EmergencyWithdrawal","type":"event"},{"anonymous":false,"inputs":[{"indexed":true,"internalType":"uint256","name":"circleId","type":"uint256"},{"indexed":true,"internalType":"address","name":"member","type":"address"}],"name":"MemberJoined","type":"event"},{"anonymous":false,"inputs":[{"indexed":true,"internalType":"address","name":"member","type":"address"}],"name":"MemberVerified","type":"event"},{"anonymous":false,"inputs":[{"indexed":true,"internalType":"address","name":"previousOwner","type":"address"},{"indexed":true,"internalType":"address","name":"newOwner","type":"address"}],"name":"OwnershipTransferred","type":"event"},{"anonymous":false,"inputs":[{"indexed":true,"internalType":"uint256","name":"circleId","type":"uint256"},{"indexed":true,"internalType":"address","name":"recipient","type":"address"},{"indexed":false,"internalType":"uint256","name":"amount","type":"uint256"}],"name":"PayoutDistributed","type":"event"},{"inputs":[{"internalType":"uint256","name":"","type":"uint256"}],"name":"circles","outputs":[{"internalType":"uint256","name":"id","type":"uint256"},{"internalType":"string","name":"name","type":"string"},{"internalType":"string","name":"description","type":"string"},{"internalType":"address","name":"creator","type":"address"},{"internalType":"uint256","name":"contributionAmount","type":"uint256"},{"internalType":"uint256","name":"totalRounds","type":"uint256"},{"internalType":"uint256","name":"currentRound","type":"uint256"},{"internalType":"uint256","name":"maxMembers","type":"uint256"},{"internalType":"uint256","name":"memberCount","type":"uint256"},{"internalType":"uint256","name":"startTime","type":"uint256"},{"internalType":"uint256","name":"roundDuration","type":"uint256"},{"internalType":"enum SistaCircle.CircleState","name":"state","type":"uint8"},{"internalType":"bool","name":"requiresApproval","type":"bool"},{"internalType":"uint256","name":"totalFunds","type":"uint256"},{"internalType":"uint256","name":"emergencyFund","type":"uint256"}],"stateMutability":"view","type":"function"},{"inputs":[{"internalType":"uint256","name":"_circleId","type":"uint256"}],"name":"claimPayout","outputs":[],"stateMutability":"nonpayable","type":"function"},{"inputs":[{"internalType":"uint256","name":"_circleId","type":"uint256"}],"name":"contribute","outputs":[],"stateMutability":"payable","type":"function"},{"inputs":[{"internalType":"string","name":"_name","type":"string"},{"internalType":"string","name":"_description","type":"string"},{"internalType":"uint256","name":"_contributionAmount","type":"uint256"},{"internalType":"uint256","name":"_totalRounds","type":"uint256"},{"internalType":"uint256","name":"_maxMembers","type":"uint256"},{"internalType":"uint256","name":"_roundDuration","type":"uint256"},{"internalType":"bool","name":"_requiresApproval","type":"bool"}],"name":"createCircle","outputs":[],"stateMutability":"nonpayable","type":"function"},{"inputs":[{"internalType":"uint256","name":"_circleId","type":"uint256"}],"name":"emergencyWithdraw","outputs":[],"stateMutability":"nonpayable","type":"function"},{"inputs":[{"internalType":"uint256","name":"_circleId","type":"uint256"}],"name":"getCircleInfo","outputs":[{"components":[{"internalType":"uint256","name":"id","type":"uint256"},{"internalType":"string","name":"name","type":"string"},{"internalType":"string","name":"description","type":"string"},{"internalType":"address","name":"creator","type":"address"},{"internalType":"uint256","name":"contributionAmount","type":"uint256"},{"internalType":"uint256","name":"totalRounds","type":"uint256"},{"internalType":"uint256","name":"currentRound","type":"uint256"},{"internalType":"uint256","name":"maxMembers","type":"uint256"},{"internalType":"uint256","name":"memberCount","type":"uint256"},{"internalType":"uint256","name":"startTime","type":"uint256"},{"internalType":"uint256","name":"roundDuration","type":"uint256"},{"internalType":"enum SistaCircle.CircleState","name":"state","type":"uint8"},{"internalType":"bool","name":"requiresApproval","type":"bool"},{"internalType":"uint256","name":"totalFunds","type":"uint256"},{"internalType":"uint256","name":"emergencyFund","type":"uint256"}],"internalType":"struct SistaCircle.CircleInfo","name":"","type":"tuple"}],"stateMutability":"view","type":"function"},{"inputs":[{"internalType":"uint256","name":"_circleId","type":"uint256"},{"internalType":"address","name":"_member","type":"address"}],"name":"getMemberInfo","outputs":[{"components":[{"internalType":"bool","name":"isActive","type":"bool"},{"internalType":"enum SistaCircle.MemberStatus","name":"status","type":"uint8"},{"internalType":"uint256","name":"contributionsMade","type":"uint256"},{"internalType":"uint256","name":"roundReceived","type":"uint256"},{"internalType":"uint256","name":"lastContributionTime","type":"uint256"},{"internalType":"string","name":"profileInfo","type":"string"}],"internalType":"struct SistaCircle.Member","name":"","type":"tuple"}],"stateMutability":"view","type":"function"},{"inputs":[{"internalType":"uint256","name":"_circleId","type":"uint256"},{"internalType":"uint256","name":"_round","type":"uint256"}],"name":"getRoundRecipient","outputs":[{"internalType":"address","name":"","type":"address"}],"stateMutability":"view","type":"function"},{"inputs":[],"name":"getTotalCircles","outputs":[{"internalType":"uint256","name":"","type":"uint256"}],"stateMutability":"view","type":"function"},{"inputs":[{"internalType":"address","name":"_user","type":"address"}],"name":"getUserCircles","outputs":[{"internalType":"uint256[]","name":"","type":"uint256[]"}],"stateMutability":"view","type":"function"},{"inputs":[{"internalType":"uint256","name":"_circleId","type":"uint256"}],"name":"joinCircle","outputs":[],"stateMutability":"payable","type":"function"},{"inputs":[],"name":"owner","outputs":[{"internalType":"address","name":"","type":"address"}],"stateMutability":"view","type":"function"},{"inputs":[],"name":"renounceOwnership","outputs":[],"stateMutability":"nonpayable","type":"function"},{"inputs":[{"internalType":"address","name":"newOwner","type":"address"}],"name":"transferOwnership","outputs":[],"stateMutability":"nonpayable","type":"function"},{"inputs":[{"internalType":"address","name":"","type":"address"},{"internalType":"uint256","name":"","type":"uint256"}],"name":"userCircles","outputs":[{"internalType":"uint256","name":"","type":"uint256"}],"stateMutability":"view","type":"function"},{"inputs":[{"internalType":"address","name":"","type":"address"}],"name":"verifiedMembers","outputs":[{"internalType":"bool","name":"","type":"bool"}],"stateMutability":"view","type":"function"},{"inputs":[{"internalType":"address","name":"_member","type":"address"}],"name":"verifyMember","outputs":[],"stateMutability":"nonpayable","type":"function"},{"stateMutability":"payable","type":"receive"}],"evm":{"bytecode":{"linkReferences":{},"object":"6080806040523461005e57600160008181558154336001600160a01b0319821681179093556001600160a01b0316907f8be0079c531659141344cd1fd0a4f28419497f9722a3daafe3b4186f6b6457e09080a36121b490816100648239f35b600080fdfe6080604052600436101561001b575b361561001957600080fd5b005b60003560e01c80630950dc1f14611c5957806311a7001d1461152257806312353076146115045780631e67939e146113c1578063482ab94a1461135e5780635312ea8e1461112a578063715018a6146110cd57806386d6cfb314610cbd57806387da1ddf14610c7e57806388e81d8a14610bca5780638a69614e1461093d5780638da5cb5b14610914578063bc5e0f3014610805578063c1cbbca714610477578063da5f5cff1461020d578063eae25d42146101a45763f2fde38b0361000e573461019f57602036600319011261019f576100f4611cb1565b6100fc611f0f565b6001600160a01b0390811690811561014b57600154826001600160601b0360a01b821617600155167f8be0079c531659141344cd1fd0a4f28419497f9722a3daafe3b4186f6b6457e0600080a3005b60405162461bcd60e51b815260206004820152602660248201527f4f776e61626c653a206e6577206f776e657220697320746865207a65726f206160448201526564647265737360d01b6064820152608490fd5b600080fd5b3461019f57602036600319011261019f576101bd611cb1565b6101c5611f0f565b6001600160a01b03166000818152600560205260408120805460ff191660011790557fe9728d5d2e2da57ffaf3e5267ed579f306d06e34cf58508a23d7dd661ab6838e9080a2005b3461019f57602036600319011261019f5760006101c060405161022f81611d11565b82815260606020820152606060408201528260608201528260808201528260a08201528260c08201528260e08201528261010082015282610120820152826101408201528261016082015282610180820152826101a08201520152600254600435908111158061046e575b6102a390611ff6565b60005260036020526040600020805490600160a01b600190036003820154166004820154600583015460068401546007850154600886015490600987015492600a88015494600b89015496600c8a015498600d8b01549a6040519c6103078e611d11565b8d528c61031660018301611e69565b906020015260020161032790611e69565b60408d015260608c015260808b015260a08a015260c089015260e088015261010087015261012086015261014085015261036360ff8216611dcf565b60ff811661016085015260081c60ff1615156101808401526101a08301526101c0820152604051809160208252805160208301526020810151604083016101e0905261020083016103b391611def565b6040820151838203601f190160608501526103ce9190611def565b90600160a01b600190036060820151166080840152608081015160a084015260a081015160c084015260c081015160e084015260e081015161010084015261010081015161012084015261012081015161014084015261014081015161016084015261016081015161043f81611dcf565b61018084015261018081015115156101a08401526101a08101516101c08401526101c001516101e08301520390f35b5080151561029a565b60208060031936011261019f5760043590600254821115806107fc575b61049d90611ff6565b81600052600390818152600e60406000200133600052815260ff916104c883604060002054166120df565b6104d0612089565b8360005280825260406000209033600052600e82018352604060002061050585600b850154166104ff81611dcf565b1561203a565b60098301549586156107c2576004840154340361077d5781549386600895861c1661052f81611dcf565b61073857600692610552848301549961054c600a8501548c612121565b90612134565b42116106f357600198898201908154908110156106ae576105729061207a565b90558442910155600534023481046005143415171561069857600d60646105bc9299969904926105a28434612141565b6105b1600c8301918254612134565b905501918254612134565b9055604051348152817f0a4a91237423e0a1766a761c7cb029311d8b95d6b1b81db1b949a70c98b4e08e873393a36000528484526040600020916000946000916010850197885498600e8701945b8a81106106185760008c9055005b6106228183611cc7565b905490841b1c6001600160a01b0316600081815287875260409020548a1c851661064b81611dcf565b15908161067c575b50610667575b6106629061207a565b61060a565b986106746106629161207a565b999050610659565b90506000528585528b604060002001548789015411158d610653565b634e487b7160e01b600052601160045260246000fd5b60405162461bcd60e51b8152600481018a9052601e60248201527f416c726561647920636f6e7472696275746564207468697320726f756e6400006044820152606490fd5b60405162461bcd60e51b815260048101889052601f60248201527f526f756e6420636f6e747269627574696f6e20706572696f6420656e646564006044820152606490fd5b60405162461bcd60e51b815260048101879052601b60248201527f4d656d626572206e6f7420696e20676f6f64207374616e64696e6700000000006044820152606490fd5b60405162461bcd60e51b815260048101869052601d60248201527f496e636f727265637420636f6e747269627574696f6e20616d6f756e740000006044820152606490fd5b60405162461bcd60e51b815260048101869052601260248201527110da5c98db19481b9bdd081cdd185c9d195960721b6044820152606490fd5b50811515610494565b3461019f57602036600319011261019f576004356000526003602052604060002080546001820161083590611e69565b9161084260028201611e69565b600160a01b60019003600383015416916004810154600582015460068301546007840154600885015490600986015492600a87015494600b88015496600c89015498600d0154996040519d8e9d8e528d6101e090816020820152016108a691611def565b8d810360408f01526108b791611def565b9a60608d015260808c015260a08b015260c08a015260e089015261010088015261012087015261014086015260ff81166108f081611dcf565b61016086015260081c60ff1615156101808501526101a08401526101c08301520390f35b3461019f57600036600319011261019f576001546040516001600160a01b039091168152602090f35b3461019f5760208060031936011261019f576004359060025482111580610bc1575b61096890611ff6565b8160005260038152600e60406000200133600052815261098f60ff604060002054166120df565b610997612089565b8160005260038152604060002090600682019081549081600052600f840181523360018060a01b036040600020541603610b7d57600e840133600052808252600260406000200154610b38576109f66004860154600887015490612121565b92600c86019184835410610afe57336000528352600260406000200155610a1e838254612141565b9055600080808085335af1610a3161214e565b5015610ac1577f829a492b098e906d67afcc4c67889ac97486df205cd59c8749f8f61d7822038285916040519384523393a3805460058301548103610aad575050600b01805460ff191660011790557ffccd3901546cfbb42742cac2c7335bce34f1f8d9844f4f4b53640f79e3101087600080a25b6001600055005b909250610aba915061207a565b9055610aa6565b6064906040519062461bcd60e51b82526004820152601660248201527514185e5bdd5d081d1c985b9cd9995c8819985a5b195960521b6044820152fd5b60405162461bcd60e51b8152600481018590526012602482015271496e73756666696369656e742066756e647360701b6044820152606490fd5b60405162461bcd60e51b815260048101839052601760248201527f416c7265616479207265636569766564207061796f75740000000000000000006044820152606490fd5b6064906040519062461bcd60e51b82526004820152601c60248201527f4e6f7420726563697069656e7420666f72207468697320726f756e64000000006044820152fd5b5081151561095f565b3461019f5760208060031936011261019f576001600160a01b03610bec611cb1565b1660005260048152604060002060405190818382549182815201908192600052846000209060005b86828210610c6a578686610c2a82880383611d4a565b604051928392818401908285525180915260408401929160005b828110610c5357505050500390f35b835185528695509381019392810192600101610c44565b835485529093019260019283019201610c14565b3461019f57602036600319011261019f576001600160a01b03610c9f611cb1565b166000526005602052602060ff604060002054166040519015158152f35b602036600319011261019f576002546004351115806110c2575b610ce090611ff6565b610ce8612089565b60043560005260036020526040600020610d0c60ff600b830154166104ff81611dcf565b60088101546007820154111561108c57600e8101336000528060205260ff604060002054166110545760098201546110165760405190610d4b82611cf5565b6001825260208201600081526040830160008152606084019060008252610dc160808601936000855260405195610d8187611d2e565b6000875260a0880196875233600052602052610db1604060002097511515889060ff801983541691151516179055565b51610dbb81611dcf565b86611f67565b5160018501555160028401555160038301555180519067ffffffffffffffff821161100057610df36004840154611e2f565b601f8111610fb5575b50602090601f8311600114610f45576004929160009183610f3a575b50508160011b916000199060031b1c1916179101555b610e3b3360108301611f86565b610e48600882015461207a565b6008820155336000526004602052610e666004356040600020611fc1565b6008810154600782015414610ea6575b336004357f78da64a590c3052953ad9e0a5546bbf12bb68ae7634e3fb2a774e22a8c6557c1600080a36001600055005b60066001914260098201550155600435600052600360205260406000206000906005810190600f601082019101925b8254811015610f3057610ee88183611cc7565b905460018301929160031b1c6001600160a01b031682821161069857610f2b92600052856020526040600020906001600160601b0360a01b82541617905561207a565b610ed5565b5050505080610e76565b015190508580610e18565b906004840160005260206000209160005b601f1985168110610f9d5750918391600193600495601f19811610610f84575b505050811b01910155610e2e565b015160001960f88460031b161c19169055858080610f76565b91926020600181928685015181550194019201610f56565b600484016000526020600020601f840160051c81019160208510610ff6575b601f0160051c01905b818110610fea5750610dfc565b60008155600101610fdd565b9091508190610fd4565b634e487b7160e01b600052604160045260246000fd5b60405162461bcd60e51b815260206004820152601660248201527510da5c98db1948185b1c9958591e481cdd185c9d195960521b6044820152606490fd5b60405162461bcd60e51b815260206004820152601060248201526f20b63932b0b23c90309036b2b6b132b960811b6044820152606490fd5b60405162461bcd60e51b815260206004820152600e60248201526d10da5c98db19481a5cc8199d5b1b60921b6044820152606490fd5b506004351515610cd7565b3461019f57600036600319011261019f576110e6611f0f565b600180546001600160a01b031981169091556000906001600160a01b03167f8be0079c531659141344cd1fd0a4f28419497f9722a3daafe3b4186f6b6457e08280a3005b3461019f5760208060031936011261019f5760043560025481111580611355575b61115490611ff6565b8060005260038252600e60406000200133600052825261117b60ff604060002054166120df565b611183612089565b806000526003825260406000209133600052600e83018152604060002080549060ff8260081c166111b381611dcf565b61131c57600181015480156112df5760048601546111d091612121565b605081029080820460501490151715610698576064600d91049501918583541061129a576102009061ff00191617905561120b848254612141565b9055600080808086335af161121e61214e565b5015611256577f18fcb562d23857df60e33824b748cb5c3af4e22375458317e7a33e52a971413f906040519384523393a36001600055005b6064906040519062461bcd60e51b82526004820152601b60248201527f456d657267656e6379207769746864726177616c206661696c656400000000006044820152fd5b60405162461bcd60e51b815260048101859052601c60248201527f496e73756666696369656e7420656d657267656e63792066756e6473000000006044820152606490fd5b60405162461bcd60e51b81526004810185905260156024820152744e6f20636f6e747269627574696f6e73206d61646560581b6044820152606490fd5b60405162461bcd60e51b81526004810184905260116024820152704d656d626572206e6f742061637469766560781b6044820152606490fd5b5080151561114b565b3461019f57604036600319011261019f57600435600254811115806113b8575b61138790611ff6565b6000526003602052600f604060002001602435600052602052602060018060a01b0360406000205416604051908152f35b5080151561137e565b3461019f57604036600319011261019f576004356024356001600160a01b0381169081900361019f57604051916113f783611cf5565b60008352606060a060209460008682015260006040820152600083820152600060808201520152600254811115806114fb575b61143390611ff6565b60005260038252600e60406000200190600052815260406000206114f76040519161145d83611cf5565b60ff81548181161515855260081c16908484019161147a81611dcf565b8252600181015460408501908152600282015490606086019182526114ad60046003850154946080890195865201611e69565b9360a0870194855260405197889781895251151590880152516114cf81611dcf565b60408701525160608601525160808501525160a08401525160c08084015260e0830190611def565b0390f35b5080151561142a565b3461019f57600036600319011261019f576020600254604051908152f35b3461019f5760e036600319011261019f5760043567ffffffffffffffff811161019f57611553903690600401611d88565b602490813567ffffffffffffffff811161019f57611575903690600401611d88565b60c43592831515840361019f57604493843515611c09576002606435101580611bfc575b15611bc1576003608435101580611bb4575b15611b715760643560843503611b2e576201518060a43510611aeb576001600254019485600255856000526003602052604060002093868555855167ffffffffffffffff8111611a17576116026001870154611e2f565b601f8111611aa4575b50806020601f8211600114611a3757600091611a2c575b508160011b916000199060031b1c19161760018601555b80519067ffffffffffffffff8211611a1757819061165a6002880154611e2f565b601f81116119c4575b50602090601f831160011461195257600092611947575b50508160011b916000199060031b1c19161760028501555b60038401336001600160601b0360a01b8254161790553560048401556064356005840155600060068401556084356007840155600160088401556000600984015560a435600a840155600b83019061ff00825491151560081b169061ffff19161790556040519061170282611cf5565b6001825260046020830192600084526040810160008152606082016000815260808301916000835261177e6040519761173a89611d2e565b6000895260a0860198895233600052600e8a0160205261176e604060002096511515879060ff801983541691151516179055565b5161177881611dcf565b85611f67565b51600184015551600283015551600382015501915180519167ffffffffffffffff831161193357506117b08354611e2f565b601f81116118eb575b50602090601f831160011461187e576117f79493929160009183611873575b50508160011b916000199060031b1c19161790555b6010339101611f86565b33600052600460205261180e826040600020611fc1565b817f6f657d36deb3b1aa2e949c5df40eac9d79359a73c2402cefa7aee870f9ceafc0604051602081528061184733956020830190611def565b0390a333907f78da64a590c3052953ad9e0a5546bbf12bb68ae7634e3fb2a774e22a8c6557c1600080a3005b0151905087806117d8565b90601f198316918460005260206000209260005b8181106118d357509160019391856117f798979694106118ba575b505050811b0190556117ed565b015160001960f88460031b161c191690558780806118ad565b92936020600181928786015181550195019301611892565b836000526020600020601f840160051c81019160208510611929575b601f0160051c01905b81811061191d57506117b9565b60008155600101611910565b9091508190611907565b634e487b7160e01b60009081526041600452fd5b01519050888061167a565b9250600287016000526020600020906000935b601f19841685106119a9576001945083601f19811610611990575b505050811b016002850155611692565b015160001960f88460031b161c19169055888080611980565b81810151835560209485019460019093019290910190611965565b909150600287016000526020600020601f840160051c810160208510611a10575b90849392915b601f830160051c82018110611a01575050611663565b600081558594506001016119eb565b50806119e5565b84634e487b7160e01b60005260416004526000fd5b905087015189611622565b91506001870160005260206000206000925b601f1983168410611a8c576001935082601f19811610611a73575b5050811b016001860155611639565b89015160001960f88460031b161c191690558980611a64565b89810151825560209384019360019092019101611a49565b600187016000526020600020601f830160051c810160208410611ae4575b601f830160051c82018110611ad857505061160b565b60008155600101611ac2565b5080611ac2565b60405162461bcd60e51b815260206004820152601f818401527f4d696e696d756d20726f756e64206475726174696f6e2069732031206461790081870152606490fd5b60405162461bcd60e51b8152602060048201526019818401527f4d656d62657273206d75737420657175616c20726f756e64730000000000000081870152606490fd5b60405162461bcd60e51b815260206004820152601b818401527f496e76616c6964206d656d62657220636f756e742028332d323029000000000081870152606490fd5b50601460843511156115ab565b60405162461bcd60e51b81526020600482015260158184015274496e76616c696420726f756e64732028322d35322960581b81870152606490fd5b5060346064351115611599565b60405162461bcd60e51b8152602060048201528083018390527f436f6e747269627574696f6e20616d6f756e74206d75737420626520706f736981870152637469766560e01b6064820152608490fd5b3461019f57604036600319011261019f57611c72611cb1565b6001600160a01b031660009081526004602052604090208054602435919082101561019f57602091611ca391611cc7565b90546040519160031b1c8152f35b600435906001600160a01b038216820361019f57565b8054821015611cdf5760005260206000200190600090565b634e487b7160e01b600052603260045260246000fd5b60c0810190811067ffffffffffffffff82111761100057604052565b6101e0810190811067ffffffffffffffff82111761100057604052565b6020810190811067ffffffffffffffff82111761100057604052565b90601f8019910116810190811067ffffffffffffffff82111761100057604052565b67ffffffffffffffff811161100057601f01601f191660200190565b81601f8201121561019f57803590611d9f82611d6c565b92611dad6040519485611d4a565b8284526020838301011161019f57816000926020809301838601378301015290565b60031115611dd957565b634e487b7160e01b600052602160045260246000fd5b919082519283825260005b848110611e1b575050826000602080949584010152601f8019910116010190565b602081830181015184830182015201611dfa565b90600182811c92168015611e5f575b6020831014611e4957565b634e487b7160e01b600052602260045260246000fd5b91607f1691611e3e565b9060405191826000825492611e7d84611e2f565b908184526001948581169081600014611eec5750600114611ea9575b5050611ea792500383611d4a565b565b9093915060005260209081600020936000915b818310611ed4575050611ea793508201013880611e99565b85548884018501529485019487945091830191611ebc565b915050611ea794506020925060ff191682840152151560051b8201013880611e99565b6001546001600160a01b03163303611f2357565b606460405162461bcd60e51b815260206004820152602060248201527f4f776e61626c653a2063616c6c6572206973206e6f7420746865206f776e65726044820152fd5b90611f7181611dcf565b61ff0082549160081b169061ff001916179055565b8054600160401b81101561100057611fa391600182018155611cc7565b819291549060031b9160018060a01b03809116831b921b1916179055565b8054600160401b81101561100057611fde91600182018155611cc7565b819291549060031b91821b91600019901b1916179055565b15611ffd57565b60405162461bcd60e51b815260206004820152601560248201527410da5c98db1948191bd95cc81b9bdd08195e1a5cdd605a1b6044820152606490fd5b1561204157565b60405162461bcd60e51b8152602060048201526011602482015270436972636c65206e6f742061637469766560781b6044820152606490fd5b60001981146106985760010190565b60026000541461209a576002600055565b60405162461bcd60e51b815260206004820152601f60248201527f5265656e7472616e637947756172643a207265656e7472616e742063616c6c006044820152606490fd5b156120e657565b60405162461bcd60e51b81526020600482015260136024820152722737ba10309031b4b931b6329036b2b6b132b960691b6044820152606490fd5b8181029291811591840414171561069857565b9190820180921161069857565b9190820391821161069857565b3d15612179573d9061215f82611d6c565b9161216d6040519384611d4a565b82523d6000602084013e565b60609056fea2646970667358221220ee409aec3b415419b4f70ea1505eee8ffc0555fadab204340c79e90af73f88dd64736f6c63430008140033","opcodes":"PUSH1 0x80 DUP1 PUSH1 0x40 MSTORE CALLVALUE PUSH2 0x5E JUMPI PUSH1 0x1 PUSH1 0x0 DUP2 DUP2 SSTORE DUP2 SLOAD CALLER PUSH1 0x1 PUSH1 0x1 PUSH1 0xA0 SHL SUB NOT DUP3 AND DUP2 OR SWAP1 SWAP4 SSTORE PUSH1 0x1 PUSH1 0x1 PUSH1 0xA0 SHL SUB AND SWAP1 PUSH32 0x8BE0079C531659141344CD1FD0A4F28419497F9722A3DAAFE3B4186F6B6457E0 SWAP1 DUP1 LOG3 PUSH2 0x21B4 SWAP1 DUP2 PUSH2 0x64 DUP3 CODECOPY RETURN JUMPDEST PUSH1 0x0 DUP1 REVERT INVALID PUSH1 0x80 PUSH1 0x40 MSTORE PUSH1 0x4 CALLDATASIZE LT ISZERO PUSH2 0x1B JUMPI JUMPDEST CALLDATASIZE ISZERO PUSH2 0x19 JUMPI PUSH1 0x0 DUP1 REVERT JUMPDEST STOP JUMPDEST PUSH1 0x0 CALLDATALOAD PUSH1 0xE0 SHR DUP1 PUSH4 0x950DC1F EQ PUSH2 0x1C59 JUMPI DUP1 PUSH4 0x11A7001D EQ PUSH2 0x1522 JUMPI DUP1 PUSH4 0x12353076 EQ PUSH2 0x1504 JUMPI DUP1 PUSH4 0x1E67939E EQ PUSH2 0x13C1 JUMPI DUP1 PUSH4 0x482AB94A EQ PUSH2 0x135E JUMPI DUP1 PUSH4 0x5312EA8E EQ PUSH2 0x112A JUMPI DUP1 PUSH4 0x715018A6 EQ PUSH2 0x10CD JUMPI DUP1 PUSH4 0x86D6CFB3 EQ PUSH2 0xCBD JUMPI DUP1 PUSH4 0x87DA1DDF EQ PUSH2 0xC7E JUMPI DUP1 PUSH4 0x88E81D8A EQ PUSH2 0xBCA JUMPI DUP1 PUSH4 0x8A69614E EQ PUSH2 0x93D JUMPI DUP1 PUSH4 0x8DA5CB5B EQ PUSH2 0x914 JUMPI DUP1 PUSH4 0xBC5E0F30 EQ PUSH2 0x805 JUMPI DUP1 PUSH4 0xC1CBBCA7 EQ PUSH2 0x477 JUMPI DUP1 PUSH4 0xDA5F5CFF EQ PUSH2 0x20D JUMPI DUP1 PUSH4 0xEAE25D42 EQ PUSH2 0x1A4 JUMPI PUSH4 0xF2FDE38B SUB PUSH2 0xE JUMPI CALLVALUE PUSH2 0x19F JUMPI PUSH1 0x20 CALLDATASIZE PUSH1 0x3 NOT ADD SLT PUSH2 0x19F JUMPI PUSH2 0xF4 PUSH2 0x1CB1 JUMP JUMPDEST PUSH2 0xFC PUSH2 0x1F0F JUMP JUMPDEST PUSH1 0x1 PUSH1 0x1 PUSH1 0xA0 SHL SUB SWAP1 DUP2 AND SWAP1 DUP2 ISZERO PUSH2 0x14B JUMPI PUSH1 0x1 SLOAD DUP3 PUSH1 0x1 PUSH1 0x1 PUSH1 0x60 SHL SUB PUSH1 0xA0 SHL DUP3 AND OR PUSH1 0x1 SSTORE AND PUSH32 0x8BE0079C531659141344CD1FD0A4F28419497F9722A3DAAFE3B4186F6B6457E0 PUSH1 0x0 DUP1 LOG3 STOP JUMPDEST PUSH1 0x40 MLOAD PUSH3 0x461BCD PUSH1 0xE5 SHL DUP2 MSTORE PUSH1 0x20 PUSH1 0x4 DUP3 ADD MSTORE PUSH1 0x26 PUSH1 0x24 DUP3 ADD MSTORE PUSH32 0x4F776E61626C653A206E6577206F776E657220697320746865207A65726F2061 PUSH1 0x44 DUP3 ADD MSTORE PUSH6 0x646472657373 PUSH1 0xD0 SHL PUSH1 0x64 DUP3 ADD MSTORE PUSH1 0x84 SWAP1 REVERT JUMPDEST PUSH1 0x0 DUP1 REVERT JUMPDEST CALLVALUE PUSH2 0x19F JUMPI PUSH1 0x20 CALLDATASIZE PUSH1 0x3 NOT ADD SLT PUSH2 0x19F JUMPI PUSH2 0x1BD PUSH2 0x1CB1 JUMP JUMPDEST PUSH2 0x1C5 PUSH2 0x1F0F JUMP JUMPDEST PUSH1 0x1 PUSH1 0x1 PUSH1 0xA0 SHL SUB AND PUSH1 0x0 DUP2 DUP2 MSTORE PUSH1 0x5 PUSH1 0x20 MSTORE PUSH1 0x40 DUP2 KECCAK256 DUP1 SLOAD PUSH1 0xFF NOT AND PUSH1 0x1 OR SWAP1 SSTORE PUSH32 0xE9728D5D2E2DA57FFAF3E5267ED579F306D06E34CF58508A23D7DD661AB6838E SWAP1 DUP1 LOG2 STOP JUMPDEST CALLVALUE PUSH2 0x19F JUMPI PUSH1 0x20 CALLDATASIZE PUSH1 0x3 NOT ADD SLT PUSH2 0x19F JUMPI PUSH1 0x0 PUSH2 0x1C0 PUSH1 0x40 MLOAD PUSH2 0x22F DUP2 PUSH2 0x1D11 JUMP JUMPDEST DUP3 DUP2 MSTORE PUSH1 0x60 PUSH1 0x20 DUP3 ADD MSTORE PUSH1 0x60 PUSH1 0x40 DUP3 ADD MSTORE DUP3 PUSH1 0x60 DUP3 ADD MSTORE DUP3 PUSH1 0x80 DUP3 ADD MSTORE DUP3 PUSH1 0xA0 DUP3 ADD MSTORE DUP3 PUSH1 0xC0 DUP3 ADD MSTORE DUP3 PUSH1 0xE0 DUP3 ADD MSTORE DUP3 PUSH2 0x100 DUP3 ADD MSTORE DUP3 PUSH2 0x120 DUP3 ADD MSTORE DUP3 PUSH2 0x140 DUP3 ADD MSTORE DUP3 PUSH2 0x160 DUP3 ADD MSTORE DUP3 PUSH2 0x180 DUP3 ADD MSTORE DUP3 PUSH2 0x1A0 DUP3 ADD MSTORE ADD MSTORE PUSH1 0x2 SLOAD PUSH1 0x4 CALLDATALOAD SWAP1 DUP2 GT ISZERO DUP1 PUSH2 0x46E JUMPI JUMPDEST PUSH2 0x2A3 SWAP1 PUSH2 0x1FF6 JUMP JUMPDEST PUSH1 0x0 MSTORE PUSH1 0x3 PUSH1 0x20 MSTORE PUSH1 0x40 PUSH1 0x0 KECCAK256 DUP1 SLOAD SWAP1 PUSH1 0x1 PUSH1 0xA0 SHL PUSH1 0x1 SWAP1 SUB PUSH1 0x3 DUP3 ADD SLOAD AND PUSH1 0x4 DUP3 ADD SLOAD PUSH1 0x5 DUP4 ADD SLOAD PUSH1 0x6 DUP5 ADD SLOAD PUSH1 0x7 DUP6 ADD SLOAD PUSH1 0x8 DUP7 ADD SLOAD SWAP1 PUSH1 0x9 DUP8 ADD SLOAD SWAP3 PUSH1 0xA DUP9 ADD SLOAD SWAP5 PUSH1 0xB DUP10 ADD SLOAD SWAP7 PUSH1 0xC DUP11 ADD SLOAD SWAP9 PUSH1 0xD DUP12 ADD SLOAD SWAP11 PUSH1 0x40 MLOAD SWAP13 PUSH2 0x307 DUP15 PUSH2 0x1D11 JUMP JUMPDEST DUP14 MSTORE DUP13 PUSH2 0x316 PUSH1 0x1 DUP4 ADD PUSH2 0x1E69 JUMP JUMPDEST SWAP1 PUSH1 0x20 ADD MSTORE PUSH1 0x2 ADD PUSH2 0x327 SWAP1 PUSH2 0x1E69 JUMP JUMPDEST PUSH1 0x40 DUP14 ADD MSTORE PUSH1 0x60 DUP13 ADD MSTORE PUSH1 0x80 DUP12 ADD MSTORE PUSH1 0xA0 DUP11 ADD MSTORE PUSH1 0xC0 DUP10 ADD MSTORE PUSH1 0xE0 DUP9 ADD MSTORE PUSH2 0x100 DUP8 ADD MSTORE PUSH2 0x120 DUP7 ADD MSTORE PUSH2 0x140 DUP6 ADD MSTORE PUSH2 0x363 PUSH1 0xFF DUP3 AND PUSH2 0x1DCF JUMP JUMPDEST PUSH1 0xFF DUP2 AND PUSH2 0x160 DUP6 ADD MSTORE PUSH1 0x8 SHR PUSH1 0xFF AND ISZERO ISZERO PUSH2 0x180 DUP5 ADD MSTORE PUSH2 0x1A0 DUP4 ADD MSTORE PUSH2 0x1C0 DUP3 ADD MSTORE PUSH1 0x40 MLOAD DUP1 SWAP2 PUSH1 0x20 DUP3 MSTORE DUP1 MLOAD PUSH1 0x20 DUP4 ADD MSTORE PUSH1 0x20 DUP2 ADD MLOAD PUSH1 0x40 DUP4 ADD PUSH2 0x1E0 SWAP1 MSTORE PUSH2 0x200 DUP4 ADD PUSH2 0x3B3 SWAP2 PUSH2 0x1DEF JUMP JUMPDEST PUSH1 0x40 DUP3 ADD MLOAD DUP4 DUP3 SUB PUSH1 0x1F NOT ADD PUSH1 0x60 DUP6 ADD MSTORE PUSH2 0x3CE SWAP2 SWAP1 PUSH2 0x1DEF JUMP JUMPDEST SWAP1 PUSH1 0x1 PUSH1 0xA0 SHL PUSH1 0x1 SWAP1 SUB PUSH1 0x60 DUP3 ADD MLOAD AND PUSH1 0x80 DUP5 ADD MSTORE PUSH1 0x80 DUP2 ADD MLOAD PUSH1 0xA0 DUP5 ADD MSTORE PUSH1 0xA0 DUP2 ADD MLOAD PUSH1 0xC0 DUP5 ADD MSTORE PUSH1 0xC0 DUP2 ADD MLOAD PUSH1 0xE0 DUP5 ADD MSTORE PUSH1 0xE0 DUP2 ADD MLOAD PUSH2 0x100 DUP5 ADD MSTORE PUSH2 0x100 DUP2 ADD MLOAD PUSH2 0x120 DUP5 ADD MSTORE PUSH2 0x120 DUP2 ADD MLOAD PUSH2 0x140 DUP5 ADD MSTORE PUSH2 0x140 DUP2 ADD MLOAD PUSH2 0x160 DUP5 ADD MSTORE PUSH2 0x160 DUP2 ADD MLOAD PUSH2 0x43F DUP2 PUSH2 0x1DCF JUMP JUMPDEST PUSH2 0x180 DUP5 ADD MSTORE PUSH2 0x180 DUP2 ADD MLOAD ISZERO ISZERO PUSH2 0x1A0 DUP5 ADD MSTORE PUSH2 0x1A0 DUP2 ADD MLOAD PUSH2 0x1C0 DUP5 ADD MSTORE PUSH2 0x1C0 ADD MLOAD PUSH2 0x1E0 DUP4 ADD MSTORE SUB SWAP1 RETURN JUMPDEST POP DUP1 ISZERO ISZERO PUSH2 0x29A JUMP JUMPDEST PUSH1 0x20 DUP1 PUSH1 0x3 NOT CALLDATASIZE ADD SLT PUSH2 0x19F JUMPI PUSH1 0x4 CALLDATALOAD SWAP1 PUSH1 0x2 SLOAD DUP3 GT ISZERO DUP1 PUSH2 0x7FC JUMPI JUMPDEST PUSH2 0x49D SWAP1 PUSH2 0x1FF6 JUMP JUMPDEST DUP2 PUSH1 0x0 MSTORE PUSH1 0x3 SWAP1 DUP2 DUP2 MSTORE PUSH1 0xE PUSH1 0x40 PUSH1 0x0 KECCAK256 ADD CALLER PUSH1 0x0 MSTORE DUP2 MSTORE PUSH1 0xFF SWAP2 PUSH2 0x4C8 DUP4 PUSH1 0x40 PUSH1 0x0 KECCAK256 SLOAD AND PUSH2 0x20DF JUMP JUMPDEST PUSH2 0x4D0 PUSH2 0x2089 JUMP JUMPDEST DUP4 PUSH1 0x0 MSTORE DUP1 DUP3 MSTORE PUSH1 0x40 PUSH1 0x0 KECCAK256 SWAP1 CALLER PUSH1 0x0 MSTORE PUSH1 0xE DUP3 ADD DUP4 MSTORE PUSH1 0x40 PUSH1 0x0 KECCAK256 PUSH2 0x505 DUP6 PUSH1 0xB DUP6 ADD SLOAD AND PUSH2 0x4FF DUP2 PUSH2 0x1DCF JUMP JUMPDEST ISZERO PUSH2 0x203A JUMP JUMPDEST PUSH1 0x9 DUP4 ADD SLOAD SWAP6 DUP7 ISZERO PUSH2 0x7C2 JUMPI PUSH1 0x4 DUP5 ADD SLOAD CALLVALUE SUB PUSH2 0x77D JUMPI DUP2 SLOAD SWAP4 DUP7 PUSH1 0x8 SWAP6 DUP7 SHR AND PUSH2 0x52F DUP2 PUSH2 0x1DCF JUMP JUMPDEST PUSH2 0x738 JUMPI PUSH1 0x6 SWAP3 PUSH2 0x552 DUP5 DUP4 ADD SLOAD SWAP10 PUSH2 0x54C PUSH1 0xA DUP6 ADD SLOAD DUP13 PUSH2 0x2121 JUMP JUMPDEST SWAP1 PUSH2 0x2134 JUMP JUMPDEST TIMESTAMP GT PUSH2 0x6F3 JUMPI PUSH1 0x1 SWAP9 DUP10 DUP3 ADD SWAP1 DUP2 SLOAD SWAP1 DUP2 LT ISZERO PUSH2 0x6AE JUMPI PUSH2 0x572 SWAP1 PUSH2 0x207A JUMP JUMPDEST SWAP1 SSTORE DUP5 TIMESTAMP SWAP2 ADD SSTORE PUSH1 0x5 CALLVALUE MUL CALLVALUE DUP2 DIV PUSH1 0x5 EQ CALLVALUE ISZERO OR ISZERO PUSH2 0x698 JUMPI PUSH1 0xD PUSH1 0x64 PUSH2 0x5BC SWAP3 SWAP10 SWAP7 SWAP10 DIV SWAP3 PUSH2 0x5A2 DUP5 CALLVALUE PUSH2 0x2141 JUMP JUMPDEST PUSH2 0x5B1 PUSH1 0xC DUP4 ADD SWAP2 DUP3 SLOAD PUSH2 0x2134 JUMP JUMPDEST SWAP1 SSTORE ADD SWAP2 DUP3 SLOAD PUSH2 0x2134 JUMP JUMPDEST SWAP1 SSTORE PUSH1 0x40 MLOAD CALLVALUE DUP2 MSTORE DUP2 PUSH32 0xA4A91237423E0A1766A761C7CB029311D8B95D6B1B81DB1B949A70C98B4E08E DUP8 CALLER SWAP4 LOG3 PUSH1 0x0 MSTORE DUP5 DUP5 MSTORE PUSH1 0x40 PUSH1 0x0 KECCAK256 SWAP2 PUSH1 0x0 SWAP5 PUSH1 0x0 SWAP2 PUSH1 0x10 DUP6 ADD SWAP8 DUP9 SLOAD SWAP9 PUSH1 0xE DUP8 ADD SWAP5 JUMPDEST DUP11 DUP2 LT PUSH2 0x618 JUMPI PUSH1 0x0 DUP13 SWAP1 SSTORE STOP JUMPDEST PUSH2 0x622 DUP2 DUP4 PUSH2 0x1CC7 JUMP JUMPDEST SWAP1 SLOAD SWAP1 DUP5 SHL SHR PUSH1 0x1 PUSH1 0x1 PUSH1 0xA0 SHL SUB AND PUSH1 0x0 DUP2 DUP2 MSTORE DUP8 DUP8 MSTORE PUSH1 0x40 SWAP1 KECCAK256 SLOAD DUP11 SHR DUP6 AND PUSH2 0x64B DUP2 PUSH2 0x1DCF JUMP JUMPDEST ISZERO SWAP1 DUP2 PUSH2 0x67C JUMPI JUMPDEST POP PUSH2 0x667 JUMPI JUMPDEST PUSH2 0x662 SWAP1 PUSH2 0x207A JUMP JUMPDEST PUSH2 0x60A JUMP JUMPDEST SWAP9 PUSH2 0x674 PUSH2 0x662 SWAP2 PUSH2 0x207A JUMP JUMPDEST SWAP10 SWAP1 POP PUSH2 0x659 JUMP JUMPDEST SWAP1 POP PUSH1 0x0 MSTORE DUP6 DUP6 MSTORE DUP12 PUSH1 0x40 PUSH1 0x0 KECCAK256 ADD SLOAD DUP8 DUP10 ADD SLOAD GT ISZERO DUP14 PUSH2 0x653 JUMP JUMPDEST PUSH4 0x4E487B71 PUSH1 0xE0 SHL PUSH1 0x0 MSTORE PUSH1 0x11 PUSH1 0x4 MSTORE PUSH1 0x24 PUSH1 0x0 REVERT JUMPDEST PUSH1 0x40 MLOAD PUSH3 0x461BCD PUSH1 0xE5 SHL DUP2 MSTORE PUSH1 0x4 DUP2 ADD DUP11 SWAP1 MSTORE PUSH1 0x1E PUSH1 0x24 DUP3 ADD MSTORE PUSH32 0x416C726561647920636F6E7472696275746564207468697320726F756E640000 PUSH1 0x44 DUP3 ADD MSTORE PUSH1 0x64 SWAP1 REVERT JUMPDEST PUSH1 0x40 MLOAD PUSH3 0x461BCD PUSH1 0xE5 SHL DUP2 MSTORE PUSH1 0x4 DUP2 ADD DUP9 SWAP1 MSTORE PUSH1 0x1F PUSH1 0x24 DUP3 ADD MSTORE PUSH32 0x526F756E6420636F6E747269627574696F6E20706572696F6420656E64656400 PUSH1 0x44 DUP3 ADD MSTORE PUSH1 0x64 SWAP1 REVERT JUMPDEST PUSH1 0x40 MLOAD PUSH3 0x461BCD PUSH1 0xE5 SHL DUP2 MSTORE PUSH1 0x4 DUP2 ADD DUP8 SWAP1 MSTORE PUSH1 0x1B PUSH1 0x24 DUP3 ADD MSTORE PUSH32 0x4D656D626572206E6F7420696E20676F6F64207374616E64696E670000000000 PUSH1 0x44 DUP3 ADD MSTORE PUSH1 0x64 SWAP1 REVERT JUMPDEST PUSH1 0x40 MLOAD PUSH3 0x461BCD PUSH1 0xE5 SHL DUP2 MSTORE PUSH1 0x4 DUP2 ADD DUP7 SWAP1 MSTORE PUSH1 0x1D PUSH1 0x24 DUP3 ADD MSTORE PUSH32 0x496E636F727265637420636F6E747269627574696F6E20616D6F756E74000000 PUSH1 0x44 DUP3 ADD MSTORE PUSH1 0x64 SWAP1 REVERT JUMPDEST PUSH1 0x40 MLOAD PUSH3 0x461BCD PUSH1 0xE5 SHL DUP2 MSTORE PUSH1 0x4 DUP2 ADD DUP7 SWAP1 MSTORE PUSH1 0x12 PUSH1 0x24 DUP3 ADD MSTORE PUSH18 0x10DA5C98DB19481B9BDD081CDD185C9D1959 PUSH1 0x72 SHL PUSH1 0x44 DUP3 ADD MSTORE PUSH1 0x64 SWAP1 REVERT JUMPDEST POP DUP2 ISZERO ISZERO PUSH2 0x494 JUMP JUMPDEST CALLVALUE PUSH2 0x19F JUMPI PUSH1 0x20 CALLDATASIZE PUSH1 0x3 NOT ADD SLT PUSH2 0x19F JUMPI PUSH1 0x4 CALLDATALOAD PUSH1 0x0 MSTORE PUSH1 0x3 PUSH1 0x20 MSTORE PUSH1 0x40 PUSH1 0x0 KECCAK256 DUP1 SLOAD PUSH1 0x1 DUP3 ADD PUSH2 0x835 SWAP1 PUSH2 0x1E69 JUMP JUMPDEST SWAP2 PUSH2 0x842 PUSH1 0x2 DUP3 ADD PUSH2 0x1E69 JUMP JUMPDEST PUSH1 0x1 PUSH1 0xA0 SHL PUSH1 0x1 SWAP1 SUB PUSH1 0x3 DUP4 ADD SLOAD AND SWAP2 PUSH1 0x4 DUP2 ADD SLOAD PUSH1 0x5 DUP3 ADD SLOAD PUSH1 0x6 DUP4 ADD SLOAD PUSH1 0x7 DUP5 ADD SLOAD PUSH1 0x8 DUP6 ADD SLOAD SWAP1 PUSH1 0x9 DUP7 ADD SLOAD SWAP3 PUSH1 0xA DUP8 ADD SLOAD SWAP5 PUSH1 0xB DUP9 ADD SLOAD SWAP7 PUSH1 0xC DUP10 ADD SLOAD SWAP9 PUSH1 0xD ADD SLOAD SWAP10 PUSH1 0x40 MLOAD SWAP14 DUP15 SWAP14 DUP15 MSTORE DUP14 PUSH2 0x1E0 SWAP1 DUP2 PUSH1 0x20 DUP3 ADD MSTORE ADD PUSH2 0x8A6 SWAP2 PUSH2 0x1DEF JUMP JUMPDEST DUP14 DUP2 SUB PUSH1 0x40 DUP16 ADD MSTORE PUSH2 0x8B7 SWAP2 PUSH2 0x1DEF JUMP JUMPDEST SWAP11 PUSH1 0x60 DUP14 ADD MSTORE PUSH1 0x80 DUP13 ADD MSTORE PUSH1 0xA0 DUP12 ADD MSTORE PUSH1 0xC0 DUP11 ADD MSTORE PUSH1 0xE0 DUP10 ADD MSTORE PUSH2 0x100 DUP9 ADD MSTORE PUSH2 0x120 DUP8 ADD MSTORE PUSH2 0x140 DUP7 ADD MSTORE PUSH1 0xFF DUP2 AND PUSH2 0x8F0 DUP2 PUSH2 0x1DCF JUMP JUMPDEST PUSH2 0x160 DUP7 ADD MSTORE PUSH1 0x8 SHR PUSH1 0xFF AND ISZERO ISZERO PUSH2 0x180 DUP6 ADD MSTORE PUSH2 0x1A0 DUP5 ADD MSTORE PUSH2 0x1C0 DUP4 ADD MSTORE SUB SWAP1 RETURN JUMPDEST CALLVALUE PUSH2 0x19F JUMPI PUSH1 0x0 CALLDATASIZE PUSH1 0x3 NOT ADD SLT PUSH2 0x19F JUMPI PUSH1 0x1 SLOAD PUSH1 0x40 MLOAD PUSH1 0x1 PUSH1 0x1 PUSH1 0xA0 SHL SUB SWAP1 SWAP2 AND DUP2 MSTORE PUSH1 0x20 SWAP1 RETURN JUMPDEST CALLVALUE PUSH2 0x19F JUMPI PUSH1 0x20 DUP1 PUSH1 0x3 NOT CALLDATASIZE ADD SLT PUSH2 0x19F JUMPI PUSH1 0x4 CALLDATALOAD SWAP1 PUSH1 0x2 SLOAD DUP3 GT ISZERO DUP1 PUSH2 0xBC1 JUMPI JUMPDEST PUSH2 0x968 SWAP1 PUSH2 0x1FF6 JUMP JUMPDEST DUP2 PUSH1 0x0 MSTORE PUSH1 0x3 DUP2 MSTORE PUSH1 0xE PUSH1 0x40 PUSH1 0x0 KECCAK256 ADD CALLER PUSH1 0x0 MSTORE DUP2 MSTORE PUSH2 0x98F PUSH1 0xFF PUSH1 0x40 PUSH1 0x0 KECCAK256 SLOAD AND PUSH2 0x20DF JUMP JUMPDEST PUSH2 0x997 PUSH2 0x2089 JUMP JUMPDEST DUP2 PUSH1 0x0 MSTORE PUSH1 0x3 DUP2 MSTORE PUSH1 0x40 PUSH1 0x0 KECCAK256 SWAP1 PUSH1 0x6 DUP3 ADD SWAP1 DUP2 SLOAD SWAP1 DUP2 PUSH1 0x0 MSTORE PUSH1 0xF DUP5 ADD DUP2 MSTORE CALLER PUSH1 0x1 DUP1 PUSH1 0xA0 SHL SUB PUSH1 0x40 PUSH1 0x0 KECCAK256 SLOAD AND SUB PUSH2 0xB7D JUMPI PUSH1 0xE DUP5 ADD CALLER PUSH1 0x0 MSTORE DUP1 DUP3 MSTORE PUSH1 0x2 PUSH1 0x40 PUSH1 0x0 KECCAK256 ADD SLOAD PUSH2 0xB38 JUMPI PUSH2 0x9F6 PUSH1 0x4 DUP7 ADD SLOAD PUSH1 0x8 DUP8 ADD SLOAD SWAP1 PUSH2 0x2121 JUMP JUMPDEST SWAP3 PUSH1 0xC DUP7 ADD SWAP2 DUP5 DUP4 SLOAD LT PUSH2 0xAFE JUMPI CALLER PUSH1 0x0 MSTORE DUP4 MSTORE PUSH1 0x2 PUSH1 0x40 PUSH1 0x0 KECCAK256 ADD SSTORE PUSH2 0xA1E DUP4 DUP3 SLOAD PUSH2 0x2141 JUMP JUMPDEST SWAP1 SSTORE PUSH1 0x0 DUP1 DUP1 DUP1 DUP6 CALLER GAS CALL PUSH2 0xA31 PUSH2 0x214E JUMP JUMPDEST POP ISZERO PUSH2 0xAC1 JUMPI PUSH32 0x829A492B098E906D67AFCC4C67889AC97486DF205CD59C8749F8F61D78220382 DUP6 SWAP2 PUSH1 0x40 MLOAD SWAP4 DUP5 MSTORE CALLER SWAP4 LOG3 DUP1 SLOAD PUSH1 0x5 DUP4 ADD SLOAD DUP2 SUB PUSH2 0xAAD JUMPI POP POP PUSH1 0xB ADD DUP1 SLOAD PUSH1 0xFF NOT AND PUSH1 0x1 OR SWAP1 SSTORE PUSH32 0xFCCD3901546CFBB42742CAC2C7335BCE34F1F8D9844F4F4B53640F79E3101087 PUSH1 0x0 DUP1 LOG2 JUMPDEST PUSH1 0x1 PUSH1 0x0 SSTORE STOP JUMPDEST SWAP1 SWAP3 POP PUSH2 0xABA SWAP2 POP PUSH2 0x207A JUMP JUMPDEST SWAP1 SSTORE PUSH2 0xAA6 JUMP JUMPDEST PUSH1 0x64 SWAP1 PUSH1 0x40 MLOAD SWAP1 PUSH3 0x461BCD PUSH1 0xE5 SHL DUP3 MSTORE PUSH1 0x4 DUP3 ADD MSTORE PUSH1 0x16 PUSH1 0x24 DUP3 ADD MSTORE PUSH22 0x14185E5BDD5D081D1C985B9CD9995C8819985A5B1959 PUSH1 0x52 SHL PUSH1 0x44 DUP3 ADD MSTORE REVERT JUMPDEST PUSH1 0x40 MLOAD PUSH3 0x461BCD PUSH1 0xE5 SHL DUP2 MSTORE PUSH1 0x4 DUP2 ADD DUP6 SWAP1 MSTORE PUSH1 0x12 PUSH1 0x24 DUP3 ADD MSTORE PUSH18 0x496E73756666696369656E742066756E6473 PUSH1 0x70 SHL PUSH1 0x44 DUP3 ADD MSTORE PUSH1 0x64 SWAP1 REVERT JUMPDEST PUSH1 0x40 MLOAD PUSH3 0x461BCD PUSH1 0xE5 SHL DUP2 MSTORE PUSH1 0x4 DUP2 ADD DUP4 SWAP1 MSTORE PUSH1 0x17 PUSH1 0x24 DUP3 ADD MSTORE PUSH32 0x416C7265616479207265636569766564207061796F7574000000000000000000 PUSH1 0x44 DUP3 ADD MSTORE PUSH1 0x64 SWAP1 REVERT JUMPDEST PUSH1 0x64 SWAP1 PUSH1 0x40 MLOAD SWAP1 PUSH3 0x461BCD PUSH1 0xE5 SHL DUP3 MSTORE PUSH1 0x4 DUP3 ADD MSTORE PUSH1 0x1C PUSH1 0x24 DUP3 ADD MSTORE PUSH32 0x4E6F7420726563697069656E7420666F72207468697320726F756E6400000000 PUSH1 0x44 DUP3 ADD MSTORE REVERT JUMPDEST POP DUP2 ISZERO ISZERO PUSH2 0x95F JUMP JUMPDEST CALLVALUE PUSH2 0x19F JUMPI PUSH1 0x20 DUP1 PUSH1 0x3 NOT CALLDATASIZE ADD SLT PUSH2 0x19F JUMPI PUSH1 0x1 PUSH1 0x1 PUSH1 0xA0 SHL SUB PUSH2 0xBEC PUSH2 0x1CB1 JUMP JUMPDEST AND PUSH1 0x0 MSTORE PUSH1 0x4 DUP2 MSTORE PUSH1 0x40 PUSH1 0x0 KECCAK256 PUSH1 0x40 MLOAD SWAP1 DUP2 DUP4 DUP3 SLOAD SWAP2 DUP3 DUP2 MSTORE ADD SWAP1 DUP2 SWAP3 PUSH1 0x0 MSTORE DUP5 PUSH1 0x0 KECCAK256 SWAP1 PUSH1 0x0 JUMPDEST DUP7 DUP3 DUP3 LT PUSH2 0xC6A JUMPI DUP7 DUP7 PUSH2 0xC2A DUP3 DUP9 SUB DUP4 PUSH2 0x1D4A JUMP JUMPDEST PUSH1 0x40 MLOAD SWAP3 DUP4 SWAP3 DUP2 DUP5 ADD SWAP1 DUP3 DUP6 MSTORE MLOAD DUP1 SWAP2 MSTORE PUSH1 0x40 DUP5 ADD SWAP3 SWAP2 PUSH1 0x0 JUMPDEST DUP3 DUP2 LT PUSH2 0xC53 JUMPI POP POP POP POP SUB SWAP1 RETURN JUMPDEST DUP4 MLOAD DUP6 MSTORE DUP7 SWAP6 POP SWAP4 DUP2 ADD SWAP4 SWAP3 DUP2 ADD SWAP3 PUSH1 0x1 ADD PUSH2 0xC44 JUMP JUMPDEST DUP4 SLOAD DUP6 MSTORE SWAP1 SWAP4 ADD SWAP3 PUSH1 0x1 SWAP3 DUP4 ADD SWAP3 ADD PUSH2 0xC14 JUMP JUMPDEST CALLVALUE PUSH2 0x19F JUMPI PUSH1 0x20 CALLDATASIZE PUSH1 0x3 NOT ADD SLT PUSH2 0x19F JUMPI PUSH1 0x1 PUSH1 0x1 PUSH1 0xA0 SHL SUB PUSH2 0xC9F PUSH2 0x1CB1 JUMP JUMPDEST AND PUSH1 0x0 MSTORE PUSH1 0x5 PUSH1 0x20 MSTORE PUSH1 0x20 PUSH1 0xFF PUSH1 0x40 PUSH1 0x0 KECCAK256 SLOAD AND PUSH1 0x40 MLOAD SWAP1 ISZERO ISZERO DUP2 MSTORE RETURN JUMPDEST PUSH1 0x20 CALLDATASIZE PUSH1 0x3 NOT ADD SLT PUSH2 0x19F JUMPI PUSH1 0x2 SLOAD PUSH1 0x4 CALLDATALOAD GT ISZERO DUP1 PUSH2 0x10C2 JUMPI JUMPDEST PUSH2 0xCE0 SWAP1 PUSH2 0x1FF6 JUMP JUMPDEST PUSH2 0xCE8 PUSH2 0x2089 JUMP JUMPDEST PUSH1 0x4 CALLDATALOAD PUSH1 0x0 MSTORE PUSH1 0x3 PUSH1 0x20 MSTORE PUSH1 0x40 PUSH1 0x0 KECCAK256 PUSH2 0xD0C PUSH1 0xFF PUSH1 0xB DUP4 ADD SLOAD AND PUSH2 0x4FF DUP2 PUSH2 0x1DCF JUMP JUMPDEST PUSH1 0x8 DUP2 ADD SLOAD PUSH1 0x7 DUP3 ADD SLOAD GT ISZERO PUSH2 0x108C JUMPI PUSH1 0xE DUP2 ADD CALLER PUSH1 0x0 MSTORE DUP1 PUSH1 0x20 MSTORE PUSH1 0xFF PUSH1 0x40 PUSH1 0x0 KECCAK256 SLOAD AND PUSH2 0x1054 JUMPI PUSH1 0x9 DUP3 ADD SLOAD PUSH2 0x1016 JUMPI PUSH1 0x40 MLOAD SWAP1 PUSH2 0xD4B DUP3 PUSH2 0x1CF5 JUMP JUMPDEST PUSH1 0x1 DUP3 MSTORE PUSH1 0x20 DUP3 ADD PUSH1 0x0 DUP2 MSTORE PUSH1 0x40 DUP4 ADD PUSH1 0x0 DUP2 MSTORE PUSH1 0x60 DUP5 ADD SWAP1 PUSH1 0x0 DUP3 MSTORE PUSH2 0xDC1 PUSH1 0x80 DUP7 ADD SWAP4 PUSH1 0x0 DUP6 MSTORE PUSH1 0x40 MLOAD SWAP6 PUSH2 0xD81 DUP8 PUSH2 0x1D2E JUMP JUMPDEST PUSH1 0x0 DUP8 MSTORE PUSH1 0xA0 DUP9 ADD SWAP7 DUP8 MSTORE CALLER PUSH1 0x0 MSTORE PUSH1 0x20 MSTORE PUSH2 0xDB1 PUSH1 0x40 PUSH1 0x0 KECCAK256 SWAP8 MLOAD ISZERO ISZERO DUP9 SWAP1 PUSH1 0xFF DUP1 NOT DUP4 SLOAD AND SWAP2 ISZERO ISZERO AND OR SWAP1 SSTORE JUMP JUMPDEST MLOAD PUSH2 0xDBB DUP2 PUSH2 0x1DCF JUMP JUMPDEST DUP7 PUSH2 0x1F67 JUMP JUMPDEST MLOAD PUSH1 0x1 DUP6 ADD SSTORE MLOAD PUSH1 0x2 DUP5 ADD SSTORE MLOAD PUSH1 0x3 DUP4 ADD SSTORE MLOAD DUP1 MLOAD SWAP1 PUSH8 0xFFFFFFFFFFFFFFFF DUP3 GT PUSH2 0x1000 JUMPI PUSH2 0xDF3 PUSH1 0x4 DUP5 ADD SLOAD PUSH2 0x1E2F JUMP JUMPDEST PUSH1 0x1F DUP2 GT PUSH2 0xFB5 JUMPI JUMPDEST POP PUSH1 0x20 SWAP1 PUSH1 0x1F DUP4 GT PUSH1 0x1 EQ PUSH2 0xF45 JUMPI PUSH1 0x4 SWAP3 SWAP2 PUSH1 0x0 SWAP2 DUP4 PUSH2 0xF3A JUMPI JUMPDEST POP POP DUP2 PUSH1 0x1 SHL SWAP2 PUSH1 0x0 NOT SWAP1 PUSH1 0x3 SHL SHR NOT AND OR SWAP2 ADD SSTORE JUMPDEST PUSH2 0xE3B CALLER PUSH1 0x10 DUP4 ADD PUSH2 0x1F86 JUMP JUMPDEST PUSH2 0xE48 PUSH1 0x8 DUP3 ADD SLOAD PUSH2 0x207A JUMP JUMPDEST PUSH1 0x8 DUP3 ADD SSTORE CALLER PUSH1 0x0 MSTORE PUSH1 0x4 PUSH1 0x20 MSTORE PUSH2 0xE66 PUSH1 0x4 CALLDATALOAD PUSH1 0x40 PUSH1 0x0 KECCAK256 PUSH2 0x1FC1 JUMP JUMPDEST PUSH1 0x8 DUP2 ADD SLOAD PUSH1 0x7 DUP3 ADD SLOAD EQ PUSH2 0xEA6 JUMPI JUMPDEST CALLER PUSH1 0x4 CALLDATALOAD PUSH32 0x78DA64A590C3052953AD9E0A5546BBF12BB68AE7634E3FB2A774E22A8C6557C1 PUSH1 0x0 DUP1 LOG3 PUSH1 0x1 PUSH1 0x0 SSTORE STOP JUMPDEST PUSH1 0x6 PUSH1 0x1 SWAP2 TIMESTAMP PUSH1 0x9 DUP3 ADD SSTORE ADD SSTORE PUSH1 0x4 CALLDATALOAD PUSH1 0x0 MSTORE PUSH1 0x3 PUSH1 0x20 MSTORE PUSH1 0x40 PUSH1 0x0 KECCAK256 PUSH1 0x0 SWAP1 PUSH1 0x5 DUP2 ADD SWAP1 PUSH1 0xF PUSH1 0x10 DUP3 ADD SWAP2 ADD SWAP3 JUMPDEST DUP3 SLOAD DUP2 LT ISZERO PUSH2 0xF30 JUMPI PUSH2 0xEE8 DUP2 DUP4 PUSH2 0x1CC7 JUMP JUMPDEST SWAP1 SLOAD PUSH1 0x1 DUP4 ADD SWAP3 SWAP2 PUSH1 0x3 SHL SHR PUSH1 0x1 PUSH1 0x1 PUSH1 0xA0 SHL SUB AND DUP3 DUP3 GT PUSH2 0x698 JUMPI PUSH2 0xF2B SWAP3 PUSH1 0x0 MSTORE DUP6 PUSH1 0x20 MSTORE PUSH1 0x40 PUSH1 0x0 KECCAK256 SWAP1 PUSH1 0x1 PUSH1 0x1 PUSH1 0x60 SHL SUB PUSH1 0xA0 SHL DUP3 SLOAD AND OR SWAP1 SSTORE PUSH2 0x207A JUMP JUMPDEST PUSH2 0xED5 JUMP JUMPDEST POP POP POP POP DUP1 PUSH2 0xE76 JUMP JUMPDEST ADD MLOAD SWAP1 POP DUP6 DUP1 PUSH2 0xE18 JUMP JUMPDEST SWAP1 PUSH1 0x4 DUP5 ADD PUSH1 0x0 MSTORE PUSH1 0x20 PUSH1 0x0 KECCAK256 SWAP2 PUSH1 0x0 JUMPDEST PUSH1 0x1F NOT DUP6 AND DUP2 LT PUSH2 0xF9D JUMPI POP SWAP2 DUP4 SWAP2 PUSH1 0x1 SWAP4 PUSH1 0x4 SWAP6 PUSH1 0x1F NOT DUP2 AND LT PUSH2 0xF84 JUMPI JUMPDEST POP POP POP DUP2 SHL ADD SWAP2 ADD SSTORE PUSH2 0xE2E JUMP JUMPDEST ADD MLOAD PUSH1 0x0 NOT PUSH1 0xF8 DUP5 PUSH1 0x3 SHL AND SHR NOT AND SWAP1 SSTORE DUP6 DUP1 DUP1 PUSH2 0xF76 JUMP JUMPDEST SWAP2 SWAP3 PUSH1 0x20 PUSH1 0x1 DUP2 SWAP3 DUP7 DUP6 ADD MLOAD DUP2 SSTORE ADD SWAP5 ADD SWAP3 ADD PUSH2 0xF56 JUMP JUMPDEST PUSH1 0x4 DUP5 ADD PUSH1 0x0 MSTORE PUSH1 0x20 PUSH1 0x0 KECCAK256 PUSH1 0x1F DUP5 ADD PUSH1 0x5 SHR DUP2 ADD SWAP2 PUSH1 0x20 DUP6 LT PUSH2 0xFF6 JUMPI JUMPDEST PUSH1 0x1F ADD PUSH1 0x5 SHR ADD SWAP1 JUMPDEST DUP2 DUP2 LT PUSH2 0xFEA JUMPI POP PUSH2 0xDFC JUMP JUMPDEST PUSH1 0x0 DUP2 SSTORE PUSH1 0x1 ADD PUSH2 0xFDD JUMP JUMPDEST SWAP1 SWAP2 POP DUP2 SWAP1 PUSH2 0xFD4 JUMP JUMPDEST PUSH4 0x4E487B71 PUSH1 0xE0 SHL PUSH1 0x0 MSTORE PUSH1 0x41 PUSH1 0x4 MSTORE PUSH1 0x24 PUSH1 0x0 REVERT JUMPDEST PUSH1 0x40 MLOAD PUSH3 0x461BCD PUSH1 0xE5 SHL DUP2 MSTORE PUSH1 0x20 PUSH1 0x4 DUP3 ADD MSTORE PUSH1 0x16 PUSH1 0x24 DUP3 ADD MSTORE PUSH22 0x10DA5C98DB1948185B1C9958591E481CDD185C9D1959 PUSH1 0x52 SHL PUSH1 0x44 DUP3 ADD MSTORE PUSH1 0x64 SWAP1 REVERT JUMPDEST PUSH1 0x40 MLOAD PUSH3 0x461BCD PUSH1 0xE5 SHL DUP2 MSTORE PUSH1 0x20 PUSH1 0x4 DUP3 ADD MSTORE PUSH1 0x10 PUSH1 0x24 DUP3 ADD MSTORE PUSH16 0x20B63932B0B23C90309036B2B6B132B9 PUSH1 0x81 SHL PUSH1 0x44 DUP3 ADD MSTORE PUSH1 0x64 SWAP1 REVERT JUMPDEST PUSH1 0x40 MLOAD PUSH3 0x461BCD PUSH1 0xE5 SHL DUP2 MSTORE PUSH1 0x20 PUSH1 0x4 DUP3 ADD MSTORE PUSH1 0xE PUSH1 0x24 DUP3 ADD MSTORE PUSH14 0x10DA5C98DB19481A5CC8199D5B1B PUSH1 0x92 SHL PUSH1 0x44 DUP3 ADD MSTORE PUSH1 0x64 SWAP1 REVERT JUMPDEST POP PUSH1 0x4 CALLDATALOAD ISZERO ISZERO PUSH2 0xCD7 JUMP JUMPDEST CALLVALUE PUSH2 0x19F JUMPI PUSH1 0x0 CALLDATASIZE PUSH1 0x3 NOT ADD SLT PUSH2 0x19F JUMPI PUSH2 0x10E6 PUSH2 0x1F0F JUMP JUMPDEST PUSH1 0x1 DUP1 SLOAD PUSH1 0x1 PUSH1 0x1 PUSH1 0xA0 SHL SUB NOT DUP2 AND SWAP1 SWAP2 SSTORE PUSH1 0x0 SWAP1 PUSH1 0x1 PUSH1 0x1 PUSH1 0xA0 SHL SUB AND PUSH32 0x8BE0079C531659141344CD1FD0A4F28419497F9722A3DAAFE3B4186F6B6457E0 DUP3 DUP1 LOG3 STOP JUMPDEST CALLVALUE PUSH2 0x19F JUMPI PUSH1 0x20 DUP1 PUSH1 0x3 NOT CALLDATASIZE ADD SLT PUSH2 0x19F JUMPI PUSH1 0x4 CALLDATALOAD PUSH1 0x2 SLOAD DUP2 GT ISZERO DUP1 PUSH2 0x1355 JUMPI JUMPDEST PUSH2 0x1154 SWAP1 PUSH2 0x1FF6 JUMP JUMPDEST DUP1 PUSH1 0x0 MSTORE PUSH1 0x3 DUP3 MSTORE PUSH1 0xE PUSH1 0x40 PUSH1 0x0 KECCAK256 ADD CALLER PUSH1 0x0 MSTORE DUP3 MSTORE PUSH2 0x117B PUSH1 0xFF PUSH1 0x40 PUSH1 0x0 KECCAK256 SLOAD AND PUSH2 0x20DF JUMP JUMPDEST PUSH2 0x1183 PUSH2 0x2089 JUMP JUMPDEST DUP1 PUSH1 0x0 MSTORE PUSH1 0x3 DUP3 MSTORE PUSH1 0x40 PUSH1 0x0 KECCAK256 SWAP2 CALLER PUSH1 0x0 MSTORE PUSH1 0xE DUP4 ADD DUP2 MSTORE PUSH1 0x40 PUSH1 0x0 KECCAK256 DUP1 SLOAD SWAP1 PUSH1 0xFF DUP3 PUSH1 0x8 SHR AND PUSH2 0x11B3 DUP2 PUSH2 0x1DCF JUMP JUMPDEST PUSH2 0x131C JUMPI PUSH1 0x1 DUP2 ADD SLOAD DUP1 ISZERO PUSH2 0x12DF JUMPI PUSH1 0x4 DUP7 ADD SLOAD PUSH2 0x11D0 SWAP2 PUSH2 0x2121 JUMP JUMPDEST PUSH1 0x50 DUP2 MUL SWAP1 DUP1 DUP3 DIV PUSH1 0x50 EQ SWAP1 ISZERO OR ISZERO PUSH2 0x698 JUMPI PUSH1 0x64 PUSH1 0xD SWAP2 DIV SWAP6 ADD SWAP2 DUP6 DUP4 SLOAD LT PUSH2 0x129A JUMPI PUSH2 0x200 SWAP1 PUSH2 0xFF00 NOT AND OR SWAP1 SSTORE PUSH2 0x120B DUP5 DUP3 SLOAD PUSH2 0x2141 JUMP JUMPDEST SWAP1 SSTORE PUSH1 0x0 DUP1 DUP1 DUP1 DUP7 CALLER GAS CALL PUSH2 0x121E PUSH2 0x214E JUMP JUMPDEST POP ISZERO PUSH2 0x1256 JUMPI PUSH32 0x18FCB562D23857DF60E33824B748CB5C3AF4E22375458317E7A33E52A971413F SWAP1 PUSH1 0x40 MLOAD SWAP4 DUP5 MSTORE CALLER SWAP4 LOG3 PUSH1 0x1 PUSH1 0x0 SSTORE STOP JUMPDEST PUSH1 0x64 SWAP1 PUSH1 0x40 MLOAD SWAP1 PUSH3 0x461BCD PUSH1 0xE5 SHL DUP3 MSTORE PUSH1 0x4 DUP3 ADD MSTORE PUSH1 0x1B PUSH1 0x24 DUP3 ADD MSTORE PUSH32 0x456D657267656E6379207769746864726177616C206661696C65640000000000 PUSH1 0x44 DUP3 ADD MSTORE REVERT JUMPDEST PUSH1 0x40 MLOAD PUSH3 0x461BCD PUSH1 0xE5 SHL DUP2 MSTORE PUSH1 0x4 DUP2 ADD DUP6 SWAP1 MSTORE PUSH1 0x1C PUSH1 0x24 DUP3 ADD MSTORE PUSH32 0x496E73756666696369656E7420656D657267656E63792066756E647300000000 PUSH1 0x44 DUP3 ADD MSTORE PUSH1 0x64 SWAP1 REVERT JUMPDEST PUSH1 0x40 MLOAD PUSH3 0x461BCD PUSH1 0xE5 SHL DUP2 MSTORE PUSH1 0x4 DUP2 ADD DUP6 SWAP1 MSTORE PUSH1 0x15 PUSH1 0x24 DUP3 ADD MSTORE PUSH21 0x4E6F20636F6E747269627574696F6E73206D616465 PUSH1 0x58 SHL PUSH1 0x44 DUP3 ADD MSTORE PUSH1 0x64 SWAP1 REVERT JUMPDEST PUSH1 0x40 MLOAD PUSH3 0x461BCD PUSH1 0xE5 SHL DUP2 MSTORE PUSH1 0x4 DUP2 ADD DUP5 SWAP1 MSTORE PUSH1 0x11 PUSH1 0x24 DUP3 ADD MSTORE PUSH17 0x4D656D626572206E6F7420616374697665 PUSH1 0x78 SHL PUSH1 0x44 DUP3 ADD MSTORE PUSH1 0x64 SWAP1 REVERT JUMPDEST POP DUP1 ISZERO ISZERO PUSH2 0x114B JUMP JUMPDEST CALLVALUE PUSH2 0x19F JUMPI PUSH1 0x40 CALLDATASIZE PUSH1 0x3 NOT ADD SLT PUSH2 0x19F JUMPI PUSH1 0x4 CALLDATALOAD PUSH1 0x2 SLOAD DUP2 GT ISZERO DUP1 PUSH2 0x13B8 JUMPI JUMPDEST PUSH2 0x1387 SWAP1 PUSH2 0x1FF6 JUMP JUMPDEST PUSH1 0x0 MSTORE PUSH1 0x3 PUSH1 0x20 MSTORE PUSH1 0xF PUSH1 0x40 PUSH1 0x0 KECCAK256 ADD PUSH1 0x24 CALLDATALOAD PUSH1 0x0 MSTORE PUSH1 0x20 MSTORE PUSH1 0x20 PUSH1 0x1 DUP1 PUSH1 0xA0 SHL SUB PUSH1 0x40 PUSH1 0x0 KECCAK256 SLOAD AND PUSH1 0x40 MLOAD SWAP1 DUP2 MSTORE RETURN JUMPDEST POP DUP1 ISZERO ISZERO PUSH2 0x137E JUMP JUMPDEST CALLVALUE PUSH2 0x19F JUMPI PUSH1 0x40 CALLDATASIZE PUSH1 0x3 NOT ADD SLT PUSH2 0x19F JUMPI PUSH1 0x4 CALLDATALOAD PUSH1 0x24 CALLDATALOAD PUSH1 0x1 PUSH1 0x1 PUSH1 0xA0 SHL SUB DUP2 AND SWAP1 DUP2 SWAP1 SUB PUSH2 0x19F JUMPI PUSH1 0x40 MLOAD SWAP2 PUSH2 0x13F7 DUP4 PUSH2 0x1CF5 JUMP JUMPDEST PUSH1 0x0 DUP4 MSTORE PUSH1 0x60 PUSH1 0xA0 PUSH1 0x20 SWAP5 PUSH1 0x0 DUP7 DUP3 ADD MSTORE PUSH1 0x0 PUSH1 0x40 DUP3 ADD MSTORE PUSH1 0x0 DUP4 DUP3 ADD MSTORE PUSH1 0x0 PUSH1 0x80 DUP3 ADD MSTORE ADD MSTORE PUSH1 0x2 SLOAD DUP2 GT ISZERO DUP1 PUSH2 0x14FB JUMPI JUMPDEST PUSH2 0x1433 SWAP1 PUSH2 0x1FF6 JUMP JUMPDEST PUSH1 0x0 MSTORE PUSH1 0x3 DUP3 MSTORE PUSH1 0xE PUSH1 0x40 PUSH1 0x0 KECCAK256 ADD SWAP1 PUSH1 0x0 MSTORE DUP2 MSTORE PUSH1 0x40 PUSH1 0x0 KECCAK256 PUSH2 0x14F7 PUSH1 0x40 MLOAD SWAP2 PUSH2 0x145D DUP4 PUSH2 0x1CF5 JUMP JUMPDEST PUSH1 0xFF DUP2 SLOAD DUP2 DUP2 AND ISZERO ISZERO DUP6 MSTORE PUSH1 0x8 SHR AND SWAP1 DUP5 DUP5 ADD SWAP2 PUSH2 0x147A DUP2 PUSH2 0x1DCF JUMP JUMPDEST DUP3 MSTORE PUSH1 0x1 DUP2 ADD SLOAD PUSH1 0x40 DUP6 ADD SWAP1 DUP2 MSTORE PUSH1 0x2 DUP3 ADD SLOAD SWAP1 PUSH1 0x60 DUP7 ADD SWAP2 DUP3 MSTORE PUSH2 0x14AD PUSH1 0x4 PUSH1 0x3 DUP6 ADD SLOAD SWAP5 PUSH1 0x80 DUP10 ADD SWAP6 DUP7 MSTORE ADD PUSH2 0x1E69 JUMP JUMPDEST SWAP4 PUSH1 0xA0 DUP8 ADD SWAP5 DUP6 MSTORE PUSH1 0x40 MLOAD SWAP8 DUP9 SWAP8 DUP2 DUP10 MSTORE MLOAD ISZERO ISZERO SWAP1 DUP9 ADD MSTORE MLOAD PUSH2 0x14CF DUP2 PUSH2 0x1DCF JUMP JUMPDEST PUSH1 0x40 DUP8 ADD MSTORE MLOAD PUSH1 0x60 DUP7 ADD MSTORE MLOAD PUSH1 0x80 DUP6 ADD MSTORE MLOAD PUSH1 0xA0 DUP5 ADD MSTORE MLOAD PUSH1 0xC0 DUP1 DUP5 ADD MSTORE PUSH1 0xE0 DUP4 ADD SWAP1 PUSH2 0x1DEF JUMP JUMPDEST SUB SWAP1 RETURN JUMPDEST POP DUP1 ISZERO ISZERO PUSH2 0x142A JUMP JUMPDEST CALLVALUE PUSH2 0x19F JUMPI PUSH1 0x0 CALLDATASIZE PUSH1 0x3 NOT ADD SLT PUSH2 0x19F JUMPI PUSH1 0x20 PUSH1 0x2 SLOAD PUSH1 0x40 MLOAD SWAP1 DUP2 MSTORE RETURN JUMPDEST CALLVALUE PUSH2 0x19F JUMPI PUSH1 0xE0 CALLDATASIZE PUSH1 0x3 NOT ADD SLT PUSH2 0x19F JUMPI PUSH1 0x4 CALLDATALOAD PUSH8 0xFFFFFFFFFFFFFFFF DUP2 GT PUSH2 0x19F JUMPI PUSH2 0x1553 SWAP1 CALLDATASIZE SWAP1 PUSH1 0x4 ADD PUSH2 0x1D88 JUMP JUMPDEST PUSH1 0x24 SWAP1 DUP2 CALLDATALOAD PUSH8 0xFFFFFFFFFFFFFFFF DUP2 GT PUSH2 0x19F JUMPI PUSH2 0x1575 SWAP1 CALLDATASIZE SWAP1 PUSH1 0x4 ADD PUSH2 0x1D88 JUMP JUMPDEST PUSH1 0xC4 CALLDATALOAD SWAP3 DUP4 ISZERO ISZERO DUP5 SUB PUSH2 0x19F JUMPI PUSH1 0x44 SWAP4 DUP5 CALLDATALOAD ISZERO PUSH2 0x1C09 JUMPI PUSH1 0x2 PUSH1 0x64 CALLDATALOAD LT ISZERO DUP1 PUSH2 0x1BFC JUMPI JUMPDEST ISZERO PUSH2 0x1BC1 JUMPI PUSH1 0x3 PUSH1 0x84 CALLDATALOAD LT ISZERO DUP1 PUSH2 0x1BB4 JUMPI JUMPDEST ISZERO PUSH2 0x1B71 JUMPI PUSH1 0x64 CALLDATALOAD PUSH1 0x84 CALLDATALOAD SUB PUSH2 0x1B2E JUMPI PUSH3 0x15180 PUSH1 0xA4 CALLDATALOAD LT PUSH2 0x1AEB JUMPI PUSH1 0x1 PUSH1 0x2 SLOAD ADD SWAP5 DUP6 PUSH1 0x2 SSTORE DUP6 PUSH1 0x0 MSTORE PUSH1 0x3 PUSH1 0x20 MSTORE PUSH1 0x40 PUSH1 0x0 KECCAK256 SWAP4 DUP7 DUP6 SSTORE DUP6 MLOAD PUSH8 0xFFFFFFFFFFFFFFFF DUP2 GT PUSH2 0x1A17 JUMPI PUSH2 0x1602 PUSH1 0x1 DUP8 ADD SLOAD PUSH2 0x1E2F JUMP JUMPDEST PUSH1 0x1F DUP2 GT PUSH2 0x1AA4 JUMPI JUMPDEST POP DUP1 PUSH1 0x20 PUSH1 0x1F DUP3 GT PUSH1 0x1 EQ PUSH2 0x1A37 JUMPI PUSH1 0x0 SWAP2 PUSH2 0x1A2C JUMPI JUMPDEST POP DUP2 PUSH1 0x1 SHL SWAP2 PUSH1 0x0 NOT SWAP1 PUSH1 0x3 SHL SHR NOT AND OR PUSH1 0x1 DUP7 ADD SSTORE JUMPDEST DUP1 MLOAD SWAP1 PUSH8 0xFFFFFFFFFFFFFFFF DUP3 GT PUSH2 0x1A17 JUMPI DUP2 SWAP1 PUSH2 0x165A PUSH1 0x2 DUP9 ADD SLOAD PUSH2 0x1E2F JUMP JUMPDEST PUSH1 0x1F DUP2 GT PUSH2 0x19C4 JUMPI JUMPDEST POP PUSH1 0x20 SWAP1 PUSH1 0x1F DUP4 GT PUSH1 0x1 EQ PUSH2 0x1952 JUMPI PUSH1 0x0 SWAP3 PUSH2 0x1947 JUMPI JUMPDEST POP POP DUP2 PUSH1 0x1 SHL SWAP2 PUSH1 0x0 NOT SWAP1 PUSH1 0x3 SHL SHR NOT AND OR PUSH1 0x2 DUP6 ADD SSTORE JUMPDEST PUSH1 0x3 DUP5 ADD CALLER PUSH1 0x1 PUSH1 0x1 PUSH1 0x60 SHL SUB PUSH1 0xA0 SHL DUP3 SLOAD AND OR SWAP1 SSTORE CALLDATALOAD PUSH1 0x4 DUP5 ADD SSTORE PUSH1 0x64 CALLDATALOAD PUSH1 0x5 DUP5 ADD SSTORE PUSH1 0x0 PUSH1 0x6 DUP5 ADD SSTORE PUSH1 0x84 CALLDATALOAD PUSH1 0x7 DUP5 ADD SSTORE PUSH1 0x1 PUSH1 0x8 DUP5 ADD SSTORE PUSH1 0x0 PUSH1 0x9 DUP5 ADD SSTORE PUSH1 0xA4 CALLDATALOAD PUSH1 0xA DUP5 ADD SSTORE PUSH1 0xB DUP4 ADD SWAP1 PUSH2 0xFF00 DUP3 SLOAD SWAP2 ISZERO ISZERO PUSH1 0x8 SHL AND SWAP1 PUSH2 0xFFFF NOT AND OR SWAP1 SSTORE PUSH1 0x40 MLOAD SWAP1 PUSH2 0x1702 DUP3 PUSH2 0x1CF5 JUMP JUMPDEST PUSH1 0x1 DUP3 MSTORE PUSH1 0x4 PUSH1 0x20 DUP4 ADD SWAP3 PUSH1 0x0 DUP5 MSTORE PUSH1 0x40 DUP2 ADD PUSH1 0x0 DUP2 MSTORE PUSH1 0x60 DUP3 ADD PUSH1 0x0 DUP2 MSTORE PUSH1 0x80 DUP4 ADD SWAP2 PUSH1 0x0 DUP4 MSTORE PUSH2 0x177E PUSH1 0x40 MLOAD SWAP8 PUSH2 0x173A DUP10 PUSH2 0x1D2E JUMP JUMPDEST PUSH1 0x0 DUP10 MSTORE PUSH1 0xA0 DUP7 ADD SWAP9 DUP10 MSTORE CALLER PUSH1 0x0 MSTORE PUSH1 0xE DUP11 ADD PUSH1 0x20 MSTORE PUSH2 0x176E PUSH1 0x40 PUSH1 0x0 KECCAK256 SWAP7 MLOAD ISZERO ISZERO DUP8 SWAP1 PUSH1 0xFF DUP1 NOT DUP4 SLOAD AND SWAP2 ISZERO ISZERO AND OR SWAP1 SSTORE JUMP JUMPDEST MLOAD PUSH2 0x1778 DUP2 PUSH2 0x1DCF JUMP JUMPDEST DUP6 PUSH2 0x1F67 JUMP JUMPDEST MLOAD PUSH1 0x1 DUP5 ADD SSTORE MLOAD PUSH1 0x2 DUP4 ADD SSTORE MLOAD PUSH1 0x3 DUP3 ADD SSTORE ADD SWAP2 MLOAD DUP1 MLOAD SWAP2 PUSH8 0xFFFFFFFFFFFFFFFF DUP4 GT PUSH2 0x1933 JUMPI POP PUSH2 0x17B0 DUP4 SLOAD PUSH2 0x1E2F JUMP JUMPDEST PUSH1 0x1F DUP2 GT PUSH2 0x18EB JUMPI JUMPDEST POP PUSH1 0x20 SWAP1 PUSH1 0x1F DUP4 GT PUSH1 0x1 EQ PUSH2 0x187E JUMPI PUSH2 0x17F7 SWAP5 SWAP4 SWAP3 SWAP2 PUSH1 0x0 SWAP2 DUP4 PUSH2 0x1873 JUMPI JUMPDEST POP POP DUP2 PUSH1 0x1 SHL SWAP2 PUSH1 0x0 NOT SWAP1 PUSH1 0x3 SHL SHR NOT AND OR SWAP1 SSTORE JUMPDEST PUSH1 0x10 CALLER SWAP2 ADD PUSH2 0x1F86 JUMP JUMPDEST CALLER PUSH1 0x0 MSTORE PUSH1 0x4 PUSH1 0x20 MSTORE PUSH2 0x180E DUP3 PUSH1 0x40 PUSH1 0x0 KECCAK256 PUSH2 0x1FC1 JUMP JUMPDEST DUP2 PUSH32 0x6F657D36DEB3B1AA2E949C5DF40EAC9D79359A73C2402CEFA7AEE870F9CEAFC0 PUSH1 0x40 MLOAD PUSH1 0x20 DUP2 MSTORE DUP1 PUSH2 0x1847 CALLER SWAP6 PUSH1 0x20 DUP4 ADD SWAP1 PUSH2 0x1DEF JUMP JUMPDEST SUB SWAP1 LOG3 CALLER SWAP1 PUSH32 0x78DA64A590C3052953AD9E0A5546BBF12BB68AE7634E3FB2A774E22A8C6557C1 PUSH1 0x0 DUP1 LOG3 STOP JUMPDEST ADD MLOAD SWAP1 POP DUP8 DUP1 PUSH2 0x17D8 JUMP JUMPDEST SWAP1 PUSH1 0x1F NOT DUP4 AND SWAP2 DUP5 PUSH1 0x0 MSTORE PUSH1 0x20 PUSH1 0x0 KECCAK256 SWAP3 PUSH1 0x0 JUMPDEST DUP2 DUP2 LT PUSH2 0x18D3 JUMPI POP SWAP2 PUSH1 0x1 SWAP4 SWAP2 DUP6 PUSH2 0x17F7 SWAP9 SWAP8 SWAP7 SWAP5 LT PUSH2 0x18BA JUMPI JUMPDEST POP POP POP DUP2 SHL ADD SWAP1 SSTORE PUSH2 0x17ED JUMP JUMPDEST ADD MLOAD PUSH1 0x0 NOT PUSH1 0xF8 DUP5 PUSH1 0x3 SHL AND SHR NOT AND SWAP1 SSTORE DUP8 DUP1 DUP1 PUSH2 0x18AD JUMP JUMPDEST SWAP3 SWAP4 PUSH1 0x20 PUSH1 0x1 DUP2 SWAP3 DUP8 DUP7 ADD MLOAD DUP2 SSTORE ADD SWAP6 ADD SWAP4 ADD PUSH2 0x1892 JUMP JUMPDEST DUP4 PUSH1 0x0 MSTORE PUSH1 0x20 PUSH1 0x0 KECCAK256 PUSH1 0x1F DUP5 ADD PUSH1 0x5 SHR DUP2 ADD SWAP2 PUSH1 0x20 DUP6 LT PUSH2 0x1929 JUMPI JUMPDEST PUSH1 0x1F ADD PUSH1 0x5 SHR ADD SWAP1 JUMPDEST DUP2 DUP2 LT PUSH2 0x191D JUMPI POP PUSH2 0x17B9 JUMP JUMPDEST PUSH1 0x0 DUP2 SSTORE PUSH1 0x1 ADD PUSH2 0x1910 JUMP JUMPDEST SWAP1 SWAP2 POP DUP2 SWAP1 PUSH2 0x1907 JUMP JUMPDEST PUSH4 0x4E487B71 PUSH1 0xE0 SHL PUSH1 0x0 SWAP1 DUP2 MSTORE PUSH1 0x41 PUSH1 0x4 MSTORE REVERT JUMPDEST ADD MLOAD SWAP1 POP DUP9 DUP1 PUSH2 0x167A JUMP JUMPDEST SWAP3 POP PUSH1 0x2 DUP8 ADD PUSH1 0x0 MSTORE PUSH1 0x20 PUSH1 0x0 KECCAK256 SWAP1 PUSH1 0x0 SWAP4 JUMPDEST PUSH1 0x1F NOT DUP5 AND DUP6 LT PUSH2 0x19A9 JUMPI PUSH1 0x1 SWAP5 POP DUP4 PUSH1 0x1F NOT DUP2 AND LT PUSH2 0x1990 JUMPI JUMPDEST POP POP POP DUP2 SHL ADD PUSH1 0x2 DUP6 ADD SSTORE PUSH2 0x1692 JUMP JUMPDEST ADD MLOAD PUSH1 0x0 NOT PUSH1 0xF8 DUP5 PUSH1 0x3 SHL AND SHR NOT AND SWAP1 SSTORE DUP9 DUP1 DUP1 PUSH2 0x1980 JUMP JUMPDEST DUP2 DUP2 ADD MLOAD DUP4 SSTORE PUSH1 0x20 SWAP5 DUP6 ADD SWAP5 PUSH1 0x1 SWAP1 SWAP4 ADD SWAP3 SWAP1 SWAP2 ADD SWAP1 PUSH2 0x1965 JUMP JUMPDEST SWAP1 SWAP2 POP PUSH1 0x2 DUP8 ADD PUSH1 0x0 MSTORE PUSH1 0x20 PUSH1 0x0 KECCAK256 PUSH1 0x1F DUP5 ADD PUSH1 0x5 SHR DUP2 ADD PUSH1 0x20 DUP6 LT PUSH2 0x1A10 JUMPI JUMPDEST SWAP1 DUP5 SWAP4 SWAP3 SWAP2 JUMPDEST PUSH1 0x1F DUP4 ADD PUSH1 0x5 SHR DUP3 ADD DUP2 LT PUSH2 0x1A01 JUMPI POP POP PUSH2 0x1663 JUMP JUMPDEST PUSH1 0x0 DUP2 SSTORE DUP6 SWAP5 POP PUSH1 0x1 ADD PUSH2 0x19EB JUMP JUMPDEST POP DUP1 PUSH2 0x19E5 JUMP JUMPDEST DUP5 PUSH4 0x4E487B71 PUSH1 0xE0 SHL PUSH1 0x0 MSTORE PUSH1 0x41 PUSH1 0x4 MSTORE PUSH1 0x0 REVERT JUMPDEST SWAP1 POP DUP8 ADD MLOAD DUP10 PUSH2 0x1622 JUMP JUMPDEST SWAP2 POP PUSH1 0x1 DUP8 ADD PUSH1 0x0 MSTORE PUSH1 0x20 PUSH1 0x0 KECCAK256 PUSH1 0x0 SWAP3 JUMPDEST PUSH1 0x1F NOT DUP4 AND DUP5 LT PUSH2 0x1A8C JUMPI PUSH1 0x1 SWAP4 POP DUP3 PUSH1 0x1F NOT DUP2 AND LT PUSH2 0x1A73 JUMPI JUMPDEST POP POP DUP2 SHL ADD PUSH1 0x1 DUP7 ADD SSTORE PUSH2 0x1639 JUMP JUMPDEST DUP10 ADD MLOAD PUSH1 0x0 NOT PUSH1 0xF8 DUP5 PUSH1 0x3 SHL AND SHR NOT AND SWAP1 SSTORE DUP10 DUP1 PUSH2 0x1A64 JUMP JUMPDEST DUP10 DUP2 ADD MLOAD DUP3 SSTORE PUSH1 0x20 SWAP4 DUP5 ADD SWAP4 PUSH1 0x1 SWAP1 SWAP3 ADD SWAP2 ADD PUSH2 0x1A49 JUMP JUMPDEST PUSH1 0x1 DUP8 ADD PUSH1 0x0 MSTORE PUSH1 0x20 PUSH1 0x0 KECCAK256 PUSH1 0x1F DUP4 ADD PUSH1 0x5 SHR DUP2 ADD PUSH1 0x20 DUP5 LT PUSH2 0x1AE4 JUMPI JUMPDEST PUSH1 0x1F DUP4 ADD PUSH1 0x5 SHR DUP3 ADD DUP2 LT PUSH2 0x1AD8 JUMPI POP POP PUSH2 0x160B JUMP JUMPDEST PUSH1 0x0 DUP2 SSTORE PUSH1 0x1 ADD PUSH2 0x1AC2 JUMP JUMPDEST POP DUP1 PUSH2 0x1AC2 JUMP JUMPDEST PUSH1 0x40 MLOAD PUSH3 0x461BCD PUSH1 0xE5 SHL DUP2 MSTORE PUSH1 0x20 PUSH1 0x4 DUP3 ADD MSTORE PUSH1 0x1F DUP2 DUP5 ADD MSTORE PUSH32 0x4D696E696D756D20726F756E64206475726174696F6E20697320312064617900 DUP2 DUP8 ADD MSTORE PUSH1 0x64 SWAP1 REVERT JUMPDEST PUSH1 0x40 MLOAD PUSH3 0x461BCD PUSH1 0xE5 SHL DUP2 MSTORE PUSH1 0x20 PUSH1 0x4 DUP3 ADD MSTORE PUSH1 0x19 DUP2 DUP5 ADD MSTORE PUSH32 0x4D656D62657273206D75737420657175616C20726F756E647300000000000000 DUP2 DUP8 ADD MSTORE PUSH1 0x64 SWAP1 REVERT JUMPDEST PUSH1 0x40 MLOAD PUSH3 0x461BCD PUSH1 0xE5 SHL DUP2 MSTORE PUSH1 0x20 PUSH1 0x4 DUP3 ADD MSTORE PUSH1 0x1B DUP2 DUP5 ADD MSTORE PUSH32 0x496E76616C6964206D656D62657220636F756E742028332D3230290000000000 DUP2 DUP8 ADD MSTORE PUSH1 0x64 SWAP1 REVERT JUMPDEST POP PUSH1 0x14 PUSH1 0x84 CALLDATALOAD GT ISZERO PUSH2 0x15AB JUMP JUMPDEST PUSH1 0x40 MLOAD PUSH3 0x461BCD PUSH1 0xE5 SHL DUP2 MSTORE PUSH1 0x20 PUSH1 0x4 DUP3 ADD MSTORE PUSH1 0x15 DUP2 DUP5 ADD MSTORE PUSH21 0x496E76616C696420726F756E64732028322D353229 PUSH1 0x58 SHL DUP2 DUP8 ADD MSTORE PUSH1 0x64 SWAP1 REVERT JUMPDEST POP PUSH1 0x34 PUSH1 0x64 CALLDATALOAD GT ISZERO PUSH2 0x1599 JUMP JUMPDEST PUSH1 0x40 MLOAD PUSH3 0x461BCD PUSH1 0xE5 SHL DUP2 MSTORE PUSH1 0x20 PUSH1 0x4 DUP3 ADD MSTORE DUP1 DUP4 ADD DUP4 SWAP1 MSTORE PUSH32 0x436F6E747269627574696F6E20616D6F756E74206D75737420626520706F7369 DUP2 DUP8 ADD MSTORE PUSH4 0x74697665 PUSH1 0xE0 SHL PUSH1 0x64 DUP3 ADD MSTORE PUSH1 0x84 SWAP1 REVERT JUMPDEST CALLVALUE PUSH2 0x19F JUMPI PUSH1 0x40 CALLDATASIZE PUSH1 0x3 NOT ADD SLT PUSH2 0x19F JUMPI PUSH2 0x1C72 PUSH2 0x1CB1 JUMP JUMPDEST PUSH1 0x1 PUSH1 0x1 PUSH1 0xA0 SHL SUB AND PUSH1 0x0 SWAP1 DUP2 MSTORE PUSH1 0x4 PUSH1 0x20 MSTORE PUSH1 0x40 SWAP1 KECCAK256 DUP1 SLOAD PUSH1 0x24 CALLDATALOAD SWAP2 SWAP1 DUP3 LT ISZERO PUSH2 0x19F JUMPI PUSH1 0x20 SWAP2 PUSH2 0x1CA3 SWAP2 PUSH2 0x1CC7 JUMP JUMPDEST SWAP1 SLOAD PUSH1 0x40 MLOAD SWAP2 PUSH1 0x3 SHL SHR DUP2 MSTORE RETURN JUMPDEST PUSH1 0x4 CALLDATALOAD SWAP1 PUSH1 0x1 PUSH1 0x1 PUSH1 0xA0 SHL SUB DUP3 AND DUP3 SUB PUSH2 0x19F JUMPI JUMP JUMPDEST DUP1 SLOAD DUP3 LT ISZERO PUSH2 0x1CDF JUMPI PUSH1 0x0 MSTORE PUSH1 0x20 PUSH1 0x0 KECCAK256 ADD SWAP1 PUSH1 0x0 SWAP1 JUMP JUMPDEST PUSH4 0x4E487B71 PUSH1 0xE0 SHL PUSH1 0x0 MSTORE PUSH1 0x32 PUSH1 0x4 MSTORE PUSH1 0x24 PUSH1 0x0 REVERT JUMPDEST PUSH1 0xC0 DUP2 ADD SWAP1 DUP2 LT PUSH8 0xFFFFFFFFFFFFFFFF DUP3 GT OR PUSH2 0x1000 JUMPI PUSH1 0x40 MSTORE JUMP JUMPDEST PUSH2 0x1E0 DUP2 ADD SWAP1 DUP2 LT PUSH8 0xFFFFFFFFFFFFFFFF DUP3 GT OR PUSH2 0x1000 JUMPI PUSH1 0x40 MSTORE JUMP JUMPDEST PUSH1 0x20 DUP2 ADD SWAP1 DUP2 LT PUSH8 0xFFFFFFFFFFFFFFFF DUP3 GT OR PUSH2 0x1000 JUMPI PUSH1 0x40 MSTORE JUMP JUMPDEST SWAP1 PUSH1 0x1F DUP1 NOT SWAP2 ADD AND DUP2 ADD SWAP1 DUP2 LT PUSH8 0xFFFFFFFFFFFFFFFF DUP3 GT OR PUSH2 0x1000 JUMPI PUSH1 0x40 MSTORE JUMP JUMPDEST PUSH8 0xFFFFFFFFFFFFFFFF DUP2 GT PUSH2 0x1000 JUMPI PUSH1 0x1F ADD PUSH1 0x1F NOT AND PUSH1 0x20 ADD SWAP1 JUMP JUMPDEST DUP2 PUSH1 0x1F DUP3 ADD SLT ISZERO PUSH2 0x19F JUMPI DUP1 CALLDATALOAD SWAP1 PUSH2 0x1D9F DUP3 PUSH2 0x1D6C JUMP JUMPDEST SWAP3 PUSH2 0x1DAD PUSH1 0x40 MLOAD SWAP5 DUP6 PUSH2 0x1D4A JUMP JUMPDEST DUP3 DUP5 MSTORE PUSH1 0x20 DUP4 DUP4 ADD ADD GT PUSH2 0x19F JUMPI DUP2 PUSH1 0x0 SWAP3 PUSH1 0x20 DUP1 SWAP4 ADD DUP4 DUP7 ADD CALLDATACOPY DUP4 ADD ADD MSTORE SWAP1 JUMP JUMPDEST PUSH1 0x3 GT ISZERO PUSH2 0x1DD9 JUMPI JUMP JUMPDEST PUSH4 0x4E487B71 PUSH1 0xE0 SHL PUSH1 0x0 MSTORE PUSH1 0x21 PUSH1 0x4 MSTORE PUSH1 0x24 PUSH1 0x0 REVERT JUMPDEST SWAP2 SWAP1 DUP3 MLOAD SWAP3 DUP4 DUP3 MSTORE PUSH1 0x0 JUMPDEST DUP5 DUP2 LT PUSH2 0x1E1B JUMPI POP POP DUP3 PUSH1 0x0 PUSH1 0x20 DUP1 SWAP5 SWAP6 DUP5 ADD ADD MSTORE PUSH1 0x1F DUP1 NOT SWAP2 ADD AND ADD ADD SWAP1 JUMP JUMPDEST PUSH1 0x20 DUP2 DUP4 ADD DUP2 ADD MLOAD DUP5 DUP4 ADD DUP3 ADD MSTORE ADD PUSH2 0x1DFA JUMP JUMPDEST SWAP1 PUSH1 0x1 DUP3 DUP2 SHR SWAP3 AND DUP1 ISZERO PUSH2 0x1E5F JUMPI JUMPDEST PUSH1 0x20 DUP4 LT EQ PUSH2 0x1E49 JUMPI JUMP JUMPDEST PUSH4 0x4E487B71 PUSH1 0xE0 SHL PUSH1 0x0 MSTORE PUSH1 0x22 PUSH1 0x4 MSTORE PUSH1 0x24 PUSH1 0x0 REVERT JUMPDEST SWAP2 PUSH1 0x7F AND SWAP2 PUSH2 0x1E3E JUMP JUMPDEST SWAP1 PUSH1 0x40 MLOAD SWAP2 DUP3 PUSH1 0x0 DUP3 SLOAD SWAP3 PUSH2 0x1E7D DUP5 PUSH2 0x1E2F JUMP JUMPDEST SWAP1 DUP2 DUP5 MSTORE PUSH1 0x1 SWAP5 DUP6 DUP2 AND SWAP1 DUP2 PUSH1 0x0 EQ PUSH2 0x1EEC JUMPI POP PUSH1 0x1 EQ PUSH2 0x1EA9 JUMPI JUMPDEST POP POP PUSH2 0x1EA7 SWAP3 POP SUB DUP4 PUSH2 0x1D4A JUMP JUMPDEST JUMP JUMPDEST SWAP1 SWAP4 SWAP2 POP PUSH1 0x0 MSTORE PUSH1 0x20 SWAP1 DUP2 PUSH1 0x0 KECCAK256 SWAP4 PUSH1 0x0 SWAP2 JUMPDEST DUP2 DUP4 LT PUSH2 0x1ED4 JUMPI POP POP PUSH2 0x1EA7 SWAP4 POP DUP3 ADD ADD CODESIZE DUP1 PUSH2 0x1E99 JUMP JUMPDEST DUP6 SLOAD DUP9 DUP5 ADD DUP6 ADD MSTORE SWAP5 DUP6 ADD SWAP5 DUP8 SWAP5 POP SWAP2 DUP4 ADD SWAP2 PUSH2 0x1EBC JUMP JUMPDEST SWAP2 POP POP PUSH2 0x1EA7 SWAP5 POP PUSH1 0x20 SWAP3 POP PUSH1 0xFF NOT AND DUP3 DUP5 ADD MSTORE ISZERO ISZERO PUSH1 0x5 SHL DUP3 ADD ADD CODESIZE DUP1 PUSH2 0x1E99 JUMP JUMPDEST PUSH1 0x1 SLOAD PUSH1 0x1 PUSH1 0x1 PUSH1 0xA0 SHL SUB AND CALLER SUB PUSH2 0x1F23 JUMPI JUMP JUMPDEST PUSH1 0x64 PUSH1 0x40 MLOAD PUSH3 0x461BCD PUSH1 0xE5 SHL DUP2 MSTORE PUSH1 0x20 PUSH1 0x4 DUP3 ADD MSTORE PUSH1 0x20 PUSH1 0x24 DUP3 ADD MSTORE PUSH32 0x4F776E61626C653A2063616C6C6572206973206E6F7420746865206F776E6572 PUSH1 0x44 DUP3 ADD MSTORE REVERT JUMPDEST SWAP1 PUSH2 0x1F71 DUP2 PUSH2 0x1DCF JUMP JUMPDEST PUSH2 0xFF00 DUP3 SLOAD SWAP2 PUSH1 0x8 SHL AND SWAP1 PUSH2 0xFF00 NOT AND OR SWAP1 SSTORE JUMP JUMPDEST DUP1 SLOAD PUSH1 0x1 PUSH1 0x40 SHL DUP2 LT ISZERO PUSH2 0x1000 JUMPI PUSH2 0x1FA3 SWAP2 PUSH1 0x1 DUP3 ADD DUP2 SSTORE PUSH2 0x1CC7 JUMP JUMPDEST DUP2 SWAP3 SWAP2 SLOAD SWAP1 PUSH1 0x3 SHL SWAP2 PUSH1 0x1 DUP1 PUSH1 0xA0 SHL SUB DUP1 SWAP2 AND DUP4 SHL SWAP3 SHL NOT AND OR SWAP1 SSTORE JUMP JUMPDEST DUP1 SLOAD PUSH1 0x1 PUSH1 0x40 SHL DUP2 LT ISZERO PUSH2 0x1000 JUMPI PUSH2 0x1FDE SWAP2 PUSH1 0x1 DUP3 ADD DUP2 SSTORE PUSH2 0x1CC7 JUMP JUMPDEST DUP2 SWAP3 SWAP2 SLOAD SWAP1 PUSH1 0x3 SHL SWAP2 DUP3 SHL SWAP2 PUSH1 0x0 NOT SWAP1 SHL NOT AND OR SWAP1 SSTORE JUMP JUMPDEST ISZERO PUSH2 0x1FFD JUMPI JUMP JUMPDEST PUSH1 0x40 MLOAD PUSH3 0x461BCD PUSH1 0xE5 SHL DUP2 MSTORE PUSH1 0x20 PUSH1 0x4 DUP3 ADD MSTORE PUSH1 0x15 PUSH1 0x24 DUP3 ADD MSTORE PUSH21 0x10DA5C98DB1948191BD95CC81B9BDD08195E1A5CDD PUSH1 0x5A SHL PUSH1 0x44 DUP3 ADD MSTORE PUSH1 0x64 SWAP1 REVERT JUMPDEST ISZERO PUSH2 0x2041 JUMPI JUMP JUMPDEST PUSH1 0x40 MLOAD PUSH3 0x461BCD PUSH1 0xE5 SHL DUP2 MSTORE PUSH1 0x20 PUSH1 0x4 DUP3 ADD MSTORE PUSH1 0x11 PUSH1 0x24 DUP3 ADD MSTORE PUSH17 0x436972636C65206E6F7420616374697665 PUSH1 0x78 SHL PUSH1 0x44 DUP3 ADD MSTORE PUSH1 0x64 SWAP1 REVERT JUMPDEST PUSH1 0x0 NOT DUP2 EQ PUSH2 0x698 JUMPI PUSH1 0x1 ADD SWAP1 JUMP JUMPDEST PUSH1 0x2 PUSH1 0x0 SLOAD EQ PUSH2 0x209A JUMPI PUSH1 0x2 PUSH1 0x0 SSTORE JUMP JUMPDEST PUSH1 0x40 MLOAD PUSH3 0x461BCD PUSH1 0xE5 SHL DUP2 MSTORE PUSH1 0x20 PUSH1 0x4 DUP3 ADD MSTORE PUSH1 0x1F PUSH1 0x24 DUP3 ADD MSTORE PUSH32 0x5265656E7472616E637947756172643A207265656E7472616E742063616C6C00 PUSH1 0x44 DUP3 ADD MSTORE PUSH1 0x64 SWAP1 REVERT JUMPDEST ISZERO PUSH2 0x20E6 JUMPI JUMP JUMPDEST PUSH1 0x40 MLOAD PUSH3 0x461BCD PUSH1 0xE5 SHL DUP2 MSTORE PUSH1 0x20 PUSH1 0x4 DUP3 ADD MSTORE PUSH1 0x13 PUSH1 0x24 DUP3 ADD MSTORE PUSH19 0x2737BA10309031B4B931B6329036B2B6B132B9 PUSH1 0x69 SHL PUSH1 0x44 DUP3 ADD MSTORE PUSH1 0x64 SWAP1 REVERT JUMPDEST DUP2 DUP2 MUL SWAP3 SWAP2 DUP2 ISZERO SWAP2 DUP5 DIV EQ OR ISZERO PUSH2 0x698 JUMPI JUMP JUMPDEST SWAP2 SWAP1 DUP3 ADD DUP1 SWAP3 GT PUSH2 0x698 JUMPI JUMP JUMPDEST SWAP2 SWAP1 DUP3 SUB SWAP2 DUP3 GT PUSH2 0x698 JUMPI JUMP JUMPDEST RETURNDATASIZE ISZERO PUSH2 0x2179 JUMPI RETURNDATASIZE SWAP1 PUSH2 0x215F DUP3 PUSH2 0x1D6C JUMP JUMPDEST SWAP2 PUSH2 0x216D PUSH1 0x40 MLOAD SWAP4 DUP5 PUSH2 0x1D4A JUMP JUMPDEST DUP3 MSTORE RETURNDATASIZE PUSH1 0x0 PUSH1 0x20 DUP5 ADD RETURNDATACOPY JUMP JUMPDEST PUSH1 0x60 SWAP1 JUMP INVALID LOG2 PUSH5 0x6970667358 0x22 SLT KECCAK256 0xEE BLOCKHASH SWAP11 0xEC EXTCODESIZE COINBASE SLOAD NOT 0xB4 0xF7 0xE LOG1 POP 0x5E 0xEE DUP16 0xFC SDIV SSTORE STATICCALL 0xDA 0xB2 DIV CALLVALUE 0xC PUSH26 0xE90AF73F88DD64736F6C63430008140033000000000000000000 "},"methodIdentifiers":{"circles(uint256)":"bc5e0f30","claimPayout(uint256)":"8a69614e","contribute(uint256)":"c1cbbca7","createCircle(string,string,uint256,uint256,uint256,uint256,bool)":"11a7001d","emergencyWithdraw(uint256)":"5312ea8e","getCircleInfo(uint256)":"da5f5cff","getMemberInfo(uint256,address)":"1e67939e","getRoundRecipient(uint256,uint256)":"482ab94a","getTotalCircles()":"12353076","getUserCircles(address)":"88e81d8a","joinCircle(uint256)":"86d6cfb3","owner()":"8da5cb5b","renounceOwnership()":"715018a6","transferOwnership(address)":"f2fde38b","userCircles(address,uint256)":"0950dc1f","verifiedMembers(address)":"87da1ddf","verifyMember(address)":"eae25d42"}}}}}