{
  "_format": "hh-sol-artifact-1",
  "contractName": "AidEscrow",
  "sourceName": "contracts/AidEscrow.sol",
  "abi": [
    {
      "inputs": [
        {
          "internalType": "address",
          "name": "_empowerTokenAddress",
          "type": "address"
        }
      ],
      "stateMutability": "nonpayable",
      "type": "constructor"
    },
    {
      "inputs": [
        {
          "internalType": "address",
          "name": "owner",
          "type": "address"
        }
      ],
      "name": "OwnableInvalidOwner",
      "type": "error"
    },
    {
      "inputs": [
        {
          "internalType": "address",
          "name": "account",
          "type": "address"
        }
      ],
      "name": "OwnableUnauthorizedAccount",
      "type": "error"
    },
    {
      "inputs": [],
      "name": "ReentrancyGuardReentrantCall",
      "type": "error"
    },
    {
      "anonymous": false,
      "inputs": [
        {
          "indexed": true,
          "internalType": "uint256",
          "name": "requestId",
          "type": "uint256"
        },
        {
          "indexed": true,
          "internalType": "address",
          "name": "approver",
          "type": "address"
        }
      ],
      "name": "AidApproved",
      "type": "event"
    },
    {
      "anonymous": false,
      "inputs": [
        {
          "indexed": true,
          "internalType": "uint256",
          "name": "requestId",
          "type": "uint256"
        },
        {
          "indexed": true,
          "internalType": "address",
          "name": "recipient",
          "type": "address"
        },
        {
          "indexed": false,
          "internalType": "uint256",
          "name": "amount",
          "type": "uint256"
        }
      ],
      "name": "AidFulfilled",
      "type": "event"
    },
    {
      "anonymous": false,
      "inputs": [
        {
          "indexed": true,
          "internalType": "uint256",
          "name": "requestId",
          "type": "uint256"
        },
        {
          "indexed": true,
          "internalType": "address",
          "name": "requester",
          "type": "address"
        },
        {
          "indexed": false,
          "internalType": "uint256",
          "name": "amount",
          "type": "uint256"
        },
        {
          "indexed": false,
          "internalType": "string",
          "name": "reason",
          "type": "string"
        }
      ],
      "name": "AidRequested",
      "type": "event"
    },
    {
      "anonymous": false,
      "inputs": [
        {
          "indexed": true,
          "internalType": "address",
          "name": "depositor",
          "type": "address"
        },
        {
          "indexed": false,
          "internalType": "uint256",
          "name": "amount",
          "type": "uint256"
        }
      ],
      "name": "EmergencyFundDeposited",
      "type": "event"
    },
    {
      "anonymous": false,
      "inputs": [
        {
          "indexed": true,
          "internalType": "address",
          "name": "previousOwner",
          "type": "address"
        },
        {
          "indexed": true,
          "internalType": "address",
          "name": "newOwner",
          "type": "address"
        }
      ],
      "name": "OwnershipTransferred",
      "type": "event"
    },
    {
      "anonymous": false,
      "inputs": [
        {
          "indexed": true,
          "internalType": "uint256",
          "name": "voucherId",
          "type": "uint256"
        },
        {
          "indexed": true,
          "internalType": "address",
          "name": "recipient",
          "type": "address"
        },
        {
          "indexed": false,
          "internalType": "uint256",
          "name": "amount",
          "type": "uint256"
        },
        {
          "indexed": false,
          "internalType": "string",
          "name": "voucherType",
          "type": "string"
        }
      ],
      "name": "VoucherCreated",
      "type": "event"
    },
    {
      "anonymous": false,
      "inputs": [
        {
          "indexed": true,
          "internalType": "uint256",
          "name": "voucherId",
          "type": "uint256"
        },
        {
          "indexed": true,
          "internalType": "address",
          "name": "recipient",
          "type": "address"
        }
      ],
      "name": "VoucherExpired",
      "type": "event"
    },
    {
      "anonymous": false,
      "inputs": [
        {
          "indexed": true,
          "internalType": "uint256",
          "name": "voucherId",
          "type": "uint256"
        },
        {
          "indexed": true,
          "internalType": "address",
          "name": "recipient",
          "type": "address"
        },
        {
          "indexed": false,
          "internalType": "uint256",
          "name": "amount",
          "type": "uint256"
        }
      ],
      "name": "VoucherRedeemed",
      "type": "event"
    },
    {
      "inputs": [],
      "name": "aidRequestCounter",
      "outputs": [
        {
          "internalType": "uint256",
          "name": "",
          "type": "uint256"
        }
      ],
      "stateMutability": "view",
      "type": "function"
    },
    {
      "inputs": [
        {
          "internalType": "uint256",
          "name": "",
          "type": "uint256"
        }
      ],
      "name": "aidRequests",
      "outputs": [
        {
          "internalType": "address",
          "name": "requester",
          "type": "address"
        },
        {
          "internalType": "uint256",
          "name": "amount",
          "type": "uint256"
        },
        {
          "internalType": "string",
          "name": "reason",
          "type": "string"
        },
        {
          "internalType": "uint256",
          "name": "requestTime",
          "type": "uint256"
        },
        {
          "internalType": "bool",
          "name": "isApproved",
          "type": "bool"
        },
        {
          "internalType": "bool",
          "name": "isFulfilled",
          "type": "bool"
        },
        {
          "internalType": "address",
          "name": "approver",
          "type": "address"
        }
      ],
      "stateMutability": "view",
      "type": "function"
    },
    {
      "inputs": [
        {
          "internalType": "uint256",
          "name": "_requestId",
          "type": "uint256"
        }
      ],
      "name": "approveAid",
      "outputs": [],
      "stateMutability": "nonpayable",
      "type": "function"
    },
    {
      "inputs": [
        {
          "internalType": "address",
          "name": "_recipient",
          "type": "address"
        },
        {
          "internalType": "uint256",
          "name": "_amount",
          "type": "uint256"
        },
        {
          "internalType": "string",
          "name": "_voucherType",
          "type": "string"
        },
        {
          "internalType": "string",
          "name": "_description",
          "type": "string"
        }
      ],
      "name": "createVoucher",
      "outputs": [],
      "stateMutability": "nonpayable",
      "type": "function"
    },
    {
      "inputs": [
        {
          "internalType": "uint256",
          "name": "_amount",
          "type": "uint256"
        }
      ],
      "name": "depositEmergencyFund",
      "outputs": [],
      "stateMutability": "nonpayable",
      "type": "function"
    },
    {
      "inputs": [],
      "name": "emergencyFundBalance",
      "outputs": [
        {
          "internalType": "uint256",
          "name": "",
          "type": "uint256"
        }
      ],
      "stateMutability": "view",
      "type": "function"
    },
    {
      "inputs": [],
      "name": "empowerToken",
      "outputs": [
        {
          "internalType": "contract EmpowerToken",
          "name": "",
          "type": "address"
        }
      ],
      "stateMutability": "view",
      "type": "function"
    },
    {
      "inputs": [],
      "name": "expireVouchers",
      "outputs": [],
      "stateMutability": "nonpayable",
      "type": "function"
    },
    {
      "inputs": [
        {
          "internalType": "uint256",
          "name": "_requestId",
          "type": "uint256"
        }
      ],
      "name": "fulfillAid",
      "outputs": [],
      "stateMutability": "nonpayable",
      "type": "function"
    },
    {
      "inputs": [
        {
          "internalType": "uint256",
          "name": "_requestId",
          "type": "uint256"
        }
      ],
      "name": "getAidRequest",
      "outputs": [
        {
          "components": [
            {
              "internalType": "address",
              "name": "requester",
              "type": "address"
            },
            {
              "internalType": "uint256",
              "name": "amount",
              "type": "uint256"
            },
            {
              "internalType": "string",
              "name": "reason",
              "type": "string"
            },
            {
              "internalType": "uint256",
              "name": "requestTime",
              "type": "uint256"
            },
            {
              "internalType": "bool",
              "name": "isApproved",
              "type": "bool"
            },
            {
              "internalType": "bool",
              "name": "isFulfilled",
              "type": "bool"
            },
            {
              "internalType": "address",
              "name": "approver",
              "type": "address"
            }
          ],
          "internalType": "struct AidEscrow.AidRequest",
          "name": "",
          "type": "tuple"
        }
      ],
      "stateMutability": "view",
      "type": "function"
    },
    {
      "inputs": [],
      "name": "getAidRequestsCount",
      "outputs": [
        {
          "internalType": "uint256",
          "name": "",
          "type": "uint256"
        }
      ],
      "stateMutability": "view",
      "type": "function"
    },
    {
      "inputs": [],
      "name": "getEmergencyFundBalance",
      "outputs": [
        {
          "internalType": "uint256",
          "name": "",
          "type": "uint256"
        }
      ],
      "stateMutability": "view",
      "type": "function"
    },
    {
      "inputs": [
        {
          "internalType": "address",
          "name": "_user",
          "type": "address"
        }
      ],
      "name": "getUserAidRequests",
      "outputs": [
        {
          "internalType": "uint256[]",
          "name": "",
          "type": "uint256[]"
        }
      ],
      "stateMutability": "view",
      "type": "function"
    },
    {
      "inputs": [
        {
          "internalType": "address",
          "name": "_user",
          "type": "address"
        }
      ],
      "name": "getUserVouchers",
      "outputs": [
        {
          "internalType": "uint256[]",
          "name": "",
          "type": "uint256[]"
        }
      ],
      "stateMutability": "view",
      "type": "function"
    },
    {
      "inputs": [
        {
          "internalType": "uint256",
          "name": "_voucherId",
          "type": "uint256"
        }
      ],
      "name": "getVoucher",
      "outputs": [
        {
          "components": [
            {
              "internalType": "address",
              "name": "recipient",
              "type": "address"
            },
            {
              "internalType": "uint256",
              "name": "amount",
              "type": "uint256"
            },
            {
              "internalType": "uint256",
              "name": "expiryTime",
              "type": "uint256"
            },
            {
              "internalType": "bool",
              "name": "isRedeemed",
              "type": "bool"
            },
            {
              "internalType": "bool",
              "name": "isExpired",
              "type": "bool"
            },
            {
              "internalType": "string",
              "name": "voucherType",
              "type": "string"
            },
            {
              "internalType": "string",
              "name": "description",
              "type": "string"
            }
          ],
          "internalType": "struct AidEscrow.Voucher",
          "name": "",
          "type": "tuple"
        }
      ],
      "stateMutability": "view",
      "type": "function"
    },
    {
      "inputs": [],
      "name": "getVouchersCount",
      "outputs": [
        {
          "internalType": "uint256",
          "name": "",
          "type": "uint256"
        }
      ],
      "stateMutability": "view",
      "type": "function"
    },
    {
      "inputs": [],
      "name": "maxVoucherAmount",
      "outputs": [
        {
          "internalType": "uint256",
          "name": "",
          "type": "uint256"
        }
      ],
      "stateMutability": "view",
      "type": "function"
    },
    {
      "inputs": [],
      "name": "owner",
      "outputs": [
        {
          "internalType": "address",
          "name": "",
          "type": "address"
        }
      ],
      "stateMutability": "view",
      "type": "function"
    },
    {
      "inputs": [
        {
          "internalType": "uint256",
          "name": "_voucherId",
          "type": "uint256"
        }
      ],
      "name": "redeemVoucher",
      "outputs": [],
      "stateMutability": "nonpayable",
      "type": "function"
    },
    {
      "inputs": [],
      "name": "renounceOwnership",
      "outputs": [],
      "stateMutability": "nonpayable",
      "type": "function"
    },
    {
      "inputs": [
        {
          "internalType": "uint256",
          "name": "_amount",
          "type": "uint256"
        },
        {
          "internalType": "string",
          "name": "_reason",
          "type": "string"
        }
      ],
      "name": "requestAid",
      "outputs": [],
      "stateMutability": "nonpayable",
      "type": "function"
    },
    {
      "inputs": [
        {
          "internalType": "uint256",
          "name": "_newAmount",
          "type": "uint256"
        }
      ],
      "name": "setMaxVoucherAmount",
      "outputs": [],
      "stateMutability": "nonpayable",
      "type": "function"
    },
    {
      "inputs": [
        {
          "internalType": "uint256",
          "name": "_newTime",
          "type": "uint256"
        }
      ],
      "name": "setVoucherExpiryTime",
      "outputs": [],
      "stateMutability": "nonpayable",
      "type": "function"
    },
    {
      "inputs": [
        {
          "internalType": "address",
          "name": "newOwner",
          "type": "address"
        }
      ],
      "name": "transferOwnership",
      "outputs": [],
      "stateMutability": "nonpayable",
      "type": "function"
    },
    {
      "inputs": [
        {
          "internalType": "address",
          "name": "",
          "type": "address"
        },
        {
          "internalType": "uint256",
          "name": "",
          "type": "uint256"
        }
      ],
      "name": "userAidRequests",
      "outputs": [
        {
          "internalType": "uint256",
          "name": "",
          "type": "uint256"
        }
      ],
      "stateMutability": "view",
      "type": "function"
    },
    {
      "inputs": [
        {
          "internalType": "address",
          "name": "",
          "type": "address"
        },
        {
          "internalType": "uint256",
          "name": "",
          "type": "uint256"
        }
      ],
      "name": "userVouchers",
      "outputs": [
        {
          "internalType": "uint256",
          "name": "",
          "type": "uint256"
        }
      ],
      "stateMutability": "view",
      "type": "function"
    },
    {
      "inputs": [],
      "name": "voucherCounter",
      "outputs": [
        {
          "internalType": "uint256",
          "name": "",
          "type": "uint256"
        }
      ],
      "stateMutability": "view",
      "type": "function"
    },
    {
      "inputs": [],
      "name": "voucherExpiryTime",
      "outputs": [
        {
          "internalType": "uint256",
          "name": "",
          "type": "uint256"
        }
      ],
      "stateMutability": "view",
      "type": "function"
    },
    {
      "inputs": [
        {
          "internalType": "uint256",
          "name": "",
          "type": "uint256"
        }
      ],
      "name": "vouchers",
      "outputs": [
        {
          "internalType": "address",
          "name": "recipient",
          "type": "address"
        },
        {
          "internalType": "uint256",
          "name": "amount",
          "type": "uint256"
        },
        {
          "internalType": "uint256",
          "name": "expiryTime",
          "type": "uint256"
        },
        {
          "internalType": "bool",
          "name": "isRedeemed",
          "type": "bool"
        },
        {
          "internalType": "bool",
          "name": "isExpired",
          "type": "bool"
        },
        {
          "internalType": "string",
          "name": "voucherType",
          "type": "string"
        },
        {
          "internalType": "string",
          "name": "description",
          "type": "string"
        }
      ],
      "stateMutability": "view",
      "type": "function"
    }
  ],
  "bytecode": "0x60a060405260006002556000600355600060085568056bc75e2d6310000060095562015180600a553480156200003457600080fd5b506040516200398b3803806200398b83398181016040528101906200005a919062000255565b336001600081905550600073ffffffffffffffffffffffffffffffffffffffff168173ffffffffffffffffffffffffffffffffffffffff1603620000d85760006040517f1e4fbdf7000000000000000000000000000000000000000000000000000000008152600401620000cf919062000298565b60405180910390fd5b620000e9816200012560201b60201c565b508073ffffffffffffffffffffffffffffffffffffffff1660808173ffffffffffffffffffffffffffffffffffffffff168152505050620002b5565b6000600160009054906101000a900473ffffffffffffffffffffffffffffffffffffffff16905081600160006101000a81548173ffffffffffffffffffffffffffffffffffffffff021916908373ffffffffffffffffffffffffffffffffffffffff1602179055508173ffffffffffffffffffffffffffffffffffffffff168173ffffffffffffffffffffffffffffffffffffffff167f8be0079c531659141344cd1fd0a4f28419497f9722a3daafe3b4186f6b6457e060405160405180910390a35050565b600080fd5b600073ffffffffffffffffffffffffffffffffffffffff82169050919050565b60006200021d82620001f0565b9050919050565b6200022f8162000210565b81146200023b57600080fd5b50565b6000815190506200024f8162000224565b92915050565b6000602082840312156200026e576200026d620001eb565b5b60006200027e848285016200023e565b91505092915050565b620002928162000210565b82525050565b6000602082019050620002af600083018462000287565b92915050565b6080516136a5620002e6600039600081816109db01528181610b67015281816115f7015261181601526136a56000f3fe608060405234801561001057600080fd5b50600436106101cf5760003560e01c806379d93a3b11610104578063c16132ed116100a2578063f2fde38b11610071578063f2fde38b14610516578063f91ce77e14610532578063fb1fb24b14610562578063fd3dd3fc1461057e576101cf565b8063c16132ed146104a4578063cb0186d4146104d4578063db26ed57146104f0578063e7d6451e146104fa576101cf565b806388bb72d1116100de57806388bb72d11461042e5780638da5cb5b1461044c578063a72566da1461046a578063b666db0e14610488576101cf565b806379d93a3b146103d85780637cc87a68146103f45780637f1f5b7a14610412576101cf565b80634054e6d41161017157806369dba34a1161014b57806369dba34a146103625780636a74c14514610392578063715018a6146103b057806371d451a2146103ba576101cf565b80634054e6d4146102de57806356af1ec4146102fc5780635d2ea0ca1461032c576101cf565b8063225f75c8116101ad578063225f75c81461023e57806325b3345c1461025c5780632d211e95146102785780633e97b43f146102a8576101cf565b80630cfa2fd8146101d45780631b433b46146102045780631c6d6b5e14610222575b600080fd5b6101ee60048036038101906101e99190612320565b61059c565b6040516101fb91906124eb565b60405180910390f35b61020c6107d1565b604051610219919061251c565b60405180910390f35b61023c60048036038101906102379190612320565b6107db565b005b610246610b65565b6040516102539190612596565b60405180910390f35b610276600480360381019061027191906126e6565b610b89565b005b610292600480360381019061028d919061276e565b610e69565b60405161029f919061284a565b60405180910390f35b6102c260048036038101906102bd9190612320565b610f00565b6040516102d597969594939291906128d4565b60405180910390f35b6102e661108c565b6040516102f3919061251c565b60405180910390f35b61031660048036038101906103119190612320565b611092565b60405161032391906129ed565b60405180910390f35b61034660048036038101906103419190612320565b61128b565b6040516103599796959493929190612a0f565b60405180910390f35b61037c6004803603810190610377919061276e565b6113af565b604051610389919061284a565b60405180910390f35b61039a611446565b6040516103a7919061251c565b60405180910390f35b6103b8611450565b005b6103c2611464565b6040516103cf919061251c565b60405180910390f35b6103f260048036038101906103ed9190612320565b61146a565b005b6103fc611781565b604051610409919061251c565b60405180910390f35b61042c60048036038101906104279190612320565b611787565b005b610436611799565b604051610443919061251c565b60405180910390f35b61045461179f565b6040516104619190612a85565b60405180910390f35b6104726117c9565b60405161047f919061251c565b60405180910390f35b6104a2600480360381019061049d9190612320565b6117cf565b005b6104be60048036038101906104b99190612aa0565b611961565b6040516104cb919061251c565b60405180910390f35b6104ee60048036038101906104e99190612320565b611992565b005b6104f8611b41565b005b610514600480360381019061050f9190612320565b611c62565b005b610530600480360381019061052b919061276e565b611c74565b005b61054c60048036038101906105479190612aa0565b611cfa565b604051610559919061251c565b60405180910390f35b61057c60048036038101906105779190612ae0565b611d2b565b005b610586612063565b604051610593919061251c565b60405180910390f35b6105a4612212565b60025482106105e8576040517f08c379a00000000000000000000000000000000000000000000000000000000081526004016105df90612bcb565b60405180910390fd5b600460008381526020019081526020016000206040518060e00160405290816000820160009054906101000a900473ffffffffffffffffffffffffffffffffffffffff1673ffffffffffffffffffffffffffffffffffffffff1673ffffffffffffffffffffffffffffffffffffffff16815260200160018201548152602001600282015481526020016003820160009054906101000a900460ff161515151581526020016003820160019054906101000a900460ff161515151581526020016004820180546106b690612c1a565b80601f01602080910402602001604051908101604052809291908181526020018280546106e290612c1a565b801561072f5780601f106107045761010080835404028352916020019161072f565b820191906000526020600020905b81548152906001019060200180831161071257829003601f168201915b5050505050815260200160058201805461074890612c1a565b80601f016020809104026020016040519081016040528092919081815260200182805461077490612c1a565b80156107c15780601f10610796576101008083540402835291602001916107c1565b820191906000526020600020905b8154815290600101906020018083116107a457829003601f168201915b5050505050815250509050919050565b6000600254905090565b6107e361206d565b6002548110610827576040517f08c379a000000000000000000000000000000000000000000000000000000000815260040161081e90612bcb565b60405180910390fd5b60006004600083815260200190815260200160002090508060000160009054906101000a900473ffffffffffffffffffffffffffffffffffffffff1673ffffffffffffffffffffffffffffffffffffffff163373ffffffffffffffffffffffffffffffffffffffff16146108d0576040517f08c379a00000000000000000000000000000000000000000000000000000000081526004016108c790612c97565b60405180910390fd5b8060030160009054906101000a900460ff1615610922576040517f08c379a000000000000000000000000000000000000000000000000000000000815260040161091990612d03565b60405180910390fd5b8060030160019054906101000a900460ff1615610974576040517f08c379a000000000000000000000000000000000000000000000000000000000815260040161096b90612d6f565b60405180910390fd5b806002015442106109ba576040517f08c379a00000000000000000000000000000000000000000000000000000000081526004016109b190612d6f565b60405180910390fd5b60018160030160006101000a81548160ff02191690831515021790555060007f000000000000000000000000000000000000000000000000000000000000000073ffffffffffffffffffffffffffffffffffffffff1663a9059cbb8360000160009054906101000a900473ffffffffffffffffffffffffffffffffffffffff1684600101546040518363ffffffff1660e01b8152600401610a5c929190612d8f565b6020604051808303816000875af1158015610a7b573d6000803e3d6000fd5b505050506040513d601f19601f82011682018060405250810190610a9f9190612de4565b905080610ae1576040517f08c379a0000000000000000000000000000000000000000000000000000000008152600401610ad890612e5d565b60405180910390fd5b8160000160009054906101000a900473ffffffffffffffffffffffffffffffffffffffff1673ffffffffffffffffffffffffffffffffffffffff16837fb757d79c84afbc340d26d38a931274e3ec0c57f9bed689c3d6c4fa29843d89c68460010154604051610b50919061251c565b60405180910390a35050610b626120b3565b50565b7f000000000000000000000000000000000000000000000000000000000000000081565b600082118015610b9b57506009548211155b610bda576040517f08c379a0000000000000000000000000000000000000000000000000000000008152600401610bd190612ec9565b60405180910390fd5b6000815111610c1e576040517f08c379a0000000000000000000000000000000000000000000000000000000008152600401610c1590612f35565b60405180910390fd5b600060036000815480929190610c3390612f84565b9190505590506040518060e001604052803373ffffffffffffffffffffffffffffffffffffffff168152602001848152602001838152602001428152602001600015158152602001600015158152602001600073ffffffffffffffffffffffffffffffffffffffff168152506005600083815260200190815260200160002060008201518160000160006101000a81548173ffffffffffffffffffffffffffffffffffffffff021916908373ffffffffffffffffffffffffffffffffffffffff160217905550602082015181600101556040820151816002019081610d18919061316e565b506060820151816003015560808201518160040160006101000a81548160ff02191690831515021790555060a08201518160040160016101000a81548160ff02191690831515021790555060c08201518160040160026101000a81548173ffffffffffffffffffffffffffffffffffffffff021916908373ffffffffffffffffffffffffffffffffffffffff160217905550905050600760003373ffffffffffffffffffffffffffffffffffffffff1673ffffffffffffffffffffffffffffffffffffffff1681526020019081526020016000208190806001815401808255809150506001900390600052602060002001600090919091909150553373ffffffffffffffffffffffffffffffffffffffff16817fd1eee5493849e229fbc249178085f514823c50a36c980d1dcddb11b67e66d9ef8585604051610e5c929190613240565b60405180910390a3505050565b6060600660008373ffffffffffffffffffffffffffffffffffffffff1673ffffffffffffffffffffffffffffffffffffffff168152602001908152602001600020805480602002602001604051908101604052809291908181526020018280548015610ef457602002820191906000526020600020905b815481526020019060010190808311610ee0575b50505050509050919050565b60046020528060005260406000206000915090508060000160009054906101000a900473ffffffffffffffffffffffffffffffffffffffff16908060010154908060020154908060030160009054906101000a900460ff16908060030160019054906101000a900460ff1690806004018054610f7b90612c1a565b80601f0160208091040260200160405190810160405280929190818152602001828054610fa790612c1a565b8015610ff45780601f10610fc957610100808354040283529160200191610ff4565b820191906000526020600020905b815481529060010190602001808311610fd757829003601f168201915b50505050509080600501805461100990612c1a565b80601f016020809104026020016040519081016040528092919081815260200182805461103590612c1a565b80156110825780601f1061105757610100808354040283529160200191611082565b820191906000526020600020905b81548152906001019060200180831161106557829003601f168201915b5050505050905087565b60025481565b61109a612269565b60035482106110de576040517f08c379a00000000000000000000000000000000000000000000000000000000081526004016110d5906132bc565b60405180910390fd5b600560008381526020019081526020016000206040518060e00160405290816000820160009054906101000a900473ffffffffffffffffffffffffffffffffffffffff1673ffffffffffffffffffffffffffffffffffffffff1673ffffffffffffffffffffffffffffffffffffffff1681526020016001820154815260200160028201805461116c90612c1a565b80601f016020809104026020016040519081016040528092919081815260200182805461119890612c1a565b80156111e55780601f106111ba576101008083540402835291602001916111e5565b820191906000526020600020905b8154815290600101906020018083116111c857829003601f168201915b50505050508152602001600382015481526020016004820160009054906101000a900460ff161515151581526020016004820160019054906101000a900460ff161515151581526020016004820160029054906101000a900473ffffffffffffffffffffffffffffffffffffffff1673ffffffffffffffffffffffffffffffffffffffff1673ffffffffffffffffffffffffffffffffffffffff16815250509050919050565b60056020528060005260406000206000915090508060000160009054906101000a900473ffffffffffffffffffffffffffffffffffffffff16908060010154908060020180546112da90612c1a565b80601f016020809104026020016040519081016040528092919081815260200182805461130690612c1a565b80156113535780601f1061132857610100808354040283529160200191611353565b820191906000526020600020905b81548152906001019060200180831161133657829003601f168201915b5050505050908060030154908060040160009054906101000a900460ff16908060040160019054906101000a900460ff16908060040160029054906101000a900473ffffffffffffffffffffffffffffffffffffffff16905087565b6060600760008373ffffffffffffffffffffffffffffffffffffffff1673ffffffffffffffffffffffffffffffffffffffff16815260200190815260200160002080548060200260200160405190810160405280929190818152602001828054801561143a57602002820191906000526020600020905b815481526020019060010190808311611426575b50505050509050919050565b6000600854905090565b6114586120bd565b6114626000612144565b565b60095481565b61147261206d565b60035481106114b6576040517f08c379a00000000000000000000000000000000000000000000000000000000081526004016114ad906132bc565b60405180910390fd5b60006005600083815260200190815260200160002090508060040160009054906101000a900460ff1661151e576040517f08c379a000000000000000000000000000000000000000000000000000000000815260040161151590613328565b60405180910390fd5b8060040160019054906101000a900460ff1615611570576040517f08c379a000000000000000000000000000000000000000000000000000000000815260040161156790613394565b60405180910390fd5b806001015460085410156115b9576040517f08c379a00000000000000000000000000000000000000000000000000000000081526004016115b090613400565b60405180910390fd5b60018160040160016101000a81548160ff0219169083151502179055508060010154600860008282546115ec9190613420565b9250508190555060007f000000000000000000000000000000000000000000000000000000000000000073ffffffffffffffffffffffffffffffffffffffff1663a9059cbb8360000160009054906101000a900473ffffffffffffffffffffffffffffffffffffffff1684600101546040518363ffffffff1660e01b8152600401611678929190612d8f565b6020604051808303816000875af1158015611697573d6000803e3d6000fd5b505050506040513d601f19601f820116820180604052508101906116bb9190612de4565b9050806116fd576040517f08c379a00000000000000000000000000000000000000000000000000000000081526004016116f490612e5d565b60405180910390fd5b8160000160009054906101000a900473ffffffffffffffffffffffffffffffffffffffff1673ffffffffffffffffffffffffffffffffffffffff16837f0d34e64d1b8d8e7a1adaf7ddf091fd7f22f7f05c9a666a2f7436315d83a98464846001015460405161176c919061251c565b60405180910390a3505061177e6120b3565b50565b600a5481565b61178f6120bd565b8060098190555050565b60085481565b6000600160009054906101000a900473ffffffffffffffffffffffffffffffffffffffff16905090565b60035481565b60008111611812576040517f08c379a0000000000000000000000000000000000000000000000000000000008152600401611809906134a0565b60405180910390fd5b60007f000000000000000000000000000000000000000000000000000000000000000073ffffffffffffffffffffffffffffffffffffffff166323b872dd3330856040518463ffffffff1660e01b8152600401611871939291906134c0565b6020604051808303816000875af1158015611890573d6000803e3d6000fd5b505050506040513d601f19601f820116820180604052508101906118b49190612de4565b9050806118f6576040517f08c379a00000000000000000000000000000000000000000000000000000000081526004016118ed90613543565b60405180910390fd5b81600860008282546119089190613563565b925050819055503373ffffffffffffffffffffffffffffffffffffffff167f2557f2bdcc42963168e5ccb01b90069c1669a3770565db541def14e7d0a524d483604051611955919061251c565b60405180910390a25050565b6007602052816000526040600020818154811061197d57600080fd5b90600052602060002001600091509150505481565b61199a6120bd565b60035481106119de576040517f08c379a00000000000000000000000000000000000000000000000000000000081526004016119d5906132bc565b60405180910390fd5b60006005600083815260200190815260200160002090508060040160009054906101000a900460ff1615611a47576040517f08c379a0000000000000000000000000000000000000000000000000000000008152600401611a3e906135e3565b60405180910390fd5b8060040160019054906101000a900460ff1615611a99576040517f08c379a0000000000000000000000000000000000000000000000000000000008152600401611a9090613394565b60405180910390fd5b60018160040160006101000a81548160ff021916908315150217905550338160040160026101000a81548173ffffffffffffffffffffffffffffffffffffffff021916908373ffffffffffffffffffffffffffffffffffffffff1602179055503373ffffffffffffffffffffffffffffffffffffffff16827fbf152a48a0dfd3125b3fd66fee0c65f07191868c7d72c054b250635fb094669360405160405180910390a35050565b60005b600254811015611c5f5760006004600083815260200190815260200160002090508060030160009054906101000a900460ff16158015611b9357508060030160019054906101000a900460ff16155b8015611ba3575080600201544210155b15611c4b5760018160030160016101000a81548160ff021916908315150217905550806001015460086000828254611bdb9190613563565b925050819055508060000160009054906101000a900473ffffffffffffffffffffffffffffffffffffffff1673ffffffffffffffffffffffffffffffffffffffff16827fae4caf955af08c7b0a49bc2bbcdbc008419a95920b9c8e4c5857d0172bb3cae360405160405180910390a35b508080611c5790612f84565b915050611b44565b50565b611c6a6120bd565b80600a8190555050565b611c7c6120bd565b600073ffffffffffffffffffffffffffffffffffffffff168173ffffffffffffffffffffffffffffffffffffffff1603611cee5760006040517f1e4fbdf7000000000000000000000000000000000000000000000000000000008152600401611ce59190612a85565b60405180910390fd5b611cf781612144565b50565b60066020528160005260406000208181548110611d1657600080fd5b90600052602060002001600091509150505481565b611d336120bd565b600073ffffffffffffffffffffffffffffffffffffffff168473ffffffffffffffffffffffffffffffffffffffff1603611da2576040517f08c379a0000000000000000000000000000000000000000000000000000000008152600401611d999061364f565b60405180910390fd5b600083118015611db457506009548311155b611df3576040517f08c379a0000000000000000000000000000000000000000000000000000000008152600401611dea90612ec9565b60405180910390fd5b826008541015611e38576040517f08c379a0000000000000000000000000000000000000000000000000000000008152600401611e2f90613400565b60405180910390fd5b600060026000815480929190611e4d90612f84565b9190505590506040518060e001604052808673ffffffffffffffffffffffffffffffffffffffff168152602001858152602001600a5442611e8e9190613563565b8152602001600015158152602001600015158152602001848152602001838152506004600083815260200190815260200160002060008201518160000160006101000a81548173ffffffffffffffffffffffffffffffffffffffff021916908373ffffffffffffffffffffffffffffffffffffffff160217905550602082015181600101556040820151816002015560608201518160030160006101000a81548160ff02191690831515021790555060808201518160030160016101000a81548160ff02191690831515021790555060a0820151816004019081611f72919061316e565b5060c0820151816005019081611f88919061316e565b50905050600660008673ffffffffffffffffffffffffffffffffffffffff1673ffffffffffffffffffffffffffffffffffffffff16815260200190815260200160002081908060018154018082558091505060019003906000526020600020016000909190919091505583600860008282546120049190613420565b925050819055508473ffffffffffffffffffffffffffffffffffffffff16817f060688df23f29701ca8aef028d597fac1c74c7d77736fc355951b82d1a977b508686604051612054929190613240565b60405180910390a35050505050565b6000600354905090565b6002600054036120a9576040517f3ee5aeb500000000000000000000000000000000000000000000000000000000815260040160405180910390fd5b6002600081905550565b6001600081905550565b6120c561220a565b73ffffffffffffffffffffffffffffffffffffffff166120e361179f565b73ffffffffffffffffffffffffffffffffffffffff16146121425761210661220a565b6040517f118cdaa70000000000000000000000000000000000000000000000000000000081526004016121399190612a85565b60405180910390fd5b565b6000600160009054906101000a900473ffffffffffffffffffffffffffffffffffffffff16905081600160006101000a81548173ffffffffffffffffffffffffffffffffffffffff021916908373ffffffffffffffffffffffffffffffffffffffff1602179055508173ffffffffffffffffffffffffffffffffffffffff168173ffffffffffffffffffffffffffffffffffffffff167f8be0079c531659141344cd1fd0a4f28419497f9722a3daafe3b4186f6b6457e060405160405180910390a35050565b600033905090565b6040518060e00160405280600073ffffffffffffffffffffffffffffffffffffffff168152602001600081526020016000815260200160001515815260200160001515815260200160608152602001606081525090565b6040518060e00160405280600073ffffffffffffffffffffffffffffffffffffffff168152602001600081526020016060815260200160008152602001600015158152602001600015158152602001600073ffffffffffffffffffffffffffffffffffffffff1681525090565b6000604051905090565b600080fd5b600080fd5b6000819050919050565b6122fd816122ea565b811461230857600080fd5b50565b60008135905061231a816122f4565b92915050565b600060208284031215612336576123356122e0565b5b60006123448482850161230b565b91505092915050565b600073ffffffffffffffffffffffffffffffffffffffff82169050919050565b60006123788261234d565b9050919050565b6123888161236d565b82525050565b612397816122ea565b82525050565b60008115159050919050565b6123b28161239d565b82525050565b600081519050919050565b600082825260208201905092915050565b60005b838110156123f25780820151818401526020810190506123d7565b60008484015250505050565b6000601f19601f8301169050919050565b600061241a826123b8565b61242481856123c3565b93506124348185602086016123d4565b61243d816123fe565b840191505092915050565b600060e083016000830151612460600086018261237f565b506020830151612473602086018261238e565b506040830151612486604086018261238e565b50606083015161249960608601826123a9565b5060808301516124ac60808601826123a9565b5060a083015184820360a08601526124c4828261240f565b91505060c083015184820360c08601526124de828261240f565b9150508091505092915050565b600060208201905081810360008301526125058184612448565b905092915050565b612516816122ea565b82525050565b6000602082019050612531600083018461250d565b92915050565b6000819050919050565b600061255c6125576125528461234d565b612537565b61234d565b9050919050565b600061256e82612541565b9050919050565b600061258082612563565b9050919050565b61259081612575565b82525050565b60006020820190506125ab6000830184612587565b92915050565b600080fd5b600080fd5b7f4e487b7100000000000000000000000000000000000000000000000000000000600052604160045260246000fd5b6125f3826123fe565b810181811067ffffffffffffffff82111715612612576126116125bb565b5b80604052505050565b60006126256122d6565b905061263182826125ea565b919050565b600067ffffffffffffffff821115612651576126506125bb565b5b61265a826123fe565b9050602081019050919050565b82818337600083830152505050565b600061268961268484612636565b61261b565b9050828152602081018484840111156126a5576126a46125b6565b5b6126b0848285612667565b509392505050565b600082601f8301126126cd576126cc6125b1565b5b81356126dd848260208601612676565b91505092915050565b600080604083850312156126fd576126fc6122e0565b5b600061270b8582860161230b565b925050602083013567ffffffffffffffff81111561272c5761272b6122e5565b5b612738858286016126b8565b9150509250929050565b61274b8161236d565b811461275657600080fd5b50565b60008135905061276881612742565b92915050565b600060208284031215612784576127836122e0565b5b600061279284828501612759565b91505092915050565b600081519050919050565b600082825260208201905092915050565b6000819050602082019050919050565b60006127d3838361238e565b60208301905092915050565b6000602082019050919050565b60006127f78261279b565b61280181856127a6565b935061280c836127b7565b8060005b8381101561283d57815161282488826127c7565b975061282f836127df565b925050600181019050612810565b5085935050505092915050565b6000602082019050818103600083015261286481846127ec565b905092915050565b6128758161236d565b82525050565b6128848161239d565b82525050565b600082825260208201905092915050565b60006128a6826123b8565b6128b0818561288a565b93506128c08185602086016123d4565b6128c9816123fe565b840191505092915050565b600060e0820190506128e9600083018a61286c565b6128f6602083018961250d565b612903604083018861250d565b612910606083018761287b565b61291d608083018661287b565b81810360a083015261292f818561289b565b905081810360c0830152612943818461289b565b905098975050505050505050565b600060e083016000830151612969600086018261237f565b50602083015161297c602086018261238e565b5060408301518482036040860152612994828261240f565b91505060608301516129a9606086018261238e565b5060808301516129bc60808601826123a9565b5060a08301516129cf60a08601826123a9565b5060c08301516129e260c086018261237f565b508091505092915050565b60006020820190508181036000830152612a078184612951565b905092915050565b600060e082019050612a24600083018a61286c565b612a31602083018961250d565b8181036040830152612a43818861289b565b9050612a52606083018761250d565b612a5f608083018661287b565b612a6c60a083018561287b565b612a7960c083018461286c565b98975050505050505050565b6000602082019050612a9a600083018461286c565b92915050565b60008060408385031215612ab757612ab66122e0565b5b6000612ac585828601612759565b9250506020612ad68582860161230b565b9150509250929050565b60008060008060808587031215612afa57612af96122e0565b5b6000612b0887828801612759565b9450506020612b198782880161230b565b935050604085013567ffffffffffffffff811115612b3a57612b396122e5565b5b612b46878288016126b8565b925050606085013567ffffffffffffffff811115612b6757612b666122e5565b5b612b73878288016126b8565b91505092959194509250565b7f496e76616c696420766f75636865722049440000000000000000000000000000600082015250565b6000612bb560128361288a565b9150612bc082612b7f565b602082019050919050565b60006020820190508181036000830152612be481612ba8565b9050919050565b7f4e487b7100000000000000000000000000000000000000000000000000000000600052602260045260246000fd5b60006002820490506001821680612c3257607f821691505b602082108103612c4557612c44612beb565b5b50919050565b7f4f6e6c7920726563697069656e742063616e2072656465656d00000000000000600082015250565b6000612c8160198361288a565b9150612c8c82612c4b565b602082019050919050565b60006020820190508181036000830152612cb081612c74565b9050919050565b7f416c72656164792072656465656d656400000000000000000000000000000000600082015250565b6000612ced60108361288a565b9150612cf882612cb7565b602082019050919050565b60006020820190508181036000830152612d1c81612ce0565b9050919050565b7f566f756368657220657870697265640000000000000000000000000000000000600082015250565b6000612d59600f8361288a565b9150612d6482612d23565b602082019050919050565b60006020820190508181036000830152612d8881612d4c565b9050919050565b6000604082019050612da4600083018561286c565b612db1602083018461250d565b9392505050565b612dc18161239d565b8114612dcc57600080fd5b50565b600081519050612dde81612db8565b92915050565b600060208284031215612dfa57612df96122e0565b5b6000612e0884828501612dcf565b91505092915050565b7f5472616e73666572206661696c65640000000000000000000000000000000000600082015250565b6000612e47600f8361288a565b9150612e5282612e11565b602082019050919050565b60006020820190508181036000830152612e7681612e3a565b9050919050565b7f496e76616c696420616d6f756e74000000000000000000000000000000000000600082015250565b6000612eb3600e8361288a565b9150612ebe82612e7d565b602082019050919050565b60006020820190508181036000830152612ee281612ea6565b9050919050565b7f526561736f6e2072657175697265640000000000000000000000000000000000600082015250565b6000612f1f600f8361288a565b9150612f2a82612ee9565b602082019050919050565b60006020820190508181036000830152612f4e81612f12565b9050919050565b7f4e487b7100000000000000000000000000000000000000000000000000000000600052601160045260246000fd5b6000612f8f826122ea565b91507fffffffffffffffffffffffffffffffffffffffffffffffffffffffffffffffff8203612fc157612fc0612f55565b5b600182019050919050565b60008190508160005260206000209050919050565b60006020601f8301049050919050565b600082821b905092915050565b60006008830261302e7fffffffffffffffffffffffffffffffffffffffffffffffffffffffffffffffff82612ff1565b6130388683612ff1565b95508019841693508086168417925050509392505050565b600061306b613066613061846122ea565b612537565b6122ea565b9050919050565b6000819050919050565b61308583613050565b61309961309182613072565b848454612ffe565b825550505050565b600090565b6130ae6130a1565b6130b981848461307c565b505050565b5b818110156130dd576130d26000826130a6565b6001810190506130bf565b5050565b601f821115613122576130f381612fcc565b6130fc84612fe1565b8101602085101561310b578190505b61311f61311785612fe1565b8301826130be565b50505b505050565b600082821c905092915050565b600061314560001984600802613127565b1980831691505092915050565b600061315e8383613134565b9150826002028217905092915050565b613177826123b8565b67ffffffffffffffff8111156131905761318f6125bb565b5b61319a8254612c1a565b6131a58282856130e1565b600060209050601f8311600181146131d857600084156131c6578287015190505b6131d08582613152565b865550613238565b601f1984166131e686612fcc565b60005b8281101561320e578489015182556001820191506020850194506020810190506131e9565b8683101561322b5784890151613227601f891682613134565b8355505b6001600288020188555050505b505050505050565b6000604082019050613255600083018561250d565b8181036020830152613267818461289b565b90509392505050565b7f496e76616c696420726571756573742049440000000000000000000000000000600082015250565b60006132a660128361288a565b91506132b182613270565b602082019050919050565b600060208201905081810360008301526132d581613299565b9050919050565b7f52657175657374206e6f7420617070726f766564000000000000000000000000600082015250565b600061331260148361288a565b915061331d826132dc565b602082019050919050565b6000602082019050818103600083015261334181613305565b9050919050565b7f416c72656164792066756c66696c6c6564000000000000000000000000000000600082015250565b600061337e60118361288a565b915061338982613348565b602082019050919050565b600060208201905081810360008301526133ad81613371565b9050919050565b7f496e73756666696369656e7420656d657267656e63792066756e647300000000600082015250565b60006133ea601c8361288a565b91506133f5826133b4565b602082019050919050565b60006020820190508181036000830152613419816133dd565b9050919050565b600061342b826122ea565b9150613436836122ea565b925082820390508181111561344e5761344d612f55565b5b92915050565b7f416d6f756e74206d75737420626520706f736974697665000000000000000000600082015250565b600061348a60178361288a565b915061349582613454565b602082019050919050565b600060208201905081810360008301526134b98161347d565b9050919050565b60006060820190506134d5600083018661286c565b6134e2602083018561286c565b6134ef604083018461250d565b949350505050565b7f546f6b656e207472616e73666572206661696c65640000000000000000000000600082015250565b600061352d60158361288a565b9150613538826134f7565b602082019050919050565b6000602082019050818103600083015261355c81613520565b9050919050565b600061356e826122ea565b9150613579836122ea565b925082820190508082111561359157613590612f55565b5b92915050565b7f416c726561647920617070726f76656400000000000000000000000000000000600082015250565b60006135cd60108361288a565b91506135d882613597565b602082019050919050565b600060208201905081810360008301526135fc816135c0565b9050919050565b7f496e76616c696420726563697069656e74000000000000000000000000000000600082015250565b600061363960118361288a565b915061364482613603565b602082019050919050565b600060208201905081810360008301526136688161362c565b905091905056fea2646970667358221220f0dbc5b6a63a15439ba7229433e71257648ac833e743fa035ddde26d22672f6e64736f6c63430008140033",
  "linkReferences": {},
  "deployedLinkReferences": {}
}