{
  "_format": "hh-sol-artifact-1",
  "contractName": "AssistanceCenterRegistry",
  "sourceName": "contracts/AssistanceCenterRegistry.sol",
  "abi": [
    {
      "inputs": [],
      "stateMutability": "nonpayable",
      "type": "constructor"
    },
    {
      "anonymous": false,
      "inputs": [
        {
          "indexed": true,
          "internalType": "uint256",
          "name": "id",
          "type": "uint256"
        },
        {
          "indexed": false,
          "internalType": "string",
          "name": "name",
          "type": "string"
        },
        {
          "indexed": false,
          "internalType": "string",
          "name": "location",
          "type": "string"
        },
        {
          "indexed": false,
          "internalType": "address",
          "name": "owner",
          "type": "address"
        }
      ],
      "name": "CenterRegistered",
      "type": "event"
    },
    {
      "anonymous": false,
      "inputs": [
        {
          "indexed": true,
          "internalType": "uint256",
          "name": "id",
          "type": "uint256"
        },
        {
          "indexed": false,
          "internalType": "address",
          "name": "verifier",
          "type": "address"
        },
        {
          "indexed": false,
          "internalType": "uint256",
          "name": "timestamp",
          "type": "uint256"
        }
      ],
      "name": "CenterVerified",
      "type": "event"
    },
    {
      "anonymous": false,
      "inputs": [
        {
          "indexed": true,
          "internalType": "uint256",
          "name": "centerId",
          "type": "uint256"
        },
        {
          "indexed": false,
          "internalType": "address",
          "name": "user",
          "type": "address"
        },
        {
          "indexed": false,
          "internalType": "uint256",
          "name": "timestamp",
          "type": "uint256"
        }
      ],
      "name": "EmergencyAlert",
      "type": "event"
    },
    {
      "anonymous": false,
      "inputs": [
        {
          "indexed": true,
          "internalType": "uint256",
          "name": "centerId",
          "type": "uint256"
        },
        {
          "indexed": false,
          "internalType": "address",
          "name": "reviewer",
          "type": "address"
        },
        {
          "indexed": false,
          "internalType": "uint8",
          "name": "rating",
          "type": "uint8"
        },
        {
          "indexed": false,
          "internalType": "uint256",
          "name": "timestamp",
          "type": "uint256"
        }
      ],
      "name": "ReviewAdded",
      "type": "event"
    },
    {
      "anonymous": false,
      "inputs": [
        {
          "indexed": false,
          "internalType": "address",
          "name": "verifier",
          "type": "address"
        }
      ],
      "name": "VerifierAdded",
      "type": "event"
    },
    {
      "inputs": [
        {
          "internalType": "uint256",
          "name": "_centerId",
          "type": "uint256"
        },
        {
          "internalType": "uint8",
          "name": "_rating",
          "type": "uint8"
        },
        {
          "internalType": "string",
          "name": "_comment",
          "type": "string"
        }
      ],
      "name": "addReview",
      "outputs": [],
      "stateMutability": "nonpayable",
      "type": "function"
    },
    {
      "inputs": [
        {
          "internalType": "address",
          "name": "_verifier",
          "type": "address"
        }
      ],
      "name": "addVerifier",
      "outputs": [],
      "stateMutability": "nonpayable",
      "type": "function"
    },
    {
      "inputs": [],
      "name": "admin",
      "outputs": [
        {
          "internalType": "address",
          "name": "",
          "type": "address"
        }
      ],
      "stateMutability": "view",
      "type": "function"
    },
    {
      "inputs": [],
      "name": "centerCount",
      "outputs": [
        {
          "internalType": "uint256",
          "name": "",
          "type": "uint256"
        }
      ],
      "stateMutability": "view",
      "type": "function"
    },
    {
      "inputs": [
        {
          "internalType": "uint256",
          "name": "",
          "type": "uint256"
        },
        {
          "internalType": "uint256",
          "name": "",
          "type": "uint256"
        }
      ],
      "name": "centerReviews",
      "outputs": [
        {
          "internalType": "address",
          "name": "reviewer",
          "type": "address"
        },
        {
          "internalType": "uint256",
          "name": "centerId",
          "type": "uint256"
        },
        {
          "internalType": "uint8",
          "name": "rating",
          "type": "uint8"
        },
        {
          "internalType": "string",
          "name": "comment",
          "type": "string"
        },
        {
          "internalType": "uint256",
          "name": "timestamp",
          "type": "uint256"
        },
        {
          "internalType": "bool",
          "name": "verified",
          "type": "bool"
        }
      ],
      "stateMutability": "view",
      "type": "function"
    },
    {
      "inputs": [
        {
          "internalType": "uint256",
          "name": "",
          "type": "uint256"
        }
      ],
      "name": "centers",
      "outputs": [
        {
          "internalType": "string",
          "name": "name",
          "type": "string"
        },
        {
          "internalType": "string",
          "name": "location",
          "type": "string"
        },
        {
          "internalType": "string",
          "name": "country",
          "type": "string"
        },
        {
          "internalType": "string",
          "name": "province",
          "type": "string"
        },
        {
          "internalType": "string",
          "name": "community",
          "type": "string"
        },
        {
          "internalType": "string",
          "name": "services",
          "type": "string"
        },
        {
          "internalType": "string",
          "name": "contactInfo",
          "type": "string"
        },
        {
          "internalType": "address",
          "name": "owner",
          "type": "address"
        },
        {
          "internalType": "bool",
          "name": "verified",
          "type": "bool"
        },
        {
          "internalType": "uint256",
          "name": "registrationDate",
          "type": "uint256"
        },
        {
          "internalType": "uint256",
          "name": "verificationDate",
          "type": "uint256"
        }
      ],
      "stateMutability": "view",
      "type": "function"
    },
    {
      "inputs": [
        {
          "internalType": "uint256",
          "name": "_id",
          "type": "uint256"
        }
      ],
      "name": "getCenter",
      "outputs": [
        {
          "components": [
            {
              "internalType": "string",
              "name": "name",
              "type": "string"
            },
            {
              "internalType": "string",
              "name": "location",
              "type": "string"
            },
            {
              "internalType": "string",
              "name": "country",
              "type": "string"
            },
            {
              "internalType": "string",
              "name": "province",
              "type": "string"
            },
            {
              "internalType": "string",
              "name": "community",
              "type": "string"
            },
            {
              "internalType": "string",
              "name": "services",
              "type": "string"
            },
            {
              "internalType": "string",
              "name": "contactInfo",
              "type": "string"
            },
            {
              "internalType": "address",
              "name": "owner",
              "type": "address"
            },
            {
              "internalType": "bool",
              "name": "verified",
              "type": "bool"
            },
            {
              "internalType": "uint256",
              "name": "registrationDate",
              "type": "uint256"
            },
            {
              "internalType": "uint256",
              "name": "verificationDate",
              "type": "uint256"
            }
          ],
          "internalType": "struct AssistanceCenterRegistry.Center",
          "name": "",
          "type": "tuple"
        }
      ],
      "stateMutability": "view",
      "type": "function"
    },
    {
      "inputs": [
        {
          "internalType": "uint256",
          "name": "_centerId",
          "type": "uint256"
        }
      ],
      "name": "getCenterReviews",
      "outputs": [
        {
          "components": [
            {
              "internalType": "address",
              "name": "reviewer",
              "type": "address"
            },
            {
              "internalType": "uint256",
              "name": "centerId",
              "type": "uint256"
            },
            {
              "internalType": "uint8",
              "name": "rating",
              "type": "uint8"
            },
            {
              "internalType": "string",
              "name": "comment",
              "type": "string"
            },
            {
              "internalType": "uint256",
              "name": "timestamp",
              "type": "uint256"
            },
            {
              "internalType": "bool",
              "name": "verified",
              "type": "bool"
            }
          ],
          "internalType": "struct AssistanceCenterRegistry.Review[]",
          "name": "",
          "type": "tuple[]"
        }
      ],
      "stateMutability": "view",
      "type": "function"
    },
    {
      "inputs": [
        {
          "internalType": "string",
          "name": "_userLocation",
          "type": "string"
        }
      ],
      "name": "getNearbyCenters",
      "outputs": [
        {
          "components": [
            {
              "internalType": "string",
              "name": "name",
              "type": "string"
            },
            {
              "internalType": "string",
              "name": "location",
              "type": "string"
            },
            {
              "internalType": "string",
              "name": "country",
              "type": "string"
            },
            {
              "internalType": "string",
              "name": "province",
              "type": "string"
            },
            {
              "internalType": "string",
              "name": "community",
              "type": "string"
            },
            {
              "internalType": "string",
              "name": "services",
              "type": "string"
            },
            {
              "internalType": "string",
              "name": "contactInfo",
              "type": "string"
            },
            {
              "internalType": "address",
              "name": "owner",
              "type": "address"
            },
            {
              "internalType": "bool",
              "name": "verified",
              "type": "bool"
            },
            {
              "internalType": "uint256",
              "name": "registrationDate",
              "type": "uint256"
            },
            {
              "internalType": "uint256",
              "name": "verificationDate",
              "type": "uint256"
            }
          ],
          "internalType": "struct AssistanceCenterRegistry.Center[]",
          "name": "",
          "type": "tuple[]"
        }
      ],
      "stateMutability": "view",
      "type": "function"
    },
    {
      "inputs": [],
      "name": "getVerifiedCenters",
      "outputs": [
        {
          "components": [
            {
              "internalType": "string",
              "name": "name",
              "type": "string"
            },
            {
              "internalType": "string",
              "name": "location",
              "type": "string"
            },
            {
              "internalType": "string",
              "name": "country",
              "type": "string"
            },
            {
              "internalType": "string",
              "name": "province",
              "type": "string"
            },
            {
              "internalType": "string",
              "name": "community",
              "type": "string"
            },
            {
              "internalType": "string",
              "name": "services",
              "type": "string"
            },
            {
              "internalType": "string",
              "name": "contactInfo",
              "type": "string"
            },
            {
              "internalType": "address",
              "name": "owner",
              "type": "address"
            },
            {
              "internalType": "bool",
              "name": "verified",
              "type": "bool"
            },
            {
              "internalType": "uint256",
              "name": "registrationDate",
              "type": "uint256"
            },
            {
              "internalType": "uint256",
              "name": "verificationDate",
              "type": "uint256"
            }
          ],
          "internalType": "struct AssistanceCenterRegistry.Center[]",
          "name": "",
          "type": "tuple[]"
        }
      ],
      "stateMutability": "view",
      "type": "function"
    },
    {
      "inputs": [
        {
          "internalType": "uint256",
          "name": "_centerId",
          "type": "uint256"
        }
      ],
      "name": "logEmergencyContact",
      "outputs": [],
      "stateMutability": "nonpayable",
      "type": "function"
    },
    {
      "inputs": [
        {
          "internalType": "string",
          "name": "_name",
          "type": "string"
        },
        {
          "internalType": "string",
          "name": "_location",
          "type": "string"
        },
        {
          "internalType": "string",
          "name": "_country",
          "type": "string"
        },
        {
          "internalType": "string",
          "name": "_province",
          "type": "string"
        },
        {
          "internalType": "string",
          "name": "_community",
          "type": "string"
        },
        {
          "internalType": "string",
          "name": "_services",
          "type": "string"
        },
        {
          "internalType": "string",
          "name": "_contactInfo",
          "type": "string"
        }
      ],
      "name": "registerCenter",
      "outputs": [],
      "stateMutability": "nonpayable",
      "type": "function"
    },
    {
      "inputs": [
        {
          "internalType": "address",
          "name": "",
          "type": "address"
        }
      ],
      "name": "registeredCenters",
      "outputs": [
        {
          "internalType": "bool",
          "name": "",
          "type": "bool"
        }
      ],
      "stateMutability": "view",
      "type": "function"
    },
    {
      "inputs": [],
      "name": "totalReviews",
      "outputs": [
        {
          "internalType": "uint256",
          "name": "",
          "type": "uint256"
        }
      ],
      "stateMutability": "view",
      "type": "function"
    },
    {
      "inputs": [
        {
          "internalType": "uint256",
          "name": "_id",
          "type": "uint256"
        },
        {
          "internalType": "string",
          "name": "_services",
          "type": "string"
        },
        {
          "internalType": "string",
          "name": "_contactInfo",
          "type": "string"
        }
      ],
      "name": "updateCenter",
      "outputs": [],
      "stateMutability": "nonpayable",
      "type": "function"
    },
    {
      "inputs": [
        {
          "internalType": "address",
          "name": "",
          "type": "address"
        }
      ],
      "name": "verifiers",
      "outputs": [
        {
          "internalType": "bool",
          "name": "",
          "type": "bool"
        }
      ],
      "stateMutability": "view",
      "type": "function"
    },
    {
      "inputs": [
        {
          "internalType": "uint256",
          "name": "_id",
          "type": "uint256"
        }
      ],
      "name": "verifyCenter",
      "outputs": [],
      "stateMutability": "nonpayable",
      "type": "function"
    }
  ],
  "bytecode": "0x6080806040523461004457600680546001600160a01b031916339081179091556000908152600260205260409020805460ff191660011790556122b4908161004a8239f35b600080fdfe608080604052600436101561001357600080fd5b60003560e01c908163084674cf14611db9575080631949bc4f14611c4a5780634909f98b14611914578063490bd849146117985780634a183b5314610c3a5780636c82448714610bf75780637d14ec8514610a4e5780639000b3d614610988578063a0e27b891461086e578063c4eadd2214610560578063cfb87d9a146104bf578063d892652b1461038d578063e068411514610302578063e2367890146102e4578063e8c8ba1a1461014b578063f851a440146101225763ff48c7d1146100da57600080fd5b3461011d57602036600319011261011d576004356001600160a01b0381169081900361011d576000526003602052602060ff604060002054166040519015158152f35b600080fd5b3461011d57600036600319011261011d576006546040516001600160a01b039091168152602090f35b3461011d5760208060031936011261011d57600435801515806102d8575b61017290612125565b600052600190818152604060002080549161018c836121b1565b9261019a6040519485611f77565b8084528184018093600052826000206000915b83831061026457505050506040519384938285019083865251809152604085019260408260051b87010194936000905b8382106101ea5787870388f35b918496819592949698508190603f198b820301855289519060018060a01b038251168152828201518382015260ff604083015116604082015261023c6060808401519060c08091850152830190611dd4565b916080808201519083015260a0809101511515910152980192019201879695939194926101dd565b96600685829798969960405161027981611f5c565b85546001600160a01b031681528486015483820152600286015460ff90811660408301526102a96003880161205a565b606083015260048701546080830152600587015416151560a082015281520192019201919096939594966101ad565b50600454811115610169565b3461011d57600036600319011261011d576020600554604051908152f35b3461011d57602036600319011261011d5760043580151580610381575b61032890612125565b80600052600060205261034860ff60076040600020015460a01c16612165565b604080513381524260208201527f1520be658a2750864719cca8b21bf32e36ca0889ebb3acb3c8d8fa35502c2f1191819081015b0390a2005b5060045481111561031f565b3461011d57602036600319011261011d57600435600052600060205260406000206103b78161205a565b6103c36001830161205a565b916103d06002820161205a565b6103dc6003830161205a565b916103e96004820161205a565b6103f56005830161205a565b6104016006840161205a565b916007840154956008850154946009015495604051998a99610160808c528b0161042a91611dd4565b8a810360208c015261043b91611dd4565b89810360408b015261044c91611dd4565b88810360608a015261045d91611dd4565b878103608089015261046e91611dd4565b86810360a088015261047f91611dd4565b85810360c087015261049091611dd4565b92600160a01b60019003811660e086015260a01c60ff1615156101008501526101208401526101408301520390f35b3461011d57604036600319011261011d576024356004356000526001602052604060002090815481101561011d576104f691611fee565b5060018060a01b0381541660018201549160ff60028201541661054f61051e6003840161205a565b60ff60056004860154950154169260405196879687526020870152604086015260c0606086015260c0850190611dd4565b916080840152151560a08301520390f35b3461011d57606036600319011261011d576001600160401b0360043560243582811161011d57610594903690600401611f98565b9160443581811161011d576105ad903690600401611f98565b9282151580610862575b6105c090612125565b826000526020926000845260018060a01b0360076040600020015416330361081d5780600052600084526005604060002001825184811161074857806106068354612020565b94601f958681116107ce575b5087908683116001146107695760009261075e575b50508160011b916000199060031b1c19161790555b6000526000835260066040600020019284519283116107485761065f8454612020565b828111610705575b50809183116001146106a25750819293600092610697575b5050600019600383901b1c191660019190911b179055005b01519050838061067f565b90601f198316948460005282600020926000905b8782106106ed5750508360019596106106d4575b505050811b019055005b015160001960f88460031b161c191690558380806106ca565b806001859682949686015181550195019301906106b6565b84600052816000208380860160051c82019284871061073f575b0160051c01905b8181106107335750610667565b60008155600101610726565b9250819261071f565b634e487b7160e01b600052604160045260246000fd5b015190508880610627565b60008581528981209350601f198516905b8a8282106107b857505090846001959493921061079f575b505050811b01905561063c565b015160001960f88460031b161c19169055888080610792565b600185968293968601518155019501930161077a565b90915083600052876000208680850160051c8201928a8610610814575b9085949392910160051c01905b8181106108055750610612565b600081558493506001016107f8565b925081926107eb565b60405162461bcd60e51b815260048101859052601c60248201527f4f6e6c792063656e746572206f776e65722063616e20757064617465000000006044820152606490fd5b506004548311156105b7565b3461011d57602036600319011261011d5760043561088a6121c8565b508015158061097c575b61089d90612125565b600052600060205261097860406000206009604051916108bc83611f40565b6108c58161205a565b83526108d36001820161205a565b60208401526108e46002820161205a565b60408401526108f56003820161205a565b60608401526109066004820161205a565b60808401526109176005820161205a565b60a08401526109286006820161205a565b60c084015260078101546001600160a01b03811660e085015260a01c60ff161515610100840152600881015461012084015201546101408201526040516020808252909283929091830190611e14565b0390f35b50600454811115610894565b3461011d57602036600319011261011d576004356001600160a01b038181169182900361011d576006541633036109fe576020817f6d05492139c5ea989514a5d2150c028041e5c087e2a39967f67dc7d2655adb8192600052600282526040600020600160ff19825416179055604051908152a1005b60405162461bcd60e51b815260206004820152602260248201527f4f6e6c792061646d696e2063616e20706572666f726d2074686973206163746960448201526137b760f11b6064820152608490fd5b3461011d5760208060031936011261011d576004356001600160401b03811161011d57610a7f903690600401611f98565b5060045490610a8d8261221a565b91600091600190815b83811115610af1578585610aa98161221a565b9160005b828110610ac257604051806109788682611ede565b80610ad0610aec928461226a565b51610adb828761226a565b52610ae6818661226a565b50612100565b610aad565b8060005260008252604060002060078101549060a09160ff81841c169081610b26575b50505050610b2190612100565b610a96565b610b21949892610bed949260099260405194610b4186611f40565b610b4a8461205a565b8652610b578b850161205a565b8a870152610b676002850161205a565b6040870152610b786003850161205a565b6060870152610b896004850161205a565b6080870152610b9a6005850161205a565b90860152610baa6006840161205a565b60c08601526001600160a01b031660e0850152151561010084015260088101546101208401520154610140820152610be2828a61226a565b52610ae6818961226a565b9490878080610b14565b3461011d57602036600319011261011d576004356001600160a01b0381169081900361011d576000526002602052602060ff604060002054166040519015158152f35b3461011d5760e036600319011261011d576004356001600160401b03811161011d57610c6a903690600401611f98565b6024356001600160401b03811161011d57610c89903690600401611f98565b906044356001600160401b03811161011d57610ca9903690600401611f98565b6064356001600160401b03811161011d57610cc8903690600401611f98565b6084356001600160401b03811161011d57610ce7903690600401611f98565b60a4356001600160401b03811161011d57610d06903690600401611f98565b60c4356001600160401b03811161011d57610d25903690600401611f98565b9133600052600360205260ff6040600020541661174157855115611705578651156116c057610d55600454612100565b938460045560405195610d6787611f40565b87875288602088015260408701526060860152608085015260a084015260c08301523360e08301526000610100830152426101208301526000610140830152600052600060205260406000209080518051906001600160401b038211610748578190610dd38554612020565b601f8111611670575b50602090601f8311600114611604576000926115f9575b50508160011b916000199060031b1c19161782555b60208101518051906001600160401b038211610748578190610e2d6001860154612020565b601f81116115a6575b50602090601f831160011461153457600092611529575b50508160011b916000199060031b1c19161760018301555b60408101518051906001600160401b038211610748578190610e8a6002860154612020565b601f81116114d6575b50602090601f831160011461146457600092611459575b50508160011b916000199060031b1c19161760028301555b60608101518051906001600160401b038211610748578190610ee76003860154612020565b601f8111611406575b50602090601f831160011461139457600092611389575b50508160011b916000199060031b1c19161760038301555b60808101518051906001600160401b038211610748578190610f446004860154612020565b601f8111611336575b50602090601f83116001146112c4576000926112b9575b50508160011b916000199060031b1c19161760048301555b60a08101518051906001600160401b038211610748578190610fa16005860154612020565b601f8111611266575b50602090601f83116001146111f4576000926111e9575b50508160011b916000199060031b1c19161760058301555b60c08101518051906001600160401b03821161074857610ffc6006850154612020565b601f81116111a2575b50602090601f8311600114611106577f6f2fefeb88758bf18ecf7aeb04132d2821b56eefd2cf100cd57a9a52d7c1751e9593836110e29694600994610140946000926110fb575b50508160011b916000199060031b1c19161760068501555b6007840160018060a01b0360e08301511681549060ff60a01b610100850151151560a01b16916affffffffffffffffffffff60a81b1617179055610120810151600885015501519101553360005260036020526040600020600160ff198254161790556110f060045494604051938493606085526060850190611dd4565b908382036020850152611dd4565b3360408301520390a2005b015190508a8061104c565b906006850160005260206000209160005b601f198516811061118a575093600184600994610140947f6f2fefeb88758bf18ecf7aeb04132d2821b56eefd2cf100cd57a9a52d7c1751e9a986110e29a98601f19811610611171575b505050811b016006850155611064565b015160001960f88460031b161c191690558a8080611161565b91926020600181928685015181550194019201611117565b600685016000526020600020601f840160051c8101602085106111e2575b601f830160051c820181106111d6575050611005565b600081556001016111c0565b50806111c0565b015190508680610fc1565b9250600585016000526020600020906000935b601f198416851061124b576001945083601f19811610611232575b505050811b016005830155610fd9565b015160001960f88460031b161c19169055868080611222565b81810151835560209485019460019093019290910190611207565b909150600585016000526020600020601f840160051c8101602085106112b2575b90849392915b601f830160051c820181106112a3575050610faa565b6000815585945060010161128d565b5080611287565b015190508680610f64565b9250600485016000526020600020906000935b601f198416851061131b576001945083601f19811610611302575b505050811b016004830155610f7c565b015160001960f88460031b161c191690558680806112f2565b818101518355602094850194600190930192909101906112d7565b909150600485016000526020600020601f840160051c810160208510611382575b90849392915b601f830160051c82018110611373575050610f4d565b6000815585945060010161135d565b5080611357565b015190508680610f07565b9250600385016000526020600020906000935b601f19841685106113eb576001945083601f198116106113d2575b505050811b016003830155610f1f565b015160001960f88460031b161c191690558680806113c2565b818101518355602094850194600190930192909101906113a7565b909150600385016000526020600020601f840160051c810160208510611452575b90849392915b601f830160051c82018110611443575050610ef0565b6000815585945060010161142d565b5080611427565b015190508680610eaa565b9250600285016000526020600020906000935b601f19841685106114bb576001945083601f198116106114a2575b505050811b016002830155610ec2565b015160001960f88460031b161c19169055868080611492565b81810151835560209485019460019093019290910190611477565b909150600285016000526020600020601f840160051c810160208510611522575b90849392915b601f830160051c82018110611513575050610e93565b600081558594506001016114fd565b50806114f7565b015190508680610e4d565b9250600185016000526020600020906000935b601f198416851061158b576001945083601f19811610611572575b505050811b016001830155610e65565b015160001960f88460031b161c19169055868080611562565b81810151835560209485019460019093019290910190611547565b909150600185016000526020600020601f840160051c8101602085106115f2575b90849392915b601f830160051c820181106115e3575050610e36565b600081558594506001016115cd565b50806115c7565b015190508680610df3565b9250846000526020600020906000935b601f1984168510611655576001945083601f1981161061163c575b505050811b018255610e08565b015160001960f88460031b161c1916905586808061162f565b81810151835560209485019460019093019290910190611614565b909150846000526020600020601f840160051c8101602085106116b9575b90849392915b601f830160051c820181106116aa575050610ddc565b60008155859450600101611694565b508061168e565b60405162461bcd60e51b815260206004820152601860248201527f4c6f636174696f6e2063616e6e6f7420626520656d70747900000000000000006044820152606490fd5b60405162461bcd60e51b81526020600482015260146024820152734e616d652063616e6e6f7420626520656d70747960601b6044820152606490fd5b60405162461bcd60e51b815260206004820152602960248201527f43656e74657220616c726561647920726567697374657265642062792074686960448201526873206164647265737360b81b6064820152608490fd5b3461011d5760208060031936011261011d5760043590336000526002815260ff604060002054168015611900575b156118ad57811515806118a1575b6117dd90612125565b816000526000815260ff60076040600020015460a01c1661185d5760008281529081905260409081902060078101805460ff60a01b1916600160a01b179055426009909101819055815133815260208101919091527f95b0c9f618598bb6cba4d45b6df552a6a71e3ef83dd75e3578e970155f863cb3918190810161037c565b6064906040519062461bcd60e51b82526004820152601760248201527f43656e74657220616c72656164792076657269666965640000000000000000006044820152fd5b506004548211156117d4565b6084906040519062461bcd60e51b82526004820152602660248201527f4f6e6c79207665726966696572732063616e20706572666f726d20746869732060448201526530b1ba34b7b760d11b6064820152fd5b506006546001600160a01b031633146117c6565b3461011d57606036600319011261011d576004356024359060ff821680920361011d576001600160401b039160443583811161011d57611958903690600401611f98565b9082151580611c3e575b61196b90612125565b60018082101580611c33575b15611bee57836000526020926000845261199e60ff60076040600020015460a01c16612165565b84600052818452604060002091604051916119b883611f5c565b338352858301918783526040840186815260608501928352608085019342855260a08601966000885280546801000000000000000081101561074857611a02918582018155611fee565b969096611bd85760018060a01b039051166bffffffffffffffffffffffff60a01b875416178655518286015560ff6002860191511660ff198254161790556003840191518051998a1161074857611a598354612020565b601f8111611b8f575b508790601f8b11600114611aff579980806005969460609b9a999896947ff28e426ed084685d8a267bcec12461435faefc53fa738751fa8a13444c23255e9d9e600094611af4575b50501b916000199060031b1c19161790555b516004820155019051151560ff80198354169116179055611ade600554612100565b60055560405191338352820152426040820152a2005b015192508e80611aaa565b9990601f1982169a84600052896000209b60005b818110611b7a57509b6005969492849260609c9b9a9997957ff28e426ed084685d8a267bcec12461435faefc53fa738751fa8a13444c23255e9e9f10611b61575b505050811b019055611abc565b015160001960f88460031b161c191690558c8080611b54565b838301518e559c85019c928b01928b01611b13565b8360005288600020601f8c0160051c8101918a8d10611bce575b601f0160051c019083905b828110611bc2575050611a62565b60008155018390611bb4565b9091508190611ba9565b634e487b7160e01b600052600060045260246000fd5b60405162461bcd60e51b815260206004820152601e60248201527f526174696e67206d757374206265206265747765656e203120616e64203500006044820152606490fd5b506005821115611977565b50600454831115611962565b3461011d57600036600319011261011d57600454611c678161221a565b906000906001805b82811115611caf57505050611c838161221a565b9160005b828110611c9c57604051806109788682611ede565b80610ad0611caa928461226a565b611c87565b806000526020600081526040600020600781015460a09060ff81831c169182611ce6575b5050505050611ce190612100565b611c6f565b92611dae9492600992611ce1979a9560405195611d0287611f40565b611d0b8561205a565b8752611d188b860161205a565b90870152611d286002850161205a565b6040870152611d396003850161205a565b6060870152611d4a6004850161205a565b6080870152611d5b6005850161205a565b90860152611d6b6006840161205a565b60c08601526001600160a01b031660e0850152151561010084015260088101546101208401520154610140820152611da3828961226a565b52610ae6818861226a565b939086808080611cd3565b3461011d57600036600319011261011d576020906004548152f35b919082519283825260005b848110611e00575050826000602080949584010152601f8019910116010190565b602081830181015184830182015201611ddf565b90611ea6611e94611e82611e70611e5e611e4c611e3a8851610160808a52890190611dd4565b602089015188820360208a0152611dd4565b60408801518782036040890152611dd4565b60608701518682036060880152611dd4565b60808601518582036080870152611dd4565b60a085015184820360a0860152611dd4565b60c084015183820360c0850152611dd4565b9160018060a01b0360e08201511660e08301526101008082015115159083015261012080820151908301526101408091015191015290565b602080820190808352835180925260408301928160408460051b8301019501936000915b848310611f125750505050505090565b9091929394958480611f30600193603f198682030187528a51611e14565b9801930193019194939290611f02565b61016081019081106001600160401b0382111761074857604052565b60c081019081106001600160401b0382111761074857604052565b90601f801991011681019081106001600160401b0382111761074857604052565b81601f8201121561011d578035906001600160401b0382116107485760405192611fcc601f8401601f191660200185611f77565b8284526020838301011161011d57816000926020809301838601378301015290565b805482101561200a576000526006602060002091020190600090565b634e487b7160e01b600052603260045260246000fd5b90600182811c92168015612050575b602083101461203a57565b634e487b7160e01b600052602260045260246000fd5b91607f169161202f565b906040519182600082549261206e84612020565b9081845260019485811690816000146120dd575060011461209a575b505061209892500383611f77565b565b9093915060005260209081600020936000915b8183106120c55750506120989350820101388061208a565b855488840185015294850194879450918301916120ad565b91505061209894506020925060ff191682840152151560051b820101388061208a565b600019811461210f5760010190565b634e487b7160e01b600052601160045260246000fd5b1561212c57565b60405162461bcd60e51b8152602060048201526011602482015270125b9d985b1a590818d95b9d195c881251607a1b6044820152606490fd5b1561216c57565b60405162461bcd60e51b815260206004820152601760248201527f43656e746572206d7573742062652076657269666965640000000000000000006044820152606490fd5b6001600160401b0381116107485760051b60200190565b604051906121d582611f40565b600061014083606080825280602083015280604083015280808301528060808301528060a083015260c08201528260e082015282610100820152826101208201520152565b90612224826121b1565b6122316040519182611f77565b8281528092612242601f19916121b1565b019060005b82811061225357505050565b60209061225e6121c8565b82828501015201612247565b805182101561200a5760209160051b01019056fea2646970667358221220339c84a18d499e7e4804212a8110aece661cfc0a8e0abecba1c8348d2925b19d64736f6c63430008140033",
  "linkReferences": {},
  "deployedLinkReferences": {}
}