{
  "_format": "hh-sol-artifact-1",
  "contractName": "SponsorStream",
  "sourceName": "contracts/SponsorStream.sol",
  "abi": [
    {
      "inputs": [
        {
          "internalType": "address",
          "name": "_empowerTokenAddress",
          "type": "address"
        }
      ],
      "stateMutability": "nonpayable",
      "type": "constructor"
    },
    {
      "inputs": [
        {
          "internalType": "address",
          "name": "owner",
          "type": "address"
        }
      ],
      "name": "OwnableInvalidOwner",
      "type": "error"
    },
    {
      "inputs": [
        {
          "internalType": "address",
          "name": "account",
          "type": "address"
        }
      ],
      "name": "OwnableUnauthorizedAccount",
      "type": "error"
    },
    {
      "inputs": [],
      "name": "ReentrancyGuardReentrantCall",
      "type": "error"
    },
    {
      "anonymous": false,
      "inputs": [
        {
          "indexed": true,
          "internalType": "uint256",
          "name": "donationId",
          "type": "uint256"
        },
        {
          "indexed": true,
          "internalType": "address",
          "name": "donor",
          "type": "address"
        },
        {
          "indexed": true,
          "internalType": "address",
          "name": "recipient",
          "type": "address"
        },
        {
          "indexed": false,
          "internalType": "uint256",
          "name": "amount",
          "type": "uint256"
        }
      ],
      "name": "DonationMade",
      "type": "event"
    },
    {
      "anonymous": false,
      "inputs": [
        {
          "indexed": true,
          "internalType": "uint256",
          "name": "donationId",
          "type": "uint256"
        },
        {
          "indexed": true,
          "internalType": "address",
          "name": "donor",
          "type": "address"
        }
      ],
      "name": "DonationRevoked",
      "type": "event"
    },
    {
      "anonymous": false,
      "inputs": [
        {
          "indexed": true,
          "internalType": "address",
          "name": "previousOwner",
          "type": "address"
        },
        {
          "indexed": true,
          "internalType": "address",
          "name": "newOwner",
          "type": "address"
        }
      ],
      "name": "OwnershipTransferred",
      "type": "event"
    },
    {
      "anonymous": false,
      "inputs": [
        {
          "indexed": true,
          "internalType": "uint256",
          "name": "streamId",
          "type": "uint256"
        },
        {
          "indexed": true,
          "internalType": "address",
          "name": "sponsor",
          "type": "address"
        },
        {
          "indexed": true,
          "internalType": "address",
          "name": "recipient",
          "type": "address"
        },
        {
          "indexed": false,
          "internalType": "uint256",
          "name": "amountPerSecond",
          "type": "uint256"
        }
      ],
      "name": "StreamCreated",
      "type": "event"
    },
    {
      "anonymous": false,
      "inputs": [
        {
          "indexed": true,
          "internalType": "uint256",
          "name": "streamId",
          "type": "uint256"
        },
        {
          "indexed": true,
          "internalType": "address",
          "name": "sponsor",
          "type": "address"
        }
      ],
      "name": "StreamStopped",
      "type": "event"
    },
    {
      "anonymous": false,
      "inputs": [
        {
          "indexed": true,
          "internalType": "uint256",
          "name": "streamId",
          "type": "uint256"
        },
        {
          "indexed": true,
          "internalType": "address",
          "name": "recipient",
          "type": "address"
        },
        {
          "indexed": false,
          "internalType": "uint256",
          "name": "amount",
          "type": "uint256"
        }
      ],
      "name": "StreamWithdrawn",
      "type": "event"
    },
    {
      "inputs": [
        {
          "internalType": "address",
          "name": "_recipient",
          "type": "address"
        },
        {
          "internalType": "uint256",
          "name": "_amountPerSecond",
          "type": "uint256"
        },
        {
          "internalType": "uint256",
          "name": "_duration",
          "type": "uint256"
        },
        {
          "internalType": "string",
          "name": "_description",
          "type": "string"
        }
      ],
      "name": "createStream",
      "outputs": [],
      "stateMutability": "nonpayable",
      "type": "function"
    },
    {
      "inputs": [],
      "name": "donationCounter",
      "outputs": [
        {
          "internalType": "uint256",
          "name": "",
          "type": "uint256"
        }
      ],
      "stateMutability": "view",
      "type": "function"
    },
    {
      "inputs": [
        {
          "internalType": "uint256",
          "name": "",
          "type": "uint256"
        }
      ],
      "name": "donations",
      "outputs": [
        {
          "internalType": "address",
          "name": "donor",
          "type": "address"
        },
        {
          "internalType": "address",
          "name": "recipient",
          "type": "address"
        },
        {
          "internalType": "uint256",
          "name": "amount",
          "type": "uint256"
        },
        {
          "internalType": "uint256",
          "name": "timestamp",
          "type": "uint256"
        },
        {
          "internalType": "string",
          "name": "message",
          "type": "string"
        },
        {
          "internalType": "bool",
          "name": "isRevoked",
          "type": "bool"
        }
      ],
      "stateMutability": "view",
      "type": "function"
    },
    {
      "inputs": [],
      "name": "empowerToken",
      "outputs": [
        {
          "internalType": "contract EmpowerToken",
          "name": "",
          "type": "address"
        }
      ],
      "stateMutability": "view",
      "type": "function"
    },
    {
      "inputs": [
        {
          "internalType": "uint256",
          "name": "_donationId",
          "type": "uint256"
        }
      ],
      "name": "getDonation",
      "outputs": [
        {
          "components": [
            {
              "internalType": "address",
              "name": "donor",
              "type": "address"
            },
            {
              "internalType": "address",
              "name": "recipient",
              "type": "address"
            },
            {
              "internalType": "uint256",
              "name": "amount",
              "type": "uint256"
            },
            {
              "internalType": "uint256",
              "name": "timestamp",
              "type": "uint256"
            },
            {
              "internalType": "string",
              "name": "message",
              "type": "string"
            },
            {
              "internalType": "bool",
              "name": "isRevoked",
              "type": "bool"
            }
          ],
          "internalType": "struct SponsorStream.Donation",
          "name": "",
          "type": "tuple"
        }
      ],
      "stateMutability": "view",
      "type": "function"
    },
    {
      "inputs": [],
      "name": "getDonationsCount",
      "outputs": [
        {
          "internalType": "uint256",
          "name": "",
          "type": "uint256"
        }
      ],
      "stateMutability": "view",
      "type": "function"
    },
    {
      "inputs": [
        {
          "internalType": "uint256",
          "name": "_streamId",
          "type": "uint256"
        }
      ],
      "name": "getStream",
      "outputs": [
        {
          "components": [
            {
              "internalType": "address",
              "name": "sponsor",
              "type": "address"
            },
            {
              "internalType": "address",
              "name": "recipient",
              "type": "address"
            },
            {
              "internalType": "uint256",
              "name": "amountPerSecond",
              "type": "uint256"
            },
            {
              "internalType": "uint256",
              "name": "startTime",
              "type": "uint256"
            },
            {
              "internalType": "uint256",
              "name": "stopTime",
              "type": "uint256"
            },
            {
              "internalType": "uint256",
              "name": "totalStreamed",
              "type": "uint256"
            },
            {
              "internalType": "bool",
              "name": "isActive",
              "type": "bool"
            },
            {
              "internalType": "string",
              "name": "description",
              "type": "string"
            }
          ],
          "internalType": "struct SponsorStream.Stream",
          "name": "",
          "type": "tuple"
        }
      ],
      "stateMutability": "view",
      "type": "function"
    },
    {
      "inputs": [],
      "name": "getStreamsCount",
      "outputs": [
        {
          "internalType": "uint256",
          "name": "",
          "type": "uint256"
        }
      ],
      "stateMutability": "view",
      "type": "function"
    },
    {
      "inputs": [
        {
          "internalType": "address",
          "name": "_user",
          "type": "address"
        }
      ],
      "name": "getUserDonations",
      "outputs": [
        {
          "internalType": "uint256[]",
          "name": "",
          "type": "uint256[]"
        }
      ],
      "stateMutability": "view",
      "type": "function"
    },
    {
      "inputs": [
        {
          "internalType": "address",
          "name": "_user",
          "type": "address"
        }
      ],
      "name": "getUserStreams",
      "outputs": [
        {
          "internalType": "uint256[]",
          "name": "",
          "type": "uint256[]"
        }
      ],
      "stateMutability": "view",
      "type": "function"
    },
    {
      "inputs": [
        {
          "internalType": "address",
          "name": "_user",
          "type": "address"
        }
      ],
      "name": "getUserTotalReceived",
      "outputs": [
        {
          "internalType": "uint256",
          "name": "",
          "type": "uint256"
        }
      ],
      "stateMutability": "view",
      "type": "function"
    },
    {
      "inputs": [
        {
          "internalType": "uint256",
          "name": "_streamId",
          "type": "uint256"
        }
      ],
      "name": "getWithdrawableAmount",
      "outputs": [
        {
          "internalType": "uint256",
          "name": "",
          "type": "uint256"
        }
      ],
      "stateMutability": "view",
      "type": "function"
    },
    {
      "inputs": [
        {
          "internalType": "address",
          "name": "_recipient",
          "type": "address"
        },
        {
          "internalType": "uint256",
          "name": "_amount",
          "type": "uint256"
        },
        {
          "internalType": "string",
          "name": "_message",
          "type": "string"
        }
      ],
      "name": "makeDonation",
      "outputs": [],
      "stateMutability": "nonpayable",
      "type": "function"
    },
    {
      "inputs": [],
      "name": "owner",
      "outputs": [
        {
          "internalType": "address",
          "name": "",
          "type": "address"
        }
      ],
      "stateMutability": "view",
      "type": "function"
    },
    {
      "inputs": [],
      "name": "renounceOwnership",
      "outputs": [],
      "stateMutability": "nonpayable",
      "type": "function"
    },
    {
      "inputs": [
        {
          "internalType": "uint256",
          "name": "_donationId",
          "type": "uint256"
        }
      ],
      "name": "revokeDonation",
      "outputs": [],
      "stateMutability": "nonpayable",
      "type": "function"
    },
    {
      "inputs": [
        {
          "internalType": "uint256",
          "name": "_streamId",
          "type": "uint256"
        }
      ],
      "name": "stopStream",
      "outputs": [],
      "stateMutability": "nonpayable",
      "type": "function"
    },
    {
      "inputs": [],
      "name": "streamCounter",
      "outputs": [
        {
          "internalType": "uint256",
          "name": "",
          "type": "uint256"
        }
      ],
      "stateMutability": "view",
      "type": "function"
    },
    {
      "inputs": [
        {
          "internalType": "uint256",
          "name": "",
          "type": "uint256"
        }
      ],
      "name": "streams",
      "outputs": [
        {
          "internalType": "address",
          "name": "sponsor",
          "type": "address"
        },
        {
          "internalType": "address",
          "name": "recipient",
          "type": "address"
        },
        {
          "internalType": "uint256",
          "name": "amountPerSecond",
          "type": "uint256"
        },
        {
          "internalType": "uint256",
          "name": "startTime",
          "type": "uint256"
        },
        {
          "internalType": "uint256",
          "name": "stopTime",
          "type": "uint256"
        },
        {
          "internalType": "uint256",
          "name": "totalStreamed",
          "type": "uint256"
        },
        {
          "internalType": "bool",
          "name": "isActive",
          "type": "bool"
        },
        {
          "internalType": "string",
          "name": "description",
          "type": "string"
        }
      ],
      "stateMutability": "view",
      "type": "function"
    },
    {
      "inputs": [
        {
          "internalType": "address",
          "name": "newOwner",
          "type": "address"
        }
      ],
      "name": "transferOwnership",
      "outputs": [],
      "stateMutability": "nonpayable",
      "type": "function"
    },
    {
      "inputs": [
        {
          "internalType": "address",
          "name": "",
          "type": "address"
        },
        {
          "internalType": "uint256",
          "name": "",
          "type": "uint256"
        }
      ],
      "name": "userDonations",
      "outputs": [
        {
          "internalType": "uint256",
          "name": "",
          "type": "uint256"
        }
      ],
      "stateMutability": "view",
      "type": "function"
    },
    {
      "inputs": [
        {
          "internalType": "address",
          "name": "",
          "type": "address"
        },
        {
          "internalType": "uint256",
          "name": "",
          "type": "uint256"
        }
      ],
      "name": "userStreams",
      "outputs": [
        {
          "internalType": "uint256",
          "name": "",
          "type": "uint256"
        }
      ],
      "stateMutability": "view",
      "type": "function"
    },
    {
      "inputs": [
        {
          "internalType": "address",
          "name": "",
          "type": "address"
        }
      ],
      "name": "userTotalReceived",
      "outputs": [
        {
          "internalType": "uint256",
          "name": "",
          "type": "uint256"
        }
      ],
      "stateMutability": "view",
      "type": "function"
    },
    {
      "inputs": [
        {
          "internalType": "uint256",
          "name": "_streamId",
          "type": "uint256"
        }
      ],
      "name": "withdrawStream",
      "outputs": [],
      "stateMutability": "nonpayable",
      "type": "function"
    }
  ],
  "bytecode": "0x60a0604052600060025560006003553480156200001b57600080fd5b5060405162003b5e38038062003b5e83398181016040528101906200004191906200023c565b336001600081905550600073ffffffffffffffffffffffffffffffffffffffff168173ffffffffffffffffffffffffffffffffffffffff1603620000bf5760006040517f1e4fbdf7000000000000000000000000000000000000000000000000000000008152600401620000b691906200027f565b60405180910390fd5b620000d0816200010c60201b60201c565b508073ffffffffffffffffffffffffffffffffffffffff1660808173ffffffffffffffffffffffffffffffffffffffff1681525050506200029c565b6000600160009054906101000a900473ffffffffffffffffffffffffffffffffffffffff16905081600160006101000a81548173ffffffffffffffffffffffffffffffffffffffff021916908373ffffffffffffffffffffffffffffffffffffffff1602179055508173ffffffffffffffffffffffffffffffffffffffff168173ffffffffffffffffffffffffffffffffffffffff167f8be0079c531659141344cd1fd0a4f28419497f9722a3daafe3b4186f6b6457e060405160405180910390a35050565b600080fd5b600073ffffffffffffffffffffffffffffffffffffffff82169050919050565b60006200020482620001d7565b9050919050565b6200021681620001f7565b81146200022257600080fd5b50565b60008151905062000236816200020b565b92915050565b600060208284031215620002555762000254620001d2565b5b6000620002658482850162000225565b91505092915050565b6200027981620001f7565b82525050565b60006020820190506200029660008301846200026e565b92915050565b60805161388a620002d46000396000818161052a0152818161078a01528181611109015281816116870152611c78015261388a6000f3fe608060405234801561001057600080fd5b50600436106101585760003560e01c8063875f4384116100c3578063dee04a721161007c578063dee04a7214610408578063e335e79a14610424578063e35b003c14610442578063ef07a81f1461045e578063f2fde38b1461048e578063f8626af8146104aa57610158565b8063875f438414610320578063894e9a0d146103505780638da5cb5b14610380578063c0dd12f11461039e578063c93527d8146103ba578063dc5600b4146103d857610158565b80634933e631116101155780634933e631146102455780635746c21e1461027557806364d60d9114610293578063715018a6146102ca578063732435b2146102d457806385d5089e1461030457610158565b8063020055f91461015d5780631b3e2cc91461018d578063225f75c8146101bd578063382a7193146101db57806338d187dd146101f75780634135b68914610215575b600080fd5b61017760048036038101906101729190612468565b6104df565b60405161018491906124b7565b60405180910390f35b6101a760048036038101906101a291906124d2565b610510565b6040516101b491906124b7565b60405180910390f35b6101c5610528565b6040516101d2919061255e565b60405180910390f35b6101f560048036038101906101f09190612579565b61054c565b005b6101ff61090d565b60405161020c91906124b7565b60405180910390f35b61022f600480360381019061022a91906124d2565b610913565b60405161023c91906124b7565b60405180910390f35b61025f600480360381019061025a9190612468565b61095c565b60405161026c91906124b7565b60405180910390f35b61027d61098d565b60405161028a91906124b7565b60405180910390f35b6102ad60048036038101906102a89190612579565b610993565b6040516102c1989796959493929190612660565b60405180910390f35b6102d2610ab0565b005b6102ee60048036038101906102e991906124d2565b610ac4565b6040516102fb91906127a3565b60405180910390f35b61031e60048036038101906103199190612579565b610b5b565b005b61033a60048036038101906103359190612579565b610d07565b60405161034791906124b7565b60405180910390f35b61036a60048036038101906103659190612579565b610e36565b60405161037791906128dd565b60405180910390f35b610388611029565b60405161039591906128ff565b60405180910390f35b6103b860048036038101906103b39190612a4f565b611053565b005b6103c26114dd565b6040516103cf91906124b7565b60405180910390f35b6103f260048036038101906103ed91906124d2565b6114e7565b6040516103ff91906127a3565b60405180910390f35b610422600480360381019061041d9190612abe565b61157e565b005b61042c611a34565b60405161043991906124b7565b60405180910390f35b61045c60048036038101906104579190612579565b611a3e565b005b61047860048036038101906104739190612579565b611dcf565b6040516104859190612bca565b60405180910390f35b6104a860048036038101906104a391906124d2565b611fad565b005b6104c460048036038101906104bf9190612579565b612033565b6040516104d696959493929190612bec565b60405180910390f35b600660205281600052604060002081815481106104fb57600080fd5b90600052602060002001600091509150505481565b60086020528060005260406000206000915090505481565b7f000000000000000000000000000000000000000000000000000000000000000081565b610554612144565b6002548110610598576040517f08c379a000000000000000000000000000000000000000000000000000000000815260040161058f90612ca0565b60405180910390fd5b60006004600083815260200190815260200160002090508060010160009054906101000a900473ffffffffffffffffffffffffffffffffffffffff1673ffffffffffffffffffffffffffffffffffffffff163373ffffffffffffffffffffffffffffffffffffffff1614610641576040517f08c379a000000000000000000000000000000000000000000000000000000000815260040161063890612d0c565b60405180910390fd5b8060060160009054906101000a900460ff1680610662575080600401544210155b6106a1576040517f08c379a000000000000000000000000000000000000000000000000000000000815260040161069890612d78565b60405180910390fd5b60006106ac83610d07565b9050600081116106f1576040517f08c379a00000000000000000000000000000000000000000000000000000000081526004016106e890612de4565b60405180910390fd5b808260050160008282546107059190612e33565b9250508190555080600860008460010160009054906101000a900473ffffffffffffffffffffffffffffffffffffffff1673ffffffffffffffffffffffffffffffffffffffff1673ffffffffffffffffffffffffffffffffffffffff168152602001908152602001600020600082825461077f9190612e33565b9250508190555060007f000000000000000000000000000000000000000000000000000000000000000073ffffffffffffffffffffffffffffffffffffffff1663a9059cbb8460010160009054906101000a900473ffffffffffffffffffffffffffffffffffffffff16846040518363ffffffff1660e01b8152600401610807929190612e67565b6020604051808303816000875af1158015610826573d6000803e3d6000fd5b505050506040513d601f19601f8201168201806040525081019061084a9190612ebc565b90508061088c576040517f08c379a000000000000000000000000000000000000000000000000000000000815260040161088390612f35565b60405180910390fd5b8260010160009054906101000a900473ffffffffffffffffffffffffffffffffffffffff1673ffffffffffffffffffffffffffffffffffffffff16847fb8794a93ad70d58bd94788f8523cd8ebcff47f5541f8816ade60c636f1b57827846040516108f791906124b7565b60405180910390a350505061090a61218a565b50565b60035481565b6000600860008373ffffffffffffffffffffffffffffffffffffffff1673ffffffffffffffffffffffffffffffffffffffff168152602001908152602001600020549050919050565b6007602052816000526040600020818154811061097857600080fd5b90600052602060002001600091509150505481565b60025481565b60046020528060005260406000206000915090508060000160009054906101000a900473ffffffffffffffffffffffffffffffffffffffff16908060010160009054906101000a900473ffffffffffffffffffffffffffffffffffffffff16908060020154908060030154908060040154908060050154908060060160009054906101000a900460ff1690806007018054610a2d90612f84565b80601f0160208091040260200160405190810160405280929190818152602001828054610a5990612f84565b8015610aa65780601f10610a7b57610100808354040283529160200191610aa6565b820191906000526020600020905b815481529060010190602001808311610a8957829003601f168201915b5050505050905088565b610ab8612194565b610ac2600061221b565b565b6060600760008373ffffffffffffffffffffffffffffffffffffffff1673ffffffffffffffffffffffffffffffffffffffff168152602001908152602001600020805480602002602001604051908101604052809291908181526020018280548015610b4f57602002820191906000526020600020905b815481526020019060010190808311610b3b575b50505050509050919050565b6002548110610b9f576040517f08c379a0000000000000000000000000000000000000000000000000000000008152600401610b9690612ca0565b60405180910390fd5b60006004600083815260200190815260200160002090508060000160009054906101000a900473ffffffffffffffffffffffffffffffffffffffff1673ffffffffffffffffffffffffffffffffffffffff163373ffffffffffffffffffffffffffffffffffffffff1614610c48576040517f08c379a0000000000000000000000000000000000000000000000000000000008152600401610c3f90613001565b60405180910390fd5b8060060160009054906101000a900460ff16610c99576040517f08c379a0000000000000000000000000000000000000000000000000000000008152600401610c909061306d565b60405180910390fd5b60008160060160006101000a81548160ff0219169083151502179055504281600401819055503373ffffffffffffffffffffffffffffffffffffffff16827fd95eebb8ae85b521a4f98aff3b92d8cd7ecf3f002024835c0e9716cf2bdea20860405160405180910390a35050565b60006002548210610d4d576040517f08c379a0000000000000000000000000000000000000000000000000000000008152600401610d4490612ca0565b60405180910390fd5b60006004600084815260200190815260200160002090508060060160009054906101000a900460ff16158015610d87575080600401544210155b15610dd257600081600301548260040154610da2919061308d565b90506000818360020154610db691906130c1565b9050826005015481610dc8919061308d565b9350505050610e31565b8060060160009054906101000a900460ff1615610e2b576000816003015442610dfb919061308d565b90506000818360020154610e0f91906130c1565b9050826005015481610e21919061308d565b9350505050610e31565b60009150505b919050565b610e3e6122e9565b6002548210610e82576040517f08c379a0000000000000000000000000000000000000000000000000000000008152600401610e7990612ca0565b60405180910390fd5b60046000838152602001908152602001600020604051806101000160405290816000820160009054906101000a900473ffffffffffffffffffffffffffffffffffffffff1673ffffffffffffffffffffffffffffffffffffffff1673ffffffffffffffffffffffffffffffffffffffff1681526020016001820160009054906101000a900473ffffffffffffffffffffffffffffffffffffffff1673ffffffffffffffffffffffffffffffffffffffff1673ffffffffffffffffffffffffffffffffffffffff168152602001600282015481526020016003820154815260200160048201548152602001600582015481526020016006820160009054906101000a900460ff16151515158152602001600782018054610fa090612f84565b80601f0160208091040260200160405190810160405280929190818152602001828054610fcc90612f84565b80156110195780601f10610fee57610100808354040283529160200191611019565b820191906000526020600020905b815481529060010190602001808311610ffc57829003601f168201915b5050505050815250509050919050565b6000600160009054906101000a900473ffffffffffffffffffffffffffffffffffffffff16905090565b600073ffffffffffffffffffffffffffffffffffffffff168373ffffffffffffffffffffffffffffffffffffffff16036110c2576040517f08c379a00000000000000000000000000000000000000000000000000000000081526004016110b99061314f565b60405180910390fd5b60008211611105576040517f08c379a00000000000000000000000000000000000000000000000000000000081526004016110fc906131bb565b60405180910390fd5b60007f000000000000000000000000000000000000000000000000000000000000000073ffffffffffffffffffffffffffffffffffffffff166323b872dd3330866040518463ffffffff1660e01b8152600401611164939291906131db565b6020604051808303816000875af1158015611183573d6000803e3d6000fd5b505050506040513d601f19601f820116820180604052508101906111a79190612ebc565b9050806111e9576040517f08c379a00000000000000000000000000000000000000000000000000000000081526004016111e09061325e565b60405180910390fd5b6000600360008154809291906111fe9061327e565b9190505590506040518060c001604052803373ffffffffffffffffffffffffffffffffffffffff1681526020018673ffffffffffffffffffffffffffffffffffffffff168152602001858152602001428152602001848152602001600015158152506005600083815260200190815260200160002060008201518160000160006101000a81548173ffffffffffffffffffffffffffffffffffffffff021916908373ffffffffffffffffffffffffffffffffffffffff16021790555060208201518160010160006101000a81548173ffffffffffffffffffffffffffffffffffffffff021916908373ffffffffffffffffffffffffffffffffffffffff1602179055506040820151816002015560608201518160030155608082015181600401908161132a9190613468565b5060a08201518160050160006101000a81548160ff021916908315150217905550905050600760003373ffffffffffffffffffffffffffffffffffffffff1673ffffffffffffffffffffffffffffffffffffffff168152602001908152602001600020819080600181540180825580915050600190039060005260206000200160009091909190915055600760008673ffffffffffffffffffffffffffffffffffffffff1673ffffffffffffffffffffffffffffffffffffffff16815260200190815260200160002081908060018154018082558091505060019003906000526020600020016000909190919091505583600860008773ffffffffffffffffffffffffffffffffffffffff1673ffffffffffffffffffffffffffffffffffffffff16815260200190815260200160002060008282546114699190612e33565b925050819055508473ffffffffffffffffffffffffffffffffffffffff163373ffffffffffffffffffffffffffffffffffffffff16827f72ea702afc24965f735ac4ac552f859b352084ad99f47a425a691630814014fe876040516114ce91906124b7565b60405180910390a45050505050565b6000600354905090565b6060600660008373ffffffffffffffffffffffffffffffffffffffff1673ffffffffffffffffffffffffffffffffffffffff16815260200190815260200160002080548060200260200160405190810160405280929190818152602001828054801561157257602002820191906000526020600020905b81548152602001906001019080831161155e575b50505050509050919050565b600073ffffffffffffffffffffffffffffffffffffffff168473ffffffffffffffffffffffffffffffffffffffff16036115ed576040517f08c379a00000000000000000000000000000000000000000000000000000000081526004016115e49061314f565b60405180910390fd5b60008311611630576040517f08c379a0000000000000000000000000000000000000000000000000000000008152600401611627906135ac565b60405180910390fd5b60008211611673576040517f08c379a000000000000000000000000000000000000000000000000000000000815260040161166a90613618565b60405180910390fd5b6000828461168191906130c1565b905060007f000000000000000000000000000000000000000000000000000000000000000073ffffffffffffffffffffffffffffffffffffffff166323b872dd3330856040518463ffffffff1660e01b81526004016116e2939291906131db565b6020604051808303816000875af1158015611701573d6000803e3d6000fd5b505050506040513d601f19601f820116820180604052508101906117259190612ebc565b905080611767576040517f08c379a000000000000000000000000000000000000000000000000000000000815260040161175e9061325e565b60405180910390fd5b60006002600081548092919061177c9061327e565b9190505590506040518061010001604052803373ffffffffffffffffffffffffffffffffffffffff1681526020018873ffffffffffffffffffffffffffffffffffffffff16815260200187815260200142815260200186426117de9190612e33565b815260200160008152602001600115158152602001858152506004600083815260200190815260200160002060008201518160000160006101000a81548173ffffffffffffffffffffffffffffffffffffffff021916908373ffffffffffffffffffffffffffffffffffffffff16021790555060208201518160010160006101000a81548173ffffffffffffffffffffffffffffffffffffffff021916908373ffffffffffffffffffffffffffffffffffffffff16021790555060408201518160020155606082015181600301556080820151816004015560a0820151816005015560c08201518160060160006101000a81548160ff02191690831515021790555060e08201518160070190816118f59190613468565b50905050600660003373ffffffffffffffffffffffffffffffffffffffff1673ffffffffffffffffffffffffffffffffffffffff168152602001908152602001600020819080600181540180825580915050600190039060005260206000200160009091909190915055600660008873ffffffffffffffffffffffffffffffffffffffff1673ffffffffffffffffffffffffffffffffffffffff1681526020019081526020016000208190806001815401808255809150506001900390600052602060002001600090919091909150558673ffffffffffffffffffffffffffffffffffffffff163373ffffffffffffffffffffffffffffffffffffffff16827f4396d7c3edc1447dac8dd2b7143af95840c926a210524a0d3198012c7fdf37c789604051611a2391906124b7565b60405180910390a450505050505050565b6000600254905090565b611a46612144565b6003548110611a8a576040517f08c379a0000000000000000000000000000000000000000000000000000000008152600401611a8190613684565b60405180910390fd5b60006005600083815260200190815260200160002090508060000160009054906101000a900473ffffffffffffffffffffffffffffffffffffffff1673ffffffffffffffffffffffffffffffffffffffff163373ffffffffffffffffffffffffffffffffffffffff1614611b33576040517f08c379a0000000000000000000000000000000000000000000000000000000008152600401611b2a906136f0565b60405180910390fd5b8060050160009054906101000a900460ff1615611b85576040517f08c379a0000000000000000000000000000000000000000000000000000000008152600401611b7c9061375c565b60405180910390fd5b620151808160030154611b989190612e33565b4210611bd9576040517f08c379a0000000000000000000000000000000000000000000000000000000008152600401611bd0906137c8565b60405180910390fd5b60018160050160006101000a81548160ff0219169083151502179055508060020154600860008360010160009054906101000a900473ffffffffffffffffffffffffffffffffffffffff1673ffffffffffffffffffffffffffffffffffffffff1673ffffffffffffffffffffffffffffffffffffffff1681526020019081526020016000206000828254611c6d919061308d565b9250508190555060007f000000000000000000000000000000000000000000000000000000000000000073ffffffffffffffffffffffffffffffffffffffff1663a9059cbb8360000160009054906101000a900473ffffffffffffffffffffffffffffffffffffffff1684600201546040518363ffffffff1660e01b8152600401611cf9929190612e67565b6020604051808303816000875af1158015611d18573d6000803e3d6000fd5b505050506040513d601f19601f82011682018060405250810190611d3c9190612ebc565b905080611d7e576040517f08c379a0000000000000000000000000000000000000000000000000000000008152600401611d7590613834565b60405180910390fd5b3373ffffffffffffffffffffffffffffffffffffffff16837f5cb4e3508d134c5c462b7edb0af9718bd67a29f83473404caa83fc7d9eb92a2660405160405180910390a35050611dcc61218a565b50565b611dd761235c565b6003548210611e1b576040517f08c379a0000000000000000000000000000000000000000000000000000000008152600401611e1290613684565b60405180910390fd5b600560008381526020019081526020016000206040518060c00160405290816000820160009054906101000a900473ffffffffffffffffffffffffffffffffffffffff1673ffffffffffffffffffffffffffffffffffffffff1673ffffffffffffffffffffffffffffffffffffffff1681526020016001820160009054906101000a900473ffffffffffffffffffffffffffffffffffffffff1673ffffffffffffffffffffffffffffffffffffffff1673ffffffffffffffffffffffffffffffffffffffff1681526020016002820154815260200160038201548152602001600482018054611f0990612f84565b80601f0160208091040260200160405190810160405280929190818152602001828054611f3590612f84565b8015611f825780601f10611f5757610100808354040283529160200191611f82565b820191906000526020600020905b815481529060010190602001808311611f6557829003601f168201915b505050505081526020016005820160009054906101000a900460ff1615151515815250509050919050565b611fb5612194565b600073ffffffffffffffffffffffffffffffffffffffff168173ffffffffffffffffffffffffffffffffffffffff16036120275760006040517f1e4fbdf700000000000000000000000000000000000000000000000000000000815260040161201e91906128ff565b60405180910390fd5b6120308161221b565b50565b60056020528060005260406000206000915090508060000160009054906101000a900473ffffffffffffffffffffffffffffffffffffffff16908060010160009054906101000a900473ffffffffffffffffffffffffffffffffffffffff16908060020154908060030154908060040180546120ae90612f84565b80601f01602080910402602001604051908101604052809291908181526020018280546120da90612f84565b80156121275780601f106120fc57610100808354040283529160200191612127565b820191906000526020600020905b81548152906001019060200180831161210a57829003601f168201915b5050505050908060050160009054906101000a900460ff16905086565b600260005403612180576040517f3ee5aeb500000000000000000000000000000000000000000000000000000000815260040160405180910390fd5b6002600081905550565b6001600081905550565b61219c6122e1565b73ffffffffffffffffffffffffffffffffffffffff166121ba611029565b73ffffffffffffffffffffffffffffffffffffffff1614612219576121dd6122e1565b6040517f118cdaa700000000000000000000000000000000000000000000000000000000815260040161221091906128ff565b60405180910390fd5b565b6000600160009054906101000a900473ffffffffffffffffffffffffffffffffffffffff16905081600160006101000a81548173ffffffffffffffffffffffffffffffffffffffff021916908373ffffffffffffffffffffffffffffffffffffffff1602179055508173ffffffffffffffffffffffffffffffffffffffff168173ffffffffffffffffffffffffffffffffffffffff167f8be0079c531659141344cd1fd0a4f28419497f9722a3daafe3b4186f6b6457e060405160405180910390a35050565b600033905090565b604051806101000160405280600073ffffffffffffffffffffffffffffffffffffffff168152602001600073ffffffffffffffffffffffffffffffffffffffff16815260200160008152602001600081526020016000815260200160008152602001600015158152602001606081525090565b6040518060c00160405280600073ffffffffffffffffffffffffffffffffffffffff168152602001600073ffffffffffffffffffffffffffffffffffffffff1681526020016000815260200160008152602001606081526020016000151581525090565b6000604051905090565b600080fd5b600080fd5b600073ffffffffffffffffffffffffffffffffffffffff82169050919050565b60006123ff826123d4565b9050919050565b61240f816123f4565b811461241a57600080fd5b50565b60008135905061242c81612406565b92915050565b6000819050919050565b61244581612432565b811461245057600080fd5b50565b6000813590506124628161243c565b92915050565b6000806040838503121561247f5761247e6123ca565b5b600061248d8582860161241d565b925050602061249e85828601612453565b9150509250929050565b6124b181612432565b82525050565b60006020820190506124cc60008301846124a8565b92915050565b6000602082840312156124e8576124e76123ca565b5b60006124f68482850161241d565b91505092915050565b6000819050919050565b600061252461251f61251a846123d4565b6124ff565b6123d4565b9050919050565b600061253682612509565b9050919050565b60006125488261252b565b9050919050565b6125588161253d565b82525050565b6000602082019050612573600083018461254f565b92915050565b60006020828403121561258f5761258e6123ca565b5b600061259d84828501612453565b91505092915050565b6125af816123f4565b82525050565b60008115159050919050565b6125ca816125b5565b82525050565b600081519050919050565b600082825260208201905092915050565b60005b8381101561260a5780820151818401526020810190506125ef565b60008484015250505050565b6000601f19601f8301169050919050565b6000612632826125d0565b61263c81856125db565b935061264c8185602086016125ec565b61265581612616565b840191505092915050565b600061010082019050612676600083018b6125a6565b612683602083018a6125a6565b61269060408301896124a8565b61269d60608301886124a8565b6126aa60808301876124a8565b6126b760a08301866124a8565b6126c460c08301856125c1565b81810360e08301526126d68184612627565b90509998505050505050505050565b600081519050919050565b600082825260208201905092915050565b6000819050602082019050919050565b61271a81612432565b82525050565b600061272c8383612711565b60208301905092915050565b6000602082019050919050565b6000612750826126e5565b61275a81856126f0565b935061276583612701565b8060005b8381101561279657815161277d8882612720565b975061278883612738565b925050600181019050612769565b5085935050505092915050565b600060208201905081810360008301526127bd8184612745565b905092915050565b6127ce816123f4565b82525050565b6127dd816125b5565b82525050565b600082825260208201905092915050565b60006127ff826125d0565b61280981856127e3565b93506128198185602086016125ec565b61282281612616565b840191505092915050565b60006101008301600083015161284660008601826127c5565b50602083015161285960208601826127c5565b50604083015161286c6040860182612711565b50606083015161287f6060860182612711565b5060808301516128926080860182612711565b5060a08301516128a560a0860182612711565b5060c08301516128b860c08601826127d4565b5060e083015184820360e08601526128d082826127f4565b9150508091505092915050565b600060208201905081810360008301526128f7818461282d565b905092915050565b600060208201905061291460008301846125a6565b92915050565b600080fd5b600080fd5b7f4e487b7100000000000000000000000000000000000000000000000000000000600052604160045260246000fd5b61295c82612616565b810181811067ffffffffffffffff8211171561297b5761297a612924565b5b80604052505050565b600061298e6123c0565b905061299a8282612953565b919050565b600067ffffffffffffffff8211156129ba576129b9612924565b5b6129c382612616565b9050602081019050919050565b82818337600083830152505050565b60006129f26129ed8461299f565b612984565b905082815260208101848484011115612a0e57612a0d61291f565b5b612a198482856129d0565b509392505050565b600082601f830112612a3657612a3561291a565b5b8135612a468482602086016129df565b91505092915050565b600080600060608486031215612a6857612a676123ca565b5b6000612a768682870161241d565b9350506020612a8786828701612453565b925050604084013567ffffffffffffffff811115612aa857612aa76123cf565b5b612ab486828701612a21565b9150509250925092565b60008060008060808587031215612ad857612ad76123ca565b5b6000612ae68782880161241d565b9450506020612af787828801612453565b9350506040612b0887828801612453565b925050606085013567ffffffffffffffff811115612b2957612b286123cf565b5b612b3587828801612a21565b91505092959194509250565b600060c083016000830151612b5960008601826127c5565b506020830151612b6c60208601826127c5565b506040830151612b7f6040860182612711565b506060830151612b926060860182612711565b5060808301518482036080860152612baa82826127f4565b91505060a0830151612bbf60a08601826127d4565b508091505092915050565b60006020820190508181036000830152612be48184612b41565b905092915050565b600060c082019050612c0160008301896125a6565b612c0e60208301886125a6565b612c1b60408301876124a8565b612c2860608301866124a8565b8181036080830152612c3a8185612627565b9050612c4960a08301846125c1565b979650505050505050565b7f496e76616c69642073747265616d204944000000000000000000000000000000600082015250565b6000612c8a6011836125db565b9150612c9582612c54565b602082019050919050565b60006020820190508181036000830152612cb981612c7d565b9050919050565b7f4f6e6c7920726563697069656e742063616e2077697468647261770000000000600082015250565b6000612cf6601b836125db565b9150612d0182612cc0565b602082019050919050565b60006020820190508181036000830152612d2581612ce9565b9050919050565b7f53747265616d207374696c6c2061637469766500000000000000000000000000600082015250565b6000612d626013836125db565b9150612d6d82612d2c565b602082019050919050565b60006020820190508181036000830152612d9181612d55565b9050919050565b7f4e6f7468696e6720746f20776974686472617700000000000000000000000000600082015250565b6000612dce6013836125db565b9150612dd982612d98565b602082019050919050565b60006020820190508181036000830152612dfd81612dc1565b9050919050565b7f4e487b7100000000000000000000000000000000000000000000000000000000600052601160045260246000fd5b6000612e3e82612432565b9150612e4983612432565b9250828201905080821115612e6157612e60612e04565b5b92915050565b6000604082019050612e7c60008301856125a6565b612e8960208301846124a8565b9392505050565b612e99816125b5565b8114612ea457600080fd5b50565b600081519050612eb681612e90565b92915050565b600060208284031215612ed257612ed16123ca565b5b6000612ee084828501612ea7565b91505092915050565b7f5472616e73666572206661696c65640000000000000000000000000000000000600082015250565b6000612f1f600f836125db565b9150612f2a82612ee9565b602082019050919050565b60006020820190508181036000830152612f4e81612f12565b9050919050565b7f4e487b7100000000000000000000000000000000000000000000000000000000600052602260045260246000fd5b60006002820490506001821680612f9c57607f821691505b602082108103612faf57612fae612f55565b5b50919050565b7f4f6e6c792073706f6e736f722063616e2073746f700000000000000000000000600082015250565b6000612feb6015836125db565b9150612ff682612fb5565b602082019050919050565b6000602082019050818103600083015261301a81612fde565b9050919050565b7f53747265616d20616c72656164792073746f7070656400000000000000000000600082015250565b60006130576016836125db565b915061306282613021565b602082019050919050565b600060208201905081810360008301526130868161304a565b9050919050565b600061309882612432565b91506130a383612432565b92508282039050818111156130bb576130ba612e04565b5b92915050565b60006130cc82612432565b91506130d783612432565b92508282026130e581612432565b915082820484148315176130fc576130fb612e04565b5b5092915050565b7f496e76616c696420726563697069656e74000000000000000000000000000000600082015250565b60006131396011836125db565b915061314482613103565b602082019050919050565b600060208201905081810360008301526131688161312c565b9050919050565b7f416d6f756e74206d75737420626520706f736974697665000000000000000000600082015250565b60006131a56017836125db565b91506131b08261316f565b602082019050919050565b600060208201905081810360008301526131d481613198565b9050919050565b60006060820190506131f060008301866125a6565b6131fd60208301856125a6565b61320a60408301846124a8565b949350505050565b7f546f6b656e207472616e73666572206661696c65640000000000000000000000600082015250565b60006132486015836125db565b915061325382613212565b602082019050919050565b600060208201905081810360008301526132778161323b565b9050919050565b600061328982612432565b91507fffffffffffffffffffffffffffffffffffffffffffffffffffffffffffffffff82036132bb576132ba612e04565b5b600182019050919050565b60008190508160005260206000209050919050565b60006020601f8301049050919050565b600082821b905092915050565b6000600883026133287fffffffffffffffffffffffffffffffffffffffffffffffffffffffffffffffff826132eb565b61333286836132eb565b95508019841693508086168417925050509392505050565b600061336561336061335b84612432565b6124ff565b612432565b9050919050565b6000819050919050565b61337f8361334a565b61339361338b8261336c565b8484546132f8565b825550505050565b600090565b6133a861339b565b6133b3818484613376565b505050565b5b818110156133d7576133cc6000826133a0565b6001810190506133b9565b5050565b601f82111561341c576133ed816132c6565b6133f6846132db565b81016020851015613405578190505b613419613411856132db565b8301826133b8565b50505b505050565b600082821c905092915050565b600061343f60001984600802613421565b1980831691505092915050565b6000613458838361342e565b9150826002028217905092915050565b613471826125d0565b67ffffffffffffffff81111561348a57613489612924565b5b6134948254612f84565b61349f8282856133db565b600060209050601f8311600181146134d257600084156134c0578287015190505b6134ca858261344c565b865550613532565b601f1984166134e0866132c6565b60005b82811015613508578489015182556001820191506020850194506020810190506134e3565b868310156135255784890151613521601f89168261342e565b8355505b6001600288020188555050505b505050505050565b7f416d6f756e7420706572207365636f6e64206d75737420626520706f7369746960008201527f7665000000000000000000000000000000000000000000000000000000000000602082015250565b60006135966022836125db565b91506135a18261353a565b604082019050919050565b600060208201905081810360008301526135c581613589565b9050919050565b7f4475726174696f6e206d75737420626520706f73697469766500000000000000600082015250565b60006136026019836125db565b915061360d826135cc565b602082019050919050565b60006020820190508181036000830152613631816135f5565b9050919050565b7f496e76616c696420646f6e6174696f6e20494400000000000000000000000000600082015250565b600061366e6013836125db565b915061367982613638565b602082019050919050565b6000602082019050818103600083015261369d81613661565b9050919050565b7f4f6e6c7920646f6e6f722063616e207265766f6b650000000000000000000000600082015250565b60006136da6015836125db565b91506136e5826136a4565b602082019050919050565b60006020820190508181036000830152613709816136cd565b9050919050565b7f416c7265616479207265766f6b65640000000000000000000000000000000000600082015250565b6000613746600f836125db565b915061375182613710565b602082019050919050565b6000602082019050818103600083015261377581613739565b9050919050565b7f323420686f75722077696e646f77206578706972656400000000000000000000600082015250565b60006137b26016836125db565b91506137bd8261377c565b602082019050919050565b600060208201905081810360008301526137e1816137a5565b9050919050565b7f526566756e64206661696c656400000000000000000000000000000000000000600082015250565b600061381e600d836125db565b9150613829826137e8565b602082019050919050565b6000602082019050818103600083015261384d81613811565b905091905056fea264697066735822122030d41938c0359c1c69f7927a075252c2c28e0ca13f9140cb4ef93bec1d5de9c764736f6c63430008140033",
  "linkReferences": {},
  "deployedLinkReferences": {}
}