{
  "_format": "hh-sol-artifact-1",
  "contractName": "CrowdFunding",
  "sourceName": "contracts/CrowdFunding.sol",
  "abi": [
    {
      "inputs": [
        {
          "internalType": "address",
          "name": "_empowerTokenAddress",
          "type": "address"
        }
      ],
      "stateMutability": "nonpayable",
      "type": "constructor"
    },
    {
      "inputs": [],
      "name": "ReentrancyGuardReentrantCall",
      "type": "error"
    },
    {
      "anonymous": false,
      "inputs": [
        {
          "indexed": true,
          "internalType": "uint256",
          "name": "campaignId",
          "type": "uint256"
        },
        {
          "indexed": true,
          "internalType": "address",
          "name": "creator",
          "type": "address"
        },
        {
          "indexed": false,
          "internalType": "string",
          "name": "title",
          "type": "string"
        },
        {
          "indexed": false,
          "internalType": "uint256",
          "name": "goal",
          "type": "uint256"
        },
        {
          "indexed": false,
          "internalType": "uint256",
          "name": "deadline",
          "type": "uint256"
        }
      ],
      "name": "CampaignCreated",
      "type": "event"
    },
    {
      "anonymous": false,
      "inputs": [
        {
          "indexed": true,
          "internalType": "uint256",
          "name": "campaignId",
          "type": "uint256"
        },
        {
          "indexed": true,
          "internalType": "address",
          "name": "donor",
          "type": "address"
        },
        {
          "indexed": false,
          "internalType": "uint256",
          "name": "amount",
          "type": "uint256"
        }
      ],
      "name": "Donated",
      "type": "event"
    },
    {
      "anonymous": false,
      "inputs": [
        {
          "indexed": true,
          "internalType": "uint256",
          "name": "campaignId",
          "type": "uint256"
        },
        {
          "indexed": true,
          "internalType": "address",
          "name": "creator",
          "type": "address"
        },
        {
          "indexed": false,
          "internalType": "uint256",
          "name": "amount",
          "type": "uint256"
        }
      ],
      "name": "FundsClaimed",
      "type": "event"
    },
    {
      "anonymous": false,
      "inputs": [
        {
          "indexed": true,
          "internalType": "uint256",
          "name": "campaignId",
          "type": "uint256"
        },
        {
          "indexed": true,
          "internalType": "address",
          "name": "donor",
          "type": "address"
        },
        {
          "indexed": false,
          "internalType": "uint256",
          "name": "amount",
          "type": "uint256"
        }
      ],
      "name": "Refunded",
      "type": "event"
    },
    {
      "inputs": [
        {
          "internalType": "uint256",
          "name": "",
          "type": "uint256"
        }
      ],
      "name": "campaigns",
      "outputs": [
        {
          "internalType": "address",
          "name": "creator",
          "type": "address"
        },
        {
          "internalType": "string",
          "name": "title",
          "type": "string"
        },
        {
          "internalType": "string",
          "name": "description",
          "type": "string"
        },
        {
          "internalType": "uint256",
          "name": "goal",
          "type": "uint256"
        },
        {
          "internalType": "uint256",
          "name": "deadline",
          "type": "uint256"
        },
        {
          "internalType": "uint256",
          "name": "totalDonations",
          "type": "uint256"
        },
        {
          "internalType": "bool",
          "name": "claimed",
          "type": "bool"
        }
      ],
      "stateMutability": "view",
      "type": "function"
    },
    {
      "inputs": [
        {
          "internalType": "uint256",
          "name": "_campaignId",
          "type": "uint256"
        }
      ],
      "name": "claimFunds",
      "outputs": [],
      "stateMutability": "nonpayable",
      "type": "function"
    },
    {
      "inputs": [
        {
          "internalType": "string",
          "name": "_title",
          "type": "string"
        },
        {
          "internalType": "string",
          "name": "_description",
          "type": "string"
        },
        {
          "internalType": "uint256",
          "name": "_goal",
          "type": "uint256"
        },
        {
          "internalType": "uint256",
          "name": "_duration",
          "type": "uint256"
        }
      ],
      "name": "createCampaign",
      "outputs": [],
      "stateMutability": "nonpayable",
      "type": "function"
    },
    {
      "inputs": [
        {
          "internalType": "uint256",
          "name": "_campaignId",
          "type": "uint256"
        },
        {
          "internalType": "uint256",
          "name": "_amount",
          "type": "uint256"
        }
      ],
      "name": "donate",
      "outputs": [],
      "stateMutability": "nonpayable",
      "type": "function"
    },
    {
      "inputs": [
        {
          "internalType": "uint256",
          "name": "",
          "type": "uint256"
        },
        {
          "internalType": "address",
          "name": "",
          "type": "address"
        }
      ],
      "name": "donations",
      "outputs": [
        {
          "internalType": "uint256",
          "name": "",
          "type": "uint256"
        }
      ],
      "stateMutability": "view",
      "type": "function"
    },
    {
      "inputs": [],
      "name": "empowerToken",
      "outputs": [
        {
          "internalType": "contract EmpowerToken",
          "name": "",
          "type": "address"
        }
      ],
      "stateMutability": "view",
      "type": "function"
    },
    {
      "inputs": [],
      "name": "getCampaignsCount",
      "outputs": [
        {
          "internalType": "uint256",
          "name": "",
          "type": "uint256"
        }
      ],
      "stateMutability": "view",
      "type": "function"
    },
    {
      "inputs": [
        {
          "internalType": "uint256",
          "name": "_campaignId",
          "type": "uint256"
        }
      ],
      "name": "getRefund",
      "outputs": [],
      "stateMutability": "nonpayable",
      "type": "function"
    }
  ],
  "bytecode": "0x60a06040523480156200001157600080fd5b5060405162001fc538038062001fc58339818101604052810190620000379190620000e4565b60016000819055508073ffffffffffffffffffffffffffffffffffffffff1660808173ffffffffffffffffffffffffffffffffffffffff16815250505062000116565b600080fd5b600073ffffffffffffffffffffffffffffffffffffffff82169050919050565b6000620000ac826200007f565b9050919050565b620000be816200009f565b8114620000ca57600080fd5b50565b600081519050620000de81620000b3565b92915050565b600060208284031215620000fd57620000fc6200007a565b5b60006200010d84828501620000cd565b91505092915050565b608051611e7e62000147600039600081816102a101528181610804015281816109890152610ddb0152611e7e6000f3fe608060405234801561001057600080fd5b50600436106100885760003560e01c80637e6253da1161005b5780637e6253da14610119578063a318f26914610137578063d2f0be9914610153578063ee1554a31461016f57610088565b80630cdd53f61461008d578063141961bc146100a95780631b55e338146100df578063225f75c8146100fb575b600080fd5b6100a760048036038101906100a29190610fd5565b61019f565b005b6100c360048036038101906100be9190611015565b610460565b6040516100d6979695949392919061113d565b60405180910390f35b6100f960048036038101906100f49190611015565b6105ef565b005b610103610987565b6040516101109190611219565b60405180910390f35b6101216109ab565b60405161012e9190611234565b60405180910390f35b610151600480360381019061014c9190611384565b6109b8565b005b61016d60048036038101906101689190611015565b610be3565b005b6101896004803603810190610184919061144f565b610f16565b6040516101969190611234565b60405180910390f35b6101a7610f3b565b60018054905082106101ee576040517f08c379a00000000000000000000000000000000000000000000000000000000081526004016101e5906114db565b60405180910390fd5b600060018381548110610204576102036114fb565b5b906000526020600020906007020190508060040154421061025a576040517f08c379a000000000000000000000000000000000000000000000000000000000815260040161025190611576565b60405180910390fd5b6000821161029d576040517f08c379a0000000000000000000000000000000000000000000000000000000008152600401610294906115e2565b60405180910390fd5b60007f000000000000000000000000000000000000000000000000000000000000000073ffffffffffffffffffffffffffffffffffffffff166323b872dd3330866040518463ffffffff1660e01b81526004016102fc93929190611602565b6020604051808303816000875af115801561031b573d6000803e3d6000fd5b505050506040513d601f19601f8201168201806040525081019061033f9190611665565b905080610381576040517f08c379a0000000000000000000000000000000000000000000000000000000008152600401610378906116de565b60405180910390fd5b82826005016000828254610395919061172d565b92505081905550826002600086815260200190815260200160002060003373ffffffffffffffffffffffffffffffffffffffff1673ffffffffffffffffffffffffffffffffffffffff16815260200190815260200160002060008282546103fc919061172d565b925050819055503373ffffffffffffffffffffffffffffffffffffffff16847f1b606d34afacd55873aba0fd274841a10c63e18455f2dffebad2fc60a36b2c838560405161044a9190611234565b60405180910390a3505061045c610f81565b5050565b6001818154811061047057600080fd5b90600052602060002090600702016000915090508060000160009054906101000a900473ffffffffffffffffffffffffffffffffffffffff16908060010180546104b990611790565b80601f01602080910402602001604051908101604052809291908181526020018280546104e590611790565b80156105325780601f1061050757610100808354040283529160200191610532565b820191906000526020600020905b81548152906001019060200180831161051557829003601f168201915b50505050509080600201805461054790611790565b80601f016020809104026020016040519081016040528092919081815260200182805461057390611790565b80156105c05780601f10610595576101008083540402835291602001916105c0565b820191906000526020600020905b8154815290600101906020018083116105a357829003601f168201915b5050505050908060030154908060040154908060050154908060060160009054906101000a900460ff16905087565b6105f7610f3b565b600180549050811061063e576040517f08c379a0000000000000000000000000000000000000000000000000000000008152600401610635906114db565b60405180910390fd5b600060018281548110610654576106536114fb565b5b906000526020600020906007020190508060000160009054906101000a900473ffffffffffffffffffffffffffffffffffffffff1673ffffffffffffffffffffffffffffffffffffffff163373ffffffffffffffffffffffffffffffffffffffff16146106f6576040517f08c379a00000000000000000000000000000000000000000000000000000000081526004016106ed9061180d565b60405180910390fd5b806004015442101561073d576040517f08c379a000000000000000000000000000000000000000000000000000000000815260040161073490611879565b60405180910390fd5b806003015481600501541015610788576040517f08c379a000000000000000000000000000000000000000000000000000000000815260040161077f906118e5565b60405180910390fd5b8060060160009054906101000a900460ff16156107da576040517f08c379a00000000000000000000000000000000000000000000000000000000081526004016107d190611951565b60405180910390fd5b60018160060160006101000a81548160ff02191690831515021790555060008160050154905060007f000000000000000000000000000000000000000000000000000000000000000073ffffffffffffffffffffffffffffffffffffffff1663a9059cbb8460000160009054906101000a900473ffffffffffffffffffffffffffffffffffffffff16846040518363ffffffff1660e01b8152600401610881929190611971565b6020604051808303816000875af11580156108a0573d6000803e3d6000fd5b505050506040513d601f19601f820116820180604052508101906108c49190611665565b905080610906576040517f08c379a00000000000000000000000000000000000000000000000000000000081526004016108fd906116de565b60405180910390fd5b8260000160009054906101000a900473ffffffffffffffffffffffffffffffffffffffff1673ffffffffffffffffffffffffffffffffffffffff16847fa4eb50103b0591feb0bc913f479d92af5eb7ea33e8c397b49bab52ce6af26cb5846040516109719190611234565b60405180910390a3505050610984610f81565b50565b7f000000000000000000000000000000000000000000000000000000000000000081565b6000600180549050905090565b600082116109fb576040517f08c379a00000000000000000000000000000000000000000000000000000000081526004016109f2906119e6565b60405180910390fd5b60008111610a3e576040517f08c379a0000000000000000000000000000000000000000000000000000000008152600401610a3590611a78565b60405180910390fd5b6000600180549050905060016040518060e001604052803373ffffffffffffffffffffffffffffffffffffffff1681526020018781526020018681526020018581526020018442610a8f919061172d565b81526020016000815260200160001515815250908060018154018082558091505060019003906000526020600020906007020160009091909190915060008201518160000160006101000a81548173ffffffffffffffffffffffffffffffffffffffff021916908373ffffffffffffffffffffffffffffffffffffffff1602179055506020820151816001019081610b279190611c3a565b506040820151816002019081610b3d9190611c3a565b50606082015181600301556080820151816004015560a0820151816005015560c08201518160060160006101000a81548160ff02191690831515021790555050503373ffffffffffffffffffffffffffffffffffffffff16817fdc26653af5b99b2da33e2ad69ee6600d9aeccc82b034501db4338309615ca23887868642610bc5919061172d565b604051610bd493929190611d0c565b60405180910390a35050505050565b610beb610f3b565b6001805490508110610c32576040517f08c379a0000000000000000000000000000000000000000000000000000000008152600401610c29906114db565b60405180910390fd5b600060018281548110610c4857610c476114fb565b5b906000526020600020906007020190508060040154421015610c9f576040517f08c379a0000000000000000000000000000000000000000000000000000000008152600401610c9690611879565b60405180910390fd5b8060030154816005015410610ce9576040517f08c379a0000000000000000000000000000000000000000000000000000000008152600401610ce090611d96565b60405180910390fd5b60006002600084815260200190815260200160002060003373ffffffffffffffffffffffffffffffffffffffff1673ffffffffffffffffffffffffffffffffffffffff16815260200190815260200160002054905060008111610d81576040517f08c379a0000000000000000000000000000000000000000000000000000000008152600401610d7890611e28565b60405180910390fd5b60006002600085815260200190815260200160002060003373ffffffffffffffffffffffffffffffffffffffff1673ffffffffffffffffffffffffffffffffffffffff1681526020019081526020016000208190555060007f000000000000000000000000000000000000000000000000000000000000000073ffffffffffffffffffffffffffffffffffffffff1663a9059cbb33846040518363ffffffff1660e01b8152600401610e34929190611971565b6020604051808303816000875af1158015610e53573d6000803e3d6000fd5b505050506040513d601f19601f82011682018060405250810190610e779190611665565b905080610eb9576040517f08c379a0000000000000000000000000000000000000000000000000000000008152600401610eb0906116de565b60405180910390fd5b3373ffffffffffffffffffffffffffffffffffffffff16847f7ca5472b7ea78c2c0141c5a12ee6d170cf4ce8ed06be3d22c8252ddfc7a6a2c484604051610f009190611234565b60405180910390a3505050610f13610f81565b50565b6002602052816000526040600020602052806000526040600020600091509150505481565b600260005403610f77576040517f3ee5aeb500000000000000000000000000000000000000000000000000000000815260040160405180910390fd5b6002600081905550565b6001600081905550565b6000604051905090565b600080fd5b600080fd5b6000819050919050565b610fb281610f9f565b8114610fbd57600080fd5b50565b600081359050610fcf81610fa9565b92915050565b60008060408385031215610fec57610feb610f95565b5b6000610ffa85828601610fc0565b925050602061100b85828601610fc0565b9150509250929050565b60006020828403121561102b5761102a610f95565b5b600061103984828501610fc0565b91505092915050565b600073ffffffffffffffffffffffffffffffffffffffff82169050919050565b600061106d82611042565b9050919050565b61107d81611062565b82525050565b600081519050919050565b600082825260208201905092915050565b60005b838110156110bd5780820151818401526020810190506110a2565b60008484015250505050565b6000601f19601f8301169050919050565b60006110e582611083565b6110ef818561108e565b93506110ff81856020860161109f565b611108816110c9565b840191505092915050565b61111c81610f9f565b82525050565b60008115159050919050565b61113781611122565b82525050565b600060e082019050611152600083018a611074565b818103602083015261116481896110da565b9050818103604083015261117881886110da565b90506111876060830187611113565b6111946080830186611113565b6111a160a0830185611113565b6111ae60c083018461112e565b98975050505050505050565b6000819050919050565b60006111df6111da6111d584611042565b6111ba565b611042565b9050919050565b60006111f1826111c4565b9050919050565b6000611203826111e6565b9050919050565b611213816111f8565b82525050565b600060208201905061122e600083018461120a565b92915050565b60006020820190506112496000830184611113565b92915050565b600080fd5b600080fd5b7f4e487b7100000000000000000000000000000000000000000000000000000000600052604160045260246000fd5b611291826110c9565b810181811067ffffffffffffffff821117156112b0576112af611259565b5b80604052505050565b60006112c3610f8b565b90506112cf8282611288565b919050565b600067ffffffffffffffff8211156112ef576112ee611259565b5b6112f8826110c9565b9050602081019050919050565b82818337600083830152505050565b6000611327611322846112d4565b6112b9565b90508281526020810184848401111561134357611342611254565b5b61134e848285611305565b509392505050565b600082601f83011261136b5761136a61124f565b5b813561137b848260208601611314565b91505092915050565b6000806000806080858703121561139e5761139d610f95565b5b600085013567ffffffffffffffff8111156113bc576113bb610f9a565b5b6113c887828801611356565b945050602085013567ffffffffffffffff8111156113e9576113e8610f9a565b5b6113f587828801611356565b935050604061140687828801610fc0565b925050606061141787828801610fc0565b91505092959194509250565b61142c81611062565b811461143757600080fd5b50565b60008135905061144981611423565b92915050565b6000806040838503121561146657611465610f95565b5b600061147485828601610fc0565b92505060206114858582860161143a565b9150509250929050565b7f43616d706169676e20646f6573206e6f74206578697374000000000000000000600082015250565b60006114c560178361108e565b91506114d08261148f565b602082019050919050565b600060208201905081810360008301526114f4816114b8565b9050919050565b7f4e487b7100000000000000000000000000000000000000000000000000000000600052603260045260246000fd5b7f43616d706169676e2068617320656e6465640000000000000000000000000000600082015250565b600061156060128361108e565b915061156b8261152a565b602082019050919050565b6000602082019050818103600083015261158f81611553565b9050919050565b7f446f6e6174696f6e20616d6f756e74206d75737420626520706f736974697665600082015250565b60006115cc60208361108e565b91506115d782611596565b602082019050919050565b600060208201905081810360008301526115fb816115bf565b9050919050565b60006060820190506116176000830186611074565b6116246020830185611074565b6116316040830184611113565b949350505050565b61164281611122565b811461164d57600080fd5b50565b60008151905061165f81611639565b92915050565b60006020828403121561167b5761167a610f95565b5b600061168984828501611650565b91505092915050565b7f546f6b656e207472616e73666572206661696c65640000000000000000000000600082015250565b60006116c860158361108e565b91506116d382611692565b602082019050919050565b600060208201905081810360008301526116f7816116bb565b9050919050565b7f4e487b7100000000000000000000000000000000000000000000000000000000600052601160045260246000fd5b600061173882610f9f565b915061174383610f9f565b925082820190508082111561175b5761175a6116fe565b5b92915050565b7f4e487b7100000000000000000000000000000000000000000000000000000000600052602260045260246000fd5b600060028204905060018216806117a857607f821691505b6020821081036117bb576117ba611761565b5b50919050565b7f4f6e6c79207468652063726561746f722063616e20636c61696d2066756e6473600082015250565b60006117f760208361108e565b9150611802826117c1565b602082019050919050565b60006020820190508181036000830152611826816117ea565b9050919050565b7f43616d706169676e20686173206e6f7420656e64656420796574000000000000600082015250565b6000611863601a8361108e565b915061186e8261182d565b602082019050919050565b6000602082019050818103600083015261189281611856565b9050919050565b7f43616d706169676e20676f616c206e6f74207265616368656400000000000000600082015250565b60006118cf60198361108e565b91506118da82611899565b602082019050919050565b600060208201905081810360008301526118fe816118c2565b9050919050565b7f46756e647320616c726561647920636c61696d65640000000000000000000000600082015250565b600061193b60158361108e565b915061194682611905565b602082019050919050565b6000602082019050818103600083015261196a8161192e565b9050919050565b60006040820190506119866000830185611074565b6119936020830184611113565b9392505050565b7f476f616c206d7573742062652067726561746572207468616e207a65726f0000600082015250565b60006119d0601e8361108e565b91506119db8261199a565b602082019050919050565b600060208201905081810360008301526119ff816119c3565b9050919050565b7f4475726174696f6e206d7573742062652067726561746572207468616e207a6560008201527f726f000000000000000000000000000000000000000000000000000000000000602082015250565b6000611a6260228361108e565b9150611a6d82611a06565b604082019050919050565b60006020820190508181036000830152611a9181611a55565b9050919050565b60008190508160005260206000209050919050565b60006020601f8301049050919050565b600082821b905092915050565b600060088302611afa7fffffffffffffffffffffffffffffffffffffffffffffffffffffffffffffffff82611abd565b611b048683611abd565b95508019841693508086168417925050509392505050565b6000611b37611b32611b2d84610f9f565b6111ba565b610f9f565b9050919050565b6000819050919050565b611b5183611b1c565b611b65611b5d82611b3e565b848454611aca565b825550505050565b600090565b611b7a611b6d565b611b85818484611b48565b505050565b5b81811015611ba957611b9e600082611b72565b600181019050611b8b565b5050565b601f821115611bee57611bbf81611a98565b611bc884611aad565b81016020851015611bd7578190505b611beb611be385611aad565b830182611b8a565b50505b505050565b600082821c905092915050565b6000611c1160001984600802611bf3565b1980831691505092915050565b6000611c2a8383611c00565b9150826002028217905092915050565b611c4382611083565b67ffffffffffffffff811115611c5c57611c5b611259565b5b611c668254611790565b611c71828285611bad565b600060209050601f831160018114611ca45760008415611c92578287015190505b611c9c8582611c1e565b865550611d04565b601f198416611cb286611a98565b60005b82811015611cda57848901518255600182019150602085019450602081019050611cb5565b86831015611cf75784890151611cf3601f891682611c00565b8355505b6001600288020188555050505b505050505050565b60006060820190508181036000830152611d2681866110da565b9050611d356020830185611113565b611d426040830184611113565b949350505050565b7f43616d706169676e20676f616c20776173207265616368656400000000000000600082015250565b6000611d8060198361108e565b9150611d8b82611d4a565b602082019050919050565b60006020820190508181036000830152611daf81611d73565b9050919050565b7f596f7520646964206e6f7420646f6e61746520746f20746869732063616d706160008201527f69676e0000000000000000000000000000000000000000000000000000000000602082015250565b6000611e1260238361108e565b9150611e1d82611db6565b604082019050919050565b60006020820190508181036000830152611e4181611e05565b905091905056fea2646970667358221220ef48a466f82eb569babacb3fb07712763d448af558b2cc12b914e4d6f8e5841164736f6c63430008140033",
  "linkReferences": {},
  "deployedLinkReferences": {}
}