{
  "_format": "hh-sol-artifact-1",
  "contractName": "GrantDAO",
  "sourceName": "contracts/GrantDAO.sol",
  "abi": [
    {
      "inputs": [
        {
          "internalType": "address",
          "name": "_empowerTokenAddress",
          "type": "address"
        }
      ],
      "stateMutability": "nonpayable",
      "type": "constructor"
    },
    {
      "inputs": [
        {
          "internalType": "address",
          "name": "owner",
          "type": "address"
        }
      ],
      "name": "OwnableInvalidOwner",
      "type": "error"
    },
    {
      "inputs": [
        {
          "internalType": "address",
          "name": "account",
          "type": "address"
        }
      ],
      "name": "OwnableUnauthorizedAccount",
      "type": "error"
    },
    {
      "inputs": [],
      "name": "ReentrancyGuardReentrantCall",
      "type": "error"
    },
    {
      "anonymous": false,
      "inputs": [
        {
          "indexed": true,
          "internalType": "uint256",
          "name": "round",
          "type": "uint256"
        },
        {
          "indexed": false,
          "internalType": "uint256",
          "name": "totalPool",
          "type": "uint256"
        }
      ],
      "name": "FundingRoundStarted",
      "type": "event"
    },
    {
      "anonymous": false,
      "inputs": [
        {
          "indexed": true,
          "internalType": "uint256",
          "name": "grantId",
          "type": "uint256"
        },
        {
          "indexed": true,
          "internalType": "address",
          "name": "creator",
          "type": "address"
        },
        {
          "indexed": false,
          "internalType": "string",
          "name": "title",
          "type": "string"
        },
        {
          "indexed": false,
          "internalType": "uint256",
          "name": "requestedAmount",
          "type": "uint256"
        }
      ],
      "name": "GrantCreated",
      "type": "event"
    },
    {
      "anonymous": false,
      "inputs": [
        {
          "indexed": true,
          "internalType": "uint256",
          "name": "grantId",
          "type": "uint256"
        },
        {
          "indexed": true,
          "internalType": "address",
          "name": "creator",
          "type": "address"
        },
        {
          "indexed": false,
          "internalType": "uint256",
          "name": "amount",
          "type": "uint256"
        }
      ],
      "name": "GrantFunded",
      "type": "event"
    },
    {
      "anonymous": false,
      "inputs": [
        {
          "indexed": true,
          "internalType": "address",
          "name": "previousOwner",
          "type": "address"
        },
        {
          "indexed": true,
          "internalType": "address",
          "name": "newOwner",
          "type": "address"
        }
      ],
      "name": "OwnershipTransferred",
      "type": "event"
    },
    {
      "anonymous": false,
      "inputs": [
        {
          "indexed": true,
          "internalType": "uint256",
          "name": "grantId",
          "type": "uint256"
        },
        {
          "indexed": true,
          "internalType": "address",
          "name": "voter",
          "type": "address"
        },
        {
          "indexed": false,
          "internalType": "uint256",
          "name": "votePower",
          "type": "uint256"
        }
      ],
      "name": "VoteCast",
      "type": "event"
    },
    {
      "inputs": [
        {
          "internalType": "uint256",
          "name": "_amount",
          "type": "uint256"
        }
      ],
      "name": "addToGrantPool",
      "outputs": [],
      "stateMutability": "nonpayable",
      "type": "function"
    },
    {
      "inputs": [
        {
          "internalType": "uint256",
          "name": "_grantId",
          "type": "uint256"
        },
        {
          "internalType": "uint256",
          "name": "_votePower",
          "type": "uint256"
        }
      ],
      "name": "castVote",
      "outputs": [],
      "stateMutability": "nonpayable",
      "type": "function"
    },
    {
      "inputs": [
        {
          "internalType": "string",
          "name": "_title",
          "type": "string"
        },
        {
          "internalType": "string",
          "name": "_description",
          "type": "string"
        },
        {
          "internalType": "uint256",
          "name": "_requestedAmount",
          "type": "uint256"
        }
      ],
      "name": "createGrant",
      "outputs": [],
      "stateMutability": "nonpayable",
      "type": "function"
    },
    {
      "inputs": [],
      "name": "currentFundingRound",
      "outputs": [
        {
          "internalType": "uint256",
          "name": "",
          "type": "uint256"
        }
      ],
      "stateMutability": "view",
      "type": "function"
    },
    {
      "inputs": [],
      "name": "empowerToken",
      "outputs": [
        {
          "internalType": "contract EmpowerToken",
          "name": "",
          "type": "address"
        }
      ],
      "stateMutability": "view",
      "type": "function"
    },
    {
      "inputs": [],
      "name": "fundTopGrants",
      "outputs": [],
      "stateMutability": "nonpayable",
      "type": "function"
    },
    {
      "inputs": [],
      "name": "fundingPeriod",
      "outputs": [
        {
          "internalType": "uint256",
          "name": "",
          "type": "uint256"
        }
      ],
      "stateMutability": "view",
      "type": "function"
    },
    {
      "inputs": [
        {
          "internalType": "uint256",
          "name": "_grantId",
          "type": "uint256"
        }
      ],
      "name": "getGrant",
      "outputs": [
        {
          "components": [
            {
              "internalType": "address",
              "name": "creator",
              "type": "address"
            },
            {
              "internalType": "string",
              "name": "title",
              "type": "string"
            },
            {
              "internalType": "string",
              "name": "description",
              "type": "string"
            },
            {
              "internalType": "uint256",
              "name": "requestedAmount",
              "type": "uint256"
            },
            {
              "internalType": "uint256",
              "name": "totalVotes",
              "type": "uint256"
            },
            {
              "internalType": "uint256",
              "name": "fundingDeadline",
              "type": "uint256"
            },
            {
              "internalType": "bool",
              "name": "isActive",
              "type": "bool"
            },
            {
              "internalType": "bool",
              "name": "isFunded",
              "type": "bool"
            },
            {
              "internalType": "uint256",
              "name": "fundingRound",
              "type": "uint256"
            }
          ],
          "internalType": "struct GrantDAO.Grant",
          "name": "",
          "type": "tuple"
        }
      ],
      "stateMutability": "view",
      "type": "function"
    },
    {
      "inputs": [],
      "name": "getGrantsCount",
      "outputs": [
        {
          "internalType": "uint256",
          "name": "",
          "type": "uint256"
        }
      ],
      "stateMutability": "view",
      "type": "function"
    },
    {
      "inputs": [
        {
          "internalType": "uint256",
          "name": "_grantId",
          "type": "uint256"
        },
        {
          "internalType": "address",
          "name": "_user",
          "type": "address"
        }
      ],
      "name": "getUserVote",
      "outputs": [
        {
          "components": [
            {
              "internalType": "uint256",
              "name": "votePower",
              "type": "uint256"
            },
            {
              "internalType": "uint256",
              "name": "timestamp",
              "type": "uint256"
            },
            {
              "internalType": "bool",
              "name": "hasVoted",
              "type": "bool"
            }
          ],
          "internalType": "struct GrantDAO.Vote",
          "name": "",
          "type": "tuple"
        }
      ],
      "stateMutability": "view",
      "type": "function"
    },
    {
      "inputs": [
        {
          "internalType": "uint256",
          "name": "",
          "type": "uint256"
        }
      ],
      "name": "grants",
      "outputs": [
        {
          "internalType": "address",
          "name": "creator",
          "type": "address"
        },
        {
          "internalType": "string",
          "name": "title",
          "type": "string"
        },
        {
          "internalType": "string",
          "name": "description",
          "type": "string"
        },
        {
          "internalType": "uint256",
          "name": "requestedAmount",
          "type": "uint256"
        },
        {
          "internalType": "uint256",
          "name": "totalVotes",
          "type": "uint256"
        },
        {
          "internalType": "uint256",
          "name": "fundingDeadline",
          "type": "uint256"
        },
        {
          "internalType": "bool",
          "name": "isActive",
          "type": "bool"
        },
        {
          "internalType": "bool",
          "name": "isFunded",
          "type": "bool"
        },
        {
          "internalType": "uint256",
          "name": "fundingRound",
          "type": "uint256"
        }
      ],
      "stateMutability": "view",
      "type": "function"
    },
    {
      "inputs": [],
      "name": "owner",
      "outputs": [
        {
          "internalType": "address",
          "name": "",
          "type": "address"
        }
      ],
      "stateMutability": "view",
      "type": "function"
    },
    {
      "inputs": [],
      "name": "renounceOwnership",
      "outputs": [],
      "stateMutability": "nonpayable",
      "type": "function"
    },
    {
      "inputs": [
        {
          "internalType": "uint256",
          "name": "",
          "type": "uint256"
        }
      ],
      "name": "roundTotalVotes",
      "outputs": [
        {
          "internalType": "uint256",
          "name": "",
          "type": "uint256"
        }
      ],
      "stateMutability": "view",
      "type": "function"
    },
    {
      "inputs": [
        {
          "internalType": "uint256",
          "name": "_newPeriod",
          "type": "uint256"
        }
      ],
      "name": "setFundingPeriod",
      "outputs": [],
      "stateMutability": "nonpayable",
      "type": "function"
    },
    {
      "inputs": [
        {
          "internalType": "uint256",
          "name": "_newPeriod",
          "type": "uint256"
        }
      ],
      "name": "setVotingPeriod",
      "outputs": [],
      "stateMutability": "nonpayable",
      "type": "function"
    },
    {
      "inputs": [],
      "name": "totalGrantPool",
      "outputs": [
        {
          "internalType": "uint256",
          "name": "",
          "type": "uint256"
        }
      ],
      "stateMutability": "view",
      "type": "function"
    },
    {
      "inputs": [
        {
          "internalType": "address",
          "name": "newOwner",
          "type": "address"
        }
      ],
      "name": "transferOwnership",
      "outputs": [],
      "stateMutability": "nonpayable",
      "type": "function"
    },
    {
      "inputs": [
        {
          "internalType": "uint256",
          "name": "",
          "type": "uint256"
        },
        {
          "internalType": "address",
          "name": "",
          "type": "address"
        }
      ],
      "name": "votes",
      "outputs": [
        {
          "internalType": "uint256",
          "name": "votePower",
          "type": "uint256"
        },
        {
          "internalType": "uint256",
          "name": "timestamp",
          "type": "uint256"
        },
        {
          "internalType": "bool",
          "name": "hasVoted",
          "type": "bool"
        }
      ],
      "stateMutability": "view",
      "type": "function"
    },
    {
      "inputs": [],
      "name": "votingPeriod",
      "outputs": [
        {
          "internalType": "uint256",
          "name": "",
          "type": "uint256"
        }
      ],
      "stateMutability": "view",
      "type": "function"
    }
  ],
  "bytecode": "0x60a06040526001600255600060035562093a8060045562278d006005553480156200002957600080fd5b5060405162002c0338038062002c0383398181016040528101906200004f91906200024a565b336001600081905550600073ffffffffffffffffffffffffffffffffffffffff168173ffffffffffffffffffffffffffffffffffffffff1603620000cd5760006040517f1e4fbdf7000000000000000000000000000000000000000000000000000000008152600401620000c491906200028d565b60405180910390fd5b620000de816200011a60201b60201c565b508073ffffffffffffffffffffffffffffffffffffffff1660808173ffffffffffffffffffffffffffffffffffffffff168152505050620002aa565b6000600160009054906101000a900473ffffffffffffffffffffffffffffffffffffffff16905081600160006101000a81548173ffffffffffffffffffffffffffffffffffffffff021916908373ffffffffffffffffffffffffffffffffffffffff1602179055508173ffffffffffffffffffffffffffffffffffffffff168173ffffffffffffffffffffffffffffffffffffffff167f8be0079c531659141344cd1fd0a4f28419497f9722a3daafe3b4186f6b6457e060405160405180910390a35050565b600080fd5b600073ffffffffffffffffffffffffffffffffffffffff82169050919050565b60006200021282620001e5565b9050919050565b620002248162000205565b81146200023057600080fd5b50565b600081519050620002448162000219565b92915050565b600060208284031215620002635762000262620001e0565b5b6000620002738482850162000233565b91505092915050565b620002878162000205565b82525050565b6000602082019050620002a460008301846200027c565b92915050565b608051612928620002db60003960008181610609015281816107fe01528181610d93015261102001526129286000f3fe608060405234801561001057600080fd5b506004361061012c5760003560e01c806374d7c62b116100ad578063b8cc6c9311610071578063b8cc6c9314610303578063c8f79e7a14610333578063d23254b41461034f578063ea0217cf14610381578063f2fde38b1461039d5761012c565b806374d7c62b1461026f5780638da5cb5b1461028d57806396f89d88146102ab5780639ea776cd146102c9578063a0c0b4b9146102e75761012c565b80632a5aa292116100f45780632a5aa292146101f35780632c0a3f891461020f5780633384de801461022b5780633f41370f1461025b578063715018a6146102655761012c565b806302a251a31461013157806303c7881a1461014f5780630c0debea1461017f5780631899ab46146101b7578063225f75c8146101d5575b600080fd5b6101396103b9565b60405161014691906118f9565b60405180910390f35b610169600480360381019061016491906119b2565b6103bf565b6040516101769190611a5e565b60405180910390f35b61019960048036038101906101949190611a79565b610459565b6040516101ae99989796959493929190611b54565b60405180910390f35b6101bf610601565b6040516101cc91906118f9565b60405180910390f35b6101dd610607565b6040516101ea9190611c4e565b60405180910390f35b61020d60048036038101906102089190611a79565b61062b565b005b61022960048036038101906102249190611c69565b61063d565b005b61024560048036038101906102409190611a79565b610a28565b60405161025291906118f9565b60405180910390f35b610263610a40565b005b61026d610f82565b005b610277610f96565b60405161028491906118f9565b60405180910390f35b610295610f9c565b6040516102a29190611ca9565b60405180910390f35b6102b3610fc6565b6040516102c091906118f9565b60405180910390f35b6102d1610fd3565b6040516102de91906118f9565b60405180910390f35b61030160048036038101906102fc9190611a79565b610fd9565b005b61031d60048036038101906103189190611a79565b61111d565b60405161032a9190611de9565b60405180910390f35b61034d60048036038101906103489190611f40565b611379565b005b610369600480360381019061036491906119b2565b6115d6565b60405161037893929190611fcb565b60405180910390f35b61039b60048036038101906103969190611a79565b61161a565b005b6103b760048036038101906103b29190612002565b61162c565b005b60045481565b6103c7611857565b6007600084815260200190815260200160002060008373ffffffffffffffffffffffffffffffffffffffff1673ffffffffffffffffffffffffffffffffffffffff16815260200190815260200160002060405180606001604052908160008201548152602001600182015481526020016002820160009054906101000a900460ff161515151581525050905092915050565b6006818154811061046957600080fd5b90600052602060002090600802016000915090508060000160009054906101000a900473ffffffffffffffffffffffffffffffffffffffff16908060010180546104b29061205e565b80601f01602080910402602001604051908101604052809291908181526020018280546104de9061205e565b801561052b5780601f106105005761010080835404028352916020019161052b565b820191906000526020600020905b81548152906001019060200180831161050e57829003601f168201915b5050505050908060020180546105409061205e565b80601f016020809104026020016040519081016040528092919081815260200182805461056c9061205e565b80156105b95780601f1061058e576101008083540402835291602001916105b9565b820191906000526020600020905b81548152906001019060200180831161059c57829003601f168201915b5050505050908060030154908060040154908060050154908060060160009054906101000a900460ff16908060060160019054906101000a900460ff16908060070154905089565b60035481565b7f000000000000000000000000000000000000000000000000000000000000000081565b6106336116b2565b8060058190555050565b610645611739565b600680549050821061068c576040517f08c379a0000000000000000000000000000000000000000000000000000000008152600401610683906120db565b60405180910390fd5b6000600683815481106106a2576106a16120fb565b5b906000526020600020906008020190508060060160009054906101000a900460ff16610703576040517f08c379a00000000000000000000000000000000000000000000000000000000081526004016106fa90612176565b60405180910390fd5b80600501544210610749576040517f08c379a0000000000000000000000000000000000000000000000000000000008152600401610740906121e2565b60405180910390fd5b6007600084815260200190815260200160002060003373ffffffffffffffffffffffffffffffffffffffff1673ffffffffffffffffffffffffffffffffffffffff16815260200190815260200160002060020160009054906101000a900460ff16156107ea576040517f08c379a00000000000000000000000000000000000000000000000000000000081526004016107e19061224e565b60405180910390fd5b600082836107f8919061229d565b905060007f000000000000000000000000000000000000000000000000000000000000000073ffffffffffffffffffffffffffffffffffffffff166323b872dd3330856040518463ffffffff1660e01b8152600401610859939291906122df565b6020604051808303816000875af1158015610878573d6000803e3d6000fd5b505050506040513d601f19601f8201168201806040525081019061089c9190612342565b9050806108de576040517f08c379a00000000000000000000000000000000000000000000000000000000081526004016108d5906123bb565b60405180910390fd5b6040518060600160405280858152602001428152602001600115158152506007600087815260200190815260200160002060003373ffffffffffffffffffffffffffffffffffffffff1673ffffffffffffffffffffffffffffffffffffffff168152602001908152602001600020600082015181600001556020820151816001015560408201518160020160006101000a81548160ff0219169083151502179055509050508383600401600082825461099791906123db565b925050819055508360086000600254815260200190815260200160002060008282546109c391906123db565b925050819055503373ffffffffffffffffffffffffffffffffffffffff16857f2acce567deca3aabf56327adbb4524bd5318936eaefa69e3a5208ffda0cfec0986604051610a1191906118f9565b60405180910390a3505050610a2461177f565b5050565b60086020528060005260406000206000915090505481565b610a486116b2565b6006600081548110610a5d57610a5c6120fb565b5b906000526020600020906008020160050154421015610ab1576040517f08c379a0000000000000000000000000000000000000000000000000000000008152600401610aa89061245b565b60405180910390fd5b600060068054905067ffffffffffffffff811115610ad257610ad1611e15565b5b604051908082528060200260200182016040528015610b005781602001602082028036833780820191505090505b50905060005b600680549050811015610b465780828281518110610b2757610b266120fb565b5b6020026020010181815250508080610b3e9061247b565b915050610b06565b5060005b60018251610b5891906124c3565b811015610cc85760005b6001828451610b7191906124c3565b610b7b91906124c3565b811015610cb457600683600183610b9291906123db565b81518110610ba357610ba26120fb565b5b602002602001015181548110610bbc57610bbb6120fb565b5b9060005260206000209060080201600401546006848381518110610be357610be26120fb565b5b602002602001015181548110610bfc57610bfb6120fb565b5b9060005260206000209060080201600401541015610ca15782600182610c2291906123db565b81518110610c3357610c326120fb565b5b6020026020010151838281518110610c4e57610c4d6120fb565b5b6020026020010151848381518110610c6957610c686120fb565b5b6020026020010185600185610c7e91906123db565b81518110610c8f57610c8e6120fb565b5b60200260200101828152508281525050505b8080610cac9061247b565b915050610b62565b508080610cc09061247b565b915050610b4a565b50600060035490506000805b835181108015610ce45750600083115b15610f21576000848281518110610cfe57610cfd6120fb565b5b60200260200101519050600060068281548110610d1e57610d1d6120fb565b5b906000526020600020906008020190508060060160009054906101000a900460ff168015610d5b57508060060160019054906101000a900460ff16155b8015610d6c57506002548160070154145b15610f0c5760008160030154905085811115610d86578590505b6000811115610f0a5760007f000000000000000000000000000000000000000000000000000000000000000073ffffffffffffffffffffffffffffffffffffffff1663a9059cbb8460000160009054906101000a900473ffffffffffffffffffffffffffffffffffffffff16846040518363ffffffff1660e01b8152600401610e109291906124f7565b6020604051808303816000875af1158015610e2f573d6000803e3d6000fd5b505050506040513d601f19601f82011682018060405250810190610e539190612342565b90508015610f085760018360060160016101000a81548160ff0219169083151502179055508187610e8491906124c3565b96508580610e919061247b565b9650508260000160009054906101000a900473ffffffffffffffffffffffffffffffffffffffff1673ffffffffffffffffffffffffffffffffffffffff16847fbc4989bcd46803ad72d5672d4c28d5d4b9a73ebb418251d8d266b5eece40873484604051610eff91906118f9565b60405180910390a35b505b505b50508080610f199061247b565b915050610cd4565b5060026000815480929190610f359061247b565b919050555060006003819055506002547f736d10c85352f9c1adaf962033f2ca34aa99a1fe06298895d73d31ceb34791136000604051610f75919061255b565b60405180910390a2505050565b610f8a6116b2565b610f946000611789565b565b60055481565b6000600160009054906101000a900473ffffffffffffffffffffffffffffffffffffffff16905090565b6000600680549050905090565b60025481565b6000811161101c576040517f08c379a0000000000000000000000000000000000000000000000000000000008152600401611013906125c2565b60405180910390fd5b60007f000000000000000000000000000000000000000000000000000000000000000073ffffffffffffffffffffffffffffffffffffffff166323b872dd3330856040518463ffffffff1660e01b815260040161107b939291906122df565b6020604051808303816000875af115801561109a573d6000803e3d6000fd5b505050506040513d601f19601f820116820180604052508101906110be9190612342565b905080611100576040517f08c379a00000000000000000000000000000000000000000000000000000000081526004016110f7906123bb565b60405180910390fd5b816003600082825461111291906123db565b925050819055505050565b61112561187a565b600680549050821061116c576040517f08c379a0000000000000000000000000000000000000000000000000000000008152600401611163906120db565b60405180910390fd5b600682815481106111805761117f6120fb565b5b9060005260206000209060080201604051806101200160405290816000820160009054906101000a900473ffffffffffffffffffffffffffffffffffffffff1673ffffffffffffffffffffffffffffffffffffffff1673ffffffffffffffffffffffffffffffffffffffff1681526020016001820180546112009061205e565b80601f016020809104026020016040519081016040528092919081815260200182805461122c9061205e565b80156112795780601f1061124e57610100808354040283529160200191611279565b820191906000526020600020905b81548152906001019060200180831161125c57829003601f168201915b505050505081526020016002820180546112929061205e565b80601f01602080910402602001604051908101604052809291908181526020018280546112be9061205e565b801561130b5780601f106112e05761010080835404028352916020019161130b565b820191906000526020600020905b8154815290600101906020018083116112ee57829003601f168201915b505050505081526020016003820154815260200160048201548152602001600582015481526020016006820160009054906101000a900460ff161515151581526020016006820160019054906101000a900460ff161515151581526020016007820154815250509050919050565b600081116113bc576040517f08c379a00000000000000000000000000000000000000000000000000000000081526004016113b3906125c2565b60405180910390fd5b6000835111611400576040517f08c379a00000000000000000000000000000000000000000000000000000000081526004016113f79061262e565b60405180910390fd5b6000600680549050905060066040518061012001604052803373ffffffffffffffffffffffffffffffffffffffff168152602001868152602001858152602001848152602001600081526020016005544261145b91906123db565b8152602001600115158152602001600015158152602001600254815250908060018154018082558091505060019003906000526020600020906008020160009091909190915060008201518160000160006101000a81548173ffffffffffffffffffffffffffffffffffffffff021916908373ffffffffffffffffffffffffffffffffffffffff16021790555060208201518160010190816114fd91906127f0565b50604082015181600201908161151391906127f0565b50606082015181600301556080820151816004015560a0820151816005015560c08201518160060160006101000a81548160ff02191690831515021790555060e08201518160060160016101000a81548160ff021916908315150217905550610100820151816007015550503373ffffffffffffffffffffffffffffffffffffffff16817fba6c81353b832121645c594b7d98b074a38f94a967391254807594a72f84bdb486856040516115c89291906128c2565b60405180910390a350505050565b6007602052816000526040600020602052806000526040600020600091509150508060000154908060010154908060020160009054906101000a900460ff16905083565b6116226116b2565b8060048190555050565b6116346116b2565b600073ffffffffffffffffffffffffffffffffffffffff168173ffffffffffffffffffffffffffffffffffffffff16036116a65760006040517f1e4fbdf700000000000000000000000000000000000000000000000000000000815260040161169d9190611ca9565b60405180910390fd5b6116af81611789565b50565b6116ba61184f565b73ffffffffffffffffffffffffffffffffffffffff166116d8610f9c565b73ffffffffffffffffffffffffffffffffffffffff1614611737576116fb61184f565b6040517f118cdaa700000000000000000000000000000000000000000000000000000000815260040161172e9190611ca9565b60405180910390fd5b565b600260005403611775576040517f3ee5aeb500000000000000000000000000000000000000000000000000000000815260040160405180910390fd5b6002600081905550565b6001600081905550565b6000600160009054906101000a900473ffffffffffffffffffffffffffffffffffffffff16905081600160006101000a81548173ffffffffffffffffffffffffffffffffffffffff021916908373ffffffffffffffffffffffffffffffffffffffff1602179055508173ffffffffffffffffffffffffffffffffffffffff168173ffffffffffffffffffffffffffffffffffffffff167f8be0079c531659141344cd1fd0a4f28419497f9722a3daafe3b4186f6b6457e060405160405180910390a35050565b600033905090565b604051806060016040528060008152602001600081526020016000151581525090565b604051806101200160405280600073ffffffffffffffffffffffffffffffffffffffff1681526020016060815260200160608152602001600081526020016000815260200160008152602001600015158152602001600015158152602001600081525090565b6000819050919050565b6118f3816118e0565b82525050565b600060208201905061190e60008301846118ea565b92915050565b6000604051905090565b600080fd5b600080fd5b611931816118e0565b811461193c57600080fd5b50565b60008135905061194e81611928565b92915050565b600073ffffffffffffffffffffffffffffffffffffffff82169050919050565b600061197f82611954565b9050919050565b61198f81611974565b811461199a57600080fd5b50565b6000813590506119ac81611986565b92915050565b600080604083850312156119c9576119c861191e565b5b60006119d78582860161193f565b92505060206119e88582860161199d565b9150509250929050565b6119fb816118e0565b82525050565b60008115159050919050565b611a1681611a01565b82525050565b606082016000820151611a3260008501826119f2565b506020820151611a4560208501826119f2565b506040820151611a586040850182611a0d565b50505050565b6000606082019050611a736000830184611a1c565b92915050565b600060208284031215611a8f57611a8e61191e565b5b6000611a9d8482850161193f565b91505092915050565b611aaf81611974565b82525050565b600081519050919050565b600082825260208201905092915050565b60005b83811015611aef578082015181840152602081019050611ad4565b60008484015250505050565b6000601f19601f8301169050919050565b6000611b1782611ab5565b611b218185611ac0565b9350611b31818560208601611ad1565b611b3a81611afb565b840191505092915050565b611b4e81611a01565b82525050565b600061012082019050611b6a600083018c611aa6565b8181036020830152611b7c818b611b0c565b90508181036040830152611b90818a611b0c565b9050611b9f60608301896118ea565b611bac60808301886118ea565b611bb960a08301876118ea565b611bc660c0830186611b45565b611bd360e0830185611b45565b611be16101008301846118ea565b9a9950505050505050505050565b6000819050919050565b6000611c14611c0f611c0a84611954565b611bef565b611954565b9050919050565b6000611c2682611bf9565b9050919050565b6000611c3882611c1b565b9050919050565b611c4881611c2d565b82525050565b6000602082019050611c636000830184611c3f565b92915050565b60008060408385031215611c8057611c7f61191e565b5b6000611c8e8582860161193f565b9250506020611c9f8582860161193f565b9150509250929050565b6000602082019050611cbe6000830184611aa6565b92915050565b611ccd81611974565b82525050565b600082825260208201905092915050565b6000611cef82611ab5565b611cf98185611cd3565b9350611d09818560208601611ad1565b611d1281611afb565b840191505092915050565b600061012083016000830151611d366000860182611cc4565b5060208301518482036020860152611d4e8282611ce4565b91505060408301518482036040860152611d688282611ce4565b9150506060830151611d7d60608601826119f2565b506080830151611d9060808601826119f2565b5060a0830151611da360a08601826119f2565b5060c0830151611db660c0860182611a0d565b5060e0830151611dc960e0860182611a0d565b50610100830151611dde6101008601826119f2565b508091505092915050565b60006020820190508181036000830152611e038184611d1d565b905092915050565b600080fd5b600080fd5b7f4e487b7100000000000000000000000000000000000000000000000000000000600052604160045260246000fd5b611e4d82611afb565b810181811067ffffffffffffffff82111715611e6c57611e6b611e15565b5b80604052505050565b6000611e7f611914565b9050611e8b8282611e44565b919050565b600067ffffffffffffffff821115611eab57611eaa611e15565b5b611eb482611afb565b9050602081019050919050565b82818337600083830152505050565b6000611ee3611ede84611e90565b611e75565b905082815260208101848484011115611eff57611efe611e10565b5b611f0a848285611ec1565b509392505050565b600082601f830112611f2757611f26611e0b565b5b8135611f37848260208601611ed0565b91505092915050565b600080600060608486031215611f5957611f5861191e565b5b600084013567ffffffffffffffff811115611f7757611f76611923565b5b611f8386828701611f12565b935050602084013567ffffffffffffffff811115611fa457611fa3611923565b5b611fb086828701611f12565b9250506040611fc18682870161193f565b9150509250925092565b6000606082019050611fe060008301866118ea565b611fed60208301856118ea565b611ffa6040830184611b45565b949350505050565b6000602082840312156120185761201761191e565b5b60006120268482850161199d565b91505092915050565b7f4e487b7100000000000000000000000000000000000000000000000000000000600052602260045260246000fd5b6000600282049050600182168061207657607f821691505b6020821081036120895761208861202f565b5b50919050565b7f496e76616c6964206772616e7420494400000000000000000000000000000000600082015250565b60006120c5601083611ac0565b91506120d08261208f565b602082019050919050565b600060208201905081810360008301526120f4816120b8565b9050919050565b7f4e487b7100000000000000000000000000000000000000000000000000000000600052603260045260246000fd5b7f4772616e74206973206e6f742061637469766500000000000000000000000000600082015250565b6000612160601383611ac0565b915061216b8261212a565b602082019050919050565b6000602082019050818103600083015261218f81612153565b9050919050565b7f566f74696e6720706572696f6420656e64656400000000000000000000000000600082015250565b60006121cc601383611ac0565b91506121d782612196565b602082019050919050565b600060208201905081810360008301526121fb816121bf565b9050919050565b7f416c726561647920766f74656400000000000000000000000000000000000000600082015250565b6000612238600d83611ac0565b915061224382612202565b602082019050919050565b600060208201905081810360008301526122678161222b565b9050919050565b7f4e487b7100000000000000000000000000000000000000000000000000000000600052601160045260246000fd5b60006122a8826118e0565b91506122b3836118e0565b92508282026122c1816118e0565b915082820484148315176122d8576122d761226e565b5b5092915050565b60006060820190506122f46000830186611aa6565b6123016020830185611aa6565b61230e60408301846118ea565b949350505050565b61231f81611a01565b811461232a57600080fd5b50565b60008151905061233c81612316565b92915050565b6000602082840312156123585761235761191e565b5b60006123668482850161232d565b91505092915050565b7f546f6b656e207472616e73666572206661696c65640000000000000000000000600082015250565b60006123a5601583611ac0565b91506123b08261236f565b602082019050919050565b600060208201905081810360008301526123d481612398565b9050919050565b60006123e6826118e0565b91506123f1836118e0565b92508282019050808211156124095761240861226e565b5b92915050565b7f46756e64696e6720706572696f64206e6f7420656e6465640000000000000000600082015250565b6000612445601883611ac0565b91506124508261240f565b602082019050919050565b6000602082019050818103600083015261247481612438565b9050919050565b6000612486826118e0565b91507fffffffffffffffffffffffffffffffffffffffffffffffffffffffffffffffff82036124b8576124b761226e565b5b600182019050919050565b60006124ce826118e0565b91506124d9836118e0565b92508282039050818111156124f1576124f061226e565b5b92915050565b600060408201905061250c6000830185611aa6565b61251960208301846118ea565b9392505050565b6000819050919050565b600061254561254061253b84612520565b611bef565b6118e0565b9050919050565b6125558161252a565b82525050565b6000602082019050612570600083018461254c565b92915050565b7f416d6f756e74206d75737420626520706f736974697665000000000000000000600082015250565b60006125ac601783611ac0565b91506125b782612576565b602082019050919050565b600060208201905081810360008301526125db8161259f565b9050919050565b7f5469746c65207265717569726564000000000000000000000000000000000000600082015250565b6000612618600e83611ac0565b9150612623826125e2565b602082019050919050565b600060208201905081810360008301526126478161260b565b9050919050565b60008190508160005260206000209050919050565b60006020601f8301049050919050565b600082821b905092915050565b6000600883026126b07fffffffffffffffffffffffffffffffffffffffffffffffffffffffffffffffff82612673565b6126ba8683612673565b95508019841693508086168417925050509392505050565b60006126ed6126e86126e3846118e0565b611bef565b6118e0565b9050919050565b6000819050919050565b612707836126d2565b61271b612713826126f4565b848454612680565b825550505050565b600090565b612730612723565b61273b8184846126fe565b505050565b5b8181101561275f57612754600082612728565b600181019050612741565b5050565b601f8211156127a4576127758161264e565b61277e84612663565b8101602085101561278d578190505b6127a161279985612663565b830182612740565b50505b505050565b600082821c905092915050565b60006127c7600019846008026127a9565b1980831691505092915050565b60006127e083836127b6565b9150826002028217905092915050565b6127f982611ab5565b67ffffffffffffffff81111561281257612811611e15565b5b61281c825461205e565b612827828285612763565b600060209050601f83116001811461285a5760008415612848578287015190505b61285285826127d4565b8655506128ba565b601f1984166128688661264e565b60005b828110156128905784890151825560018201915060208501945060208101905061286b565b868310156128ad57848901516128a9601f8916826127b6565b8355505b6001600288020188555050505b505050505050565b600060408201905081810360008301526128dc8185611b0c565b90506128eb60208301846118ea565b939250505056fea264697066735822122004a58edf78cce7e87fc742d44dbd965188861e30fa5416ce3f54612ed9adc0a664736f6c63430008140033",
  "linkReferences": {},
  "deployedLinkReferences": {}
}