{
  "_format": "hh-sol-artifact-1",
  "contractName": "Microfinance",
  "sourceName": "contracts/Microfinance.sol",
  "abi": [
    {
      "inputs": [],
      "stateMutability": "nonpayable",
      "type": "constructor"
    },
    {
      "inputs": [],
      "name": "EnforcedPause",
      "type": "error"
    },
    {
      "inputs": [],
      "name": "ExpectedPause",
      "type": "error"
    },
    {
      "inputs": [
        {
          "internalType": "address",
          "name": "owner",
          "type": "address"
        }
      ],
      "name": "OwnableInvalidOwner",
      "type": "error"
    },
    {
      "inputs": [
        {
          "internalType": "address",
          "name": "account",
          "type": "address"
        }
      ],
      "name": "OwnableUnauthorizedAccount",
      "type": "error"
    },
    {
      "inputs": [],
      "name": "ReentrancyGuardReentrantCall",
      "type": "error"
    },
    {
      "anonymous": false,
      "inputs": [
        {
          "indexed": true,
          "internalType": "address",
          "name": "user",
          "type": "address"
        },
        {
          "indexed": false,
          "internalType": "uint256",
          "name": "newScore",
          "type": "uint256"
        }
      ],
      "name": "CreditScoreUpdated",
      "type": "event"
    },
    {
      "anonymous": false,
      "inputs": [
        {
          "indexed": true,
          "internalType": "uint256",
          "name": "savingsId",
          "type": "uint256"
        },
        {
          "indexed": true,
          "internalType": "address",
          "name": "saver",
          "type": "address"
        },
        {
          "indexed": false,
          "internalType": "uint256",
          "name": "amount",
          "type": "uint256"
        }
      ],
      "name": "InterestPaid",
      "type": "event"
    },
    {
      "anonymous": false,
      "inputs": [
        {
          "indexed": true,
          "internalType": "address",
          "name": "lender",
          "type": "address"
        }
      ],
      "name": "LenderAuthorized",
      "type": "event"
    },
    {
      "anonymous": false,
      "inputs": [
        {
          "indexed": true,
          "internalType": "address",
          "name": "lender",
          "type": "address"
        }
      ],
      "name": "LenderDeauthorized",
      "type": "event"
    },
    {
      "anonymous": false,
      "inputs": [
        {
          "indexed": true,
          "internalType": "uint256",
          "name": "loanId",
          "type": "uint256"
        },
        {
          "indexed": true,
          "internalType": "address",
          "name": "borrower",
          "type": "address"
        }
      ],
      "name": "LoanDefaulted",
      "type": "event"
    },
    {
      "anonymous": false,
      "inputs": [
        {
          "indexed": true,
          "internalType": "uint256",
          "name": "loanId",
          "type": "uint256"
        },
        {
          "indexed": true,
          "internalType": "address",
          "name": "borrower",
          "type": "address"
        },
        {
          "indexed": false,
          "internalType": "uint256",
          "name": "amount",
          "type": "uint256"
        },
        {
          "indexed": false,
          "internalType": "uint256",
          "name": "term",
          "type": "uint256"
        }
      ],
      "name": "LoanIssued",
      "type": "event"
    },
    {
      "anonymous": false,
      "inputs": [
        {
          "indexed": true,
          "internalType": "uint256",
          "name": "loanId",
          "type": "uint256"
        },
        {
          "indexed": true,
          "internalType": "address",
          "name": "borrower",
          "type": "address"
        },
        {
          "indexed": false,
          "internalType": "uint256",
          "name": "amount",
          "type": "uint256"
        }
      ],
      "name": "LoanRepaid",
      "type": "event"
    },
    {
      "anonymous": false,
      "inputs": [
        {
          "indexed": true,
          "internalType": "address",
          "name": "previousOwner",
          "type": "address"
        },
        {
          "indexed": true,
          "internalType": "address",
          "name": "newOwner",
          "type": "address"
        }
      ],
      "name": "OwnershipTransferred",
      "type": "event"
    },
    {
      "anonymous": false,
      "inputs": [
        {
          "indexed": false,
          "internalType": "address",
          "name": "account",
          "type": "address"
        }
      ],
      "name": "Paused",
      "type": "event"
    },
    {
      "anonymous": false,
      "inputs": [
        {
          "indexed": true,
          "internalType": "uint256",
          "name": "savingsId",
          "type": "uint256"
        },
        {
          "indexed": true,
          "internalType": "address",
          "name": "saver",
          "type": "address"
        },
        {
          "indexed": false,
          "internalType": "uint256",
          "name": "amount",
          "type": "uint256"
        }
      ],
      "name": "SavingsDeposited",
      "type": "event"
    },
    {
      "anonymous": false,
      "inputs": [
        {
          "indexed": true,
          "internalType": "uint256",
          "name": "savingsId",
          "type": "uint256"
        },
        {
          "indexed": true,
          "internalType": "address",
          "name": "saver",
          "type": "address"
        },
        {
          "indexed": false,
          "internalType": "uint256",
          "name": "amount",
          "type": "uint256"
        }
      ],
      "name": "SavingsWithdrawn",
      "type": "event"
    },
    {
      "anonymous": false,
      "inputs": [
        {
          "indexed": false,
          "internalType": "address",
          "name": "account",
          "type": "address"
        }
      ],
      "name": "Unpaused",
      "type": "event"
    },
    {
      "inputs": [],
      "name": "BASE_INTEREST_RATE",
      "outputs": [
        {
          "internalType": "uint256",
          "name": "",
          "type": "uint256"
        }
      ],
      "stateMutability": "view",
      "type": "function"
    },
    {
      "inputs": [],
      "name": "CREDIT_SCORE_BONUS",
      "outputs": [
        {
          "internalType": "uint256",
          "name": "",
          "type": "uint256"
        }
      ],
      "stateMutability": "view",
      "type": "function"
    },
    {
      "inputs": [],
      "name": "MAX_LOAN_AMOUNT",
      "outputs": [
        {
          "internalType": "uint256",
          "name": "",
          "type": "uint256"
        }
      ],
      "stateMutability": "view",
      "type": "function"
    },
    {
      "inputs": [],
      "name": "MAX_LOAN_TERM",
      "outputs": [
        {
          "internalType": "uint256",
          "name": "",
          "type": "uint256"
        }
      ],
      "stateMutability": "view",
      "type": "function"
    },
    {
      "inputs": [],
      "name": "MIN_LOAN_AMOUNT",
      "outputs": [
        {
          "internalType": "uint256",
          "name": "",
          "type": "uint256"
        }
      ],
      "stateMutability": "view",
      "type": "function"
    },
    {
      "inputs": [],
      "name": "MIN_LOAN_TERM",
      "outputs": [
        {
          "internalType": "uint256",
          "name": "",
          "type": "uint256"
        }
      ],
      "stateMutability": "view",
      "type": "function"
    },
    {
      "inputs": [
        {
          "internalType": "address",
          "name": "_lender",
          "type": "address"
        }
      ],
      "name": "authorizeLender",
      "outputs": [],
      "stateMutability": "nonpayable",
      "type": "function"
    },
    {
      "inputs": [
        {
          "internalType": "address",
          "name": "",
          "type": "address"
        }
      ],
      "name": "authorizedLenders",
      "outputs": [
        {
          "internalType": "bool",
          "name": "",
          "type": "bool"
        }
      ],
      "stateMutability": "view",
      "type": "function"
    },
    {
      "inputs": [
        {
          "internalType": "address",
          "name": "",
          "type": "address"
        },
        {
          "internalType": "uint256",
          "name": "",
          "type": "uint256"
        }
      ],
      "name": "borrowerLoans",
      "outputs": [
        {
          "internalType": "uint256",
          "name": "",
          "type": "uint256"
        }
      ],
      "stateMutability": "view",
      "type": "function"
    },
    {
      "inputs": [
        {
          "internalType": "uint256",
          "name": "_savingsId",
          "type": "uint256"
        }
      ],
      "name": "calculateInterest",
      "outputs": [],
      "stateMutability": "nonpayable",
      "type": "function"
    },
    {
      "inputs": [
        {
          "internalType": "uint256",
          "name": "_loanId",
          "type": "uint256"
        }
      ],
      "name": "calculateTotalOwed",
      "outputs": [
        {
          "internalType": "uint256",
          "name": "",
          "type": "uint256"
        }
      ],
      "stateMutability": "view",
      "type": "function"
    },
    {
      "inputs": [
        {
          "internalType": "string",
          "name": "_goal",
          "type": "string"
        },
        {
          "internalType": "uint256",
          "name": "_targetAmount",
          "type": "uint256"
        }
      ],
      "name": "createSavingsAccount",
      "outputs": [],
      "stateMutability": "nonpayable",
      "type": "function"
    },
    {
      "inputs": [
        {
          "internalType": "address",
          "name": "",
          "type": "address"
        }
      ],
      "name": "creditScores",
      "outputs": [
        {
          "internalType": "address",
          "name": "user",
          "type": "address"
        },
        {
          "internalType": "uint256",
          "name": "score",
          "type": "uint256"
        },
        {
          "internalType": "uint256",
          "name": "lastUpdated",
          "type": "uint256"
        },
        {
          "internalType": "uint256",
          "name": "loansCompleted",
          "type": "uint256"
        },
        {
          "internalType": "uint256",
          "name": "loansDefaulted",
          "type": "uint256"
        },
        {
          "internalType": "uint256",
          "name": "totalBorrowed",
          "type": "uint256"
        },
        {
          "internalType": "uint256",
          "name": "totalRepaid",
          "type": "uint256"
        }
      ],
      "stateMutability": "view",
      "type": "function"
    },
    {
      "inputs": [
        {
          "internalType": "address",
          "name": "_lender",
          "type": "address"
        }
      ],
      "name": "deauthorizeLender",
      "outputs": [],
      "stateMutability": "nonpayable",
      "type": "function"
    },
    {
      "inputs": [
        {
          "internalType": "uint256",
          "name": "_savingsId",
          "type": "uint256"
        }
      ],
      "name": "depositSavings",
      "outputs": [],
      "stateMutability": "payable",
      "type": "function"
    },
    {
      "inputs": [],
      "name": "emergencyPause",
      "outputs": [],
      "stateMutability": "nonpayable",
      "type": "function"
    },
    {
      "inputs": [
        {
          "internalType": "address",
          "name": "_borrower",
          "type": "address"
        }
      ],
      "name": "getBorrowerLoans",
      "outputs": [
        {
          "internalType": "uint256[]",
          "name": "",
          "type": "uint256[]"
        }
      ],
      "stateMutability": "view",
      "type": "function"
    },
    {
      "inputs": [
        {
          "internalType": "address",
          "name": "_user",
          "type": "address"
        }
      ],
      "name": "getCreditScore",
      "outputs": [
        {
          "components": [
            {
              "internalType": "address",
              "name": "user",
              "type": "address"
            },
            {
              "internalType": "uint256",
              "name": "score",
              "type": "uint256"
            },
            {
              "internalType": "uint256",
              "name": "lastUpdated",
              "type": "uint256"
            },
            {
              "internalType": "uint256",
              "name": "loansCompleted",
              "type": "uint256"
            },
            {
              "internalType": "uint256",
              "name": "loansDefaulted",
              "type": "uint256"
            },
            {
              "internalType": "uint256",
              "name": "totalBorrowed",
              "type": "uint256"
            },
            {
              "internalType": "uint256",
              "name": "totalRepaid",
              "type": "uint256"
            }
          ],
          "internalType": "struct Microfinance.CreditScore",
          "name": "",
          "type": "tuple"
        }
      ],
      "stateMutability": "view",
      "type": "function"
    },
    {
      "inputs": [
        {
          "internalType": "uint256",
          "name": "_loanId",
          "type": "uint256"
        }
      ],
      "name": "getLoan",
      "outputs": [
        {
          "components": [
            {
              "internalType": "uint256",
              "name": "id",
              "type": "uint256"
            },
            {
              "internalType": "address",
              "name": "borrower",
              "type": "address"
            },
            {
              "internalType": "uint256",
              "name": "amount",
              "type": "uint256"
            },
            {
              "internalType": "uint256",
              "name": "interestRate",
              "type": "uint256"
            },
            {
              "internalType": "uint256",
              "name": "term",
              "type": "uint256"
            },
            {
              "internalType": "uint256",
              "name": "startDate",
              "type": "uint256"
            },
            {
              "internalType": "uint256",
              "name": "dueDate",
              "type": "uint256"
            },
            {
              "internalType": "uint256",
              "name": "amountRepaid",
              "type": "uint256"
            },
            {
              "internalType": "bool",
              "name": "isActive",
              "type": "bool"
            },
            {
              "internalType": "bool",
              "name": "isRepaid",
              "type": "bool"
            },
            {
              "internalType": "bool",
              "name": "isDefaulted",
              "type": "bool"
            },
            {
              "internalType": "string",
              "name": "purpose",
              "type": "string"
            },
            {
              "internalType": "string",
              "name": "ipfsHash",
              "type": "string"
            },
            {
              "internalType": "uint256",
              "name": "creditScore",
              "type": "uint256"
            }
          ],
          "internalType": "struct Microfinance.Loan",
          "name": "",
          "type": "tuple"
        }
      ],
      "stateMutability": "view",
      "type": "function"
    },
    {
      "inputs": [],
      "name": "getPlatformStats",
      "outputs": [
        {
          "internalType": "uint256",
          "name": "",
          "type": "uint256"
        },
        {
          "internalType": "uint256",
          "name": "",
          "type": "uint256"
        },
        {
          "internalType": "uint256",
          "name": "",
          "type": "uint256"
        },
        {
          "internalType": "uint256",
          "name": "",
          "type": "uint256"
        }
      ],
      "stateMutability": "view",
      "type": "function"
    },
    {
      "inputs": [
        {
          "internalType": "address",
          "name": "_saver",
          "type": "address"
        }
      ],
      "name": "getSaverAccounts",
      "outputs": [
        {
          "internalType": "uint256[]",
          "name": "",
          "type": "uint256[]"
        }
      ],
      "stateMutability": "view",
      "type": "function"
    },
    {
      "inputs": [
        {
          "internalType": "uint256",
          "name": "_savingsId",
          "type": "uint256"
        }
      ],
      "name": "getSavings",
      "outputs": [
        {
          "components": [
            {
              "internalType": "uint256",
              "name": "id",
              "type": "uint256"
            },
            {
              "internalType": "address",
              "name": "saver",
              "type": "address"
            },
            {
              "internalType": "uint256",
              "name": "amount",
              "type": "uint256"
            },
            {
              "internalType": "uint256",
              "name": "interestRate",
              "type": "uint256"
            },
            {
              "internalType": "uint256",
              "name": "startDate",
              "type": "uint256"
            },
            {
              "internalType": "uint256",
              "name": "lastInterestDate",
              "type": "uint256"
            },
            {
              "internalType": "bool",
              "name": "isActive",
              "type": "bool"
            },
            {
              "internalType": "string",
              "name": "goal",
              "type": "string"
            },
            {
              "internalType": "uint256",
              "name": "targetAmount",
              "type": "uint256"
            }
          ],
          "internalType": "struct Microfinance.Savings",
          "name": "",
          "type": "tuple"
        }
      ],
      "stateMutability": "view",
      "type": "function"
    },
    {
      "inputs": [
        {
          "internalType": "uint256",
          "name": "_loanId",
          "type": "uint256"
        }
      ],
      "name": "isLoanOverdue",
      "outputs": [
        {
          "internalType": "bool",
          "name": "",
          "type": "bool"
        }
      ],
      "stateMutability": "view",
      "type": "function"
    },
    {
      "inputs": [
        {
          "internalType": "address",
          "name": "_borrower",
          "type": "address"
        },
        {
          "internalType": "uint256",
          "name": "_amount",
          "type": "uint256"
        },
        {
          "internalType": "uint256",
          "name": "_term",
          "type": "uint256"
        },
        {
          "internalType": "string",
          "name": "_purpose",
          "type": "string"
        },
        {
          "internalType": "string",
          "name": "_ipfsHash",
          "type": "string"
        }
      ],
      "name": "issueLoan",
      "outputs": [],
      "stateMutability": "nonpayable",
      "type": "function"
    },
    {
      "inputs": [
        {
          "internalType": "uint256",
          "name": "",
          "type": "uint256"
        }
      ],
      "name": "loans",
      "outputs": [
        {
          "internalType": "uint256",
          "name": "id",
          "type": "uint256"
        },
        {
          "internalType": "address",
          "name": "borrower",
          "type": "address"
        },
        {
          "internalType": "uint256",
          "name": "amount",
          "type": "uint256"
        },
        {
          "internalType": "uint256",
          "name": "interestRate",
          "type": "uint256"
        },
        {
          "internalType": "uint256",
          "name": "term",
          "type": "uint256"
        },
        {
          "internalType": "uint256",
          "name": "startDate",
          "type": "uint256"
        },
        {
          "internalType": "uint256",
          "name": "dueDate",
          "type": "uint256"
        },
        {
          "internalType": "uint256",
          "name": "amountRepaid",
          "type": "uint256"
        },
        {
          "internalType": "bool",
          "name": "isActive",
          "type": "bool"
        },
        {
          "internalType": "bool",
          "name": "isRepaid",
          "type": "bool"
        },
        {
          "internalType": "bool",
          "name": "isDefaulted",
          "type": "bool"
        },
        {
          "internalType": "string",
          "name": "purpose",
          "type": "string"
        },
        {
          "internalType": "string",
          "name": "ipfsHash",
          "type": "string"
        },
        {
          "internalType": "uint256",
          "name": "creditScore",
          "type": "uint256"
        }
      ],
      "stateMutability": "view",
      "type": "function"
    },
    {
      "inputs": [],
      "name": "owner",
      "outputs": [
        {
          "internalType": "address",
          "name": "",
          "type": "address"
        }
      ],
      "stateMutability": "view",
      "type": "function"
    },
    {
      "inputs": [],
      "name": "paused",
      "outputs": [
        {
          "internalType": "bool",
          "name": "",
          "type": "bool"
        }
      ],
      "stateMutability": "view",
      "type": "function"
    },
    {
      "inputs": [],
      "name": "platformFee",
      "outputs": [
        {
          "internalType": "uint256",
          "name": "",
          "type": "uint256"
        }
      ],
      "stateMutability": "view",
      "type": "function"
    },
    {
      "inputs": [],
      "name": "renounceOwnership",
      "outputs": [],
      "stateMutability": "nonpayable",
      "type": "function"
    },
    {
      "inputs": [
        {
          "internalType": "uint256",
          "name": "_loanId",
          "type": "uint256"
        }
      ],
      "name": "repayLoan",
      "outputs": [],
      "stateMutability": "payable",
      "type": "function"
    },
    {
      "inputs": [
        {
          "internalType": "address",
          "name": "",
          "type": "address"
        },
        {
          "internalType": "uint256",
          "name": "",
          "type": "uint256"
        }
      ],
      "name": "saverAccounts",
      "outputs": [
        {
          "internalType": "uint256",
          "name": "",
          "type": "uint256"
        }
      ],
      "stateMutability": "view",
      "type": "function"
    },
    {
      "inputs": [
        {
          "internalType": "uint256",
          "name": "",
          "type": "uint256"
        }
      ],
      "name": "savings",
      "outputs": [
        {
          "internalType": "uint256",
          "name": "id",
          "type": "uint256"
        },
        {
          "internalType": "address",
          "name": "saver",
          "type": "address"
        },
        {
          "internalType": "uint256",
          "name": "amount",
          "type": "uint256"
        },
        {
          "internalType": "uint256",
          "name": "interestRate",
          "type": "uint256"
        },
        {
          "internalType": "uint256",
          "name": "startDate",
          "type": "uint256"
        },
        {
          "internalType": "uint256",
          "name": "lastInterestDate",
          "type": "uint256"
        },
        {
          "internalType": "bool",
          "name": "isActive",
          "type": "bool"
        },
        {
          "internalType": "string",
          "name": "goal",
          "type": "string"
        },
        {
          "internalType": "uint256",
          "name": "targetAmount",
          "type": "uint256"
        }
      ],
      "stateMutability": "view",
      "type": "function"
    },
    {
      "inputs": [],
      "name": "totalInterestPaid",
      "outputs": [
        {
          "internalType": "uint256",
          "name": "",
          "type": "uint256"
        }
      ],
      "stateMutability": "view",
      "type": "function"
    },
    {
      "inputs": [],
      "name": "totalLoansIssued",
      "outputs": [
        {
          "internalType": "uint256",
          "name": "",
          "type": "uint256"
        }
      ],
      "stateMutability": "view",
      "type": "function"
    },
    {
      "inputs": [],
      "name": "totalLoansRepaid",
      "outputs": [
        {
          "internalType": "uint256",
          "name": "",
          "type": "uint256"
        }
      ],
      "stateMutability": "view",
      "type": "function"
    },
    {
      "inputs": [],
      "name": "totalSavingsDeposits",
      "outputs": [
        {
          "internalType": "uint256",
          "name": "",
          "type": "uint256"
        }
      ],
      "stateMutability": "view",
      "type": "function"
    },
    {
      "inputs": [
        {
          "internalType": "address",
          "name": "newOwner",
          "type": "address"
        }
      ],
      "name": "transferOwnership",
      "outputs": [],
      "stateMutability": "nonpayable",
      "type": "function"
    },
    {
      "inputs": [],
      "name": "unpause",
      "outputs": [],
      "stateMutability": "nonpayable",
      "type": "function"
    },
    {
      "inputs": [
        {
          "internalType": "address",
          "name": "",
          "type": "address"
        }
      ],
      "name": "userTotalBorrowed",
      "outputs": [
        {
          "internalType": "uint256",
          "name": "",
          "type": "uint256"
        }
      ],
      "stateMutability": "view",
      "type": "function"
    },
    {
      "inputs": [
        {
          "internalType": "address",
          "name": "",
          "type": "address"
        }
      ],
      "name": "userTotalRepaid",
      "outputs": [
        {
          "internalType": "uint256",
          "name": "",
          "type": "uint256"
        }
      ],
      "stateMutability": "view",
      "type": "function"
    },
    {
      "inputs": [],
      "name": "withdrawFees",
      "outputs": [],
      "stateMutability": "nonpayable",
      "type": "function"
    },
    {
      "inputs": [
        {
          "internalType": "uint256",
          "name": "_savingsId",
          "type": "uint256"
        },
        {
          "internalType": "uint256",
          "name": "_amount",
          "type": "uint256"
        }
      ],
      "name": "withdrawSavings",
      "outputs": [],
      "stateMutability": "nonpayable",
      "type": "function"
    },
    {
      "stateMutability": "payable",
      "type": "receive"
    }
  ],
  "bytecode": "0x60806040526000600355600060045560016009553480156200002057600080fd5b5033806200004857604051631e4fbdf760e01b81526000600482015260240160405180910390fd5b62000053816200005e565b5060018055620000ae565b600080546001600160a01b038381166001600160a01b0319831681178455604051919092169283917f8be0079c531659141344cd1fd0a4f28419497f9722a3daafe3b4186f6b6457e09190a35050565b612f5880620000be6000396000f3fe6080604052600436106102555760003560e01c806380bb727311610139578063b046cd9f116100b6578063e1ec3c681161007a578063e1ec3c68146107af578063e3ed1902146107e9578063eb084ad014610809578063eee8b7ff14610836578063f2fde38b14610856578063f86857ca1461087657600080fd5b8063b046cd9f146106b4578063c7959d04146106d4578063ceba1794146106ea578063d3dd2bdf14610708578063dad210ba1461078257600080fd5b80638f0a9877116100fd5780638f0a98771461062457806396fa212f14610651578063a453b6cf1461066e578063a57475e014610681578063ab7b1c89146106a157600080fd5b806380bb72731461050d57806384d00f93146105ae5780638c0243e7146105ce5780638c34dc70146105e45780638da5cb5b146105fc57600080fd5b8063476343ee116101d2578063549f433f11610196578063549f433f146104645780635b11e1041461047a5780635c975abb1461049a578063715018a6146104b25780637644dd17146104c7578063771333ac146104f757600080fd5b8063476343ee146103d85780634bae6114146103ed578063504006ca1461040257806351858e271461042f57806351dcdb821461044457600080fd5b80632621baf9116102195780632621baf91461032857806326232a2e1461035d57806329194ee3146103735780633b498602146103935780633f4ba83a146103c357600080fd5b80630b1751d2146102615780630d8cb2ff146102835780630d95250a146102ab578063136d8883146102c257806313bfb182146102fb57600080fd5b3661025c57005b600080fd5b34801561026d57600080fd5b5061028161027c3660046127e4565b610896565b005b34801561028f57600080fd5b50610298600581565b6040519081526020015b60405180910390f35b3480156102b757600080fd5b5061029862278d0081565b3480156102ce57600080fd5b506005546006546007546008546040805194855260208501939093529183015260608201526080016102a2565b34801561030757600080fd5b5061031b61031636600461286c565b610e3d565b6040516102a291906128cb565b34801561033457600080fd5b5061034861034336600461286c565b610fdf565b6040516102a29998979695949392919061295d565b34801561036957600080fd5b5061029860095481565b34801561037f57600080fd5b5061029861038e36600461286c565b6110c2565b34801561039f57600080fd5b506103b36103ae36600461286c565b611187565b60405190151581526020016102a2565b3480156103cf57600080fd5b506102816111f9565b3480156103e457600080fd5b5061028161120b565b3480156103f957600080fd5b50610298600281565b34801561040e57600080fd5b5061042261041d36600461286c565b6112a8565b6040516102a291906129bd565b34801561043b57600080fd5b5061028161153a565b34801561045057600080fd5b5061028161045f366004612ab5565b61154a565b34801561047057600080fd5b5061029860065481565b34801561048657600080fd5b50610281610495366004612ad0565b611679565b3480156104a657600080fd5b5060025460ff166103b3565b3480156104be57600080fd5b50610281611845565b3480156104d357600080fd5b506103b36104e2366004612ab5565b600f6020526000908152604090205460ff1681565b34801561050357600080fd5b5061029860075481565b34801561051957600080fd5b5061056f610528366004612ab5565b600e6020526000908152604090208054600182015460028301546003840154600485015460058601546006909601546001600160a01b039095169593949293919290919087565b604080516001600160a01b0390981688526020880196909652948601939093526060850191909152608084015260a083015260c082015260e0016102a2565b3480156105ba57600080fd5b506102986105c9366004612af2565b611857565b3480156105da57600080fd5b5061029860085481565b3480156105f057600080fd5b506102986301e1338081565b34801561060857600080fd5b506000546040516001600160a01b0390911681526020016102a2565b34801561063057600080fd5b5061029861063f366004612ab5565b60116020526000908152604090205481565b34801561065d57600080fd5b5061029868056bc75e2d6310000081565b61028161067c36600461286c565b611888565b34801561068d57600080fd5b5061028161069c36600461286c565b6119c8565b6102816106af36600461286c565b611b6e565b3480156106c057600080fd5b506102816106cf366004612ab5565b611dd3565b3480156106e057600080fd5b5061029860055481565b3480156106f657600080fd5b5061029869021e19e0c9bab240000081565b34801561071457600080fd5b50610728610723366004612ab5565b611e98565b6040516102a2919081516001600160a01b031681526020808301519082015260408083015190820152606080830151908201526080808301519082015260a0828101519082015260c0918201519181019190915260e00190565b34801561078e57600080fd5b506107a261079d366004612ab5565b611f50565b6040516102a29190612b1c565b3480156107bb57600080fd5b506107cf6107ca36600461286c565b611fbc565b6040516102a29e9d9c9b9a99989796959493929190612b60565b3480156107f557600080fd5b50610298610804366004612af2565b61214e565b34801561081557600080fd5b50610298610824366004612ab5565b60106020526000908152604090205481565b34801561084257600080fd5b506107a2610851366004612ab5565b61216a565b34801561086257600080fd5b50610281610871366004612ab5565b6121d4565b34801561088257600080fd5b50610281610891366004612bff565b61220f565b336000908152600f602052604090205460ff16806108be57506000546001600160a01b031633145b6109355760405162461bcd60e51b815260206004820152603d60248201527f4d6963726f66696e616e63653a204f6e6c7920617574686f72697a6564206c6560448201527f6e646572732063616e20706572666f726d207468697320616374696f6e00000060648201526084015b60405180910390fd5b61093d612419565b610945612443565b6001600160a01b0385166109aa5760405162461bcd60e51b815260206004820152602660248201527f4d6963726f66696e616e63653a20496e76616c696420626f72726f776572206160448201526564647265737360d01b606482015260840161092c565b68056bc75e2d63100000841015610a0e5760405162461bcd60e51b815260206004820152602260248201527f4d6963726f66696e616e63653a20416d6f756e742062656c6f77206d696e696d604482015261756d60f01b606482015260840161092c565b69021e19e0c9bab2400000841115610a735760405162461bcd60e51b815260206004820152602260248201527f4d6963726f66696e616e63653a20416d6f756e742061626f7665206d6178696d604482015261756d60f01b606482015260840161092c565b62278d00831015610ac65760405162461bcd60e51b815260206004820152601c60248201527f4d6963726f66696e616e63653a205465726d20746f6f2073686f727400000000604482015260640161092c565b6301e13380831115610b1a5760405162461bcd60e51b815260206004820152601b60248201527f4d6963726f66696e616e63653a205465726d20746f6f206c6f6e670000000000604482015260640161092c565b6000825111610b795760405162461bcd60e51b815260206004820152602560248201527f4d6963726f66696e616e63653a20507572706f73652063616e6e6f7420626520604482015264656d70747960d81b606482015260840161092c565b6000610b8486612467565b90506000600360008154610b9790612c5a565b9190508190559050604051806101c00160405280828152602001886001600160a01b031681526020018781526020018381526020018681526020014281526020018642610be49190612c73565b815260200160008152602001600115158152602001600015158152602001600015158152602001858152602001848152602001600e60008a6001600160a01b03166001600160a01b0316815260200190815260200160002060010154815250600a60008381526020019081526020016000206000820151816000015560208201518160010160006101000a8154816001600160a01b0302191690836001600160a01b0316021790555060408201518160020155606082015181600301556080820151816004015560a0820151816005015560c0820151816006015560e082015181600701556101008201518160080160006101000a81548160ff0219169083151502179055506101208201518160080160016101000a81548160ff0219169083151502179055506101408201518160080160026101000a81548160ff021916908315150217905550610160820151816009019081610d429190612d0f565b50610180820151600a820190610d589082612d0f565b506101a09190910151600b909101556001600160a01b0387166000908152600c60209081526040822080546001810182559083529082200182905560058054889290610da5908490612c73565b90915550506001600160a01b03871660009081526010602052604081208054889290610dd2908490612c73565b90915550610de5905087876000806124bd565b60408051878152602081018790526001600160a01b0389169183917fd99d5e0667fbcbc89466a2ab452add78bc827542e462dd9cce1921d523d43a94910160405180910390a35050610e3660018055565b5050505050565b610e976040518061012001604052806000815260200160006001600160a01b031681526020016000815260200160008152602001600081526020016000815260200160001515815260200160608152602001600081525090565b6000828152600b6020526040812054839103610ec55760405162461bcd60e51b815260040161092c90612dcf565b6000838152600b60209081526040918290208251610120810184528154815260018201546001600160a01b0316928101929092526002810154928201929092526003820154606082015260048201546080820152600582015460a0820152600682015460ff16151560c082015260078201805491929160e084019190610f4a90612c8c565b80601f0160208091040260200160405190810160405280929190818152602001828054610f7690612c8c565b8015610fc35780601f10610f9857610100808354040283529160200191610fc3565b820191906000526020600020905b815481529060010190602001808311610fa657829003601f168201915b5050505050815260200160088201548152505091505b50919050565b600b602052600090815260409020805460018201546002830154600384015460048501546005860154600687015460078801805497986001600160a01b0390971697959694959394929360ff909216929161103990612c8c565b80601f016020809104026020016040519081016040528092919081815260200182805461106590612c8c565b80156110b25780601f10611087576101008083540402835291602001916110b2565b820191906000526020600020905b81548152906001019060200180831161109557829003601f168201915b5050505050908060080154905089565b6000818152600a6020526040812054829082036110f15760405162461bcd60e51b815260040161092c90612e1b565b6000838152600a602052604090206008810154610100900460ff161561111b576000925050610fd9565b6000620151808260050154426111319190612e5c565b61113b9190612e6f565b90506000618e9482846003015485600201546111579190612e91565b6111619190612e91565b61116b9190612e6f565b905080836002015461117d9190612c73565b9695505050505050565b6000818152600a6020526040812054829082036111b65760405162461bcd60e51b815260040161092c90612e1b565b6000838152600a60205260409020600881015460ff1680156111e257506008810154610100900460ff16155b80156111f15750806006015442115b949350505050565b6112016125f6565b611209612623565b565b6112136125f6565b478061126b5760405162461bcd60e51b815260206004820152602160248201527f4d6963726f66696e616e63653a204e6f206665657320746f20776974686472616044820152607760f81b606482015260840161092c565b600080546040516001600160a01b039091169183156108fc02918491818181858888f193505050501580156112a4573d6000803e3d6000fd5b5050565b611329604051806101c001604052806000815260200160006001600160a01b031681526020016000815260200160008152602001600081526020016000815260200160008152602001600081526020016000151581526020016000151581526020016000151581526020016060815260200160608152602001600081525090565b6000828152600a60205260408120548391036113575760405162461bcd60e51b815260040161092c90612e1b565b6000838152600a602090815260409182902082516101c0810184528154815260018201546001600160a01b0316928101929092526002810154928201929092526003820154606082015260048201546080820152600582015460a0820152600682015460c0820152600782015460e0820152600882015460ff808216151561010080850191909152820481161515610120840152620100009091041615156101408201526009820180549192916101608401919061141490612c8c565b80601f016020809104026020016040519081016040528092919081815260200182805461144090612c8c565b801561148d5780601f106114625761010080835404028352916020019161148d565b820191906000526020600020905b81548152906001019060200180831161147057829003601f168201915b50505050508152602001600a820180546114a690612c8c565b80601f01602080910402602001604051908101604052809291908181526020018280546114d290612c8c565b801561151f5780601f106114f45761010080835404028352916020019161151f565b820191906000526020600020905b81548152906001019060200180831161150257829003601f168201915b50505050508152602001600b82015481525050915050919050565b6115426125f6565b611209612675565b6115526125f6565b6001600160a01b0381166115b45760405162461bcd60e51b8152602060048201526024808201527f4d6963726f66696e616e63653a20496e76616c6964206c656e646572206164646044820152637265737360e01b606482015260840161092c565b6001600160a01b0381166000908152600f602052604090205460ff161561162d5760405162461bcd60e51b815260206004820152602760248201527f4d6963726f66696e616e63653a204c656e64657220616c7265616479206175746044820152661a1bdc9a5e995960ca1b606482015260840161092c565b6001600160a01b0381166000818152600f6020526040808220805460ff19166001179055517f44eefd919c4ad73d94e9b437f3234d4b5e9dad0e302afddc8316608d06d6ce019190a250565b611681612419565b611689612443565b6000828152600b60205260409020600681015460ff166116bb5760405162461bcd60e51b815260040161092c90612ea8565b60018101546001600160a01b031633146117255760405162461bcd60e51b815260206004820152602560248201527f4d6963726f66696e616e63653a204f6e6c792073617665722063616e20776974604482015264686472617760d81b606482015260840161092c565b600082116117455760405162461bcd60e51b815260040161092c90612edd565b80600201548211156117a45760405162461bcd60e51b815260206004820152602260248201527f4d6963726f66696e616e63653a20496e73756666696369656e742062616c616e604482015261636560f01b606482015260840161092c565b818160020160008282546117b89190612e5c565b9250508190555081600760008282546117d19190612e5c565b9091555050604051339083156108fc029084906000818181858888f19350505050158015611803573d6000803e3d6000fd5b50604051828152339084907fc901633c48e0790daaa2c7be3dae990aabd9cf4edcd36e6761e0547507491ea19060200160405180910390a3506112a460018055565b61184d6125f6565b61120960006126b2565b600d602052816000526040600020818154811061187357600080fd5b90600052602060002001600091509150505481565b611890612419565b611898612443565b6000818152600b60205260409020600681015460ff166118ca5760405162461bcd60e51b815260040161092c90612ea8565b60018101546001600160a01b031633146119325760405162461bcd60e51b8152602060048201526024808201527f4d6963726f66696e616e63653a204f6e6c792073617665722063616e206465706044820152631bdcda5d60e21b606482015260840161092c565b600034116119525760405162461bcd60e51b815260040161092c90612edd565b348160020160008282546119669190612c73565b92505081905550346007600082825461197f9190612c73565b9091555050604051348152339083907fde10911c56c6f1a2dc622ca1e4e501c4dc4a36238f5c7e2922b997435609e63e9060200160405180910390a3506119c560018055565b50565b6000818152600b60205260408120548291036119f65760405162461bcd60e51b815260040161092c90612dcf565b6000828152600b60205260409020600681015460ff16611a285760405162461bcd60e51b815260040161092c90612ea8565b6005810154611a3a9062278d00612c73565b421015611aa05760405162461bcd60e51b815260206004820152602e60248201527f4d6963726f66696e616e63653a20496e7465726573742063616c63756c61746560448201526d6420746f6f20726563656e746c7960901b606482015260840161092c565b600062015180826005015442611ab69190612e5c565b611ac09190612e6f565b90506000618e948284600301548560020154611adc9190612e91565b611ae69190612e91565b611af09190612e6f565b90508015610e365780836002016000828254611b0c9190612c73565b925050819055508060086000828254611b259190612c73565b9091555050426005840155604051818152339086907f1bac279e8b453c21522e8f33c4b9b6b7ffd4807c770f6fcb16970bf0d23fe8049060200160405180910390a35050505050565b611b76612419565b611b7e612443565b6000818152600a60205260409020600881015460ff168015611baa57506008810154610100900460ff16155b611c0e5760405162461bcd60e51b815260206004820152602f60248201527f4d6963726f66696e616e63653a204c6f616e206e6f7420616374697665206f7260448201526e08185b1c9958591e481c995c185a59608a1b606482015260840161092c565b60018101546001600160a01b03163314611c785760405162461bcd60e51b815260206004820152602560248201527f4d6963726f66696e616e63653a204f6e6c7920626f72726f7765722063616e20604482015264726570617960d81b606482015260840161092c565b6000611c83836110c2565b905080341015611ce05760405162461bcd60e51b815260206004820152602260248201527f4d6963726f66696e616e63653a20496e73756666696369656e74207061796d656044820152611b9d60f21b606482015260840161092c565b6007820181905560088201805461ffff1916610100179055600282015460068054600090611d0f908490612c73565b909155505060028201543360009081526011602052604081208054909190611d38908490612c73565b92505081905550611d51336000846002015460016124bd565b604051818152339084907f512d3e65b3e58c2187bb1872aa435dba5bd09c1c03823ba56ab70aac411e4a219060200160405180910390a380341115611dc857336108fc611d9e8334612e5c565b6040518115909202916000818181858888f19350505050158015611dc6573d6000803e3d6000fd5b505b50506119c560018055565b611ddb6125f6565b6001600160a01b0381166000908152600f602052604090205460ff16611e4f5760405162461bcd60e51b815260206004820152602360248201527f4d6963726f66696e616e63653a204c656e646572206e6f7420617574686f72696044820152621e995960ea1b606482015260840161092c565b6001600160a01b0381166000818152600f6020526040808220805460ff19169055517f76725470a2fd5445da06055de9afb4903c1e12dfa11b8065a21cd5ba96d33b099190a250565b611ee16040518060e0016040528060006001600160a01b031681526020016000815260200160008152602001600081526020016000815260200160008152602001600081525090565b506001600160a01b039081166000908152600e6020908152604091829020825160e081018452815490941684526001810154918401919091526002810154918301919091526003810154606083015260048101546080830152600581015460a08301526006015460c082015290565b6001600160a01b0381166000908152600d6020908152604091829020805483518184028101840190945280845260609392830182828015611fb057602002820191906000526020600020905b815481526020019060010190808311611f9c575b50505050509050919050565b600a60205260009081526040902080546001820154600283015460038401546004850154600586015460068701546007880154600889015460098a018054999a6001600160a01b039099169997989697959694959394929360ff80841694610100850482169462010000900490911692909161203790612c8c565b80601f016020809104026020016040519081016040528092919081815260200182805461206390612c8c565b80156120b05780601f10612085576101008083540402835291602001916120b0565b820191906000526020600020905b81548152906001019060200180831161209357829003601f168201915b50505050509080600a0180546120c590612c8c565b80601f01602080910402602001604051908101604052809291908181526020018280546120f190612c8c565b801561213e5780601f106121135761010080835404028352916020019161213e565b820191906000526020600020905b81548152906001019060200180831161212157829003601f168201915b50505050509080600b015490508e565b600c602052816000526040600020818154811061187357600080fd5b6001600160a01b0381166000908152600c6020908152604091829020805483518184028101840190945280845260609392830182828015611fb05760200282019190600052602060002090815481526020019060010190808311611f9c5750505050509050919050565b6121dc6125f6565b6001600160a01b03811661220657604051631e4fbdf760e01b81526000600482015260240161092c565b6119c5816126b2565b612217612443565b60008251116122735760405162461bcd60e51b815260206004820152602260248201527f4d6963726f66696e616e63653a20476f616c2063616e6e6f7420626520656d70604482015261747960f01b606482015260840161092c565b600081116122d85760405162461bcd60e51b815260206004820152602c60248201527f4d6963726f66696e616e63653a2054617267657420616d6f756e74206d75737460448201526b20626520706f73697469766560a01b606482015260840161092c565b60006004600081546122e990612c5a565b9190508190559050604051806101200160405280828152602001336001600160a01b03168152602001600081526020016005815260200142815260200142815260200160011515815260200184815260200183815250600b60008381526020019081526020016000206000820151816000015560208201518160010160006101000a8154816001600160a01b0302191690836001600160a01b0316021790555060408201518160020155606082015181600301556080820151816004015560a0820151816005015560c08201518160060160006101000a81548160ff02191690831515021790555060e08201518160070190816123e69190612d0f565b506101009190910151600890910155336000908152600d6020908152604082208054600181018255908352912001555050565b60026001540361243c57604051633ee5aeb560e01b815260040160405180910390fd5b6002600155565b60025460ff16156112095760405163d93c066560e01b815260040160405180910390fd5b6001600160a01b0381166000908152600e6020526040812060010154610320811061249f5761249860026005612e5c565b9392505050565b61025881106124b15750600592915050565b61249860056003612c73565b6001600160a01b038085166000908152600e6020526040902080549091166125075780546001600160a01b0319166001600160a01b03861617815561025860018201554260028201555b81156125865760038101805490600061251f83612c5a565b9190505550838160050160008282546125389190612c73565b92505081905550828160060160008282546125539190612c73565b90915550506001810154610352111561258157600a81600101600082825461257b9190612c73565b90915550505b6125a6565b83156125a657838160050160008282546125a09190612c73565b90915550505b42600282015560018101546040519081526001600160a01b038616907f79c012a0cfae660e09134956bc432c8497ec80e86a3a108d130e8b3fca52b3ad9060200160405180910390a25050505050565b6000546001600160a01b031633146112095760405163118cdaa760e01b815233600482015260240161092c565b61262b612702565b6002805460ff191690557f5db9ee0a495bf2e6ff9c91a7834c1ba4fdd244a5e8aa4e537bd38aeae4b073aa335b6040516001600160a01b03909116815260200160405180910390a1565b61267d612443565b6002805460ff191660011790557f62e78cea01bee320cd4e420270b5ea74000d11b0c9f74754ebdbfc544b05a2586126583390565b600080546001600160a01b038381166001600160a01b0319831681178455604051919092169283917f8be0079c531659141344cd1fd0a4f28419497f9722a3daafe3b4186f6b6457e09190a35050565b60025460ff1661120957604051638dfc202b60e01b815260040160405180910390fd5b80356001600160a01b038116811461273c57600080fd5b919050565b634e487b7160e01b600052604160045260246000fd5b600082601f83011261276857600080fd5b813567ffffffffffffffff8082111561278357612783612741565b604051601f8301601f19908116603f011681019082821181831017156127ab576127ab612741565b816040528381528660208588010111156127c457600080fd5b836020870160208301376000602085830101528094505050505092915050565b600080600080600060a086880312156127fc57600080fd5b61280586612725565b94506020860135935060408601359250606086013567ffffffffffffffff8082111561283057600080fd5b61283c89838a01612757565b9350608088013591508082111561285257600080fd5b5061285f88828901612757565b9150509295509295909350565b60006020828403121561287e57600080fd5b5035919050565b6000815180845260005b818110156128ab5760208185018101518683018201520161288f565b506000602082860101526020601f19601f83011685010191505092915050565b6020815281516020820152600060208301516128f260408401826001600160a01b03169052565b506040830151606083015260608301516080830152608083015160a083015260a083015160c083015260c083015161292e60e084018215159052565b5060e0830151610120610100818186015261294d610140860184612885565b9501519301929092525090919050565b60006101208b835260018060a01b038b1660208401528960408401528860608401528760808401528660a084015285151560c08401528060e08401526129a581840186612885565b915050826101008301529a9950505050505050505050565b6020815281516020820152600060208301516129e460408401826001600160a01b03169052565b506040830151606083015260608301516080830152608083015160a083015260a083015160c083015260c083015160e083015260e0830151610100818185015280850151915050610120612a3b8185018315159052565b8401519050610140612a508482018315159052565b8401519050610160612a658482018315159052565b808501519150506101c06101808181860152612a856101e0860184612885565b92508086015190506101a0601f198685030181870152612aa58483612885565b9601519190940152509192915050565b600060208284031215612ac757600080fd5b61249882612725565b60008060408385031215612ae357600080fd5b50508035926020909101359150565b60008060408385031215612b0557600080fd5b612b0e83612725565b946020939093013593505050565b6020808252825182820181905260009190848201906040850190845b81811015612b5457835183529284019291840191600101612b38565b50909695505050505050565b8e815260018060a01b038e1660208201528c60408201528b60608201528a60808201528960a08201528860c08201528760e0820152612ba461010082018815159052565b8515156101208201528415156101408201526101c06101608201526000612bcf6101c0830186612885565b828103610180840152612be28186612885565b915050826101a08301529f9e505050505050505050505050505050565b60008060408385031215612c1257600080fd5b823567ffffffffffffffff811115612c2957600080fd5b612c3585828601612757565b95602094909401359450505050565b634e487b7160e01b600052601160045260246000fd5b600060018201612c6c57612c6c612c44565b5060010190565b80820180821115612c8657612c86612c44565b92915050565b600181811c90821680612ca057607f821691505b602082108103610fd957634e487b7160e01b600052602260045260246000fd5b601f821115612d0a57600081815260208120601f850160051c81016020861015612ce75750805b601f850160051c820191505b81811015612d0657828155600101612cf3565b5050505b505050565b815167ffffffffffffffff811115612d2957612d29612741565b612d3d81612d378454612c8c565b84612cc0565b602080601f831160018114612d725760008415612d5a5750858301515b600019600386901b1c1916600185901b178555612d06565b600085815260208120601f198616915b82811015612da157888601518255948401946001909101908401612d82565b5085821015612dbf5787850151600019600388901b60f8161c191681555b5050505050600190811b01905550565b6020808252602c908201527f4d6963726f66696e616e63653a20536176696e6773206163636f756e7420646f60408201526b195cc81b9bdd08195e1a5cdd60a21b606082015260800190565b60208082526021908201527f4d6963726f66696e616e63653a204c6f616e20646f6573206e6f7420657869736040820152601d60fa1b606082015260800190565b81810381811115612c8657612c86612c44565b600082612e8c57634e487b7160e01b600052601260045260246000fd5b500490565b8082028115828204841417612c8657612c86612c44565b6020808252818101527f4d6963726f66696e616e63653a204163636f756e74206e6f7420616374697665604082015260600190565b60208082526025908201527f4d6963726f66696e616e63653a20416d6f756e74206d75737420626520706f73604082015264697469766560d81b60608201526080019056fea26469706673582212209f0aecb0623accda43c219ff73fd741e1931d965d4a6655e9f4332f64709c19464736f6c63430008140033",
  "linkReferences": {},
  "deployedLinkReferences": {}
}