{
  "_format": "hh-sol-artifact-1",
  "contractName": "CounselorMarketplace",
  "sourceName": "contracts/CounselorMarketplace.sol",
  "abi": [
    {
      "inputs": [],
      "stateMutability": "nonpayable",
      "type": "constructor"
    },
    {
      "anonymous": false,
      "inputs": [
        {
          "indexed": true,
          "internalType": "address",
          "name": "counselor",
          "type": "address"
        },
        {
          "indexed": false,
          "internalType": "string",
          "name": "name",
          "type": "string"
        },
        {
          "indexed": false,
          "internalType": "string",
          "name": "specialization",
          "type": "string"
        }
      ],
      "name": "CounselorRegistered",
      "type": "event"
    },
    {
      "anonymous": false,
      "inputs": [
        {
          "indexed": true,
          "internalType": "address",
          "name": "counselor",
          "type": "address"
        },
        {
          "indexed": false,
          "internalType": "address",
          "name": "verifier",
          "type": "address"
        }
      ],
      "name": "CounselorVerified",
      "type": "event"
    },
    {
      "anonymous": false,
      "inputs": [
        {
          "indexed": true,
          "internalType": "uint256",
          "name": "sessionId",
          "type": "uint256"
        },
        {
          "indexed": false,
          "internalType": "address",
          "name": "counselor",
          "type": "address"
        },
        {
          "indexed": false,
          "internalType": "uint256",
          "name": "amount",
          "type": "uint256"
        }
      ],
      "name": "PaymentReleased",
      "type": "event"
    },
    {
      "anonymous": false,
      "inputs": [
        {
          "indexed": true,
          "internalType": "uint256",
          "name": "sessionId",
          "type": "uint256"
        },
        {
          "indexed": false,
          "internalType": "address",
          "name": "reviewer",
          "type": "address"
        },
        {
          "indexed": false,
          "internalType": "uint8",
          "name": "rating",
          "type": "uint8"
        }
      ],
      "name": "ReviewAdded",
      "type": "event"
    },
    {
      "anonymous": false,
      "inputs": [
        {
          "indexed": true,
          "internalType": "uint256",
          "name": "sessionId",
          "type": "uint256"
        },
        {
          "indexed": true,
          "internalType": "address",
          "name": "user",
          "type": "address"
        },
        {
          "indexed": true,
          "internalType": "address",
          "name": "counselor",
          "type": "address"
        },
        {
          "indexed": false,
          "internalType": "uint256",
          "name": "scheduledTime",
          "type": "uint256"
        },
        {
          "indexed": false,
          "internalType": "uint256",
          "name": "rate",
          "type": "uint256"
        }
      ],
      "name": "SessionBooked",
      "type": "event"
    },
    {
      "anonymous": false,
      "inputs": [
        {
          "indexed": true,
          "internalType": "uint256",
          "name": "sessionId",
          "type": "uint256"
        },
        {
          "indexed": false,
          "internalType": "string",
          "name": "reason",
          "type": "string"
        }
      ],
      "name": "SessionCancelled",
      "type": "event"
    },
    {
      "anonymous": false,
      "inputs": [
        {
          "indexed": true,
          "internalType": "uint256",
          "name": "sessionId",
          "type": "uint256"
        },
        {
          "indexed": false,
          "internalType": "uint256",
          "name": "timestamp",
          "type": "uint256"
        }
      ],
      "name": "SessionCompleted",
      "type": "event"
    },
    {
      "anonymous": false,
      "inputs": [
        {
          "indexed": true,
          "internalType": "uint256",
          "name": "sessionId",
          "type": "uint256"
        },
        {
          "indexed": false,
          "internalType": "address",
          "name": "counselor",
          "type": "address"
        }
      ],
      "name": "SessionConfirmed",
      "type": "event"
    },
    {
      "inputs": [
        {
          "internalType": "uint256",
          "name": "_sessionId",
          "type": "uint256"
        },
        {
          "internalType": "uint8",
          "name": "_rating",
          "type": "uint8"
        },
        {
          "internalType": "string",
          "name": "_comment",
          "type": "string"
        },
        {
          "internalType": "bool",
          "name": "_isAnonymous",
          "type": "bool"
        }
      ],
      "name": "addReview",
      "outputs": [],
      "stateMutability": "nonpayable",
      "type": "function"
    },
    {
      "inputs": [],
      "name": "admin",
      "outputs": [
        {
          "internalType": "address",
          "name": "",
          "type": "address"
        }
      ],
      "stateMutability": "view",
      "type": "function"
    },
    {
      "inputs": [
        {
          "internalType": "address",
          "name": "_counselor",
          "type": "address"
        },
        {
          "internalType": "string",
          "name": "_sessionType",
          "type": "string"
        }
      ],
      "name": "bookEmergencySession",
      "outputs": [],
      "stateMutability": "payable",
      "type": "function"
    },
    {
      "inputs": [
        {
          "internalType": "address",
          "name": "_counselor",
          "type": "address"
        },
        {
          "internalType": "uint256",
          "name": "_scheduledTime",
          "type": "uint256"
        },
        {
          "internalType": "uint256",
          "name": "_duration",
          "type": "uint256"
        },
        {
          "internalType": "string",
          "name": "_sessionType",
          "type": "string"
        }
      ],
      "name": "bookSession",
      "outputs": [],
      "stateMutability": "payable",
      "type": "function"
    },
    {
      "inputs": [
        {
          "internalType": "uint256",
          "name": "_sessionId",
          "type": "uint256"
        },
        {
          "internalType": "string",
          "name": "_reason",
          "type": "string"
        }
      ],
      "name": "cancelSession",
      "outputs": [],
      "stateMutability": "nonpayable",
      "type": "function"
    },
    {
      "inputs": [
        {
          "internalType": "uint256",
          "name": "_sessionId",
          "type": "uint256"
        },
        {
          "internalType": "string",
          "name": "_notes",
          "type": "string"
        }
      ],
      "name": "completeSession",
      "outputs": [],
      "stateMutability": "nonpayable",
      "type": "function"
    },
    {
      "inputs": [
        {
          "internalType": "uint256",
          "name": "_sessionId",
          "type": "uint256"
        }
      ],
      "name": "confirmSession",
      "outputs": [],
      "stateMutability": "nonpayable",
      "type": "function"
    },
    {
      "inputs": [],
      "name": "counselorCount",
      "outputs": [
        {
          "internalType": "uint256",
          "name": "",
          "type": "uint256"
        }
      ],
      "stateMutability": "view",
      "type": "function"
    },
    {
      "inputs": [
        {
          "internalType": "address",
          "name": "",
          "type": "address"
        },
        {
          "internalType": "uint256",
          "name": "",
          "type": "uint256"
        }
      ],
      "name": "counselorSessions",
      "outputs": [
        {
          "internalType": "uint256",
          "name": "",
          "type": "uint256"
        }
      ],
      "stateMutability": "view",
      "type": "function"
    },
    {
      "inputs": [
        {
          "internalType": "address",
          "name": "",
          "type": "address"
        }
      ],
      "name": "counselors",
      "outputs": [
        {
          "internalType": "address",
          "name": "wallet",
          "type": "address"
        },
        {
          "internalType": "string",
          "name": "name",
          "type": "string"
        },
        {
          "internalType": "string",
          "name": "specialization",
          "type": "string"
        },
        {
          "internalType": "string",
          "name": "credentials",
          "type": "string"
        },
        {
          "internalType": "string",
          "name": "bio",
          "type": "string"
        },
        {
          "internalType": "string",
          "name": "languages",
          "type": "string"
        },
        {
          "internalType": "bool",
          "name": "available",
          "type": "bool"
        },
        {
          "internalType": "bool",
          "name": "verified",
          "type": "bool"
        },
        {
          "internalType": "uint256",
          "name": "rate",
          "type": "uint256"
        },
        {
          "internalType": "uint256",
          "name": "sessionCount",
          "type": "uint256"
        },
        {
          "internalType": "uint256",
          "name": "rating",
          "type": "uint256"
        },
        {
          "internalType": "uint256",
          "name": "registrationDate",
          "type": "uint256"
        }
      ],
      "stateMutability": "view",
      "type": "function"
    },
    {
      "inputs": [],
      "name": "getAvailableCounselors",
      "outputs": [
        {
          "components": [
            {
              "internalType": "address",
              "name": "wallet",
              "type": "address"
            },
            {
              "internalType": "string",
              "name": "name",
              "type": "string"
            },
            {
              "internalType": "string",
              "name": "specialization",
              "type": "string"
            },
            {
              "internalType": "string",
              "name": "credentials",
              "type": "string"
            },
            {
              "internalType": "string",
              "name": "bio",
              "type": "string"
            },
            {
              "internalType": "string",
              "name": "languages",
              "type": "string"
            },
            {
              "internalType": "bool",
              "name": "available",
              "type": "bool"
            },
            {
              "internalType": "bool",
              "name": "verified",
              "type": "bool"
            },
            {
              "internalType": "uint256",
              "name": "rate",
              "type": "uint256"
            },
            {
              "internalType": "uint256",
              "name": "sessionCount",
              "type": "uint256"
            },
            {
              "internalType": "uint256",
              "name": "rating",
              "type": "uint256"
            },
            {
              "internalType": "uint256",
              "name": "registrationDate",
              "type": "uint256"
            },
            {
              "internalType": "string[]",
              "name": "availableSlots",
              "type": "string[]"
            }
          ],
          "internalType": "struct CounselorMarketplace.Counselor[]",
          "name": "",
          "type": "tuple[]"
        }
      ],
      "stateMutability": "view",
      "type": "function"
    },
    {
      "inputs": [
        {
          "internalType": "address",
          "name": "_counselor",
          "type": "address"
        }
      ],
      "name": "getCounselor",
      "outputs": [
        {
          "components": [
            {
              "internalType": "address",
              "name": "wallet",
              "type": "address"
            },
            {
              "internalType": "string",
              "name": "name",
              "type": "string"
            },
            {
              "internalType": "string",
              "name": "specialization",
              "type": "string"
            },
            {
              "internalType": "string",
              "name": "credentials",
              "type": "string"
            },
            {
              "internalType": "string",
              "name": "bio",
              "type": "string"
            },
            {
              "internalType": "string",
              "name": "languages",
              "type": "string"
            },
            {
              "internalType": "bool",
              "name": "available",
              "type": "bool"
            },
            {
              "internalType": "bool",
              "name": "verified",
              "type": "bool"
            },
            {
              "internalType": "uint256",
              "name": "rate",
              "type": "uint256"
            },
            {
              "internalType": "uint256",
              "name": "sessionCount",
              "type": "uint256"
            },
            {
              "internalType": "uint256",
              "name": "rating",
              "type": "uint256"
            },
            {
              "internalType": "uint256",
              "name": "registrationDate",
              "type": "uint256"
            },
            {
              "internalType": "string[]",
              "name": "availableSlots",
              "type": "string[]"
            }
          ],
          "internalType": "struct CounselorMarketplace.Counselor",
          "name": "",
          "type": "tuple"
        }
      ],
      "stateMutability": "view",
      "type": "function"
    },
    {
      "inputs": [
        {
          "internalType": "address",
          "name": "_counselor",
          "type": "address"
        }
      ],
      "name": "getCounselorSessions",
      "outputs": [
        {
          "internalType": "uint256[]",
          "name": "",
          "type": "uint256[]"
        }
      ],
      "stateMutability": "view",
      "type": "function"
    },
    {
      "inputs": [
        {
          "internalType": "string",
          "name": "_specialization",
          "type": "string"
        }
      ],
      "name": "getCounselorsBySpecialization",
      "outputs": [
        {
          "components": [
            {
              "internalType": "address",
              "name": "wallet",
              "type": "address"
            },
            {
              "internalType": "string",
              "name": "name",
              "type": "string"
            },
            {
              "internalType": "string",
              "name": "specialization",
              "type": "string"
            },
            {
              "internalType": "string",
              "name": "credentials",
              "type": "string"
            },
            {
              "internalType": "string",
              "name": "bio",
              "type": "string"
            },
            {
              "internalType": "string",
              "name": "languages",
              "type": "string"
            },
            {
              "internalType": "bool",
              "name": "available",
              "type": "bool"
            },
            {
              "internalType": "bool",
              "name": "verified",
              "type": "bool"
            },
            {
              "internalType": "uint256",
              "name": "rate",
              "type": "uint256"
            },
            {
              "internalType": "uint256",
              "name": "sessionCount",
              "type": "uint256"
            },
            {
              "internalType": "uint256",
              "name": "rating",
              "type": "uint256"
            },
            {
              "internalType": "uint256",
              "name": "registrationDate",
              "type": "uint256"
            },
            {
              "internalType": "string[]",
              "name": "availableSlots",
              "type": "string[]"
            }
          ],
          "internalType": "struct CounselorMarketplace.Counselor[]",
          "name": "",
          "type": "tuple[]"
        }
      ],
      "stateMutability": "view",
      "type": "function"
    },
    {
      "inputs": [
        {
          "internalType": "uint256",
          "name": "_sessionId",
          "type": "uint256"
        }
      ],
      "name": "getSession",
      "outputs": [
        {
          "components": [
            {
              "internalType": "uint256",
              "name": "id",
              "type": "uint256"
            },
            {
              "internalType": "address",
              "name": "user",
              "type": "address"
            },
            {
              "internalType": "address",
              "name": "counselor",
              "type": "address"
            },
            {
              "internalType": "uint256",
              "name": "scheduledTime",
              "type": "uint256"
            },
            {
              "internalType": "uint256",
              "name": "duration",
              "type": "uint256"
            },
            {
              "internalType": "uint256",
              "name": "rate",
              "type": "uint256"
            },
            {
              "internalType": "string",
              "name": "sessionType",
              "type": "string"
            },
            {
              "internalType": "string",
              "name": "status",
              "type": "string"
            },
            {
              "internalType": "bool",
              "name": "paid",
              "type": "bool"
            },
            {
              "internalType": "string",
              "name": "notes",
              "type": "string"
            },
            {
              "internalType": "uint256",
              "name": "createdAt",
              "type": "uint256"
            }
          ],
          "internalType": "struct CounselorMarketplace.Session",
          "name": "",
          "type": "tuple"
        }
      ],
      "stateMutability": "view",
      "type": "function"
    },
    {
      "inputs": [
        {
          "internalType": "uint256",
          "name": "_sessionId",
          "type": "uint256"
        }
      ],
      "name": "getSessionReviews",
      "outputs": [
        {
          "components": [
            {
              "internalType": "uint256",
              "name": "sessionId",
              "type": "uint256"
            },
            {
              "internalType": "address",
              "name": "reviewer",
              "type": "address"
            },
            {
              "internalType": "address",
              "name": "counselor",
              "type": "address"
            },
            {
              "internalType": "uint8",
              "name": "rating",
              "type": "uint8"
            },
            {
              "internalType": "string",
              "name": "comment",
              "type": "string"
            },
            {
              "internalType": "uint256",
              "name": "timestamp",
              "type": "uint256"
            },
            {
              "internalType": "bool",
              "name": "isAnonymous",
              "type": "bool"
            }
          ],
          "internalType": "struct CounselorMarketplace.Review[]",
          "name": "",
          "type": "tuple[]"
        }
      ],
      "stateMutability": "view",
      "type": "function"
    },
    {
      "inputs": [
        {
          "internalType": "address",
          "name": "_user",
          "type": "address"
        }
      ],
      "name": "getUserSessions",
      "outputs": [
        {
          "internalType": "uint256[]",
          "name": "",
          "type": "uint256[]"
        }
      ],
      "stateMutability": "view",
      "type": "function"
    },
    {
      "inputs": [],
      "name": "platformFee",
      "outputs": [
        {
          "internalType": "uint256",
          "name": "",
          "type": "uint256"
        }
      ],
      "stateMutability": "view",
      "type": "function"
    },
    {
      "inputs": [
        {
          "internalType": "string",
          "name": "_name",
          "type": "string"
        },
        {
          "internalType": "string",
          "name": "_specialization",
          "type": "string"
        },
        {
          "internalType": "string",
          "name": "_credentials",
          "type": "string"
        },
        {
          "internalType": "string",
          "name": "_bio",
          "type": "string"
        },
        {
          "internalType": "string",
          "name": "_languages",
          "type": "string"
        },
        {
          "internalType": "uint256",
          "name": "_rate",
          "type": "uint256"
        }
      ],
      "name": "registerCounselor",
      "outputs": [],
      "stateMutability": "nonpayable",
      "type": "function"
    },
    {
      "inputs": [],
      "name": "sessionCount",
      "outputs": [
        {
          "internalType": "uint256",
          "name": "",
          "type": "uint256"
        }
      ],
      "stateMutability": "view",
      "type": "function"
    },
    {
      "inputs": [
        {
          "internalType": "uint256",
          "name": "",
          "type": "uint256"
        },
        {
          "internalType": "uint256",
          "name": "",
          "type": "uint256"
        }
      ],
      "name": "sessionReviews",
      "outputs": [
        {
          "internalType": "uint256",
          "name": "sessionId",
          "type": "uint256"
        },
        {
          "internalType": "address",
          "name": "reviewer",
          "type": "address"
        },
        {
          "internalType": "address",
          "name": "counselor",
          "type": "address"
        },
        {
          "internalType": "uint8",
          "name": "rating",
          "type": "uint8"
        },
        {
          "internalType": "string",
          "name": "comment",
          "type": "string"
        },
        {
          "internalType": "uint256",
          "name": "timestamp",
          "type": "uint256"
        },
        {
          "internalType": "bool",
          "name": "isAnonymous",
          "type": "bool"
        }
      ],
      "stateMutability": "view",
      "type": "function"
    },
    {
      "inputs": [
        {
          "internalType": "uint256",
          "name": "",
          "type": "uint256"
        }
      ],
      "name": "sessions",
      "outputs": [
        {
          "internalType": "uint256",
          "name": "id",
          "type": "uint256"
        },
        {
          "internalType": "address",
          "name": "user",
          "type": "address"
        },
        {
          "internalType": "address",
          "name": "counselor",
          "type": "address"
        },
        {
          "internalType": "uint256",
          "name": "scheduledTime",
          "type": "uint256"
        },
        {
          "internalType": "uint256",
          "name": "duration",
          "type": "uint256"
        },
        {
          "internalType": "uint256",
          "name": "rate",
          "type": "uint256"
        },
        {
          "internalType": "string",
          "name": "sessionType",
          "type": "string"
        },
        {
          "internalType": "string",
          "name": "status",
          "type": "string"
        },
        {
          "internalType": "bool",
          "name": "paid",
          "type": "bool"
        },
        {
          "internalType": "string",
          "name": "notes",
          "type": "string"
        },
        {
          "internalType": "uint256",
          "name": "createdAt",
          "type": "uint256"
        }
      ],
      "stateMutability": "view",
      "type": "function"
    },
    {
      "inputs": [
        {
          "internalType": "bool",
          "name": "_available",
          "type": "bool"
        }
      ],
      "name": "setCounselorAvailability",
      "outputs": [],
      "stateMutability": "nonpayable",
      "type": "function"
    },
    {
      "inputs": [
        {
          "internalType": "uint256",
          "name": "_fee",
          "type": "uint256"
        }
      ],
      "name": "setPlatformFee",
      "outputs": [],
      "stateMutability": "nonpayable",
      "type": "function"
    },
    {
      "inputs": [],
      "name": "totalReviews",
      "outputs": [
        {
          "internalType": "uint256",
          "name": "",
          "type": "uint256"
        }
      ],
      "stateMutability": "view",
      "type": "function"
    },
    {
      "inputs": [
        {
          "internalType": "uint256",
          "name": "_newRate",
          "type": "uint256"
        }
      ],
      "name": "updateCounselorRate",
      "outputs": [],
      "stateMutability": "nonpayable",
      "type": "function"
    },
    {
      "inputs": [
        {
          "internalType": "address",
          "name": "",
          "type": "address"
        },
        {
          "internalType": "uint256",
          "name": "",
          "type": "uint256"
        }
      ],
      "name": "userSessions",
      "outputs": [
        {
          "internalType": "uint256",
          "name": "",
          "type": "uint256"
        }
      ],
      "stateMutability": "view",
      "type": "function"
    },
    {
      "inputs": [
        {
          "internalType": "address",
          "name": "",
          "type": "address"
        }
      ],
      "name": "verifiedCounselors",
      "outputs": [
        {
          "internalType": "bool",
          "name": "",
          "type": "bool"
        }
      ],
      "stateMutability": "view",
      "type": "function"
    },
    {
      "inputs": [
        {
          "internalType": "address",
          "name": "_counselor",
          "type": "address"
        }
      ],
      "name": "verifyCounselor",
      "outputs": [],
      "stateMutability": "nonpayable",
      "type": "function"
    },
    {
      "inputs": [],
      "name": "withdrawPlatformFees",
      "outputs": [],
      "stateMutability": "nonpayable",
      "type": "function"
    }
  ],
  "bytecode": "0x6080806040523461002d576005600a55600980546001600160a01b0319163317905561385890816100338239f35b600080fdfe6080604052600436101561001257600080fd5b60003560e01c806312e8e2c314612f9c5780631836ff2d146126f85780631a594a71146126da5780631dfc3d7d14612557578063223715dd146124df57806326232a2e146124c1578063402ff0db1461229e5780634ac6bb7f1461225f5780634de53265146121385780635b74f6b514611e7757806362c97faf14611e4c5780636d0ba46914611ac95780636d597d1314611a7157806373cd833614611a5357806383c4b7a31461196857806391be085d1461181d578063a0db18fe14611389578063a17faaa31461134a578063a83fcca0146112c6578063b49dc3761461111c578063b9e96d161461106b578063c05c3ed514611012578063caef323e14610e8b578063d0b7830b14610e44578063d69403bf14610dee578063e236789014610dd0578063e715b77214610826578063eb437527146101f9578063f851a440146101d05763f984deed1461016657600080fd5b346101cb5760203660031901126101cb5760043580151581036101cb576101c9903360005260006020526101a760ff60066040600020015460081c166135eb565b33600052600060205260066040600020019060ff801983541691151516179055565b005b600080fd5b346101cb5760003660031901126101cb576009546040516001600160a01b039091168152602090f35b60803660031901126101cb5761020d613117565b6064356001600160401b0381116101cb5761022c9036906004016130c1565b60018060a01b038216600052600060205261025460ff60066040600020015460081c166135eb565b60018060a01b038216600052600060205261027960ff60066040600020015416613630565b4260243511156107d557601e6044351015806107c8575b156107745760018060a01b038216600052600060205260076040600020015490813410610738576102c2600654613585565b80600655604051916102d383613033565b8183523360208401526001600160a01b03851660408401526024356060840152604435608084015260a0830184905260c083015261030f61367c565b60e083015260016101008301526040516103288161306a565b60008152610120830152426101408301526000526001602052604060002090805182556001820160018060a01b03602083015116906001600160601b0360a01b9182825416179055600283019060018060a01b0360408401511690825416179055606081015160038301556080810151600483015560a0810151600583015560c08101518051906001600160401b0382116106285781906103d9826103d0600688015461332f565b6006880161352d565b602090601f83116001146106c6576000926106bb575b50508160011b916000199060031b1c19161760068301555b60e08101518051906001600160401b03821161062857819061043982610430600788015461332f565b6007880161352d565b602090601f83116001146106495760009261063e575b50508160011b916000199060031b1c19161760078301555b6104876101008201511515600884019060ff801983541691151516179055565b600982016101208201518051906001600160401b038211610628576104b6826104b0855461332f565b8561352d565b602090601f83116001146105b95791806101409492600a96946000926105ae575b50508160011b916000199060031b1c19161790555b015191015533600052600260205261050b60406000206006549061369e565b6001600160a01b038216600090815260036020526040902060065461052f9161369e565b80341161057a575b60065491604051916024358352602083015260018060a01b0316917fb08c45c478a68deaa6d8ad438bf46dbcad03fc965a3e2fb4aa234cff279bee3660403393a4005b600080808061058985346136d3565b8181156105a5575b3390f1610537575b6040513d6000823e3d90fd5b506108fc610591565b0151905089806104d7565b90601f198316918460005260206000209260005b8181106106105750926001928592600a98966101409896106105f7575b505050811b0190556104ec565b015160001960f88460031b161c191690558980806105ea565b929360206001819287860151815501950193016105cd565b634e487b7160e01b600052604160045260246000fd5b01519050868061044f565b9250600785016000526020600020906000935b601f19841685106106a0576001945083601f19811610610687575b505050811b016007830155610467565b015160001960f88460031b161c19169055868080610677565b8181015183556020948501946001909301929091019061065c565b0151905086806103ef565b9250600685016000526020600020906000935b601f198416851061071d576001945083601f19811610610704575b505050811b016006830155610407565b015160001960f88460031b161c191690558680806106f4565b818101518355602094850194600190930192909101906106d9565b60405162461bcd60e51b8152602060048201526014602482015273125b9cdd59999a58da595b9d081c185e5b595b9d60621b6044820152606490fd5b60405162461bcd60e51b815260206004820152602660248201527f53657373696f6e206d757374206265206265747765656e2033302d313230206d604482015265696e7574657360d01b6064820152608490fd5b5060786044351115610290565b60405162461bcd60e51b815260206004820152602360248201527f43616e6e6f74207363686564756c652073657373696f6e20696e207468652070604482015262185cdd60ea1b6064820152608490fd5b60403660031901126101cb5761083a613117565b6024356001600160401b0381116101cb576108599036906004016130c1565b60018060a01b038216600052600060205261088160ff60066040600020015460081c166135eb565b60018060a01b03821660005260006020526108a660ff60066040600020015416613630565b60018060a01b0382166000526000602052600760406000200154603281029080820460321481151715610d625760646108e0920490613763565b90813410610d78576108f3600654613585565b8060065561012c42014211610d62576040519161090f83613033565b8183523360208401526001600160a01b03851660408401524261012c016060840152603c608084015260a0830184905260c083015261094c61367c565b60e0830152600161010083015260405161096581613085565b601181527022a6a2a923a2a721ac9029a2a9a9a4a7a760791b6020820152610120830152426101408301526000526001602052604060002090805182556001820160018060a01b03602083015116906001600160601b0360a01b9182825416179055600283019060018060a01b0360408401511690825416179055606081015160038301556080810151600483015560a0810151600583015560c08101518051906001600160401b038211610628578190610a27826103d0600688015461332f565b602090601f8311600114610cf057600092610ce5575b50508160011b916000199060031b1c19161760068301555b60e08101518051906001600160401b038211610628578190610a7e82610430600788015461332f565b602090601f8311600114610c7357600092610c68575b50508160011b916000199060031b1c19161760078301555b610acc6101008201511515600884019060ff801983541691151516179055565b600982016101208201518051906001600160401b03821161062857610af5826104b0855461332f565b602090601f8311600114610bf95791806101409492600a9694600092610bee575b50508160011b916000199060031b1c19161790555b0151910155336000526002602052610b4a60406000206006549061369e565b6001600160a01b0382166000908152600360205260409020600654610b6e9161369e565b803411610bbb575b600654916040519161012c42018352602083015260018060a01b0316917fb08c45c478a68deaa6d8ad438bf46dbcad03fc965a3e2fb4aa234cff279bee3660403393a4005b6000808080610bca85346136d3565b818115610be5575b3390f1610b76576040513d6000823e3d90fd5b506108fc610bd2565b015190508980610b16565b90601f198316918460005260206000209260005b818110610c505750926001928592600a9896610140989610610c37575b505050811b019055610b2b565b015160001960f88460031b161c19169055898080610c2a565b92936020600181928786015181550195019301610c0d565b015190508680610a94565b9250600785016000526020600020906000935b601f1984168510610cca576001945083601f19811610610cb1575b505050811b016007830155610aac565b015160001960f88460031b161c19169055868080610ca1565b81810151835560209485019460019093019290910190610c86565b015190508680610a3d565b9250600685016000526020600020906000935b601f1984168510610d47576001945083601f19811610610d2e575b505050811b016006830155610a55565b015160001960f88460031b161c19169055868080610d1e565b81810151835560209485019460019093019290910190610d03565b634e487b7160e01b600052601160045260246000fd5b60405162461bcd60e51b815260206004820152602a60248201527f496e73756666696369656e74207061796d656e7420666f7220656d657267656e60448201526931bc9039b2b9b9b4b7b760b11b6064820152608490fd5b346101cb5760003660031901126101cb576020600854604051908152f35b346101cb5760203660031901126101cb57600435336000526000602052610e2260ff60066040600020015460081c166135eb565b610e2d81151561348b565b336000526000602052600760406000200155600080f35b346101cb5760003660031901126101cb57600080808060018060a01b0360095416610e70813314613594565b4790828215610e82575bf11561059957005b506108fc610e7a565b346101cb576020806003193601126101cb5760043560005260048152604060002090815491610eb9836134d7565b92610ec760405194856130a0565b8084528284018092600052836000206000915b838310610f955750505050604051918083019381845251809452604083019360408160051b85010192916000955b828710610f155785850386f35b909192938280600192603f1989820301855287519081518152848060a01b03808484015116848301526040830151166040820152606060ff818401511690820152610f6f608060e0818501519184015260e0830190613168565b9160a0808201519083015260c08091015115159101529601920196019592919092610f08565b600686600192604099989951610faa8161304f565b85548152848060a01b03808688015416848301526002870154908116604083015260ff908160a091821c166060840152610fe660038901613369565b6080840152600488015490830152600587015416151560c0820152815201920192019190959495610eda565b346101cb5760403660031901126101cb5761102b613117565b6001600160a01b03166000908152600360205260409020805460243591908210156101cb5760209161105c91613441565b90549060031b1c604051908152f35b346101cb5760403660031901126101cb57602435600435600052600460205260406000209081548110156101cb576110a29161346f565b508054600182015460028301546001600160a01b0391821693919061110b9060ff6110cf60038601613369565b9181600560048801549701541694604051988998895260208901528116604088015260a01c16606086015260e0608086015260e0850190613168565b9160a0840152151560c08301520390f35b346101cb576020806003193601126101cb57611136613117565b9061113f613770565b506001600160a01b039182166000818152808352604090205483161561128b576000526000815260406000206040519261117884613017565b8154168352600b60019161118d838201613369565b8486015261119d60028201613369565b60408601526111ae60038201613369565b60608601526111bf60048201613369565b60808601526111d060058201613369565b60a086015260ff6006820154818116151560c088015260081c16151560e0860152600781015461010086015260088101546101208601526009810154610140860152600a8101546101608601520190815461122a816134d7565b9261123860405194856130a0565b8184526000908152848120858086015b84841061126e5761018089018790526040518281528061126a8185018c6131a8565b0390f35b8591829161127b85613369565b8152019201920191908690611248565b60405162461bcd60e51b815260048101839052601360248201527210dbdd5b9cd95b1bdc881b9bdd08199bdd5b99606a1b6044820152606490fd5b346101cb576020806003193601126101cb576001600160a01b036112e8613117565b1660005260038152604060002090604051908181845491828152019360005281600020916000905b8282106113335761126a85611327818903826130a0565b6040519182918261312d565b835486529485019460019384019390910190611310565b346101cb5760203660031901126101cb576001600160a01b0361136b613117565b166000526005602052602060ff604060002054166040519015158152f35b346101cb5760803660031901126101cb576004356024803560ff81168091036101cb576001600160401b03916044358381116101cb576113cd9036906004016130c1565b92606435938415158095036101cb578560005260019060209582875260018060a01b03938484604060002001541633036117d9578860005283885260076040600020019260405193846114238b820180936136e0565b0394611437601f19968781018352826130a0565b5190206040518a8101906818dbdb5c1b195d195960ba1b82526009815261145d81613085565b5190200361179557848810158061178a575b15611746578960005260048952604060002091858a528660026040600020015416946040519561149e8761304f565b8c87528b87013381526040880191825260608801908c82526080890195865260a089019642885260c08a01988952805490600160401b82101561173157906114ea918c8201815561346f565b99909961171c575189558a8a8a019151166001600160601b0360a01b825416179055896002890192511682549160ff60a01b905160a01b16916affffffffffffffffffffff60a81b161717905560038601925180519283116117075761155a83611554865461332f565b8661352d565b8b91601f8411600114611696575091806115ad979694926005969460009261168b575b5050600019600383901b1c191690881b1790555b51600484015551151591019060ff801983541691151516179055565b85600052845260026040600020015416908160005260008452604060002091600860098401549301549260001984019084821161167657906115ee91613572565b606485029060ff8216918203611676579061160891613763565b918315611662575091604093917fcd105d6c08f27f681ab198bd63b5f4b32ce4977facd0909acb589cf2c8266872959360005260008452046009846000200155611653600854613585565b600855825191338352820152a2005b634e487b7160e01b60009081526012600452fd5b83634e487b7160e01b60005260116004526000fd5b015190508e8061157d565b918c9184938a95168660005283600020936000905b8282106116f057505091600597959391856115ad9b9a989694106116d7575b505050811b019055611591565b015160001960f88460031b161c191690558e80806116ca565b8385015186558c979095019493840193018f6116ab565b89634e487b7160e01b60005260416004526000fd5b8c634e487b7160e01b60005260006004526000fd5b8d634e487b7160e01b60005260416004526000fd5b60405162461bcd60e51b8152600481018a9052601e818901527f526174696e67206d757374206265206265747765656e203120616e64203500006044820152606490fd5b50600588111561146f565b60405162461bcd60e51b8152600481018a90526019818901527f53657373696f6e206d75737420626520636f6d706c65746564000000000000006044820152606490fd5b60405162461bcd60e51b815260048101899052601c818801527f4f6e6c792073657373696f6e20757365722063616e20726576696577000000006044820152606490fd5b346101cb576020806003193601126101cb57611837613117565b6009546001600160a01b03929183916118539083163314613594565b16918260005260008252604060002054161561192457816000526000815260ff60066040600020015460081c166118e0577f07697823945f2c2810f8a2dc78f57ddbd01dc7e0933149c6c34595e7076d3499908260005260008152600660406000200161010161ffff19825416179055600581526040600020600160ff19825416179055604051338152a2005b6064906040519062461bcd60e51b82526004820152601a60248201527f436f756e73656c6f7220616c72656164792076657269666965640000000000006044820152fd5b6064906040519062461bcd60e51b82526004820152601860248201527f436f756e73656c6f72206e6f74207265676973746572656400000000000000006044820152fd5b346101cb5760203660031901126101cb57600435600052600160205260206040600020805490611a4860018060a01b0391826001820154169260028201541690611a316003820154611a23600484015460058501546119c960068701613369565b916119d660078801613369565b9460ff60088901541698600a6119ee60098b01613369565b9901549b6040519e8f9e8f908152015260408d015260608c015260808b015260a08a01526101608060c08b0152890190613168565b9087820360e0890152613168565b911515610100860152848203610120860152613168565b906101408301520390f35b346101cb5760003660031901126101cb576020600654604051908152f35b346101cb5760403660031901126101cb57611a8a613117565b6001600160a01b03166000908152600260205260409020805460243591908210156101cb57602091611abb91613441565b90546040519160031b1c8152f35b346101cb57611ad73661340f565b9080600052600160209080825260018060a01b039081600260406000200154163303611dfb578360005280835260076040600020016040519081611b1e86820180936136e0565b0391611b32601f19938481018352826130a0565b519020604051858101906818dbdb999a5c9b595960ba1b825260098152611b5881613085565b519020148015611d9f575b15611d5c57846000528184526007604060002001611b8a611b84825461332f565b82613505565b60126818dbdb5c1b195d195960ba1b019055846000528184526009604060002001908651906001600160401b03821161062857611bcb826104b0855461332f565b8590601f8311600114611cfa575081929394959697600092611cef575b5050600019600383901b1c191690831b1790555b33600052600083526008604060002001611c168154613585565b9055836000528083526064611c36600560406000200154600a5490613572565b0490846000528352611c50816005604060002001546136d3565b918260008115611ce6575b600080809381933390f115610599576000808093819360095416828215611cdd575bf1156105995781604091847f6776ea978f7e87d1c8bd522e53b1fa7f25bcc9d8442128f78674cb15c33c16947f21d71db5be59bb9fa133895586b7404307dd33fb93b16db09dc6f1d9d7d231b0958551428152a2825191338352820152a2005b506108fc611c7d565b506108fc611c5b565b015190508780611be8565b82169083600052866000209160005b818110611d4757509883869798999a96959610611d2e575b505050811b019055611bfc565b015160001960f88460031b161c19169055878080611d21565b8a830151845592860192918801918801611d09565b6064846040519062461bcd60e51b825280600483015260248201527f53657373696f6e206e6f7420696e20636f6d706c657461626c652073746174656044820152fd5b50846000528184526007604060002001604051611dcf81611dc388820180956136e0565b038481018352826130a0565b5190206040518581019065189bdbdad95960d21b825260068152611df281613085565b51902014611b63565b60405162461bcd60e51b8152600481018490526024808201527f4f6e6c792061737369676e656420636f756e73656c6f722063616e20636f6d706044820152636c65746560e01b6064820152608490fd5b346101cb5760003660031901126101cb5761126a611e6b6007546137d2565b604051918291826132cd565b346101cb57611e853661340f565b81600052600190602091808352604060002060018060a01b03908183820154163314908115612128575b50156120c9578460005281845260076040600020016040519081611ed687820180936136e0565b0391611eea601f19938481018352826130a0565b519020604051868101906818dbdb5c1b195d195960ba1b825260098152611f1081613085565b51902014159081612065575b501561200357846000528184526007604060002001611f3e611b84825461332f565b60126818d85b98d95b1b195960ba1b0190556000858152828552604090206008015460ff1680611fdf575b611fab575b50507f3d1c65d628d0156fd2f1e007e32ca1d33ab28590d744fd5581e6b9c8f85f187591611fa6604051928284938452830190613168565b0390a2005b60008080936005829460408420928301541691015490828215611fd6575bf115610599578380611f6e565b506108fc611fc9565b50620151804201804211610d62578560005282855260036040600020015411611f69565b60405162461bcd60e51b815260048101859052603460248201527f43616e6e6f742063616e63656c20636f6d706c65746564206f7220616c726561604482015273323c9031b0b731b2b63632b21039b2b9b9b4b7b760611b6064820152608490fd5b905085600052828552600760406000200190612098604051918261208c89820180966136e0565b039081018352826130a0565b519020604051858101906818d85b98d95b1b195960ba1b8252600981526120be81613085565b519020141586611f1c565b60405162461bcd60e51b815260048101859052603160248201527f4f6e6c792073657373696f6e207061727469636970616e74732063616e207065604482015270393337b936903a3434b99030b1ba34b7b760791b6064820152608490fd5b6002015482163314905086611eaf565b346101cb5760203660031901126101cb576001600160a01b038061215a613117565b1660005260006020526040600020908154166001820161217990613369565b9161218660028201613369565b61219260038301613369565b9161219f60048201613369565b926121ac60058301613369565b93600683015494600784015491600885015493600986015495600a0154966040519a8b9a8b526101808060208d01528b016121e691613168565b8a810360408c01526121f791613168565b89810360608b015261220891613168565b88810360808a015261221991613168565b87810360a089015261222a91613168565b9460ff8116151560c088015260081c60ff16151560e08701526101008601526101208501526101408401526101608301520390f35b346101cb5760203660031901126101cb576004356001600160401b0381116101cb5761228f9036906004016130c1565b5061126a611e6b6007546137d2565b346101cb5760203660031901126101cb5760043560006101406040516122c381613033565b8281528260208201528260408201528260608201528260808201528260a0820152606060c0820152606060e08201528261010082015260606101208201520152801515806124b5575b1561247b5760005260016020526040600020600a6040519161232d83613033565b8054835260018101546001600160a01b03908116602085015260028201541660408401526003810154606084015260048101546080840152600581015460a084015261237b60068201613369565b60c084015261238c60078201613369565b60e084015260ff60088201541615156101008401526123ad60098201613369565b61012084015201546101408201526040518091602082528051602083015260018060a01b03602082015116604083015260018060a01b03604082015116606083015260608101516080830152608081015160a083015260a081015160c083015260c0810151610140612470612430610160938460e0880152610180870190613168565b61244d60e086015191601f199283898303016101008a0152613168565b906101008601511515610120880152610120860151908783030184880152613168565b920151908301520390f35b60405162461bcd60e51b8152602060048201526012602482015271125b9d985b1a59081cd95cdcda5bdb88125160721b6044820152606490fd5b5060065481111561230c565b346101cb5760003660031901126101cb576020600a54604051908152f35b346101cb576020806003193601126101cb576001600160a01b03612501613117565b1660005260028152604060002090604051908181845491828152019360005281600020916000905b8282106125405761126a85611327818903826130a0565b835486529485019460019384019390910190612529565b346101cb576020806003193601126101cb5760043560008181526001835260409020600201549091906001600160a01b0316330361268a57816000526001815260076040600020016040516125c1816125b385820180956136e0565b03601f1981018352826130a0565b5190206040518281019065189bdbdad95960d21b8252600681526125e481613085565b51902003612646577fa4944d7cf018563cd9377173e2ab9172f4f416b92e0ccbe446d9367b8012bace908260005260018152600760406000200161262b611b84825461332f565b60126818dbdb999a5c9b595960ba1b019055604051338152a2005b6064906040519062461bcd60e51b82526004820152601d60248201527f53657373696f6e206e6f7420696e20626f6f6b61626c652073746174650000006044820152fd5b6084906040519062461bcd60e51b82526004820152602360248201527f4f6e6c792061737369676e656420636f756e73656c6f722063616e20636f6e6660448201526269726d60e81b6064820152fd5b346101cb5760003660031901126101cb576020600754604051908152f35b346101cb5760c03660031901126101cb576004356001600160401b0381116101cb576127289036906004016130c1565b6024356001600160401b0381116101cb576127479036906004016130c1565b906044356001600160401b0381116101cb576127679036906004016130c1565b6064356001600160401b0381116101cb576127869036906004016130c1565b6084356001600160401b0381116101cb576127a59036906004016130c1565b9160a43592845115612f605733600052600060205260018060a01b03938460406000205416612f1b576127d981151561348b565b604051916127e68361306a565b60008352604051946127f786613017565b33865260208601948886528960408801526060870152608086015260a0850152600060c0850152600060e085015261010084015260006101208401526101f4610140840152426101608401526101808301523360005260006020526040600020928251166001600160601b0360a01b845416178355518051906001600160401b03821161062857819061289a82612891600188015461332f565b6001880161352d565b602090601f8311600114612ea957600092612e9e575b50508160011b916000199060031b1c19161760018301555b60408101518051906001600160401b0382116106285781906128fa826128f1600288015461332f565b6002880161352d565b602090601f8311600114612e2c57600092612e21575b50508160011b916000199060031b1c19161760028301555b60608101518051906001600160401b03821161062857819061295a82612951600388015461332f565b6003880161352d565b602090601f8311600114612daf57600092612da4575b50508160011b916000199060031b1c19161760038301555b60808101518051906001600160401b0382116106285781906129ba826129b1600488015461332f565b6004880161352d565b602090601f8311600114612d3257600092612d27575b50508160011b916000199060031b1c19161760048301555b60a08101518051906001600160401b03821161062857612a1882612a0f600587015461332f565b6005870161352d565b602090601f8311600114612cb35761018093929160009183612ca8575b50508160011b916000199060031b1c19161760058401555b60068301612a6d60c08301511515829060ff801983541691151516179055565b60e0820151151561ff0082549160081b169061ff001916179055610100810151600784015561012081015160088401556101408101516009840155610160810151600a8401550151805190600160401b821161062857600b83015482600b850155808310612c30575b506020600b910192016000526020600020916000905b828210612b4d57857fbd6bb8ef53d90d46bf40793175a36a9cd6319ad59d50a778f0a276b431d0e875612b3e87612b24600754613585565b600755611fa6604051928392604084526040840190613168565b82810360208401523395613168565b80518051906001600160401b03821161062857612b7482612b6e885461332f565b8861352d565b602090601f8311600114612bc0579282600194936020938695600092612bb5575b5050600019600383901b1c191690841b1787555b01940191019092612aec565b015190508b80612b95565b908660005260206000209160005b601f1985168110612c18575083602093600196938796938794601f19811610612bff575b505050811b018755612ba9565b015160001960f88460031b161c191690558b8080612bf2565b91926020600181928685015181550194019201612bce565b600b84016000526020600020908382015b8183018110612c51575050612ad6565b80612c5e6001925461332f565b80612c6b575b5001612c41565b601f81118314612c815750600081555b89612c64565b600090828252612c9f601f60208420920160051c82018583016134ee565b81835555612c7b565b015190508780612a35565b906005850160005260206000209160005b601f1985168110612d0f57509183916001936101809695601f19811610612cf6575b505050811b016005840155612a4d565b015160001960f88460031b161c19169055878080612ce6565b91926020600181928685015181550194019201612cc4565b0151905086806129d0565b9250600485016000526020600020906000935b601f1984168510612d89576001945083601f19811610612d70575b505050811b0160048301556129e8565b015160001960f88460031b161c19169055868080612d60565b81810151835560209485019460019093019290910190612d45565b015190508680612970565b9250600385016000526020600020906000935b601f1984168510612e06576001945083601f19811610612ded575b505050811b016003830155612988565b015160001960f88460031b161c19169055868080612ddd565b81810151835560209485019460019093019290910190612dc2565b015190508680612910565b9250600285016000526020600020906000935b601f1984168510612e83576001945083601f19811610612e6a575b505050811b016002830155612928565b015160001960f88460031b161c19169055868080612e5a565b81810151835560209485019460019093019290910190612e3f565b0151905086806128b0565b9250600185016000526020600020906000935b601f1984168510612f00576001945083601f19811610612ee7575b505050811b0160018301556128c8565b015160001960f88460031b161c19169055868080612ed7565b81810151835560209485019460019093019290910190612ebc565b60405162461bcd60e51b815260206004820152601c60248201527f436f756e73656c6f7220616c72656164792072656769737465726564000000006044820152606490fd5b60405162461bcd60e51b81526020600482015260146024820152734e616d652063616e6e6f7420626520656d70747960601b6044820152606490fd5b346101cb5760203660031901126101cb57600435612fc560018060a01b03600954163314613594565b60148111612fd257600a55005b60405162461bcd60e51b815260206004820152601e60248201527f506c6174666f726d206665652063616e6e6f74206578636565642032302500006044820152606490fd5b6101a081019081106001600160401b0382111761062857604052565b61016081019081106001600160401b0382111761062857604052565b60e081019081106001600160401b0382111761062857604052565b602081019081106001600160401b0382111761062857604052565b604081019081106001600160401b0382111761062857604052565b90601f801991011681019081106001600160401b0382111761062857604052565b81601f820112156101cb578035906001600160401b03821161062857604051926130f5601f8401601f1916602001856130a0565b828452602083830101116101cb57816000926020809301838601378301015290565b600435906001600160a01b03821682036101cb57565b6020908160408183019282815285518094520193019160005b828110613154575050505090565b835185529381019392810192600101613146565b919082519283825260005b848110613194575050826000602080949584010152601f8019910116010190565b602081830181015184830182015201613173565b9060018060a01b03825116815260206132226132106131fe6131ec6131da858801516101a080888a0152880190613168565b60408801518782036040890152613168565b60608701518682036060880152613168565b60808601518582036080870152613168565b60a085015184820360a0860152613168565b9160c0840151151560c082015260e0840151151560e0820152610100808501519082015261012080850151908201526101408085015190820152610160808501519082015261018080940151938184039101528251908183528083019281808460051b8301019501936000915b84831061329f5750505050505090565b90919293949584806132bd600193601f198682030187528a51613168565b980193019301919493929061328f565b602080820190808352835180925260408301928160408460051b8301019501936000915b8483106133015750505050505090565b909192939495848061331f600193603f198682030187528a516131a8565b98019301930191949392906132f1565b90600182811c9216801561335f575b602083101461334957565b634e487b7160e01b600052602260045260246000fd5b91607f169161333e565b906040519182600082549261337d8461332f565b9081845260019485811690816000146133ec57506001146133a9575b50506133a7925003836130a0565b565b9093915060005260209081600020936000915b8183106133d45750506133a793508201013880613399565b855488840185015294850194879450918301916133bc565b9150506133a794506020925060ff191682840152151560051b8201013880613399565b9060406003198301126101cb5760043591602435906001600160401b0382116101cb5761343e916004016130c1565b90565b80548210156134595760005260206000200190600090565b634e487b7160e01b600052603260045260246000fd5b8054821015613459576000526006602060002091020190600090565b1561349257565b60405162461bcd60e51b815260206004820152601b60248201527f52617465206d7573742062652067726561746572207468616e203000000000006044820152606490fd5b6001600160401b0381116106285760051b60200190565b8181106134f9575050565b600081556001016134ee565b90601f8111613512575050565b6133a791600052601f6020600020910160051c8101906134ee565b9190601f811161353c57505050565b6133a7926000526020600020906020601f840160051c83019310613568575b601f0160051c01906134ee565b909150819061355b565b81810292918115918404141715610d6257565b6000198114610d625760010190565b1561359b57565b60405162461bcd60e51b815260206004820152602260248201527f4f6e6c792061646d696e2063616e20706572666f726d2074686973206163746960448201526137b760f11b6064820152608490fd5b156135f257565b60405162461bcd60e51b815260206004820152601660248201527510dbdd5b9cd95b1bdc881b9bdd081d995c9a599a595960521b6044820152606490fd5b1561363757565b60405162461bcd60e51b815260206004820152601760248201527f436f756e73656c6f72206e6f7420617661696c61626c650000000000000000006044820152606490fd5b6040519061368982613085565b6006825265189bdbdad95960d21b6020830152565b8054600160401b811015610628576136bb91600182018155613441565b819291549060031b91821b91600019901b1916179055565b91908203918211610d6257565b6000929181546136ef8161332f565b92600191808316908115613748575060011461370c575b50505050565b90919293945060005260209081600020906000915b8583106137375750505050019038808080613706565b805485840152918301918101613721565b60ff1916845250505081151590910201915038808080613706565b91908201809211610d6257565b6040519061377d82613017565b8161018060009182815260609283602083015283604083015283808301528360808301528360a08301528060c08301528060e08301528061010083015280610120830152806101408301526101608201520152565b906137dc826134d7565b6137e960405191826130a0565b82815280926137fa601f19916134d7565b019060005b82811061380b57505050565b602090613816613770565b828285010152016137ff56fea2646970667358221220be86f21c63d41bf6ce42f589a3bbb4fe3a4c1c010d22e56baa5a6260a2995e5264736f6c63430008140033",
  "linkReferences": {},
  "deployedLinkReferences": {}
}