{
  "_format": "hh-sol-artifact-1",
  "contractName": "SistaCircle",
  "sourceName": "contracts/SistaCircle.sol",
  "abi": [
    {
      "inputs": [],
      "stateMutability": "nonpayable",
      "type": "constructor"
    },
    {
      "anonymous": false,
      "inputs": [
        {
          "indexed": true,
          "internalType": "uint256",
          "name": "circleId",
          "type": "uint256"
        }
      ],
      "name": "CircleCompleted",
      "type": "event"
    },
    {
      "anonymous": false,
      "inputs": [
        {
          "indexed": true,
          "internalType": "uint256",
          "name": "circleId",
          "type": "uint256"
        },
        {
          "indexed": true,
          "internalType": "address",
          "name": "creator",
          "type": "address"
        },
        {
          "indexed": false,
          "internalType": "string",
          "name": "name",
          "type": "string"
        }
      ],
      "name": "CircleCreated",
      "type": "event"
    },
    {
      "anonymous": false,
      "inputs": [
        {
          "indexed": true,
          "internalType": "uint256",
          "name": "circleId",
          "type": "uint256"
        },
        {
          "indexed": true,
          "internalType": "address",
          "name": "member",
          "type": "address"
        },
        {
          "indexed": false,
          "internalType": "uint256",
          "name": "amount",
          "type": "uint256"
        }
      ],
      "name": "ContributionMade",
      "type": "event"
    },
    {
      "anonymous": false,
      "inputs": [
        {
          "indexed": true,
          "internalType": "uint256",
          "name": "circleId",
          "type": "uint256"
        },
        {
          "indexed": true,
          "internalType": "address",
          "name": "member",
          "type": "address"
        },
        {
          "indexed": false,
          "internalType": "uint256",
          "name": "amount",
          "type": "uint256"
        }
      ],
      "name": "EmergencyWithdrawal",
      "type": "event"
    },
    {
      "anonymous": false,
      "inputs": [
        {
          "indexed": true,
          "internalType": "uint256",
          "name": "circleId",
          "type": "uint256"
        },
        {
          "indexed": true,
          "internalType": "address",
          "name": "member",
          "type": "address"
        }
      ],
      "name": "MemberJoined",
      "type": "event"
    },
    {
      "anonymous": false,
      "inputs": [
        {
          "indexed": true,
          "internalType": "address",
          "name": "member",
          "type": "address"
        }
      ],
      "name": "MemberVerified",
      "type": "event"
    },
    {
      "anonymous": false,
      "inputs": [
        {
          "indexed": true,
          "internalType": "address",
          "name": "previousOwner",
          "type": "address"
        },
        {
          "indexed": true,
          "internalType": "address",
          "name": "newOwner",
          "type": "address"
        }
      ],
      "name": "OwnershipTransferred",
      "type": "event"
    },
    {
      "anonymous": false,
      "inputs": [
        {
          "indexed": true,
          "internalType": "uint256",
          "name": "circleId",
          "type": "uint256"
        },
        {
          "indexed": true,
          "internalType": "address",
          "name": "recipient",
          "type": "address"
        },
        {
          "indexed": false,
          "internalType": "uint256",
          "name": "amount",
          "type": "uint256"
        }
      ],
      "name": "PayoutDistributed",
      "type": "event"
    },
    {
      "inputs": [
        {
          "internalType": "uint256",
          "name": "",
          "type": "uint256"
        }
      ],
      "name": "circles",
      "outputs": [
        {
          "internalType": "uint256",
          "name": "id",
          "type": "uint256"
        },
        {
          "internalType": "string",
          "name": "name",
          "type": "string"
        },
        {
          "internalType": "string",
          "name": "description",
          "type": "string"
        },
        {
          "internalType": "address",
          "name": "creator",
          "type": "address"
        },
        {
          "internalType": "uint256",
          "name": "contributionAmount",
          "type": "uint256"
        },
        {
          "internalType": "uint256",
          "name": "totalRounds",
          "type": "uint256"
        },
        {
          "internalType": "uint256",
          "name": "currentRound",
          "type": "uint256"
        },
        {
          "internalType": "uint256",
          "name": "maxMembers",
          "type": "uint256"
        },
        {
          "internalType": "uint256",
          "name": "memberCount",
          "type": "uint256"
        },
        {
          "internalType": "uint256",
          "name": "startTime",
          "type": "uint256"
        },
        {
          "internalType": "uint256",
          "name": "roundDuration",
          "type": "uint256"
        },
        {
          "internalType": "enum SistaCircle.CircleState",
          "name": "state",
          "type": "uint8"
        },
        {
          "internalType": "bool",
          "name": "requiresApproval",
          "type": "bool"
        },
        {
          "internalType": "uint256",
          "name": "totalFunds",
          "type": "uint256"
        },
        {
          "internalType": "uint256",
          "name": "emergencyFund",
          "type": "uint256"
        }
      ],
      "stateMutability": "view",
      "type": "function"
    },
    {
      "inputs": [
        {
          "internalType": "uint256",
          "name": "_circleId",
          "type": "uint256"
        }
      ],
      "name": "claimPayout",
      "outputs": [],
      "stateMutability": "nonpayable",
      "type": "function"
    },
    {
      "inputs": [
        {
          "internalType": "uint256",
          "name": "_circleId",
          "type": "uint256"
        }
      ],
      "name": "contribute",
      "outputs": [],
      "stateMutability": "payable",
      "type": "function"
    },
    {
      "inputs": [
        {
          "internalType": "string",
          "name": "_name",
          "type": "string"
        },
        {
          "internalType": "string",
          "name": "_description",
          "type": "string"
        },
        {
          "internalType": "uint256",
          "name": "_contributionAmount",
          "type": "uint256"
        },
        {
          "internalType": "uint256",
          "name": "_totalRounds",
          "type": "uint256"
        },
        {
          "internalType": "uint256",
          "name": "_maxMembers",
          "type": "uint256"
        },
        {
          "internalType": "uint256",
          "name": "_roundDuration",
          "type": "uint256"
        },
        {
          "internalType": "bool",
          "name": "_requiresApproval",
          "type": "bool"
        }
      ],
      "name": "createCircle",
      "outputs": [],
      "stateMutability": "nonpayable",
      "type": "function"
    },
    {
      "inputs": [
        {
          "internalType": "uint256",
          "name": "_circleId",
          "type": "uint256"
        }
      ],
      "name": "emergencyWithdraw",
      "outputs": [],
      "stateMutability": "nonpayable",
      "type": "function"
    },
    {
      "inputs": [
        {
          "internalType": "uint256",
          "name": "_circleId",
          "type": "uint256"
        }
      ],
      "name": "getCircleInfo",
      "outputs": [
        {
          "components": [
            {
              "internalType": "uint256",
              "name": "id",
              "type": "uint256"
            },
            {
              "internalType": "string",
              "name": "name",
              "type": "string"
            },
            {
              "internalType": "string",
              "name": "description",
              "type": "string"
            },
            {
              "internalType": "address",
              "name": "creator",
              "type": "address"
            },
            {
              "internalType": "uint256",
              "name": "contributionAmount",
              "type": "uint256"
            },
            {
              "internalType": "uint256",
              "name": "totalRounds",
              "type": "uint256"
            },
            {
              "internalType": "uint256",
              "name": "currentRound",
              "type": "uint256"
            },
            {
              "internalType": "uint256",
              "name": "maxMembers",
              "type": "uint256"
            },
            {
              "internalType": "uint256",
              "name": "memberCount",
              "type": "uint256"
            },
            {
              "internalType": "uint256",
              "name": "startTime",
              "type": "uint256"
            },
            {
              "internalType": "uint256",
              "name": "roundDuration",
              "type": "uint256"
            },
            {
              "internalType": "enum SistaCircle.CircleState",
              "name": "state",
              "type": "uint8"
            },
            {
              "internalType": "bool",
              "name": "requiresApproval",
              "type": "bool"
            },
            {
              "internalType": "uint256",
              "name": "totalFunds",
              "type": "uint256"
            },
            {
              "internalType": "uint256",
              "name": "emergencyFund",
              "type": "uint256"
            }
          ],
          "internalType": "struct SistaCircle.CircleInfo",
          "name": "",
          "type": "tuple"
        }
      ],
      "stateMutability": "view",
      "type": "function"
    },
    {
      "inputs": [
        {
          "internalType": "uint256",
          "name": "_circleId",
          "type": "uint256"
        },
        {
          "internalType": "address",
          "name": "_member",
          "type": "address"
        }
      ],
      "name": "getMemberInfo",
      "outputs": [
        {
          "components": [
            {
              "internalType": "bool",
              "name": "isActive",
              "type": "bool"
            },
            {
              "internalType": "enum SistaCircle.MemberStatus",
              "name": "status",
              "type": "uint8"
            },
            {
              "internalType": "uint256",
              "name": "contributionsMade",
              "type": "uint256"
            },
            {
              "internalType": "uint256",
              "name": "roundReceived",
              "type": "uint256"
            },
            {
              "internalType": "uint256",
              "name": "lastContributionTime",
              "type": "uint256"
            },
            {
              "internalType": "string",
              "name": "profileInfo",
              "type": "string"
            }
          ],
          "internalType": "struct SistaCircle.Member",
          "name": "",
          "type": "tuple"
        }
      ],
      "stateMutability": "view",
      "type": "function"
    },
    {
      "inputs": [
        {
          "internalType": "uint256",
          "name": "_circleId",
          "type": "uint256"
        },
        {
          "internalType": "uint256",
          "name": "_round",
          "type": "uint256"
        }
      ],
      "name": "getRoundRecipient",
      "outputs": [
        {
          "internalType": "address",
          "name": "",
          "type": "address"
        }
      ],
      "stateMutability": "view",
      "type": "function"
    },
    {
      "inputs": [],
      "name": "getTotalCircles",
      "outputs": [
        {
          "internalType": "uint256",
          "name": "",
          "type": "uint256"
        }
      ],
      "stateMutability": "view",
      "type": "function"
    },
    {
      "inputs": [
        {
          "internalType": "address",
          "name": "_user",
          "type": "address"
        }
      ],
      "name": "getUserCircles",
      "outputs": [
        {
          "internalType": "uint256[]",
          "name": "",
          "type": "uint256[]"
        }
      ],
      "stateMutability": "view",
      "type": "function"
    },
    {
      "inputs": [
        {
          "internalType": "uint256",
          "name": "_circleId",
          "type": "uint256"
        }
      ],
      "name": "joinCircle",
      "outputs": [],
      "stateMutability": "payable",
      "type": "function"
    },
    {
      "inputs": [],
      "name": "owner",
      "outputs": [
        {
          "internalType": "address",
          "name": "",
          "type": "address"
        }
      ],
      "stateMutability": "view",
      "type": "function"
    },
    {
      "inputs": [],
      "name": "renounceOwnership",
      "outputs": [],
      "stateMutability": "nonpayable",
      "type": "function"
    },
    {
      "inputs": [
        {
          "internalType": "address",
          "name": "newOwner",
          "type": "address"
        }
      ],
      "name": "transferOwnership",
      "outputs": [],
      "stateMutability": "nonpayable",
      "type": "function"
    },
    {
      "inputs": [
        {
          "internalType": "address",
          "name": "",
          "type": "address"
        },
        {
          "internalType": "uint256",
          "name": "",
          "type": "uint256"
        }
      ],
      "name": "userCircles",
      "outputs": [
        {
          "internalType": "uint256",
          "name": "",
          "type": "uint256"
        }
      ],
      "stateMutability": "view",
      "type": "function"
    },
    {
      "inputs": [
        {
          "internalType": "address",
          "name": "",
          "type": "address"
        }
      ],
      "name": "verifiedMembers",
      "outputs": [
        {
          "internalType": "bool",
          "name": "",
          "type": "bool"
        }
      ],
      "stateMutability": "view",
      "type": "function"
    },
    {
      "inputs": [
        {
          "internalType": "address",
          "name": "_member",
          "type": "address"
        }
      ],
      "name": "verifyMember",
      "outputs": [],
      "stateMutability": "nonpayable",
      "type": "function"
    },
    {
      "stateMutability": "payable",
      "type": "receive"
    }
  ],
  "bytecode": "0x6080806040523461005e57600160008181558154336001600160a01b0319821681179093556001600160a01b0316907f8be0079c531659141344cd1fd0a4f28419497f9722a3daafe3b4186f6b6457e09080a36121b490816100648239f35b600080fdfe6080604052600436101561001b575b361561001957600080fd5b005b60003560e01c80630950dc1f14611c5957806311a7001d1461152257806312353076146115045780631e67939e146113c1578063482ab94a1461135e5780635312ea8e1461112a578063715018a6146110cd57806386d6cfb314610cbd57806387da1ddf14610c7e57806388e81d8a14610bca5780638a69614e1461093d5780638da5cb5b14610914578063bc5e0f3014610805578063c1cbbca714610477578063da5f5cff1461020d578063eae25d42146101a45763f2fde38b0361000e573461019f57602036600319011261019f576100f4611cb1565b6100fc611f0f565b6001600160a01b0390811690811561014b57600154826001600160601b0360a01b821617600155167f8be0079c531659141344cd1fd0a4f28419497f9722a3daafe3b4186f6b6457e0600080a3005b60405162461bcd60e51b815260206004820152602660248201527f4f776e61626c653a206e6577206f776e657220697320746865207a65726f206160448201526564647265737360d01b6064820152608490fd5b600080fd5b3461019f57602036600319011261019f576101bd611cb1565b6101c5611f0f565b6001600160a01b03166000818152600560205260408120805460ff191660011790557fe9728d5d2e2da57ffaf3e5267ed579f306d06e34cf58508a23d7dd661ab6838e9080a2005b3461019f57602036600319011261019f5760006101c060405161022f81611d11565b82815260606020820152606060408201528260608201528260808201528260a08201528260c08201528260e08201528261010082015282610120820152826101408201528261016082015282610180820152826101a08201520152600254600435908111158061046e575b6102a390611ff6565b60005260036020526040600020805490600160a01b600190036003820154166004820154600583015460068401546007850154600886015490600987015492600a88015494600b89015496600c8a015498600d8b01549a6040519c6103078e611d11565b8d528c61031660018301611e69565b906020015260020161032790611e69565b60408d015260608c015260808b015260a08a015260c089015260e088015261010087015261012086015261014085015261036360ff8216611dcf565b60ff811661016085015260081c60ff1615156101808401526101a08301526101c0820152604051809160208252805160208301526020810151604083016101e0905261020083016103b391611def565b6040820151838203601f190160608501526103ce9190611def565b90600160a01b600190036060820151166080840152608081015160a084015260a081015160c084015260c081015160e084015260e081015161010084015261010081015161012084015261012081015161014084015261014081015161016084015261016081015161043f81611dcf565b61018084015261018081015115156101a08401526101a08101516101c08401526101c001516101e08301520390f35b5080151561029a565b60208060031936011261019f5760043590600254821115806107fc575b61049d90611ff6565b81600052600390818152600e60406000200133600052815260ff916104c883604060002054166120df565b6104d0612089565b8360005280825260406000209033600052600e82018352604060002061050585600b850154166104ff81611dcf565b1561203a565b60098301549586156107c2576004840154340361077d5781549386600895861c1661052f81611dcf565b61073857600692610552848301549961054c600a8501548c612121565b90612134565b42116106f357600198898201908154908110156106ae576105729061207a565b90558442910155600534023481046005143415171561069857600d60646105bc9299969904926105a28434612141565b6105b1600c8301918254612134565b905501918254612134565b9055604051348152817f0a4a91237423e0a1766a761c7cb029311d8b95d6b1b81db1b949a70c98b4e08e873393a36000528484526040600020916000946000916010850197885498600e8701945b8a81106106185760008c9055005b6106228183611cc7565b905490841b1c6001600160a01b0316600081815287875260409020548a1c851661064b81611dcf565b15908161067c575b50610667575b6106629061207a565b61060a565b986106746106629161207a565b999050610659565b90506000528585528b604060002001548789015411158d610653565b634e487b7160e01b600052601160045260246000fd5b60405162461bcd60e51b8152600481018a9052601e60248201527f416c726561647920636f6e7472696275746564207468697320726f756e6400006044820152606490fd5b60405162461bcd60e51b815260048101889052601f60248201527f526f756e6420636f6e747269627574696f6e20706572696f6420656e646564006044820152606490fd5b60405162461bcd60e51b815260048101879052601b60248201527f4d656d626572206e6f7420696e20676f6f64207374616e64696e6700000000006044820152606490fd5b60405162461bcd60e51b815260048101869052601d60248201527f496e636f727265637420636f6e747269627574696f6e20616d6f756e740000006044820152606490fd5b60405162461bcd60e51b815260048101869052601260248201527110da5c98db19481b9bdd081cdd185c9d195960721b6044820152606490fd5b50811515610494565b3461019f57602036600319011261019f576004356000526003602052604060002080546001820161083590611e69565b9161084260028201611e69565b600160a01b60019003600383015416916004810154600582015460068301546007840154600885015490600986015492600a87015494600b88015496600c89015498600d0154996040519d8e9d8e528d6101e090816020820152016108a691611def565b8d810360408f01526108b791611def565b9a60608d015260808c015260a08b015260c08a015260e089015261010088015261012087015261014086015260ff81166108f081611dcf565b61016086015260081c60ff1615156101808501526101a08401526101c08301520390f35b3461019f57600036600319011261019f576001546040516001600160a01b039091168152602090f35b3461019f5760208060031936011261019f576004359060025482111580610bc1575b61096890611ff6565b8160005260038152600e60406000200133600052815261098f60ff604060002054166120df565b610997612089565b8160005260038152604060002090600682019081549081600052600f840181523360018060a01b036040600020541603610b7d57600e840133600052808252600260406000200154610b38576109f66004860154600887015490612121565b92600c86019184835410610afe57336000528352600260406000200155610a1e838254612141565b9055600080808085335af1610a3161214e565b5015610ac1577f829a492b098e906d67afcc4c67889ac97486df205cd59c8749f8f61d7822038285916040519384523393a3805460058301548103610aad575050600b01805460ff191660011790557ffccd3901546cfbb42742cac2c7335bce34f1f8d9844f4f4b53640f79e3101087600080a25b6001600055005b909250610aba915061207a565b9055610aa6565b6064906040519062461bcd60e51b82526004820152601660248201527514185e5bdd5d081d1c985b9cd9995c8819985a5b195960521b6044820152fd5b60405162461bcd60e51b8152600481018590526012602482015271496e73756666696369656e742066756e647360701b6044820152606490fd5b60405162461bcd60e51b815260048101839052601760248201527f416c7265616479207265636569766564207061796f75740000000000000000006044820152606490fd5b6064906040519062461bcd60e51b82526004820152601c60248201527f4e6f7420726563697069656e7420666f72207468697320726f756e64000000006044820152fd5b5081151561095f565b3461019f5760208060031936011261019f576001600160a01b03610bec611cb1565b1660005260048152604060002060405190818382549182815201908192600052846000209060005b86828210610c6a578686610c2a82880383611d4a565b604051928392818401908285525180915260408401929160005b828110610c5357505050500390f35b835185528695509381019392810192600101610c44565b835485529093019260019283019201610c14565b3461019f57602036600319011261019f576001600160a01b03610c9f611cb1565b166000526005602052602060ff604060002054166040519015158152f35b602036600319011261019f576002546004351115806110c2575b610ce090611ff6565b610ce8612089565b60043560005260036020526040600020610d0c60ff600b830154166104ff81611dcf565b60088101546007820154111561108c57600e8101336000528060205260ff604060002054166110545760098201546110165760405190610d4b82611cf5565b6001825260208201600081526040830160008152606084019060008252610dc160808601936000855260405195610d8187611d2e565b6000875260a0880196875233600052602052610db1604060002097511515889060ff801983541691151516179055565b51610dbb81611dcf565b86611f67565b5160018501555160028401555160038301555180519067ffffffffffffffff821161100057610df36004840154611e2f565b601f8111610fb5575b50602090601f8311600114610f45576004929160009183610f3a575b50508160011b916000199060031b1c1916179101555b610e3b3360108301611f86565b610e48600882015461207a565b6008820155336000526004602052610e666004356040600020611fc1565b6008810154600782015414610ea6575b336004357f78da64a590c3052953ad9e0a5546bbf12bb68ae7634e3fb2a774e22a8c6557c1600080a36001600055005b60066001914260098201550155600435600052600360205260406000206000906005810190600f601082019101925b8254811015610f3057610ee88183611cc7565b905460018301929160031b1c6001600160a01b031682821161069857610f2b92600052856020526040600020906001600160601b0360a01b82541617905561207a565b610ed5565b5050505080610e76565b015190508580610e18565b906004840160005260206000209160005b601f1985168110610f9d5750918391600193600495601f19811610610f84575b505050811b01910155610e2e565b015160001960f88460031b161c19169055858080610f76565b91926020600181928685015181550194019201610f56565b600484016000526020600020601f840160051c81019160208510610ff6575b601f0160051c01905b818110610fea5750610dfc565b60008155600101610fdd565b9091508190610fd4565b634e487b7160e01b600052604160045260246000fd5b60405162461bcd60e51b815260206004820152601660248201527510da5c98db1948185b1c9958591e481cdd185c9d195960521b6044820152606490fd5b60405162461bcd60e51b815260206004820152601060248201526f20b63932b0b23c90309036b2b6b132b960811b6044820152606490fd5b60405162461bcd60e51b815260206004820152600e60248201526d10da5c98db19481a5cc8199d5b1b60921b6044820152606490fd5b506004351515610cd7565b3461019f57600036600319011261019f576110e6611f0f565b600180546001600160a01b031981169091556000906001600160a01b03167f8be0079c531659141344cd1fd0a4f28419497f9722a3daafe3b4186f6b6457e08280a3005b3461019f5760208060031936011261019f5760043560025481111580611355575b61115490611ff6565b8060005260038252600e60406000200133600052825261117b60ff604060002054166120df565b611183612089565b806000526003825260406000209133600052600e83018152604060002080549060ff8260081c166111b381611dcf565b61131c57600181015480156112df5760048601546111d091612121565b605081029080820460501490151715610698576064600d91049501918583541061129a576102009061ff00191617905561120b848254612141565b9055600080808086335af161121e61214e565b5015611256577f18fcb562d23857df60e33824b748cb5c3af4e22375458317e7a33e52a971413f906040519384523393a36001600055005b6064906040519062461bcd60e51b82526004820152601b60248201527f456d657267656e6379207769746864726177616c206661696c656400000000006044820152fd5b60405162461bcd60e51b815260048101859052601c60248201527f496e73756666696369656e7420656d657267656e63792066756e6473000000006044820152606490fd5b60405162461bcd60e51b81526004810185905260156024820152744e6f20636f6e747269627574696f6e73206d61646560581b6044820152606490fd5b60405162461bcd60e51b81526004810184905260116024820152704d656d626572206e6f742061637469766560781b6044820152606490fd5b5080151561114b565b3461019f57604036600319011261019f57600435600254811115806113b8575b61138790611ff6565b6000526003602052600f604060002001602435600052602052602060018060a01b0360406000205416604051908152f35b5080151561137e565b3461019f57604036600319011261019f576004356024356001600160a01b0381169081900361019f57604051916113f783611cf5565b60008352606060a060209460008682015260006040820152600083820152600060808201520152600254811115806114fb575b61143390611ff6565b60005260038252600e60406000200190600052815260406000206114f76040519161145d83611cf5565b60ff81548181161515855260081c16908484019161147a81611dcf565b8252600181015460408501908152600282015490606086019182526114ad60046003850154946080890195865201611e69565b9360a0870194855260405197889781895251151590880152516114cf81611dcf565b60408701525160608601525160808501525160a08401525160c08084015260e0830190611def565b0390f35b5080151561142a565b3461019f57600036600319011261019f576020600254604051908152f35b3461019f5760e036600319011261019f5760043567ffffffffffffffff811161019f57611553903690600401611d88565b602490813567ffffffffffffffff811161019f57611575903690600401611d88565b60c43592831515840361019f57604493843515611c09576002606435101580611bfc575b15611bc1576003608435101580611bb4575b15611b715760643560843503611b2e576201518060a43510611aeb576001600254019485600255856000526003602052604060002093868555855167ffffffffffffffff8111611a17576116026001870154611e2f565b601f8111611aa4575b50806020601f8211600114611a3757600091611a2c575b508160011b916000199060031b1c19161760018601555b80519067ffffffffffffffff8211611a1757819061165a6002880154611e2f565b601f81116119c4575b50602090601f831160011461195257600092611947575b50508160011b916000199060031b1c19161760028501555b60038401336001600160601b0360a01b8254161790553560048401556064356005840155600060068401556084356007840155600160088401556000600984015560a435600a840155600b83019061ff00825491151560081b169061ffff19161790556040519061170282611cf5565b6001825260046020830192600084526040810160008152606082016000815260808301916000835261177e6040519761173a89611d2e565b6000895260a0860198895233600052600e8a0160205261176e604060002096511515879060ff801983541691151516179055565b5161177881611dcf565b85611f67565b51600184015551600283015551600382015501915180519167ffffffffffffffff831161193357506117b08354611e2f565b601f81116118eb575b50602090601f831160011461187e576117f79493929160009183611873575b50508160011b916000199060031b1c19161790555b6010339101611f86565b33600052600460205261180e826040600020611fc1565b817f6f657d36deb3b1aa2e949c5df40eac9d79359a73c2402cefa7aee870f9ceafc0604051602081528061184733956020830190611def565b0390a333907f78da64a590c3052953ad9e0a5546bbf12bb68ae7634e3fb2a774e22a8c6557c1600080a3005b0151905087806117d8565b90601f198316918460005260206000209260005b8181106118d357509160019391856117f798979694106118ba575b505050811b0190556117ed565b015160001960f88460031b161c191690558780806118ad565b92936020600181928786015181550195019301611892565b836000526020600020601f840160051c81019160208510611929575b601f0160051c01905b81811061191d57506117b9565b60008155600101611910565b9091508190611907565b634e487b7160e01b60009081526041600452fd5b01519050888061167a565b9250600287016000526020600020906000935b601f19841685106119a9576001945083601f19811610611990575b505050811b016002850155611692565b015160001960f88460031b161c19169055888080611980565b81810151835560209485019460019093019290910190611965565b909150600287016000526020600020601f840160051c810160208510611a10575b90849392915b601f830160051c82018110611a01575050611663565b600081558594506001016119eb565b50806119e5565b84634e487b7160e01b60005260416004526000fd5b905087015189611622565b91506001870160005260206000206000925b601f1983168410611a8c576001935082601f19811610611a73575b5050811b016001860155611639565b89015160001960f88460031b161c191690558980611a64565b89810151825560209384019360019092019101611a49565b600187016000526020600020601f830160051c810160208410611ae4575b601f830160051c82018110611ad857505061160b565b60008155600101611ac2565b5080611ac2565b60405162461bcd60e51b815260206004820152601f818401527f4d696e696d756d20726f756e64206475726174696f6e2069732031206461790081870152606490fd5b60405162461bcd60e51b8152602060048201526019818401527f4d656d62657273206d75737420657175616c20726f756e64730000000000000081870152606490fd5b60405162461bcd60e51b815260206004820152601b818401527f496e76616c6964206d656d62657220636f756e742028332d323029000000000081870152606490fd5b50601460843511156115ab565b60405162461bcd60e51b81526020600482015260158184015274496e76616c696420726f756e64732028322d35322960581b81870152606490fd5b5060346064351115611599565b60405162461bcd60e51b8152602060048201528083018390527f436f6e747269627574696f6e20616d6f756e74206d75737420626520706f736981870152637469766560e01b6064820152608490fd5b3461019f57604036600319011261019f57611c72611cb1565b6001600160a01b031660009081526004602052604090208054602435919082101561019f57602091611ca391611cc7565b90546040519160031b1c8152f35b600435906001600160a01b038216820361019f57565b8054821015611cdf5760005260206000200190600090565b634e487b7160e01b600052603260045260246000fd5b60c0810190811067ffffffffffffffff82111761100057604052565b6101e0810190811067ffffffffffffffff82111761100057604052565b6020810190811067ffffffffffffffff82111761100057604052565b90601f8019910116810190811067ffffffffffffffff82111761100057604052565b67ffffffffffffffff811161100057601f01601f191660200190565b81601f8201121561019f57803590611d9f82611d6c565b92611dad6040519485611d4a565b8284526020838301011161019f57816000926020809301838601378301015290565b60031115611dd957565b634e487b7160e01b600052602160045260246000fd5b919082519283825260005b848110611e1b575050826000602080949584010152601f8019910116010190565b602081830181015184830182015201611dfa565b90600182811c92168015611e5f575b6020831014611e4957565b634e487b7160e01b600052602260045260246000fd5b91607f1691611e3e565b9060405191826000825492611e7d84611e2f565b908184526001948581169081600014611eec5750600114611ea9575b5050611ea792500383611d4a565b565b9093915060005260209081600020936000915b818310611ed4575050611ea793508201013880611e99565b85548884018501529485019487945091830191611ebc565b915050611ea794506020925060ff191682840152151560051b8201013880611e99565b6001546001600160a01b03163303611f2357565b606460405162461bcd60e51b815260206004820152602060248201527f4f776e61626c653a2063616c6c6572206973206e6f7420746865206f776e65726044820152fd5b90611f7181611dcf565b61ff0082549160081b169061ff001916179055565b8054600160401b81101561100057611fa391600182018155611cc7565b819291549060031b9160018060a01b03809116831b921b1916179055565b8054600160401b81101561100057611fde91600182018155611cc7565b819291549060031b91821b91600019901b1916179055565b15611ffd57565b60405162461bcd60e51b815260206004820152601560248201527410da5c98db1948191bd95cc81b9bdd08195e1a5cdd605a1b6044820152606490fd5b1561204157565b60405162461bcd60e51b8152602060048201526011602482015270436972636c65206e6f742061637469766560781b6044820152606490fd5b60001981146106985760010190565b60026000541461209a576002600055565b60405162461bcd60e51b815260206004820152601f60248201527f5265656e7472616e637947756172643a207265656e7472616e742063616c6c006044820152606490fd5b156120e657565b60405162461bcd60e51b81526020600482015260136024820152722737ba10309031b4b931b6329036b2b6b132b960691b6044820152606490fd5b8181029291811591840414171561069857565b9190820180921161069857565b9190820391821161069857565b3d15612179573d9061215f82611d6c565b9161216d6040519384611d4a565b82523d6000602084013e565b60609056fea2646970667358221220ee409aec3b415419b4f70ea1505eee8ffc0555fadab204340c79e90af73f88dd64736f6c63430008140033",
  "linkReferences": {},
  "deployedLinkReferences": {}
}